:040000003DEF03F0DD
:060008005782E4EFC6F090
:100018005780D8CF4CF0E8CF4DF0E0CF4EF0D9CF95
:100028004FF0DACF50F0F3CF51F0F4CF52F0F6CFD3
:1000380053F0F7CF54F0F8CF55F0F5CF56F00E0146
:1000480033AB29EF00F02BEF00F0CDEF02F09096E4
:10005800339BE30ED46EB00ED36E232A09500A10D8
:10006800D8B439EF00F03BEF00F0BEEF00F090A0FD
:1000780040EF00F042EF00F0BEEF00F00906D8A014
:100088000A060101672B1D50D8B44DEF00F04FEF61
:1000980000F057EF00F0030E1D6055EF00F057EF2A
:1000A80000F058EF00F01D2A010E346E020E356E76
:1000B800330E366EF90E376E000E396E050E386E39
:1000C800E1ECDCF034503510D8A46DEF00F06FEFA0
:1000D80000F08AEF00F0060E346E020E356E3F0E09
:1000E800366EF90E376E000E396E050E386EE1EC7D
:1000F800DCF034503510D8A484EF00F086EF00F01F
:100108008AEF00F017ECEEF00101682B010167514E
:10011800476E486A6851496E4A6A010E4926000EC0
:100128004A224750495C4A50800A4B6E4850800A20
:100138004B58D8A0A2EF00F0A4EF00F0B2EF00F007
:10014800A50E406EFD0E416E910E426E010E436E7D
:10015800000E446E4AEC8FF0BEEF00F0F00E406ED9
:10016800FB0E416E910E426E010E436E000E446E00
:100178004AEC8FF090A4C3EF00F0C5EF00F00DEF4C
:1001880002F08EA6CAEF00F0CCEF00F0E7EF00F027
:1001980001014E51461907E14F514719D8A4D7EF2D
:1001A80000F0D9EF00F0E3EF00F08E96000E476FF5
:1001B800000E466F364B372B6C2B17EF01F0464B72
:1001C800472B17EF01F08EB6ECEF00F0EEEF00F0E2
:1001D80017EF01F001013E51361907E13F51371978
:1001E800D8A4F9EF00F0FBEF00F015EF01F0705123
:1001F8006C5DD8B002EF01F004EF01F00DEF01F0F3
:100208008E86464B472B000E376F000E366F17EF62
:1002180001F0010E3E25366F000E3F21376F17EFB4
:1002280001F0364B372B8EA81CEF01F01EEF01F0C2
:1002380039EF01F001014C51441907E14D514519BD
:10024800D8A429EF01F02BEF01F035EF01F08E98DB
:10025800000E456F000E446F344B352B6B2B69EF46
:1002680001F0444B452B69EF01F08EB83EEF01F0E9
:1002780040EF01F069EF01F001013C51341907E149
:100288003D513519D8A44BEF01F04DEF01F067EF60
:1002980001F06F516B5DD8B054EF01F056EF01F0EB
:1002A8005FEF01F08E88444B452B000E356F000E32
:1002B800346F69EF01F0010E3C25346F000E3D21CB
:1002C800356F69EF01F0344B352B8EAA6EEF01F0D4
:1002D80070EF01F08BEF01F001014A51421907E17B
:1002E8004B514319D8A47BEF01F07DEF01F087EF64
:1002F80001F08E9A000E436F000E426F324B332B83
:100308006A2BBBEF01F0424B432BBBEF01F08EBAD7
:1003180090EF01F092EF01F0BBEF01F001013A51CB
:10032800321907E13B513319D8A49DEF01F09FEF33
:1003380001F0B9EF01F06E516A5DD8B0A6EF01F097
:10034800A8EF01F0B1EF01F08E8A424B432B000E6B
:10035800336F000E326FBBEF01F0010E3A25326F9A
:10036800000E3B21336FBBEF01F0324B332B8EACC9
:10037800C0EF01F0C2EF01F0DDEF01F001014851DB
:10038800401907E149514119D8A4CDEF01F0CFEF49
:1003980001F0D9EF01F08E9C000E416F000E406F06
:1003A800304B312B692B0DEF02F0404B412B0DEFF9
:1003B80002F08EBCE2EF01F0E4EF01F00DEF02F085
:1003C80001013851301907E139513119D8A4EFEF3B
:1003D80001F0F1EF01F00BEF02F06D51695DD8B05B
:1003E800F8EF01F0FAEF01F003EF02F08E8C404BCA
:1003F800412B000E316F000E306F0DEF02F0010E31
:100408003825306F000E3921316F0DEF02F0304B77
:10041800312B630E2218D8A414EF02F016EF02F065
:100428001AEF02F0000E236ECDEF02F02204D8A4DA
:1004380020EF02F022EF02F032EF02F021502318F1
:10044800D8A429EF02F02BEF02F032EF02F0000EF1
:10045800236E8A86020E226ECDEF02F0020E22185B
:10046800D8A439EF02F03BEF02F04BEF02F01E5038
:100478002318D8A442EF02F044EF02F04BEF02F049
:10048800000E236E8A96030E226ECDEF02F0030E45
:100498002218D8A452EF02F054EF02F064EF02F0F1
:1004A80020502318D8A45BEF02F05DEF02F064EF50
:1004B80002F0000E236E8A88040E226ECDEF02F041
:1004C800040E2218D8A46BEF02F06DEF02F07DEF56
:1004D80002F01E502318D8A474EF02F076EF02F051
:1004E8007DEF02F0000E236E8A98050E226ECDEF86
:1004F80002F0050E2218D8A484EF02F086EF02F06D
:1005080096EF02F020502318D8A48DEF02F08FEF59
:1005180002F096EF02F0000E236E8A8A060E226E13
:10052800CDEF02F0060E2218D8A49DEF02F09FEF3F
:1005380002F0AFEF02F01E502318D8A4A6EF02F085
:10054800A8EF02F0AFEF02F0000E236E8A9A070EB2
:10055800226ECDEF02F0070E2218D8A4B6EF02F0F3
:10056800B8EF02F0CDEF02F02350476E486A0B5007
:10057800471807E10C504818D8A4C5EF02F0C7EF98
:1005880002F0CDEF02F0000E236E010E226ECDEFC9
:1005980002F00E0138A1D3EF02F0D5EF02F0DAEF46
:1005A80002F090960101632B0E01389138A5DFEF18
:1005B80002F0E1EF02F025EF03F090963895F00E87
:1005C800C86EDC0EC76E0101622B6251665DD8B041
:1005D800F0EF02F0F2EF02F018EF03F01950D8A490
:1005E800F8EF02F0FAEF02F018EF03F0010E196EBF
:1005F800000E626FC9905751D8B405EF03F007EFAA
:1006080003F00CEF03F0010E0001E06F25EF03F09B
:100618006151D8B412EF03F014EF03F025EF03F0A3
:10062800010E1A6E25EF03F01950D8B41EEF03F02F
:1006380020EF03F025EF03F0000E626FC99025EF5D
:1006480003F056C0F5FF55C0F8FF54C0F7FF53C07C
:10065800F6FF52C0F4FF51C0F3FF50C0DAFF4FC09D
:10066800D9FF4EC0E0FF4DC0E8FF4CC0D8FF5790FF
:060678001000EBEFE2F0C0
:10EB9E000049727269676174696F6E206973206EC5
:10EBAE006F74204163746976652E204665727469B0
:10EBBE00676174696F6E206E6F7420656E61626C32
:10EBCE00656420666F72206669656C64206E6F2EB8
:10EBDE000053797374656D2041757468656E746940
:10EBEE006361746564207769746820506861736529
:10EBFE00206661696C7572652C2073757370656E15
:10EC0E0064696E6720616C6C20616374696F6E73EA
:10EC1E0000496E636F72726563742076616C756500
:10EC2E00732E204665727469676174696F6E206E0B
:10EC3E006F7420656E61626C656420666F7220660B
:10EC4E0069656C64206E6F2E00596F752061726558
:10EC5E00206E6F206D6F72652041646D696E206E3F
:10EC6E006F772E204E65772041646D696E20697333
:10EC7E002073657420746F0D0A000000537973744D
:10EC8E00656D207265736574206F6363757272654E
:10EC9E00642C2049727269676174696F6E207365A6
:10ECAE007474696E672064656C657465640049727E
:10ECBE007269676174696F6E20697320616374692C
:10ECCE0076652C204D6F746F72206C6F61642063BB
:10ECDE0075742D6F6666206E6F74207365740049AF
:10ECEE00727269676174696F6E20636F6E666967B1
:10ECFE0075726174696F6E2064697361626C6564AC
:10ED0E0020666F72206669656C64206E6F2E004DF2
:10ED1E006F6973747572652073656E736F7220669A
:10ED2E0072657175656E63792076616C75652066A6
:10ED3E006F72206669656C64206E6F2E0053797356
:10ED4E0074656D2074696D652073796E63656420DA
:10ED5E00746F2063757272656E74206C6F63616C74
:10ED6E002074696D65004D6F6973747572652073DB
:10ED7E00656E736F72206973206661696C656420BD
:10ED8E00666F72206669656C64206E6F2E00497224
:10ED9E007269676174696F6E206E6F7420636F6E37
:10EDAE006669677572656420666F72206669656C48
:10EDBE0064206E6F2E0049727269676174696F6E9E
:10EDCE00206669656C64206D61707065642077697A
:10EDDE0074682076616C766573004972726967613A
:10EDEE0074696F6E20636F6E6669677572656420F5
:10EDFE00666F72206669656C64206E6F2E004D6FB3
:10EE0E00746F726C6F6164206375742D6F6666200B
:10EE1E00736574207375636365737366756C6C7953
:10EE2E00004665727469676174696F6E20646973F8
:10EE3E0061626C656420666F72206669656C642021
:10EE4E006E6F2E004665727469676174696F6E200D
:10EE5E00656E61626C656420666F72206669656CB2
:10EE6E0064206E6F2E0057617465722046696C7453
:10EE7E00726174696F6E206973206E6F7420656E97
:10EE8E0061626C6564004C6F67696E20636F6465C8
:10EE9E00206368616E676564207375636365737361
:10EEAE0066756C6C79000000300060009000C00048
:10EEBE00F000200150018001B001E001100240027B
:10EECE007002A002D00257617465722066696C747C
:10EEDE00726174696F6E20646561637469766174C2
:10EEEE00656400496E636F7272656374206C6F6344
:10EEFE00616C2074696D6520666F756E6400576174
:10EF0E007465722046696C74726174696F6E2053F9
:10EF1E00657175656E63653A00576174657220663A
:10EF2E00696C74726174696F6E2061637469766165
:10EF3E007465640050686173652042206661696C77
:10EF4E0075726520646574656374656400506861EC
:10EF5E0073652059206661696C75726520646574ED
:10EF6E0065637465640057726F6E67206C6F6769B6
:10EF7E006E20636F646520666F756E64004C6F67FC
:10EF8E00696E20636F6465206E6F74206368616EB6
:10EF9E006765640041646D696E20736574207375D6
:10EFAE00636365737366756C6C790041757468651F
:10EFBE006E7469636174696F6E206661696C6564F5
:10EFCE000054657374204461746120496E6A6563F0
:10EFDE007465640053797374656D20436F6E6E654E
:10EFEE006374656400466163746F7279204B657952
:10EFFE00203A20002B434D54493A2022534D222CC7
:10F00E0078003132333435363738393132004745AE
:10F01E0054465245510045585452414354004441C0
:10F02E0043544956450044495341424C4500494ECC
:10F03E004A4543540041435449564500454E4142CA
:10F04E004C45004745544354004644415441004901
:10F05E00444C4500464545440054494D4500484FF3
:10F06E004C4400484F4F4B002B3931005343540052
:10F07E004D415000534554004354006F6B004155B1
:10F08E00004472792052756E2064657465637465F0
:10F09E00642C204D6F746F722C20497272696761F7
:10F0AE0074696F6E20616E64204665727469676163
:10F0BE0074696F6E207377697463686564206F6618
:10F0CE00662E0D0A49727269676174696F6E2073DC
:10F0DE0063686564756C656420746F206E65787402
:10F0EE002064617920776974682066657274696737
:10F0FE006174696F6E20666F72206669656C64203C
:10F10E006E6F2E0000004472792052756E20646579
:10F11E007465637465642C204D6F746F7220616E1C
:10F12E00642049727269676174696F6E20737769C2
:10F13E007463686564206F66662E0D0A4972726983
:10F14E00676174696F6E207363686564756C65645E
:10F15E0020746F206E6578742064617920776974ED
:10F16E0068206665727469676174696F6E20666F78
:10F17E0072206669656C64206E6F2E00000044720A
:10F18E00792052756E2064657465637465642C20F5
:10F19E004D6F746F7220616E64204972726967617F
:10F1AE0074696F6E207377697463686564206F6627
:10F1BE00662E0D0A49727269676174696F6E2073EB
:10F1CE0063686564756C656420746F206E65787411
:10F1DE0020647565206461746520666F72206669AF
:10F1EE00656C64206E6F2E0000004472792052759B
:10F1FE006E2064657465637465642C204D6F746F46
:10F20E007220616E642049727269676174696F6EF3
:10F21E00207377697463686564206F66662E0D0AC5
:10F22E0049727269676174696F6E20736368656491
:10F23E00756C656420746F206E65787420646179D6
:10F24E0020666F72206669656C64206E6F2E0000FA
:10F25E000053797374656D20726573746172746591
:10F26E006420666F7220416C6C205068617365205B
:10F27E00446574656374696F6E207769746820697C
:10F28E006E636F6D706C657465204972726967612B
:10F29E0074696F6E20666F72206669656C64206E8D
:10F2AE006F2E0053797374656D207265737461727D
:10F2BE0074656420666F7220506F77657220496E98
:10F2CE0074657272757074207769746820696E63E4
:10F2DE006F6D706C657465204972726967617469CF
:10F2EE006F6E20666F72206669656C64206E6F2E7D
:10F2FE000053797374656D207265737461727465F1
:10F30E006420696E20446961676E6F73746963204F
:10F31E004D6F6465207769746820696E636F6D70D8
:10F32E006C6574652049727269676174696F6E20CD
:10F33E00666F72206669656C64206E6F2E0053795D
:10F34E007374656D20726573746172746564206682
:10F35E006F72204C6F7720506F77657220496E2048
:10F36E007769746820696E636F6D706C6574652063
:10F37E0049727269676174696F6E20666F7220667A
:10F38E0069656C64206E6F2E0053797374656D2001
:10F39E0072657374617274656420666F7220537443
:10F3AE0061636B204572726F722077697468206991
:10F3BE006E636F6D706C65746520497272696761FA
:10F3CE0074696F6E20666F72206669656C64206E5C
:10F3DE006F2E0053797374656D207265737461724C
:10F3EE0074656420666F72205744542054696D65AD
:10F3FE006F7574207769746820696E636F6D706CB9
:10F40E006574652049727269676174696F6E2066F2
:10F41E006F72206669656C64206E6F2E0046657291
:10F42E007469676174696F6E2073746F7070656450
:10F43E0020776974682066657274696C697A657282
:10F44E00206C6576656C2073656E736F72206661D5
:10F45E00696C75726520666F72206669656C6420D2
:10F46E006E6F2E004C6F7720506861736520637548
:10F47E007272656E742064657465637465642C20A5
:10F48E00616374696F6E732073757370656E6465F6
:10F49E00642C20706C656173652072657374617283
:10F4AE00742073797374656D004D6F697374757222
:10F4BE00652073656E736F72206973206661696C67
:10F4CE0065642C2049727269676174696F6E20736E
:10F4DE0074617274656420666F72206669656C640F
:10F4EE00206E6F2E0053797374656D207265737480
:10F4FE0061727465642077697468207068617365E1
:10F50E00206661696C7572652C2073757370656EFB
:10F51E0064696E6720616C6C20616374696F6E73D1
:10F52E00004665727469676174696F6E2073746FDB
:10F53E00707065642077697468206C6F77206665DB
:10F54E007274696C697A6572206C6576656C20667A
:10F55E006F72206669656C64206E6F2E005765743D
:10F56E00206669656C642064657465637465642ED9
:10F57E000D0A49727269676174696F6E206E6F74DD
:10F58E00207374617274656420666F72206669659B
:10F59E006C64206E6F2E00000053797374656D20BD
:10F5AE007265736574206F636375727265642C2067
:10F5BE006C6F67696E20636F646520726573657426
:10F5CE0020746F20466163746F7279207365747452
:10F5DE00696E670049727269676174696F6E206344
:10F5EE006F6D706C6574656420666F7220647565EE
:10F5FE00206669656C64730D0A4D6F746F722073AB
:10F60E0077697463686564206F66660000004E65F6
:10F61E007720525443206261747465727920666F4C
:10F62E00756E642C20706C656173652073796E63E2
:10F63E002073797374656D2074696D65206D616ECC
:10F64E0075616C6C79004E6577205254432062616F
:10F65E00747465727920666F756E642C207379737D
:10F66E0074656D2074696D652069732073657420EF
:10F67E00746F206C6F63616C2074696D65004972E4
:10F68E007269676174696F6E2073746F70706564F0
:10F69E0020776974686F757420726573706F6E73FE
:10F6AE00652066726F6D206669656C64206E6F2EC4
:10F6BE000049727269676174696F6E20736B69704D
:10F6CE007065642077697468206E6F207265737040
:10F6DE006F6E73652066726F6D206669656C64204F
:10F6EE006E6F3A00525443204261747465727920F1
:10F6FE00666F756E64206C6F772C20706C6561730D
:10F70E0065207265706C616365205254432062619E
:10F71E007474657279005068617365206661696CF6
:10F72E007572652064657465637465642C207375E9
:10F73E007370656E64696E6720616C6C20616374B2
:10F74E00696F6E73004E6F4C6F616420616E642042
:10F75E0046756C6C4C6F6164204D6F746F722074C3
:10F76E0068726573686F6C64732073657420746F50
:10F77E00203A200053797374656D2072657374613D
:10F78E007274656420666F7220416C6C20506861E3
:10F79E00736520446574656374696F6E0053797385
:10F7AE0074656D2072657374617274656420666F22
:10F7BE007220506F77657220496E74657272757023
:10F7CE00740053797374656D20726573746172740D
:10F7DE00656420696E20446961676E6F7374696336
:10F7EE00206D6F6465004665727469676174696F38
:10F7FE006E2073746F7070656420666F7220666918
:10F80E00656C64206E6F2E00466572746967617454
:10F81E00696F6E207374617274656420666F7220F6
:10F82E006669656C64206E6F2E0053797374656D16
:10F83E002072657374617274656420666F722073D2
:10F84E007461636B206572726F72005379737465A5
:10F85E006D2072657374617274656420666F7220B8
:10F86E005744542074696D656F75740049727269DE
:10F87E00676174696F6E2073746F70706564206653
:10F88E006F72206669656C64206E6F2E004972720D
:10F89E0069676174696F6E20737461727465642038
:10F8AE00666F72206669656C64206E6F2E005379E8
:10F8BE007374656D2072657374617274656420660D
:10F8CE006F72204C6F7720506F77657200506861B1
:10F8DE0073652052206661696C757265206465746B
:10F8EE00656374656400416C6C20506861736520BB
:10F8FE0064657465637465640043757272656E74D5
:10F90E002054696D653A20004972726967617469A5
:10F91E006F6E204E6F3A0053454E534F52004D417D
:10F92E005354455200414C495645004552524F5290
:10F93E0000534C4156450041434B004F4646004F45
:10F94E004E004665727469676174696F6E20656EEC
:10F95E0061626C656420776974682064656C617996
:10F96E003A004665727469676174696F6E206E6FD6
:10F97E007420636F6E666967757265640D0A005355
:10F98E00797374656D204E6F742041757468656E61
:10F99E0074696361746564002A2A2A466163746F10
:10F9AE0072792052657365742A2A2A2A0053797354
:10F9BE0074656D20436F6D706C6574652044617461
:10F9CE00610043757272656E7420496E2046756CC7
:10F9DE006C204C6F61640053797374656D204175B2
:10F9EE007468656E7469636174656400546F204455
:10F9FE00656C6574652049727269676174696F6EB2
:10FA0E0000496E204E6F204C6F616420436F6E6410
:10FA1E006974696F6E0053797374656D2069732014
:10FA2E00426F6F74696E6720557000437572736F05
:10FA3E007220486F6D65202620426C696E6B004106
:10FA4E00542B434E4D493D312C312C302C302C3023
:10FA5E000D0A00576974682053656E736F722046E5
:10FA6E0061696C75726500436865636B696E6720CA
:10FA7E0047534D205369676E616C00546F20436885
:10FA8E0065636B2047534D205369676E616C00426E
:10FA9E00686F6F6D69204A616C73616E6468617224
:10FAAE00616E00576972654C657373204972726995
:10FABE00676174696F6E004C6F6164696E67205385
:10FACE00797374656D204461746100457869746959
:10FADE006E6720446961676E6F7374696300437566
:10FAEE007272656E7420496E204E6F204C6F616489
:10FAFE000049727269676174696F6E20536B697029
:10FB0E007065640049727269676174696F6E205323
:10FB1E00746F707065640049727269676174696FA1
:10FB2E006E20537461727465640049727269676104
:10FB3E0074696F6E2052756E6E696E6700507265D5
:10FB4E00737320526573657420427574746F6E0002
:10FB5E00546F2043616C696272617465204D6F74DD
:10FB6E006F72004E6F20446961676E6F73746963C4
:10FB7E00204D656E75002347455453454E534F52E5
:10FB8E003031534C41564500536570617261746952
:10FB9E006F6E2054696D653A200053797374656DEC
:10FBAE002052756E6E696E6720496E0055736572D0
:10FBBE0020526567697374726174696F6E00436178
:10FBCE006C6962726174696E67204D6F746F72003A
:10FBDE0046756C6C204C6F61642043757272656E55
:10FBEE0074004C6F7261206973206E6F7420616CAB
:10FBFE00697665006C63644261636B6C69676874F7
:10FC0E00204F6E20006C63644261636B6C696768A1
:10FC1E0074204F66660057697468204E6F205265D7
:10FC2E0073706F6E7365004E6574776F726B2053D1
:10FC3E007472656E67746800546F2044656C6574E9
:10FC4E00652053797374656D00466163746F7279C4
:10FC5E002053657474696E6773006C6364426163EC
:10FC6E006B6C69676874204F6E004C6F7261206315
:10FC7E006F6E74726F6C6C65720041542B435343FC
:10FC8E00533D2247534D220D0A0049727269676136
:10FC9E0074696F6E204461746100466163746F72A3
:10FCAE00792050696E436F646500446961676E6FB9
:10FCBE0073746963204D6F646500416C6C20506FE6
:10FCCE0077657220506861736500466F756E6420AB
:10FCDE004C6F772050686173650041542B53434C31
:10FCEE00415353303D310D0A00436F6E6E656374A0
:10FCFE00696E6720746F200053657474696E672097
:10FD0E0053797374656D00466F72204669656C6435
:10FD1E00204E6F3A200046726F6D204669656C6406
:10FD2E00204E6F3A00436F6E74726F6C205379736E
:10FD3E0074656D00546F2044656C65746520557351
:10FD4E00657200202020202020202020202020202E
:10FD5E000041542B434D47443D312C340D0A005481
:10FD6E006F204C6F63616C2054696D6500466F7235
:10FD7E00204669656C64204E6F3A00466F756E645E
:10FD8E00204C6F77205254430050686173652046B3
:10FD9E0061696C757265004C6F72612069732061C8
:10FDAE006C697665007765742066726571206F6682
:10FDBE0020006472792066726571206F6620005390
:10FDCE0075636365737366756C6C790044697370E3
:10FDDE006C6179204F6E2000437572736F722048EC
:10FDEE006F6D6500446973706C6179204F666600B3
:10FDFE0041542B4346554E3D300D0A0041542B4382
:10FE0E004D47463D310D0A0041542B4346554E3D5C
:10FE1E00310D0A0041542B434C54533D310D0A0011
:10FE2E0020497465726174696F6E3A0047534D20B4
:10FE3E004E6574776F726B00437572736F72204FDD
:10FE4E0066660041542B434C54533F0D0A000D0A75
:10FE5E0044656C6179313A20000D0A4F4E54696D3C
:10FE6E00653A200020447565446174653A2000416E
:10FE7E00542B43434C4B3F0D0A00556479616D6919
:10FE8E00204C4C500052657374696E6720546F009D
:10FE9E00426C696E6B204F666600437572736F72AB
:10FEAE00204F6E005665727920476F6F640045785B
:10FEBE0063656C6C656E74006475652076616C7636
:10FECE006500426C696E6B204F6E005072696E74E5
:10FEDE002061740041542B4353510D0A0044656C4C
:10FEEE006179323A200044656C6179333A20002002
:10FEFE004F46467072643A004D6F64657261746568
:10FF0E00004572726F7220496E0056657279204CF0
:10FF1E006F770053656C6563746564004465746542
:10FF2E00637465640044656C6574696E6700204F88
:10FF3E004E7072643A0053657474696E6700447251
:10FF4E00792052756E004261747465727900415465
:10FF5E0045300D0A00415426570D0A00284D696E92
:10FF6E002920003C2D2D2D2D00403A302C30004004
:10FF7E003A312C3100403A322C3200403A332C3395
:10FF8E00002D2D2D2D3E0020616E642000284D6920
:10FF9E006E2900205765743A00204472793A007336
:10FFAE006C6565700054494D4500234F4646002050
:10FFBE0069732000506F6F72005363616E003130B1
:10FFCE003025002564256300234F4E004C4F57000B
:10FFDE003937250039382500393925004352004577
:10FFEE0052004E52004E4F00256400312500240071
:01FFFE000002
:020000040001F9
:100000001E0E0101666F950E0001616FFC0E626F9E
:10001000A9ECEAF0090E00017E6F1E0E7D6FE40E62
:10002000E82EFED77D2FFCD77E2FFAD700F078C0C0
:1000300061F079C062F0A9ECEAF0090E00017E6F70
:100040001E0E7D6FE40EE82EFED77D2FFCD77E2F8F
:10005000FAD700F094EF87F0EC0E616F000E626F3C
:100060000A0E636FB9ECECF0090E00017E6F1E0EF4
:100070007D6FE40EE82EFED77D2FFCD77E2FFAD7BA
:1000800000F0C2EF87F0EC0E616F000E626F020E9F
:10009000636FB9ECECF034EF80F0EC0E616F000EA2
:1000A000626F110E636FB9ECECF034EF80F09C0ED0
:1000B000616F010E626F060E636FB9ECECF034EF06
:1000C00080F003C007F004C008F007C066F008C065
:1000D00067F0030E696FE80E686FDFECE7F0000170
:1000E0006651300FFA6F030E636FE80E626F07C040
:1000F00060F008C061F0C1ECE8F060C066F061C07B
:1001000067F0000E0001696F640E686FDFECE7F0C6
:1001100000016651300FFB6F000E636F640E626F5B
:1001200007C060F008C061F0C1ECE8F060C066F0A4
:1001300061C067F0000E0001696F0A0E686FDFECA6
:10014000E7F000016651300FFC6F07C060F008C097
:1001500061F0000E636F0A0E626FC1ECE8F00001FF
:100160006051300FFD6FFA0E616F000E626F040E6A
:10017000636FB9ECECF0050E00017E6F0F0E7D6F22
:10018000F10EE82EFED77D2FFCD77E2FFAD7950EE5
:100190000001616FFF0E626FA9ECEAF0050E00012D
:1001A0007E6F0F0E7D6FF10EE82EFED77D2FFCD7F0
:1001B0007E2FFAD72AC007F02BC008F007C066F0E0
:1001C00008C067F0030E0001696FE80E686FDFEC8E
:1001D000E7F000016651300FFA6F030E636FE80E0F
:1001E000626F07C060F008C061F0C1ECE8F060C069
:1001F00066F061C067F0000E0001696F640E686F01
:10020000DFECE7F000016651300FFB6F000E636F0B
:10021000640E626F07C060F008C061F0C1ECE8F0E6
:1002200060C066F061C067F0000E0001696F0A0EE1
:10023000686FDFECE7F000016651300FFC6F07C01C
:1002400060F008C061F0000E636F0A0E626FC1ECCF
:10025000E8F000016051300FFD6FFA0E616F000E83
:10026000626F040E636FB9ECECF034EF80F0EC0ECB
:10027000616F000E626F020E636FB9ECECF0050E59
:1002800000017E6F0F0E7D6FF10EE82EFED77D2FE1
:10029000FCD77E2FFAD7BD0E0001616FFF0E626F93
:1002A000A9ECEAF0050E00017E6F0F0E7D6FF10ED6
:1002B000E82EFED77D2FFCD77E2FFAD7DCC007F0C3
:1002C000DDC008F007C066F008C067F0270E000127
:1002D000696F100E686FDFECE7F000016651300FB8
:1002E000FA6F270E636F100E626F07C060F008C0D0
:1002F00061F0C1ECE8F060C066F061C067F0030E29
:100300000001696FE80E686FDFECE7F000016651ED
:10031000300FFB6F030E636FE80E626F07C060F073
:1003200008C061F0C1ECE8F060C066F061C067F041
:10033000000E0001696F640E686FDFECE7F00001EA
:100340006651300FFC6F000E636F640E626F07C062
:1003500060F008C061F0C1ECE8F060C066F061C018
:1003600067F0000E0001696F0A0E686FDFECE7F0BE
:1003700000016651300FFD6F07C060F008C061F0EA
:10038000000E636F0A0E626FC1ECE8F0000160516D
:10039000300FFE6FFA0E616F000E626F050E636F15
:1003A000B9ECECF034EF80F0D00E00017D6FC90E97
:1003B000E82EFED77D2FFCD700D0EC0E0001616F38
:1003C000000E626F020E636FB9ECECF0D00E00010C
:1003D0007D6FC90EE82EFED77D2FFCD700D03C0ED6
:1003E0000001616FFF0E626FA9ECEAF0D00E000110
:1003F0007D6FC90EE82EFED77D2FFCD700D0285088
:100400002D0DCC0EF324D96E040EF420DA6EDECF5F
:1004100007F0DDCF08F007C066F008C067F0000EF7
:100420000001696F640E686FDFECE7F00001665150
:10043000300FEC6F000E636F640E626F07C060F0E8
:1004400008C061F0C1ECE8F060C066F061C067F020
:10045000000E0001696F0A0E686FDFECE7F0000123
:100460006651300FED6F07C060F008C061F0000EFC
:10047000636F0A0E626FC1ECE8F000016051300F4B
:10048000EE6FEC0E616F000E626F030E636FB9ECDE
:10049000ECF0D00E00017D6FC90EE82EFED77D2F47
:1004A000FCD700D0FD0E0001616FFE0E626FA9EC5B
:1004B000EAF0D00E00017D6FC90EE82EFED77D2F29
:1004C000FCD700D028502D0DE60EF324D96E040E73
:1004D000F420DA6EDF5000017D6F7D51606F616B3B
:1004E000000E636F0A0E626F26ECE2F000016051AD
:1004F000300FEC6F28502D0DE60EF324D96E040E4C
:10050000F420DA6EDF507D6F7D51726F736B000ED9
:10051000756F0A0E746FA4ECE3F000017251300F96
:10052000ED6FEC0E616F000E626F020E636FB9EC3F
:10053000ECF0D00E00017D6FC90EE82EFED77D2FA6
:10054000FCD700D0A70E0001616FFF0E626FA9EC0F
:10055000EAF0D00E00017D6FC90EE82EFED77D2F88
:10056000FCD700D028502D0DC80EF324D96E040EF0
:10057000F420DA6EDECF07F0DDCF08F007C066F0BA
:1005800008C067F0000E0001696F640E686FDFEC51
:10059000E7F000016651300FEC6F000E636F640EE0
:1005A000626F07C060F008C061F0C1ECE8F060C0A5
:1005B00066F061C067F0000E0001696F0A0E686F97
:1005C000DFECE7F000016651300FED6F07C060F01F
:1005D00008C061F0000E636F0A0E626FC1ECE8F0B4
:1005E00000016051300FEE6FEC0E616F000E626F14
:1005F000030E636FB9ECECF0D00E00017D6FC90EF5
:10060000E82EFED77D2FFCD700D0A10E0001616F30
:10061000FF0E626FA9ECEAF0D00E00017D6FC90EEB
:10062000E82EFED77D2FFCD700D028502D0DCA0E06
:10063000F324D96E040EF420DA6EDECF07F0DDCF9E
:1006400008F007C066F008C067F0000E0001696F8F
:10065000640E686FDFECE7F000016651300FEC6F5D
:10066000000E636F640E626F07C060F008C061F037
:10067000C1ECE8F060C066F061C067F0000E0001F8
:10068000696F0A0E686FDFECE7F000016651300F0A
:10069000ED6F07C060F008C061F0000E636F0A0ED6
:1006A000626FC1ECE8F000016051300FEE6FEC0EAC
:1006B000616F000E626F030E636FB9ECECF0D00E49
:1006C00000017D6FC90EE82EFED77D2FFCD700D02C
:1006D000720E0001616FFE0E626FA9ECEAF0D00E9F
:1006E00000017D6FC90EE82EFED77D2FFCD700D00C
:1006F00028502D0DE90EF324D96E040EF420DA6E85
:10070000DF5000017D6F7D51606F616B000E636F84
:100710000A0E626F26ECE2F000016051300FEC6FC0
:1007200028502D0DE90EF324D96E040EF420DA6E54
:10073000DF507D6F7D51726F736B000E756F0A0E07
:10074000746FA4ECE3F000017251300FED6FEC0E0A
:10075000616F000E626F020E636FB9ECECF0D00EA9
:1007600000017D6FC90EE82EFED77D2FFCD700D08B
:1007700028502D0DEA0EF324D96E040EF420DA6E03
:10078000DF5000017D6F7D51606F616B000E636F04
:100790000A0E626F26ECE2F000016051300FEC6F40
:1007A00028502D0DEA0EF324D96E040EF420DA6ED3
:1007B000DF507D6F7D51726F736B000E756F0A0E87
:1007C000746FA4ECE3F000017251300FED6FEC0E8A
:1007D000616F000E626F020E636FB9ECECF0D00E29
:1007E00000017D6FC90EE82EFED77D2FFCD700D00B
:1007F00028502D0DEB0EF324D96E040EF420DA6E82
:10080000DF5000017D6F7D51606F616B000E636F83
:100810000A0E626F26ECE2F000016051300FEC6FBF
:1008200028502D0DEB0EF324D96E040EF420DA6E51
:10083000DF507D6F7D51726F736B000E756F0A0E06
:10084000746FA4ECE3F000017251300FED6FEC0E09
:10085000616F000E626F020E636FB9ECECF0D00EA8
:1008600000017D6FC90EE82EFED77D2FFCD700D08A
:1008700028502D0DE70EF324D96E040EF420DA6E05
:10088000DF5000017D6F7D51606F616B000E636F03
:100890000A0E626F26ECE2F000016051300FEC6F3F
:1008A00028502D0DE70EF324D96E040EF420DA6ED5
:1008B000DF507D6F7D51726F736B000E756F0A0E86
:1008C000746FA4ECE3F000017251300FED6FEC0E89
:1008D000616F000E626F020E636FB9ECECF0D00E28
:1008E00000017D6FC90EE82EFED77D2FFCD700D00A
:1008F00028502D0DE80EF324D96E040EF420DA6E84
:10090000DF5000017D6F7D51606F616B000E636F82
:100910000A0E626F26ECE2F000016051300FEC6FBE
:1009200028502D0DE80EF324D96E040EF420DA6E53
:10093000DF507D6F7D51726F736B000E756F0A0E05
:10094000746FA4ECE3F000017251300FED6FEC0E08
:10095000616F000E626F020E636FB9ECECF0D00EA7
:1009600000017D6FC90EE82EFED77D2FFCD700D089
:10097000950E0001616FFC0E626FA9ECEAF0285041
:100980002D0DF30EF324D96E040EF420DA6EDF5031
:10099000D8B4CDEF84F0CFEF84F0E5EF85F0500EC2
:1009A0000001616FF90E626FA9ECEAF028502D0D7D
:1009B000CE0EF324D96E040EF420DA6EDECF07F0EB
:1009C000DDCF08F007C066F008C067F0000E000138
:1009D000696F640E686FDFECE7F000016651300F5D
:1009E000EC6F000E636F640E626F07C060F008C0AA
:1009F00061F0C1ECE8F060C066F061C067F0000E25
:100A00000001696F0A0E686FDFECE7F000016651C4
:100A1000300FED6F07C060F008C061F0000E636F2B
:100A20000A0E626FC1ECE8F000016051300FEE6F0A
:100A3000EC0E616F000E626F030E636FB9ECECF0A9
:100A4000D00E00017D6FC90EE82EFED77D2FFCD79A
:100A500000D03C0E0001616FFF0E626FA9ECEAF05E
:100A6000D00E00017D6FC90EE82EFED77D2FFCD77A
:100A700000D028502D0DD00EF324D96E040EF42092
:100A8000DA6EDECF07F0DDCF08F007C066F008C0F1
:100A900067F0000E0001696F640E686FDFECE7F02D
:100AA00000016651300FEC6F000E636F640E626FD1
:100AB00007C060F008C061F0C1ECE8F060C066F00B
:100AC00061C067F0000E0001696F0A0E686FDFEC0D
:100AD000E7F000016651300FED6F07C060F008C00D
:100AE00061F0000E636F0A0E626FC1ECE8F0000166
:100AF0006051300FEE6FEC0E616F000E626F030EEF
:100B0000636FB9ECECF0D00E00017D6FC90EE82EDA
:100B1000FED77D2FFCD700D02E0E0001616FFE0E98
:100B2000626FA9ECEAF0D00E00017D6FC90EE82ECD
:100B3000FED77D2FFCD700D028502D0DEC0EF324CE
:100B4000D96E040EF420DA6EDF5000017D6F7D5106
:100B5000606F616B000E636F0A0E626F26ECE2F04D
:100B600000016051300FEC6F28502D0DEC0EF32476
:100B7000D96E040EF420DA6EDF507D6F7D51726FF6
:100B8000736B000E756F0A0E746FA4ECE3F0000136
:100B90007251300FED6FEC0E616F000E626F020E3E
:100BA000636FB9ECECF0D00E00017D6FC90EE82E3A
:100BB000FED77D2FFCD700D0950E0001616FFC0E93
:100BC000626FA9ECEAF0C2EF87F0700E0001616F6E
:100BD000F90E626FA9ECEAF0D00E00017D6FC90E2C
:100BE000E82EFED77D2FFCD700D0C2EF87F0D00EC5
:100BF00000017D6FC90EE82EFED77D2FFCD700D0F7
:100C00005C0E0001616FFE0E626FA9ECEAF0D00E7F
:100C100000017D6FC90EE82EFED77D2FFCD700D0D6
:100C200021C060F00001616B000E636F0A0E626FFD
:100C300026ECE2F000016051300FEC6F21C072F041
:100C4000736B000E756F0A0E746FA4ECE3F0000175
:100C50007251300FED6FEC0E616F000E626F020E7D
:100C6000636FB9ECECF0D00E00017D6FC90EE82E79
:100C7000FED77D2FFCD700D06A0E0001616FFF0EFA
:100C8000626FA9ECEAF0D00E00017D6FC90EE82E6C
:100C9000FED77D2FFCD700D0EB0E0001616FFE0E5A
:100CA000626FA9ECEAF0D00E00017D6FC90EE82E4C
:100CB000FED77D2FFCD700D020C060F00001616B13
:100CC000000E636F0A0E626F26ECE2F000016051C5
:100CD000300FEC6F20C072F0736B000E756F0A0E50
:100CE000746FA4ECE3F000017251300FED6FEC0E65
:100CF000616F000E626F020E636FB9ECECF0D00E04
:100D000000017D6FC90EE82EFED77D2FFCD700D0E5
:100D10006A0E0001616FFF0E626FA9ECEAF0D00E5F
:100D200000017D6FC90EE82EFED77D2FFCD700D0C5
:100D3000F40E0001616FFE0E626FA9ECEAF0D00EB6
:100D400000017D6FC90EE82EFED77D2FFCD700D0A5
:100D50001FC060F00001616B000E636F0A0E626FCE
:100D600026ECE2F000016051300FEC6F1FC072F012
:100D7000736B000E756F0A0E746FA4ECE3F0000144
:100D80007251300FED6FEC0E616F000E626F020E4C
:100D9000636FB9ECECF0D00E00017D6FC90EE82E48
:100DA000FED77D2FFCD700D09B0E0001616FFF0E98
:100DB000626FA9ECEAF0D00E00017D6FC90EE82E3B
:100DC000FED77D2FFCD700D0670E0001616FFE0EAD
:100DD000626FA9ECEAF0D00E00017D6FC90EE82E1B
:100DE000FED77D2FFCD700D01EC060F00001616BE4
:100DF000000E636F0A0E626F26ECE2F00001605194
:100E0000300FEC6F1EC072F0736B000E756F0A0E20
:100E1000746FA4ECE3F000017251300FED6FEC0E33
:100E2000616F000E626F020E636FB9ECECF0D00ED2
:100E300000017D6FC90EE82EFED77D2FFCD700D0B4
:100E40006A0E0001616FFF0E626FA9ECEAF0D00E2E
:100E500000017D6FC90EE82EFED77D2FFCD700D094
:100E6000960E0001616FFB0E626FA9ECEAF0D00EE6
:100E700000017D6FC90EE82EFED77D2FFCD700D074
:100E80000BC007F00CC008F007C066F008C067F0A0
:100E9000000E0001696F640E686FDFECE7F000017F
:100EA0006651300FEC6F000E636F640E626F07C007
:100EB00060F008C061F0C1ECE8F060C066F061C0AD
:100EC00067F0000E0001696F0A0E686FDFECE7F053
:100ED00000016651300FED6F07C060F008C061F08F
:100EE000000E636F0A0E626FC1ECE8F00001605102
:100EF000300FEE6FEC0E616F000E626F030E636FCA
:100F0000B9ECECF0D00E00017D6FC90EE82EFED7D3
:100F10007D2FFCD700D09B0E0001616FFF0E626F2A
:100F2000A9ECEAF0ECEF85F000017C517D6F7E6B5F
:100F30007E51000AD8B49FEF87F0C2EF87F07D5151
:100F4000010AD8B42CEF80F0030AD8B443EF80F044
:100F5000010AD8B44DEF80F0070AD8B457EF80F0FB
:100F6000010AD8B461EF80F0030AD8B437EF81F0FA
:100F7000010AD8B4D4EF81F00F0AD8B4F7EF85F0A6
:100F8000C2EF87F0000E196E000E0001EA6F090E25
:100F900000017E6F1E0E7D6FE40EE82EFED77D2FC2
:100FA000FCD77E2FFAD700F0290E00017E6F960E37
:100FB0007D6F7F0EE82EFED77D2FFCD77E2FFAD7D0
:100FC000120033ECCAF0FDECE3F0A8ECD9F000011C
:100FD000D66F030ED619D8B4F0EF87F0F2EF87F092
:100FE0004AEF88F0C1ECEEF0240E0001766FFA0EA5
:100FF000776F020E786F52ECDDF0000E0001D56FB6
:10100000000ED46FEC0EB86F000EB96FD10EBA6F30
:10101000FF0EBB6F010ED425606F000ED521616FEE
:10102000000E636F0A0E626F86ECEEF060C0BCF0DB
:1010300061C0BDF0000E0001BF6F250EBE6FD2EC87
:10104000EBF0EC0E0001766F000E776F030E786FF9
:1010500052ECDDF0A30E0001D36F570ED26F020EDB
:10106000E82EFED7D22FFCD7D32FFAD700F00001FD
:10107000D44BD52BD5BF46EF88F0D55109E10A0EE8
:10108000D45DD8A046EF88F048EF88F002EF88F0F2
:1010900057EF88F0030ED619D8A451EF88F053EF1C
:1010A00088F057EF88F0DDECECF009ECACF0F2ECF6
:1010B000D5F0520E0001D36F2B0ED26F000EE82E2A
:1010C000FED7D22FFCD7D32FFAD700F084ECB6F09E
:1010D0001C50D8B46EEF88F070EF88F089EF88F07C
:1010E000C1ECEEF0E50E0001766FF90E776F020E9F
:1010F000786F52ECDDF0F40E0001D36F820ED26FE8
:10110000050EE82EFED7D22FFCD7D32FFAD796EFB5
:1011100088F0C1ECEEF08D0E0001766FF90E776F5E
:10112000020E786F52ECDDF07BEF88F0050E0001C7
:10113000D36F0F0ED26FF10EE82EFED7D22FFCD751
:10114000D32FFAD7000E046E0A0E036E000E2B6E1C
:10115000C80E2A6E090E0001D36F1E0ED26FE40E68
:10116000E82EFED7D22FFCD7D32FFAD700F044ECCD
:10117000DAF0090E0001D36F1E0ED26FE40EE82ED6
:10118000FED7D22FFCD7D32FFAD700F00A0E0001DA
:10119000E76F0A0EE86F0A0EE96F0A0EE66F0A0E95
:1011A000E56F320EE46FA9ECE5F0010E0101006F6E
:1011B000010E016F010E026F020E036F000E286E0A
:1011C000010E2864E6EF88F0E8EF88F0EAEF88F097
:1011D000B5EF8AF028502D0DCC0EF324D96E040EF5
:1011E000F420DA6E0F0EDE6E000EDD6E28502D0D2F
:1011F000E60EF324D96E040EF420DA6E010EDF6ED3
:1012000028502D0DE70EF324D96E040EF420DA6E6B
:101210000A0EDF6E28502D0DE80EF324D96E040E51
:10122000F420DA6E0B0EDF6E28502D0DE90EF3243C
:10123000D96E040EF420DA6E0A0EDF6E28502D0DE2
:10124000EA0EF324D96E040EF420DA6E0A0EDF6E75
:1012500028502D0DEB0EF324D96E040EF420DA6E17
:101260000A0EDF6E28502D0DC80EF324D96E040E21
:10127000F420DA6E640EDE6E000EDD6E28502D0D49
:10128000CA0EF324D96E040EF420DA6E300EDE6E30
:10129000750EDD6E28502D0DED0EF324D96E040E63
:1012A000F420DA6E2828DF6E28502D0DF10EF3247D
:1012B000D96E040EF420DA6E000EDF6E28502D0D6C
:1012C000EF0EF324D96E040EF420DA6E010EDF6EF9
:1012D00028502D0DF00EF324D96E040EF420DA6E92
:1012E000010EDF6E28502D0DF20EF324D96E040E80
:1012F000F420DA6E010EDF6E28502D0DCE0EF32491
:10130000D96E040EF420DA6E010EDE6E000EDD6E74
:1013100028502D0DD00EF324D96E040EF420DA6E71
:101320000A0EDE6E000EDD6E28502D0DEC0EF3243D
:10133000D96E040EF420DA6E2828DF6E28502D0DA9
:10134000EE0EF324D96E040EF420DA6E000EDF6E7A
:1013500028502D0DF40EF324D96E040EF420DA6E0D
:10136000000EDF6E28502D0DF30EF324D96E040EFF
:10137000F420DA6E010EDF6E2850020DB40EF32455
:10138000F66EEE0EF420F76EF86A000EF8220900F1
:10139000F5CF63F00A00F5CF64F028502D0DC80E8C
:1013A000F3240001656F040EF420666F8AECCEF022
:1013B000090E0001D36F1E0ED26FE40EE82EFED789
:1013C000D22FFCD7D32FFAD700F02850020DB40E3D
:1013D000F324F66EEE0EF420F76EF86A000EF82293
:1013E0000900F5CF63F00A00F5CF64F028502D0D09
:1013F000C80EF3240001656F040EF420666F5FECE5
:10140000E1F0090E0001D36F1E0ED26FE40EE82E3C
:10141000FED7D22FFCD7D32FFAD700F02850020DD9
:10142000B40EF324F66EEE0EF420F76EF86A000E9A
:10143000F8220900F5CF63F00A00F5CF64F02850D8
:101440002D0DC80EF3240001656F040EF420666FA5
:1014500055ECEBF0090E0001D36F1E0ED26FE40EB7
:10146000E82EFED7D22FFCD7D32FFAD700F0285082
:10147000020DB40EF324F66EEE0EF420F76EF86A49
:10148000000EF8220900F5CF63F00A00F5CF64F0F2
:1014900028502D0DC80EF3240001656F040EF420B2
:1014A000666F7FECEBF0090E0001D36F1E0ED26F5A
:1014B000E40EE82EFED7D22FFCD7D32FFAD700F0B8
:1014C0002850020DB40EF324F66EEE0EF420F76EE3
:1014D000F86A000EF8220900F5CF63F00A00F5CF94
:1014E00064F028502D0DC80EF3240001656F040E22
:1014F000F420666F2BECEBF0090E0001D36F1E0E8B
:10150000D26FE40EE82EFED7D22FFCD7D32FFAD716
:1015100000F02850020DB40EF324F66EEE0EF42007
:10152000F76EF86A000EF8220900F5CF63F00A00A2
:10153000F5CF64F028502D0DC80EF3240001656F1F
:10154000040EF420666FC8ECAFF0090E0001D36FF3
:101550001E0ED26FE40EE82EFED7D22FFCD7D32F6B
:10156000FAD700F0282AE0EF88F048ECE3F0E7C073
:1015700060F00001616B000E636F0A0E626F26EC73
:10158000E2F000016051300FEC6FE7C072F0736B56
:10159000000E756F0A0E746FA4ECE3F00001725137
:1015A000300FED6F2F0EEE6FE8C060F0616B000E34
:1015B000636F0A0E626F26ECE2F000016051300F9B
:1015C000EF6FE8C072F0736B000E756F0A0E746FE8
:1015D000A4ECE3F000017251300FF06F2F0EF16FA9
:1015E000E9C060F0616B000E636F0A0E626F26EC5B
:1015F000E2F000016051300FF26FE9C072F0736BDE
:10160000000E756F0A0E746FA4ECE3F000017251C6
:10161000300FF36F200EF46FE6C060F0616B000EC8
:10162000636F0A0E626F26ECE2F000016051300F2A
:10163000F56FE6C072F0736B000E756F0A0E746F73
:10164000A4ECE3F000017251300FF66F3A0EF76F21
:10165000E5C060F0616B000E636F0A0E626F26ECEE
:10166000E2F000016051300FF86FE5C072F0736B6B
:10167000000E756F0A0E746FA4ECE3F00001725156
:10168000300FF96F3A0EFA6FE4C060F0616B000E34
:10169000636F0A0E626F26ECE2F000016051300FBA
:1016A000FB6FE4C072F0736B000E756F0A0E746FFF
:1016B000A4ECE3F000017251300FFC6F000EEA6FF2
:1016C000070E786FF90E796F910E7A6F010E7B6FAE
:1016D000030E7C6F00EC80F0000E286E090E28606F
:1016E00074EF8BF076EF8BF07EEF8BF0300E000115
:1016F000EC6F2850310FED6F94EF8BF0080E2864DB
:1017000084EF8BF086EF8BF094EF8BF00C0E28605B
:101710008CEF8BF08EEF8BF094EF8BF0310E00019D
:10172000EC6F2850270FED6F160E0001786FF90E41
:10173000796F910E7A6F010E7B6F070E7C6F00EC54
:1017400080F0010E286E090E2860A9EF8BF0ABEF38
:101750008BF0B3EF8BF0300E0001EC6F2850310F9F
:10176000ED6FC9EF8BF0080E2864B9EF8BF0BBEF7B
:101770008BF0C9EF8BF00C0E2860C1EF8BF0C3EF3C
:101780008BF0C9EF8BF0310E0001EC6F2850270F62
:10179000ED6F160E0001786FF90E796F910E7A6F6A
:1017A000010E7B6F070E7C6F00EC80F01C50D8B4EC
:1017B000DCEF8BF0DEEF8BF096EF8EF002ECE5F0D5
:1017C0000009D8B4E6EF8BF0E8EF8BF0FEEF8BF07A
:1017D000FF0E0A6EDC0E096EF30E0001786FF40E38
:1017E000796F910E7A6F010E7B6F000E7C6F00ECAB
:1017F00080F0010E01015A6F96EF8EF0000E266EFA
:10180000000E286E5FEF8DF028502D0DF10EF324A1
:10181000D96E040EF420DA6EDE04D8A412EF8CF038
:1018200014EF8CF05EEF8DF028C026F048ECE3F06A
:1018300028502D0DEB0EF324D96E040EF420DA6E31
:101840000001E951DE5CD8A028EF8CF02AEF8CF083
:10185000C3EF8CF028502D0DEA0EF324D96E040E40
:10186000F420DA6EE851DE5CD8B039EF8CF03BEF53
:101870008CF04CEF8CF028502D0DEB0EF324D96E2C
:10188000040EF420DA6EE951DE18D8B44AEF8CF079
:101890004CEF8CF0C3EF8CF028502D0DE90EF324A3
:1018A000D96E040EF420DA6EE751DE5CD8B05BEF3F
:1018B0008CF05DEF8CF07FEF8CF028502D0DEA0E50
:1018C000F324D96E040EF420DA6EE851DE18D8A4A1
:1018D0006CEF8CF06EEF8CF07FEF8CF028502D0DBC
:1018E000EB0EF324D96E040EF420DA6EE951DE1803
:1018F000D8B47DEF8CF07FEF8CF0C3EF8CF02850E4
:101900002D0DE70EF324D96E040EF420DA6EE651A5
:10191000DE5CD8B08EEF8CF090EF8CF05AEF8DF04B
:1019200028502D0DE90EF324D96E040EF420DA6E42
:10193000E751DE18D8A49FEF8CF0A1EF8CF05AEF9E
:101940008DF028502D0DEA0EF324D96E040EF420EC
:10195000DA6EE851DE18D8A4B0EF8CF0B2EF8CF05C
:101960005AEF8DF028502D0DEB0EF324D96E040E96
:10197000F420DA6EE951DE18D8A4C1EF8CF0C3EF81
:101980008CF05AEF8DF0000EE16F28502D0DF10E06
:10199000F324D96E040EF420DA6E000EDF6E2850A8
:1019A0002D0DEF0EF324D96E040EF420DA6E2850BC
:1019B0002D0DF00EF324E16E040EF420E26EDFCF65
:1019C000E7FF28502D0DF30EF324D96E040EF420FA
:1019D000DA6EDF50D8B4EFEF8CF0F1EF8CF04BEF14
:1019E0008DF028502D0DEE0EF324D96E040EF42048
:1019F000DA6E020EDE18D8A400EF8DF002EF8DF043
:101A000020EF8DF028502D0DEE0EF324D96E040E2C
:101A1000F420DA6E000EDF6E28502D0DF40EF32444
:101A2000D96E040EF420DA6E010EDF6E96ECDEF055
:101A300063C050F164C051F1ADECE4F04BEF8DF0B8
:101A400028502D0DEE0EF324D96E040EF420DA6E1C
:101A5000030EDE18D8B42FEF8DF031EF8DF041EF8B
:101A60008DF028502D0DEE0EF324D96E040EF420C7
:101A7000DA6EDE04D8A43FEF8DF041EF8DF04BEF2E
:101A80008DF028502D0DEE0EF324D96E040EF420A7
:101A9000DA6E000EDF6E090E0001D36F1E0ED26FDC
:101AA000E40EE82EFED7D22FFCD7D32FFAD700F0C2
:101AB00067EF8DF0010EE16F67EF8DF0282A0B0EB6
:101AC000286465EF8DF067EF8DF004EF8CF0000176
:101AD000E151D8B46EEF8DF070EF8DF071EF8EF0B4
:101AE000010E01015D6F090E286079EF8DF07BEF2B
:101AF0008DF083EF8DF0300E0001EC6F2850310F28
:101B0000ED6FEFEF8DF0080E286489EF8DF08BEF0D
:101B10008DF0EFEF8DF00C0E286091EF8DF093EFCC
:101B20008DF0EFEF8DF0310E0001EC6F2850270F94
:101B3000ED6FEFEF8DF0B10E786FF20E796F910EC1
:101B40007A6F010E7B6F020E7C6F00EC80F015EF58
:101B50008EF04C0E786FF30E796F910E7A6F010E46
:101B60007B6F020E7C6F00EC80F015EF8EF0FF0EA5
:101B7000786FF20E796F910E7A6F010E7B6F020E05
:101B80007C6F00EC80F015EF8EF05F0E786FF20E38
:101B9000796F910E7A6F010E7B6F020E7C6F00ECF5
:101BA00080F015EF8EF0E10E786FF30E796F910EE5
:101BB0007A6F010E7B6F020E7C6F00EC80F015EFE8
:101BC0008EF0970E786FF30E796F910E7A6F010E8B
:101BD0007B6F020E7C6F00EC80F015EF8EF0000141
:101BE000D651D26FD36BD351000AD8B4FAEF8DF02F
:101BF00015EF8EF0D251010AD8B49BEF8DF0030A95
:101C0000D8B4A9EF8DF0010AD8B4B7EF8DF0070A68
:101C1000D8B4C5EF8DF0010AD8B4D3EF8DF0030A24
:101C2000D8B4E1EF8DF015EF8EF096ECDEF063C0E6
:101C300009F064C00AF096EF8EF0AB0E786FF70EE5
:101C4000796F910E7A6F010E7B6F000E7C6F00EC46
:101C500080F096EF8EF0BC0E786FF80E796F910ED3
:101C60007A6F010E7B6F000E7C6F00EC80F096EFB8
:101C70008EF0D00E786FF70E796F910E7A6F010E9D
:101C80007B6F000E7C6F00EC80F096EF8EF0820E82
:101C9000786FF70E796F910E7A6F010E7B6F000EE1
:101CA0007C6F00EC80F096EF8EF0590E786FF80E96
:101CB000796F910E7A6F010E7B6F000E7C6F00ECD6
:101CC00080F096EF8EF0380E786FF80E796F910EE7
:101CD0007A6F010E7B6F000E7C6F00EC80F096EF48
:101CE0008EF0D651D26FD36BD351000AD8B47BEFAC
:101CF0008EF096EF8EF0D251010AD8B41DEF8EF01F
:101D0000030AD8B42BEF8EF0010AD8B439EF8EF065
:101D1000070AD8B447EF8EF0010AD8B455EF8EF019
:101D2000030AD8B463EF8EF096EF8EF048ECE6F03D
:101D30000009D8B49EEF8EF0A0EF8EF0D5EF8EF0B4
:101D4000F20E0001786FF60E796F910E7A6F010E28
:101D50007B6F000E7C6F00EC80F01050D8B4B3EFB6
:101D60008EF0B5EF8EF049EF8FF02FECD4F0520EDD
:101D70000001D36F2B0ED26F000EE82EFED7D22FAC
:101D8000FCD7D32FFAD700F0A9ECE5F0520E0001F2
:101D9000D36F2B0ED26F000EE82EFED7D22FFCD7BA
:101DA000D32FFAD700F049EF8FF01350D8B4DBEF00
:101DB0008EF0DDEF8EF03FEF8FF0000E136E090E08
:101DC0000001D36F1E0ED26FE40EE82EFED7D22F85
:101DD000FCD7D32FFAD700F0ECECE9F0090E0001A4
:101DE000D36F1E0ED26FE40EE82EFED7D22FFCD793
:101DF000D32FFAD700F01050D8B401EF8FF003EFD3
:101E00008FF030EF8FF02FECD4F0520E0001D36F33
:101E10002B0ED26F000EE82EFED7D22FFCD7D32F79
:101E2000FAD700F0A9ECE5F0520E0001D36F2B0EAB
:101E3000D26F000EE82EFED7D22FFCD7D32FFAD7C1
:101E400000F0540E0001786FF60E796F910E7A6FE4
:101E5000010E7B6F000E7C6F00EC80F049EF8FF07D
:101E60001C0E0001786FF60E796F910E7A6F010EDD
:101E70007B6F000E7C6F00EC80F049EF8FF010500C
:101E8000D8B445EF8FF047EF8FF049EF8FF0B5EF03
:101E90008EF012001E0E0101666F950E356EFC0E5F
:101EA000366E00ECEBF0090E466E1E0E456EE40E2B
:101EB000E82EFED7452EFCD7462EFAD700D040C0DC
:101EC00035F041C036F000ECEBF0090E466E1E0E08
:101ED000456EE40EE82EFED7452EFCD7462EFAD7E7
:101EE00000D058EF96F0EC0E356E000E366E0A0EEE
:101EF000376E40ECEDF0090E466E1E0E456EE40E98
:101F0000E82EFED7452EFCD7462EFAD700D085EF17
:101F100096F0EC0E356E000E366E020E376E40EC0B
:101F2000EDF07BEF8FF0EC0E356E000E366E110E7D
:101F3000376E40ECEDF07BEF8FF09C0E356E010EAE
:101F4000366E060E376E40ECEDF07BEF8FF003C07F
:101F500007F004C008F007C039F008C03AF0030EDB
:101F60003C6EE80E3B6E1AECE8F03950300F000181
:101F7000FA6F030E376EE80E366E07C034F008C0F5
:101F800035F08AECE9F034C039F035C03AF0000E93
:101F90003C6E640E3B6E1AECE8F03950300F0001D5
:101FA000FB6F000E376E640E366E07C034F008C04B
:101FB00035F08AECE9F034C039F035C03AF0000E63
:101FC0003C6E0A0E3B6E1AECE8F03950300F0001FF
:101FD000FC6F07C034F008C035F0000E376E0A0EF3
:101FE000366E8AECE9F03450300F0001FD6FFA0EC6
:101FF000356E000E366E040E376E40ECEDF0050EB9
:10200000466E0F0E456EF10EE82EFED7452EFCD71C
:10201000462EFAD700F0950E356EFF0E366E00ECA8
:10202000EBF0050E466E0F0E456EF10EE82EFED754
:10203000452EFCD7462EFAD700F02AC007F02BC059
:1020400008F007C039F008C03AF0030E3C6EE80E05
:102050003B6E1AECE8F03950300F0001FA6F030EB6
:10206000376EE80E366E07C034F008C035F08AECE3
:10207000E9F034C039F035C03AF0000E3C6E640E21
:102080003B6E1AECE8F03950300F0001FB6F000E88
:10209000376E640E366E07C034F008C035F08AEC37
:1020A000E9F034C039F035C03AF0000E3C6E0A0E4B
:1020B0003B6E1AECE8F03950300F0001FC6F07C09E
:1020C00034F008C035F0000E376E0A0E366E8AEC1A
:1020D000E9F03450300F0001FD6FFA0E356E000E3E
:1020E000366E040E376E40ECEDF07BEF8FF0EC0EA9
:1020F000356E000E366E020E376E40ECEDF0050EBA
:10210000466E0F0E456EF10EE82EFED7452EFCD71B
:10211000462EFAD700F0BD0E356EFF0E366E00EC7F
:10212000EBF0050E466E0F0E456EF10EE82EFED753
:10213000452EFCD7462EFAD700F0DCC007F0DDC0F4
:1021400008F007C039F008C03AF0270E3C6E100EB8
:102150003B6E1AECE8F03950300F0001FA6F270E91
:10216000376E100E366E07C034F008C035F08AECBA
:10217000E9F034C039F035C03AF0030E3C6EE80E99
:102180003B6E1AECE8F03950300F0001FB6F030E84
:10219000376EE80E366E07C034F008C035F08AECB2
:1021A000E9F034C039F035C03AF0000E3C6E640EF0
:1021B0003B6E1AECE8F03950300F0001FC6F000E56
:1021C000376E640E366E07C034F008C035F08AEC06
:1021D000E9F034C039F035C03AF0000E3C6E0A0E1A
:1021E0003B6E1AECE8F03950300F0001FD6F07C06C
:1021F00034F008C035F0000E376E0A0E366E8AECE9
:10220000E9F03450300F0001FE6FFA0E356E000E0B
:10221000366E050E376E40ECEDF07BEF8FF0D00E92
:10222000456ECA0EE82EFED7452EFCD7EC0E356E55
:10223000000E366E020E376E40ECEDF0D00E456E9D
:10224000CA0EE82EFED7452EFCD73C0E356EFF0E8B
:10225000366E00ECEBF0D00E456ECA0EE82EFED7BF
:10226000452EFCD728502D0DCC0EF324D96E040E2C
:10227000F420DA6EDECF07F0DDCF08F007C039F0CA
:1022800008C03AF0000E3C6E640E3B6E1AECE8F0AB
:102290003950300F0001EC6F000E376E640E366E51
:1022A00007C034F008C035F08AECE9F034C039F0EA
:1022B00035C03AF0000E3C6E0A0E3B6E1AECE8F0A8
:1022C0003950300F0001ED6F07C034F008C035F011
:1022D000000E376E0A0E366E8AECE9F03450300F7D
:1022E0000001EE6FEC0E356E000E366E030E376E8B
:1022F00040ECEDF0D00E456ECA0EE82EFED7452E0E
:10230000FCD7FD0E356EFE0E366E00ECEBF0D00EF7
:10231000456ECA0EE82EFED7452EFCD728502D0D4F
:10232000E60EF324D96E040EF420DA6EDF50456E0B
:102330004550346E356A000E376E0A0E366E89ECE3
:10234000E2F03450300F0001EC6F28502D0DE60EF6
:10235000F324D96E040EF420DA6EDF50456E45503A
:10236000346E356A000E376E0A0E366E55ECE4F0A8
:102370003450300F0001ED6FEC0E356E000E366EEE
:10238000020E376E40ECEDF0D00E456ECA0EE82E10
:10239000FED7452EFCD7A70E356EFF0E366E00EC2D
:1023A000EBF0D00E456ECA0EE82EFED7452EFCD7B8
:1023B00028502D0DC80EF324D96E040EF420DA6EC9
:1023C000DECF07F0DDCF08F007C039F008C03AF0E3
:1023D000000E3C6E640E3B6E1AECE8F03950300F84
:1023E0000001EC6F000E376E640E366E07C034F0DD
:1023F00008C035F08AECE9F034C039F035C03AF065
:10240000000E3C6E0A0E3B6E1AECE8F03950300FAD
:102410000001ED6F07C034F008C035F0000E376ED4
:102420000A0E366E8AECE9F03450300F0001EE6F80
:10243000EC0E356E000E366E030E376E40ECEDF08E
:10244000D00E456ECA0EE82EFED7452EFCD7A10E43
:10245000356EFF0E366E00ECEBF0D00E456ECA0EF8
:10246000E82EFED7452EFCD728502D0DCA0EF3249A
:10247000D96E040EF420DA6EDECF07F0DDCF08F05F
:1024800007C039F008C03AF0000E3C6E640E3B6E97
:102490001AECE8F03950300F0001EC6F000E376E87
:1024A000640E366E07C034F008C035F08AECE9F0EF
:1024B00034C039F035C03AF0000E3C6E0A0E3B6E67
:1024C0001AECE8F03950300F0001ED6F07C034F01E
:1024D00008C035F0000E376E0A0E366E8AECE9F051
:1024E0003450300F0001EE6FEC0E356E000E366E7C
:1024F000030E376E40ECEDF0D00E456ECA0EE82E9E
:10250000FED7452EFCD7720E356EFE0E366E00ECF1
:10251000EBF0D00E456ECA0EE82EFED7452EFCD746
:1025200028502D0DE90EF324D96E040EF420DA6E36
:10253000DF50456E4550346E356A000E376E0A0E18
:10254000366E89ECE2F03450300F0001EC6F285009
:102550002D0DE90EF324D96E040EF420DA6EDF504F
:10256000456E4550346E356A000E376E0A0E366E73
:1025700055ECE4F03450300F0001ED6FEC0E356E89
:10258000000E366E020E376E40ECEDF0D00E456E4A
:10259000CA0EE82EFED7452EFCD728502D0DEA0E88
:1025A000F324D96E040EF420DA6EDF50456E4550E8
:1025B000346E356A000E376E0A0E366E89ECE2F024
:1025C0003450300F0001EC6F28502D0DEA0EF3242B
:1025D000D96E040EF420DA6EDF50456E4550346E2D
:1025E000356A000E376E0A0E366E55ECE4F0345044
:1025F000300F0001ED6FEC0E356E000E366E020EE0
:10260000376E40ECEDF0D00E456ECA0EE82EFED7C8
:10261000452EFCD728502D0DEB0EF324D96E040E59
:10262000F420DA6EDF50456E4550346E356A000E88
:10263000376E0A0E366E89ECE2F03450300F00012E
:10264000EC6F28502D0DEB0EF324D96E040EF42000
:10265000DA6EDF50456E4550346E356A000E376EC7
:102660000A0E366E55ECE4F03450300F0001ED6F79
:10267000EC0E356E000E366E020E376E40ECEDF04D
:10268000D00E456ECA0EE82EFED7452EFCD7285038
:102690002D0DE70EF324D96E040EF420DA6EDF5010
:1026A000456E4550346E356A000E376E0A0E366E32
:1026B00089ECE2F03450300F0001EC6F28502D0D02
:1026C000E70EF324D96E040EF420DA6EDF50456E67
:1026D0004550346E356A000E376E0A0E366E55EC74
:1026E000E4F03450300F0001ED6FEC0E356E000E4B
:1026F000366E020E376E40ECEDF0D00E456ECA0E0F
:10270000E82EFED7452EFCD728502D0DE80EF324D9
:10271000D96E040EF420DA6EDF50456E4550346EEB
:10272000356A000E376E0A0E366E89ECE2F03450D0
:10273000300F0001EC6F28502D0DE80EF324D96EF8
:10274000040EF420DA6EDF50456E4550346E356A63
:10275000000E376E0A0E366E55ECE4F03450300F32
:102760000001ED6FEC0E356E000E366E020E376E08
:1027700040ECEDF0D00E456ECA0EE82EFED7452E89
:10278000FCD7950E356EFC0E366E00ECEBF0285043
:102790002D0DF30EF324D96E040EF420DA6EDF5003
:1027A000D8B4D5EF93F0D7EF93F0DAEF94F0500E62
:1027B000356EF90E366E00ECEBF028502D0DCE0E76
:1027C000F324D96E040EF420DA6EDECF07F0DDCFED
:1027D00008F007C039F008C03AF0000E3C6E640EF5
:1027E0003B6E1AECE8F03950300F0001EC6F000E30
:1027F000376E640E366E07C034F008C035F08AECD0
:10280000E9F034C039F035C03AF0000E3C6E0A0EE3
:102810003B6E1AECE8F03950300F0001ED6F07C045
:1028200034F008C035F0000E376E0A0E366E8AECB2
:10283000E9F03450300F0001EE6FEC0E356E000EF3
:10284000366E030E376E40ECEDF0D00E456ECA0EBC
:10285000E82EFED7452EFCD73C0E356EFF0E366EA9
:1028600000ECEBF0D00E456ECA0EE82EFED7452EDA
:10287000FCD728502D0DD00EF324D96E040EF42071
:10288000DA6EDECF07F0DDCF08F007C039F008C000
:102890003AF0000E3C6E640E3B6E1AECE8F03950D4
:1028A000300F0001EC6F000E376E640E366E07C0FD
:1028B00034F008C035F08AECE9F034C039F035C0A6
:1028C0003AF0000E3C6E0A0E3B6E1AECE8F03950FE
:1028D000300F0001ED6F07C034F008C035F0000E76
:1028E000376E0A0E366E8AECE9F03450300F000174
:1028F000EE6FEC0E356E000E366E030E376E40EC4A
:10290000EDF0D00E456ECA0EE82EFED7452EFCD750
:102910002E0E356EFE0E366E00ECEBF0D00E456ED0
:10292000CA0EE82EFED7452EFCD728502D0DEC0EF2
:10293000F324D96E040EF420DA6EDF50456E455054
:10294000346E356A000E376E0A0E366E89ECE2F090
:102950003450300F0001EC6F28502D0DEC0EF32495
:10296000D96E040EF420DA6EDF50456E4550346E99
:10297000356A000E376E0A0E366E55ECE4F03450B0
:10298000300F0001ED6FEC0E356E000E366E020E4C
:10299000376E40ECEDF0D00E456ECA0EE82EFED735
:1029A000452EFCD7950E356EFC0E366E00ECEBF026
:1029B00085EF96F0700E356EF90E366E00ECEBF08A
:1029C000D00E456ECA0EE82EFED7452EFCD785EFF9
:1029D00096F0D00E456ECA0EE82EFED7452EFCD7D7
:1029E0005C0E356EFE0E366E00ECEBF0D00E456ED2
:1029F000CA0EE82EFED7452EFCD721C034F0356A2A
:102A0000000E376E0A0E366E89ECE2F03450300F4D
:102A10000001EC6F21C034F0356A000E376E0A0EEB
:102A2000366E55ECE4F03450300F0001ED6FEC0ED3
:102A3000356E000E366E020E376E40ECEDF0D00EA5
:102A4000456ECA0EE82EFED7452EFCD76A0E356EAF
:102A5000FF0E366E00ECEBF0D00E456ECA0EE82E7F
:102A6000FED7452EFCD7EB0E356EFE0E366E00EC13
:102A7000EBF0D00E456ECA0EE82EFED7452EFCD7E1
:102A800020C034F0356A000E376E0A0E366E89ECBF
:102A9000E2F03450300F0001EC6F20C034F0356AA2
:102AA000000E376E0A0E366E55ECE4F03450300FDF
:102AB0000001ED6FEC0E356E000E366E020E376EB5
:102AC00040ECEDF0D00E456ECA0EE82EFED7452E36
:102AD000FCD76A0E356EFF0E366E00ECEBF0D00EB2
:102AE000456ECA0EE82EFED7452EFCD7F40E356E85
:102AF000FE0E366E00ECEBF0D00E456ECA0EE82EE0
:102B0000FED7452EFCD71FC034F0356A000E376E55
:102B10000A0E366E89ECE2F03450300F0001EC6F93
:102B20001FC034F0356A000E376E0A0E366E55EC53
:102B3000E4F03450300F0001ED6FEC0E356E000EF6
:102B4000366E020E376E40ECEDF0D00E456ECA0EBA
:102B5000E82EFED7452EFCD79B0E356EFF0E366E47
:102B600000ECEBF0D00E456ECA0EE82EFED7452ED7
:102B7000FCD7670E356EFE0E366E00ECEBF0D00E15
:102B8000456ECA0EE82EFED7452EFCD71EC034F087
:102B9000356A000E376E0A0E366E89ECE2F034505C
:102BA000300F0001EC6F1EC034F0356A000E376E36
:102BB0000A0E366E55ECE4F03450300F0001ED6F24
:102BC000EC0E356E000E366E020E376E40ECEDF0F8
:102BD000D00E456ECA0EE82EFED7452EFCD76A0EE3
:102BE000356EFF0E366E00ECEBF0D00E456ECA0E61
:102BF000E82EFED7452EFCD7960E356EFB0E366EB0
:102C000000ECEBF0D00E456ECA0EE82EFED7452E36
:102C1000FCD70BC007F00CC008F007C039F008C0A3
:102C20003AF0000E3C6E640E3B6E1AECE8F0395040
:102C3000300F0001EC6F000E376E640E366E07C069
:102C400034F008C035F08AECE9F034C039F035C012
:102C50003AF0000E3C6E0A0E3B6E1AECE8F039506A
:102C6000300F0001ED6F07C034F008C035F0000EE2
:102C7000376E0A0E366E8AECE9F03450300F0001E0
:102C8000EE6FEC0E356E000E366E030E376E40ECB6
:102C9000EDF0D00E456ECA0EE82EFED7452EFCD7BD
:102CA0009B0E356EFF0E366E00ECEBF0E0EF94F00D
:102CB0004450456E466A4650000AD8B462EF96F01A
:102CC00085EF96F04550010AD8B473EF8FF0030AF0
:102CD000D8B489EF8FF0010AD8B493EF8FF0070AC8
:102CE000D8B49DEF8FF0010AD8B4A7EF8FF0030A94
:102CF000D8B477EF90F0010AD8B40FEF91F00F0A33
:102D0000D8B4E9EF94F085EF96F0000E196E000E3E
:102D10000001EA6F090E466E1E0E456EE40EE82EA7
:102D2000FED7452EFCD7462EFAD700D0290E466E88
:102D3000960E456E7F0EE82EFED7452EFCD7462E0A
:102D4000FAD700F012000001E151D8B4AAEF96F0D2
:102D5000ACEF96F02EEF9BF009500A10D8A4B3EF19
:102D600096F0B5EF96F02EEF9BF01850D8A4BBEF7D
:102D700096F0BDEF96F02EEF9BF01450D8A4C3EF61
:102D800096F0C5EF96F02EEF9BF01550D8A4CBEF40
:102D900096F0CDEF96F02EEF9BF01750D8A4D3EF1E
:102DA00096F0D5EF96F02EEF9BF0000E856F24EF96
:102DB0009BF085512D0DF10EF324D96E040EF420F5
:102DC000DA6EDE04D8A4E7EF96F0E9EF96F0B5EFFF
:102DD00098F085512D0DF30EF324D96E040EF420D6
:102DE000DA6EDF50D8B4F7EF96F0F9EF96F0B5EF62
:102DF00098F085512D0DEE0EF324D96E040EF420BB
:102E0000DA6EDE04D8A407EF97F009EF97F0B5EF7C
:102E100098F0520E0001806F2B0E7F6F000EE82E8F
:102E2000FED77F2FFCD7802FFAD700F09084000EBA
:102E30000101476F000E466F000E456F000E446F94
:102E4000000E436F000E426F000E416F000E406F88
:102E5000000E376F000E366F000E356F000E346FA8
:102E6000000E336F000E326F000E316F000E306FA8
:102E7000000E6C6F000E6B6F000E6A6F000E696FB4
:102E8000000185512D0DD20EF324D96E040EF420CD
:102E9000DA6EDECF4EF1DDCF4FF185512D0DD40E20
:102EA000F324D96E040EF420DA6EDECF4CF1DDCFC0
:102EB0004DF185512D0DD60EF324D96E040EF4205C
:102EC000DA6EDECF4AF1DDCF4BF185512D0DD80EF4
:102ED000F324D96E040EF420DA6EDECF48F1DDCF94
:102EE00049F185512D0DDA0EF324D96E040EF4202C
:102EF000DA6EDECF3EF1DDCF3FF185512D0DDC0ED8
:102F0000F324D96E040EF420DA6EDECF3CF1DDCF6F
:102F10003DF185512D0DDE0EF324D96E040EF42003
:102F2000DA6EDECF3AF1DDCF3BF185512D0DE00EAB
:102F3000F324D96E040EF420DA6EDECF38F1DDCF43
:102F400039F185512D0DE20EF324D96E040EF420D3
:102F5000DA6EDF500101706F000185512D0DE30E17
:102F6000F324D96E040EF420DA6EDF5001016F6F86
:102F7000000185512D0DE40EF324D96E040EF420CA
:102F8000DA6EDF5001016E6F000185512D0DE50EE7
:102F9000F324D96E040EF420DA6EDF5001016D6F58
:102FA0004E514F11D8B4D7EF97F0D9EF97F0DCEF2F
:102FB00097F08E86464B472B4C514D11D8B4E3EF1A
:102FC00097F0E5EF97F0E8EF97F08E88444B452BAC
:102FD0004A514B11D8B4EFEF97F0F1EF97F0F4EFBF
:102FE00097F08E8A424B432B48514911D8B4FBEFDE
:102FF00097F0FDEF97F000EF98F08E8C404B412B4F
:10300000000185512D0DEE0EF324D96E040EF4202F
:10301000DA6E020EDF6E85512D0DF40EF324D96E9B
:10302000040EF420DA6EDF50D8B419EF98F01BEFDD
:1030300098F031EF98F085512D0DF40EF324D96EF0
:10304000040EF420DA6E000EDF6E2BECDEF063C0AF
:1030500050F164C051F150C109F051C10AF03DEF87
:1030600098F085512D0DD00EF324D96E040EF42066
:10307000DA6EDECF09F0DDCF0AF0090E0001806FB5
:103080001E0E7F6FE40EE82EFED77F2FFCD7802F19
:10309000FAD700F000018551020DB40EF324F66E4C
:1030A000EE0EF420F76EF86A000EF8220900F5CF54
:1030B00063F00A00F5CF64F085512D0DC80EF3249E
:1030C000656F040EF420666F97ECE0F0090E0001C6
:1030D000806F1E0E7F6FE40EE82EFED77F2FFCD789
:1030E000802FFAD700F056ECE5F0090E0001806F52
:1030F0001E0E7F6FE40EE82EFED77F2FFCD7802FA9
:10310000FAD700F0090E0001856189EF98F08BEF86
:1031100098F092EF98F0300EEC6F8551310FED6F13
:10312000A7EF98F0080E856598EF98F09AEF98F061
:10313000A7EF98F00C0E8561A0EF98F0A2EF98F041
:10314000A7EF98F0310EEC6F8551270FED6F160E3B
:10315000786FF80E796F910E7A6F010E7B6F020E09
:103160007C6F00EC80F015EF9DF085512D0DF10E78
:10317000F324D96E040EF420DA6EDE04D8A4C3EF73
:1031800098F0C5EF98F012EF9AF085512D0DF30EDF
:10319000F324D96E040EF420DA6EDF50D8B4D3EFE6
:1031A00098F0D5EF98F012EF9AF085512D0DEE0EB4
:1031B000F324D96E040EF420DA6E020EDE18D8A4C1
:1031C000E4EF98F0E6EF98F012EF9AF0520E00015B
:1031D000806F2B0E7F6F000EE82EFED77F2FFCD75F
:1031E000802FFAD700F090948E968E988E9A8E9CAF
:1031F000000185512D0DEE0EF324D96E040EF4203E
:10320000DA6E030EDF6E85512D0DEC0EF324D96EB0
:10321000040EF420DA6EDF0685512D0DEC0EF3243A
:10322000D96E040EF420DA6EDF50D8A41AEF99F0AC
:103230001CEF99F026EF99F085512D0DF30EF32434
:10324000D96E040EF420DA6E000EDF6E090E000156
:10325000806F1E0E7F6FE40EE82EFED77F2FFCD707
:10326000802FFAD700F000018551020DB40EF3242F
:10327000F66EEE0EF420F76EF86A000EF8220900E2
:10328000F5CF63F00A00F5CF64F085512D0DC80E1F
:10329000F324656F040EF420666FC8ECAFF0090EDE
:1032A0000001806F1E0E7F6FE40EE82EFED77F2F89
:1032B000FCD7802FFAD700F0000185512D0DCC0EE0
:1032C000F324D96E040EF420DA6EDECF7FF0DDCF6A
:1032D00080F085512D0DD00EF324D96E040EF4200C
:1032E000DA6EDECF81F0DDCF82F085512D0DCE0E6E
:1032F000F324D96E040EF420DA6EDECF83F0DDCF36
:1033000084F0831F841F834B842B8151835F825100
:10331000845B7F518325096E805184210A6E090EDA
:103320000001806F1E0E7F6FE40EE82EFED77F2F08
:10333000FCD7802FFAD700F056ECE5F0090E00011B
:10334000806F1E0E7F6FE40EE82EFED77F2FFCD716
:10335000802FFAD700F0090E00018561B2EF99F0D5
:10336000B4EF99F0BBEF99F0300EEC6F8551310F4F
:10337000ED6FD0EF99F0080E8565C1EF99F0C3EFBE
:1033800099F0D0EF99F00C0E8561C9EF99F0CBEF71
:1033900099F0D0EF99F0310EEC6F8551270FED6F5A
:1033A00001015551D8B4D7EF99F0D9EF99F0EAEF70
:1033B00099F0000E556F2F0E0001786FF50E796FA2
:1033C000910E7A6F010E7B6F020E7C6F00EC80F025
:1033D00015EF9DF01A50D8B4F0EF99F0F2EF99F094
:1033E00003EF9AF0000E1A6E2B0E0001786FF40EA8
:1033F000796F910E7A6F010E7B6F020E7C6F00EC7D
:1034000080F015EF9DF0F40E0001786FF70E796FE4
:10341000910E7A6F010E7B6F020E7C6F00EC80F0D4
:1034200015EF9DF085512D0DF10EF324D96E040E8C
:10343000F420DA6EDE04D8A420EF9AF022EF9AF09E
:1034400023EF9BF085512D0DF10EF324D96E040E60
:10345000F420DA6E000EDF6E85512D0DEF0EF32491
:10346000D96E040EF420DA6E85512D0DF00EF32482
:10347000E16E040EF420E26EDE50E618D8A443EFAD
:103480009AF045EF9AF051EF9AF085512D0DF00E1C
:10349000F324D96E040EF420DA6E010EDF6E5AEFBB
:1034A0009AF085512D0DF00EF324D96E040EF42000
:1034B000DA6EDF2A000EE16F010E166E8529266E88
:1034C000090E0001806F1E0E7F6FE40EE82EFED7FE
:1034D0007F2FFCD7802FFAD700F00001855126EC12
:1034E000E9F0090E0001806F1E0E7F6FE40EE82EDA
:1034F000FED77F2FFCD7802FFAD700F0000185512F
:10350000020DB40EF324F66EEE0EF420F76EF86A98
:10351000000EF8220900F5CF63F00A00F5CF64F041
:1035200085512D0DC80EF324656F040EF420666FCF
:1035300055ECEBF0090E0001806F1E0E7F6FE40E5C
:10354000E82EFED77F2FFCD7802FFAD700F000019E
:103550008551020DB40EF324F66EEE0EF420F76ED4
:10356000F86A000EF8220900F5CF63F00A00F5CFE3
:1035700064F085512D0DC80EF324656F040EF42000
:10358000666F7FECEBF0090E0001806F1E0E7F6FFF
:10359000E40EE82EFED77F2FFCD7802FFAD700F05D
:1035A000000185512D0DF30EF324D96E040EF42085
:1035B000DA6EDF50D8B4DFEF9AF0E1EF9AF015EF52
:1035C0009DF085512D0DEE0EF324D96E040EF420DE
:1035D000DA6E000EDF6E090E0001806F1E0E7F6F27
:1035E000E40EE82EFED77F2FFCD7802FFAD700F00D
:1035F00000018551020DB40EF324F66EEE0EF42098
:10360000F76EF86A000EF8220900F5CF63F00A00A1
:10361000F5CF64F085512D0DC80EF324656F040EAF
:10362000F420666F97ECE0F0090E0001806F1E0E2B
:103630007F6FE40EE82EFED77F2FFCD7802FFAD7BE
:1036400000F015EF9DF0852B0B0E85652AEF9BF0A2
:103650002CEF9BF0D9EF96F015EF9DF01550D8B4F4
:1036600034EF9BF036EF9BF015EF9DF0000E156EDA
:10367000000E856F0DEF9DF085512D0DF10EF32499
:10368000D96E040EF420DA6EDE04D8A44AEF9BF063
:103690004CEF9BF00CEF9DF085512D0DF20EF324B5
:1036A000D96E040EF420DA6EDF50D8A45AEF9BF0E6
:1036B0005CEF9BF048EF9CF085512D0DF10EF3244B
:1036C000D96E040EF420DA6E000EDF6E85512D0DDA
:1036D000EF0EF324D96E040EF420DA6E85512D0D11
:1036E000F00EF324E16E040EF420E26EDE50E618D4
:1036F000D8A47DEF9BF07FEF9BF08BEF9BF0855183
:103700002D0DF00EF324D96E040EF420DA6E010EA6
:10371000DF6E94EF9BF085512D0DF00EF324D96EE2
:10372000040EF420DA6EDF2A85512D0DEE0EF324FF
:10373000D96E040EF420DA6E020EDE18D8A4A3EFC0
:103740009BF0A5EF9BF0DCEF9BF090948E968E980B
:103750008E9A8E9C85512D0DEE0EF324D96E040E9B
:10376000F420DA6E000EDF6E8551020DB40EF324E4
:10377000F66EEE0EF420F76EF86A000EF8220900DD
:10378000F5CF63F00A00F5CF64F085512D0DC80E1A
:10379000F324656F040EF420666F97ECE0F0090ED9
:1037A0000001806F1E0E7F6FE40EE82EFED77F2F84
:1037B000FCD7802FFAD700F0000E0001E16F010E58
:1037C000166E8529266E090E0001806F1E0E7F6F12
:1037D000E40EE82EFED77F2FFCD7802FFAD700F01B
:1037E0000001855126ECE9F0090E0001806F1E0EE4
:1037F0007F6FE40EE82EFED77F2FFCD7802FFAD7FD
:1038000000F000018551020DB40EF324F66EEE0EA9
:10381000F420F76EF86A000EF8220900F5CF63F085
:103820000A00F5CF64F085512D0DC80EF324656FA5
:10383000040EF420666F55ECEBF0090E0001806F6A
:103840001E0E7F6FE40EE82EFED77F2FFCD7802F51
:10385000FAD700F000018551020DB40EF324F66E84
:10386000EE0EF420F76EF86A000EF8220900F5CF8C
:1038700063F00A00F5CF64F085512D0DC80EF324D6
:10388000656F040EF420666F7FECEBF014EF9BF095
:1038900085512D0DEE0EF324D96E040EF420DA6E50
:1038A000DE04D8A456EF9CF058EF9CF085EF9CF016
:1038B00096ECDEF063C009F064C00AF000018551A7
:1038C0002D0DCE0EF324D96E040EF420DA6EDECF69
:1038D0007FF0DDCF80F085512D0DCC0EF324D96E15
:1038E000040EF420DA6EDECF81F0DDCF82F07F515E
:1038F000815F8051825B09508125096E0A508221C7
:103900000A6E56ECE5F014EF9BF085512D0DEE0E8E
:10391000F324D96E040EF420DA6E020EDE18D8A459
:1039200094EF9CF096EF9CF00CEF9DF090948E96A7
:103930008E988E9A8E9C85512D0DEE0EF324D96EA5
:10394000040EF420DA6E000EDF6E8551020DB40E07
:10395000F324F66EEE0EF420F76EF86A000EF822ED
:103960000900F5CF63F00A00F5CF64F085512D0D05
:10397000C80EF324656F040EF420666F97ECE0F038
:10398000090E0001806F1E0E7F6FE40EE82EFED739
:103990007F2FFCD7802FFAD700F096ECDEF063C0C3
:1039A00009F064C00AF0000185512D0DCC0EF324FE
:1039B000D96E040EF420DA6EDECF7FF0DDCF80F01A
:1039C00085512D0DD00EF324D96E040EF420DA6E3D
:1039D000DECF81F0DDCF82F085512D0DCE0EF324A8
:1039E000D96E040EF420DA6EDECF83F0DDCF84F0E2
:1039F000831F841F834B842B8151835F8251845B9F
:103A00007F5183278051842309508325096E0A50F2
:103A100084210A6E81EF9CF0852B0B0E856513EFD8
:103A20009DF015EF9DF03CEF9BF01200050E00019C
:103A3000686F0F0E676FF10EE82EFED7672FFCD769
:103A4000682FFAD763C060F064C061F0AEECEEF0AE
:103A50000001676F6751076E086A050E0001686F05
:103A60000F0E676FF10EE82EFED7672FFCD7682F79
:103A7000FAD7FF0E0716000E0816010E0001632587
:103A8000606F000E6421616FAEECEEF00001676FB5
:103A90006751056E066A050E0001686F0F0E676FAD
:103AA000F10EE82EFED7672FFCD7682FFAD7055006
:103AB000066E056A000E0516FF0E06160550071065
:103AC0000001676F06500810686F65C0D9FF66C0B7
:103AD000DAFF67C0DEFF68C0DDFF020E6325606F9E
:103AE000000E6421616FAEECEEF00001676F67516C
:103AF000076E086A050E0001686F0F0E676FF10E02
:103B0000E82EFED7672FFCD7682FFAD7FF0E0716CF
:103B1000000E0816030E00016325606F000E64217D
:103B2000616FAEECEEF00001676F6751056E066ADB
:103B3000050E0001686F0F0E676FF10EE82EFED7BD
:103B4000672FFCD7682FFAD70550066E056A000E5E
:103B50000516FF0E0616055007100001676F065088
:103B60000810686F20EE02F06551D9266651DA22FE
:103B700067C0DEFF68C0DDFF040E6325606F000EC6
:103B80006421616FAEECEEF00001676F6751076E64
:103B9000086A050E0001686F0F0E676FF10EE82EC0
:103BA000FED7672FFCD7682FFAD7FF0E0716000E37
:103BB0000816050E00016325606F000E6421616F19
:103BC000AEECEEF00001676F6751056E066A050EF8
:103BD0000001686F0F0E676FF10EE82EFED7672F9A
:103BE000FCD7682FFAD70550066E056A000E051639
:103BF000FF0E0616055007100001676F06500810EB
:103C0000686F20EE04F06551D9266651DA2267C04C
:103C1000DEFF68C0DDFF050E0001686F0F0E676FE5
:103C2000F10EE82EFED7672FFCD7682FFAD7060EC5
:103C300000016325606F000E6421616FAEECEEF051
:103C40000001676F6751076E086A050E0001686F13
:103C50000F0E676FF10EE82EFED7672FFCD7682F87
:103C6000FAD7FF0E0716000E0816070E000163258F
:103C7000606F000E6421616FAEECEEF00001676FC3
:103C80006751056E066A0550066E056A000E051638
:103C9000FF0E061605500710676F06500810686F74
:103CA00020EE06F06551D9266651DA2267C0DEFFA4
:103CB00068C0DDFF050E0001686F0F0E676FF10E23
:103CC000E82EFED7672FFCD7682FFAD7080E000121
:103CD0006325606F000E6421616FAEECEEF00001B1
:103CE000676F6751076E086A050E0001686F0F0E57
:103CF000676FF10EE82EFED7672FFCD7682FFAD733
:103D0000FF0E0716000E0816090E00016325606FEE
:103D1000000E6421616FAEECEEF00001676F675139
:103D2000056E066A0550066E056A000E0516FF0E42
:103D3000061605500710676F06500810686F20EED2
:103D400008F06551D9266651DA2267C0DEFF68C0E7
:103D5000DDFF050E0001686F0F0E676FF10EE82E94
:103D6000FED7672FFCD7682FFAD70A0E000163250C
:103D7000606F000E6421616FAEECEEF00001676FC2
:103D80006751076E086A050E0001686F0F0E676FB6
:103D9000F10EE82EFED7672FFCD7682FFAD7FF0E5B
:103DA0000716000E08160B0E00016325606F000E4B
:103DB0006421616FAEECEEF00001676F6751056E34
:103DC000066A0550066E056A000E0516FF0E0616F9
:103DD00005500710676F06500810686F20EE0AF054
:103DE0006551D9266651DA2267C0DEFF68C0DDFF63
:103DF000050E0001686F0F0E676FF10EE82EFED7FB
:103E0000672FFCD7682FFAD70C0E00016325606F6F
:103E1000000E6421616FAEECEEF00001676F675138
:103E2000076E086A050E0001686F0F0E676FF10ECE
:103E3000E82EFED7672FFCD7682FFAD7FF0E07169C
:103E4000000E08160D0E00016325606F000E642140
:103E5000616FAEECEEF00001676F6751056E066AA8
:103E60000550066E056A000E0516FF0E0616055073
:103E70000710676F06500810686F20EE0CF0655150
:103E8000D9266651DA2267C0DEFF68C0DDFF050E65
:103E90000001686F0F0E676FF10EE82EFED7672FD7
:103EA000FCD7682FFAD70E0E00016325606F000E55
:103EB0006421616FAEECEEF00001676F6751076E31
:103EC000086A050E0001686F0F0E676FF10EE82E8D
:103ED000FED7672FFCD7682FFAD7FF0E0716000E04
:103EE00008160F0E00016325606F000E6421616FDC
:103EF000AEECEEF00001676F6751056E066A055083
:103F0000066E056A000E0516FF0E06160550071010
:103F1000676F06500810686F20EE0EF06551D926C5
:103F20006651DA2267C0DEFF68C0DDFF050E0001C2
:103F3000686F0F0E676FF10EE82EFED7672FFCD764
:103F4000682FFAD7100E00016325606F000E642100
:103F5000616FAEECEEF00001676F6751076E086AA3
:103F6000050E0001686F0F0E676FF10EE82EFED789
:103F7000672FFCD7682FFAD7FF0E0716000E08161A
:103F8000110E00016325606F000E6421616FAEECBD
:103F9000EEF00001676F6751056E066A0550066E08
:103FA000056A000E0516FF0E061605500710676F0E
:103FB00006500810686F20EE10F06551D926665142
:103FC000DA2267C0DEFF68C0DDFF050E0001686F02
:103FD0000F0E676FF10EE82EFED7672FFCD7682F04
:103FE000FAD7120E00016325606F000E6421616F25
:103FF000AEECEEF00001676F6751076E086A050EC0
