:0400000016EF03F004
:060008004182A4EFBFF0ED
:100018004180D8CF16F0E8CF17F0E0CF18F0D9CF4D
:1000280019F0DACF1AF0F6CF1BF0F7CF1CF0F8CFA3
:100038001DF0F5CF1EF00E0133AB25EF00F027EFD2
:1000480000F0A8EF02F09096339BE30ED46EB00E4A
:10005800D36E3A2A29502A10D8B435EF00F037EF7A
:1000680000F088EF00F090A03CEF00F03EEF00F0C9
:1000780088EF00F02906D8A02A060001E02BD65107
:10008800D8B449EF00F04BEF00F053EF00F0030E47
:10009800D66151EF00F053EF00F054EF00F0D62B8B
:1000A800010E096E020E0A6E5D0E0B6EF90E0C6ED5
:1000B800000E0E6E050E0D6E8DECD5F009500A106F
:1000C800D8A469EF00F06BEF00F088EF00F0060E9F
:1000D800096E020E0A6E690E0B6EF90E0C6E000E9A
:1000E8000E6E050E0D6E8DECD5F009500A10D8A4D1
:1000F80080EF00F082EF00F088EF00F062ECE5F0AE
:100108000001E12B88EF00F090A48DEF00F08FEF55
:1001180000F0E7EF01F08EA694EF00F096EF00F004
:10012800B2EF00F00101CB51C31907E1CC51C4195A
:10013800D8A4A1EF00F0A3EF00F0AEEF00F08E9688
:10014800000EC46F000EC36FB34BB42B0001E52B38
:10015800E5EF00F0C34BC42BE5EF00F08EB6B7EF28
:1001680000F0B9EF00F0E5EF00F00101BB51B31961
:1001780007E1BC51B419D8A4C4EF00F0C6EF00F0F1
:10018800E3EF00F00001E951E55DD8B0CEEF00F0F3
:10019800D0EF00F0DAEF00F08E860101C34BC42BDC
:1001A800000EB46F000EB36FE5EF00F0010E010111
:1001B800BB25B36F000EBC21B46FE5EF00F0B34B65
:1001C800B42B8EA8EAEF00F0ECEF00F008EF01F096
:1001D8000101C951C11907E1CA51C219D8A4F7EFE1
:1001E80000F0F9EF00F004EF01F08E98000EC26FF6
:1001F800000EC16FB14BB22B0001E42B3BEF01F0B5
:10020800C14BC22B3BEF01F08EB80DEF01F00FEFA1
:1002180001F03BEF01F00101B951B11907E1BA5101
:10022800B219D8A41AEF01F01CEF01F039EF01F070
:100238000001E851E45DD8B024EF01F026EF01F0A9
:1002480030EF01F08E880101C14BC22B000EB26F56
:10025800000EB16F3BEF01F0010E0101B925B16F3E
:10026800000EBA21B26F3BEF01F0B14BB22B8EAA50
:1002780040EF01F042EF01F05EEF01F00101C751DC
:10028800BF1907E1C851C019D8A44DEF01F04FEFCD
:1002980001F05AEF01F08E9A000EC06F000EBF6F8A
:1002A800AF4BB02B0001E32B91EF01F0BF4BC02BFC
:1002B80091EF01F08EBA63EF01F065EF01F091EF75
:1002C80001F00101B751AF1907E1B851B019D8A42D
:1002D80070EF01F072EF01F08FEF01F00001E751CC
:1002E800E35DD8B07AEF01F07CEF01F086EF01F022
:1002F8008E8A0101BF4BC02B000EB06F000EAF6F8E
:1003080091EF01F0010E0101B725AF6F000EB82182
:10031800B06F91EF01F0AF4BB02B8EAC96EF01F0C0
:1003280098EF01F0B4EF01F00101C551BD1907E1E3
:10033800C651BE19D8A4A3EF01F0A5EF01F0B0EFA4
:1003480001F08E9C000EBE6F000EBD6FAD4BAE2B44
:100358000001E22BE7EF01F0BD4BBE2BE7EF01F008
:100368008EBCB9EF01F0BBEF01F0E7EF01F001013E
:10037800B551AD1907E1B651AE19D8A4C6EF01F0D1
:10038800C8EF01F0E5EF01F00001E651E25DD8B0F9
:10039800D0EF01F0D2EF01F0DCEF01F08E8C01011B
:1003A800BD4BBE2B000EAE6F000EAD6FE7EF01F038
:1003B800010E0101B525AD6F000EB621AE6FE7EF56
:1003C80001F0AD4BAE2B630E3918D8A4EEEF01F057
:1003D800F0EF01F0F4EF01F0000E3A6EA8EF02F032
:1003E8003904D8A4FAEF01F0FCEF01F00CEF02F0A9
:1003F80033503A18D8A403EF02F005EF02F00CEFDF
:1004080002F0000E3A6E8A86020E396EA8EF02F0EC
:10041800020E3918D8A413EF02F015EF02F025EFF9
:1004280002F031503A18D8A41CEF02F01EEF02F087
:1004380025EF02F0000E3A6E8A96030E396EA8EF89
:1004480002F0030E3918D8A42CEF02F02EEF02F0B8
:100458003EEF02F032503A18D8A435EF02F037EFE9
:1004680002F03EEF02F0000E3A6E8A88040E396EF2
:10047800A8EF02F0040E3918D8A445EF02F047EFB0
:1004880002F057EF02F031503A18D8A44EEF02F0BC
:1004980050EF02F057EF02F0000E3A6E8A98050E00
:1004A800396EA8EF02F0050E3918D8A45EEF02F0F5
:1004B80060EF02F070EF02F032503A18D8A467EFFC
:1004C80002F069EF02F070EF02F0000E3A6E8A8ACD
:1004D800060E396EA8EF02F0060E3918D8A477EF89
:1004E80002F079EF02F089EF02F031503A18D8A4FF
:1004F80080EF02F082EF02F089EF02F0000E3A6E10
:100508008A9A070E396EA8EF02F0070E3918D8A498
:1005180090EF02F092EF02F0A8EF02F03A50146E5A
:10052800156A0001C251141807E1C3511518D8A45F
:10053800A0EF02F0A2EF02F0A8EF02F0000E3A6E70
:10054800010E396EA8EF02F00E0138A1AEEF02F0ED
:10055800B0EF02F0B5EF02F090960001DC2B0E012F
:10056800389138A5BAEF02F0BCEF02F002EF03F0C1
:1005780090963895F00EC86EDC0EC76E0001DB2B26
:10058800DB51DE5DD8B0CBEF02F0CDEF02F0F5EF36
:1005980002F02F50D8A4D3EF02F0D5EF02F0F5EF18
:1005A80002F0010E2F6E000EDB6FC9900101D351CE
:1005B800D8B4E1EF02F0E3EF02F0E8EF02F0010E49
:1005C8000001C66F02EF03F00001D351D8B4EFEF7A
:1005D80002F0F1EF02F002EF03F0010ED26F02EF2A
:1005E80003F02F50D8B4FBEF02F0FDEF02F002EF5A
:1005F80003F0000EDB6FC99002EF03F01EC0F5FF99
:100608001DC0F8FF1CC0F7FF1BC0F6FF1AC0DAFFB9
:1006180019C0D9FF18C0E0FF17C0E8FF16C0D8FFFF
:08062800419010003FEFDBF0F0
:10EBC8000049727269676174696F6E206973206E9B
:10EBD8006F74204163746976652E20466572746986
:10EBE800676174696F6E206E6F7420656E61626C08
:10EBF800656420666F72206669656C64206E6F2E8E
:10EC08000053797374656D2041757468656E746915
:10EC180063617465642077697468205068617365FE
:10EC2800206661696C7572652C2073757370656EEA
:10EC380064696E6720616C6C20616374696F6E73C0
:10EC480000496E636F72726563742076616C7565D6
:10EC5800732E204665727469676174696F6E206EE1
:10EC68006F7420656E61626C656420666F722066E1
:10EC780069656C64206E6F2E00596F75206172652E
:10EC8800206E6F206D6F72652041646D696E206E15
:10EC98006F772E204E65772041646D696E20697309
:10ECA8002073657420746F0D0A0000005379737423
:10ECB800656D207265736574206F63637572726524
:10ECC800642C2049727269676174696F6E2073657C
:10ECD8007474696E672064656C6574656400497254
:10ECE8007269676174696F6E206973206163746902
:10ECF80076652C204D6F746F72206C6F6164206391
:10ED080075742D6F6666206E6F7420736574004984
:10ED1800727269676174696F6E20636F6E66696786
:10ED280075726174696F6E2064697361626C656481
:10ED380020666F72206669656C64206E6F2E004DC8
:10ED48006F6973747572652073656E736F72206670
:10ED580072657175656E63792076616C756520667C
:10ED68006F72206669656C64206E6F2E005379732C
:10ED780074656D2074696D652073796E63656420B0
:10ED8800746F2063757272656E74206C6F63616C4A
:10ED98002074696D65004D6F6973747572652073B1
:10EDA800656E736F72206973206661696C65642093
:10EDB800666F72206669656C64206E6F2E004972FA
:10EDC8007269676174696F6E206E6F7420636F6E0D
:10EDD8006669677572656420666F72206669656C1E
:10EDE80064206E6F2E0049727269676174696F6E74
:10EDF800206669656C64206D617070656420776950
:10EE080074682076616C766573004972726967610F
:10EE180074696F6E20636F6E6669677572656420CA
:10EE2800666F72206669656C64206E6F2E004D6F88
:10EE3800746F726C6F6164206375742D6F666620E1
:10EE4800736574207375636365737366756C6C7929
:10EE5800004665727469676174696F6E20646973CE
:10EE680061626C656420666F72206669656C6420F7
:10EE78006E6F2E004665727469676174696F6E20E3
:10EE8800656E61626C656420666F72206669656C88
:10EE980064206E6F2E0057617465722046696C7429
:10EEA800726174696F6E206973206E6F7420656E6D
:10EEB80061626C6564004C6F67696E20636F64659E
:10EEC800206368616E676564207375636365737337
:10EED80066756C6C79000000300060009000C0001E
:10EEE800F000200150018001B001E0011002400251
:10EEF8007002A002D00257617465722066696C7452
:10EF0800726174696F6E2064656163746976617497
:10EF1800656400496E636F7272656374206C6F6319
:10EF2800616C2074696D6520666F756E6400576149
:10EF38007465722046696C74726174696F6E2053CF
:10EF4800657175656E63653A005761746572206610
:10EF5800696C74726174696F6E206163746976613B
:10EF68007465640050686173652042206661696C4D
:10EF780075726520646574656374656400506861C2
:10EF880073652059206661696C75726520646574C3
:10EF980065637465640057726F6E67206C6F67698C
:10EFA8006E20636F646520666F756E64004C6F67D2
:10EFB800696E20636F6465206E6F74206368616E8C
:10EFC8006765640041646D696E20736574207375AC
:10EFD800636365737366756C6C79004175746865F5
:10EFE8006E7469636174696F6E206661696C6564CB
:10EFF8000054657374204461746120496E6A6563C6
:10F008007465640053797374656D20436F6E6E6523
:10F018006374656400466163746F7279204B657927
:10F02800203A20002B434D54493A2022534D222C9C
:10F038007800313233343536373839313200474584
:10F048005446524551004558545241435400444196
:10F0580043544956450044495341424C4500494EA2
:10F068004A4543540041435449564500454E4142A0
:10F078004C450047455443540046444154410049D7
:10F08800444C4500464545440054494D4500484FC9
:10F098004C4400484F4F4B002B3931005343540028
:10F0A8004D415000534554004354006F6B00415587
:10F0B800004472792052756E2064657465637465C6
:10F0C800642C204D6F746F722C20497272696761CD
:10F0D80074696F6E20616E64204665727469676139
:10F0E80074696F6E207377697463686564206F66EE
:10F0F800662E0D0A49727269676174696F6E2073B2
:10F1080063686564756C656420746F206E657874D7
:10F11800206461792077697468206665727469670C
:10F128006174696F6E20666F72206669656C642011
:10F138006E6F2E0000004472792052756E2064654F
:10F148007465637465642C204D6F746F7220616EF2
:10F15800642049727269676174696F6E2073776998
:10F168007463686564206F66662E0D0A4972726959
:10F17800676174696F6E207363686564756C656434
:10F1880020746F206E6578742064617920776974C3
:10F1980068206665727469676174696F6E20666F4E
:10F1A80072206669656C64206E6F2E0000004472E0
:10F1B800792052756E2064657465637465642C20CB
:10F1C8004D6F746F7220616E642049727269676155
:10F1D80074696F6E207377697463686564206F66FD
:10F1E800662E0D0A49727269676174696F6E2073C1
:10F1F80063686564756C656420746F206E657874E7
:10F2080020647565206461746520666F7220666984
:10F21800656C64206E6F2E00000044727920527570
:10F228006E2064657465637465642C204D6F746F1B
:10F238007220616E642049727269676174696F6EC9
:10F24800207377697463686564206F66662E0D0A9B
:10F2580049727269676174696F6E20736368656467
:10F26800756C656420746F206E65787420646179AC
:10F2780020666F72206669656C64206E6F2E0000D0
:10F288000053797374656D20726573746172746567
:10F298006420666F7220416C6C2050686173652031
:10F2A800446574656374696F6E2077697468206952
:10F2B8006E636F6D706C6574652049727269676101
:10F2C80074696F6E20666F72206669656C64206E63
:10F2D8006F2E0053797374656D2072657374617253
:10F2E80074656420666F7220506F77657220496E6E
:10F2F80074657272757074207769746820696E63BA
:10F308006F6D706C657465204972726967617469A4
:10F318006F6E20666F72206669656C64206E6F2E52
:10F328000053797374656D207265737461727465C6
:10F338006420696E20446961676E6F737469632025
:10F348004D6F6465207769746820696E636F6D70AE
:10F358006C6574652049727269676174696F6E20A3
:10F36800666F72206669656C64206E6F2E00537933
:10F378007374656D20726573746172746564206658
:10F388006F72204C6F7720506F77657220496E201E
:10F398007769746820696E636F6D706C6574652039
:10F3A80049727269676174696F6E20666F72206650
:10F3B80069656C64206E6F2E0053797374656D20D7
:10F3C80072657374617274656420666F7220537419
:10F3D80061636B204572726F722077697468206967
:10F3E8006E636F6D706C65746520497272696761D0
:10F3F80074696F6E20666F72206669656C64206E32
:10F408006F2E0053797374656D2072657374617221
:10F4180074656420666F72205744542054696D6582
:10F428006F7574207769746820696E636F6D706C8E
:10F438006574652049727269676174696F6E2066C8
:10F448006F72206669656C64206E6F2E0046657267
:10F458007469676174696F6E2073746F7070656426
:10F4680020776974682066657274696C697A657258
:10F47800206C6576656C2073656E736F72206661AB
:10F48800696C75726520666F72206669656C6420A8
:10F498006E6F2E004C6F772050686173652063751E
:10F4A8007272656E742064657465637465642C207B
:10F4B800616374696F6E732073757370656E6465CC
:10F4C800642C20706C656173652072657374617259
:10F4D800742073797374656D004D6F6973747572F8
:10F4E800652073656E736F72206973206661696C3D
:10F4F80065642C2049727269676174696F6E207344
:10F5080074617274656420666F72206669656C64E4
:10F51800206E6F2E0053797374656D207265737455
:10F5280061727465642077697468207068617365B6
:10F53800206661696C7572652C2073757370656ED1
:10F5480064696E6720616C6C20616374696F6E73A7
:10F55800004665727469676174696F6E2073746FB1
:10F56800707065642077697468206C6F77206665B1
:10F578007274696C697A6572206C6576656C206650
:10F588006F72206669656C64206E6F2E0057657413
:10F59800206669656C642064657465637465642EAF
:10F5A8000D0A49727269676174696F6E206E6F74B3
:10F5B800207374617274656420666F722066696571
:10F5C8006C64206E6F2E00000053797374656D2093
:10F5D8007265736574206F636375727265642C203D
:10F5E8006C6F67696E20636F6465207265736574FC
:10F5F80020746F20466163746F7279207365747428
:10F60800696E670049727269676174696F6E206319
:10F618006F6D706C6574656420666F7220647565C3
:10F62800206669656C64730D0A4D6F746F72207380
:10F6380077697463686564206F66660000004E65CC
:10F648007720525443206261747465727920666F22
:10F65800756E642C20706C656173652073796E63B8
:10F668002073797374656D2074696D65206D616EA2
:10F6780075616C6C79004E65772052544320626145
:10F68800747465727920666F756E642C2073797353
:10F6980074656D2074696D652069732073657420C5
:10F6A800746F206C6F63616C2074696D65004972BA
:10F6B8007269676174696F6E2073746F70706564C6
:10F6C80020776974686F757420726573706F6E73D4
:10F6D800652066726F6D206669656C64206E6F2E9A
:10F6E8000049727269676174696F6E20736B697023
:10F6F8007065642077697468206E6F207265737016
:10F708006F6E73652066726F6D206669656C642024
:10F718006E6F3A00525443204261747465727920C6
:10F72800666F756E64206C6F772C20706C656173E2
:10F7380065207265706C6163652052544320626174
:10F748007474657279005068617365206661696CCC
:10F758007572652064657465637465642C207375BF
:10F768007370656E64696E6720616C6C2061637488
:10F77800696F6E73004E6F4C6F616420616E642018
:10F7880046756C6C4C6F6164204D6F746F72207499
:10F7980068726573686F6C64732073657420746F26
:10F7A800203A200053797374656D20726573746113
:10F7B8007274656420666F7220416C6C20506861B9
:10F7C800736520446574656374696F6E005379735B
:10F7D80074656D2072657374617274656420666FF8
:10F7E8007220506F77657220496E746572727570F9
:10F7F800740053797374656D2072657374617274E3
:10F80800656420696E20446961676E6F737469630B
:10F81800206D6F6465004665727469676174696F0D
:10F828006E2073746F7070656420666F72206669ED
:10F83800656C64206E6F2E0046657274696761742A
:10F84800696F6E207374617274656420666F7220CC
:10F858006669656C64206E6F2E0053797374656DEC
:10F868002072657374617274656420666F722073A8
:10F878007461636B206572726F720053797374657B
:10F888006D2072657374617274656420666F72208E
:10F898005744542074696D656F75740049727269B4
:10F8A800676174696F6E2073746F70706564206629
:10F8B8006F72206669656C64206E6F2E00497272E3
:10F8C80069676174696F6E2073746172746564200E
:10F8D800666F72206669656C64206E6F2E005379BE
:10F8E8007374656D207265737461727465642066E3
:10F8F8006F72204C6F7720506F7765720050686187
:10F9080073652052206661696C7572652064657440
:10F91800656374656400416C6C2050686173652090
:10F9280064657465637465640043757272656E74AA
:10F938002054696D653A200049727269676174697B
:10F948006F6E204E6F3A0053454E534F52004D4153
:10F958005354455200414C495645004552524F5266
:10F9680000534C4156450041434B004F4646004F1B
:10F978004E004665727469676174696F6E20656EC2
:10F9880061626C656420776974682064656C61796C
:10F998003A004665727469676174696F6E206E6FAC
:10F9A8007420636F6E666967757265640D0A00532B
:10F9B800797374656D204E6F742041757468656E37
:10F9C80074696361746564002A2A2A466163746FE6
:10F9D80072792052657365742A2A2A2A005379732A
:10F9E80074656D20436F6D706C6574652044617437
:10F9F800610043757272656E7420496E2046756C9D
:10FA08006C204C6F61640053797374656D20417587
:10FA18007468656E7469636174656400546F20442A
:10FA2800656C6574652049727269676174696F6E87
:10FA380000496E204E6F204C6F616420436F6E64E6
:10FA48006974696F6E0053797374656D20697320EA
:10FA5800426F6F74696E6720557000437572736FDB
:10FA68007220486F6D65202620426C696E6B0041DC
:10FA7800542B434E4D493D312C312C302C302C30F9
:10FA88000D0A00576974682053656E736F722046BB
:10FA980061696C75726500436865636B696E6720A0
:10FAA80047534D205369676E616C00546F2043685B
:10FAB80065636B2047534D205369676E616C004244
:10FAC800686F6F6D69204A616C73616E64686172FA
:10FAD800616E00576972654C65737320497272696B
:10FAE800676174696F6E004C6F6164696E6720535B
:10FAF800797374656D20446174610045786974692F
:10FB08006E6720446961676E6F737469630043753B
:10FB18007272656E7420496E204E6F204C6F61645E
:10FB28000049727269676174696F6E20536B6970FE
:10FB38007065640049727269676174696F6E2053F9
:10FB4800746F707065640049727269676174696F77
:10FB58006E205374617274656400497272696761DA
:10FB680074696F6E2052756E6E696E6700507265AB
:10FB7800737320526573657420427574746F6E00D8
:10FB8800546F2043616C696272617465204D6F74B3
:10FB98006F72004E6F20446961676E6F737469639A
:10FBA800204D656E75002347455453454E534F52BB
:10FBB8003031534C41564500536570617261746928
:10FBC8006F6E2054696D653A200053797374656DC2
:10FBD8002052756E6E696E6720496E0055736572A6
:10FBE80020526567697374726174696F6E0043614E
:10FBF8006C6962726174696E67204D6F746F720010
:10FC080046756C6C204C6F61642043757272656E2A
:10FC180074006C63644261636B6C69676874204F3D
:10FC28006E20006C63644261636B6C696768742062
:10FC38004F66660057697468204E6F20526573706E
:10FC48006F6E7365004E6574776F726B20537472B4
:10FC5800656E67746800546F2044656C6574652030
:10FC680053797374656D00466163746F72792053BC
:10FC7800657474696E6773006C63644261636B6C6E
:10FC880069676874204F6E004C6F726120636F6EF5
:10FC980074726F6C6C65720041542B435343533D2F
:10FCA8002247534D220D0A004972726967617469CF
:10FCB8006F6E204461746100466163746F727920CD
:10FCC80050696E436F646500446961676E6F737451
:10FCD8006963204D6F646500416C6C20506F7765D7
:10FCE8007220506861736500466F756E64204C6FB2
:10FCF800772050686173650041542B53434C41533E
:10FD080053303D310D0A00436F6E6E656374696E42
:10FD18006720746F200053657474696E6720537987
:10FD28007374656D00466F72204669656C64204E79
:10FD38006F3A200046726F6D204669656C64204EEC
:10FD48006F3A00436F6E74726F6C205379737465E9
:10FD58006D00546F2044656C657465205573657239
:10FD680000202020202020202020202020200041AA
:10FD7800542B434D47443D312C340D0A00546F2019
:10FD88004C6F63616C2054696D6500466F72204644
:10FD980069656C64204E6F3A00466F756E64204C3E
:10FDA8006F7720525443005068617365204661693B
:10FDB8006C757265007765742066726571206F6670
:10FDC80020006472792066726571206F6620005386
:10FDD80075636365737366756C6C790044697370D9
:10FDE8006C6179204F6E2000437572736F722048E2
:10FDF8006F6D6500446973706C6179204F666600A9
:10FE080041542B4346554E3D300D0A0041542B4377
:10FE18004D47463D310D0A0041542B4346554E3D52
:10FE2800310D0A0041542B434C54533D310D0A0007
:10FE380020497465726174696F6E3A0053656E6427
:10FE4800696E6720534D530047534D204E657477B4
:10FE58006F726B00437572736F72204F6666004154
:10FE6800542B434C54533F0D0A000D0A44656C61F2
:10FE780079313A20000D0A4F4E54696D653A2000D9
:10FE880020447565446174653A200041542B43430E
:10FE98004C4B3F0D0A00556479616D69204C4C50FC
:10FEA8000052657374696E6720546F00426C696E06
:10FEB8006B204F666600437572736F72204F6E0039
:10FEC8005665727920476F6F6400457863656C6C7E
:10FED800656E7400426C696E6B204F6E00507269DB
:10FEE8006E742061740041542B4353510D0A004431
:10FEF800656C6179323A200044656C6179333A2047
:10FF080000204F46467072643A004D6F6465726116
:10FF18007465004572726F7220496E005665727979
:10FF2800204C6F770053656C6563746564004465A5
:10FF38007465637465640044656C6574696E670014
:10FF4800204F4E7072643A00546F205573657200EA
:10FF580053657474696E67004472792052756E0037
:10FF68004261747465727900415445300D0A00414C
:10FF78005426570D0A00284D696E2920003C2D2D66
:10FF88002D2D00403A302C3000403A312C310040C1
:10FF98003A322C3200403A332C33002D2D2D2D3E91
:10FFA8000020616E642000284D696E290020576585
:10FFB800743A00204472793A0054494D4500234F61
:10FFC8004646002069732000506F6F720031303050
:10FFD80025002564256300234F4E004C4F570039F8
:10FFE80037250039382500393925004E4F0025645A
:07FFF8000031250024000088
:020000040001F9
:100000000CECE6F0440E0001736FFE0E746F020EEE
:10001000756FD9ECD6F0500E0001736FFF0E746F40
:10002000030E756FD9ECD6F01E0E0001DE6FAD0E1B
:10003000206EFC0E216EEEECE2F0090E00017F6FE7
:100040001E0E7E6FE40EE82EFED77E2FFCD77F2F8C
:10005000FAD700F079C020F07AC021F0EEECE2F09F
:10006000090E00017F6F1E0E7E6FE40EE82EFED794
:100070007E2FFCD77F2FFAD700F08BEF87F0EA0EA8
:10008000206E000E216E0A0E226E54ECE4F0090E72
:1000900000017F6F1E0E7E6FE40EE82EFED77E2FCE
:1000A000FCD77F2FFAD700F0B9EF87F0EA0E206E69
:1000B000000E216E020E226E54ECE4F047EF80F049
:1000C000EA0E206E000E216E110E226E54ECE4F04A
:1000D00047EF80F0F10E206E010E216E060E226EAB
:1000E00054ECE4F047EF80F0BEC027F0BFC028F02A
:1000F00027C062F028C063F0030E656FE80E646FDE
:1001000010ECE0F000016251300FF86F030E226E28
:10011000E80E216E27C01FF028C020F0B8ECE0F0F8
:100120001FC062F020C063F0000E0001656F640E16
:10013000646F10ECE0F000016251300FF96F000EB7
:10014000226E640E216E27C01FF028C020F0B8EC8C
:10015000E0F01FC062F020C063F0000E0001656F88
:100160000A0E646F10ECE0F000016251300FFA6F7C
:1001700027C01FF028C020F0000E226E0A0E216E4C
:10018000B8ECE0F01F50300F0001FB6FF80E206E4E
:10019000000E216E040E226E54ECE4F0050E0001F8
:1001A0007F6F0F0E7E6FF10EE82EFED77E2FFCD7ED
:1001B0007F2FFAD7A90E206EFF0E216EEEECE2F033
:1001C000050E00017F6F0F0E7E6FF10EE82EFED739
:1001D0007E2FFCD77F2FFAD7FEC027F0FFC028F074
:1001E00027C062F028C063F0030E0001656FE80EBF
:1001F000646F10ECE0F000016251300FF86F030EF5
:10020000226EE80E216E27C01FF028C020F0B8EC47
:10021000E0F01FC062F020C063F0000E0001656FC7
:10022000640E646F10ECE0F000016251300FF96F62
:10023000000E226E640E216E27C01FF028C020F031
:10024000B8ECE0F01FC062F020C063F0000E0001C7
:10025000656F0A0E646F10ECE0F000016251300F20
:10026000FA6F27C01FF028C020F0000E226E0A0E81
:10027000216EB8ECE0F01F50300F0001FB6FF80E5C
:10028000206E000E216E040E226E54ECE4F047EF57
:1002900080F0EA0E206E000E216E020E226E54ECEB
:1002A000E4F0050E00017F6F0F0E7E6FF10EE82E59
:1002B000FED77E2FFCD77F2FFAD7CB0E206EFF0EF6
:1002C000216EEEECE2F0050E00017F6F0F0E7E6FE7
:1002D000F10EE82EFED77E2FFCD77F2FFAD7C0C0B5
:1002E00027F0C1C028F027C062F028C063F0270EB5
:1002F0000001656F100E646F10ECE0F000016251B8
:10030000300FF86F270E226E100E216E27C01FF0DF
:1003100028C020F0B8ECE0F01FC062F020C063F00D
:10032000030E0001656FE80E646F10ECE0F0000151
:100330006251300FF96F030E226EE80E216E27C056
:100340001FF028C020F0B8ECE0F01FC062F020C021
:1003500063F0000E0001656F640E646F10ECE0F056
:1003600000016251300FFA6F000E226E640E216E92
:1003700027C01FF028C020F0B8ECE0F01FC062F0EA
:1003800020C063F0000E0001656F0A0E646F10EC70
:10039000E0F000016251300FFB6F27C01FF028C052
:1003A00020F0000E226E0A0E216EB8ECE0F01F5015
:1003B000300F0001FC6FF80E206E000E216E050E4E
:1003C000226E54ECE4F047EF80F0D00E00017E6F17
:1003D000C90EE82EFED77E2FFCD700D0EA0E206E85
:1003E000000E216E020E226E54ECE4F0D00E0001DD
:1003F0007E6FC90EE82EFED77E2FFCD700D0480EA8
:10040000206EFF0E216EEEECE2F0D00E00017E6F4A
:10041000C90EE82EFED77E2FFCD700D03E502D0D02
:10042000D90EF324D96E040EF420DA6EDECF27F055
:10043000DDCF28F027C062F028C063F0000E000175
:10044000656F640E646F10ECE0F000016251300FD4
:10045000EA6F000E226E640E216E27C01FF028C0C6
:1004600020F0B8ECE0F01FC062F020C063F0000E96
:100470000001656F0A0E646F10ECE0F0000162513C
:10048000300FEB6F27C01FF028C020F0000E226E47
:100490000A0E216EB8ECE0F01F50300F0001EC6F37
:1004A000EA0E206E000E216E030E226E54ECE4F074
:1004B000D00E00017E6FC90EE82EFED77E2FFCD72E
:1004C00000D0090E206EFF0E216EEEECE2F0D00E91
:1004D00000017E6FC90EE82EFED77E2FFCD700D01C
:1004E0003E502D0DF30EF324D96E040EF420DA6E77
:1004F000DF5000017E6F7E511F6E206A000E226E5B
:100500000A0E216E7AECDAF01F50300F0001EA6F0C
:100510003E502D0DF30EF324D96E040EF420DA6E46
:10052000DF507E6F7E516E6F6F6B000E716F0A0E23
:10053000706FF5ECDBF000016E51300FEB6FEA0EDF
:10054000206E000E216E020E226E54ECE4F0D00EEE
:1005500000017E6FC90EE82EFED77E2FFCD700D09B
:10056000BB0E206EFF0E216EEEECE2F0D00E00010D
:100570007E6FC90EE82EFED77E2FFCD700D03E50EE
:100580002D0DD50EF324D96E040EF420DA6EDECFD5
:1005900027F0DDCF28F027C062F028C063F0000EFE
:1005A0000001656F640E646F10ECE0F000016251B1
:1005B000300FEA6F000E226E640E216E27C01FF00E
:1005C00028C020F0B8ECE0F01FC062F020C063F05B
:1005D000000E0001656F0A0E646F10ECE0F0000180
:1005E0006251300FEB6F27C01FF028C020F0000EC3
:1005F000226E0A0E216EB8ECE0F01F50300F0001A1
:10060000EC6FEA0E206E000E216E030E226E54EC8B
:10061000E4F0D00E00017E6FC90EE82EFED77E2FCB
:10062000FCD700D0B50E206EFF0E216EEEECE2F08E
:10063000D00E00017E6FC90EE82EFED77E2FFCD7AC
:1006400000D03E502D0DD70EF324D96E040EF420A9
:10065000DA6EDECF27F0DDCF28F027C062F028C0A9
:1006600063F0000E0001656F640E646F10ECE0F043
:1006700000016251300FEA6F000E226E640E216E8F
:1006800027C01FF028C020F0B8ECE0F01FC062F0D7
:1006900020C063F0000E0001656F0A0E646F10EC5D
:1006A000E0F000016251300FEB6F27C01FF028C04F
:1006B00020F0000E226E0A0E216EB8ECE0F01F5002
:1006C000300F0001EC6FEA0E206E000E216E030E5B
:1006D000226E54ECE4F0D00E00017E6FC90EE82EBD
:1006E000FED77E2FFCD700D0880E206EFE0E216E26
:1006F000EEECE2F0D00E00017E6FC90EE82EFED7C0
:100700007E2FFCD700D03E502D0DF60EF324D96E6F
:10071000040EF420DA6EDF5000017E6F7E511F6EF2
:10072000206A000E226E0A0E216E7AECDAF01F505B
:10073000300F0001EA6F3E502D0DF60EF324D96EF6
:10074000040EF420DA6EDF507E6F7E516E6F6F6B99
:10075000000E716F0A0E706FF5ECDBF000016E5148
:10076000300FEB6FEA0E206E000E216E020E226E2D
:1007700054ECE4F0D00E00017E6FC90EE82EFED7D7
:100780007E2FFCD700D03E502D0DF70EF324D96EEE
:10079000040EF420DA6EDF5000017E6F7E511F6E72
:1007A000206A000E226E0A0E216E7AECDAF01F50DB
:1007B000300F0001EA6F3E502D0DF70EF324D96E75
:1007C000040EF420DA6EDF507E6F7E516E6F6F6B19
:1007D000000E716F0A0E706FF5ECDBF000016E51C8
:1007E000300FEB6FEA0E206E000E216E020E226EAD
:1007F00054ECE4F0D00E00017E6FC90EE82EFED757
:100800007E2FFCD700D03E502D0DF80EF324D96E6C
:10081000040EF420DA6EDF5000017E6F7E511F6EF1
:10082000206A000E226E0A0E216E7AECDAF01F505A
:10083000300F0001EA6F3E502D0DF80EF324D96EF3
:10084000040EF420DA6EDF507E6F7E516E6F6F6B98
:10085000000E716F0A0E706FF5ECDBF000016E5147
:10086000300FEB6FEA0E206E000E216E020E226E2C
:1008700054ECE4F0D00E00017E6FC90EE82EFED7D6
:100880007E2FFCD700D03E502D0DF40EF324D96EF0
:10089000040EF420DA6EDF5000017E6F7E511F6E71
:1008A000206A000E226E0A0E216E7AECDAF01F50DA
:1008B000300F0001EA6F3E502D0DF40EF324D96E77
:1008C000040EF420DA6EDF507E6F7E516E6F6F6B18
:1008D000000E716F0A0E706FF5ECDBF000016E51C7
:1008E000300FEB6FEA0E206E000E216E020E226EAC
:1008F00054ECE4F0D00E00017E6FC90EE82EFED756
:100900007E2FFCD700D03E502D0DF50EF324D96E6E
:10091000040EF420DA6EDF5000017E6F7E511F6EF0
:10092000206A000E226E0A0E216E7AECDAF01F5059
:10093000300F0001EA6F3E502D0DF50EF324D96EF5
:10094000040EF420DA6EDF507E6F7E516E6F6F6B97
:10095000000E716F0A0E706FF5ECDBF000016E5146
:10096000300FEB6FEA0E206E000E216E020E226E2B
:1009700054ECE4F0D00E00017E6FC90EE82EFED7D5
:100980007E2FFCD700D0AD0E206EFC0E216EEEEC5B
:10099000E2F03E502D0D000EF324D96E050EF4202A
:1009A000DA6EDF50D8B4D7EF84F0D9EF84F0EBEFF4
:1009B00085F07A0E206EF90E216EEEECE2F03E50DC
:1009C0002D0DDB0EF324D96E040EF420DA6EDECF8B
:1009D00027F0DDCF28F027C062F028C063F0000EBA
:1009E0000001656F640E646F10ECE0F0000162516D
:1009F000300FEA6F000E226E640E216E27C01FF0CA
:100A000028C020F0B8ECE0F01FC062F020C063F016
:100A1000000E0001656F0A0E646F10ECE0F000013B
:100A20006251300FEB6F27C01FF028C020F0000E7E
:100A3000226E0A0E216EB8ECE0F01F50300F00015C
:100A4000EC6FEA0E206E000E216E030E226E54EC47
:100A5000E4F0D00E00017E6FC90EE82EFED77E2F87
:100A6000FCD700D0480E206EFF0E216EEEECE2F0B7
:100A7000D00E00017E6FC90EE82EFED77E2FFCD768
:100A800000D03E502D0DDD0EF324D96E040EF4205F
:100A9000DA6EDECF27F0DDCF28F027C062F028C065
:100AA00063F0000E0001656F640E646F10ECE0F0FF
:100AB00000016251300FEA6F000E226E640E216E4B
:100AC00027C01FF028C020F0B8ECE0F01FC062F093
:100AD00020C063F0000E0001656F0A0E646F10EC19
:100AE000E0F000016251300FEB6F27C01FF028C00B
:100AF00020F0000E226E0A0E216EB8ECE0F01F50BE
:100B0000300F0001EC6FEA0E206E000E216E030E16
:100B1000226E54ECE4F0D00E00017E6FC90EE82E78
:100B2000FED77E2FFCD700D0380E206EFE0E216E31
:100B3000EEECE2F0D00E00017E6FC90EE82EFED77B
:100B40007E2FFCD700D03E502D0DF90EF324D96E28
:100B5000040EF420DA6EDF5000017E6F7E511F6EAE
:100B6000206A000E226E0A0E216E7AECDAF01F5017
:100B7000300F0001EA6F3E502D0DF90EF324D96EAF
:100B8000040EF420DA6EDF507E6F7E516E6F6F6B55
:100B9000000E716F0A0E706FF5ECDBF000016E5104
:100BA000300FEB6FEA0E206E000E216E020E226EE9
:100BB00054ECE4F0D00E00017E6FC90EE82EFED793
:100BC0007E2FFCD700D0AD0E206EFC0E216EEEEC19
:100BD000E2F0B9EF87F09A0E206EF90E216EEEEC7E
:100BE000E2F0D00E00017E6FC90EE82EFED77E2FF8
:100BF000FCD700D0B9EF87F0D00E00017E6FC90E90
:100C0000E82EFED77E2FFCD700D0720E206EFE0E8F
:100C1000216EEEECE2F0D00E00017E6FC90EE82EE0
:100C2000FED77E2FFCD700D033C01FF0206A000E05
:100C3000226E0A0E216E7AECDAF01F50300F00019E
:100C4000EA6F33C06EF06F6B000E716F0A0E706F3B
:100C5000F5ECDBF000016E51300FEB6FEA0E206E09
:100C6000000E216E020E226E54ECE4F0D00E000154
:100C70007E6FC90EE82EFED77E2FFCD700D07E0EE9
:100C8000206EFF0E216EEEECE2F0D00E00017E6FC2
:100C9000C90EE82EFED77E2FFCD700D0F70E206EAF
:100CA000FE0E216EEEECE2F0D00E00017E6FC90E5A
:100CB000E82EFED77E2FFCD700D032C01FF0206A6E
:100CC000000E226E0A0E216E7AECDAF01F50300F01
:100CD0000001EA6F32C06EF06F6B000E716F0A0E8A
:100CE000706FF5ECDBF000016E51300FEB6FEA0E28
:100CF000206E000E216E020E226E54ECE4F0D00E37
:100D000000017E6FC90EE82EFED77E2FFCD700D0E3
:100D10007E0E206EFF0E216EEEECE2F0D00E000192
:100D20007E6FC90EE82EFED77E2FFCD700D0000EB6
:100D3000206EFF0E216EEEECE2F0D00E00017E6F11
:100D4000C90EE82EFED77E2FFCD700D0D7C01FF0EB
:100D5000206A000E226E0A0E216E7AECDAF01F5025
:100D6000300F0001EA6FD7C06EF06F6B000E716F2D
:100D70000A0E706FF5ECDBF000016E51300FEB6F77
:100D8000EA0E206E000E216E020E226E54ECE4F08C
:100D9000D00E00017E6FC90EE82EFED77E2FFCD745
:100DA00000D0AF0E206EFF0E216EEEECE2F0D00E02
:100DB00000017E6FC90EE82EFED77E2FFCD700D033
:100DC0007D0E206EFE0E216EEEECE2F0D00E0001E4
:100DD0007E6FC90EE82EFED77E2FFCD700D031C023
:100DE0001FF0206A000E226E0A0E216E7AECDAF0F5
:100DF0001F50300F0001EA6F31C06EF06F6B000EB4
:100E0000716F0A0E706FF5ECDBF000016E51300F60
:100E1000EB6FEA0E206E000E216E020E226E54EC75
:100E2000E4F0D00E00017E6FC90EE82EFED77E2FB3
:100E3000FCD700D07E0E206EFF0E216EEEECE2F0AD
:100E4000D00E00017E6FC90EE82EFED77E2FFCD794
:100E500000D0C00E206EFB0E216EEEECE2F0D00E44
:100E600000017E6FC90EE82EFED77E2FFCD700D082
:100E7000C2C027F0C3C028F027C062F028C063F0CA
:100E8000000E0001656F640E646F10ECE0F000016D
:100E90006251300FEA6F000E226E640E216E27C081
:100EA0001FF028C020F0B8ECE0F01FC062F020C0B6
:100EB00063F0000E0001656F0A0E646F10ECE0F045
:100EC00000016251300FEB6F27C01FF028C020F0E7
:100ED000000E226E0A0E216EB8ECE0F01F50300FAB
:100EE0000001EC6FEA0E206E000E216E030E226EE2
:100EF00054ECE4F0D00E00017E6FC90EE82EFED750
:100F00007E2FFCD700D0AF0E206EFF0E216EEEECD0
:100F1000E2F0F1EF85F000017D517E6F7F6B7F5134
:100F2000000AD8B496EF87F0B9EF87F07E51010A36
:100F3000D8B43FEF80F0030AD8B456EF80F0010A2E
:100F4000D8B460EF80F0070AD8B46AEF80F0010AE5
:100F5000D8B474EF80F0030AD8B449EF81F0010AE5
:100F6000D8B4E5EF81F00F0AD8B4FCEF85F0B9EF03
:100F700087F0000E2F6E000E3F6E090E00017F6F8E
:100F80001E0E7E6FE40EE82EFED77E2FFCD77F2F3D
:100F9000FAD700F0290E00017F6F960E7E6F7F0E4C
:100FA000E82EFED77E2FFCD77F2FFAD712007FECDA
:100FB000C4F09CECDBF0BAECD1F00301F66F030E49
:100FC000F619D8B4E6EF87F0E8EF87F042EF88F043
:100FD0000CECE6F04E0E0001736FFA0E746F020E09
:100FE000756FD9ECD6F0000E0301F56F000EF46FAB
:100FF000EA0E0201F66F000EF76FDA0EF86FFF0EC1
:10100000F96F010E0301F4251F6E000EF521206E0D
:10101000000E226E0A0E216EE7ECE5F01FC0FAF218
:1010200020C0FBF2000E0201FD6F250EFC6F6BEC81
:10103000E2F0EA0E0001736F000E746F030E756F1D
:10104000D9ECD6F0A30E0101FD6F570EFC6F020E16
:10105000E82EFED7FC2FFCD7FD2FFAD700F00301B6
:10106000F44BF52BF5BF3EEF88F0F55109E10A0E80
:10107000F45DD8A03EEF88F040EF88F0F8EF87F0FD
:101080004FEF88F0030EF619D8A449EF88F04BEF24
:1010900088F04FEF88F09CECE4F0E4ECA4F07BECFB
:1010A000CFF0520E0101FD6F2B0EFC6F000EE82EEB
:1010B000FED7FC2FFCD7FD2FFAD700F069ECAFF07C
:1010C0003050D8B466EF88F068EF88F082EF88F08F
:1010D0000CECE6F00F0E0001736FFA0E746F020E47
:1010E000756FD9ECD6F0520E0101FD6F2B0EFC6F1F
:1010F000000EE82EFED7FC2FFCD7FD2FFAD700F00C
:101100008FEF88F00CECE6F0B70E0001736FF90E6C
:10111000746F020E756FD9ECD6F073EF88F0050E80
:101120000101FD6F0F0EFC6FF10EE82EFED7FC2FB4
:10113000FCD7FD2FFAD7000E0001BF6F0A0EBE6F5D
:10114000000EFF6FC80EFE6F090E0101FD6F1E0E2F
:10115000FC6FE40EE82EFED7FC2FFCD7FD2FFAD74C
:1011600000F055ECD2F0090E0101FD6F1E0EFC6F70
:10117000E40EE82EFED7FC2FFCD7FD2FFAD700F0A7
:101180000A0E366E0A0E376E0A0E386E0A0E00010F
:10119000DA6F0A0ED96F320ED86F3DECDEF0010E19
:1011A00001017F6F010E806F010E816F020E826F51
:1011B000010E836F030E846F000E3E6E020E3E64BE
:1011C000E4EF88F0E6EF88F0E8EF88F0B3EF8AF01C
:1011D0003E502D0DD90EF324D96E040EF420DA6E94
:1011E000050EDE6E000EDD6E3E502D0DF30EF32467
:1011F000D96E040EF420DA6E010EDF6E3E502D0D16
:10120000F40EF324D96E040EF420DA6E0A0EDF6EAB
:101210003E502D0DF50EF324D96E040EF420DA6E37
:101220000B0EDF6E3E502D0DF60EF324D96E040E1C
:10123000F420DA6E0A0EDF6E3E502D0DF70EF32409
:10124000D96E040EF420DA6E0A0EDF6E3E502D0DBC
:10125000F80EF324D96E040EF420DA6E0A0EDF6E57
:101260003E502D0DD50EF324D96E040EF420DA6E07
:10127000640EDE6E000EDD6E3E502D0DD70EF32493
:10128000D96E040EF420DA6E300EDE6E750EDD6E51
:101290003E502D0DFA0EF324D96E040EF420DA6EB2
:1012A0003E28DF6E3E502D0DFE0EF324D96E040E47
:1012B000F420DA6E000EDF6E3E502D0DFC0EF3248E
:1012C000D96E040EF420DA6E010EDF6E3E502D0D45
:1012D000FD0EF324D96E040EF420DA6E010EDF6EDB
:1012E0003E502D0DFF0EF324D96E040EF420DA6E5D
:1012F000010EDF6E3E502D0DDB0EF324D96E040E71
:10130000F420DA6E010EDE6E000EDD6E3E502D0D05
:10131000DD0EF324D96E040EF420DA6E020EDE6EBA
:10132000000EDD6E3E502D0DF90EF324D96E040E25
:10133000F420DA6E3E28DF6E3E502D0DFB0EF324B6
:10134000D96E040EF420DA6E000EDF6E3E502D0DC5
:10135000010EF324D96E050EF420DA6E000EDF6E56
:101360003E502D0D000EF324D96E050EF420DA6EDA
:10137000010EDF6E3E50020DDE0EF324F66EEE0E11
:10138000F420F76EF86A000EF8220900F5CF60F03D
:101390000A00F5CF61F03E502D0DD50EF32400016B
:1013A000626F040EF420636F77ECC7F0090E010141
:1013B000FD6F1E0EFC6FE40EE82EFED7FC2FFCD74F
:1013C000FD2FFAD700F03E50020DDE0EF324F66E2C
:1013D000EE0EF420F76EF86A000EF8220900F5CF41
:1013E00060F00A00F5CF61F03E502D0DD50EF324CC
:1013F0000001626F040EF420636FB3ECD9F0090EA4
:101400000101FD6F1E0EFC6FE40EE82EFED7FC2FCF
:10141000FCD7FD2FFAD700F03E50020DDE0EF3246C
:10142000F66EEE0EF420F76EF86A000EF822090050
:10143000F5CF60F00A00F5CF61F03E502D0DD50ECE
:10144000F3240001626F040EF420636F43ECE3F0B9
:10145000090E0101FD6F1E0EFC6FE40EE82EFED793
:10146000FC2FFCD7FD2FFAD700F03E50020DDE0E08
:10147000F324F66EEE0EF420F76EF86A000EF822F2
:101480000900F5CF60F00A00F5CF61F03E502D0D58
:10149000D50EF3240001626F040EF420636F6DEC2F
:1014A000E3F0090E0101FD6F1E0EFC6FE40EE82E45
:1014B000FED7FC2FFCD7FD2FFAD700F03E50020DCF
:1014C000DE0EF324F66EEE0EF420F76EF86A000ED0
:1014D000F8220900F5CF60F00A00F5CF61F03E5028
:1014E0002D0DD50EF3240001626F040EF420636FFE
:1014F00019ECE3F0090E0101FD6F1E0EFC6FE40E06
:10150000E82EFED7FC2FFCD7FD2FFAD700F03E5077
:10151000020DDE0EF324F66EEE0EF420F76EF86A7E
:10152000000EF8220900F5CF60F00A00F5CF61F057
:101530003E502D0DD50EF3240001626F040EF420F1
:10154000636FA3ECA8F0090E0101FD6F1E0EFC6F86
:10155000E40EE82EFED7FC2FFCD7FD2FFAD700F0C3
:101560003E2ADEEF88F0A4ECDCF036C01FF0206AE3
:10157000000E226E0A0E216E7AECDAF01F50300F48
:101580000001EA6F36C06EF06F6B000E716F0A0ECD
:10159000706FF5ECDBF000016E51300FEB6F2F0E2A
:1015A000EC6F37C01FF0206A000E226E0A0E216E0B
:1015B0007AECDAF01F50300F0001ED6F37C06EF09B
:1015C0006F6B000E716F0A0E706FF5ECDBF00001AF
:1015D0006E51300FEE6F2F0EEF6F38C01FF0206A84
:1015E000000E226E0A0E216E7AECDAF01F50300FD8
:1015F0000001F06F38C06EF06F6B000E716F0A0E55
:10160000706FF5ECDBF000016E51300FF16F200EC2
:10161000F26FDAC01FF0206A000E226E0A0E216EF1
:101620007AECDAF01F50300F0001F36FDAC06EF081
:101630006F6B000E716F0A0E706FF5ECDBF000013E
:101640006E51300FF46F3A0EF56FD9C01FF0206A5B
:10165000000E226E0A0E216E7AECDAF01F50300F67
:101660000001F66FD9C06EF06F6B000E716F0A0E3D
:10167000706FF5ECDBF000016E51300FF76F3A0E32
:10168000F86FD8C01FF0206A000E226E0A0E216E7D
:101690007AECDAF01F50300F0001F96FD8C06EF00D
:1016A0006F6B000E716F0A0E706FF5ECDBF00001CE
:1016B0006E51300FFA6F000E3F6E310E796FF90EDA
:1016C0007A6FDE0E7B6F010E7C6F030E7D6F00EC78
:1016D00080F0000E3E6E090E3E6071EF8BF073EFEE
:1016E0008BF07BEF8BF0300E0001EA6F3E50310F34
:1016F000EB6F91EF8BF0080E3E6481EF8BF083EF80
:101700008BF091EF8BF00C0E3E6089EF8BF08BEF3E
:101710008BF091EF8BF0310E0001EA6F3E50270FF6
:10172000EB6F400E0001796FF90E7A6FDE0E7B6F62
:10173000010E7C6F070E7D6F00EC80F0010E3E6E97
:10174000090E3E60A6EF8BF0A8EF8BF0B0EF8BF0A8
:10175000300E0001EA6F3E50310FEB6FC6EF8BF099
:10176000080E3E64B6EF8BF0B8EF8BF0C6EF8BF04F
:101770000C0E3E60BEEF8BF0C0EF8BF0C6EF8BF02F
:10178000310E0001EA6F3E50270FEB6F400E000153
:10179000796FF90E7A6FDE0E7B6F010E7C6F070E8C
:1017A0007D6F00EC80F03050D8B4D9EF8BF0DBEFD8
:1017B0008BF0A4EF8EF04EECDCF00009D8B4E3EF30
:1017C0008BF0E5EF8BF0FBEF8BF0FF0E2A6EDC0E5B
:1017D000296E1D0E0001796FF50E7A6FDE0E7B6F9C
:1017E000010E7C6F000E7D6F00EC80F0010E010198
:1017F000D66FA4EF8EF0000E0001DD6F000E3E6E7E
:101800005EEF8DF03E502D0DFE0EF324D96E040ECA
:10181000F420DA6EDE04D8A410EF8CF012EF8CF016
:101820005DEF8DF03EC0DDF0A4ECDCF03E502D0D00
:10183000F80EF324D96E040EF420DA6E3850DE5C14
:10184000D8A025EF8CF027EF8CF0C1EF8CF03E5044
:101850002D0DF70EF324D96E040EF420DA6E3750F6
:10186000DE5CD8B036EF8CF038EF8CF049EF8CF0BE
:101870003E502D0DF80EF324D96E040EF420DA6ECE
:101880003850DE18D8B447EF8CF049EF8CF0C1EF38
:101890008CF03E502D0DF60EF324D96E040EF4207C
:1018A000DA6E3650DE5CD8B058EF8CF05AEF8CF020
:1018B0007CEF8CF03E502D0DF70EF324D96E040E04
:1018C000F420DA6E3750DE18D8A469EF8CF06BEF95
:1018D0008CF07CEF8CF03E502D0DF80EF324D96E79
:1018E000040EF420DA6E3850DE18D8B47AEF8CF09B
:1018F0007CEF8CF0C1EF8CF03E502D0DF40EF324F4
:10190000D96E040EF420DA6E0001DA51DE5CD8B034
:101910008CEF8CF08EEF8CF059EF8DF03E502D0D4A
:10192000F60EF324D96E040EF420DA6E3650DE186B
:10193000D8A49DEF8CF09FEF8CF059EF8DF03E50C6
:101940002D0DF70EF324D96E040EF420DA6E375005
:10195000DE18D8A4AEEF8CF0B0EF8CF059EF8DF01C
:101960003E502D0DF80EF324D96E040EF420DA6EDD
:101970003850DE18D8A4BFEF8CF0C1EF8CF059EFCF
:101980008DF0000E0001CE6F3E502D0DFE0EF324A3
:10199000D96E040EF420DA6E000EDF6E3E502D0D6F
:1019A000FC0EF324D96E040EF420DA6E3E502D0D99
:1019B000FD0EF324E16E040EF420E26EDFCFE7FFAC
:1019C0003E502D0D000EF324D96E050EF420DA6E74
:1019D000DF50D8B4EEEF8CF0F0EF8CF04AEF8DF0E2
:1019E0003E502D0DFB0EF324D96E040EF420DA6E5A
:1019F000020EDE18D8A4FFEF8CF001EF8DF01FEF80
:101A00008DF03E502D0DFB0EF324D96E040EF42004
:101A1000DA6E000EDF6E3E502D0D010EF324D96EEE
:101A2000050EF420DA6E010EDF6EB1ECD7F060C067
:101A3000CDF161C0CEF1FAECDCF04AEF8DF03E5012
:101A40002D0DFB0EF324D96E040EF420DA6E030E76
:101A5000DE18D8B42EEF8DF030EF8DF040EF8DF022
:101A60003E502D0DFB0EF324D96E040EF420DA6ED9
:101A7000DE04D8A43EEF8DF040EF8DF04AEF8DF0FC
:101A80003E502D0DFB0EF324D96E040EF420DA6EB9
:101A9000000EDF6E090E0101FD6F1E0EFC6FE40EDD
:101AA000E82EFED7FC2FFCD7FD2FFAD700F066EF0B
:101AB0008DF0010ECE6F66EF8DF03E2A0B0E3E6468
:101AC00064EF8DF066EF8DF002EF8CF00001CE51E7
:101AD000D8B46DEF8DF06FEF8DF07DEF8EF0010ECD
:101AE0000101D96F090E3E6078EF8DF07AEF8DF02D
:101AF00082EF8DF0300E0001EA6F3E50310FEB6F38
:101B0000F4EF8DF0080E3E6488EF8DF08AEF8DF0D3
:101B1000F4EF8DF00C0E3E6090EF8DF092EF8DF0B3
:101B2000F4EF8DF0310E0001EA6F3E50270FEB6F9E
:101B3000F4EF8DF0DB0E0001796FF20E7A6FDE0E9E
:101B40007B6F010E7C6F020E7D6F00EC80F01BEF4F
:101B50008EF0760E0001796FF30E7A6FDE0E7B6FDA
:101B6000010E7C6F020E7D6F00EC80F01BEF8EF09B
:101B7000290E0001796FF30E7A6FDE0E7B6F010E76
:101B80007C6F020E7D6F00EC80F01BEF8EF0890EF3
:101B90000001796FF20E7A6FDE0E7B6F010E7C6FA3
:101BA000020E7D6F00EC80F01BEF8EF00B0E00013B
:101BB000796FF40E7A6FDE0E7B6F010E7C6F020E72
:101BC0007D6F00EC80F01BEF8EF0C10E0001796F8D
:101BD000F30E7A6FDE0E7B6F010E7C6F020E7D6F4F
:101BE00000EC80F01BEF8EF00301F6510101FC6F59
:101BF000FD6BFD51000AD8B400EF8EF01BEF8EF0A4
:101C0000FC51010AD8B49AEF8DF0030AD8B4A9EFB9
:101C10008DF0010AD8B4B8EF8DF0070AD8B4C7EF39
:101C20008DF0010AD8B4D6EF8DF0030AD8B4E5EFF1
:101C30008DF01BEF8EF0B1ECD7F060C029F061C0E1
:101C40002AF0A4EF8EF0D50E0001796FF70E7A6FAF
:101C5000DE0E7B6F010E7C6F000E7D6F00EC80F05E
:101C6000A4EF8EF0E60E0001796FF80E7A6FDE0EAB
:101C70007B6F010E7C6F000E7D6F00EC80F0A4EF97
:101C80008EF0FA0E0001796FF70E7A6FDE0E7B6F21
:101C9000010E7C6F000E7D6F00EC80F0A4EF8EF0E3
:101CA000AC0E0001796FF70E7A6FDE0E7B6F010EBE
:101CB0007C6F000E7D6F00EC80F0A4EF8EF0830E41
:101CC0000001796FF80E7A6FDE0E7B6F010E7C6F6C
:101CD000000E7D6F00EC80F0A4EF8EF0620E00012C
:101CE000796FF80E7A6FDE0E7B6F010E7C6F000E3F
:101CF0007D6F00EC80F0A4EF8EF00301F65101013E
:101D0000FC6FFD6BFD51000AD8B489EF8EF0A4EF93
:101D10008EF0FC51010AD8B423EF8EF0030AD8B438
:101D200032EF8EF0010AD8B441EF8EF0070AD8B432
:101D300050EF8EF0010AD8B45FEF8EF0030AD8B4EA
:101D40006EEF8EF0A4EF8EF0EFECDDF00009D8B46A
:101D5000ACEF8EF0AEEF8EF0E4EF8EF01C0E0001D3
:101D6000796FF70E7A6FDE0E7B6F010E7C6F000EBF
:101D70007D6F00EC80F00001C751D8B4C2EF8EF047
:101D8000C4EF8EF059EF8FF0F7ECCCF0520E01015A
:101D9000FD6F2B0EFC6F000EE82EFED7FC2FFCD73C
:101DA000FD2FFAD700F03DECDEF0520E0101FD6F81
:101DB0002B0EFC6F000EE82EFED7FC2FFCD7FD2F5C
:101DC000FAD700F059EF8FF00001CA51D8B4EBEF09
:101DD0008EF0EDEF8EF04FEF8FF0000ECA6F090E10
:101DE0000101FD6F1E0EFC6FE40EE82EFED7FC2FE6
:101DF000FCD7FD2FFAD700F07EECE1F0090E0101CF
:101E0000FD6F1E0EFC6FE40EE82EFED7FC2FFCD7F4
:101E1000FD2FFAD700F00001C751D8B412EF8FF0B0
:101E200014EF8FF041EF8FF0F7ECCCF0520E010180
:101E3000FD6F2B0EFC6F000EE82EFED7FC2FFCD79B
:101E4000FD2FFAD700F03DECDEF0520E0101FD6FE0
:101E50002B0EFC6F000EE82EFED7FC2FFCD7FD2FBB
:101E6000FAD700F07E0E0001796FF60E7A6FDE0E63
:101E70007B6F010E7C6F000E7D6F00EC80F059EFE0
:101E80008FF0460E796FF60E7A6FDE0E7B6F010EC5
:101E90007C6F000E7D6F00EC80F059EF8FF0C75122
:101EA000D8B455EF8FF057EF8FF059EF8FF0C4EFA4
:101EB0008EF012000001CE51D8B461EF8FF063EFC5
:101EC0008FF0DEEF93F029502A10D8A46AEF8FF03C
:101ED0006CEF8FF0DEEF93F0D051D8A472EF8FF05B
:101EE00074EF8FF0DEEF93F0CB51D8A47AEF8FF040
:101EF0007CEF8FF0DEEF93F0CC51D8A482EF8FF01F
:101F000084EF8FF0DEEF93F0CF51D8A48AEF8FF0FB
:101F10008CEF8FF0DEEF93F0000E866FD4EF93F02E
:101F200086512D0DFE0EF324D96E040EF420DA6EC8
:101F3000DE04D8A49EEF8FF0A0EF8FF066EF91F053
:101F400086512D0D000EF324D96E050EF420DA6EA5
:101F5000DF50D8B4AEEF8FF0B0EF8FF066EF91F0B6
:101F600086512D0DFB0EF324D96E040EF420DA6E8B
:101F7000DE04D8A4BEEF8FF0C0EF8FF066EF91F0D3
:101F8000520E0001816F2B0E806F000EE82EFED7DF
:101F9000802FFCD7812FFAD700F09084000E01012A
:101FA000C46F000EC36F000EC26F000EC16F000E33
:101FB000C06F000EBF6F000EBE6F000EBD6F000E33
:101FC000B46F000EB36F000EB26F000EB16F000E53
:101FD000B06F000EAF6F000EAE6F000EAD6F000E53
:101FE0000001E56F000EE46F000EE36F000EE26F7C
:101FF00086512D0DDF0EF324D96E040EF420DA6E17
:10200000DECFCBF1DDCFCCF186512D0DE10EF324E7
:10201000D96E040EF420DA6EDECFC9F1DDCFCAF13D
:1020200086512D0DE30EF324D96E040EF420DA6EE2
:10203000DECFC7F1DDCFC8F186512D0DE50EF324BB
:10204000D96E040EF420DA6EDECFC5F1DDCFC6F115
:1020500086512D0DE70EF324D96E040EF420DA6EAE
:10206000DECFBBF1DDCFBCF186512D0DE90EF3249F
:10207000D96E040EF420DA6EDECFB9F1DDCFBAF1FD
:1020800086512D0DEB0EF324D96E040EF420DA6E7A
:10209000DECFB7F1DDCFB8F186512D0DED0EF32473
:1020A000D96E040EF420DA6EDECFB5F1DDCFB6F1D5
:1020B00086512D0DEF0EF324D96E040EF420DA6E46
:1020C000DF50E96F86512D0DF00EF324D96E040E0A
:1020D000F420DA6EDF50E86F86512D0DF10EF324F7
:1020E000D96E040EF420DA6EDF50E76F86512D0DA5
:1020F000F20EF324D96E040EF420DA6EDF50E66F90
:102100000101CB51CC11D8B488EF90F08AEF90F058
:102110008DEF90F08E86C34BC42BC951CA11D8B431
:1021200094EF90F096EF90F099EF90F08E88C14B7D
:10213000C22BC751C811D8B4A0EF90F0A2EF90F015
:10214000A5EF90F08E8ABF4BC02BC551C611D8B4F5
:10215000ACEF90F0AEEF90F0B1EF90F08E8CBD4B05
:10216000BE2B000186512D0DFB0EF324D96E040EFB
:10217000F420DA6E020EDF6E86512D0D010EF3246F
:10218000D96E050EF420DA6EDF50D8B4CAEF90F0A5
:10219000CCEF90F0E2EF90F086512D0D010EF3247C
:1021A000D96E050EF420DA6E000EDF6E46ECD7F025
:1021B00060C0CDF161C0CEF1CDC129F0CEC12AF011
:1021C000EEEF90F086512D0DDD0EF324D96E040E46
:1021D000F420DA6EDECF29F0DDCF2AF0090E0001FF
:1021E000816F1E0E806FE40EE82EFED7802FFCD785
:1021F000812FFAD700F000018651020DDE0EF32484
:10220000F66EEE0EF420F76EF86A000EF822090062
:10221000F5CF60F00A00F5CF61F086512D0DD50E97
:10222000F324626F040EF420636FEBECD8F0090E18
:102230000001816F1E0E806FE40EE82EFED7802F06
:10224000FCD7812FFAD700F04EECDDF0090E00012B
:10225000816F1E0E806FE40EE82EFED7802FFCD714
:10226000812FFAD700F0090E000186613AEF91F054
:102270003CEF91F043EF91F0300EEA6F8651310F51
:10228000EB6F58EF91F0080E866549EF91F04BEF38
:1022900091F058EF91F00C0E866151EF91F053EFF1
:1022A00091F058EF91F0310EEA6F8651270FEB6FE6
:1022B000400E796FF80E7A6FDE0E7B6F010E7C6F29
:1022C000020E7D6F00EC80F0C5EF95F086512D0D6C
:1022D000FE0EF324D96E040EF420DA6EDE04D8A4C8
:1022E00074EF91F076EF91F0C2EF92F086512D0DE0
:1022F000000EF324D96E050EF420DA6EDF50D8B448
:1023000084EF91F086EF91F0C2EF92F086512D0D9F
:10231000FB0EF324D96E040EF420DA6E020EDE18E2
:10232000D8A495EF91F097EF91F0C2EF92F0520E92
:102330000001816F2B0E806F000EE82EFED7802FDC
:10234000FCD7812FFAD700F090948E968E988E9AB3
:102350008E9C000186512D0DFB0EF324D96E040EC8
:10236000F420DA6E030EDF6E86512D0DF90EF32484
:10237000D96E040EF420DA6EDF0686512D0DF90EAB
:10238000F324D96E040EF420DA6EDF50D8A4CBEF1C
:1023900091F0CDEF91F0D7EF91F086512D0D000E19
:1023A000F324D96E050EF420DA6E000EDF6E090EEE
:1023B0000001816F1E0E806FE40EE82EFED7802F85
:1023C000FCD7812FFAD700F000018651020DDE0EF6
:1023D000F324F66EEE0EF420F76EF86A000EF82283
:1023E0000900F5CF60F00A00F5CF61F086512D0DA0
:1023F000D50EF324626F040EF420636FA3ECA8F0F3
:10240000090E0001816F1E0E806FE40EE82EFED7CC
:10241000802FFCD7812FFAD700F0000186512D0DB7
:10242000D90EF324D96E040EF420DA6EDECF80F0DC
:10243000DDCF81F086512D0DDD0EF324D96E040E13
:10244000F420DA6EDECF82F0DDCF83F086512D0DE1
:10245000DB0EF324D96E040EF420DA6EDECF84F0A6
:10246000DDCF85F0841F851F844B852B8251845FCF
:102470008351855B80518425296E815185212A6E87
:10248000090E0001816F1E0E806FE40EE82EFED74C
:10249000802FFCD7812FFAD700F04EECDDF0090E2B
:1024A0000001816F1E0E806FE40EE82EFED7802F94
:1024B000FCD7812FFAD700F0090E0001866163EF87
:1024C00092F065EF92F06CEF92F0300EEA6F865169
:1024D000310FEB6F81EF92F0080E866572EF92F08C
:1024E00074EF92F081EF92F00C0E86617AEF92F029
:1024F0007CEF92F081EF92F0310EEA6F8651270F58
:10250000EB6F0101D151D8B488EF92F08AEF92F0CD
:102510009BEF92F0000ED16F590E0001796FF50E0E
:102520007A6FDE0E7B6F010E7C6F020E7D6F00EC0A
:1025300080F0C5EF95F00001D251D8B4A2EF92F02F
:10254000A4EF92F0B4EF92F0000ED26F550E796FB7
:10255000F40E7A6FDE0E7B6F010E7C6F020E7D6FC4
:1025600000EC80F0C5EF95F01E0E796FF80E7A6FD3
:10257000DE0E7B6F010E7C6F020E7D6F00EC80F033
:10258000C5EF95F086512D0DFE0EF324D96E040E85
:10259000F420DA6EDE04D8A4D0EF92F0D2EF92F0FD
:1025A000D3EF93F086512D0DFE0EF324D96E040E59
:1025B000F420DA6E000EDF6E86512D0DFC0EF32432
:1025C000D96E040EF420DA6E86512D0DFD0EF32423
:1025D000E16E040EF420E26EDE50E618D8A4F3EFAC
:1025E00092F0F5EF92F001EF93F086512D0DFD0E74
:1025F000F324D96E040EF420DA6E010EDF6E0AEFBA
:1026000093F086512D0DFD0EF324D96E040EF420A7
:10261000DA6EDF2A000ECE6F010ECD6F8629DD6FD8
:10262000090E0001816F1E0E806FE40EE82EFED7AA
:10263000802FFCD7812FFAD700F0000186511DECC6
:10264000E1F0090E0001816F1E0E806FE40EE82E8E
:10265000FED7802FFCD7812FFAD700F000018651DA
:10266000020DDE0EF324F66EEE0EF420F76EF86A1D
:10267000000EF8220900F5CF60F00A00F5CF61F0F6
:1026800086512D0DD50EF324626F040EF420636F76
:1026900043ECE3F0090E0001816F1E0E806FE40E23
:1026A000E82EFED7802FFCD7812FFAD700F000014B
:1026B0008651020DDE0EF324F66EEE0EF420F76E58
:1026C000F86A000EF8220900F5CF60F00A00F5CF95
:1026D00061F086512D0DD50EF324626F040EF420A7
:1026E000636F6DECE3F0090E0001816F1E0E806FC9
:1026F000E40EE82EFED7802FFCD7812FFAD700F00A
:10270000000186512D0D000EF324D96E050EF42024
:10271000DA6EDF50D8B48FEF93F091EF93F0C5EFFE
:1027200095F086512D0DFB0EF324D96E040EF42086
:10273000DA6E000EDF6E090E0001816F1E0E806FD3
:10274000E40EE82EFED7802FFCD7812FFAD700F0B9
:1027500000018651020DDE0EF324F66EEE0EF4201B
:10276000F76EF86A000EF8220900F5CF60F00A0053
:10277000F5CF61F086512D0DD50EF324626F040E56
:10278000F420636FEBECD8F0090E0001816F1E0E90
:10279000806FE40EE82EFED7802FFCD7812FFAD76A
:1027A00000F0C5EF95F0862B0B0E8665DAEF93F0FF
:1027B000DCEF93F090EF8FF0C5EF95F0CC51D8B4EB
:1027C000E4EF93F0E6EF93F0C5EF95F0000ECC6FD9
:1027D000000E866FBDEF95F086512D0DFE0EF32491
:1027E000D96E040EF420DA6EDE04D8A4FAEF93F06A
:1027F000FCEF93F0BCEF95F086512D0DFF0EF32406
:10280000D96E040EF420DA6EDF50D8A40AEF94F0EB
:102810000CEF94F0F8EF94F086512D0DFE0EF3249A
:10282000D96E040EF420DA6E000EDF6E86512D0D87
:10283000FC0EF324D96E040EF420DA6E86512D0DB1
:10284000FD0EF324E16E040EF420E26EDE50E61875
:10285000D8A42DEF94F02FEF94F03BEF94F0865135
:102860002D0DFD0EF324D96E040EF420DA6E010E48
:10287000DF6E44EF94F086512D0DFD0EF324D96EDA
:10288000040EF420DA6EDF2A86512D0DFB0EF324A0
:10289000D96E040EF420DA6E020EDE18D8A453EFBF
:1028A00094F055EF94F08CEF94F090948E968E986F
:1028B0008E9A8E9C86512D0DFB0EF324D96E040E3C
:1028C000F420DA6E000EDF6E8651020DDE0EF32468
:1028D000F66EEE0EF420F76EF86A000EF82209008C
:1028E000F5CF60F00A00F5CF61F086512D0DD50EC1
:1028F000F324626F040EF420636FEBECD8F0090E42
:102900000001816F1E0E806FE40EE82EFED7802F2F
:10291000FCD7812FFAD700F0000E0001CE6F010E18
:10292000CD6F8629DD6F090E0001816F1E0E806F4D
:10293000E40EE82EFED7802FFCD7812FFAD700F0C7
:10294000000186511DECE1F0090E0001816F1E0EA1
:10295000806FE40EE82EFED7802FFCD7812FFAD7A8
:1029600000F000018651020DDE0EF324F66EEE0E2D
:10297000F420F76EF86A000EF8220900F5CF60F037
:102980000A00F5CF61F086512D0DD50EF324626F4C
:10299000040EF420636F43ECE3F0090E0001816F35
:1029A0001E0E806FE40EE82EFED7802FFCD7812FFD
:1029B000FAD700F000018651020DDE0EF324F66E08
:1029C000EE0EF420F76EF86A000EF8220900F5CF3B
:1029D00060F00A00F5CF61F086512D0DD50EF3247D
:1029E000626F040EF420636F6DECE3F0C4EF93F0BC
:1029F00086512D0DFB0EF324D96E040EF420DA6EF1
:102A0000DE04D8A406EF95F008EF95F035EF95F0C9
:102A1000B1ECD7F060C029F061C02AF00001865106
:102A20002D0DDB0EF324D96E040EF420DA6EDECF0A
:102A300080F0DDCF81F086512D0DD90EF324D96EB3
:102A4000040EF420DA6EDECF82F0DDCF83F0805109
:102A5000825F8151835B29508225296E2A50832110
:102A60002A6E4EECDDF0C4EF93F086512D0DFB0E77
:102A7000F324D96E040EF420DA6E020EDE18D8A408
:102A800044EF95F046EF95F0BCEF95F090948E965C
:102A90008E988E9A8E9C86512D0DFB0EF324D96E46
:102AA000040EF420DA6E000EDF6E8651020DDE0E8B
:102AB000F324F66EEE0EF420F76EF86A000EF8229C
:102AC0000900F5CF60F00A00F5CF61F086512D0DB9
:102AD000D50EF324626F040EF420636FEBECD8F094
:102AE000090E0001816F1E0E806FE40EE82EFED7E6
:102AF000802FFCD7812FFAD700F0B1ECD7F060C05F
:102B000029F061C02AF0000186512D0DD90EF32461
:102B1000D96E040EF420DA6EDECF80F0DDCF81F0C6
:102B200086512D0DDD0EF324D96E040EF420DA6EDD
:102B3000DECF82F0DDCF83F086512D0DDB0EF32446
:102B4000D96E040EF420DA6EDECF84F0DDCF85F08E
:102B5000841F851F844B852B8251845F8351855B45
:102B6000805184278151852329508425296E2A503C
:102B700085212A6E31EF95F0862B0B0E8665C3EF0B
:102B800095F0C5EF95F0ECEF93F01200050E000103
:102B9000656F0F0E646FF10EE82EFED7642FFCD721
:102BA000652FFAD760C01FF061C020F0FBECE5F0A4
:102BB0000001646F6451276E286A050E0001656F7D
:102BC0000F0E646FF10EE82EFED7642FFCD7652F31
:102BD000FAD7FF0E2716000E2816010E00016025F9
:102BE0001F6E000E6121206EFBECE5F00001646FAA
:102BF0006451256E266A050E0001656F0F0E646F25
:102C0000F10EE82EFED7642FFCD7652FFAD725509A
:102C1000266E256A000E2516FF0E26162550271053
:102C20000001646F26502810656F62C0D9FF63C031
:102C3000DAFF64C0DEFF65C0DDFF020E60251F6E97
:102C4000000E6121206EFBECE5F00001646F645121
:102C5000276E286A050E0001656F0F0E646FF10E76
:102C6000E82EFED7642FFCD7652FFAD7FF0E271664
:102C7000000E2816030E000160251F6E000E612154
:102C8000206EFBECE5F00001646F6451256E266A4E
:102C9000050E0001656F0F0E646FF10EE82EFED772
:102CA000642FFCD7652FFAD72550266E256A000EB3
:102CB0002516FF0E2616255027100001646F26509A
:102CC0002810656F20EE02F06251D9266351DA2296
:102CD00064C0DEFF65C0DDFF040E60251F6E000EC0
:102CE0006121206EFBECE5F00001646F6451276EFA
:102CF000286A050E0001656F0F0E646FF10EE82E55
:102D0000FED7642FFCD7652FFAD7FF0E2716000ECB
:102D10002816050E000160251F6E000E6121206E31
:102D2000FBECE5F00001646F6451256E266A050E28
:102D30000001656F0F0E646FF10EE82EFED7642F51
:102D4000FCD7652FFAD72550266E256A000E25166A
:102D5000FF0E2616255027100001646F26502810FC
:102D6000656F20EE04F06251D9266351DA2264C007
:102D7000DEFF65C0DDFF050E0001656F0F0E646F9D
:102D8000F10EE82EFED7642FFCD7652FFAD7060E7A
:102D9000000160251F6E000E6121206EFBECE5F046
:102DA0000001646F6451276E286A050E0001656F8B
:102DB0000F0E646FF10EE82EFED7642FFCD7652F3F
:102DC000FAD7FF0E2716000E2816070E0001602501
:102DD0001F6E000E6121206EFBECE5F00001646FB8
:102DE0006451256E266A2550266E256A000E25162A
:102DF000FF0E261625502710646F26502810656F89
:102E000020EE06F06251D9266351DA2264C0DEFF5B
:102E100065C0DDFF050E0001656F0F0E646FF10EDA
:102E2000E82EFED7642FFCD7652FFAD7080E0001D5
:102E300060251F6E000E6121206EFBECE5F00001A5
:102E4000646F6451276E286A050E0001656F0F0ECE
:102E5000646FF10EE82EFED7642FFCD7652FFAD7EA
:102E6000FF0E2716000E2816090E000160251F6EA2
:102E7000000E6121206EFBECE5F00001646F6451EF
:102E8000256E266A2550266E256A000E2516FF0E31
:102E9000261625502710646F26502810656F20EEE7
:102EA00008F06251D9266351DA2264C0DEFF65C0A2
:102EB000DDFF050E0001656F0F0E646FF10EE82E49
:102EC000FED7642FFCD7652FFAD70A0E00016025C4
:102ED0001F6E000E6121206EFBECE5F00001646FB7
:102EE0006451276E286A050E0001656F0F0E646F2E
:102EF000F10EE82EFED7642FFCD7652FFAD7FF0E10
:102F00002716000E28160B0E000160251F6E000EFE
:102F10006121206EFBECE5F00001646F6451256EC9
:102F2000266A2550266E256A000E2516FF0E2616E7
:102F300025502710646F26502810656F20EE0AF088
:102F40006251D9266351DA2264C0DEFF65C0DDFF1D
:102F5000050E0001656F0F0E646FF10EE82EFED7AF
:102F6000642FFCD7652FFAD70C0E000160251F6E69
:102F7000000E6121206EFBECE5F00001646F6451EE
:102F8000276E286A050E0001656F0F0E646FF10E43
:102F9000E82EFED7642FFCD7652FFAD7FF0E271631
:102FA000000E28160D0E000160251F6E000E612117
:102FB000206EFBECE5F00001646F6451256E266A1B
:102FC0002550266E256A000E2516FF0E2616255062
:102FD0002710646F26502810656F20EE0CF06251A8
:102FE000D9266351DA2264C0DEFF65C0DDFF050E1D
:102FF0000001656F0F0E646FF10EE82EFED7642F8F
:10300000FCD7652FFAD70E0E000160251F6E000E4B
:103010006121206EFBECE5F00001646F6451276EC6
:10302000286A050E0001656F0F0E646FF10EE82E21
:10303000FED7642FFCD7652FFAD7FF0E2716000E98
:1030400028160F0E000160251F6E000E6121206EF4
:10305000FBECE5F00001646F6451256E266A255093
:10306000266E256A000E2516FF0E261625502710FF
:10307000646F26502810656F20EE0EF06251D9263D
:103080006351DA2264C0DEFF65C0DDFF050E00017A
:10309000656F0F0E646FF10EE82EFED7642FFCD71C
:1030A000652FFAD7100E000160251F6E000E6121FA
:1030B000206EFBECE5F00001646F6451276E286A16
:1030C000050E0001656F0F0E646FF10EE82EFED73E
:1030D000642FFCD7652FFAD7FF0E2716000E28168F
:1030E000110E000160251F6E000E6121206EFBECA9
:1030F000E5F00001646F6451256E266A2550266E46
:10310000256A000E2516FF0E261625502710646F1F
:1031100026502810656F20EE10F06251D9266351B9
:10312000DA2264C0DEFF65C0DDFF050E0001656FB9
:103130000F0E646FF10EE82EFED7642FFCD7652FBB
:10314000FAD7120E000160251F6E000E6121206E5D
:10315000FBECE5F00001646F6451276E286A050EF0
:103160000001656F0F0E646FF10EE82EFED7642F1D
:10317000FCD7652FFAD7FF0E2716000E2816130E60
:10318000000160251F6E000E6121206EFBECE5F052
:103190000001646F6451256E266A2550266E256AEB
:1031A000000E2516FF0E261625502710646F265098
:1031B0002810656F20EE12F06251D9266351DA2291
:1031C00064C0DEFF65C0DDFF050E0001656F0F0EF8
:1031D000646FF10EE82EFED7642FFCD7652FFAD767
:1031E000140E000160251F6E000E6121206EFBECA5
:1031F000E5F00001646F6451276E286A050E000136
:10320000656F0F0E646FF10EE82EFED7642FFCD7AA
:10321000652FFAD7FF0E2716000E2816150E00018F
:1032200060251F6E000E6121206EFBECE5F00001B1
:10323000646F6451256E266A2550266E256A000E3D
:103240002516FF0E261625502710646F26502810CD
:10325000656F20EE14F06251D9266351DA2264C002
:10326000DEFF65C0DDFF050E0001656F0F0E646FA8
:10327000F10EE82EFED7642FFCD7652FFAD7160E75
:10328000000160251F6E000E6121206EFBECE5F051
:103290000001646F6451276E286A050E0001656F96
:1032A0000F0E646FF10EE82EFED7642FFCD7652F4A
:1032B000FAD7FF0E2716000E2816170E00016025FC
:1032C0001F6E000E6121206EFBECE5F00001646FC3
:1032D0006451256E266A2550266E256A000E251635
:1032E000FF0E261625502710646F26502810656F94
:1032F00020EE16F06251D9266351DA2264C0DEFF57
:1033000065C0DDFF050E0001656F0F0E646FF10EE5
:10331000E82EFED7642FFCD7652FFAD7180E0001D0
:1033200060251F6E000E6121206EFBECE5F00001B0
:10333000646F6451276E286A050E0001656F0F0ED9
:10334000646FF10EE82EFED7642FFCD7652FFAD7F5
:10335000FF0E2716000E2816190E000160251F6E9D
:10336000000E6121206EFBECE5F00001646F6451FA
:10337000256E266A2550266E256A000E2516FF0E3C
:10338000261625502710646F26502810656F20EEF2
:1033900018F06251D9266351DA2264C0DEFF65C09D
:1033A000DDFF050E0001656F0F0E646FF10EE82E54
:1033B000FED7642FFCD7652FFAD7000120EE1AF054
:1033C0006251D9266351DA221A0E60251F6E000E53
:1033D0006121206EFBECE5F0DF6E050E0001656FEC
:1033E0000F0E646FF10EE82EFED7642FFCD7652F09
:1033F000FAD7000120EE1BF06251D9266351DA2280
:103400001B0E60251F6E000E6121206EFBECE5F0A7
:10341000DF6E050E0001656F0F0E646FF10EE82E72
:10342000FED7642FFCD7652FFAD7000120EE1CF0E1
:103430006251D9266351DA221C0E60251F6E000EE0
:103440006121206EFBECE5F0DF6E050E0001656F7B
:103450000F0E646FF10EE82EFED7642FFCD7652F98
:10346000FAD7000120EE1DF06251D9266351DA220D
:103470001D0E60251F6E000E6121206EFBECE5F035
:10348000DF6E050E0001656F0F0E646FF10EE82E02
:10349000FED7642FFCD7652FFAD7000120EE1EF06F
:1034A0006251D9266351DA221E0E60251F6E000E6E
:1034B0006121206EFBECE5F0DF6E050E0001656F0B
:1034C0000F0E646FF10EE82EFED7642FFCD7652F28
:1034D000FAD7000120EE1FF06251D9266351DA229B
:1034E0001F0E60251F6E000E6121206EFBECE5F0C3
:1034F000DF6E050E0001656F0F0E646FF10EE82E92
:10350000FED7642FFCD7652FFAD7000120EE20F0FC
:103510006251D9266351DA22200E60251F6E000EFB
:103520006121206EFBECE5F0DF6E050E0001656F9A
:103530000F0E646FF10EE82EFED7642FFCD7652FB7
:10354000FAD7000120EE21F06251D9266351DA2228
:10355000210E60251F6E000E6121206EFBECE5F050
:10356000DF6E050E0001656F0F0E646FF10EE82E21
:10357000FED7642FFCD7652FFAD7000120EE22F08A
:103580006251D9266351DA22220E60251F6E000E89
:103590006121206EFBECE5F0DF6E050E0001656F2A
:1035A0000F0E646FF10EE82EFED7642FFCD7652F47
:1035B000FAD7000120EE23F06251D9266351DA22B6
:1035C000230E60251F6E000E6121206EFBECE5F0DE
:1035D000DF6E050E0001656F0F0E646FF10EE82EB1
:1035E000FED7642FFCD7652FFAD7000120EE24F018
:1035F0006251D9266351DA22240E60251F6E000E17
:103600006121206EFBECE5F0DF6E050E0001656FB9
:103610000F0E646FF10EE82EFED7642FFCD7652FD6
:10362000FAD7000120EE25F06251D9266351DA2243
:10363000250E60251F6E000E6121206EFBECE5F06B
:10364000DF6E050E0001656F0F0E646FF10EE82E40
:10365000FED7642FFCD7652FFAD7000120EE26F0A5
:103660006251D9266351DA22260E60251F6E000EA4
:103670006121206EFBECE5F0DF6E050E0001656F49
:103680000F0E646FF10EE82EFED7642FFCD7652F66
:10369000FAD7000120EE27F06251D9266351DA22D1
:1036A000270E60251F6E000E6121206EFBECE5F0F9
:1036B000DF6E050E0001656F0F0E646FF10EE82ED0
:1036C000FED7642FFCD7652FFAD7000120EE28F033
:1036D0006251D9266351DA22280E60251F6E000E32
:1036E0006121206EFBECE5F0DF6E050E0001656FD9
:1036F0000F0E646FF10EE82EFED7642FFCD7652FF6
:10370000FAD7000120EE29F06251D9266351DA225E
:10371000290E60251F6E000E6121206EFBECE5F086
:103720000009D8A496EF9BF099EF9BF0010E9AEF59
:103730009BF0000EDF6E050E0001656F0F0E646FCB
:10374000F10EE82EFED7642FFCD7652FFAD70001C3
:1037500020EE2AF06251D9266351DA222A0E602522
:103760001F6E000E6121206EFBECE5F00009D8A46D
:10377000BCEF9BF0BFEF9BF0010EC0EF9BF0000E83
:10378000DF6E050E0001656F0F0E646FF10EE82EFF
:10379000FED7642FFCD7652FFAD7000120EE2BF05F
:1037A0006251D9266351DA222B0E60251F6E000E5E
:1037B0006121206EFBECE5F00009D8A4E2EF9BF05C
:1037C000E5EF9BF0010EE6EF9BF0000EDF6E050EBD
:1037D0000001656F0F0E646FF10EE82EFED7642FA7
:1037E000FCD7652FFAD7000120EE2CF06251D926C4
:1037F0006351DA222C0E60251F6E000E6121206EAF
:10380000FBECE5F00009D8A408EF9CF00BEF9CF06E
:10381000010E0CEF9CF0000EDF6E050E0001656FCF
:103820000F0E646FF10EE82EFED7642FFCD7652FC4
:10383000FAD71200000E0301F56F000EF46F090EA7
:103840000101FD6F1E0EFC6FE40EE82EFED7FC2F6B
:10385000FCD7FD2FFAD700F0A4ECDCF0090E010133
:10386000FD6F1E0EFC6FE40EE82EFED7FC2FFCD77A
:10387000FD2FFAD700F0010E3BECB7F0000E03016C
:10388000F66F84EFA0F0F6512D0DFE0EF324D96EE5
:10389000040EF420DA6EDE04D8A451EF9CF053EF4E
:1038A0009CF0BEEF9FF0090E0101FD6F1E0EFC6F34
:1038B000E40EE82EFED7FC2FFCD7FD2FFAD700F040
:1038C00012ECDFF0520E0101FD6F2B0EFC6F000EAB
:1038D000E82EFED7FC2FFCD7FD2FFAD700F003010E
:1038E000F651D7ECCDF0000E0001CE6F0301F6517A
:1038F0002D0DFE0EF324D96E040EF420DA6E000EA8
:10390000DF6EF6512D0DFC0EF324D96E040EF4205B
:10391000DA6EF6512D0DFD0EF324E16E040EF42047
:10392000E26EDFCFE7FF090E0101FD6F1E0EFC6F97
:10393000E40EE82EFED7FC2FFCD7FD2FFAD700F0BF
:103940000301F651020DDE0EF324F66EEE0EF420A6
:10395000F76EF86A000EF8220900F5CF60F00A0051
:10396000F5CF61F0F6512D0DD50EF3240001626FF5
:10397000040EF420636F43ECE3F0090E0101FD6FC8
:103980001E0EFC6FE40EE82EFED7FC2FFCD7FD2F99
:10399000FAD700F00301F651020DDE0EF324F66EA5
:1039A000EE0EF420F76EF86A000EF8220900F5CF4B
:1039B00060F00A00F5CF61F0F6512D0DD50EF3241D
:1039C0000001626F040EF420636F6DECE3F0090EEA
:1039D0000101FD6F1E0EFC6FE40EE82EFED7FC2FDA
:1039E000FCD7FD2FFAD700F0B1ECD7F060C0F4F3AC
:1039F00061C0F5F30301F6512D0D000EF324D96ECD
:103A0000050EF420DA6EDF50D8B409EF9DF00BEF0D
:103A10009DF0B0EF9EF0F6512D0DFB0EF324D96E04
:103A2000040EF420DA6E020EDE18D8A41AEF9DF010
:103A30001CEF9DF011EF9EF090948E968E988E9ACA
:103A40008E9CF6512D0DFB0EF324D96E040EF4203E
:103A5000DA6E000EDF6EF6512D0D010EF324D96ED5
:103A6000050EF420DA6E010EDF6EB1ECD7F060C007
:103A7000CDF161C0CEF1090E0101FD6F1E0EFC6F8C
:103A8000E40EE82EFED7FC2FFCD7FD2FFAD700F06E
:103A9000FAECDCF0090E0101FD6F1E0EFC6FE40E66
:103AA000E82EFED7FC2FFCD7FD2FFAD700F003013C
:103AB000F651020DDE0EF324F66EEE0EF420F76ED4
:103AC000F86A000EF8220900F5CF60F00A00F5CF81
:103AD00061F0F6512D0DD50EF3240001626F040E36
:103AE000F420636FEBECD8F0090E0101FD6F1E0EA0
:103AF000FC6FE40EE82EFED7FC2FFCD7FD2FFAD783
:103B000000F00301F6512D0DF60EF324D96E040ECC
:103B1000F420DA6E2BC0DFFFF6512D0DF70EF324E3
:103B2000D96E040EF420DA6E34C0DFFFF6512D0D8D
:103B3000F80EF324D96E040EF420DA6E35C0DFFFE0
:103B4000090E0101FD6F1E0EFC6FE40EE82EFED77C
:103B5000FC2FFCD7FD2FFAD700F00301F651020D20
:103B6000DE0EF324F66EEE0EF420F76EF86A000E09
:103B7000F8220900F5CF60F00A00F5CF61F0F651A8
:103B80002D0DD50EF3240001626F040EF420636F37
:103B9000B3ECD9F0090E0101FD6F1E0EFC6FE40EAF
:103BA000E82EFED7FC2FFCD7FD2FFAD700F0090E28
:103BB0000301F661DEEF9DF0E0EF9DF0EAEF9DF08E
:103BC000300E0001EA6F0301F651310F0001EB6F77
:103BD00002EF9EF0080EF665F0EF9DF0F2EF9DF01B
:103BE00002EF9EF00C0EF661F8EF9DF0FAEF9DF0FB
:103BF00002EF9EF0310E0001EA6F0301F651270F2C
:103C00000001EB6FB90E0001796FF00E7A6FDE0ED6
:103C10007B6F010E7C6F020E7D6F00EC80F099EFE0
:103C20009FF0F6512D0DFB0EF324D96E040EF420F7
:103C3000DA6EDE04D8A41FEF9EF021EF9EF099EF1C
:103C40009FF0F6512D0DF60EF324D96E040EF420DC
:103C5000DA6E2BC0DFFFF6512D0DF70EF324D96E6F
:103C6000040EF420DA6E34C0DFFFF6512D0DF80E8D
:103C7000F324D96E040EF420DA6E35C0DFFF090E8E
:103C80000101FD6F1E0EFC6FE40EE82EFED7FC2F27
:103C9000FCD7FD2FFAD700F00301F651020DDE0E1E
:103CA000F324F66EEE0EF420F76EF86A000EF8229A
:103CB0000900F5CF60F00A00F5CF61F0F6512D0D47
:103CC000D50EF3240001626F040EF420636FB3EC91
:103CD000D9F0090E0101FD6F1E0EFC6FE40EE82EF7
:103CE000FED7FC2FFCD7FD2FFAD700F0090E0301F9
:103CF000F6617DEF9EF07FEF9EF089EF9EF0300E33
:103D00000001EA6F0301F651310F0001EB6FA1EFE3
:103D10009EF0080EF6658FEF9EF091EF9EF0A1EFFA
:103D20009EF00C0EF66197EF9EF099EF9EF0A1EFDA
:103D30009EF0310E0001EA6F0301F651270F0001DA
:103D4000EB6F3E0E0001796FF10E7A6FDE0E7B6F26
:103D5000010E7C6F020E7D6F00EC80F099EF9FF0FA
:103D6000F6512D0DD90EF324D96E040EF420DA6E1F
:103D7000DECFFCF1DDCFFDF1D8900101FD31FF6F09
:103D8000FC31FE6F0301F4510101FE5D0301F551A9
:103D90000101FF59D8B0CFEF9EF0D1EF9EF061EF57
:103DA0009FF00301F6512D0DF60EF324D96E040E8B
:103DB000F420DA6E2BC0DFFFF6512D0DF70EF32441
:103DC000D96E040EF420DA6E34C0DFFFF6512D0DEB
:103DD000F80EF324D96E040EF420DA6E35C0DFFF3E
:103DE000090E0101FD6F1E0EFC6FE40EE82EFED7DA
:103DF000FC2FFCD7FD2FFAD700F00301F651020D7E
:103E0000DE0EF324F66EEE0EF420F76EF86A000E66
:103E1000F8220900F5CF60F00A00F5CF61F0F65105
:103E20002D0DD50EF3240001626F040EF420636F94
:103E3000B3ECD9F0090E0101FD6F1E0EFC6FE40E0C
:103E4000E82EFED7FC2FFCD7FD2FFAD700F0090E85
:103E50000301F6612EEF9FF030EF9FF03AEF9FF0F5
:103E6000300E0001EA6F0301F651310F0001EB6FD4
:103E700052EF9FF0080EF66540EF9FF042EF9FF083
:103E800052EF9FF00C0EF66148EF9FF04AEF9FF063
:103E900052EF9FF0310E0001EA6F0301F651270F38
:103EA0000001EB6F220E0001796FF20E7A6FDE0EC9
:103EB0007B6F010E7C6F020E7D6F00EC80F099EF3E
:103EC0009FF0090E0301F66168EF9FF06AEF9FF023
:103ED00074EF9FF0300E0001EA6F0301F651310FCD
:103EE0000001EB6F8CEF9FF0080EF6657AEF9FF004
:103EF0007CEF9FF08CEF9FF00C0EF66182EF9FF04D
:103F000084EF9FF08CEF9FF0310E0001EA6F030108
:103F1000F651270F0001EB6FB60E0001796FF10E1D
:103F20007A6FDE0E7B6F010E7C6F020E7D6F00ECF0
:103F300080F08AA09EEF9FF0A0EF9FF0AFEF9FF080
:103F4000050E0001796FF90E7A6FDE0E7B6F010EA0
:103F50007C6F000E7D6F00EC80F082EFA0F01E0EF3
:103F60000001796FF90E7A6FDE0E7B6F010E7C6FA8
:103F7000000E7D6F00EC80F082EFA0F0F6512D0D69
:103F8000F60EF324D96E040EF420DA6E3650DE18E5
:103F9000D8A4CDEF9FF0CFEF9FF082EFA0F0F651C5
:103FA0002D0DF70EF324D96E040EF420DA6E37507F
:103FB000DE18D8A4DEEF9FF0E0EF9FF082EFA0F0D4
:103FC000F6512D0DF80EF324D96E040EF420DA6E9E
:103FD0003850DE18D8A4EFEF9FF0F1EF9FF082EF9A
:103FE000A0F0F6512D0DF60EF324D96E040EF42038
:103FF000DA6E2BC0DFFFF6512D0DF70EF324D96ECC
:10400000040EF420DA6E34C0DFFFF6512D0DF80EE9
:10401000F324D96E040EF420DA6E35C0DFFFF651BA
:104020002D0DFC0EF324D96E040EF420DA6EF65139
:104030002D0DFD0EF324E16E040EF420E26EDFCFB1
:10404000E7FF090E0101FD6F1E0EFC6FE40EE82E66
:10405000FED7FC2FFCD7FD2FFAD700F00301F65155
:10406000020DDE0EF324F66EEE0EF420F76EF86A03
