:040000000DEF03F00D
:0600080043824CEFD3F02F
:100018004380D8CF38F0E8CF39F0E0CF3AF0E9CFD5
:100028003BF0EACF3CF0D9CF3DF0DACF3EF0F6CF47
:100038003FF0F7CF40F0F8CF41F0F5CF42F00E0196
:1000480033AB29EF00F02BEF00F09CEF02F0909615
:10005800339BE30ED46EB00ED36E192A07500810E6
:10006800D8B439EF00F03BEF00F08CEF00F090A02F
:1000780040EF00F042EF00F08CEF00F00706D8A048
:1000880008060101CC2B1350D8B44DEF00F04FEF08
:1000980000F057EF00F0030E136055EF00F057EF34
:1000A80000F058EF00F0132A190E2A6E020E2B6E7C
:1000B800BB0E2C6EF80E2D6E000E2F6E050E2E6EDA
:1000C800BCECE9F02A502B10D8A46DEF00F06FEFCC
:1000D80000F08CEF00F01E0E2A6E020E2B6EC70E7B
:1000E8002C6EF80E2D6E000E2F6E050E2E6EBCECCB
:1000F800E9F02A502B10D8A484EF00F086EF00F026
:100108008CEF00F0A4ECFBF00101CD2B8CEF00F09C
:1001180090A491EF00F093EF00F0DBEF01F08EA6D2
:1001280098EF00F09AEF00F0B5EF00F00101B3513D
:10013800AB1907E1B451AC19D8A4A5EF00F0A7EFAB
:1001480000F0B1EF00F08E96000EAC6F000EAB6FB2
:100158009B4B9C2BD12BE5EF00F0AB4BAC2BE5EF89
:1001680000F08EB6BAEF00F0BCEF00F0E5EF00F05B
:100178000101A3519B1907E1A4519C19D8A4C7EF09
:1001880000F0C9EF00F0E3EF00F01F50D15DD8B0E8
:10019800D0EF00F0D2EF00F0DBEF00F08E86AB4B33
:1001A800AC2B000E9C6F000E9B6FE5EF00F0010E6C
:1001B800A3259B6F000EA4219C6FE5EF00F09B4BDD
:1001C8009C2B8EA8EAEF00F0ECEF00F007EF01F0AF
:1001D8000101B151A91907E1B251AA19D8A4F7EF41
:1001E80000F0F9EF00F003EF01F08E98000EAA6F0F
:1001F800000EA96F994B9A2BD02B37EF01F0A94B22
:10020800AA2B37EF01F08EB80CEF01F00EEF01F0DA
:1002180037EF01F00101A151991907E1A2519A198B
:10022800D8A419EF01F01BEF01F035EF01F0D4511C
:10023800D05DD8B022EF01F024EF01F02DEF01F0EE
:100248008E88A94BAA2B000E9A6F000E996F37EF74
:1002580001F0010EA125996F000EA2219A6F37EFC8
:1002680001F0994B9A2B8EAA3CEF01F03EEF01F07A
:1002780059EF01F00101AF51A71907E1B051A819D1
:10028800D8A449EF01F04BEF01F055EF01F08E9A39
:10029800000EA86F000EA76F974B982BCF2B89EFF6
:1002A80001F0A74BA82B89EF01F08EBA5EEF01F0A1
:1002B80060EF01F089EF01F001019F51971907E103
:1002C800A0519819D8A46BEF01F06DEF01F087EFFA
:1002D80001F0D351CF5DD8B074EF01F076EF01F0A3
:1002E8007FEF01F08E8AA74BA82B000E986F000EA7
:1002F800976F89EF01F0010E9F25976F000EA021DF
:10030800986F89EF01F0974B982B8EAC8EEF01F028
:1003180090EF01F0ABEF01F00101AD51A51907E134
:10032800AE51A619D8A49BEF01F09DEF01F0A7EFFD
:1003380001F08E9C000EA66F000EA56F954B962BB4
:10034800CE2BDBEF01F0A54BA62BDBEF01F08EBC2B
:10035800B0EF01F0B2EF01F0DBEF01F001019D51C8
:10036800951907E19E519619D8A4BDEF01F0BFEF8A
:1003780001F0D9EF01F0D251CE5DD8B0C6EF01F04F
:10038800C8EF01F0D1EF01F08E8CA54BA62B000E23
:10039800966F000E956FDBEF01F0010E9D25956FAE
:1003A800000E9E21966FDBEF01F0954B962B630EA6
:1003B8001818D8A4E2EF01F0E4EF01F0E8EF01F03B
:1003C800000E196E9CEF02F01804D8A4EEEF01F0AD
:1003D800F0EF01F000EF02F017501918D8A4F7EF6A
:1003E80001F0F9EF01F000EF02F0000E196E8A86B5
:1003F800020E186E9CEF02F0020E1818D8A407EF30
:1004080002F009EF02F019EF02F014501918D8A4FD
:1004180010EF02F012EF02F019EF02F0000E196E61
:100428008A96030E186E9CEF02F0030E1818D8A4D3
:1004380020EF02F022EF02F032EF02F01650191806
:10044800D8A429EF02F02BEF02F032EF02F0000EF1
:10045800196E8A88040E186E9CEF02F0040E1818A4
:10046800D8A439EF02F03BEF02F04BEF02F0145042
:100478001918D8A442EF02F044EF02F04BEF02F053
:10048800000E196E8A98050E186E9CEF02F0050E84
:100498001818D8A452EF02F054EF02F064EF02F0FB
:1004A80016501918D8A45BEF02F05DEF02F064EF64
:1004B80002F0000E196E8A8A060E186E9CEF02F082
:1004C800060E1818D8A46BEF02F06DEF02F07DEF5E
:1004D80002F014501918D8A474EF02F076EF02F065
:1004E8007DEF02F0000E196E8A9A070E186E9CEFC7
:1004F80002F0070E1818D8A484EF02F086EF02F075
:100508009CEF02F01950366E376A0001CB5136184D
:1005180007E1CC513718D8A494EF02F096EF02F017
:100528009CEF02F0000E196E010E186E9CEF02F09F
:100538000E0138A1A2EF02F0A4EF02F0A9EF02F039
:1005480090960101C82B0E01389138A5AEEF02F044
:10055800B0EF02F0F5EF02F090963895F00EC86E05
:10056800DC0EC76E0101C72BC751CB5DD8B0BFEFFA
:1005780002F0C1EF02F0E8EF02F01150D8A4C7EF83
:1005880002F0C9EF02F0E8EF02F0010E116E000E62
:10059800C76FC990BB51D8B4D4EF02F0D6EF02F0C0
:1005A800DBEF02F0010E0001CD6FF5EF02F0C5514F
:1005B800D8B4E1EF02F0E3EF02F0F5EF02F0010E3C
:1005C8000001D46FF5EF02F01150D8B4EEEF02F04D
:1005D800F0EF02F0F5EF02F0000EC76FC990F5EFEB
:1005E80002F042C0F5FF41C0F8FF40C0F7FF3FC02E
:1005F800F6FF3EC0DAFF3DC0D9FF3CC0EAFF3BC072
:10060800E9FF3AC0E0FF39C0E8FF38C0D8FF43909F
:06061800100057EFF1F0A5
:10EB5C000053797374656D2041757468656E7469C2
:10EB6C0063617465642077697468205068617365AB
:10EB7C00206661696C7572652C2073757370656E97
:10EB8C0064696E6720616C6C20616374696F6E736D
:10EB9C000053797374656D207265736574206F63AF
:10EBAC006375727265642C2049727269676174694D
:10EBBC006F6E2073657474696E672064656C657420
:10EBCC006564000000300060009000C000F0002080
:10EBDC000150018001B001E001100240027002A05E
:10EBEC0002D00250686173652042206661696C75C1
:10EBFC007265206465746563746564005068617344
:10EC0C00652059206661696C757265206465746550
:10EC1C0063746564004C6F67696E20636F64652074
:10EC2C006E6F74206368616E676564002B434D548E
:10EC3C00493A2022534D222C780049444C45006F10
:10EC4C006B004472792052756E2064657465637430
:10EC5C0065642C204D6F746F722C20497272696739
:10EC6C006174696F6E20616E6420466572746967A9
:10EC7C006174696F6E207377697463686564206F63
:10EC8C0066662E0D0A49727269676174696F6E202F
:10EC9C007363686564756C656420746F206E657849
:10ECAC007420646179207769746820666572746970
:10ECBC00676174696F6E20666F72206669656C643B
:10ECCC00206E6F2E0000004472792052756E206405
:10ECDC00657465637465642C204D6F746F7220616C
:10ECEC006E642049727269676174696F6E20737704
:10ECFC00697463686564206F66662E0D0A497272CA
:10ED0C0069676174696F6E207363686564756C659F
:10ED1C006420746F206E6578742064617920776943
:10ED2C007468206665727469676174696F6E2066B9
:10ED3C006F72206669656C64206E6F2E0000004453
:10ED4C0072792052756E2064657465637465642CE9
:10ED5C00204D6F746F7220616E6420497272696706
:10ED6C006174696F6E207377697463686564206F72
:10ED7C0066662E0D0A49727269676174696F6E203E
:10ED8C007363686564756C656420746F206E657858
:10ED9C007420647565206461746520666F722066EA
:10EDAC0069656C64206E6F2E0000004472792052ED
:10EDBC00756E2064657465637465642C204D6F7486
:10EDCC006F7220616E642049727269676174696F39
:10EDDC006E207377697463686564206F66662E0DA8
:10EDEC000A49727269676174696F6E207363686532
:10EDFC0064756C656420746F206E65787420646132
:10EE0C007920666F72206669656C64206E6F2E00C7
:10EE1C00000053797374656D20726573746172743C
:10EE2C00656420666F7220416C6C2050686173655C
:10EE3C0020446574656374696F6E2077697468200B
:10EE4C00696E636F6D706C65746520497272696769
:10EE5C006174696F6E20666F72206669656C6420E0
:10EE6C006E6F2E0053797374656D207265737461C7
:10EE7C007274656420666F7220506F7765722049DA
:10EE8C006E74657272757074207769746820696E1F
:10EE9C00636F6D706C65746520497272696761741B
:10EEAC00696F6E20666F72206669656C64206E6F88
:10EEBC002E0053797374656D20726573746172746E
:10EECC00656420696E20446961676E6F7374696351
:10EEDC00204D6F6465207769746820696E636F6D6F
:10EEEC00706C6574652049727269676174696F6EC4
:10EEFC0020666F72206669656C64206E6F2E0053FD
:10EF0C00797374656D2072657374617274656420B5
:10EF1C00666F72204C6F7720506F77657220496E48
:10EF2C00207769746820696E636F6D706C657465A9
:10EF3C002049727269676174696F6E20666F722006
:10EF4C006669656C64206E6F2E0053797374656D01
:10EF5C002072657374617274656420666F722053DD
:10EF6C007461636B204572726F72207769746820CC
:10EF7C00696E636F6D706C65746520497272696738
:10EF8C006174696F6E20666F72206669656C6420AF
:10EF9C006E6F2E0053797374656D20726573746196
:10EFAC007274656420666F72205744542054696DE6
:10EFBC00656F7574207769746820696E636F6D7006
:10EFCC006C6574652049727269676174696F6E2033
:10EFDC00666F72206669656C64206E6F2E004665E4
:10EFEC00727469676174696F6E2073746F70706589
:10EFFC006420776974682066657274696C697A65D7
:10F00C0072206C6576656C2073656E736F7220660A
:10F01C0061696C75726520666F72206669656C64D7
:10F02C00206E6F2E004C6F772050686173652063E3
:10F03C00757272656E742064657465637465642C96
:10F04C0020616374696F6E732073757370656E6481
:10F05C0065642C20706C65617365207265737461D6
:10F06C0072742073797374656D004972726967618B
:10F07C0074696F6E206973206E6F742041637469BC
:10F08C0076652E204665727469676174696F6E20AF
:10F09C006E6F7420656E61626C656420666F7220A1
:10F0AC006669656C64206E6F2E004D6F69737475A4
:10F0BC0072652073656E736F722069732066616967
:10F0CC006C65642C2049727269676174696F6E207B
:10F0DC007374617274656420666F72206669656C06
:10F0EC0064206E6F2E0053797374656D2072657396
:10F0FC0074617274656420776974682070686173D8
:10F10C0065206661696C7572652C2073757370650A
:10F11C006E64696E6720616C6C20616374696F6EDC
:10F12C0073004665727469676174696F6E207374DD
:10F13C006F707065642077697468206C6F772066D7
:10F14C00657274696C697A6572206C6576656C2081
:10F15C00666F72206669656C64206E6F2E00576551
:10F16C0074206669656C6420646574656374656499
:10F17C002E0D0A49727269676174696F6E206E6F29
:10F18C0074207374617274656420666F7220666992
:10F19C00656C64206E6F2E00000053797374656D7E
:10F1AC00207265736574206F636375727265642C6D
:10F1BC00206C6F67696E20636F6465207265736580
:10F1CC007420746F20466163746F72792073657458
:10F1DC0074696E670049727269676174696F6E2039
:10F1EC00636F6D706C6574656420666F72206475F6
:10F1FC0065206669656C64730D0A4D6F746F7220BF
:10F20C007377697463686564206F66660000004EEE
:10F21C00657720525443206261747465727920665C
:10F22C006F756E642C20706C656173652073796EDC
:10F23C00632073797374656D2074696D65206D61DD
:10F24C006E75616C6C79004E657720525443206268
:10F25C0061747465727920666F756E642C20737995
:10F26C007374656D2074696D6520697320736574A2
:10F27C0020746F206C6F63616C2074696D6500493C
:10F28C006E636F72726563742076616C7565732E34
:10F29C00204665727469676174696F6E206E6F7455
:10F2AC0020656E61626C656420666F7220666965AC
:10F2BC006C64206E6F2E0049727269676174696F9D
:10F2CC006E2073746F7070656420776974686F75E5
:10F2DC007420726573706F6E73652066726F6D202B
:10F2EC006669656C64206E6F2E0049727269676185
:10F2FC0074696F6E20736B697070656420776974C4
:10F30C0068206E6F20726573706F6E736520667205
:10F31C006F6D206669656C64206E6F3A00596F756D
:10F32C0020617265206E6F206D6F72652041646D77
:10F33C00696E206E6F772E204E65772041646D6963
:10F34C006E2069732073657420746F0D0A000000C1
:10F35C00525443204261747465727920666F756EE5
:10F36C0064206C6F772C20706C65617365207265FE
:10F37C00706C6163652052544320626174746572D1
:10F38C00790049727269676174696F6E20697320C4
:10F39C006163746976652C204D6F746F72206C6F8D
:10F3AC006164206375742D6F6666206E6F742073B4
:10F3BC0065740049727269676174696F6E20636F5E
:10F3CC006E66696775726174696F6E2064697361CA
:10F3DC00626C656420666F72206669656C64206E71
:10F3EC006F2E005068617365206661696C7572657B
:10F3FC002064657465637465642C20737573706523
:10F40C006E64696E6720616C6C20616374696F6EE9
:10F41C0073004E6F4C6F616420616E642046756C96
:10F42C006C4C6F6164204D6F746F722074687265E0
:10F43C0073686F6C64732073657420746F203A204A
:10F44C00004D6F6973747572652073656E736F729E
:10F45C00206672657175656E63792076616C756571
:10F46C0020666F72206669656C64206E6F2E005387
:10F47C00797374656D2074696D652073796E63653D
:10F48C006420746F2063757272656E74206C6F6388
:10F49C00616C2074696D650053797374656D2072AD
:10F4AC00657374617274656420666F7220416C6C54
:10F4BC0020506861736520446574656374696F6E70
:10F4CC00004D6F6973747572652073656E736F721E
:10F4DC00206973206661696C656420666F722066B2
:10F4EC0069656C64206E6F2E004972726967617475
:10F4FC00696F6E206E6F7420636F6E6669677572CC
:10F50C00656420666F72206669656C64206E6F2E70
:10F51C000053797374656D207265737461727465D0
:10F52C006420666F7220506F77657220496E746527
:10F53C0072727570740053797374656D2072657393
:10F54C0074617274656420696E20446961676E6FC2
:10F55C0073746963206D6F646500497272696761C9
:10F56C0074696F6E206669656C64206D617070657E
:10F57C006420776974682076616C766573004972D3
:10F58C007269676174696F6E20636F6E6669677507
:10F59C0072656420666F72206669656C64206E6F9C
:10F5AC002E004D6F746F726C6F6164206375742DD7
:10F5BC006F66662073657420737563636573736619
:10F5CC00756C6C79004665727469676174696F6EED
:10F5DC002064697361626C656420666F7220666971
:10F5EC00656C64206E6F2E00466572746967617479
:10F5FC00696F6E2073746F7070656420666F722013
:10F60C006669656C64206E6F2E004665727469675E
:10F61C006174696F6E207374617274656420666FB7
:10F62C0072206669656C64206E6F2E00466572747C
:10F63C0069676174696F6E20656E61626C656420C8
:10F64C00666F72206669656C64206E6F2E0053794C
:10F65C007374656D20726573746172746564206671
:10F66C006F7220737461636B206572726F720053DA
:10F67C00797374656D20726573746172746564203E
:10F68C00666F72205744542074696D656F757400F1
:10F69C0049727269676174696F6E2073746F7070F0
:10F6AC00656420666F72206669656C64206E6F2ECF
:10F6BC000049727269676174696F6E20737461724C
:10F6CC0074656420666F72206669656C64206E6F69
:10F6DC002E0057617465722046696C74726174698E
:10F6EC006F6E206973206E6F7420656E61626C653D
:10F6FC0064004C6F67696E20636F6465206368619A
:10F70C006E676564207375636365737366756C6C83
:10F71C00790053797374656D2072657374617274BA
:10F72C00656420666F72204C6F7720506F7765721E
:10F73C000057617465722066696C74726174696FCC
:10F74C006E20646561637469766174656400496EEA
:10F75C00636F7272656374206C6F63616C20746983
:10F76C006D6520666F756E64005761746572204616
:10F77C00696C74726174696F6E2053657175656E16
:10F78C0063653A0057617465722066696C747261C6
:10F79C0074696F6E2061637469766174656400507E
:10F7AC00686173652052206661696C7572652064AE
:10F7BC00657465637465640057726F6E67206C6F57
:10F7CC0067696E20636F646520666F756E640041B7
:10F7DC00646D696E207365742073756363657373F0
:10F7EC0066756C6C790041757468656E74696361DB
:10F7FC0074696F6E206661696C656400416C6C2085
:10F80C005068617365206465746563746564005445
:10F81C00657374204461746120496E6A6563746514
:10F82C00640053797374656D20436F6E6E656374F9
:10F83C00656400466163746F7279204B6579203A78
:10F84C00200043757272656E742054696D653A20A0
:10F85C000049727269676174696F6E204E6F3A006D
:10F86C003132333435363738393132004745544626
:10F87C00524551004558545241435400444143545D
:10F88C004956450044495341424C450053454E535B
:10F89C004F52004D415354455200494E4A45435432
:10F8AC000041435449564500454E41424C450041A8
:10F8BC004C495645004552524F5200534C41564507
:10F8CC000047455443540046444154410046454585
:10F8DC00440054494D4500484F4C4400484F4F4B51
:10F8EC000041434B004F4646002B393100534354E3
:10F8FC00004D415000534554004F4E0043540041BD
:10F90C0055004665727469676174696F6E20656E27
:10F91C0061626C656420776974682064656C6179D8
:10F92C003A004665727469676174696F6E206E6F18
:10F93C007420636F6E666967757265640D0A002AC0
:10F94C002A2A466163746F72792052657365742A32
:10F95C002A2A2A0053797374656D20436F6D706C7D
:10F96C0065746520446174610043757272656E74D0
:10F97C0020496E2046756C6C204C6F6164004E659E
:10F98C0077204D6573736167652052656365697691
:10F99C00656400436F6E6669677572656420666F97
:10F9AC0072204669656C6400546F2044656C657404
:10F9BC00652049727269676174696F6E00496E20C7
:10F9CC004E6F204C6F616420436F6E646974696F75
:10F9DC006E0053797374656D20697320426F6F7478
:10F9EC00696E6720557000437572736F7220486F93
:10F9FC006D65202620426C696E6B00576974682017
:10FA0C0053656E736F72204661696C757265004345
:10FA1C006865636B696E672047534D205369676E49
:10FA2C00616C00546F20436865636B2047534D2015
:10FA3C005369676E616C0042686F6F6D69204A6133
:10FA4C006C73616E64686172616E00576972654CAB
:10FA5C006573732049727269676174696F6E0041D6
:10FA6C00542B434E4D493D312C312C302C302C3005
:10FA7C000D0A004C6F6164696E672053797374656D
:10FA8C006D20446174610045786974696E67204427
:10FA9C006961676E6F737469630043757272656E2A
:10FAAC007420496E204E6F204C6F61640049727255
:10FABC0069676174696F6E20536B6970706564005F
:10FACC0049727269676174696F6E2053746F7070DC
:10FADC0065640049727269676174696F6E20537452
:10FAEC0061727465640049727269676174696F6EE2
:10FAFC002052756E6E696E6700507265737320527A
:10FB0C006573657420427574746F6E00546F204376
:10FB1C00616C696272617465204D6F746F72004E16
:10FB2C006F20446961676E6F73746963204D656EF5
:10FB3C00750053797374656D2052756E6E696E67BE
:10FB4C0020496E0055736572205265676973747233
:10FB5C006174696F6E0043616C6962726174696E85
:10FB6C0067204D6F746F720046756C6C204C6F6122
:10FB7C00642043757272656E740023474554534577
:10FB8C004E534F523031534C4156450053657061C2
:10FB9C00726174696F6E2054696D653A20006C63F4
:10FBAC00644261636B6C69676874204F6E20006CF3
:10FBBC0063644261636B6C69676874204F666600AE
:10FBCC0057697468204E6F20526573706F6E736541
:10FBDC00004E6574776F726B20537472656E677428
:10FBEC006800546F2044656C657465205379737498
:10FBFC00656D0057616974696E6720466F72205598
:10FC0C0073657200466163746F7279205365747406
:10FC1C00696E6773006C63644261636B6C696768DF
:10FC2C0074204F6E004C6F726120636F6E74726F34
:10FC3C006C6C65720049727269676174696F6E20D1
:10FC4C004461746100466163746F72792050696E0F
:10FC5C00436F646500446961676E6F7374696320F8
:10FC6C004D6F646500416C6C20506F77657220504D
:10FC7C006861736500466F756E64204C6F77205019
:10FC8C00686173650041542B435343533D224753E2
:10FC9C004D220D0A00466F72204669656C64204E39
:10FCAC006F3A200046726F6D204669656C64204E79
:10FCBC006F3A0055736572204C6F67676564204915
:10FCCC004E00436F6E74726F6C2053797374656D54
:10FCDC000041757468656E7469636174696F6E0058
:10FCEC00546F2044656C65746520557365720041D2
:10FCFC00542B53434C415353303D310D0A00436F49
:10FD0C006E6E656374696E6720746F200053657442
:10FD1C0074696E672053797374656D002020202000
:10FD2C0020202020202020202000466F72204669B1
:10FD3C00656C64204E6F3A00466F756E64204C6F94
:10FD4C007720525443005068617365204661696C9A
:10FD5C00757265004669656C64204D617070696EE2
:10FD6C00670041542B434D47443D312C340D0A0060
:10FD7C00546F204C6F63616C2054696D6500537532
:10FD8C00636365737366756C6C7900446973706C2E
:10FD9C006179204F6E2000437572736F7220486F2B
:10FDAC006D6500446973706C6179204F666600461E
:10FDBC0061696C656420557365720041542B434630
:10FDCC00554E3D300D0A0041542B434D47463D31B5
:10FDDC000D0A0041542B4346554E3D310D0A00414E
:10FDEC00542B434C54533D310D0A00204974657219
:10FDFC006174696F6E3A0053656E64696E67205367
:10FE0C004D530047534D204E6574776F726B004312
:10FE1C007572736F72204F66660041542B43434CCE
:10FE2C004B3F0D0A00556479616D69204C4C5000B4
:10FE3C004C6F67696E20436F64650052657374691B
:10FE4C006E6720546F0041542B434C54533F0D0AA2
:10FE5C00000D0A44656C6179313A20000D0A4F4E51
:10FE6C0054696D653A200020447565446174653AA7
:10FE7C002000426C696E6B204F666600437572738E
:10FE8C006F72204F6E00436F6D706C65746564000B
:10FE9C0041542B434D47533D220056657279204700
:10FEAC006F6F6400457863656C6C656E7400426CB2
:10FEBC00696E6B204F6E005072696E742061740015
:10FECC0041542B434D47523D0053656C656374653B
:10FEDC00640044657465637465640044656C6574A2
:10FEEC00696E670041542B4353510D0A0044656CF5
:10FEFC006179323A200044656C6179333A200020F4
:10FF0C004F46467072643A004D6F64657261746559
:10FF1C00004572726F7220496E0056657279204CE2
:10FF2C006F77004368616E6765640053657474692C
:10FF3C006E67004472792052756E0042617474656C
:10FF4C00727900204F4E7072643A00546F205573D2
:10FF5C006572004E6F3A202564004661696C6564D9
:10FF6C0000415445300D0A00415426570D0A002813
:10FF7C004D696E2920003C2D2D2D2D00403A302C42
:10FF8C003000403A312C3100403A322C3200403AA9
:10FF9C00332C33002D2D2D2D3E0057726F6E6700C4
:10FFAC0020616E642000284D696E2900205765740D
:10FFBC003A00204472793A0054494D4500234F468B
:10FFCC0046002069732000506F6F7200313030256D
:10FFDC00002564256300234F4E004C4F57003937E2
:10FFEC00250039382500393925004E4F00312500C0
:03FFFC00240000DE
:020000040001F9
:10000000000E0101FA6F000EFB6F000EFF6F000E75
:10001000FE6F1E0ECB6F38ECFCF08A0E0001776F7E
:10002000F90E786F020E796F36ECEBF0520E00018C
:10003000C16F2B0EC06F000EE82EFED7C02FFCD76D
:10004000C12FFAD700F0300E0001E1652AEF80F0F1
:100050002CEF80F08BEF94F03A0EE16132EF80F0FC
:1000600034EF80F08BEF94F0000E116E000EDF6F16
:10007000C98080EF80F0CC0E0001616FFE0E626FD0
:1000800019ECF8F0E10E0001616F000E626F010ED5
:10009000636F2CECFAF09E0E0001616FFC0E626F34
:1000A00019ECF8F0290E0001C16F960EC06F7F0E9B
:1000B000E82EFED7C02FFCD7C12FFAD71150D8A4F5
:1000C00064EF80F066EF80F080EF80F0CB0E0001EF
:1000D000C16FEC0EC06F840EE82EFED7C02FFCD788
:1000E000C12FFAD700F0CB0E0001C16FEC0EC06F2C
:1000F000840EE82EFED7C02FFCD7C12FFAD700F010
:100100001150D8B486EF80F088EF80F03BEF80F09C
:100110000E013885410E0001606F030E616FF50E10
:10012000626FF80E636F000E656F030E646F77ECFD
:10013000E7F0000160516111D8A4A1EF80F0A3EFB6
:1001400080F07AEF94F0E10E606F000E616F440E64
:10015000626F030E636F000E656F0A0E646F8DECA5
:10016000F4F044ECFBF0000E0001606F040E616FD0
:100170006B0E626F030E636FE5ECF2F0F4ECFAF0D5
:10018000000E0001606F040E616FBDECF9F0000914
:10019000D8B4CDEF80F0CFEF80F0D5EF80F08CECCD
:1001A000FBF068ECCFF0E4EF80F0A30E0001C16F2C
:1001B000570EC06F020EE82EFED7C02FFCD7C12FFE
:1001C000FAD700F08FEF94F0F50E0001606F000E8B
:1001D000616FE10E626F000E636F000E656F0A0EB5
:1001E000646F77ECE7F0000160516111D8A4FBEF78
:1001F00080F0FDEF80F010EF93F0E10E606F000EE5
:10020000616FD50E626F010E636F000E656F0A0E8F
:10021000646F8DECF4F0180E0001606F020E616FD8
:10022000E80E626FF80E636F000E656F040E646F68
:1002300077ECE7F0000160516111D8A422EF81F062
:1002400024EF81F049EF81F038ECFCF0BF0E0001A3
:10025000776FFC0E786F020E796F36ECEBF0F80ECC
:100260000001776FFB0E786F030E796F36ECEBF0C1
:10027000000E0001DF6F2E0E7D6FF80E7E6FF50E03
:100280007F6F000E806F000E816F90EC94F08FEF07
:1002900094F0180E606F020E616F0B0E626FF90E14
:1002A000636F000E656F020E646F77ECE7F000017C
:1002B00060516111D8A45FEF81F061EF81F0D4EF5C
:1002C00081F01B0E606F020E616FEF0E626F010E08
:1002D000636F000E656F060E646F77ECE7F0000148
:1002E00060516111D8A477EF81F079EF81F0AFEF21
:1002F00081F038ECFCF03C0E0001776FFE0E786F59
:10030000010E796F36ECEBF02F0E0001776FFF0EC8
:10031000786F020E796F36ECEBF0EF0E0001606F34
:10032000010E616F220E626F020E636F000E656F29
:10033000060E646F8DECF4F003ECF4F0000E000197
:10034000DF6FFE0E7D6FF60E7E6FF50E7F6F000E77
:10035000806F000E816F90EC94F08FEF94F038EC8A
:10036000FCF0A60E0001776FFF0E786F010E796F1B
:1003700036ECEBF03C0E0001776FFE0E786F020E4C
:10038000796F36ECEBF0000E0001DF6FC40E7D6F6D
:10039000F70E7E6FF50E7F6F000E806F000E816F7F
:1003A00090EC94F08FEF94F0180E606F020E616F76
:1003B000010E626FF90E636F000E656F030E646FBE
:1003C00077ECE7F0000160516111D8A4EAEF81F009
:1003D000ECEF81F006EF85F0030E9DECD6F01D6E7C
:1003E00038ECFCF0410E0001776FFC0E786F010EC7
:1003F000796F36ECEBF09F0E0001776FF90E786F96
:10040000020E796F36ECEBF0E10E0001B86F000ED2
:10041000B96F5F0EBA6FFF0EBB6F010E1D24BC6F6C
:10042000BD6B000EBD23ECECF7F0E10E0001776F21
:10043000000E786F030E796F36ECEBF0000E0101C1
:10044000FF6F000EFE6F010EFD6F060E0001DF6FE5
:10045000180E0001DF25D96EDA6A020EDA22DF50AB
:1004600074ECFBF00009D8B438EF82F03AEF82F078
:100470008CEF83F0190E0001DF25D96EDA6A020EC7
:10048000DA22200EDE18D8A448EF82F04AEF82F07C
:100490006BEF82F0180EDF25D96EDA6A020EDA22CF
:1004A000180EDF25E16EE26A020EE222E750D00F5D
:1004B000DF6E180E0001DF25D96EDA6A020EDA222D
:1004C000DF50C06FC0510101FE25FE6F000EFF21FD
:1004D000FF6FC1EF83F0180EDF25D96EDA6A020EC6
:1004E000DA22180EDF25E16EE26A020EE222E75000
:1004F000D00FDF6E180EDF25D96EDA6A020EDA220F
:10050000DF500A0D180EDF25D96EDA6A020EDA22E4
:10051000F3CFDFFFFEC160F0FFC161F0000E636F3B
:100520000A0E626F11ECFCF060C0FEF161C0FFF1D9
:1005300059EF82F01D502D0DD90EF324D96E040E03
:10054000F420DA6EFEC1DEFFFFC1DDFF000E010107
:10055000FF6F000EFE6FBFEF83F01D502D0DF30EE9
:10056000F324D96E040EF420DA6EFEC1DFFFA6EF8D
:1005700082F01D502D0DF40EF324D96E040EF420DC
:10058000DA6EFEC1DFFFA6EF82F01D502D0DF50ED5
:10059000F324D96E040EF420DA6EFEC1DFFFA6EF5D
:1005A00082F01D502D0DD50EF324D96E040EF420CB
:1005B000DA6EFEC1DEFFFFC1DDFFA6EF82F01D5047
:1005C0002D0DD70EF324D96E040EF420DA6EFEC181
:1005D000DEFFFFC1DDFFA6EF82F01D502D0DFA0EEC
:1005E000F324D96E040EF420DA6EFEC1DFFFA6EF0D
:1005F00082F01D502D0DFC0EF324D96E040EF42054
:10060000DA6EFEC1DFFF1D502D0DFD0EF324D96EF5
:10061000040EF420DA6EFEC1DFFFA6EF82F00101C6
:10062000FE51CEECC8F0000E0101FF6F000EFE6F10
:100630001D502D0DF60EF324D96E040EF420DA6E43
:10064000C9C0DFFF1D502D0DF70EF324D96E040E27
:10065000F420DA6ED6C0DFFF1D502D0DF80EF32406
:10066000D96E040EF420DA6ED7C0DFFF1D502D0DB9
:10067000FE0EF324D96E040EF420DA6E000EDF6E47
:100680001D502D0DFF0EF324D96E040EF420DA6EEA
:10069000010EDF6E1D502D0DDB0EF324D96E040EFE
:1006A000F420DA6E000EDE6E000EDD6E1D502D0D94
:1006B000DD0EF324D96E040EF420DA6E000EDE6E29
:1006C000000EDD6E1D502D0DF90EF324D96E040EB3
:1006D000F420DA6E000EDF6E1D502D0D000EF32497
:1006E000D96E050EF420DA6E000EDF6E1D502D0D52
:1006F000FB0EF324D96E040EF420DA6E000EDF6ECA
:100700001D502D0D010EF324D96E050EF420DA6E66
:10071000000EDF6EBFEF83F00101FD510001C06FDD
:10072000C16BC151000AD8B498EF83F0BFEF83F0DA
:10073000C051010AD8B49AEF82F0030AD8B4ADEFE1
:1007400082F0010AD8B4B9EF82F0070AD8B4C5EF35
:1007500082F0010AD8B4D1EF82F0030AD8B4DFEFF7
:1007600082F0010AD8B4EDEF82F00F0AD8B4F9EFA5
:1007700082F0010AD8B40FEF83F0BFEF83F00101DC
:10078000FD2B0001DF2B090E0101FD65CAEF83F08F
:10079000CCEF83F028EF82F0090E0001C16F1E0E2E
:1007A000C06FE40EE82EFED7C02FFCD7C12FFAD7BA
:1007B00000F01D50020DCF0EF324F66EEB0EF42068
:1007C000F76EF86A000EF8220900F5CF63F00A0010
:1007D000F5CF64F01D502D0DD50EF3240001656F8B
:1007E000040EF420666F26ECDBF0090E0001C16FE9
:1007F0001E0EC06FE40EE82EFED7C02FFCD7C12F0F
:10080000FAD700F01D50020DCF0EF324F66EEB0E5A
:10081000F420F76EF86A000EF8220900F5CF63F0B5
:100820000A00F5CF64F01D502D0DD50EF324000104
:10083000656F040EF420666FDEECEEF0090E000129
:10084000C16F1E0EC06FE40EE82EFED7C02FFCD77E
:10085000C12FFAD700F01D50020DCF0EF324F66E13
:10086000EB0EF420F76EF86A000EF8220900F5CFBF
:1008700063F00A00F5CF64F01D502D0DD50EF32462
:100880000001656F040EF420666FC5ECF8F0090EE8
:100890000001C16F1E0EC06FE40EE82EFED7C02F00
:1008A000FCD7C12FFAD700F01D50020DCF0EF32454
:1008B000F66EEB0EF420F76EF86A000EF8220900CF
:1008C000F5CF63F00A00F5CF64F01D502D0DD50E65
:1008D000F3240001656F040EF420666FEFECF8F06E
:1008E000090E0001C16F1E0EC06FE40EE82EFED788
:1008F000C02FFCD7C12FFAD700F01D50020DCF0E2C
:10090000F324F66EEB0EF420F76EF86A000EF82270
:100910000900F5CF63F00A00F5CF64F01D502D0DEE
:10092000D50EF3240001656F040EF420666F9BEC76
:10093000F8F0090E0001C16F1E0EC06FE40EE82E24
:10094000FED7C02FFCD7C12FFAD700F01D50020DE3
:10095000CF0EF324F66EEB0EF420F76EF86A000E5D
:10096000F8220900F5CF63F00A00F5CF64F01D50BE
:100970002D0DD50EF3240001656F040EF420666F73
:1009800047ECBAF0090E0001C16F1E0EC06FE40EF5
:10099000E82EFED7C02FFCD7C12FFAD700F0090EE2
:1009A0001D60D5EF84F0D7EF84F0DFEF84F0300ED8
:1009B0000001E16F1D50310FE26FF5EF84F0080E7A
:1009C0001D64E5EF84F0E7EF84F0F5EF84F00C0EA2
:1009D0001D60EDEF84F0EFEF84F0F5EF84F0310E61
:1009E0000001E16F1D50270FE26F000E0001DF6F65
:1009F0008A0E7D6FF50E7E6FF50E7F6F000E806F95
:100A0000020E816F90EC94F08FEF94F0180E606FEF
:100A1000020E616FE30E626FF80E636F000E656F7A
:100A2000040E646F77ECE7F0000160516111D8A407
:100A30001CEF85F01EEF85F0EFEF85F0040E9DECC6
:100A4000D6F01D6E1D502D0DFE0EF324D96E040E32
:100A5000F420DA6EDE04D8A430EF85F032EF85F0B2
:100A600035EF85F0010E0001D06F1D502D0DFF0EEA
:100A7000F324D96E040EF420DA6E000EDF6E1D50E2
:100A80002D0D000EF324D96E050EF420DA6EDE046F
:100A9000D8A44DEF85F04FEF85F08FEF85F01D5016
:100AA0002D0D000EF324D96E050EF420DA6E000E23
:100AB000DF6E090E0001C16F1E0EC06FE40EE82E3E
:100AC000FED7C02FFCD7C12FFAD700F01D50020D62
:100AD000CF0EF324F66EEB0EF420F76EF86A000EDC
:100AE000F8220900F5CF63F00A00F5CF64F01D503D
:100AF0002D0DD50EF3240001656F040EF420666FF2
:100B000047ECBAF0090E0001C16F1E0EC06FE40E73
:100B1000E82EFED7C02FFCD7C12FFAD700F01D500A
:100B2000020DCF0EF324F66EEB0EF420F76EF86A8A
:100B3000000EF8220900F5CF63F00A00F5CF64F04B
:100B40001D502D0DD50EF3240001656F040EF42009
:100B5000666F9BECF8F0090E0001C16F1E0EC06FAE
:100B6000E40EE82EFED7C02FFCD7C12FFAD700F035
:100B7000090E1D60BEEF85F0C0EF85F0C8EF85F06F
:100B8000300E0001E16F1D50310FE26FDEEF85F096
:100B9000080E1D64CEEF85F0D0EF85F0DEEF85F016
:100BA0000C0E1D60D6EF85F0D8EF85F0DEEF85F0F6
:100BB000310E0001E16F1D50270FE26F000E0001A2
:100BC000DF6FBF0E7D6FF30E7E6FF50E7F6F000E31
:100BD000806F020E816F90EC94F08FEF94F0180EFE
:100BE000606F020E616FB40E626FF80E636F000EDD
:100BF000656F060E646F77ECE7F0000160516111DC
:100C0000D8A405EF86F007EF86F002EF89F0000E1A
:100C10000101FF6F000EFE6F000EFD6F060E9DECD2
:100C2000D6F01D6E1D502D0DFF0EF324D96E040E4F
:100C3000F420DA6EDF50D8A420EF86F022EF86F0A1
:100C400059EF86F0090E1D6028EF86F02AEF86F036
:100C500032EF86F0300E0001E16F1D50310FE26F70
:100C600048EF86F0080E1D6438EF86F03AEF86F004
:100C700048EF86F00C0E1D6040EF86F042EF86F0E4
:100C800048EF86F0310E0001E16F1D50270FE26F33
:100C9000000E0001DF6F760E7D6FF00E7E6FF50E99
:100CA0007F6F000E806F020E816F90EC94F08FEFDB
:100CB00094F0090E0001DF6F180E0001DF25D96ED8
:100CC000DA6A020EDA22DF5074ECFBF00009D8B4C5
:100CD0006CEF86F06EEF86F0CEEF86F0190E000115
:100CE000DF25D96EDA6A020EDA22200EDE18D8A4C9
:100CF0007CEF86F07EEF86F09FEF86F0180EDF2502
:100D0000D96EDA6A020EDA22180EDF25E16EE26A87
:100D1000020EE222E750D00FDF6E180E0001DF2531
:100D2000D96EDA6A020EDA22DF50C06FC0510101BB
:100D3000FE25FE6F000EFF21FF6F7AEF88F0180E80
:100D4000DF25D96EDA6A020EDA22180EDF25E16E8F
:100D5000E26A020EE222E750D00FDF6E180EDF25A6
:100D6000D96EDA6A020EDA22DF500A0D180EDF257C
:100D7000D96EDA6A020EDA22F3CFDFFFFEC160F02D
:100D8000FFC161F0000E636F0A0E626F11ECFCF0A0
:100D900060C0FEF161C0FFF18DEF86F00101FD2B17
:100DA00030EF88F01D502D0DDB0EF324D96E040EAC
:100DB000F420DA6EFEC1DEFFFFC1DDFF000E01018F
:100DC000FF6F000EFE6F7AEF88F01D502D0DDD0EC7
:100DD000F324D96E040EF420DA6EFEC1DEFFFFC1EB
:100DE000DDFFDEEF86F01D502D0DF90EF324D96ED8
:100DF000040EF420DA6EFEC1DFFFDEEF86F01D5038
:100E00002D0DDF0EF324D96E040EF420DA6EFEC130
:100E1000DEFFFFC1DDFFDEEF86F01D502D0DE70E7A
:100E2000F324D96E040EF420DA6EFEC1DEFFFFC19A
:100E3000DDFFDEEF86F01D502D0DEF0EF324D96E91
:100E4000040EF420DA6EFEC1DFFFDEEF86F01D50E7
:100E50002D0DE10EF324D96E040EF420DA6EFEC1DE
:100E6000DEFFFFC1DDFFDEEF86F01D502D0DE90E28
:100E7000F324D96E040EF420DA6EFEC1DEFFFFC14A
:100E8000DDFFDEEF86F01D502D0DF00EF324D96E40
:100E9000040EF420DA6EFEC1DFFFDEEF86F01D5097
:100EA0002D0DE30EF324D96E040EF420DA6EFEC18C
:100EB000DEFFFFC1DDFFDEEF86F01D502D0DEB0ED6
:100EC000F324D96E040EF420DA6EFEC1DEFFFFC1FA
:100ED000DDFFDEEF86F01D502D0DF10EF324D96EEF
:100EE000040EF420DA6EFEC1DFFFDEEF86F01D5047
:100EF0002D0DE50EF324D96E040EF420DA6EFEC13A
:100F0000DEFFFFC1DDFFDEEF86F01D502D0DED0E83
:100F1000F324D96E040EF420DA6EFEC1DEFFFFC1A9
:100F2000DDFFDEEF86F01D502D0DF20EF324D96E9D
:100F3000040EF420DA6EFEC1DFFF1D502D0DFB0EF6
:100F4000F324D96E040EF420DA6E000EDF6E1D500D
:100F50002D0D010EF324D96E050EF420DA6E000E6D
:100F6000DF6E000E0101FF6F000EFE6F1D502D0D94
:100F7000D90EF324D96E040EF420DA6E1D502D0D17
:100F8000DD0EF324E16E040EF420E26EE6CFC2F033
:100F9000E5CFC3F01D502D0DDB0EF324E16E040EE2
:100FA000F420E26EE6CFC4F0E5CFC5F00001C251F7
:100FB000C427C351C523DE50C45DDE50C559D8A037
:100FC000E4EF87F0E6EF87F024EF88F01D502D0D59
:100FD000000EF324D96E050EF420DA6E000EDF6EDB
:100FE000090E1D60F6EF87F0F8EF87F0FFEF87F04E
:100FF000300EE16F1D50310FE26F14EF88F0080ED4
:101000001D6405EF88F007EF88F014EF88F00C0EF0
:101010001D600DEF88F00FEF88F014EF88F0310EAF
:10102000E16F1D50270FE26F000EDF6F8B0E7D6F9B
:10103000F20E7E6FF50E7F6F000E806F020E816FD5
:1010400090EC94F07AEF88F01D502D0D000EF324F3
:10105000D96E050EF420DA6E010EDF6E7AEF88F09D
:10106000FD510001C06FC16BC151000AD8B43BEF04
:1010700088F07AEF88F0C051010AD8B4D2EF86F038
:10108000030AD8B4E5EF86F0010AD8B4F3EF86F08E
:10109000070AD8B4FFEF86F0010AD8B40DEF87F045
:1010A000030AD8B41BEF87F0010AD8B427EF87F002
:1010B0000F0AD8B435EF87F0010AD8B443EF87F0B0
:1010C000030AD8B44FEF87F0010AD8B45DEF87F078
:1010D000070AD8B46BEF87F0010AD8B477EF87F02E
:1010E000030AD8B485EF87F0010AD8B493EF87F0EC
:1010F0007AEF88F00001DF2B0E0E0101FD6583EF12
:1011000088F085EF88F05CEF86F01D502D0D000E05
:10111000F324D96E050EF420DA6EDF50D8B493EFC5
:1011200088F095EF88F08FEF94F0090E0001C16F01
:101130001E0EC06FE40EE82EFED7C02FFCD7C12FC5
:10114000FAD700F01D50020DCF0EF324F66EEB0E11
:10115000F420F76EF86A000EF8220900F5CF63F06C
:101160000A00F5CF64F01D502D0DD50EF3240001BB
:10117000656F040EF420666F47ECBAF0090E0001AB
:10118000C16F1E0EC06FE40EE82EFED7C02FFCD735
:10119000C12FFAD700F0090E1D60D1EF88F0D3EF10
:1011A00088F0DBEF88F0300E0001E16F1D50310F49
:1011B000E26FF1EF88F0080E1D64E1EF88F0E3EFD5
:1011C00088F0F1EF88F00C0E1D60E9EF88F0EBEF8E
:1011D00088F0F1EF88F0310E0001E16F1D50270F0C
:1011E000E26F000E0001DF6F380E7D6FF60E7E6F2E
:1011F000F50E7F6F000E806F020E816F90EC94F001
:101200008FEF94F0180E606F020E616F900E626F98
:10121000F80E636F000E656F070E646F77ECE7F0F2
:10122000000160516111D8A418EF89F01AEF89F01C
:10123000C9EF89F0070E9DECD6F01D6E1D502D0DE7
:10124000FE0EF324D96E040EF420DA6EDE04D8A468
:101250002CEF89F02EEF89F042EF89F01D502D0D13
:10126000FB0EF324D96E040EF420DA6E030EDE18A2
:10127000D8B43DEF89F03FEF89F042EF89F0010EDD
:101280000001D06F1D502D0D000EF324D96E050EF8
:10129000F420DA6EDE04D8A450EF89F052EF89F022
:1012A0008FEF94F01D502D0D000EF324D96E050E16
:1012B000F420DA6E000EDF6E090E0001C16F1E0E03
:1012C000C06FE40EE82EFED7C02FFCD7C12FFAD78F
:1012D00000F01D50020DCF0EF324F66EEB0EF4203D
:1012E000F76EF86A000EF8220900F5CF63F00A00E5
:1012F000F5CF64F01D502D0DD50EF3240001656F60
:10130000040EF420666F47ECBAF0090E0001C16FBD
:101310001E0EC06FE40EE82EFED7C02FFCD7C12FE3
:10132000FAD700F0090E1D6098EF89F09AEF89F066
:10133000A2EF89F0300E0001E16F1D50310FE26F16
:10134000B8EF89F0080E1D64A8EF89F0AAEF89F0C4
:10135000B8EF89F00C0E1D60B0EF89F0B2EF89F0A4
:10136000B8EF89F0310E0001E16F1D50270FE26FD9
:10137000000E0001DF6FD10E7D6FF50E7E6FF50E52
:101380007F6F000E806F020E816F90EC94F08FEFF4
:1013900094F0180E606F020E616FAD0E626FF80E62
:1013A000636F000E656F060E646F77ECE7F0000167
:1013B00060516111D8A4DFEF89F0E1EF89F0DCEF33
:1013C0008AF0000E0101FF6F000EFE6F000EFD6F30
:1013D000060E0001DF6F180E0001DF25D96EDA6AF4
:1013E000020EDA22DF5074ECFBF00009D8B4FBEFF8
:1013F00089F0FDEF89F05DEF8AF0190E0001DF251D
:10140000D96EDA6A020EDA22200EDE18D8A40BEFAB
:101410008AF00DEF8AF02EEF8AF0180EDF25D96ED4
:10142000DA6A020EDA22180EDF25E16EE26A020E97
:10143000E222E750D00FDF6E180E0001DF25D96ED3
:10144000DA6A020EDA22DF50C06FC0510101FE25B8
:10145000FE6F000EFF21FF6FA4EF8AF0180EDF254C
:10146000D96EDA6A020EDA22180EDF25E16EE26A20
:10147000020EE222E750D00FDF6E180EDF25D96E84
:10148000DA6A020EDA22DF500A0D180EDF25D96E55
:10149000DA6A020EDA22F3CFDFFFFEC160F0FFC18D
:1014A00061F0000E636F0A0E626F11ECFCF060C019
:1014B000FEF161C0FFF11CEF8AF00101FD2B82EF0C
:1014C0008AF0FEC117F0000E0101FF6F000EFE6FE3
:1014D000A4EF8AF0FEC116F063EF8AF0FEC115F0AA
:1014E00063EF8AF0FEC114F063EF8AF0FEC1CBF027
:1014F000CC6B000E0101FF6F000EFE6F010E0E6E31
:10150000A4EF8AF0FD510001C06FC16BC151000A08
:10151000D8B48DEF8AF0A4EF8AF0C051010AD8B494
:1015200061EF8AF0030AD8B46AEF8AF0010AD8B4EE
:101530006EEF8AF0070AD8B472EF8AF0010AD8B4C5
:1015400076EF8AF0A4EF8AF00001DF2B040E010190
:10155000FD65ADEF8AF0AFEF8AF0EBEF89F0090E91
:101560000001C16F1E0EC06FE40EE82EFED7C02F23
:10157000FCD7C12FFAD700F0BDECDEF0090E000158
:10158000C16F1E0EC06FE40EE82EFED7C02FFCD731
:10159000C12FFAD700F0000E0001DF6F900E7D6FB3
:1015A000F70E7E6FF50E7F6F000E806F000E816F5D
:1015B00090EC94F08FEF94F0180E606F020E616F54
:1015C000880E626FF80E636F000E656F070E646F12
:1015D00077ECE7F0000160516111D8A4F2EF8AF0D6
:1015E000F4EF8AF023EF8BF0000E0E6E090E00016F
:1015F000C16F1E0EC06FE40EE82EFED7C02FFCD7C1
:10160000C12FFAD700F0BDECDEF0090E0001C16F6A
:101610001E0EC06FE40EE82EFED7C02FFCD7C12FE0
:10162000FAD700F0000E0001DF6F3D0E7D6FF70E60
:101630007E6FF50E7F6F000E806F000E816F90EC55
:1016400094F08FEF94F0180E606F020E616FD30E5E
:10165000626FF80E636F000E656F050E646F77ECB6
:10166000E7F0000160516111D8A439EF8BF03BEF36
:101670008BF063EF8BF00E50D8B441EF8BF043EF5B
:101680008BF053EF8BF0000EDF6F750E7D6FF70E52
:101690007E6FF50E7F6F000E806F080E816F90ECED
:1016A00094F08FEF94F0000EDF6FDE0E7D6FF60E7C
:1016B0007E6FF50E7F6F000E806F000E816F90ECD5
:1016C00094F08FEF94F0180E606F020E616FD90ED8
:1016D000626FF80E636F000E656F040E646F77EC37
:1016E000E7F0000160516111D8A479EF8BF07BEF36
:1016F0008BF060EF8CF0000E0101FF6F000EFE6FAB
:10170000000EFD6F050E0001DF6F180E0001DF25D2
:10171000D96EDA6A020EDA22DF5074ECFBF00009AF
:10172000D8B495EF8BF097EF8BF027EF8CF0180E75
:101730000001DF25D96EDA6A020EDA22180EDF25E3
:10174000E16EE26A020EE222E750D00FDF6E180E61
:10175000DF25D96EDA6A020EDA22DF50C06FC0517F
:101760000101FE6FFF6BFEC160F0FFC161F0000E72
:101770000001636F0A0E626F11ECFCF060C0FEF1B5
:1017800061C0FFF1190E0001DF25D96EDA6A020E81
:10179000DA22190EDF25E16EE26A020EE222E7503C
:1017A000D00FDF6E190EDF25D96EDA6A020EDA224B
:1017B000DF50C06FC0510101FE25FE6F000EFF21FA
:1017C000FF6FFD2B01EF8CF0FEC1DBF0000E01017D
:1017D000FF6F000EFE6F38EF8CF0FEC1DCF0E6EF1D
:1017E0008BF0FEC1DDF0E6EF8BF0FEC1DAF0E6EF44
:1017F0008BF0FEC1D9F0E6EF8BF0FEC1D8F0E6EF3A
:101800008BF0FD510001C06FC16BC151000AD8B40B
:101810000CEF8CF038EF8CF0C051010AD8B4E4EF33
:101820008BF0030AD8B4EDEF8BF0010AD8B4F1EFD6
:101830008BF0070AD8B4F5EF8BF0010AD8B4F9EFB2
:101840008BF0030AD8B4FDEF8BF038EF8CF0000E6C
:101850000001DF6F5A0E7D6FF70E7E6FF50E7F6F02
:10186000000E806F000E816F90EC94F08FEF94F07B
:10187000030E0001DF27050E0101FD6542EF8CF02C
:1018800044EF8CF085EF8BF0060EFD19D8A44BEFDA
:101890008CF04DEF8CF04FEF8CF0A8ECF1F0000ED7
:1018A0000001DF6F7B0E7D6FF40E7E6FF50E7F6F94
:1018B000000E806F000E816F90EC94F08FEF94F02B
:1018C000180E606F020E616FDE0E626FF80E636FAE
:1018D000000E656F040E646F77ECE7F00001605155
:1018E0006111D8A476EF8CF078EF8CF031EF8DF0A9
:1018F000A5ECEFF0DBC060F00001616B000E636FE0
:101900000A0E626F42ECEFF000016051300FE16FA0
:10191000DBC072F0736B000E756F0A0E746F01EC12
:10192000F0F000017251300FE26F2F0EE36FDCC058
:1019300060F0616B000E636F0A0E626F42ECEFF0B5
:1019400000016051300FE46FDCC072F0736B000E69
:10195000756F0A0E746F01ECF0F000017251300FD8
:10196000E56F2F0EE66FDDC060F0616B000E636FF8
:101970000A0E626F42ECEFF000016051300FE76F2A
:10198000DDC072F0736B000E756F0A0E746F01ECA0
:10199000F0F000017251300FE86F200EE96FDAC0ED
:1019A00060F0616B000E636F0A0E626F42ECEFF045
:1019B00000016051300FEA6FDAC072F0736B000EF5
:1019C000756F0A0E746F01ECF0F000017251300F68
:1019D000EB6F3A0EEC6FD9C060F0616B000E636F75
:1019E0000A0E626F42ECEFF000016051300FED6FB4
:1019F000D9C072F0736B000E756F0A0E746F01EC34
:101A0000F0F000017251300FEE6F3A0EEF6FD8C058
:101A100060F0616B000E636F0A0E626F42ECEFF0D4
:101A200000016051300FF06FD8C072F0736B000E80
:101A3000756F0A0E746F01ECF0F000017251300FF7
:101A4000F16F000EDF6F4E0E7D6FF80E7E6FF50E9C
:101A50007F6F000E806F030E816F90EC94F08FEF1C
:101A600094F0180E606F020E616F800E626FF80EB8
:101A7000636F000E656F070E646F77ECE7F000018F
:101A800060516111D8A447EF8DF049EF8DF0A2EFBE
:101A90008DF0070E9DECD6F01D6E090E1D6053EF04
:101AA0008DF055EF8DF05DEF8DF0300E0001E16FA0
:101AB0001D50310FE26F73EF8DF0080E1D6463EF60
:101AC0008DF065EF8DF073EF8DF00C0E1D606BEFF8
:101AD0008DF06DEF8DF073EF8DF0310E0001E16F41
:101AE0001D50270FE26F000E0001DF6F1D502D0DFE
:101AF000FF0EF324D96E040EF420DA6EDF50D8B452
:101B000084EF8DF086EF8DF094EF8DF05D0E7D6F9C
:101B1000F80E7E6FF50E7F6F000E806F070E816FDF
:101B200090EC94F08FEF94F0F50E7D6FF40E7E6FD5
:101B3000F50E7F6F000E806F020E816F90EC94F0B7
:101B40008FEF94F0180E606F020E616F080E626FD7
:101B5000F90E636F000E656F020E646F77ECE7F0AD
:101B6000000160516111D8A4B8EF8DF0BAEF8DF08B
:101B7000B2EF8EF090A0BFEF8DF0C1EF8DF0D2EFFD
:101B80008DF0000E0001DF6F8E0E7D6FF30E7E6F05
:101B9000F50E7F6F000E806F000E816F90EC94F059
:101BA0008FEF94F0000E0101FF6F000EFE6F000E2C
:101BB000FD6F010EFD6F030E0001DF6F180E0001B7
:101BC000DF25D96EDA6A020EDA22DF5074ECFBF000
:101BD0000009D8B4EEEF8DF0F0EF8DF061EF8EF0EC
:101BE000190E0001DF25D96EDA6A020EDA22200E04
:101BF000DE18D8A4FEEF8DF000EF8EF021EF8EF00E
:101C0000180EDF25D96EDA6A020EDA22180EDF25E9
:101C1000E16EE26A020EE222E750D00FDF6E180E8C
:101C20000001DF25D96EDA6A020EDA22DF50C06FBA
:101C3000C0510101FE25FE6F000EFF21FF6F7AEFFC
:101C40008EF0180EDF25D96EDA6A020EDA22180E2F
:101C5000DF25E16EE26A020EE222E750D00FDF6E6E
:101C6000180EDF25D96EDA6A020EDA22DF500A0D6D
:101C7000180EDF25D96EDA6A020EDA22F3CFDFFF03
:101C8000FEC160F0FFC161F0000E636F0A0E626F6B
:101C900011ECFCF060C0FEF161C0FFF10FEF8EF0BF
:101CA000FEC193F1FFC194F1000E0101FF6F000E20
:101CB000FE6F78EF8EF0FEC120F0FFC121F054EFEF
:101CC0008EF00101FD510001C06FC16BC151000ACE
:101CD000D8B46DEF8EF078EF8EF0C051010AD8B411
:101CE00050EF8EF0030AD8B45BEF8EF078EF8EF0F1
:101CF0000101FD2B0001DF2B020E0101FD6583EFC9
:101D00008EF085EF8EF0DEEF8DF0090E0001C16FD1
:101D10001E0EC06FE40EE82EFED7C02FFCD7C12FD9
:101D2000FAD700F0DCECE6F0090E0001C16F1E0EE0
:101D3000C06FE40EE82EFED7C02FFCD7C12FFAD714
:101D400000F0000E0001DF6FAE0E7D6FF50E7E6FAE
:101D5000F50E7F6F000E806F000E816F90EC94F097
:101D60008FEF94F0180E606F020E616FCD0E626FF0
:101D7000F80E636F000E656F050E646F77ECE7F089
:101D8000000160516111D8A4C8EF8EF0CAEF8EF047
:101D9000DBEF8EF0000E0001DF6F1E0E7D6FF40E84
:101DA0007E6FF50E7F6F000E806F050E816F90ECD9
:101DB00094F08FEF94F0180E606F020E616F780E42
:101DC000626FF80E636F000E656F070E646F77EC3D
:101DD000E7F0000160516111D8A4F1EF8EF0F3EF4C
:101DE0008EF056EF8FF0070E9DECD6F01D6E090EAB
:101DF0000001C16F1E0EC06FE40EE82EFED7C02F8B
:101E0000FCD7C12FFAD700F01D50F9ECF1F0090E04
:101E10001D600DEF8FF00FEF8FF017EF8FF0300E8A
:101E20000001E16F1D50310FE26F2DEF8FF0080EB2
:101E30001D641DEF8FF01FEF8FF02DEF8FF00C0E54
:101E40001D6025EF8FF027EF8FF02DEF8FF0310E13
:101E50000001E16F1D50270FE26F0001D451D8B48B
:101E600034EF8FF036EF8FF046EF8FF0000ED46F27
:101E7000CD0E7D6FF40E7E6FF50E7F6F000E806FBE
:101E8000020E816F90EC94F08FEF94F0000EDF6FF4
:101E90004D0E7D6FF40E7E6FF50E7F6F000E806F1E
:101EA000060E816F90EC94F08FEF94F0180E606F37
:101EB000020E616FF90E626FF80E636F000E656FB0
:101EC000030E646F77ECE7F0000160516111D8A454
:101ED0006CEF8FF06EEF8FF0EBEF8FF0030E9DEC59
:101EE000D6F01D6E090E0001C16F1E0EC06FE40E0C
:101EF000E82EFED7C02FFCD7C12FFAD700F090A054
:101F000084EF8FF086EF8FF088EF8FF0C1EF8DF0C8
:101F1000090E1D608EEF8FF090EF8FF098EF8FF02D
:101F2000300E0001E16F1D50310FE26FAEEF8FF008
:101F3000080E1D649EEF8FF0A0EF8FF0AEEF8FF0D4
:101F40000C0E1D60A6EF8FF0A8EF8FF0AEEF8FF0B4
:101F5000310E0001E16F1D50270FE26FCB0E000123
:101F6000C16FEC0EC06F840EE82EFED7C02FFCD7D9
:101F7000C12FFAD700F0CB0E0001C16FEC0EC06F7D
:101F8000840EE82EFED7C02FFCD7C12FFAD700F061
:101F90001DC06DF0010EBFECC3F0520E0001C16F09
:101FA0002B0EC06F000EE82EFED7C02FFCD7C12F1E
:101FB000FAD700F0DCECE6F0520E0001C16F2B0EF8
:101FC000C06F000EE82EFED7C02FFCD7C12FFAD766
:101FD00000F0CAEF8EF0180E606F020E616FA60E51
:101FE000626FF80E636F000E656F060E646F77EC1C
:101FF000E7F0000160516111D8A401EF90F003EF08
:1020000090F08BEF92F0000E0101FF6F000EFE6F5B
:10201000000EFD6F070E0001DF6F180E0001DF25B7
:10202000D96EDA6A020EDA22DF5074ECFBF0000996
:10203000D8B41DEF90F01FEF90F099EF90F0180ECC
:102040000001DF25D96EDA6A020EDA22180EDF25CA
:10205000E16EE26A020EE222E750D00FDF6E180E48
:10206000DF25D96EDA6A020EDA22DF50C06FC05166
:102070000101FE6FFF6BFEC160F0FFC161F0000E59
:102080000001636F0A0E626F11ECFCF060C0FEF19C
:1020900061C0FFF1190E0001DF25D96EDA6A020E68
:1020A000DA22190EDF25E16EE26A020EE222E75023
:1020B000D00FDF6E190EDF25D96EDA6A020EDA2232
:1020C000DF50C06FC0510101FE25FE6F000EFF21E1
:1020D000FF6FFD2B7FEF90F0FEC1FAF1000E0101C2
:1020E000FF6F000EFE6F99EF90F0FEC1FBF16EEFF7
:1020F00090F00101FE51CEECC8F06EEF90F0FD5172
:102100000001C06FC16BC151000AD8B48AEF90F0D2
:1021100099EF90F0C051010AD8B46CEF90F0030A27
:10212000D8B475EF90F0010AD8B479EF90F099EF38
:1021300090F0030E0001DF27020E0101FD65A3EF01
:1021400090F0A5EF90F00DEF90F0000E1D6E72EF85
:1021500092F01D502D0DD90EF324D96E040EF420EB
:10216000DA6E0F0EDE6E000EDD6E1D502D0DF30EBD
:10217000F324D96E040EF420DA6E010EDF6E1D50CA
:102180002D0DF40EF324D96E040EF420DA6EFAC18C
:10219000DFFF1D502D0DF50EF324D96E040EF42033
:1021A000DA6EFBC1DFFF1D502D0DF60EF324D96E44
:1021B000040EF420DA6EC9C0DFFF1D502D0DF70E9E
:1021C000F324D96E040EF420DA6ED6C0DFFF1D5062
:1021D0002D0DF80EF324D96E040EF420DA6ED7C05C
:1021E000DFFF1D502D0DD50EF324D96E040EF42003
:1021F000DA6E640EDE6E000EDD6E1D502D0DD70EF4
:10220000F324D96E040EF420DA6E300EDE6E750EF5
:10221000DD6E1D502D0DFA0EF324D96E040EF42040
:10222000DA6E1D28DF6E1D502D0DFE0EF324D96EC3
:10223000040EF420DA6E000EDF6E1D502D0DFC0E24
:10224000F324D96E040EF420DA6E020EDF6E1D50F8
:102250002D0DFD0EF324D96E040EF420DA6E020E5D
:10226000DF6E1D502D0DFF0EF324D96E040EF420E9
:10227000DA6E010EDF6E1D502D0DDB0EF324D96ECC
:10228000040EF420DA6E050EDE6E000EDD6E1D50BB
:102290002D0DDD0EF324D96E040EF420DA6E0F0E30
:1022A000DE6E000EDD6E1D502D0DF90EF324D96E7D
:1022B000040EF420DA6E1D28DF6E1D502D0DFB0E6E
:1022C000F324D96E040EF420DA6E000EDF6E1D507A
:1022D0002D0D010EF324D96E050EF420DA6E000EDA
:1022E000DF6E1D502D0D000EF324D96E050EF42067
:1022F000DA6E010EDF6E1D50020DCF0EF324F66E66
:10230000EB0EF420F76EF86A000EF8220900F5CF04
:1023100063F00A00F5CF64F01D502D0DD50EF324A7
:102320000001656F040EF420666F26ECDBF0090EE9
:102330000001C16F1E0EC06FE40EE82EFED7C02F45
:10234000FCD7C12FFAD700F01D50020DCF0EF32499
:10235000F66EEB0EF420F76EF86A000EF822090014
:10236000F5CF63F00A00F5CF64F01D502D0DD50EAA
:10237000F3240001656F040EF420666FDEECEEF0CE
:10238000090E0001C16F1E0EC06FE40EE82EFED7CD
:10239000C02FFCD7C12FFAD700F01D50020DCF0E71
:1023A000F324F66EEB0EF420F76EF86A000EF822B6
:1023B0000900F5CF63F00A00F5CF64F01D502D0D34
:1023C000D50EF3240001656F040EF420666FC5EC92
:1023D000F8F0090E0001C16F1E0EC06FE40EE82E6A
:1023E000FED7C02FFCD7C12FFAD700F01D50020D29
:1023F000CF0EF324F66EEB0EF420F76EF86A000EA3
:10240000F8220900F5CF63F00A00F5CF64F01D5003
:102410002D0DD50EF3240001656F040EF420666FB8
:10242000EFECF8F0090E0001C16F1E0EC06FE40E54
:10243000E82EFED7C02FFCD7C12FFAD700F01D50D1
:10244000020DCF0EF324F66EEB0EF420F76EF86A51
:10245000000EF8220900F5CF63F00A00F5CF64F012
:102460001D502D0DD50EF3240001656F040EF420D0
:10247000666F9BECF8F0090E0001C16F1E0EC06F75
:10248000E40EE82EFED7C02FFCD7C12FFAD700F0FC
:102490001D50020DCF0EF324F66EEB0EF420F76EF6
:1024A000F86A000EF8220900F5CF63F00A00F5CFB4
:1024B00064F01D502D0DD50EF3240001656F040E40
:1024C000F420666F47ECBAF0090E0001C16F1E0ED2
:1024D000C06FE40EE82EFED7C02FFCD7C12FFAD76D
:1024E00000F01D2A0B0E1D6478EF92F07AEF92F047
:1024F000A9EF90F0000E0001DF6F1B0E7D6FF80E4C
:102500007E6FF50E7F6F000E806F000E816F90EC76
:1025100094F08FEF94F0180E606F020E616FFD0E55
:10252000626FF80E636F000E656F030E646F77ECD9
:10253000E7F0000160516111D8A4A1EF92F0A3EF80
:1025400092F00EEF93F0040E0101FC6FDAEF92F0BF
:10255000FC519DECD6F01D6E0101FC51020F9DEC6B
:10256000D6F00001C06F010EC0271D50C16FC26BB5
:10257000D890C137C237000EC125D96E020EC221D4
:10258000DA6EC0C0DFFF0101FC51040F9DECD6F0F4
:102590000001C06F010EC0271D50020D010EF32473
:1025A000D96E020EF420DA6EC0C0DFFF0101FC51CB
:1025B000060FFC6F180EFC25D96EDA6A020EDA22BD
:1025C000200EDE18D8A4E7EF92F0E9EF92F0A8EF22
:1025D00092F038ECFCF0600E0001776FFD0E786F22
:1025E000020E796F36ECEBF0920E0001776FFE0E63
:1025F000786F030E796F36ECEBF0000E0001DF6FA1
:10260000660E7D6FF50E7E6FF50E7F6F000E806F8C
:10261000010E816F90EC94F08FEF94F08FEF94F0B7
:10262000180E606F020E616F0B0E626FF90E636F12
:10263000000E656F020E646F77ECE7F000016051E9
:102640006111D8A426EF93F028EF93F015EF94F0E2
:102650001B0E606F020E616FEF0E626F010E636FF3
:10266000000E656F060E646F77ECE7F000016051B5
:102670006111D8A43EEF93F040EF93F0E1EF93F0B7
:102680001250D8B446EF93F048EF93F06BEF93F00D
:1026900038ECFCF0500E0001776FFB0E786F020EE5
:1026A000796F36ECEBF0920E0001776FFE0E786FCB
:1026B000030E796F36ECEBF0000E0001DF6F290E90
:1026C0007D6FF30E7E6FF50E7F6F000E806F010E33
:1026D000816F90EC94F0EF0E0001606F010E616F5E
:1026E000220E626F020E636F000E656F060E646F3E
:1026F0008DECF4F0F50E0001606F000E616FE10EDD
:10270000626F000E636F000E656F0A0E646F8DECD2
:10271000F4F0010E126EE10E0001606F000E616FA9
:10272000D50E626F010E636F000E656F0A0E646F47
:102730008DECF4F0050E0001C16F0F0EC06FF10EAD
:10274000E82EFED7C02FFCD7C12FFAD703ECF4F048
:10275000050E0001C16F0F0EC06FF10EE82EFED7FF
:10276000C02FFCD7C12FFAD748ECF4F0050E0001BA
:10277000C16F0F0EC06FF10EE82EFED7C02FFCD731
:10278000C12FFAD719ECF9F0050E0001C16F0F0E39
:10279000C06FF10EE82EFED7C02FFCD7C12FFAD79D
:1027A000000E0001DF6FDB0E7D6FF70E7E6FF50E02
:1027B0007F6F000E806F000E816F90EC94F08FEFB2
:1027C00094F038ECFCF0BB0E0001776FFD0E786FD3
:1027D000010E796F36ECEBF0550E0001776FFB0EB2
:1027E000786F020E796F36ECEBF0000E0001DF6FB0
:1027F000C40E7D6FF70E7E6FE10E7F6F000E806F4F
:10280000000E816F90EC94F0E10E0001606F000EFD
:10281000616FD50E626F010E636F000E656F0A0E59
:10282000646F8DECF4F08FEF94F0180E606F020E71
:10283000616FE80E626FF80E636F000E656F040E35
:10284000646F77ECE7F0000160516111D8A42BEFC1
:1028500094F02DEF94F052EF94F038ECFCF0DD0E94
:102860000001776FFC0E786F010E796F36ECEBF09C
:10287000660E0001776FFF0E786F020E796F36ECEF
:10288000EBF0000E0001DF6FF20E7D6FF70E7E6F32
:10289000E10E7F6F000E806F000E816F90EC94F060
:1028A00004EF94F0180E606F020E616F6C0E626F91
:1028B000F80E636F000E656F0B0E646F77ECE7F038
:1028C000000160516111D8A468EF94F06AEF94F0B0
:1028D000D5EF80F0000EDF6F3F0E7D6FF80E7E6F3C
:1028E000E10E7F6F000E806F040E816F90EC94F00C
:1028F00004EF94F0F4ECFAF0520E0001C16F2B0ECD
:10290000C06F000EE82EFED7C02FFCD7C12FFAD71C
:1029100000F08FEF94F0F4ECFAF0D5EF80F01200B5
:1029200038ECFCF0030E0001776FFE0E786F020E9C
:10293000796F36ECEBF0570E0001776FFF0E786F72
:10294000030E796F36ECEBF01E0E0101CB6F9C0E7F
:102950000001616FFE0E626F19ECF8F0050E0001C8
:10296000836F0F0E826FF10EE82EFED7822FFCD7F9
:10297000832FFAD77FC061F080C062F00A0E000199
:10298000636F2CECFAF0050E0001836F0F0E826F5F
:10299000F10EE82EFED7822FFCD7832FFAD79D0E9B
:1029A0000001616FFC0E626F19ECF8F0090E000176
:1029B000836F1E0E826FE40EE82EFED7822FFCD7A7
:1029C000832FFAD700F07DC061F07EC062F019EC71
:1029D000F8F0090E0001836F1E0E826FE40EE82EE0
:1029E000FED7822FFCD7832FFAD700F060EF9CF040
:1029F000E10E616F000E626F0A0E636F2CECFAF04D
:102A0000090E0001836F1E0E826FE40EE82EFED7C2
:102A1000822FFCD7832FFAD700F08EEF9CF0E10EC7
:102A2000616F000E626F020E636F2CECFAF000EF24
:102A300095F0E10E616F000E626F110E636F2CEC6A
:102A4000FAF000EF95F0E80E616F010E626F060E6E
:102A5000636F2CECFAF000EF95F093C105F094C190
:102A600006F005C066F006C067F0030E696FE80E59
:102A7000686F8FECF5F000016651300FEF6F030EB9
:102A8000636FE80E626F05C060F006C061F037EC5E
:102A9000F6F060C066F061C067F0000E0001696F7B
:102AA000640E686F8FECF5F000016651300FF06F27
:102AB000000E636F640E626F05C060F006C061F0C7
:102AC00037ECF6F060C066F061C067F0000E000100
:102AD000696F0A0E686F8FECF5F000016651300FD8
:102AE000F16F05C060F006C061F0000E636F0A0E62
:102AF000626F37ECF6F000016051300FF26FEF0EAD
:102B0000616F000E626F040E636F2CECFAF0050E1D
:102B10000001836F0F0E826FF10EE82EFED7822F19
:102B2000FCD7832FFAD7AC0E0001616FFF0E626FE6
:102B300019ECF8F0050E0001836F0F0E826FF10E95
:102B4000E82EFED7822FFCD7832FFAD720C005F0BE
:102B500021C006F005C066F006C067F0030E000154
:102B6000696FE80E686F8FECF5F000016651300F69
:102B7000EF6F030E636FE80E626F05C060F006C072
:102B800061F037ECF6F060C066F061C067F0000EEF
:102B90000001696F640E686F8FECF5F000016651FB
:102BA000300FF06F000E636F640E626F05C060F04F
:102BB00006C061F037ECF6F060C066F061C067F007
:102BC000000E0001696F0A0E686F8FECF5F00001CE
:102BD0006651300FF16F05C060F006C061F0000E65
:102BE000636F0A0E626F37ECF6F000016051300F30
:102BF000F26FEF0E616F000E626F040E636F2CECCC
:102C0000FAF000EF95F0E10E616F000E626F020EB8
:102C1000636F2CECFAF0050E0001836F0F0E826FCC
:102C2000F10EE82EFED7822FFCD7832FFAD7CE0ED7
:102C30000001616FFF0E626F19ECF8F0050E0001E4
:102C4000836F0F0E826FF10EE82EFED7822FFCD716
:102C5000832FFAD7C7C005F0C8C006F005C066F0DC
:102C600006C067F0270E0001696F100E686F8FECC9
:102C7000F5F000016651300FEF6F270E636F100EF5
:102C8000626F05C060F006C061F037ECF6F060C01E
:102C900066F061C067F0030E0001696FE80E686FAF
:102CA0008FECF5F000016651300FF06F030E636F8B
:102CB000E80E626F05C060F006C061F037ECF6F018
:102CC00060C066F061C067F0000E0001696F640EBD
:102CD000686F8FECF5F000016651300FF16F000E58
:102CE000636F640E626F05C060F006C061F037EC80
:102CF000F6F060C066F061C067F0000E0001696F19
:102D00000A0E686F8FECF5F000016651300FF26F1C
:102D100005C060F006C061F0000E636F0A0E626FBE
:102D200037ECF6F000016051300FF36FEF0E616F7A
:102D3000000E626F050E636F2CECFAF000EF95F059
:102D4000D00E0001826FC90EE82EFED7822FFCD76D
:102D500000D0E10E0001616F000E626F020E636F22
:102D60002CECFAF0D00E0001826FC90EE82EFED7CF
:102D7000822FFCD700D04F0E0001616FFF0E626FF3
:102D800019ECF8F0D00E0001826FC90EE82EFED7C4
:102D9000822FFCD700D01D502D0DD90EF324D96EF3
:102DA000040EF420DA6EDECF05F0DDCF06F005C0AC
:102DB00066F006C067F0000E0001696F640E686F70
:102DC0008FECF5F000016651300FE16F000E636F7C
:102DD000640E626F05C060F006C061F037ECF6F07B
:102DE00060C066F061C067F0000E0001696F0A0EF6
:102DF000686F8FECF5F000016651300FE26F05C08F
:102E000060F006C061F0000E636F0A0E626F37EC6F
:102E1000F6F000016051300FE36FE10E616F000EBC
:102E2000626F030E636F2CECFAF0D00E0001826F1C
:102E3000C90EE82EFED7822FFCD700D00B0E000162
:102E4000616FFF0E626F19ECF8F0D00E0001826F17
:102E5000C90EE82EFED7822FFCD700D01D502D0DB5
:102E6000F30EF324D96E040EF420DA6EDF50000165
:102E7000826F8251606F616B000E636F0A0E626F2A
:102E800042ECEFF000016051300FE16F1D502D0D4D
:102E9000F30EF324D96E040EF420DA6EDF50826F45
:102EA0008251726F736B000E756F0A0E746F01ECB6
:102EB000F0F000017251300FE26FE10E616F000E11
:102EC000626F020E636F2CECFAF0D00E0001826F7D
:102ED000C90EE82EFED7822FFCD700D0BE0E00010F
:102EE000616FFF0E626F19ECF8F0D00E0001826F77
:102EF000C90EE82EFED7822FFCD700D01D502D0D15
:102F0000D50EF324D96E040EF420DA6EDECF05F070
:102F1000DDCF06F005C066F006C067F0000E0001C8
:102F2000696F640E686F8FECF5F000016651300F29
:102F3000E16F000E636F640E626F05C060F006C043
:102F400061F037ECF6F060C066F061C067F0000E2B
:102F50000001696F0A0E686F8FECF5F00001665191
:102F6000300FE26F05C060F006C061F0000E636FC5
:102F70000A0E626F37ECF6F000016051300FE36F1C
:102F8000E10E616F000E626F030E636F2CECFAF0BE
:102F9000D00E0001826FC90EE82EFED7822FFCD71B
:102FA00000D0B80E0001616FFF0E626F19ECF8F0EF
:102FB000D00E0001826FC90EE82EFED7822FFCD7FB
:102FC00000D01D502D0DD70EF324D96E040EF42021
:102FD000DA6EDECF05F0DDCF06F005C066F006C084
:102FE00067F0000E0001696F640E686F8FECF5F0FA
:102FF00000016651300FE16F000E636F640E626F67
:1030000005C060F006C061F037ECF6F060C066F015
:1030100061C067F0000E0001696F0A0E686F8FECE7
:10302000F5F000016651300FE26F05C060F006C098
:1030300061F0000E636F0A0E626F37ECF6F000016C
:103040006051300FE36FE10E616F000E626F030E8F
:10305000636F2CECFAF0D00E0001826FC90EE82EDF
:10306000FED7822FFCD700D0730E0001616FFE0ED9
:10307000626F19ECF8F0D00E0001826FC90EE82ED5
:10308000FED7822FFCD700D01D502D0DF60EF32455
:10309000D96E040EF420DA6EDF500001826F825187
:1030A000606F616B000E636F0A0E626F42ECEFF0AF
:1030B00000016051300FE16F1D502D0DF60EF3240D
:1030C000D96E040EF420DA6EDF50826F8251726F77
:1030D000736B000E756F0A0E746F01ECF0F0000157
:1030E0007251300FE26FE10E616F000E626F020EDF
:1030F000636F2CECFAF0D00E0001826FC90EE82E3F
:10310000FED7822FFCD700D01D502D0DF70EF324D3
:10311000D96E040EF420DA6EDF500001826F825106
:10312000606F616B000E636F0A0E626F42ECEFF02E
:1031300000016051300FE16F1D502D0DF70EF3248B
:10314000D96E040EF420DA6EDF50826F8251726FF6
:10315000736B000E756F0A0E746F01ECF0F00001D6
:103160007251300FE26FE10E616F000E626F020E5E
:10317000636F2CECFAF0D00E0001826FC90EE82EBE
:10318000FED7822FFCD700D01D502D0DF80EF32452
:10319000D96E040EF420DA6EDF500001826F825186
:1031A000606F616B000E636F0A0E626F42ECEFF0AE
:1031B00000016051300FE16F1D502D0DF80EF3240A
:1031C000D96E040EF420DA6EDF50826F8251726F76
:1031D000736B000E756F0A0E746F01ECF0F0000156
:1031E0007251300FE26FE10E616F000E626F020EDE
:1031F000636F2CECFAF0D00E0001826FC90EE82E3E
:10320000FED7822FFCD700D01D502D0DF40EF324D5
:10321000D96E040EF420DA6EDF500001826F825105
:10322000606F616B000E636F0A0E626F42ECEFF02D
:1032300000016051300FE16F1D502D0DF40EF3248D
:10324000D96E040EF420DA6EDF50826F8251726FF5
:10325000736B000E756F0A0E746F01ECF0F00001D5
:103260007251300FE26FE10E616F000E626F020E5D
:10327000636F2CECFAF0D00E0001826FC90EE82EBD
:10328000FED7822FFCD700D01D502D0DF50EF32454
:10329000D96E040EF420DA6EDF500001826F825185
:1032A000606F616B000E636F0A0E626F42ECEFF0AD
:1032B00000016051300FE16F1D502D0DF50EF3240C
:1032C000D96E040EF420DA6EDF50826F8251726F75
:1032D000736B000E756F0A0E746F01ECF0F0000155
:1032E0007251300FE26FE10E616F000E626F020EDD
:1032F000636F2CECFAF0D00E0001826FC90EE82E3D
:10330000FED7822FFCD700D09E0E0001616FFC0E0D
:10331000626F19ECF8F01D502D0D000EF324D96EDC
:10332000050EF420DA6EDF50D8B499EF99F09BEFD8
:1033300099F0B1EF9AF00E0E0001616FF90E626F15
:1033400019ECF8F01D502D0DDB0EF324D96E040E90
:10335000F420DA6EDECF05F0DDCF06F005C066F0B2
:1033600006C067F0000E0001696F640E686F8FEC95
:10337000F5F000016651300FE16F000E636F640ECF
:10338000626F05C060F006C061F037ECF6F060C017
:1033900066F061C067F0000E0001696F0A0E686F89
:1033A0008FECF5F000016651300FE26F05C060F060
:1033B00006C061F0000E636F0A0E626F37ECF6F024
:1033C00000016051300FE36FE10E616F000E626F1C
:1033D000030E636F2CECFAF0D00E0001826FC90E61
:1033E000E82EFED7822FFCD700D04F0E0001616F70
:1033F000FF0E626F19ECF8F0D00E0001826FC90E5B
:10340000E82EFED7822FFCD700D01D502D0DDD0EEB
:10341000F324D96E040EF420DA6EDECF05F0DDCF92
:1034200006F005C066F006C067F0000E0001696F87
:10343000640E686F8FECF5F000016651300FE16F9C
:10344000000E636F640E626F05C060F006C061F02D
:1034500037ECF6F060C066F061C067F0000E000166
:10346000696F0A0E686F8FECF5F000016651300F3E
:10347000E26F05C060F006C061F0000E636F0A0ED7
:10348000626F37ECF6F000016051300FE36FE10E30
:10349000616F000E626F030E636F2CECFAF0D00EBA
:1034A0000001826FC90EE82EFED7822FFCD700D014
:1034B000F70E0001616FFD0E626F19ECF8F0D00E8F
:1034C0000001826FC90EE82EFED7822FFCD700D0F4
:1034D0001D502D0DF90EF324D96E040EF420DA6E72
:1034E000DF500001826F8251606F616B000E636F6D
:1034F0000A0E626F42ECEFF000016051300FE16F95
:103500001D502D0DF90EF324D96E040EF420DA6E41
:10351000DF50826F8251726F736B000E756F0A0EEF
:10352000746F01ECF0F000017251300FE26FE10EA8
:10353000616F000E626F020E636F2CECFAF0D00E1A
:103540000001826FC90EE82EFED7822FFCD700D073
:103550009E0E0001616FFC0E626F19ECF8F08EEFA9
:103560009CF02E0E0001616FF90E626F19ECF8F0FD
:10357000D00E0001826FC90EE82EFED7822FFCD735
:1035800000D08EEF9CF0D00E0001826FC90EE82EA5
:10359000FED7822FFCD700D05D0E0001616FFE0EBA
:1035A000626F19ECF8F0D00E0001826FC90EE82EA0
:1035B000FED7822FFCD700D017C060F00001616BEE
:1035C000000E636F0A0E626F42ECEFF00001605173
:1035D000300FE16F17C072F0736B000E756F0A0E3B
:1035E000746F01ECF0F000017251300FE26FE10EE8
:1035F000616F000E626F020E636F2CECFAF0D00E5A
:103600000001826FC90EE82EFED7822FFCD700D0B2
:103610007B0E0001616FFF0E626F19ECF8F0D00EA7
:103620000001826FC90EE82EFED7822FFCD700D092
:10363000F90E0001616FFE0E626F19ECF8F0D00E0A
:103640000001826FC90EE82EFED7822FFCD700D072
:1036500016C060F00001616B000E636F0A0E626FAE
:1036600042ECEFF000016051300FE16F16C072F0D4
:10367000736B000E756F0A0E746F01ECF0F00001B1
:103680007251300FE26FE10E616F000E626F020E39
:10369000636F2CECFAF0D00E0001826FC90EE82E99
:1036A000FED7822FFCD700D07B0E0001616FFF0E8A
:1036B000626F19ECF8F0D00E0001826FC90EE82E8F
:1036C000FED7822FFCD700D0020E0001616FFF0EE3
:1036D000626F19ECF8F0D00E0001826FC90EE82E6F
:1036E000FED7822FFCD700D015C060F00001616BBF
:1036F000000E636F0A0E626F42ECEFF00001605142
:10370000300FE16F15C072F0736B000E756F0A0E0B
:10371000746F01ECF0F000017251300FE26FE10EB6
:10372000616F000E626F020E636F2CECFAF0D00E28
:103730000001826FC90EE82EFED7822FFCD700D081
:10374000B20E0001616FFF0E626F19ECF8F0D00E3F
:103750000001826FC90EE82EFED7822FFCD700D061
:10376000680E0001616FFE0E626F19ECF8F0D00E6A
:103770000001826FC90EE82EFED7822FFCD700D041
:1037800014C060F00001616B000E636F0A0E626F7F
:1037900042ECEFF000016051300FE16F14C072F0A5
:1037A000736B000E756F0A0E746F01ECF0F0000180
:1037B0007251300FE26FE10E616F000E626F020E08
:1037C000636F2CECFAF0D00E0001826FC90EE82E68
:1037D000FED7822FFCD700D07B0E0001616FFF0E59
:1037E000626F19ECF8F0D00E0001826FC90EE82E5E
:1037F000FED7822FFCD700D0980E0001616FFB0E20
:10380000626F19ECF8F0D00E0001826FC90EE82E3D
:10381000FED7822FFCD700D0CBC005F0CCC006F07D
:1038200005C066F006C067F0000E0001696F640E07
:10383000686F8FECF5F000016651300FE16F000EFC
:10384000636F640E626F05C060F006C061F037EC14
:10385000F6F060C066F061C067F0000E0001696FAD
:103860000A0E686F8FECF5F000016651300FE26FC1
:1038700005C060F006C061F0000E636F0A0E626F53
:1038800037ECF6F000016051300FE36FE10E616F2D
:10389000000E626F030E636F2CECFAF0D00E000185
:1038A000826FC90EE82EFED7822FFCD700D0B20E51
:1038B0000001616FFF0E626F19ECF8F0B8EF9AF03B
:1038C00000018151826F836B8351000AD8B46BEF82
:1038D0009CF08EEF9CF08251010AD8B4F8EF94F07E
:1038E000030AD8B40FEF95F0010AD8B419EF95F098
:1038F000070AD8B423EF95F0010AD8B42DEF95F05C
:10390000030AD8B403EF96F0010AD8B4A0EF96F0FA
:103910000F0AD8B4C3EF9AF08EEF9CF0000E116E30
:10392000000E0001DF6F1A0E76ECFCF0090E0001AC
:10393000836F1E0E826FE40EE82EFED7822FFCD717
:10394000832FFAD700F0C9801150D8B4AAEF9CF0A9
:10395000ACEF9CF0A4EF9CF00E013885290E00011D
:10396000836F960E826F7F0EE82EFED7822FFCD7D4
:10397000832FFAD712000001D251D8B4C2EF9CF0C5
:10398000C4EF9CF043EFA1F007500810D8A4CBEF90
:103990009CF0CDEF9CF043EFA1F01050D8A4D3EFF2
:1039A0009CF0D5EF9CF043EFA1F0CF51D8A4DBEF12
:1039B0009CF0DDEF9CF043EFA1F0D051D8A4E3EFF1
:1039C0009CF0E5EF9CF043EFA1F0D351D8A4EBEFCE
:1039D0009CF0EDEF9CF043EFA1F0000E8A6F39EF01
:1039E000A1F08A512D0DFE0EF324D96E040EF420A1
:1039F000DA6EDE04D8A4FFEF9CF001EF9DF0CBEF70
:103A00009EF08A512D0D000EF324D96E050EF42080
:103A1000DA6EDF50D8B40FEF9DF011EF9DF0CBEFD1
:103A20009EF08A512D0DFB0EF324D96E040EF42066
:103A3000DA6EDE04D8A41FEF9DF021EF9DF0CBEFEE
:103A40009EF0520E0001856F2B0E846F000EE82E43
:103A5000FED7842FFCD7852FFAD700F09084000E74
:103A60000101AC6F000EAB6F000EAA6F000EA96FC4
:103A7000000EA86F000EA76F000EA66F000EA56FB8
:103A8000000E9C6F000E9B6F000E9A6F000E996FD8
:103A9000000E986F000E976F000E966F000E956FD8
:103AA000000ED16F000ED06F000ECF6F000ECE6FE4
:103AB00000018A512D0DDF0EF324D96E040EF4207F
:103AC000DA6EDECFB3F1DDCFB4F18A512D0DE10E08
:103AD000F324D96E040EF420DA6EDECFB1F1DDCF1F
:103AE000B2F18A512D0DE30EF324D96E040EF420A9
:103AF000DA6EDECFAFF1DDCFB0F18A512D0DE50EDC
:103B0000F324D96E040EF420DA6EDECFADF1DDCFF2
:103B1000AEF18A512D0DE70EF324D96E040EF42078
:103B2000DA6EDECFA3F1DDCFA4F18A512D0DE90EBF
:103B3000F324D96E040EF420DA6EDECFA1F1DDCFCE
:103B4000A2F18A512D0DEB0EF324D96E040EF42050
:103B5000DA6EDECF9FF1DDCFA0F18A512D0DED0E93
:103B6000F324D96E040EF420DA6EDECF9DF1DDCFA2
:103B70009EF18A512D0DEF0EF324D96E040EF42020
:103B8000DA6EDF501F6E8A512D0DF00EF324D96EC0
:103B9000040EF420DA6EDF500101D46F00018A5167
:103BA0002D0DF10EF324D96E040EF420DA6EDF50E1
:103BB0000101D36F00018A512D0DF20EF324D96E4D
:103BC000040EF420DA6EDF500101D26FB351B4114C
:103BD000D8B4EDEF9DF0EFEF9DF0F2EF9DF08E8603
:103BE000AB4BAC2BB151B211D8B4F9EF9DF0FBEF58
:103BF0009DF0FEEF9DF08E88A94BAA2BAF51B0111E
:103C0000D8B405EF9EF007EF9EF00AEF9EF08E8A83
:103C1000A74BA82BAD51AE11D8B411EF9EF013EF06
:103C20009EF016EF9EF08E8CA54BA62B00018A51BC
:103C30002D0DFB0EF324D96E040EF420DA6E020E65
:103C4000DF6E8A512D0D010EF324D96E050EF4207E
:103C5000DA6EDF50D8B42FEF9EF031EF9EF047EFD1
:103C60009EF08A512D0D010EF324D96E050EF4201D
:103C7000DA6E000EDF6E0FECECF063C0B5F164C0DD
:103C8000B6F1B5C107F0B6C108F053EF9EF08A5106
:103C90002D0DDD0EF324D96E040EF420DA6EDECF86
:103CA00007F0DDCF08F0090E0001856F1E0E846F4E
:103CB000E40EE82EFED7842FFCD7852FFAD700F02C
:103CC00000018A51020DCF0EF324F66EEB0EF420A4
:103CD000F76EF86A000EF8220900F5CF63F00A00CB
:103CE000F5CF64F08A512D0DD50EF324656F040EC7
:103CF000F420666F16ECEEF0090E0001856F1E0EC3
:103D0000846FE40EE82EFED7842FFCD7852FFAD7D8
:103D100000F004ECF1F0090E0001856F1E0E846FB7
:103D2000E40EE82EFED7842FFCD7852FFAD700F0BB
:103D3000090E00018A619FEF9EF0A1EF9EF0A8EFAF
:103D40009EF0300EE16F8A51310FE26FBDEF9EF0B1
:103D5000080E8A65AEEF9EF0B0EF9EF0BDEF9EF0CC
:103D60000C0E8A61B6EF9EF0B8EF9EF0BDEF9EF0AC
:103D7000310EE16F8A51270FE26F160E7D6FF60E3E
:103D80007E6FF50E7F6F000E806F020E816F90ECDC
:103D900094F02AEFA3F08A512D0DFE0EF324D96E74
:103DA000040EF420DA6EDE04D8A4D9EF9EF0DBEF27
:103DB0009EF027EFA0F08A512D0D000EF324D96E4E
:103DC000050EF420DA6EDF50D8B4E9EF9EF0EBEF89
:103DD0009EF027EFA0F08A512D0DFB0EF324D96E33
:103DE000040EF420DA6E020EDE18D8A4FAEF9EF06C
:103DF000FCEF9EF027EFA0F0520E0001856F2B0E16
:103E0000846F000EE82EFED7842FFCD7852FFAD7BB
:103E100000F090948E968E988E9A8E9C00018A5116
:103E20002D0DFB0EF324D96E040EF420DA6E030E72
:103E3000DF6E8A512D0DF90EF324D96E040EF42095
:103E4000DA6EDF068A512D0DF90EF324D96E040EB9
:103E5000F420DA6EDF50D8A430EF9FF032EF9FF0FD
:103E60003CEF9FF08A512D0D000EF324D96E050E04
:103E7000F420DA6E000EDF6E090E0001856F1E0E53
:103E8000846FE40EE82EFED7842FFCD7852FFAD757
:103E900000F000018A51020DCF0EF324F66EEB0EF6
:103EA000F420F76EF86A000EF8220900F5CF63F0EF
:103EB0000A00F5CF64F08A512D0DD50EF324656FFD
:103EC000040EF420666F47ECBAF0090E0001856F0E
:103ED0001E0E846FE40EE82EFED7842FFCD7852FAC
:103EE000FAD700F000018A512D0DD90EF324D96EB6
:103EF000040EF420DA6EDECF84F0DDCF85F08A5137
:103F00002D0DDD0EF324D96E040EF420DA6EDECF13
:103F100086F0DDCF87F08A512D0DDB0EF324D96EAC
:103F2000040EF420DA6EDECF88F0DDCF89F0881F32
:103F3000891F884B892B8651885F8751895B845103
:103F40008825076E85518921086E090E0001856F4D
:103F50001E0E846FE40EE82EFED7842FFCD7852F2B
:103F6000FAD700F004ECF1F0090E0001856F1E0E87
:103F7000846FE40EE82EFED7842FFCD7852FFAD766
:103F800000F0090E00018A61C8EF9FF0CAEF9FF0B0
:103F9000D1EF9FF0300EE16F8A51310FE26FE6EF03
:103FA0009FF0080E8A65D7EF9FF0D9EF9FF0E6EFFC
:103FB0009FF00C0E8A61DFEF9FF0E1EF9FF0E6EFDC
:103FC0009FF0310EE16F8A51270FE26F0101B95165
:103FD000D8B4EDEF9FF0EFEF9FF000EFA0F0000EF0
:103FE000B96F2E0E00017D6FF10E7E6FF50E7F6FA3
:103FF000000E806F020E816F90EC94F02AEFA3F018
:104000000001D451D8B407EFA0F009EFA0F019EFE8
:10401000A0F0000ED46FEA0E7D6FEF0E7E6FF50EEE
