:0400000055EF03F0C5
:060008004D8282EFC7F0FB
:100018004D80D8CF65F0E8CF66F0E0CF67F0E9CF44
:1000280068F0EACF69F0D9CF6AF0DACF6BF0F3CF96
:100038006CF0F4CF6DF0F6CF6EF0F7CF6FF0F8CF2D
:1000480070F0F5CF71F00E0133AB2DEF00F02FEF0C
:1000580000F0E0EF02F09096339BE30ED46EB00E02
:10006800D36E352A0001D151D211D8B43EEF00F039
:1000780040EF00F0C6EF00F090A045EF00F047EF2A
:1000880000F0C6EF00F0D107D8A0D2070101692B14
:100098003350D8B452EF00F054EF00F05CEF00F0AA
:1000A800030E33605AEF00F05CEF00F05DEF00F0F4
:1000B800332A0C0E096E020E0A6E1F0E0B6EF90E15
:1000C8000C6E000E0E6E050E0D6E39ECDEF009504A
:1000D8000A10D8A472EF00F074EF00F08FEF00F070
:1000E800110E096E020E0A6E2B0E0B6EF90E0C6EB7
:1000F800000E0E6E050E0D6E39ECDEF009500A107A
:10010800D8A489EF00F08BEF00F08FEF00F0D3EC6C
:10011800EFF001016A2B010169510001606F616B09
:1001280001016A510001626F636B010E6227000EC4
:1001380063236051625D6351800A646F6151800A74
:100148006459D8A0AAEF00F0ACEF00F0BAEF00F0C5
:10015800910E266EFD0E276E730E286E010E296E07
:10016800000E2A6E78EC8FF0C6EF00F0DC0E266EDB
:10017800FB0E276E730E286E010E296E000E2A6E76
:1001880078EC8FF090A4CBEF00F0CDEF00F015EFF6
:1001980002F08EA6D2EF00F0D4EF00F0EFEF00F0FF
:1001A800010145513D1907E146513E19D8A4DFEF39
:1001B80000F0E1EF00F0EBEF00F08E96000E3E6FDE
:1001C800000E3D6F2D4B2E2B6E2B1FEF01F03D4B7C
:1001D8003E2B1FEF01F08EB6F4EF00F0F6EF00F0C3
:1001E8001FEF01F0010135512D1907E136512E1984
:1001F800D8A401EF01F003EF01F01DEF01F07251F7
:100208006E5DD8B00AEF01F00CEF01F015EF01F0C8
:100218008E863D4B3E2B000E2E6F000E2D6F1FEF6E
:1002280001F0010E35252D6F000E36212E6F1FEFC0
:1002380001F02D4B2E2B8EA824EF01F026EF01F0B4
:1002480041EF01F0010143513B1907E144513C19C9
:10025800D8A431EF01F033EF01F03DEF01F08E98B3
:10026800000E3C6F000E3B6F2B4B2C2B6D2B71EF50
:1002780001F03B4B3C2B71EF01F08EB846EF01F0DB
:1002880048EF01F071EF01F0010133512B1907E13B
:1002980034512C19D8A453EF01F055EF01F06FEF4A
:1002A80001F071516D5DD8B05CEF01F05EEF01F0C7
:1002B80067EF01F08E883B4B3C2B000E2C6F000E35
:1002C8002B6F71EF01F0010E33252B6F000E3421D7
:1002D8002C6F71EF01F02B4B2C2B8EAA76EF01F0CF
:1002E80078EF01F093EF01F001014151391907E16D
:1002F80042513A19D8A483EF01F085EF01F08FEF4E
:1003080001F08E9A000E3A6F000E396F294B2A2B96
:100318006C2BC3EF01F0394B3A2BC3EF01F08EBAC7
:1003280098EF01F09AEF01F0C3EF01F001013151AC
:10033800291907E132512A19D8A4A5EF01F0A7EF2E
:1003480001F0C1EF01F070516C5DD8B0AEEF01F073
:10035800B0EF01F0B9EF01F08E8A394B3A2B000E5D
:100368002A6F000E296FC3EF01F0010E3125296FA6
:10037800000E32212A6FC3EF01F0294B2A2B8EACD5
:10038800C8EF01F0CAEF01F0E5EF01F001013F51BC
:10039800371907E140513819D8A4D5EF01F0D7EF44
:1003A80001F0E1EF01F08E9C000E386F000E376F00
:1003B800274B282B6B2B15EF02F0374B382B15EFFB
:1003C80002F08EBCEAEF01F0ECEF01F015EF02F05D
:1003D80001012F51271907E130512819D8A4F7EF47
:1003E80001F0F9EF01F013EF02F06F516B5DD8B037
:1003F80000EF02F002EF02F00BEF02F08E8C374BA9
:10040800382B000E286F000E276F15EF02F0010E33
:100418002F25276F000E3021286F15EF02F0274B8C
:10042800282B630E3418D8A41CEF02F01EEF02F03C
:1004380022EF02F0000E356EE0EF02F03404D8A48B
:1004480028EF02F02AEF02F03BEF02F00001DF5143
:100458003518D8A432EF02F034EF02F03BEF02F087
:10046800000E356E8A86020E346EE0EF02F0020E40
:100478003418D8A442EF02F044EF02F055EF02F02E
:100488000001DC513518D8A44CEF02F04EEF02F011
:1004980055EF02F0000E356E8A96030E346EE0EFCB
:1004A80002F0030E3418D8A45CEF02F05EEF02F0FD
:1004B8006FEF02F00001DE513518D8A466EF02F0A4
:1004C80068EF02F06FEF02F0000E356E8A88040EB6
:1004D800346EE0EF02F0040E3418D8A476EF02F080
:1004E80078EF02F089EF02F00001DC513518D8A44A
:1004F80080EF02F082EF02F089EF02F0000E356E15
:100508008A98050E346EE0EF02F0050E3418D8A470
:1005180090EF02F092EF02F0A3EF02F00001DE513B
:100528003518D8A49AEF02F09CEF02F0A3EF02F07E
:10053800000E356E8A8A060E346EE0EF02F0060E63
:100548003418D8A4AAEF02F0ACEF02F0BDEF02F025
:100558000001DC513518D8A4B4EF02F0B6EF02F070
:10056800BDEF02F0000E356E8A9A070E346EE0EF8A
:1005780002F0070E3418D8A4C4EF02F0C6EF02F058
:10058800E0EF02F035500001606F616B01014951E5
:100598000001601909E101014A5100016119D8A45B
:1005A800D8EF02F0DAEF02F0E0EF02F0000E356E5D
:1005B800010E346EE0EF02F00E0138A1E6EF02F012
:1005C800E8EF02F0EDEF02F090960101642B0E01C6
:1005D800389138A5F2EF02F0F4EF02F039EF03F0AA
:1005E80090963895F00EC86EDC0EC76E0101632B2D
:1005F8006351685DD8B003EF03F005EF03F02CEF0B
:1006080003F03150D8A40BEF03F00DEF03F02CEFFB
:1006180003F0010E316E000E636FC9905051D8B4CB
:1006280018EF03F01AEF03F01FEF03F0010E0001BB
:10063800D76F39EF03F06151D8B425EF03F027EFF6
:1006480003F039EF03F0010E0001DA6F39EF03F020
:100658003150D8B432EF03F034EF03F039EF03F040
:10066800000E636FC99039EF03F071C0F5FF70C0D9
:10067800F8FF6FC0F7FF6EC0F6FF6DC0F4FF6CC0E7
:10068800F3FF6BC0DAFF6AC0D9FF69C0EAFF68C030
:10069800E9FF67C0E0FF66C0E8FF65C0D8FF4D907E
:0606A8001000E2EFDCF09F
:10EB8A000049727269676174696F6E206973206ED9
:10EB9A006F74204163746976652E204665727469C4
:10EBAA00676174696F6E206E6F7420656E61626C46
:10EBBA00656420666F72206669656C64206E6F2ECC
:10EBCA000053797374656D2041757468656E746954
:10EBDA00636174656420776974682050686173653D
:10EBEA00206661696C7572652C2073757370656E29
:10EBFA0064696E6720616C6C20616374696F6E73FF
:10EC0A0000496E636F72726563742076616C756514
:10EC1A00732E204665727469676174696F6E206E1F
:10EC2A006F7420656E61626C656420666F7220661F
:10EC3A0069656C64206E6F2E00596F75206172656C
:10EC4A00206E6F206D6F72652041646D696E206E53
:10EC5A006F772E204E65772041646D696E20697347
:10EC6A002073657420746F0D0A0000005379737461
:10EC7A00656D207265736574206F63637572726562
:10EC8A00642C2049727269676174696F6E207365BA
:10EC9A007474696E672064656C6574656400497292
:10ECAA007269676174696F6E206973206163746940
:10ECBA0076652C204D6F746F72206C6F61642063CF
:10ECCA0075742D6F6666206E6F74207365740049C3
:10ECDA00727269676174696F6E20636F6E666967C5
:10ECEA0075726174696F6E2064697361626C6564C0
:10ECFA0020666F72206669656C64206E6F2E004D07
:10ED0A006F6973747572652073656E736F722066AE
:10ED1A0072657175656E63792076616C75652066BA
:10ED2A006F72206669656C64206E6F2E005379736A
:10ED3A0074656D2074696D652073796E63656420EE
:10ED4A00746F2063757272656E74206C6F63616C88
:10ED5A002074696D65004D6F6973747572652073EF
:10ED6A00656E736F72206973206661696C656420D1
:10ED7A00666F72206669656C64206E6F2E00497238
:10ED8A007269676174696F6E206E6F7420636F6E4B
:10ED9A006669677572656420666F72206669656C5C
:10EDAA0064206E6F2E0049727269676174696F6EB2
:10EDBA00206669656C64206D61707065642077698E
:10EDCA0074682076616C766573004972726967614E
:10EDDA0074696F6E20636F6E666967757265642009
:10EDEA00666F72206669656C64206E6F2E004D6FC7
:10EDFA00746F726C6F6164206375742D6F66662020
:10EE0A00736574207375636365737366756C6C7967
:10EE1A00004665727469676174696F6E206469730C
:10EE2A0061626C656420666F72206669656C642035
:10EE3A006E6F2E004665727469676174696F6E2021
:10EE4A00656E61626C656420666F72206669656CC6
:10EE5A0064206E6F2E0057617465722046696C7467
:10EE6A00726174696F6E206973206E6F7420656EAB
:10EE7A0061626C6564004C6F67696E20636F6465DC
:10EE8A00206368616E676564207375636365737375
:10EE9A0066756C6C79000000300060009000C0005C
:10EEAA00F000200150018001B001E001100240028F
:10EEBA007002A002D00257617465722066696C7490
:10EECA00726174696F6E20646561637469766174D6
:10EEDA00656400496E636F7272656374206C6F6358
:10EEEA00616C2074696D6520666F756E6400576188
:10EEFA007465722046696C74726174696F6E20530E
:10EF0A00657175656E63653A00576174657220664E
:10EF1A00696C74726174696F6E2061637469766179
:10EF2A007465640050686173652042206661696C8B
:10EF3A007572652064657465637465640050686100
:10EF4A0073652059206661696C7572652064657401
:10EF5A0065637465640057726F6E67206C6F6769CA
:10EF6A006E20636F646520666F756E64004C6F6710
:10EF7A00696E20636F6465206E6F74206368616ECA
:10EF8A006765640041646D696E20736574207375EA
:10EF9A00636365737366756C6C7900417574686533
:10EFAA006E7469636174696F6E206661696C656409
:10EFBA000054657374204461746120496E6A656304
:10EFCA007465640053797374656D20436F6E6E6562
:10EFDA006374656400466163746F7279204B657966
:10EFEA00203A20002B434D54493A2022534D222CDB
:10EFFA0078003132333435363738393132004745C3
:10F00A0054465245510045585452414354004441D4
:10F01A0043544956450044495341424C4500494EE0
:10F02A004A4543540041435449564500454E4142DE
:10F03A004C45004745544354004644415441004915
:10F04A00444C4500464545440054494D4500484F07
:10F05A004C4400484F4F4B002B3931005343540066
:10F06A004D415000534554004354006F6B004155C5
:10F07A00004472792052756E206465746563746504
:10F08A00642C204D6F746F722C204972726967610B
:10F09A0074696F6E20616E64204665727469676177
:10F0AA0074696F6E207377697463686564206F662C
:10F0BA00662E0D0A49727269676174696F6E2073F0
:10F0CA0063686564756C656420746F206E65787416
:10F0DA00206461792077697468206665727469674B
:10F0EA006174696F6E20666F72206669656C642050
:10F0FA006E6F2E0000004472792052756E2064658E
:10F10A007465637465642C204D6F746F7220616E30
:10F11A00642049727269676174696F6E20737769D6
:10F12A007463686564206F66662E0D0A4972726997
:10F13A00676174696F6E207363686564756C656472
:10F14A0020746F206E657874206461792077697401
:10F15A0068206665727469676174696F6E20666F8C
:10F16A0072206669656C64206E6F2E00000044721E
:10F17A00792052756E2064657465637465642C2009
:10F18A004D6F746F7220616E642049727269676193
:10F19A0074696F6E207377697463686564206F663B
:10F1AA00662E0D0A49727269676174696F6E2073FF
:10F1BA0063686564756C656420746F206E65787425
:10F1CA0020647565206461746520666F72206669C3
:10F1DA00656C64206E6F2E000000447279205275AF
:10F1EA006E2064657465637465642C204D6F746F5A
:10F1FA007220616E642049727269676174696F6E08
:10F20A00207377697463686564206F66662E0D0AD9
:10F21A0049727269676174696F6E207363686564A5
:10F22A00756C656420746F206E65787420646179EA
:10F23A0020666F72206669656C64206E6F2E00000E
:10F24A000053797374656D207265737461727465A5
:10F25A006420666F7220416C6C205068617365206F
:10F26A00446574656374696F6E2077697468206990
:10F27A006E636F6D706C657465204972726967613F
:10F28A0074696F6E20666F72206669656C64206EA1
:10F29A006F2E0053797374656D2072657374617291
:10F2AA0074656420666F7220506F77657220496EAC
:10F2BA0074657272757074207769746820696E63F8
:10F2CA006F6D706C657465204972726967617469E3
:10F2DA006F6E20666F72206669656C64206E6F2E91
:10F2EA000053797374656D20726573746172746505
:10F2FA006420696E20446961676E6F737469632064
:10F30A004D6F6465207769746820696E636F6D70EC
:10F31A006C6574652049727269676174696F6E20E1
:10F32A00666F72206669656C64206E6F2E00537971
:10F33A007374656D20726573746172746564206696
:10F34A006F72204C6F7720506F77657220496E205C
:10F35A007769746820696E636F6D706C6574652077
:10F36A0049727269676174696F6E20666F7220668E
:10F37A0069656C64206E6F2E0053797374656D2015
:10F38A0072657374617274656420666F7220537457
:10F39A0061636B204572726F7220776974682069A5
:10F3AA006E636F6D706C657465204972726967610E
:10F3BA0074696F6E20666F72206669656C64206E70
:10F3CA006F2E0053797374656D2072657374617260
:10F3DA0074656420666F72205744542054696D65C1
:10F3EA006F7574207769746820696E636F6D706CCD
:10F3FA006574652049727269676174696F6E206607
:10F40A006F72206669656C64206E6F2E00466572A5
:10F41A007469676174696F6E2073746F7070656464
:10F42A0020776974682066657274696C697A657296
:10F43A00206C6576656C2073656E736F72206661E9
:10F44A00696C75726520666F72206669656C6420E6
:10F45A006E6F2E004C6F772050686173652063755C
:10F46A007272656E742064657465637465642C20B9
:10F47A00616374696F6E732073757370656E64650A
:10F48A00642C20706C656173652072657374617297
:10F49A00742073797374656D004D6F697374757236
:10F4AA00652073656E736F72206973206661696C7B
:10F4BA0065642C2049727269676174696F6E207382
:10F4CA0074617274656420666F72206669656C6423
:10F4DA00206E6F2E0053797374656D207265737494
:10F4EA0061727465642077697468207068617365F5
:10F4FA00206661696C7572652C2073757370656E10
:10F50A0064696E6720616C6C20616374696F6E73E5
:10F51A00004665727469676174696F6E2073746FEF
:10F52A00707065642077697468206C6F77206665EF
:10F53A007274696C697A6572206C6576656C20668E
:10F54A006F72206669656C64206E6F2E0057657451
:10F55A00206669656C642064657465637465642EED
:10F56A000D0A49727269676174696F6E206E6F74F1
:10F57A00207374617274656420666F7220666965AF
:10F58A006C64206E6F2E00000053797374656D20D1
:10F59A007265736574206F636375727265642C207B
:10F5AA006C6F67696E20636F64652072657365743A
:10F5BA0020746F20466163746F7279207365747466
:10F5CA00696E670049727269676174696F6E206358
:10F5DA006F6D706C6574656420666F722064756502
:10F5EA00206669656C64730D0A4D6F746F722073BF
:10F5FA0077697463686564206F66660000004E650B
:10F60A007720525443206261747465727920666F60
:10F61A00756E642C20706C656173652073796E63F6
:10F62A002073797374656D2074696D65206D616EE0
:10F63A0075616C6C79004E65772052544320626183
:10F64A00747465727920666F756E642C2073797391
:10F65A0074656D2074696D65206973207365742003
:10F66A00746F206C6F63616C2074696D65004972F8
:10F67A007269676174696F6E2073746F7070656404
:10F68A0020776974686F757420726573706F6E7312
:10F69A00652066726F6D206669656C64206E6F2ED8
:10F6AA000049727269676174696F6E20736B697061
:10F6BA007065642077697468206E6F207265737054
:10F6CA006F6E73652066726F6D206669656C642063
:10F6DA006E6F3A0052544320426174746572792005
:10F6EA00666F756E64206C6F772C20706C65617321
:10F6FA0065207265706C61636520525443206261B3
:10F70A007474657279005068617365206661696C0A
:10F71A007572652064657465637465642C207375FD
:10F72A007370656E64696E6720616C6C20616374C6
:10F73A00696F6E73004E6F4C6F616420616E642056
:10F74A0046756C6C4C6F6164204D6F746F722074D7
:10F75A0068726573686F6C64732073657420746F64
:10F76A00203A200053797374656D20726573746151
:10F77A007274656420666F7220416C6C20506861F7
:10F78A00736520446574656374696F6E0053797399
:10F79A0074656D2072657374617274656420666F36
:10F7AA007220506F77657220496E74657272757037
:10F7BA00740053797374656D207265737461727421
:10F7CA00656420696E20446961676E6F737469634A
:10F7DA00206D6F6465004665727469676174696F4C
:10F7EA006E2073746F7070656420666F722066692C
:10F7FA00656C64206E6F2E00466572746967617469
:10F80A00696F6E207374617274656420666F72200A
:10F81A006669656C64206E6F2E0053797374656D2A
:10F82A002072657374617274656420666F722073E6
:10F83A007461636B206572726F72005379737465B9
:10F84A006D2072657374617274656420666F7220CC
:10F85A005744542074696D656F75740049727269F2
:10F86A00676174696F6E2073746F70706564206667
:10F87A006F72206669656C64206E6F2E0049727221
:10F88A0069676174696F6E2073746172746564204C
:10F89A00666F72206669656C64206E6F2E005379FC
:10F8AA007374656D20726573746172746564206621
:10F8BA006F72204C6F7720506F77657200506861C5
:10F8CA0073652052206661696C757265206465747F
:10F8DA00656374656400416C6C20506861736520CF
:10F8EA0064657465637465640043757272656E74E9
:10F8FA002054696D653A20004972726967617469BA
:10F90A006F6E204E6F3A0053454E534F52004D4191
:10F91A005354455200414C495645004552524F52A4
:10F92A0000534C4156450041434B004F4646004F59
:10F93A004E004665727469676174696F6E20656E00
:10F94A0061626C656420776974682064656C6179AA
:10F95A003A004665727469676174696F6E206E6FEA
:10F96A007420636F6E666967757265640D0A005369
:10F97A00797374656D204E6F742041757468656E75
:10F98A0074696361746564002A2A2A466163746F24
:10F99A0072792052657365742A2A2A2A0053797368
:10F9AA0074656D20436F6D706C6574652044617475
:10F9BA00610043757272656E7420496E2046756CDB
:10F9CA006C204C6F61640053797374656D204175C6
:10F9DA007468656E7469636174656400546F204469
:10F9EA00656C6574652049727269676174696F6EC6
:10F9FA0000496E204E6F204C6F616420436F6E6425
:10FA0A006974696F6E0053797374656D2069732028
:10FA1A00426F6F74696E6720557000437572736F19
:10FA2A007220486F6D65202620426C696E6B00411A
:10FA3A00542B434E4D493D312C312C302C302C3037
:10FA4A000D0A00576974682053656E736F722046F9
:10FA5A0061696C75726500436865636B696E6720DE
:10FA6A0047534D205369676E616C00546F20436899
:10FA7A0065636B2047534D205369676E616C004282
:10FA8A00686F6F6D69204A616C73616E6468617238
:10FA9A00616E00576972654C6573732049727269A9
:10FAAA00676174696F6E004C6F6164696E67205399
:10FABA00797374656D20446174610045786974696D
:10FACA006E6720446961676E6F737469630043757A
:10FADA007272656E7420496E204E6F204C6F61649D
:10FAEA000049727269676174696F6E20536B69703D
:10FAFA007065640049727269676174696F6E205338
:10FB0A00746F707065640049727269676174696FB5
:10FB1A006E20537461727465640049727269676118
:10FB2A0074696F6E2052756E6E696E6700507265E9
:10FB3A00737320526573657420427574746F6E0016
:10FB4A00546F2043616C696272617465204D6F74F1
:10FB5A006F72004E6F20446961676E6F73746963D8
:10FB6A00204D656E75002347455453454E534F52F9
:10FB7A003031534C41564500536570617261746966
:10FB8A006F6E2054696D653A200053797374656D00
:10FB9A002052756E6E696E6720496E0055736572E4
:10FBAA0020526567697374726174696F6E0043618C
:10FBBA006C6962726174696E67204D6F746F72004E
:10FBCA0046756C6C204C6F61642043757272656E69
:10FBDA0074004C6F7261206973206E6F7420616CBF
:10FBEA00697665006C63644261636B6C696768740B
:10FBFA00204F6E20006C63644261636B6C696768B6
:10FC0A0074204F66660057697468204E6F205265EB
:10FC1A0073706F6E7365004E6574776F726B2053E5
:10FC2A007472656E67746800546F2044656C6574FD
:10FC3A00652053797374656D00466163746F7279D8
:10FC4A002053657474696E6773006C636442616300
:10FC5A006B6C69676874204F6E004C6F7261206329
:10FC6A006F6E74726F6C6C65720041542B43534310
:10FC7A00533D2247534D220D0A004972726967614A
:10FC8A0074696F6E204461746100466163746F72B7
:10FC9A00792050696E436F646500446961676E6FCD
:10FCAA0073746963204D6F646500416C6C20506FFA
:10FCBA0077657220506861736500466F756E6420BF
:10FCCA004C6F772050686173650041542B53434C45
:10FCDA00415353303D310D0A00436F6E6E656374B4
:10FCEA00696E6720746F200053657474696E6720AB
:10FCFA0053797374656D00466F72204669656C644A
:10FD0A00204E6F3A200046726F6D204669656C641A
:10FD1A00204E6F3A00436F6E74726F6C2053797382
:10FD2A0074656D00546F2044656C65746520557365
:10FD3A006572002020202020202020202020202042
:10FD4A000041542B434D47443D312C340D0A005495
:10FD5A006F204C6F63616C2054696D6500466F7249
:10FD6A00204669656C64204E6F3A00466F756E6472
:10FD7A00204C6F77205254430050686173652046C7
:10FD8A0061696C757265004C6F72612069732061DC
:10FD9A006C697665007765742066726571206F6696
:10FDAA0020006472792066726571206F66200053A4
:10FDBA0075636365737366756C6C790044697370F7
:10FDCA006C6179204F6E2000437572736F72204800
:10FDDA006F6D6500446973706C6179204F666600C7
:10FDEA0041542B4346554E3D300D0A0041542B4396
:10FDFA004D47463D310D0A0041542B4346554E3D71
:10FE0A00310D0A0041542B434C54533D310D0A0025
:10FE1A0020497465726174696F6E3A0053656E6445
:10FE2A00696E6720534D530047534D204E657477D2
:10FE3A006F726B00437572736F72204F6666004172
:10FE4A00542B434C54533F0D0A000D0A44656C6110
:10FE5A0079313A20000D0A4F4E54696D653A2000F7
:10FE6A0020447565446174653A200041542B43432C
:10FE7A004C4B3F0D0A00556479616D69204C4C501A
:10FE8A000052657374696E6720546F00426C696E24
:10FE9A006B204F666600437572736F72204F6E0057
:10FEAA005665727920476F6F6400457863656C6C9C
:10FEBA00656E74006475652076616C766500426CC7
:10FECA00696E6B204F6E005072696E742061740007
:10FEDA0041542B4353510D0A0044656C6179323AFF
:10FEEA00200044656C6179333A2000204F46467001
:10FEFA0072643A004D6F646572617465004572728E
:10FF0A006F7220496E0056657279204C6F770053E4
:10FF1A00656C6563746564004465746563746564DF
:10FF2A000044656C6574696E6700204F4E70726498
:10FF3A003A00546F20557365720053657474696E84
:10FF4A0067004472792052756E004261747465725A
:10FF5A007900415445300D0A00415426570D0A00D4
:10FF6A00284D696E2920003C2D2D2D2D00403A3058
:10FF7A002C3000403A312C3100403A322C320040C9
:10FF8A003A332C33002D2D2D2D3E0020616E642036
:10FF9A0000284D696E2900205765743A0020447282
:10FFAA00793A00736C6565700054494D4500234FDA
:10FFBA004646002069732000506F6F7200536361D8
:10FFCA006E0031303025002564256300234F4E0032
:10FFDA004C4F570039372500393825003939250063
:10FFEA004352004552004E52004E4F0025640031E4
:05FFFA002500240000B9
:020000040001F9
:10000000FEECF0F0260E0001896FFE0E8A6F020EE4
:100010008B6F1AECDFF03C0E0001896FFF0E8A6FC8
:10002000030E8B6F1AECDFF01E0E0101686F810E5C
:100030000001736FFC0E746FDAECECF0090E000136
:10004000956F1E0E946FE40EE82EFED7942FFCD70A
:10005000952FFAD700F08FC073F090C074F0DAECEF
:10006000ECF0090E0001956F1E0E946FE40EE82E61
:10007000FED7942FFCD7952FFAD700F0A7EF87F083
:10008000370E736F000E746F0A0E756FE5ECEEF0AD
:10009000090E0001956F1E0E946FE40EE82EFED738
:1000A000942FFCD7952FFAD700F0D5EF87F0370EB5
:1000B000736F000E746F020E756FE5ECEEF048EF93
:1000C00080F0370E736F000E746F110E756FE5ECD4
:1000D000EEF048EF80F0860E736F010E746F060E1F
:1000E000756FE5ECEEF048EF80F025C1CFF026C14A
:1000F000D0F0CFC078F0D0C079F0030E7B6FE80E5F
:100100007A6F56ECE9F000017851300F456E030E1E
:10011000756FE80E746FCFC072F0D0C073F06BECE7
:10012000EAF072C078F073C079F0000E00017B6FC6
:10013000640E7A6F56ECE9F000017851300F466E8C
:10014000000E756F640E746FCFC072F0D0C073F084
:100150006BECEAF072C078F073C079F0000E000129
:100160007B6F0A0E7A6F56ECE9F000017851300F80
:10017000476ECFC072F0D0C073F0000E756F0A0EDC
:10018000746F6BECEAF000017251300F486E450E4F
:10019000736F000E746F040E756FE5ECEEF0050ED4
:1001A0000001956F0F0E946FF10EE82EFED7942F7D
:1001B000FCD7952FFAD7950E0001736FFF0E746F61
:1001C000DAECECF0050E0001956F0F0E946FF10E56
:1001D000E82EFED7942FFCD7952FFAD74BC0CFF03F
:1001E0004CC0D0F0CFC078F0D0C079F0030E000141
:1001F0007B6FE80E7A6F56ECE9F000017851300F12
:10020000456E030E756FE80E746FCFC072F0D0C0EC
:1002100073F06BECEAF072C078F073C079F0000E06
:1002200000017B6F640E7A6F56ECE9F000017851A3
:10023000300F466E000E756F640E746FCFC072F093
:10024000D0C073F06BECEAF072C078F073C079F054
:10025000000E00017B6F0A0E7A6F56ECE9F0000188
:100260007851300F476ECFC072F0D0C073F0000EDF
:10027000756F0A0E746F6BECEAF000017251300F6B
:10028000486E450E736F000E746F040E756FE5ECCB
:10029000EEF048EF80F0370E736F000E746F020EB1
:1002A000756FE5ECEEF0050E0001956F0F0E946F83
:1002B000F10EE82EFED7942FFCD7952FFAD7BD0E5E
:1002C0000001736FFF0E746FDAECECF0050E0001A5
:1002D000956F0F0E946FF10EE82EFED7942FFCD77A
:1002E000952FFAD7CBC0CFF0CCC0D0F0CFC078F0EC
:1002F000D0C079F0270E00017B6F100E7A6F56EC9C
:10030000E9F000017851300F456E270E756F100E21
:10031000746FCFC072F0D0C073F06BECEAF072C0B3
:1003200078F073C079F0030E00017B6FE80E7A6FEE
:1003300056ECE9F000017851300F466E030E756FF0
:10034000E80E746FCFC072F0D0C073F06BECEAF0BF
:1003500072C078F073C079F0000E00017B6F640EFC
:100360007A6F56ECE9F000017851300F476E000EBD
:10037000756F640E746FCFC072F0D0C073F06BEC09
:10038000EAF072C078F073C079F0000E00017B6F64
:100390000A0E7A6F56ECE9F000017851300F486E82
:1003A000CFC072F0D0C073F0000E756F0A0E746F7C
:1003B0006BECEAF000017251300F496E450E736F1D
:1003C000000E746F050E756FE5ECEEF048EF80F0EF
:1003D000D00E0001946FC90EE82EFED7942FFCD7E3
:1003E00000D0370E0001736F000E746F020E756F30
:1003F000E5ECEEF0D00E0001946FC90EE82EFED7AA
:10040000942FFCD700D0340E0001736FFF0E746F71
:10041000DAECECF0D00E0001946FC90EE82EFED796
:10042000942FFCD700D00001EB512D0DF80EF324D2
:10043000D96E040EF420DA6EDECFCFF0DDCFD0F02F
:10044000CFC078F0D0C079F0000E7B6F640E7A6F69
:1004500056ECE9F000017851300F376E000E756FE1
:10046000640E746FCFC072F0D0C073F06BECEAF022
:1004700072C078F073C079F0000E00017B6F0A0E35
:100480007A6F56ECE9F000017851300F386ECFC02A
:1004900072F0D0C073F0000E756F0A0E746F6BECC3
:1004A000EAF000017251300F396E370E736F000E93
:1004B000746F030E756FE5ECEEF0D00E0001946FD3
:1004C000C90EE82EFED7942FFCD700D0F50E000100
:1004D000736FFE0E746FDAECECF0D00E0001946FC7
:1004E000C90EE82EFED7942FFCD700D00001EB51A7
:1004F0002D0D120EF324D96E050EF420DA6EDF50A6
:10050000946F9451726F736B000E756F0A0E746F57
:10051000F1ECE3F000017251300F376EEB512D0D0D
:10052000120EF324D96E050EF420DA6EDF50946FAC
:100530009451846F856B000E876F0A0E866F6CEC8A
:10054000E5F000018451300F386E370E736F000EE6
:10055000746F020E756FE5ECEEF0D00E0001946F33
:10056000C90EE82EFED7942FFCD700D0A70E0001AD
:10057000736FFF0E746FDAECECF0D00E0001946F25
:10058000C90EE82EFED7942FFCD700D00001EB5106
:100590002D0DF40EF324D96E040EF420DA6EDECFA6
:1005A000CFF0DDCFD0F0CFC078F0D0C079F0000E22
:1005B0007B6F640E7A6F56ECE9F000017851300FD2
:1005C000376E000E756F640E746FCFC072F0D0C0BE
:1005D00073F06BECEAF072C078F073C079F0000E43
:1005E00000017B6F0A0E7A6F56ECE9F0000178513A
:1005F000300F386ECFC072F0D0C073F0000E756F40
:100600000A0E746F6BECEAF000017251300F396E14
:10061000370E736F000E746F030E756FE5ECEEF01E
:10062000D00E0001946FC90EE82EFED7942FFCD790
:1006300000D0A10E0001736FFF0E746FDAECECF0C6
:10064000D00E0001946FC90EE82EFED7942FFCD770
:1006500000D00001EB512D0DF60EF324D96E040EDF
:10066000F420DA6EDECFCFF0DDCFD0F0CFC078F05F
:10067000D0C079F0000E7B6F640E7A6F56ECE9F013
:1006800000017851300F376E000E756F640E746F75
:10069000CFC072F0D0C073F06BECEAF072C078F0AB
:1006A00073C079F0000E00017B6F0A0E7A6F56EC72
:1006B000E9F000017851300F386ECFC072F0D0C031
:1006C00073F0000E756F0A0E746F6BECEAF00001A8
:1006D0007251300F396E370E736F000E746F030E48
:1006E000756FE5ECEEF0D00E0001946FC90EE82EA8
:1006F000FED7942FFCD700D06A0E0001736FFE0E58
:10070000746FDAECECF0D00E0001946FC90EE82E95
:10071000FED7942FFCD700D00001EB512D0D150E04
:10072000F324D96E050EF420DA6EDF50946F9451E5
:10073000726F736B000E756F0A0E746FF1ECE3F05D
:1007400000017251300F376EEB512D0D150EF32451
:10075000D96E050EF420DA6EDF50946F9451846FD9
:10076000856B000E876F0A0E866F6CECE5F000015A
:100770008451300F386E370E736F000E746F020E97
:10078000756FE5ECEEF0D00E0001946FC90EE82E07
:10079000FED7942FFCD700D00001EB512D0D160E83
:1007A000F324D96E050EF420DA6EDF50946F945165
:1007B000726F736B000E756F0A0E746FF1ECE3F0DD
:1007C00000017251300F376EEB512D0D160EF324D0
:1007D000D96E050EF420DA6EDF50946F9451846F59
:1007E000856B000E876F0A0E866F6CECE5F00001DA
:1007F0008451300F386E370E736F000E746F020E17
:10080000756FE5ECEEF0D00E0001946FC90EE82E86
:10081000FED7942FFCD700D00001EB512D0D170E01
:10082000F324D96E050EF420DA6EDF50946F9451E4
:10083000726F736B000E756F0A0E746FF1ECE3F05C
:1008400000017251300F376EEB512D0D170EF3244E
:10085000D96E050EF420DA6EDF50946F9451846FD8
:10086000856B000E876F0A0E866F6CECE5F0000159
:100870008451300F386E370E736F000E746F020E96
:10088000756FE5ECEEF0D00E0001946FC90EE82E06
:10089000FED7942FFCD700D00001EB512D0D130E85
:1008A000F324D96E050EF420DA6EDF50946F945164
:1008B000726F736B000E756F0A0E746FF1ECE3F0DC
:1008C00000017251300F376EEB512D0D130EF324D2
:1008D000D96E050EF420DA6EDF50946F9451846F58
:1008E000856B000E876F0A0E866F6CECE5F00001D9
:1008F0008451300F386E370E736F000E746F020E16
:10090000756FE5ECEEF0D00E0001946FC90EE82E85
:10091000FED7942FFCD700D00001EB512D0D140E03
:10092000F324D96E050EF420DA6EDF50946F9451E3
:10093000726F736B000E756F0A0E746FF1ECE3F05B
:1009400000017251300F376EEB512D0D140EF32450
:10095000D96E050EF420DA6EDF50946F9451846FD7
:10096000856B000E876F0A0E866F6CECE5F0000158
:100970008451300F386E370E736F000E746F020E95
:10098000756FE5ECEEF0D00E0001946FC90EE82E05
:10099000FED7942FFCD700D0810E0001736FFC0EA0
:1009A000746FDAECECF00001EB512D0D1F0EF32407
:1009B000D96E050EF420DA6EDF50D8B4E2EF84F081
:1009C000E4EF84F0F9EF85F03C0E736FF90E746F6D
:1009D000DAECECF00001EB512D0DFA0EF324D96E98
:1009E000040EF420DA6EDECFCFF0DDCFD0F0CFC032
:1009F00078F0D0C079F0000E7B6F640E7A6F56EC01
:100A0000E9F000017851300F376E000E756F640EFB
:100A1000746FCFC072F0D0C073F06BECEAF072C0AC
:100A200078F073C079F0000E00017B6F0A0E7A6FC8
:100A300056ECE9F000017851300F386ECFC072F0FB
:100A4000D0C073F0000E756F0A0E746F6BECEAF095
:100A500000017251300F396E370E736F000E746FD4
:100A6000030E756FE5ECEEF0D00E0001946FC90E29
:100A7000E82EFED7942FFCD700D0340E0001736F00
:100A8000FF0E746FDAECECF0D00E0001946FC90E1B
:100A9000E82EFED7942FFCD700D00001EB512D0D8E
:100AA000FC0EF324D96E040EF420DA6EDECFCFF004
:100AB000DDCFD0F0CFC078F0D0C079F0000E7B6FE2
:100AC000640E7A6F56ECE9F000017851300F376E02
:100AD000000E756F640E746FCFC072F0D0C073F0EB
:100AE0006BECEAF072C078F073C079F0000E000190
:100AF0007B6F0A0E7A6F56ECE9F000017851300FE7
:100B0000386ECFC072F0D0C073F0000E756F0A0E51
:100B1000746F6BECEAF000017251300F396E370ED2
:100B2000736F000E746F030E756FE5ECEEF0D00E70
:100B30000001946FC90EE82EFED7942FFCD700D089
:100B40001A0E0001736FFE0E746FDAECECF0D00E2B
:100B50000001946FC90EE82EFED7942FFCD700D069
:100B60000001EB512D0D180EF324D96E050EF42063
:100B7000DA6EDF50946F9451726F736B000E756F65
:100B80000A0E746FF1ECE3F000017251300F376E12
:100B9000EB512D0D180EF324D96E050EF420DA6EEC
:100BA000DF50946F9451846F856B000E876F0A0E2F
:100BB000866F6CECE5F000018451300F386E370E13
:100BC000736F000E746F020E756FE5ECEEF0D00ED1
:100BD0000001946FC90EE82EFED7942FFCD700D0E9
:100BE000810E0001736FFC0E746FDAECECF0D5EF40
:100BF00087F05C0E736FF90E746FDAECECF0D00EC8
:100C00000001946FC90EE82EFED7942FFCD700D0B8
:100C1000D5EF87F0D00E0001946FC90EE82EFED7F5
:100C2000942FFCD700D0540E0001736FFE0E746F2A
:100C3000DAECECF0D00E0001946FC90EE82EFED76E
:100C4000942FFCD700D0DFC072F00001736B000E50
:100C5000756F0A0E746FF1ECE3F000017251300F02
:100C6000376EDFC084F0856B000E876F0A0E866FCB
:100C70006CECE5F000018451300F386E370E736F65
:100C8000000E746F020E756FE5ECEEF0D00E0001F1
:100C9000946FC90EE82EFED7942FFCD700D06A0EB1
:100CA0000001736FFF0E746FDAECECF0D00E0001F0
:100CB000946FC90EE82EFED7942FFCD700D0E30E18
:100CC0000001736FFE0E746FDAECECF0D00E0001D1
:100CD000946FC90EE82EFED7942FFCD700D0DEC04B
:100CE00072F00001736B000E756F0A0E746FF1ECF9
:100CF000E3F000017251300F376EDEC084F0856B77
:100D0000000E876F0A0E866F6CECE5F000018451CF
:100D1000300F386E370E736F000E746F020E756FE2
:100D2000E5ECEEF0D00E0001946FC90EE82EFED770
:100D3000942FFCD700D06A0E0001736FFF0E746F02
:100D4000DAECECF0D00E0001946FC90EE82EFED75D
:100D5000942FFCD700D0EC0E0001736FFE0E746F61
:100D6000DAECECF0D00E0001946FC90EE82EFED73D
:100D7000942FFCD700D0DDC072F00001736B000E21
:100D8000756F0A0E746FF1ECE3F000017251300FD1
:100D9000376EDDC084F0856B000E876F0A0E866F9C
:100DA0006CECE5F000018451300F386E370E736F34
:100DB000000E746F020E756FE5ECEEF0D00E0001C0
:100DC000946FC90EE82EFED7942FFCD700D09B0E4F
:100DD0000001736FFF0E746FDAECECF0D00E0001BF
:100DE000946FC90EE82EFED7942FFCD700D05F0E6B
:100DF0000001736FFE0E746FDAECECF0D00E0001A0
:100E0000946FC90EE82EFED7942FFCD700D0DCC01B
:100E100072F00001736B000E756F0A0E746FF1ECC7
:100E2000E3F000017251300F376EDCC084F0856B47
:100E3000000E876F0A0E866F6CECE5F0000184519E
:100E4000300F386E370E736F000E746F020E756FB1
:100E5000E5ECEEF0D00E0001946FC90EE82EFED73F
:100E6000942FFCD700D06A0E0001736FFF0E746FD1
:100E7000DAECECF0D00E0001946FC90EE82EFED72C
:100E8000942FFCD700D0820E0001736FFB0E746F9D
:100E9000DAECECF0D00E0001946FC90EE82EFED70C
:100EA000942FFCD700D049C1CFF04AC1D0F0CFC0B9
:100EB00078F0D0C079F0000E00017B6F640E7A6F7D
:100EC00056ECE9F000017851300F376E000E756F67
:100ED000640E746FCFC072F0D0C073F06BECEAF0A8
:100EE00072C078F073C079F0000E00017B6F0A0EBB
:100EF0007A6F56ECE9F000017851300F386ECFC0B0
:100F000072F0D0C073F0000E756F0A0E746F6BEC48
:100F1000EAF000017251300F396E370E736F000E18
:100F2000746F030E756FE5ECEEF0D00E0001946F58
:100F3000C90EE82EFED7942FFCD700D09B0E0001DF
:100F4000736FFF0E746FDAECECF0FFEF85F00001C9
:100F50009351946F956B9551000AD8B4B2EF87F016
:100F6000D5EF87F09451010AD8B440EF80F0030A1E
:100F7000D8B457EF80F0010AD8B461EF80F0070AC7
:100F8000D8B46BEF80F0010AD8B475EF80F0030A93
:100F9000D8B44BEF81F0010AD8B4E8EF81F00F0A22
:100FA000D8B40AEF86F0D5EF87F0000E316E000E50
:100FB0000001EC6F090E0001956F1E0E946FE40E98
:100FC000E82EFED7942FFCD7952FFAD700F0290EE4
:100FD0000001956F960E946F7F0EE82EFED7942F2A
:100FE000FCD7952FFAD7120066ECCCF012ECE5F0A6
:100FF000F9ECD9F00301F96F030EF919D8B403EF36
:1010000088F005EF88F062EF88F0FEECF0F0100E4B
:101010000001896FFA0E8A6F020E8B6F1AECDFF0F7
:10102000000E0301F86F000EF76F370E0101F76F26
:10103000000EF86FD10EF96FFF0EFA6F010E03016B
:10104000F7250001726F000E0301F8210001736F94
:10105000000E756F0A0E746F9DECF0F072C0FBF11C
:1010600073C0FCF1000E0101FE6F250EFD6F80ECD8
:10107000ECF0370E0001896F000E8A6F030E8B6F44
:101080001AECDFF0A30E0301F66F570EF56F020E98
:10109000E82EFED7F52FFCD7F62FFAD700F0030184
:1010A000F74BF82BF8BF5EEF88F0F85109E10A0E14
:1010B000F75DD8A05EEF88F060EF88F015EF88F05C
:1010C0006FEF88F0030EF919D8A469EF88F06BEF81
:1010D00088F06FEF88F055ECEEF046ECACF0E5EC04
:1010E000D6F0520E0301F66F2B0EF56F000EE82EB0
:1010F000FED7F52FFCD7F62FFAD700F0D5ECB6F0D7
:101100000001DB51D8B487EF88F089EF88F0A3EFB6
:1011100088F0FEECF0F0D10E0001896FF90E8A6FB5
:10112000020E8B6F1AECDFF0520E0301F66F2B0EDE
:10113000F56F000EE82EFED7F52FFCD7F62FFAD765
:1011400000F0B0EF88F0FEECF0F0790E0001896F4E
:10115000F90E8A6F020E8B6F1AECDFF094EF88F0B5
:10116000050E0301F66F0F0EF56FF10EE82EFED798
:10117000F52FFCD7F62FFAD7000E0101266F0A0EC5
:10118000256F000E4C6EC80E4B6E090E0301F66FF4
:101190001E0EF56FE40EE82EFED7F52FFCD7F62FC6
:1011A000FAD700F095ECDAF0090E0301F66F1E0E87
:1011B000F56FE40EE82EFED7F52FFCD7F62FFAD701
:1011C00000F00A0E0001E56F0A0EE66F0A0EE76FE7
:1011D0000A0EE46F0A0EE36F320EE26F19ECE7F0CD
:1011E000010E0101006F010E016F010E026F020E70
:1011F000036F010E046F030E056F000E0001EB6F0D
:10120000020EEB6506EF89F008EF89F00AEF89F02E
:10121000D5EF8AF0EB512D0DF80EF324D96E040EA4
:10122000F420DA6E050EDE6E000EDD6EEB512D0D34
:10123000120EF324D96E050EF420DA6E010EDF6E65
:10124000EB512D0D130EF324D96E050EF420DA6E3A
:101250000A0EDF6EEB512D0D140EF324D96E050E20
:10126000F420DA6E0B0EDF6EEB512D0D150EF3240C
:10127000D96E050EF420DA6E0A0EDF6EEB512D0DDD
:10128000160EF324D96E050EF420DA6E0A0EDF6E08
:10129000EB512D0D170EF324D96E050EF420DA6EE6
:1012A0000A0EDF6EEB512D0DF40EF324D96E040EF1
:1012B000F420DA6E640EDE6E000EDD6EEB512D0D45
:1012C000F60EF324D96E040EF420DA6E300EDE6EC4
:1012D000750EDD6EEB512D0D190EF324D96E050E32
:1012E000F420DA6EEB29DF6EEB512D0D1D0EF32489
:1012F000D96E050EF420DA6E000EDF6EEB512D0D67
:101300001B0EF324D96E050EF420DA6E010EDF6E8B
:10131000EB512D0D1C0EF324D96E050EF420DA6E60
:10132000010EDF6EEB512D0D1E0EF324D96E050E4E
:10133000F420DA6E010EDF6EEB512D0DFA0EF32460
:10134000D96E040EF420DA6E010EDE6E000EDD6E34
:10135000EB512D0DFC0EF324D96E040EF420DA6E41
:10136000020EDE6E000EDD6EEB512D0D180EF32415
:10137000D96E050EF420DA6EEB29DF6EEB512D0DE0
:101380001A0EF324D96E050EF420DA6E000EDF6E0D
:10139000EB512D0D200EF324D96E050EF420DA6EDC
:1013A000000EDF6EEB512D0D1F0EF324D96E050ECE
:1013B000F420DA6E010EDF6EEB51020DA00EF32465
:1013C000F66EEE0EF420F76EF86A000EF8220900B1
:1013D000F5CF75F00A00F5CF76F0EB512D0DF40E38
:1013E000F324776F040EF420786F5EECCFF0090ED3
:1013F0000301F66F1E0EF56FE40EE82EFED7F52FF3
:10140000FCD7F62FFAD700F00001EB51020DA00E29
:10141000F324F66EEE0EF420F76EF86A000EF82252
:101420000900F5CF75F00A00F5CF76F0EB512D0DE0
:10143000F40EF324776F040EF420786F8DECE3F054
:10144000090E0301F66F1E0EF56FE40EE82EFED7AF
:10145000F52FFCD7F62FFAD700F00001EB51020D63
:10146000A00EF324F66EEE0EF420F76EF86A000E6E
:10147000F8220900F5CF75F00A00F5CF76F0EB51B0
:101480002D0DF40EF324776F040EF420786F86ECA4
:10149000EDF0090E0301F66F1E0EF56FE40EE82E57
:1014A000FED7F52FFCD7F62FFAD700F00001EB514D
:1014B000020DA00EF324F66EEE0EF420F76EF86A1D
:1014C000000EF8220900F5CF75F00A00F5CF76F08E
:1014D000EB512D0DF40EF324776F040EF420786F8A
:1014E000B0ECEDF0090E0301F66F1E0EF56FE40E81
:1014F000E82EFED7F52FFCD7F62FFAD700F0000123
:10150000EB51020DA00EF324F66EEE0EF420F76EF2
:10151000F86A000EF8220900F5CF75F00A00F5CF41
:1015200076F0EB512D0DF40EF324776F040EF420BA
:10153000786F5CECEDF0090E0301F66F1E0EF56F8F
:10154000E40EE82EFED7F52FFCD7F62FFAD700F0E1
:101550000001EB51020DA00EF324F66EEE0EF42006
:10156000F76EF86A000EF8220900F5CF75F00A0050
:10157000F5CF76F0EB512D0DF40EF324776F040EBA
:10158000F420786F1BECB0F0090E0301F66F1E0E0D
:10159000F56FE40EE82EFED7F52FFCD7F62FFAD71D
:1015A00000F00001EB2B00EF89F0B6ECE4F0E5C0B1
:1015B00072F00001736B000E756F0A0E746FF1EC20
:1015C000E3F000017251300F376EE5C084F0856B97
:1015D000000E876F0A0E866F6CECE5F000018451F7
:1015E000300F386E2F0E396EE6C072F0736B000E3E
:1015F000756F0A0E746FF1ECE3F000017251300F59
:101600003A6EE6C084F0856B000E876F0A0E866F17
:101610006CECE5F000018451300F3B6E2F0E3C6EF8
:10162000E7C072F0736B000E756F0A0E746FF1EC09
:10163000E3F000017251300F3D6EE7C084F0856B1E
:10164000000E876F0A0E866F6CECE5F00001845186
:10165000300F3E6E200E3F6EE4C072F0736B000ED2
:10166000756F0A0E746FF1ECE3F000017251300FE8
:10167000406EE4C084F0856B000E876F0A0E866FA3
:101680006CECE5F000018451300F416E3A0E426E71
:10169000E3C072F0736B000E756F0A0E746FF1EC9D
:1016A000E3F000017251300F436EE3C084F0856BAC
:1016B000000E876F0A0E866F6CECE5F00001845116
:1016C000300F446E3A0E456EE2C072F0736B000E3E
:1016D000756F0A0E746FF1ECE3F000017251300F78
:1016E000466EE2C084F0856B000E876F0A0E866F2F
:1016F0006CECE5F000018451300F476E000EEC6F8A
:10170000F30E8F6FF80E906F730E916F010E926F44
:10171000030E936F00EC80F0000E0001EB6F090EDA
:10172000EB6195EF8BF097EF8BF09EEF8BF0300E27
:10173000376EEB51310F386EB3EF8BF0080EEB655F
:10174000A4EF8BF0A6EF8BF0B3EF8BF00C0EEB61F8
:10175000ACEF8BF0AEEF8BF0B3EF8BF0310E376E5A
:10176000EB51270F386E020E8F6FF90E906F730ECC
:10177000916F010E926F070E936F00EC80F0010ED7
:101780000001EB6F090EEB61C8EF8BF0CAEF8BF035
:10179000D1EF8BF0300E376EEB51310F386EE6EF34
:1017A0008BF0080EEB65D7EF8BF0D9EF8BF0E6EFFF
:1017B0008BF00C0EEB61DFEF8BF0E1EF8BF0E6EFDF
:1017C0008BF0310E376EEB51270F386E020E8F6F94
:1017D000F90E906F730E916F010E926F070E936F5B
:1017E00000EC80F00001DB51D8B4F9EF8BF0FBEF97
:1017F0008BF0C1EF8EF072ECE6F00009D8B403EF85
:101800008CF005EF8CF01BEF8CF0FF0E0001D26F17
:10181000DC0ED16FDF0E8F6FF40E906F730E916F31
:10182000010E926F000E936F00EC80F0010E01012B
:10183000566FC1EF8EF0000E0101666F000E0001C1
:10184000EB6F7EEF8DF0EB512D0D1D0EF324D96E55
:10185000050EF420DA6EDE04D8A431EF8CF033EFFD
:101860008CF07DEF8DF0EBC066F1B6ECE4F000019A
:10187000EB512D0D170EF324D96E050EF420DA6E00
:10188000E751DE5CD8A047EF8CF049EF8CF0E2EF37
:101890008CF0EB512D0D160EF324D96E050EF420AD
:1018A000DA6EE651DE5CD8B058EF8CF05AEF8CF06F
:1018B0006BEF8CF0EB512D0D170EF324D96E050E46
:1018C000F420DA6EE751DE18D8B469EF8CF06BEFD4
:1018D0008CF0E2EF8CF0EB512D0D150EF324D96E48
:1018E000050EF420DA6EE551DE5CD8B07AEF8CF0AC
:1018F0007CEF8CF09EEF8CF0EB512D0D160EF32447
:10190000D96E050EF420DA6EE651DE18D8A48BEFFE
:101910008CF08DEF8CF09EEF8CF0EB512D0D170EAF
:10192000F324D96E050EF420DA6EE751DE18D8B430
:101930009CEF8CF09EEF8CF0E2EF8CF0EB512D0DD4
:10194000130EF324D96E050EF420DA6EE451DE5C3A
:10195000D8B0ADEF8CF0AFEF8CF079EF8DF0EB51AC
:101960002D0D150EF324D96E050EF420DA6EE55117
:10197000DE18D8A4BEEF8CF0C0EF8CF079EF8DF0BC
:10198000EB512D0D160EF324D96E050EF420DA6EF0
:10199000E651DE18D8A4CFEF8CF0D1EF8CF079EFC0
:1019A0008DF0EB512D0D170EF324D96E050EF4209A
:1019B000DA6EE751DE18D8A4E0EF8CF0E2EF8CF09D
:1019C00079EF8DF0000ED86FEB512D0D1D0EF32425
:1019D000D96E050EF420DA6E000EDF6EEB512D0D80
:1019E0001B0EF324D96E050EF420DA6EEB512D0D8B
:1019F0001C0EF324E16E050EF420E26EDFCFE7FF4C
:101A0000EB512D0D1F0EF324D96E050EF420DA6E66
:101A1000DF50D8B40EEF8DF010EF8DF06AEF8DF03F
:101A2000EB512D0D1A0EF324D96E050EF420DA6E4B
:101A3000020EDE18D8A41FEF8DF021EF8DF03FEFDE
:101A40008DF0EB512D0D1A0EF324D96E050EF420F6
:101A5000DA6E000EDF6EEB512D0D200EF324D96EE1
:101A6000050EF420DA6E010EDF6EF2ECDFF075C0C9
:101A700047F176C048F11DECE6F06AEF8DF0EB51CE
:101A80002D0D1A0EF324D96E050EF420DA6E030E16
:101A9000DE18D8B44EEF8DF050EF8DF060EF8DF082
:101AA000EB512D0D1A0EF324D96E050EF420DA6ECB
:101AB000DE04D8A45EEF8DF060EF8DF06AEF8DF05C
:101AC000EB512D0D1A0EF324D96E050EF420DA6EAB
:101AD000000EDF6E090E0301F66F1E0EF56FE40EA9
:101AE000E82EFED7F52FFCD7F62FFAD700F086EFB9
:101AF0008DF0010ED86F86EF8DF0EB2B0B0EEB65A2
:101B000084EF8DF086EF8DF023EF8CF00001D8513B
:101B1000D8B48DEF8DF08FEF8DF09BEF8EF0010E2E
:101B200001015A6F090E0001EB6199EF8DF09BEFF7
:101B30008DF0A2EF8DF0300E376EEB51310F386E15
:101B400013EF8EF0080EEB65A8EF8DF0AAEF8DF085
:101B500013EF8EF00C0EEB61B0EF8DF0B2EF8DF065
:101B600013EF8EF0310E376EEB51270F386E13EFF7
:101B70008EF09D0E00018F6FF20E906F730E916FBD
:101B8000010E926F020E936F00EC80F039EF8EF031
:101B9000380E00018F6FF30E906F730E916F010E70
:101BA000926F020E936F00EC80F039EF8EF0EB0E27
:101BB00000018F6FF20E906F730E916F010E926F96
:101BC000020E936F00EC80F039EF8EF04B0E0001A7
:101BD0008F6FF20E906F730E916F010E926F020E67
:101BE000936F00EC80F039EF8EF0CD0E00018F6F17
:101BF000F30E906F730E916F010E926F020E936F42
:101C000000EC80F039EF8EF0830E00018F6FF30E41
:101C1000906F730E916F010E926F020E936F00EC36
:101C200080F039EF8EF00301F951F56FF66BF65144
:101C3000000AD8B41EEF8EF039EF8EF0F551010A8C
:101C4000D8B4B9EF8DF0030AD8B4C8EF8DF0010A0B
:101C5000D8B4D7EF8DF0070AD8B4E6EF8DF0010ABB
:101C6000D8B4F5EF8DF0030AD8B404EF8EF039EF55
:101C70008EF0F2ECDFF075C0D1F076C0D2F0C1EF9B
:101C80008EF0970E00018F6FF70E906F730E916FAD
:101C9000010E926F000E936F00EC80F0C1EF8EF09A
:101CA000A80E00018F6FF80E906F730E916F010EEA
:101CB000926F000E936F00EC80F0C1EF8EF0BC0EBF
:101CC00000018F6FF70E906F730E916F010E926F80
:101CD000000E936F00EC80F0C1EF8EF06E0E0001ED
:101CE0008F6FF70E906F730E916F010E926F000E53
:101CF000936F00EC80F0C1EF8EF0450E00018F6F06
:101D0000F80E906F730E916F010E926F000E936F2D
:101D100000EC80F0C1EF8EF0240E00018F6FF80E02
:101D2000906F730E916F010E926F000E936F00EC27
:101D300080F0C1EF8EF00301F951F56FF66BF651AB
:101D4000000AD8B4A6EF8EF0C1EF8EF0F551010A6B
:101D5000D8B441EF8EF0030AD8B450EF8EF0010AE8
:101D6000D8B45FEF8EF0070AD8B46EEF8EF0010A98
:101D7000D8B47DEF8EF0030AD8B48CEF8EF0C1EFAB
:101D80008EF0B9ECE7F00009D8B4C9EF8EF0CBEFD4
:101D90008EF001EF8FF0DE0E00018F6FF60E906F68
:101DA000730E916F010E926F000E936F00EC80F036
:101DB00001015251D8B4DFEF8EF0E1EF8EF077EFF2
:101DC0008FF00EECD5F0520E0301F66F2B0EF56F6F
:101DD000000EE82EFED7F52FFCD7F62FFAD700F02D
:101DE00019ECE7F0520E0301F66F2B0EF56F000EA3
:101DF000E82EFED7F52FFCD7F62FFAD700F077EFB5
:101E00008FF001015851D8B408EF8FF00AEF8FF02E
:101E10006DEF8FF0000E586F090E0301F66F1E0E66
:101E2000F56FE40EE82EFED7F52FFCD7F62FFAD784
:101E300000F096ECEBF0090E0301F66F1E0EF56F45
:101E4000E40EE82EFED7F52FFCD7F62FFAD700F0D8
:101E500001015251D8B42FEF8FF031EF8FF05EEFC8
:101E60008FF00EECD5F0520E0301F66F2B0EF56FCE
:101E7000000EE82EFED7F52FFCD7F62FFAD700F08C
:101E800019ECE7F0520E0301F66F2B0EF56F000E02
:101E9000E82EFED7F52FFCD7F62FFAD700F0400E2C
:101EA00000018F6FF60E906F730E916F010E926F9F
:101EB000000E936F00EC80F077EF8FF0080E0001BA
:101EC0008F6FF60E906F730E916F010E926F000E72
:101ED000936F00EC80F077EF8FF05251D8B473EF2E
:101EE0008FF075EF8FF077EF8FF0E1EF8EF012004B
:101EF00030ECF1F0260E206EFE0E216E020E226EE8
:101F00002FECE1F03C0E206EFF0E216E030E226ED0
:101F10002FECE1F01E0E0101686F810E0A6EFC0EBF
:101F20000B6E31ECEDF0090E2C6E1E0E2B6EE40ED6
:101F3000E82EFED72B2EFCD72C2EFAD700D026C0A9
:101F40000AF027C00BF031ECEDF0090E2C6E1E0EDE
:101F50002B6EE40EE82EFED72B2EFCD72C2EFAD7B4
:101F600000D077EF96F0370E0A6E000E0B6E0A0E59
:101F70000C6E49ECEFF0090E2C6E1E0E2B6EE40E6B
:101F8000E82EFED72B2EFCD72C2EFAD700D0A4EFAC
:101F900096F0370E0A6E000E0B6E020E0C6E49ECB8
:101FA000EFF0BBEF8FF0370E0A6E000E0B6E110EC6
:101FB0000C6E49ECEFF0BBEF8FF0860E0A6E010E4F
:101FC0000B6E060E0C6E49ECEFF0BBEF8FF025C1E7
:101FD000CFF026C1D0F0CFC00EF0D0C00FF0030E6E
:101FE000116EE80E106E91ECE9F00E50300F456E58
:101FF000030E0C6EE80E0B6ECFC009F0D0C00AF0D5
:1020000034ECEBF009C00EF00AC00FF0000E116EB8
:10201000640E106E91ECE9F00E50300F466E000E1B
:102020000C6E640E0B6ECFC009F0D0C00AF034EC19
:10203000EBF009C00EF00AC00FF0000E116E0A0E90
:10204000106E91ECE9F00E50300F476ECFC009F0E2
:10205000D0C00AF0000E0C6E0A0E0B6E34ECEBF0E2
:102060000950300F486E450E0A6E000E0B6E040EBE
:102070000C6E49ECEFF0050E2C6E0F0E2B6EF10E70
:10208000E82EFED72B2EFCD72C2EFAD700F0950E7B
:102090000A6EFF0E0B6E31ECEDF0050E2C6E0F0E7E
:1020A0002B6EF10EE82EFED72B2EFCD72C2EFAD756
:1020B00000F04BC0CFF04CC0D0F0CFC00EF0D0C07D
:1020C0000FF0030E116EE80E106E91ECE9F00E5059
:1020D000300F456E030E0C6EE80E0B6ECFC009F08C
:1020E000D0C00AF034ECEBF009C00EF00AC00FF0DB
:1020F000000E116E640E106E91ECE9F00E50300F70
:10210000466E000E0C6E640E0B6ECFC009F0D0C090
:102110000AF034ECEBF009C00EF00AC00FF0000E2C
:10212000116E0A0E106E91ECE9F00E50300F476EF2
:10213000CFC009F0D0C00AF0000E0C6E0A0E0B6E74
:1021400034ECEBF00950300F486E450E0A6E000E6D
:102150000B6E040E0C6E49ECEFF0BBEF8FF0370EF8
:102160000A6E000E0B6E020E0C6E49ECEFF0050EBF
:102170002C6E0F0E2B6EF10EE82EFED72B2EFCD7F9
:102180002C2EFAD700F0BD0E0A6EFF0E0B6E31EC4E
:10219000EDF0050E2C6E0F0E2B6EF10EE82EFED715
:1021A0002B2EFCD72C2EFAD700F0CBC0CFF0CCC012
:1021B000D0F0CFC00EF0D0C00FF0270E116E100E71
:1021C000106E91ECE9F00E50300F456E270E0C6E3C
:1021D000100E0B6ECFC009F0D0C00AF034ECEBF05B
:1021E00009C00EF00AC00FF0030E116EE80E106E5B
:1021F00091ECE9F00E50300F466E030E0C6EE80EB7
:102200000B6ECFC009F0D0C00AF034ECEBF009C07F
:102210000EF00AC00FF0000E116E640E106E91ECFD
:10222000E9F00E50300F476E000E0C6E640E0B6E10
:10223000CFC009F0D0C00AF034ECEBF009C00EF0CA
:102240000AC00FF0000E116E0A0E106E91ECE9F04C
:102250000E50300F486ECFC009F0D0C00AF0000E0B
:102260000C6E0A0E0B6E34ECEBF00950300F496E19
:10227000450E0A6E000E0B6E050E0C6E49ECEFF06B
:10228000BBEF8FF0D00E2B6ECA0EE82EFED72B2E92
:10229000FCD7370E0A6E000E0B6E020E0C6E49EC68
:1022A000EFF0D00E2B6ECA0EE82EFED72B2EFCD7E9
:1022B000340E0A6EFF0E0B6E31ECEDF0D00E2B6E6D
:1022C000CA0EE82EFED72B2EFCD70001EB512D0DA8
:1022D000F80EF324D96E040EF420DA6EDECFCFF0C0
:1022E000DDCFD0F0CFC00EF0D0C00FF0000E116ED9
:1022F000640E106E91ECE9F00E50300F376E000E48
:102300000C6E640E0B6ECFC009F0D0C00AF034EC36
:10231000EBF009C00EF00AC00FF0000E116E0A0EAD
:10232000106E91ECE9F00E50300F386ECFC009F00E
:10233000D0C00AF0000E0C6E0A0E0B6E34ECEBF0FF
:102340000950300F396E370E0A6E000E0B6E030EF9
:102350000C6E49ECEFF0D00E2B6ECA0EE82EFED7B5
:102360002B2EFCD7F50E0A6EFE0E0B6E31ECEDF047
:10237000D00E2B6ECA0EE82EFED72B2EFCD70001F6
:10238000EB512D0D120EF324D96E050EF420DA6EEA
:10239000DF502B6E2B50096E0A6A000E0C6E0A0E6F
:1023A0000B6E54ECE4F00950300F376E0001EB5126
:1023B0002D0D120EF324D96E050EF420DA6EDF50C7
:1023C0002B6E2B50096E0A6A000E0C6E0A0E0B6EF5
:1023D000C5ECE5F00950300F386E370E0A6E000E6E
:1023E0000B6E020E0C6E49ECEFF0D00E2B6ECA0E87
:1023F000E82EFED72B2EFCD7A70E0A6EFF0E0B6E13
:1024000031ECEDF0D00E2B6ECA0EE82EFED72B2E3F
:10241000FCD70001EB512D0DF40EF324D96E040E00
:10242000F420DA6EDECFCFF0DDCFD0F0CFC00EF0EB
:10243000D0C00FF0000E116E640E106E91ECE9F03A
:102440000E50300F376E000E0C6E640E0B6ECFC048
:1024500009F0D0C00AF034ECEBF009C00EF00AC06D
:102460000FF0000E116E0A0E106E91ECE9F00E5096
:10247000300F386ECFC009F0D0C00AF0000E0C6EDD
:102480000A0E0B6E34ECEBF00950300F396E370E3C
:102490000A6E000E0B6E030E0C6E49ECEFF0D00EC0
:1024A0002B6ECA0EE82EFED72B2EFCD7A10E0A6E7D
:1024B000FF0E0B6E31ECEDF0D00E2B6ECA0EE82E37
:1024C000FED72B2EFCD70001EB512D0DF60EF32479
:1024D000D96E040EF420DA6EDECFCFF0DDCFD0F06F
:1024E000CFC00EF0D0C00FF0000E116E640E106E53
:1024F00091ECE9F00E50300F376E000E0C6E640E4A
:102500000B6ECFC009F0D0C00AF034ECEBF009C07C
:102510000EF00AC00FF0000E116E0A0E106E91EC54
:10252000E9F00E50300F386ECFC009F0D0C00AF07D
:10253000000E0C6E0A0E0B6E34ECEBF00950300FEF
:10254000396E370E0A6E000E0B6E030E0C6E49ECE0
:10255000EFF0D00E2B6ECA0EE82EFED72B2EFCD736
:102560006A0E0A6EFE0E0B6E31ECEDF0D00E2B6E85
:10257000CA0EE82EFED72B2EFCD70001EB512D0DF5
:10258000150EF324D96E050EF420DA6EDF502B6E93
:102590002B50096E0A6A000E0C6E0A0E0B6E54EC7C
:1025A000E4F00950300F376E0001EB512D0D150E80
:1025B000F324D96E050EF420DA6EDF502B6E2B500B
:1025C000096E0A6A000E0C6E0A0E0B6EC5ECE5F081
:1025D0000950300F386E370E0A6E000E0B6E020E69
:1025E0000C6E49ECEFF0D00E2B6ECA0EE82EFED723
:1025F0002B2EFCD70001EB512D0D160EF324D96EB6
:10260000050EF420DA6EDF502B6E2B50096E0A6A2D
:10261000000E0C6E0A0E0B6E54ECE4F00950300FF5
:10262000376E0001EB512D0D160EF324D96E050EF9
:10263000F420DA6EDF502B6E2B50096E0A6A000E02
:102640000C6E0A0E0B6EC5ECE5F00950300F386EBB
:10265000370E0A6E000E0B6E020E0C6E49ECEFF098
:10266000D00E2B6ECA0EE82EFED72B2EFCD7000103
:10267000EB512D0D170EF324D96E050EF420DA6EF2
:10268000DF502B6E2B50096E0A6A000E0C6E0A0E7C
:102690000B6E54ECE4F00950300F376E0001EB5133
:1026A0002D0D170EF324D96E050EF420DA6EDF50CF
:1026B0002B6E2B50096E0A6A000E0C6E0A0E0B6E02
:1026C000C5ECE5F00950300F386E370E0A6E000E7B
:1026D0000B6E020E0C6E49ECEFF0D00E2B6ECA0E94
:1026E000E82EFED72B2EFCD70001EB512D0D130E3B
:1026F000F324D96E050EF420DA6EDF502B6E2B50CA
:10270000096E0A6A000E0C6E0A0E0B6E54ECE4F0B1
:102710000950300F376E0001EB512D0D130EF324CD
:10272000D96E050EF420DA6EDF502B6E2B50096E39
:102730000A6A000E0C6E0A0E0B6EC5ECE5F009502D
:10274000300F386E370E0A6E000E0B6E020E0C6ED6
:1027500049ECEFF0D00E2B6ECA0EE82EFED72B2ED2
:10276000FCD70001EB512D0D140EF324D96E050E8C
:10277000F420DA6EDF502B6E2B50096E0A6A000EC1
:102780000C6E0A0E0B6E54ECE4F00950300F376EED
:102790000001EB512D0D140EF324D96E050EF4201B
:1027A000DA6EDF502B6E2B50096E0A6A000E0C6E2B
:1027B0000A0E0B6EC5ECE5F00950300F386E370E7F
:1027C0000A6E000E0B6E020E0C6E49ECEFF0D00E8E
:1027D0002B6ECA0EE82EFED72B2EFCD7810E0A6E6A
:1027E000FC0E0B6E31ECEDF00001EB512D0D1F0EC8
:1027F000F324D96E050EF420DA6EDF50D8B403EF5F
:1028000094F005EF94F004EF95F03C0E0A6EF90E8B
:102810000B6E31ECEDF00001EB512D0DFA0EF324AF
:10282000D96E040EF420DA6EDECFCFF0DDCFD0F01B
:10283000CFC00EF0D0C00FF0000E116E640E106EFF
:1028400091ECE9F00E50300F376E000E0C6E640EF6
:102850000B6ECFC009F0D0C00AF034ECEBF009C029
:102860000EF00AC00FF0000E116E0A0E106E91EC01
:10287000E9F00E50300F386ECFC009F0D0C00AF02A
:10288000000E0C6E0A0E0B6E34ECEBF00950300F9C
:10289000396E370E0A6E000E0B6E030E0C6E49EC8D
:1028A000EFF0D00E2B6ECA0EE82EFED72B2EFCD7E3
:1028B000340E0A6EFF0E0B6E31ECEDF0D00E2B6E67
:1028C000CA0EE82EFED72B2EFCD70001EB512D0DA2
:1028D000FC0EF324D96E040EF420DA6EDECFCFF0B6
:1028E000DDCFD0F0CFC00EF0D0C00FF0000E116ED3
:1028F000640E106E91ECE9F00E50300F376E000E42
:102900000C6E640E0B6ECFC009F0D0C00AF034EC30
:10291000EBF009C00EF00AC00FF0000E116E0A0EA7
:10292000106E91ECE9F00E50300F386ECFC009F008
:10293000D0C00AF0000E0C6E0A0E0B6E34ECEBF0F9
:102940000950300F396E370E0A6E000E0B6E030EF3
:102950000C6E49ECEFF0D00E2B6ECA0EE82EFED7AF
:102960002B2EFCD71A0E0A6EFE0E0B6E31ECEDF01C
:10297000D00E2B6ECA0EE82EFED72B2EFCD70001F0
:10298000EB512D0D180EF324D96E050EF420DA6EDE
:10299000DF502B6E2B50096E0A6A000E0C6E0A0E69
:1029A0000B6E54ECE4F00950300F376E0001EB5120
:1029B0002D0D180EF324D96E050EF420DA6EDF50BB
:1029C0002B6E2B50096E0A6A000E0C6E0A0E0B6EEF
:1029D000C5ECE5F00950300F386E370E0A6E000E68
:1029E0000B6E020E0C6E49ECEFF0D00E2B6ECA0E81
:1029F000E82EFED72B2EFCD7810E0A6EFC0E0B6E36
:102A000031ECEDF0A4EF96F05C0E0A6EF90E0B6E51
:102A100031ECEDF0D00E2B6ECA0EE82EFED72B2E29
:102A2000FCD7A4EF96F0D00E2B6ECA0EE82EFED780
:102A30002B2EFCD7540E0A6EFE0E0B6E31ECEDF011
:102A4000D00E2B6ECA0EE82EFED72B2EFCD7DFC081
:102A500009F00A6A000E0C6E0A0E0B6E54ECE4F0DC
:102A60000950300F376EDFC009F00A6A000E0C6E95
:102A70000A0E0B6EC5ECE5F00950300F386E370EBC
:102A80000A6E000E0B6E020E0C6E49ECEFF0D00ECB
:102A90002B6ECA0EE82EFED72B2EFCD76A0E0A6EBE
:102AA000FF0E0B6E31ECEDF0D00E2B6ECA0EE82E41
:102AB000FED72B2EFCD7E30E0A6EFE0E0B6E31EC0A
:102AC000EDF0D00E2B6ECA0EE82EFED72B2EFCD7C3
:102AD000DEC009F00A6A000E0C6E0A0E0B6E54EC92
:102AE000E4F00950300F376EDEC009F00A6A000EBC
:102AF0000C6E0A0E0B6EC5ECE5F00950300F386E07
:102B0000370E0A6E000E0B6E020E0C6E49ECEFF0E3
:102B1000D00E2B6ECA0EE82EFED72B2EFCD76A0ED7
:102B20000A6EFF0E0B6E31ECEDF0D00E2B6ECA0E5E
:102B3000E82EFED72B2EFCD7EC0E0A6EFE0E0B6E87
:102B400031ECEDF0D00E2B6ECA0EE82EFED72B2EF8
:102B5000FCD7DDC009F00A6A000E0C6E0A0E0B6E7F
:102B600054ECE4F00950300F376EDDC009F00A6A0A
:102B7000000E0C6E0A0E0B6EC5ECE5F00950300F1E
:102B8000386E370E0A6E000E0B6E020E0C6E49EC9C
:102B9000EFF0D00E2B6ECA0EE82EFED72B2EFCD7F0
:102BA0009B0E0A6EFF0E0B6E31ECEDF0D00E2B6E0D
:102BB000CA0EE82EFED72B2EFCD75F0E0A6EFE0E35
:102BC0000B6E31ECEDF0D00E2B6ECA0EE82EFED758
:102BD0002B2EFCD7DCC009F00A6A000E0C6E0A0E20
:102BE0000B6E54ECE4F00950300F376EDCC009F086
:102BF0000A6A000E0C6E0A0E0B6EC5ECE5F0095069
:102C0000300F386E370E0A6E000E0B6E020E0C6E11
:102C100049ECEFF0D00E2B6ECA0EE82EFED72B2E0D
:102C2000FCD76A0E0A6EFF0E0B6E31ECEDF0D00E83
:102C30002B6ECA0EE82EFED72B2EFCD7820E0A6E04
:102C4000FB0E0B6E31ECEDF0D00E2B6ECA0EE82EA3
:102C5000FED72B2EFCD749C1CFF04AC1D0F0CFC050
:102C60000EF0D0C00FF0000E116E640E106E91ECDD
:102C7000E9F00E50300F376E000E0C6E640E0B6EC6
:102C8000CFC009F0D0C00AF034ECEBF009C00EF070
:102C90000AC00FF0000E116E0A0E106E91ECE9F0F2
:102CA0000E50300F386ECFC009F0D0C00AF0000EC1
:102CB0000C6E0A0E0B6E34ECEBF00950300F396ECF
:102CC000370E0A6E000E0B6E030E0C6E49ECEFF021
:102CD000D00E2B6ECA0EE82EFED72B2EFCD79B0EE5
:102CE0000A6EFF0E0B6E31ECEDF00AEF95F02A50F4
:102CF0002B6E2C6A2C50000AD8B481EF96F0A4EF0A
:102D000096F02B50010AD8B4B3EF8FF0030AD8B471
:102D1000C9EF8FF0010AD8B4D3EF8FF0070AD8B407
:102D2000DDEF8FF0010AD8B4E7EF8FF0030AD8B4D3
:102D3000AFEF90F0010AD8B442EF91F00F0AD8B487
:102D400013EF95F0A4EF96F0000E316E000E000127
:102D5000EC6F090E2C6E1E0E2B6EE40EE82EFED7C5
:102D60002B2EFCD72C2EFAD700D0290E2C6E960EC7
:102D70002B6E7F0EE82EFED72B2EFCD72C2EFAD7EB
:102D800000F012000001D851D8B4C9EF96F0CBEF93
:102D900096F051EF9BF0D151D211D8A4D2EF96F01A
:102DA000D4EF96F051EF9BF001015D51D8A4DBEF19
:102DB00096F0DDEF96F051EF9BF03050D8A4E3EFA2
:102DC00096F0E5EF96F051EF9BF05B51D8A4EBEF56
:102DD00096F0EDEF96F051EF9BF00001D951D8A499
:102DE000F4EF96F0F6EF96F051EF9BF0000E9C6F2B
:102DF00047EF9BF09C512D0D1D0EF324D96E050E4F
:102E0000F420DA6EDE04D8A408EF97F00AEF97F00A
:102E1000D6EF98F09C512D0D1F0EF324D96E050EA0
:102E2000F420DA6EDF50D8B418EF97F01AEF97F06D
:102E3000D6EF98F09C512D0D1A0EF324D96E050E85
:102E4000F420DA6EDE04D8A428EF97F02AEF97F08A
:102E5000D6EF98F0520E0001976F2B0E966F000E72
:102E6000E82EFED7962FFCD7972FFAD700F0908444
:102E7000000E01013E6F000E3D6F000E3C6F000E14
:102E80003B6F000E3A6F000E396F000E386F000E68
:102E9000376F000E2E6F000E2D6F000E2C6F000E80
:102EA0002B6F000E2A6F000E296F000E286F000E88
:102EB000276F000E6E6F000E6D6F000E6C6F000EB0
:102EC0006B6F00019C512D0DFE0EF324D96E040E84
:102ED000F420DA6EDECF45F1DDCF46F19C512D0DA9
:102EE000000EF324D96E050EF420DA6EDECF43F126
:102EF000DDCF44F19C512D0D020EF324D96E050E49
:102F0000F420DA6EDECF41F1DDCF42F19C512D0D80
:102F1000040EF324D96E050EF420DA6EDECF3FF1F5
:102F2000DDCF40F19C512D0D060EF324D96E050E18
:102F3000F420DA6EDECF35F1DDCF36F19C512D0D68
:102F4000080EF324D96E050EF420DA6EDECF33F1CD
:102F5000DDCF34F19C512D0D0A0EF324D96E050EF0
:102F6000F420DA6EDECF31F1DDCF32F19C512D0D40
:102F70000C0EF324D96E050EF420DA6EDECF2FF19D
:102F8000DDCF30F19C512D0D0E0EF324D96E050EC0
:102F9000F420DA6EDF500101726F00019C512D0D9B
:102FA0000F0EF324D96E050EF420DA6EDF50010106
:102FB000716F00019C512D0D100EF324D96E050E7A
:102FC000F420DA6EDF500101706F00019C512D0D6D
:102FD000110EF324D96E050EF420DA6EDF500101D4
:102FE0006F6F45514611D8B4F8EF97F0FAEF97F0AC
:102FF000FDEF97F08E863D4B3E2B43514411D8B4E4
:1030000004EF98F006EF98F009EF98F08E883B4BAC
:103010003C2B41514211D8B410EF98F012EF98F0C8
:1030200015EF98F08E8A394B3A2B3F514011D8B4A6
:103030001CEF98F01EEF98F021EF98F08E8C374B34
:10304000382B00019C512D0D1A0EF324D96E050E5C
:10305000F420DA6E020EDF6E9C512D0D200EF3244B
:10306000D96E050EF420DA6EDF50D8B43AEF98F03E
:103070003CEF98F052EF98F09C512D0D200EF32468
:10308000D96E050EF420DA6E000EDF6E87ECDFF0ED
:1030900075C047F176C048F147C1D1F048C1D2F0C0
:1030A0005EEF98F09C512D0DFC0EF324D96E040EAA
:1030B000F420DA6EDECFD1F0DDCFD2F0090E0001C0
:1030C000976F1E0E966FE40EE82EFED7962FFCD754
:1030D000972FFAD700F000019C51020DA00EF324A7
:1030E000F66EEE0EF420F76EF86A000EF822090074
:1030F000F5CF75F00A00F5CF76F09C512D0DF40E4A
:10310000F324776F040EF420786FC5ECE2F0090E1B
:103110000001976F1E0E966FE40EE82EFED7962FD5
:10312000FCD7972FFAD700F0C6ECE6F0090E0001A5
:10313000976F1E0E966FE40EE82EFED7962FFCD7E3
:10314000972FFAD700F0090E00019C61AAEF98F0C2
:10315000ACEF98F0B3EF98F0300E376E9C51310F12
:10316000386EC8EF98F0080E9C65B9EF98F0BBEF89
:1031700098F0C8EF98F00C0E9C61C1EF98F0C3EF87
:1031800098F0C8EF98F0310E376E9C51270F386ECB
:10319000020E8F6FF80E906F730E916F010E926F8B
:1031A000020E936F00EC80F03DEF9DF09C512D0DD1
:1031B0001D0EF324D96E050EF420DA6EDE04D8A4B9
:1031C000E4EF98F0E6EF98F032EF9AF09C512D0D75
:1031D0001F0EF324D96E050EF420DA6EDF50D8B43A
:1031E000F4EF98F0F6EF98F032EF9AF09C512D0D35
:1031F0001A0EF324D96E050EF420DA6E020EDE18D4
:10320000D8A405EF99F007EF99F032EF9AF0520E3B
:103210000001976F2B0E966F000EE82EFED7962FAB
:10322000FCD7972FFAD700F090948E968E988E9AAE
:103230008E9C00019C512D0D1A0EF324D96E050EA3
:10324000F420DA6E030EDF6E9C512D0D180EF32460
:10325000D96E050EF420DA6EDF069C512D0D180E86
:10326000F324D96E050EF420DA6EDF50D8A43BEFBC
:1032700099F03DEF99F047EF99F09C512D0D1F0EFD
:10328000F324D96E050EF420DA6E000EDF6E090EFF
:103290000001976F1E0E966FE40EE82EFED7962F54
:1032A000FCD7972FFAD700F000019C51020DA00E19
:1032B000F324F66EEE0EF420F76EF86A000EF82294
:1032C0000900F5CF75F00A00F5CF76F09C512D0D71
:1032D000F40EF324776F040EF420786F1BECB0F03B
:1032E000090E0001976F1E0E966FE40EE82EFED7B2
:1032F000962FFCD7972FFAD700F000019C512D0D87
:10330000F80EF324D96E040EF420DA6EDECF96F0B8
:10331000DDCF97F09C512D0DFC0EF324D96E040ED9
:10332000F420DA6EDECF98F0DDCF99F09C512D0DB0
:10333000FA0EF324D96E040EF420DA6EDECF9AF082
:10334000DDCF9BF09A1F9B1F9A4B9B2B98519A5F46
:1033500099519B5B96519A25D16F97519B21D26FC2
:10336000090E0001976F1E0E966FE40EE82EFED731
:10337000962FFCD7972FFAD700F0C6ECE6F0090E8F
:103380000001976F1E0E966FE40EE82EFED7962F63
:10339000FCD7972FFAD700F0090E00019C61D3EFFC
:1033A00099F0D5EF99F0DCEF99F0300E376E9C5123
:1033B000310F386EF1EF99F0080E9C65E2EF99F04D
:1033C000E4EF99F0F1EF99F00C0E9C61EAEF99F0BF
:1033D000ECEF99F0F1EF99F0310E376E9C51270F19
:1033E000386E01014E51D8B4F8EF99F0FAEF99F028
:1033F0000BEF9AF0000E4E6F1B0E00018F6FF50E53
:10340000906F730E916F010E926F020E936F00EC2E
:1034100080F03DEF9DF00001DA51D8B412EF9AF040
:1034200014EF9AF024EF9AF0000EDA6F170E8F6FF8
:10343000F40E906F730E916F010E926F020E936FE8
:1034400000EC80F03DEF9DF0E00E8F6FF70E906F77
:10345000730E916F010E926F020E936F00EC80F06D
:103460003DEF9DF09C512D0D1D0EF324D96E050EE0
:10347000F420DA6EDE04D8A440EF9AF042EF9AF01E
:1034800046EF9BF09C512D0D1D0EF324D96E050EB9
:10349000F420DA6E000EDF6E9C512D0D1B0EF3240E
:1034A000D96E050EF420DA6E9C512D0D1C0EF324FE
:1034B000E16E050EF420E26EDE50E618D8A463EF4C
:1034C0009AF065EF9AF071EF9AF09C512D0D1C0E59
:1034D000F324D96E050EF420DA6E010EDF6E7AEF5A
:1034E0009AF09C512D0D1C0EF324D96E050EF4207C
:1034F000DA6EDF2A000ED86F010E01015C6F000149
:103500009C290101666F090E0001976F1E0E966FD0
:10351000E40EE82EFED7962FFCD7972FFAD700F0AF
:1035200000019C51D0ECEAF0090E0001976F1E0ECD
:10353000966FE40EE82EFED7962FFCD7972FFAD77A
:1035400000F000019C51020DA00EF324F66EEE0E69
:10355000F420F76EF86A000EF8220900F5CF75F036
:103560000A00F5CF76F09C512D0DF40EF324776F01
:10357000040EF420786F86ECEDF0090E0001976FD1
:103580001E0E966FE40EE82EFED7962FFCD7972FCF
:10359000FAD700F000019C51020DA00EF324F66E44
:1035A000EE0EF420F76EF86A000EF8220900F5CF4F
:1035B00075F00A00F5CF76F09C512D0DF40EF32432
:1035C000776F040EF420786FB0ECEDF0090E000177
:1035D000976F1E0E966FE40EE82EFED7962FFCD73F
:1035E000972FFAD700F000019C512D0D1F0EF324E8
:1035F000D96E050EF420DA6EDF50D8B402EF9BF0DE
:1036000004EF9BF03DEF9DF09C512D0D1A0EF3241D
:10361000D96E050EF420DA6E000EDF6E090E000181
:10362000976F1E0E966FE40EE82EFED7962FFCD7EE
:10363000972FFAD700F000019C51020DA00EF32441
:10364000F66EEE0EF420F76EF86A000EF82209000E
:10365000F5CF75F00A00F5CF76F09C512D0DF40EE4
:10366000F324776F040EF420786FC5ECE2F0090EB6
:103670000001976F1E0E966FE40EE82EFED7962F70
:10368000FCD7972FFAD700F03DEF9DF09C2B0B0E47
:103690009C654DEF9BF04FEF9BF0FAEF96F03DEFFE
:1036A0009DF001015B51D8B458EF9BF05AEF9BF0AD
:1036B0003DEF9DF0000E5B6F000E00019C6F35EF3B
:1036C0009DF09C512D0D1D0EF324D96E050EF42096
:1036D000DA6EDE04D8A46FEF9BF071EF9BF034EF4D
:1036E0009DF09C512D0D1E0EF324D96E050EF42075
:1036F000DA6EDF50D8A47FEF9BF081EF9BF070EF84
:103700009CF09C512D0D1D0EF324D96E050EF42056
:10371000DA6E000EDF6E9C512D0D1B0EF324D96E58
:10372000050EF420DA6E9C512D0D1C0EF324E16E73
:10373000050EF420E26EDE50E618D8A4A2EF9BF04E
:10374000A4EF9BF0B0EF9BF09C512D0D1C0EF324C9
:10375000D96E050EF420DA6E010EDF6EB9EF9BF024
:103760009C512D0D1C0EF324D96E050EF420DA6E3B
:10377000DF2A9C512D0D1A0EF324D96E050EF4206C
:10378000DA6E020EDE18D8A4C8EF9BF0CAEF9BF0E9
:1037900001EF9CF090948E968E988E9A8E9C9C5100
:1037A0002D0D1A0EF324D96E050EF420DA6E000EDC
:1037B000DF6E9C51020DA00EF324F66EEE0EF42087
:1037C000F76EF86A000EF8220900F5CF75F00A00CE
:1037D000F5CF76F09C512D0DF40EF324776F040E87
:1037E000F420786FC5ECE2F0090E0001976F1E0E11
:1037F000966FE40EE82EFED7962FFCD7972FFAD7B8
:1038000000F0000E0001D86F010E01015C6F000195
:103810009C290101666F090E0001976F1E0E966FBD
:10382000E40EE82EFED7962FFCD7972FFAD700F09C
:1038300000019C51D0ECEAF0090E0001976F1E0EBA
:10384000966FE40EE82EFED7962FFCD7972FFAD767
:1038500000F000019C51020DA00EF324F66EEE0E56
:10386000F420F76EF86A000EF8220900F5CF75F023
:103870000A00F5CF76F09C512D0DF40EF324776FEE
:10388000040EF420786F86ECEDF0090E0001976FBE
:103890001E0E966FE40EE82EFED7962FFCD7972FBC
:1038A000FAD700F000019C51020DA00EF324F66E31
:1038B000EE0EF420F76EF86A000EF8220900F5CF3C
:1038C00075F00A00F5CF76F09C512D0DF40EF3241F
:1038D000776F040EF420786FB0ECEDF037EF9BF0CB
:1038E0009C512D0D1A0EF324D96E050EF420DA6EBC
:1038F000DE04D8A47EEF9CF080EF9CF0ADEF9CF04E
:10390000F2ECDFF075C0D1F076C0D2F000019C512E
:103910002D0DFA0EF324D96E040EF420DA6EDECFEC
:1039200096F0DDCF97F09C512D0DF80EF324D96E53
:10393000040EF420DA6EDECF98F0DDCF99F09651C8
:10394000985F9751995BD1519825D16FD2519921A8
:10395000D26FC6ECE6F037EF9BF09C512D0D1A0E9E
:10396000F324D96E050EF420DA6E020EDE18D8A408
:10397000BCEF9CF0BEEF9CF034EF9DF090948E96DF
:103980008E988E9A8E9C9C512D0D1A0EF324D96E12
:10399000050EF420DA6E000EDF6E9C51020DA00EB3
:1039A000F324F66EEE0EF420F76EF86A000EF8229D
:1039B0000900F5CF75F00A00F5CF76F09C512D0D7A
:1039C000F40EF324776F040EF420786FC5ECE2F068
:1039D000090E0001976F1E0E966FE40EE82EFED7BB
:1039E000962FFCD7972FFAD700F0F2ECDFF075C0D6
:1039F000D1F076C0D2F000019C512D0DF80EF324C9
:103A0000D96E040EF420DA6EDECF96F0DDCF97F09B
:103A10009C512D0DFC0EF324D96E040EF420DA6EA9
:103A2000DECF98F0DDCF99F09C512D0DFA0EF324E6
:103A3000D96E040EF420DA6EDECF9AF0DDCF9BF063
:103A40009A1F9B1F9A4B9B2B98519A5F99519B5B96
:103A500096519A2797519B23D1519A25D16FD251D4
:103A60009B21D26FA9EF9CF09C2B0B0E9C653BEF2A
:103A70009DF03DEF9DF061EF9BF01200050E0001FF
:103A80007A6F0F0E796FF10EE82EFED7792FFCD7E3
:103A90007A2FFAD775C072F076C073F0D9ECF0F0D7
:103AA0000001796F7951CF6FD06B050E00017A6FED
:103AB0000F0E796FF10EE82EFED7792FFCD77A2FF3
:103AC000FAD7FF0E0001CF17000ED017010E752593
:103AD000726F000E7621736FD9ECF0F00001796FF0
:103AE0007951CD6FCE6B050E00017A6F0F0E796F95
:103AF000F10EE82EFED7792FFCD77A2FFAD70001E6
:103B0000CD51CE6FCD6B000ECD17FF0ECE17CD5120
:103B1000CF11796FCE51D0117A6F77C0D9FF78C0AD
:103B2000DAFF79C0DEFF7AC0DDFF020E7525726F05
:103B3000000E7621736FD9ECF0F00001796F7951A6
:103B4000CF6FD06B050E00017A6F0F0E796FF10EFB
:103B5000E82EFED7792FFCD77A2FFAD7FF0E000177
:103B6000CF17000ED017030E7525726F000E762149
:103B7000736FD9ECF0F00001796F7951CD6FCE6B96
:103B8000050E00017A6F0F0E796FF10EE82EFED749
:103B9000792FFCD77A2FFAD70001CD51CE6FCD6B9C
:103BA000000ECD17FF0ECE17CD51CF11796FCE512C
:103BB000D0117A6F20EE02F07751D9267851DA22AF
:103BC00079C0DEFF7AC0DDFF040E7525726F000E2E
:103BD0007621736FD9ECF0F00001796F7951CF6FD6
:103BE000D06B050E00017A6F0F0E796FF10EE82E83
:103BF000FED7792FFCD77A2FFAD7FF0E0001CF1707
:103C0000000ED017050E7525726F000E7621736FAA
:103C1000D9ECF0F00001796F7951CD6FCE6B050EC4
:103C200000017A6F0F0E796FF10EE82EFED7792F13
:103C3000FCD77A2FFAD70001CD51CE6FCD6B000E95
:103C4000CD17FF0ECE17CD51CF11796FCE51D011B8
:103C50007A6F20EE04F07751D9267851DA2279C0B4
:103C6000DEFF7AC0DDFF050E00017A6F0F0E796F5F
:103C7000F10EE82EFED7792FFCD77A2FFAD7060E51
:103C800000017525726F000E7621736FD9ECF0F08C
:103C90000001796F7951CF6FD06B050E00017A6FFB
:103CA0000F0E796FF10EE82EFED7792FFCD77A2F01
:103CB000FAD7FF0E0001CF17000ED017070E75259B
:103CC000726F000E7621736FD9ECF0F00001796FFE
:103CD0007951CD6FCE6BCD51CE6FCD6B000ECD1720
:103CE000FF0ECE17CD51CF11796FCE51D0117A6F13
:103CF00020EE06F07751D9267851DA2279C0DEFF1E
:103D00007AC0DDFF050E00017A6F0F0E796FF10E9C
:103D1000E82EFED7792FFCD77A2FFAD7080E0001AC
:103D20007525726F000E7621736FD9ECF0F00001EB
:103D3000796F7951CF6FD06B050E00017A6F0F0E3E
:103D4000796FF10EE82EFED7792FFCD77A2FFAD7AC
:103D5000FF0E0001CF17000ED017090E7525726FE8
:103D6000000E7621736FD9ECF0F00001796F795174
:103D7000CD6FCE6BCD51CE6FCD6B000ECD17FF0E3C
:103D8000CE17CD51CF11796FCE51D0117A6F20EE71
:103D900008F07751D9267851DA2279C0DEFF7AC04F
:103DA000DDFF050E00017A6F0F0E796FF10EE82E20
:103DB000FED7792FFCD77A2FFAD70A0E0001752586
:103DC000726F000E7621736FD9ECF0F00001796FFD
:103DD0007951CF6FD06B050E00017A6F0F0E796F9E
:103DE000F10EE82EFED7792FFCD77A2FFAD7FF0EE7
:103DF0000001CF17000ED0170B0E7525726F000E45
:103E00007621736FD9ECF0F00001796F7951CD6FA5
:103E1000CE6BCD51CE6FCD6B000ECD17FF0ECE17F2
:103E2000CD51CF11796FCE51D0117A6F20EE0AF0BB
:103E30007751D9267851DA2279C0DEFF7AC0DDFFCA
:103E4000050E00017A6F0F0E796FF10EE82EFED786
:103E5000792FFCD77A2FFAD70C0E00017525726FD7
:103E6000000E7621736FD9ECF0F00001796F795173
:103E7000CF6FD06B050E00017A6F0F0E796FF10EC8
:103E8000E82EFED7792FFCD77A2FFAD7FF0E000144
:103E9000CF17000ED0170D0E7525726F000E76210C
:103EA000736FD9ECF0F00001796F7951CD6FCE6B63
:103EB000CD51CE6FCD6B000ECD17FF0ECE17CD516D
:103EC000CF11796FCE51D0117A6F20EE0CF077516F
:103ED000D9267851DA2279C0DEFF7AC0DDFF050EDF
:103EE00000017A6F0F0E796FF10EE82EFED7792F51
:103EF000FCD77A2FFAD70E0E00017525726F000ECF
:103F00007621736FD9ECF0F00001796F7951CF6FA2
:103F1000D06B050E00017A6F0F0E796FF10EE82E4F
:103F2000FED7792FFCD77A2FFAD7FF0E0001CF17D3
:103F3000000ED0170F0E7525726F000E7621736F6D
:103F4000D9ECF0F00001796F7951CD6FCE6BCD5186
:103F5000CE6FCD6B000ECD17FF0ECE17CD51CF110A
:103F6000796FCE51D0117A6F20EE0EF07751D926AD
:103F70007851DA2279C0DEFF7AC0DDFF050E00013C
:103F80007A6F0F0E796FF10EE82EFED7792FFCD7DE
:103F90007A2FFAD7100E00017525726F000E762168
:103FA000736FD9ECF0F00001796F7951CF6FD06B5E
:103FB000050E00017A6F0F0E796FF10EE82EFED715
