:040000000FEF03F00B
:06000800438211EFDBF062
:100018004380D8CF38F0E8CF39F0E0CF3AF0E9CFD5
:100028003BF0EACF3CF0D9CF3DF0DACF3EF0F6CF47
:100038003FF0F7CF40F0F8CF41F0F5CF42F00E0196
:1000480033AB29EF00F02BEF00F09EEF02F0909613
:10005800339BE30ED46EB00ED36E1A2A07500810E5
:10006800D8B439EF00F03BEF00F08CEF00F090A02F
:1000780040EF00F042EF00F08CEF00F00706D8A048
:1000880008060101CB2B1450D8B44DEF00F04FEF08
:1000980000F057EF00F0030E146055EF00F057EF33
:1000A80000F058EF00F0142A190E2A6E020E2B6E7B
:1000B800630E2C6EF50E2D6E000E2F6E050E2E6E35
:1000C800CCECF0F02A502B10D8A46DEF00F06FEFB5
:1000D80000F08CEF00F01E0E2A6E020E2B6E6F0ED3
:1000E8002C6EF50E2D6E000E2F6E050E2E6ECCECBE
:1000F800F0F02A502B10D8A484EF00F086EF00F01F
:100108008CEF00F084EC05F00101CC2B8CEF00F0B3
:1001180090A491EF00F093EF00F0DDEF01F08EA6D0
:1001280098EF00F09AEF00F0B5EF00F00101B3513D
:10013800AB1907E1B451AC19D8A4A5EF00F0A7EFAB
:1001480000F0B1EF00F08E96000EAC6F000EAB6FB2
:100158009B4B9C2BD02BE7EF00F0AB4BAC2BE7EF86
:1001680000F08EB6BAEF00F0BCEF00F0E7EF00F059
:100178000101A3519B1907E1A4519C19D8A4C7EF09
:1001880000F0C9EF00F0E5EF00F00001E0510101D7
:10019800D05DD8B0D2EF00F0D4EF00F0DDEF00F082
:1001A8008E86AB4BAC2B000E9C6F000E9B6FE7EF5F
:1001B80000F0010EA3259B6F000EA4219C6FE7EFB2
:1001C80000F09B4B9C2B8EA8ECEF00F0EEEF00F0BC
:1001D80009EF01F00101B151A91907E1B251AA19BA
:1001E800D8A4F9EF00F0FBEF00F005EF01F08E98CE
:1001F800000EAA6F000EA96F994B9A2BCF2B39EFDF
:1002080001F0A94BAA2B39EF01F08EB80EEF01F0DF
:1002180010EF01F039EF01F00101A151991907E13F
:10022800A2519A19D8A41BEF01F01DEF01F037EF86
:1002380001F0D351CF5DD8B024EF01F026EF01F0E3
:100248002FEF01F08E88A94BAA2B000E9A6F000E93
:10025800996F39EF01F0010EA125996F000EA221C7
:100268009A6F39EF01F0994B9A2B8EAA3EEF01F065
:1002780040EF01F05BEF01F00101AF51A71907E171
:10028800B051A819D8A44BEF01F04DEF01F057EF8A
:1002980001F08E9A000EA86F000EA76F974B982B4F
:1002A800CE2B8BEF01F0A74BA82B8BEF01F08EBA6A
:1002B80060EF01F062EF01F08BEF01F001019F5157
:1002C800971907E1A0519819D8A46DEF01F06FEFC5
:1002D80001F089EF01F0D251CE5DD8B076EF01F090
:1002E80078EF01F081EF01F08E8AA74BA82B000E62
:1002F800986F000E976F8BEF01F0010E9F25976F97
:10030800000EA021986F8BEF01F0974B982B8EACC5
:1003180090EF01F092EF01F0ADEF01F00101AD5166
:10032800A51907E1AE51A619D8A49DEF01F09FEFDA
:1003380001F0A9EF01F08E9C000EA66F000EA56FCC
:10034800954B962BCD2BDDEF01F0A54BA62BDDEFC2
:1003580001F08EBCB2EF01F0B4EF01F0DDEF01F077
:1003680001019D51951907E19E519619D8A4BFEF37
:1003780001F0C1EF01F0DBEF01F0D151CD5DD8B054
:10038800C8EF01F0CAEF01F0D3EF01F08E8CA54B56
:10039800A62B000E966F000E956FDDEF01F0010E93
:1003A8009D25956F000E9E21966FDDEF01F0954B10
:1003B800962B630E1918D8A4E4EF01F0E6EF01F0CC
:1003C800EAEF01F0000E1A6E9EEF02F01904D8A4AD
:1003D800F0EF01F0F2EF01F002EF02F018501A18F6
:1003E800D8A4F9EF01F0FBEF01F002EF02F0000EE4
:1003F8001A6E8A86020E196E9EEF02F0020E191806
:10040800D8A409EF02F00BEF02F01BEF02F0155031
:100418001A18D8A412EF02F014EF02F01BEF02F042
:10042800000E1A6E8A96030E196E9EEF02F0030EE6
:100438001918D8A422EF02F024EF02F034EF02F0EA
:1004480017501A18D8A42BEF02F02DEF02F034EF52
:1004580002F0000E1A6E8A88040E196E9EEF02F0E2
:10046800040E1918D8A43BEF02F03DEF02F04DEF4F
:1004780002F015501A18D8A444EF02F046EF02F023
:100488004DEF02F0000E1A6E8A98050E196E9EEF57
:1004980002F0050E1918D8A454EF02F056EF02F036
:1004A80066EF02F017501A18D8A45DEF02F05FEF5C
:1004B80002F066EF02F0000E1A6E8A8A060E196EB6
:1004C8009EEF02F0060E1918D8A46DEF02F06FEF38
:1004D80002F07FEF02F015501A18D8A476EF02F058
:1004E80078EF02F07FEF02F0000E1A6E8A9A070E7C
:1004F800196E9EEF02F0070E1918D8A486EF02F0C5
:1005080088EF02F09EEF02F01A50366E376A00014B
:10051800CA51361807E1CB513718D8A496EF02F024
:1005280098EF02F09EEF02F0000E1A6E010E196E9F
:100538009EEF02F00E0138A1A4EF02F0A6EF02F040
:10054800ABEF02F090960101C72B0E01389138A548
:10055800B0EF02F0B2EF02F0F7EF02F090963895A4
:10056800F00EC86EDC0EC76E0101C62BC651CA5DFF
:10057800D8B0C1EF02F0C3EF02F0EAEF02F0115079
:10058800D8A4C9EF02F0CBEF02F0EAEF02F0010EB7
:10059800116E000EC66FC990BB51D8B4D6EF02F0E9
:1005A800D8EF02F0DDEF02F0010E0001CC6FF7EF9B
:1005B80002F0C551D8B4E3EF02F0E5EF02F0F7EF2F
:1005C80002F0010E0001D36FF7EF02F01150D8B41A
:1005D800F0EF02F0F2EF02F0F7EF02F0000EC66F54
:1005E800C990F7EF02F042C0F5FF41C0F8FF40C0E4
:1005F800F7FF3FC0F6FF3EC0DAFF3DC0D9FF3CC061
:10060800EAFF3BC0E9FF3AC0E0FF39C0E8FF38C065
:10061800D8FF4390100012EFF8F0050E0001646F48
:100628000F0E636FF10EE82EFED7632FFCD7642FF1
:10063800FAD7910EF66EE80EF76E000EF86E090006
:10064800F5CF60F00A00F5CF61F012C062F022EC3D
:1006580005F0050E0001646F0F0E636FF10EE82EB2
:10066800FED7632FFCD7642FFAD712001E0E0101A4
:10067800CA6F000E116E010E0001DE6FC98058EFBF
:1006880003F07C0E0001616FFD0E626F13ECFFF04A
:10069800290E0001666F960E656F7F0EE82EFED755
:1006A800652FFCD7662FFAD71150D8B45EEF03F048
:1006B80060EF03F045EF03F00E01388512007BEF81
:1006C80003F061C0F6FF62C0F7FF000EF86E080085
:1006D800F55078EC06F00001614B622BD00E00015A
:1006E800636FC90EE82EFED7632FFCD700D061C018
:1006F800F6FF62C0F7FF000EF86E0800F55000091B
:10070800D8A489EF03F08BEF03F065EF03F0120034
:100718000001616F0E01DA87D8A195EF03F097EF1A
:1007280003F090EF03F0D5CE62F007EC05F000017E
:100738006151D8B4A2EF03F0A4EF03F0A8EF03F0DF
:100748000E01DA9BAAEF03F00E01DA8BDA89DAB927
:10075800B0EF03F0B2EF03F0ABEF03F0000162512A
:10076800120060C063F061C064F0CBEF03F063C0B7
:10077800D9FF64C0DAFF200EDE18D8A4C6EF03F054
:10078800C8EF03F0CBEF03F0000EDBEF03F063C01C
:10079800D9FF64C0DAFF0001634B642BDF50D8A493
:1007A800D8EF03F0DAEF03F0BBEF03F0010E12000D
:1007B800050E0001636F0F0E626FF10EE82EFED773
:1007C800622FFCD7632FFAD7608060B0EEEF03F09A
:1007D800F0EF03F0E9EF03F063CF64F00001656B1D
:1007E8006450636F626B625164136351651364C034
:1007F80060F065C061F01200000E00016F6F000E1E
:100808006E6F13EF04F06DC060F0616B6BC062F047
:100818006CC063F05CECF4F000016E4B6F2B6E5112
:100828006925D96E6F516A21DA6EDF506D6F6D518F
:10083800D8A421EF04F023EF04F007EF04F012002E
:10084800000E0001656F3DEF04F061C0D9FF62C082
:10085800DAFFDF506BEC06F00001614B622B652B71
:10086800D00E0001646FC90EE82EFED7642FFCD7A6
:1008780000D000016351655DD8A045EF04F047EF53
:1008880004F029EF04F01200000E0001656F61EF1B
:1008980004F061C0D9FF62C0DAFFDF5078EC06F0DF
:1008A8000001614B622B652BD00E0001646FC90EED
:1008B800E82EFED7642FFCD700D000016351655D98
:1008C800D8A069EF04F06BEF04F04DEF04F01200CC
:1008D800910EF66EE80EF76E000EF86E0900F5CF71
:1008E80063F00900F5CF64F0070E00016325606F1F
:1008F800000E6421616F1AEC06F01D6E050E0001F2
:10090800646F0F0E636FF10EE82EFED7632FFCD7CE
:10091800642FFAD71200000173BF9DEF04F07351E2
:1009280006E17205D8B09BEF04F09DEF04F0ABEF41
:1009380004F072C074F073C075F0741F751F744BA7
:10094800752B74C072F075C073F0AFEF04F072C00D
:1009580072F073C073F012000001786F78C060F015
:100968000001616B000E636F0A0E626F52ECF6F0C5
:1009780000016039F00B796F78C072F0736B000E6C
:10098800756F0A0E746F11ECF7F00001725179114E
:10099800796F7951120060C062F061C063F0D8EFDE
:1009A80004F00001604B612B60C0D9FF61C0DAFF21
:1009B800DF50D8A4E2EF04F0E4EF04F0D5EF04F040
:1009C80000016251605D606F63516159616F12008F
:1009D800000E1E6EC70E1E64F4EF04F0F6EF04F06E
:1009E800F8EF04F003EF05F02C0E1E24D96EDA6A36
:1009F800030EDA22000EDF6E1E2AEEEF04F0000E60
:100A08000001DE6F12000E01D8B50DEF05F012EFF0
:100A180005F00001606B602B14EF05F00001606BBE
:100A28000E01DA511F0B000160110009D8A41FEF55
:100A380005F021EF05F007EF05F0120060C074FF24
:100A480000016151756E62C076FF3F0E771677849C
:100A5800F29E550E786EAA0E786E778277B237EFCF
:100A680005F039EF05F032EF05F0F28E77941200B9
:100A78000001606F2F0E0001606545EF05F047EF3C
:100A880005F052EF05F03A0E60614DEF05F04FEFBB
:100A980005F052EF05F0010E53EF05F0000E1200BD
:100AA800000E1E6EC70E1E645CEF05F05EEF05F0CB
:100AB80060EF05F06BEF05F0180E1E24D96EDA6AA8
:100AC800020EDA22000EDF6E1E2A56EF05F0120023
:100AD80094B471EF05F076EF05F00001606B602BC0
:100AE80078EF05F00001606B96501F0B601100094C
:100AF800D8A481EF05F083EF05F06CEF05F0120044
:100B0800000E1E6EC70E1E648CEF05F08EEF05F00A
:100B180090EF05F09BEF05F0180E1E24D96EDA6AE7
:100B2800020EDA22000EDF6E1E2A86EF05F0120092
:100B380000016A6F00016A51F00B686F6A39F00BA7
:100B4800696FF00E691768516711040985EC06F0A2
:100B5800000169516711040985EC06F01200FF0EC7
:100B68000001626FFF0E636F60C064F061C065F0E2
:100B7800625164276351652364C0F5F165C0F6F1DD
:100B88000101F76BF86B12008AB0CDEF05F0CFEFDB
:100B980005F0D5EF05F0000E0001CE6F000EDCEF7A
:100BA80005F0010E0001CE6F000E0101BE6F010EAF
:100BB80012000001656F00016551040992EC06F00E
:100BC800050EE82EFED700F000016551FB0B92ECF4
:100BD80006F0A00E00D0E82EFDD7120000016051EB
:100BE8006203F3CF64F0F4CF65F060516303F35010
:100BF800652761516203F350652764C060F065C0E2
:100C080061F012000001636F6CEC05F0EBEC06F08C
:100C180000016351FE0B5DEC06F06CEC05F0000181
:100C280062515DEC06F0E2EC06F0120060C074FF61
:100C380000016151756E3F0E77167780680E0001CE
:100C4800626FE40EE82EFED7622FFCD700F07650D4
:100C58001200010ED9EC06F0030E00016D6F700E44
:100C68006C6F5C0EE82EFED76C2FFCD76D2FFAD771
:100C780000F012000001626F62C060F00F0E000108
:100C8800601762390F0B0F0B0A0DF3506025616F67
:100C9800615112000001616F61C0D5FE0E01D8B12B
:100CA80058EF06F05AEF06F052EF06F007EC05F0A1
:100CB80012000001616F61C091FF94B066EF06F009
:100CC80068EF06F061EF06F06CEC05F01200000129
:100CD800606F60C0EBFE0E0137A175EF06F077EF8D
:100CE80006F06FEF06F012000001606F60C099FF18
:100CF8000E0136A982EF06F084EF06F07CEF06F0CD
:100D080012000001666F00016651FD0B92EC06F0BF
:100D180000016651FD0BDDEC05F012000001646F67
:100D2800000164510101B7110001626F4E0E06EC1B
:100D380006F012000E01DA85DAB5A5EF06F0A7EF86
:100D480006F0A0EF06F012000E01DA81DAB1AFEF7B
:100D580006F0B1EF06F0AAEF06F012000E01DA83F2
:100D6800DAB3B9EF06F0BBEF06F0B4EF06F0120005
:100D78000E0136ABC2EF06F0C4EF06F0BCEF06F08A
:100D8800985012000E0137A3CCEF06F0CEEF06F014
:100D9800C6EF06F0EA51120000016B6F010E000168
:100DA800676F6B519CEC05F0120000016B6F000E31
:100DB8000001676F6B519CEC05F01200968496B4A5
:100DC800E8EF06F0EAEF06F0E3EF06F0120096808F
:100DD80096B0F1EF06F0F3EF06F0ECEF06F0120034
:100DE80000016C6F00016C51D0EC06F012000B840E
:100DF8000B500809D9EC06F012000B940B500809A7
:080E0800D9EC06F01200120003
:10E82A000053797374656D2041757468656E7469F7
:10E83A0063617465642077697468205068617365E0
:10E84A00206661696C7572652C2073757370656ECC
:10E85A0064696E6720616C6C20616374696F6E73A2
:10E86A00000000300060009000C000F0002001505D
:10E87A00018001B001E001100240027002A002D042
:10E88A00020003300360039003C003000050686174
:10E89A007365206C6F737320646574656374656453
:10E8AA000000000000004C6F67696E20636F6465AA
:10E8BA00206E6F74206368616E67656400416C6CDA
:10E8CA0020506861736520646574656374656400CB
:10E8DA002B434D54493A2022534D222C7800494467
:10E8EA004C45006F6B004472792052756E20646546
:10E8FA007465637465642C204D6F746F722C2049A3
:10E90A00727269676174696F6E20616E6420466510
:10E91A00727469676174696F6E207377697463686A
:10E92A006564206F66662E0D0A49727269676174A2
:10E93A00696F6E207363686564756C656420746FB3
:10E94A00206E65787420646179207769746820661E
:10E95A0065727469676174696F6E20666F7220668A
:10E96A0069656C64206E6F2E000000447279205233
:10E97A00756E2064657465637465642C204D6F74CC
:10E98A006F7220616E642049727269676174696F7F
:10E99A006E207377697463686564206F66662E0DEE
:10E9AA000A49727269676174696F6E207363686578
:10E9BA0064756C656420746F206E65787420646178
:10E9CA007920776974682066657274696761746909
:10E9DA006F6E20666F72206669656C64206E6F2E9A
:10E9EA000000004472792052756E20646574656374
:10E9FA007465642C204D6F746F7220616E642049B7
:10EA0A00727269676174696F6E207377697463687B
:10EA1A006564206F66662E0D0A49727269676174B1
:10EA2A00696F6E207363686564756C656420746FC2
:10EA3A00206E65787420647565206461746520664B
:10EA4A006F72206669656C64206E6F2E0000004448
:10EA5A0072792052756E2064657465637465642CDE
:10EA6A00204D6F746F7220616E64204972726967FB
:10EA7A006174696F6E207377697463686564206F67
:10EA8A0066662E0D0A49727269676174696F6E2033
:10EA9A007363686564756C656420746F206E65784D
:10EAAA00742064617920666F72206669656C6420DF
:10EABA006E6F2E00000053797374656D2072657352
:10EACA0074617274656420666F7220416C6C2050A8
:10EADA006861736520446574656374696F6E207735
:10EAEA0069746820696E636F6D706C65746520491E
:10EAFA00727269676174696F6E20666F72206669E7
:10EB0A00656C64206E6F2E0053797374656D207284
:10EB1A00657374617274656420666F7220506F77D2
:10EB2A00657220496E7465727275707420776974A3
:10EB3A006820696E636F6D706C65746520497272C6
:10EB4A0069676174696F6E20666F72206669656CA9
:10EB5A0064206E6F2E0053797374656D207265732D
:10EB6A0074617274656420696E20446961676E6FAE
:10EB7A0073746963204D6F646520776974682069CE
:10EB8A006E636F6D706C6574652049727269676136
:10EB9A0074696F6E20666F72206669656C64206E98
:10EBAA006F2E0053797374656D2072657374617288
:10EBBA0074656420666F72204C6F7720506F77659A
:10EBCA007220496E207769746820696E636F6D7070
:10EBDA006C6574652049727269676174696F6E2029
:10EBEA00666F72206669656C64206E6F2E005379B9
:10EBFA007374656D207265737461727465642066DE
:10EC0A006F7220537461636B204572726F72207742
:10EC1A0069746820696E636F6D706C6574652049EC
:10EC2A00727269676174696F6E20666F72206669B5
:10EC3A00656C64206E6F2E0053797374656D207253
:10EC4A00657374617274656420666F7220574454E8
:10EC5A002054696D656F7574207769746820696ED0
:10EC6A00636F6D706C65746520497272696761744F
:10EC7A00696F6E20666F72206669656C64206E6FBC
:10EC8A002E004665727469676174696F6E207374C9
:10EC9A006F7070656420776974682066657274693C
:10ECAA006C697A6572206C6576656C2073656E7323
:10ECBA006F72206661696C75726520666F72206674
:10ECCA0069656C64206E6F2E004C6F772050686106
:10ECDA0073652063757272656E742064657465630A
:10ECEA007465642C20616374696F6E732073757325
:10ECFA0070656E6465642C20706C65617365207242
:10ED0A006573746172742073797374656D004972E6
:10ED1A007269676174696F6E206973206E6F7420FF
:10ED2A004163746976652E204665727469676174F9
:10ED3A00696F6E206E6F7420656E61626C65642007
:10ED4A00666F72206669656C64206E6F2E004D6F67
:10ED5A006973747572652073656E736F7220697357
:10ED6A00206661696C65642C2049727269676174F6
:10ED7A00696F6E207374617274656420666F7220A5
:10ED8A006669656C64206E6F2E0053797374656DC5
:10ED9A00207265737461727465642077697468207F
:10EDAA007068617365206661696C7572652C207381
:10EDBA00757370656E64696E6720616C6C2061633F
:10EDCA0074696F6E73004665727469676174696FFE
:10EDDA006E2073746F707065642077697468206C34
:10EDEA006F772066657274696C697A6572206C65E2
:10EDFA0076656C20666F72206669656C64206E6F3A
:10EE0A002E00576574206669656C642064657465B4
:10EE1A00637465642E0D0A49727269676174696F59
:10EE2A006E206E6F74207374617274656420666FED
:10EE3A0072206669656C64206E6F2E00000053793B
:10EE4A007374656D207265736574206F6363757280
:10EE5A007265642C206C6F67696E20636F6465202D
:10EE6A00726573657420746F20466163746F72797A
:10EE7A002073657474696E67004972726967617498
:10EE8A00696F6E20636F6D706C6574656420666F60
:10EE9A007220647565206669656C64730D0A4D6F2E
:10EEAA00746F72207377697463686564206F66662D
:10EEBA000000004E657720525443206261747465E5
:10EECA00727920666F756E642C20706C656173654B
:10EEDA002073796E632073797374656D2074696D1C
:10EEEA0065206D616E75616C6C79004E6577205294
:10EEFA005443206261747465727920666F756E641A
:10EF0A002C2073797374656D2074696D652069733B
:10EF1A002073657420746F206C6F63616C20746950
:10EF2A006D6500496E636F72726563742076616CF9
:10EF3A007565732E204665727469676174696F6EB0
:10EF4A00206E6F7420656E61626C656420666F72F4
:10EF5A00206669656C64206E6F2E0049727269675B
:10EF6A006174696F6E2073746F707065642077695D
:10EF7A0074686F757420726573706F6E736520663E
:10EF8A00726F6D206669656C64206E6F2E0049721F
:10EF9A007269676174696F6E20736B6970706564FA
:10EFAA002077697468206E6F20726573706F6E7354
:10EFBA00652066726F6D206669656C64206E6F3AB3
:10EFCA0000596F7520617265206E6F206D6F7265D2
:10EFDA002041646D696E206E6F772E204E65772012
:10EFEA0041646D696E2069732073657420746F0DB6
:10EFFA000A000000525443204261747465727920F9
:10F00A00666F756E64206C6F772C20706C65617307
:10F01A0065207265706C6163652052544320626199
:10F02A0074746572790053797374656D20726573AF
:10F03A006574206F636375727265642C20497272FD
:10F04A0069676174696F6E2073657474696E67208D
:10F05A0064656C6574656400497272696761746994
:10F06A006F6E206973206163746976652C204D6F19
:10F07A00746F72206C6F6164206375742D6F66669D
:10F08A00206E6F74207365740049727269676174C7
:10F09A00696F6E20636F6E66696775726174696FF6
:10F0AA006E2064697361626C656420666F722066A3
:10F0BA0069656C64206E6F2E005068617365206606
:10F0CA0061696C7572652064657465637465642C26
:10F0DA002073757370656E64696E6720616C6C204D
:10F0EA00616374696F6E73004E6F4C6F6164206167
:10F0FA006E642046756C6C4C6F6164204D6F746F42
:10F10A0072207468726573686F6C647320736574B7
:10F11A0020746F203A20004D6F69737475726520F0
:10F12A0073656E736F72206672657175656E637949
:10F13A002076616C756520666F72206669656C64FD
:10F14A00206E6F2E0053797374656D2074696D6536
:10F15A002073796E63656420746F206375727265BB
:10F16A006E74206C6F63616C2074696D65005379ED
:10F17A007374656D20726573746172746564206658
:10F18A006F7220416C6C205068617365204465740D
:10F19A00656374696F6E004D6F697374757265206B
:10F1AA0073656E736F72206973206661696C65643A
:10F1BA0020666F72206669656C64206E6F2E004946
:10F1CA00727269676174696F6E206E6F7420636F03
:10F1DA006E6669677572656420666F722066696516
:10F1EA006C64206E6F2E0053797374656D2072659E
:10F1FA007374617274656420666F7220506F7765EC
:10F20A007220496E746572727570740053797374E2
:10F21A00656D2072657374617274656420696E200D
:10F22A00446961676E6F73746963206D6F6465000A
:10F23A0049727269676174696F6E206669656C6488
:10F24A00206D617070656420776974682076616CDE
:10F25A007665730049727269676174696F6E2063BB
:10F26A006F6E6669677572656420666F722066697B
:10F27A00656C64206E6F2E004D6F746F726C6F61D7
:10F28A0064206375742D6F666620736574207375C8
:10F29A00636365737366756C6C790046657274692D
:10F2AA00676174696F6E2064697361626C6564205A
:10F2BA00666F72206669656C64206E6F2E00466503
:10F2CA00727469676174696F6E2073746F707065A8
:10F2DA006420666F72206669656C64206E6F2E000A
:10F2EA004665727469676174696F6E2073746172BE
:10F2FA0074656420666F72206669656C64206E6F3F
:10F30A002E004665727469676174696F6E20656E56
:10F31A0061626C656420666F72206669656C642040
:10F32A006E6F2E0053797374656D20726573746104
:10F33A007274656420666F7220737461636B2065F2
:10F34A0072726F720053797374656D20726573748B
:10F35A00617274656420666F722057445420746920
:10F36A006D656F75740049727269676174696F6E51
:10F37A002073746F7070656420666F7220666965A9
:10F38A006C64206E6F2E0049727269676174696FCE
:10F39A006E207374617274656420666F7220666988
:10F3AA00656C64206E6F2E00576174657220466921
:10F3BA006C74726174696F6E206973206E6F742049
:10F3CA00656E61626C6564004C6F67696E20636F7D
:10F3DA006465206368616E6765642073756363653D
:10F3EA00737366756C6C790053797374656D2072EA
:10F3FA00657374617274656420666F72204C6F77EE
:10F40A0020506F7765720057617465722066696C67
:10F41A0074726174696F6E20646561637469766180
:10F42A0074656400496E636F7272656374206C6FF1
:10F43A0063616C2074696D6520666F756E64005730
:10F44A00617465722046696C74726174696F6E20AA
:10F45A0053657175656E63653A005761746572200C
:10F46A0066696C74726174696F6E2061637469761F
:10F47A00617465640057726F6E67206C6F67696E9E
:10F48A0020636F646520666F756E640041646D6900
:10F49A006E20736574207375636365737366756C28
:10F4AA006C790041757468656E7469636174696F1B
:10F4BA006E206661696C65640054657374204461EA
:10F4CA00746120496E6A6563746564005379737464
:10F4DA00656D20436F6E6E65637465640046616393
:10F4EA00746F7279204B6579203A200043757272E5
:10F4FA00656E742054696D653A20004972726967B5
:10F50A006174696F6E204E6F3A003132333435368A
:10F51A00373839313200474554465245510045582B
:10F52A0054524143540044414354495645004449C6
:10F53A005341424C450053454E534F52004D41539F
:10F54A0054455200494E4A45435400414354495692
:10F55A004500454E41424C4500414C4956450045FF
:10F56A0052524F5200534C4156450047455443545A
:10F57A0000464441544100464545440054494D45DE
:10F58A0000484F4C4400484F4F4B0041434B004FFB
:10F59A004646002B393100534354004D4150005325
:10F5AA004554004F4E00435400415500466572745D
:10F5BA0069676174696F6E20656E61626C6564204B
:10F5CA00776974682064656C61793A00466572747B
:10F5DA0069676174696F6E206E6F7420636F6E66FF
:10F5EA006967757265640D0A0046657274696761B8
:10F5FA0074696F6E2044697361626C65643A005382
:10F60A00797374656D205265736574204F636375F1
:10F61A00727265640053797374656D2052657374F0
:10F62A0061727465642057697468005375737065F4
:10F63A006E64656420416C6C20416374696F6E73FB
:10F64A00002A2A2A466163746F72792052657365AB
:10F65A00742A2A2A2A0053797374656D20436F6DC0
:10F66A00706C6574652044617461004375727265DB
:10F67A006E7420496E2046756C6C204C6F61640074
:10F68A00497272692E4461746120436F6E666967BC
:10F69A007572656400466572742E44617461204314
:10F6AA006F6E6669677572656400497272692E20A9
:10F6BA004E6F7420436F6E666967757265640049A0
:10F6CA007272692E206E6F7420636F6E6669677539
:10F6DA007265640053657175656E63652044656182
:10F6EA006374697661746564004E6577204D65734D
:10F6FA0073616765205265636569766564004E6566
:10F70A0077205254434261747465727920466F754A
:10F71A006E6400496E636F7272656374204C6F6326
:10F72A00616C2054696D650057697468204C6F7765
:10F73A0020466572742E204C6576656C00546F20E5
:10F74A0044656C6574652049727269676174696F92
:10F75A006E00496E204E6F204C6F616420436F6EBD
:10F76A00646974696F6E0053797374656D20697387
:10F77A0020426F6F74696E672055700053796E630B
:10F78A002053797374656D204D616E75616C6C7967
:10F79A000049727269676174696F6E20436F6D7098
:10F7AA006C657465640053656E64696E67204E6F9C
:10F7BA0074696669636174696F6E00437572736F09
:10F7CA007220486F6D65202620426C696E6B004975
:10F7DA007272692E20446174612044697361626C9B
:10F7EA00656400466572742E204461746120446920
:10F7FA007361626C656400466572746967617469F5
:10F80A006F6E2053746F7070656400506861736521
:10F81A00204C6F7373204465746563746564004695
:10F82A0065727469676174696F6E2053746172746A
:10F83A0065640046696C74726174696F6E20536501
:10F84A007175656E636500576974682053656E73D8
:10F85A006F72204661696C75726500436865636BF7
:10F86A00696E672047534D205369676E616C005477
:10F87A006F20436865636B2047534D205369676E59
:10F88A00616C0042686F6F6D69204A616C73616ECA
:10F89A0064686172616E00576972654C65737320A2
:10F8AA0049727269676174696F6E004C6F61642096
:10F8BA004375742D4F66662056616C7565730052E8
:10F8CA0065706C616365205254432062617474658B
:10F8DA0072790041542B434E4D493D312C312C3025
:10F8EA002C302C300D0A004C6F6164696E6720530E
:10F8FA00797374656D20446174610045786974692F
:10F90A006E6720446961676E6F737469630043753B
:10F91A007272656E7420496E204E6F204C6F61645E
:10F92A000053797374656D2054696D652053796E3F
:10F93A006365640049727269676174696F6E205306
:10F94A006B69707065640049727269676174696F86
:10F95A006E2053746F707065640053657175656EBF
:10F96A0063652041637469766174656400576574E0
:10F97A00204669656C642044657465637465640037
:10F98A0049727269676174696F6E20537461727427
:10F99A006564004D6F746F72204C6F61642043750B
:10F9AA00742D4F66660049727269676174696F6E79
:10F9BA002052756E6E696E670050726573732052BD
:10F9CA006573657420427574746F6E00546F2043BA
:10F9DA00616C696272617465204D6F746F72005355
:10F9EA00757370656E64696E6720416374696F6EC2
:10F9FA007300466163746F727920436F64652052A5
:10FA0A0065736574004E6F20446961676E6F737425
:10FA1A006963204D656E75004D6F746F7220537760
:10FA2A00697463686564204F464600525443204215
:10FA3A00617474657279206973206C6F77004972FA
:10FA4A0072692E2052657363686564756C6564001B
:10FA5A00497272692E204E6F7420537461727465F4
:10FA6A00640053797374656D2052756E6E696E67A2
:10FA7A0020496E0055736572205265676973747206
:10FA8A006174696F6E0043616C6962726174696E58
:10FA9A0067204D6F746F720046756C6C204C6F61F5
:10FAAA00642043757272656E74004C6F77205068DB
:10FABA006173652043757272656E740023474554FD
:10FACA0053454E534F523031534C415645005365BE
:10FADA007061726174696F6E2054696D653A2000B5
:10FAEA006C63644261636B6C69676874204F6E2053
:10FAFA00006C63644261636B6C69676874204F666B
:10FB0A00660046657274692E20506F7374706F6E4A
:10FB1A006564004472792052756E20646574656369
:10FB2A007465640057697468204E6F20526573705B
:10FB3A006F6E736500497272692E2069732052755F
:10FB4A006E6E696E67004E6574776F726B205374C0
:10FB5A0072656E67746800546F2044656C657465DD
:10FB6A002053797374656D00576174657220466914
:10FB7A006C74726174696F6E0057616974696E673B
:10FB8A0020466F72205573657200466163746F7206
:10FB9A00792053657474696E677300497272692EAD
:10FBAA002044617461205265736574005365742042
:10FBBA005375636365737366756C6C79006C636403
:10FBCA004261636B6C69676874204F6E004C6F7298
:10FBDA006120636F6E74726F6C6C65720049727229
:10FBEA0069676174696F6E20446174610049727259
:10FBFA00692E20506F7374706F6E6564004661637E
:10FC0A00746F72792050696E436F6465004469614C
:10FC1A00676E6F73746963204D6F646500466F7514
:10FC2A006E64204C6F77205068617365004D6F6970
:10FC3A0073747572652053656E736F720041542B2D
:10FC4A00435343533D2247534D220D0A00466F72D8
:10FC5A00204669656C64204E6F3A200046657463DD
:10FC6A0068696E6720497272692E00557365722041
:10FC7A004C6F6767656420494E00496E636F727204
:10FC8A006563742044617461004973204E6F742067
:10FC9A00456E61626C656400436F6E74726F6C20AE
:10FCAA0053797374656D005265737461727420536D
:10FCBA00797374656D0041757468656E7469636102
:10FCCA0074696F6E00546F2044656C6574652055C5
:10FCDA00736572004665746368696E67204D6F7458
:10FCEA006F720041542B53434C415353303D310DF5
:10FCFA000A00436F6E6E656374696E6720746F20C5
:10FD0A000053657474696E672053797374656D0066
:10FD1A002020202020202020202020202000466F84
:10FD2A0072204669656C64204E6F2E0043757272AC
:10FD3A00656E742054696D653A00466F7220466993
:10FD4A00656C64204E6F3A00466F756E64204C6F86
:10FD5A007720525443005068617365204661696C8C
:10FD6A00757265004669656C64204D617070696ED4
:10FD7A00670041542B434D47443D312C340D0A0052
:10FD8A00546F204C6F63616C2054696D650044693F
:10FD9A0073706C6179204F6E2000437572736F72B5
:10FDAA0020486F6D6500446973706C6179204F66F5
:10FDBA0066004661696C656420557365720041543A
:10FDCA002B4346554E3D300D0A0041542B434D47B7
:10FDDA00463D310D0A0041542B4346554E3D310DE7
:10FDEA000A0041542B434C54533D310D0A0020491B
:10FDFA007465726174696F6E3A0047534D204E659F
:10FE0A0074776F726B00437572736F72204F6666F8
:10FE1A000041542B43434C4B3F0D0A005564796112
:10FE2A006D69204C4C50004C6F67696E20436F64BB
:10FE3A00650052657374696E6720546F0041542BD4
:10FE4A00434C54533F0D0A000D0A44656C617931E5
:10FE5A003A20000D0A4F4E54696D653A200020443D
:10FE6A007565446174653A2000426C696E6B204F77
:10FE7A00666600437572736F72204F6E0049732075
:10FE8A004661696C6564004672657175656E637971
:10FE9A000041542B434D47533D2200566572792049
:10FEAA00476F6F6400457863656C6C656E740042D9
:10FEBA006C696E6B204F6E005072696E74206174AB
:10FECA000041542B434D47523D0053656C656374A2
:10FEDA006564004665746368696E670046656374A5
:10FEEA0068696E670044656C6574696E67004154A1
:10FEFA002B4353510D0A0044656C6179323A200054
:10FF0A0044656C6179333A2000204F46467072642A
:10FF1A003A004D6F646572617465004572726F7262
:10FF2A0020496E0056657279204C6F7700436861EC
:10FF3A006E6765640053657474696E67004472790C
:10FF4A002052756E004E6F742053657400426174BE
:10FF5A007465727900204F4E7072643A00415445BC
:10FF6A00300D0A00415426570D0A00284D696E29A2
:10FF7A0020003C2D2D2D2D00403A302C3000403AE7
:10FF8A00312C3100403A322C3200403A332C3300C3
:10FF9A002D2D2D2D3E0057726F6E670020616E6405
:10FFAA002000284D696E2900205765743A002044C4
:10FFBA0072793A0054494D4500234F46460020695C
:10FFCA00732000506F6F7200313030250025642590
:10FFDA006300234F4E004C4F5700393625003937FE
:10FFEA00250039382500393925004E4F002564008F
:06FFFA0031250024000087
:020000040001F9
:10000000000E0101F96F000EFA6F000EFE6F000E78
:10001000FD6F1E0ECA6F2DEC06F0F30E0001776F18
:10002000F60E786F020E796F46ECF2F0520E000178
:10003000C16F2B0EC06F000EE82EFED7C02FFCD76D
:10004000C12FFAD700F0300E0001E1652AEF80F0F1
:100050002CEF80F053EF97F03A0EE16132EF80F031
:1000600034EF80F053EF97F0000E116E000EDE6F4C
:10007000C98080EF80F0CB0E0001616FFE0E626FD1
:1000800013ECFFF0E10E0001616F000E626F010ED4
:10009000636F24EC04F0540E0001616FFC0E626F7C
:1000A00013ECFFF0290E0001C16F960EC06F7F0E9A
:1000B000E82EFED7C02FFCD7C12FFAD71150D8A4F5
:1000C00064EF80F066EF80F080EF80F0CB0E0001EF
:1000D000C16FEC0EC06F840EE82EFED7C02FFCD788
:1000E000C12FFAD700F0CB0E0001C16FEC0EC06F2C
:1000F000840EE82EFED7C02FFCD7C12FFAD700F010
:100100001150D8B486EF80F088EF80F03BEF80F09C
:100110000E013885410E0001606F030E616F9D0E68
:10012000626FF50E636F000E656F030E646FABECCC
:10013000EFF0000160516111D8A4A1EF80F0A3EFAE
:1001400080F042EF97F0E10E606F000E616F440E99
:10015000626F030E636F000E656F0A0E646F48ECEA
:10016000FBF0E8ECFFF0000E0001606F040E616F21
:100170006B0E626F030E636FA0ECF9F0ECEC04F011
:10018000000E0001606F040E616FB5EC03F0000912
:10019000D8B4CDEF80F0CFEF80F0D5EF80F054EC05
:1001A00005F02DECD7F0E4EF80F0A30E0001C16F55
:1001B000570EC06F020EE82EFED7C02FFCD7C12FFE
:1001C000FAD700F057EF97F0F50E0001606F000EC0
:1001D000616FE10E626F000E636F000E656F0A0EB5
:1001E000646FABECEFF0000160516111D8A4FBEF3C
:1001F00080F0FDEF80F0C3EF95F0E10E606F000E30
:10020000616FD40E626F010E636F000E656F0A0E90
:10021000646F48ECFBF0180E0001606F020E616F16
:10022000900E626FF50E636F000E656F040E646FC3
:10023000ABECEFF0000160516111D8A422EF81F026
:1002400024EF81F049EF81F02DEC06F0750E0001EE
:10025000776FFC0E786F020E796F46ECF2F06B0E42
:100260000001776FFB0E786F030E796F46ECF2F0AA
:10027000000E0001DE6FD60E7D6FF40E7E6FF50E60
:100280007F6F000E806F000E816F58EC97F057EF74
:1002900097F0180E606F020E616FB30E626FF50E6D
:1002A000636F000E656F020E646FABECEFF0000140
:1002B00060516111D8A45FEF81F061EF81F0D4EF5C
:1002C00081F01B0E606F020E616FEE0E626F010E09
:1002D000636F000E656F060E646FABECEFF000010C
:1002E00060516111D8A477EF81F079EF81F0AFEF21
:1002F00081F02DEC06F0310E0001776FFE0E786F65
:10030000020E796F46ECF2F0370E0001776FFF0EA8
:10031000786F030E796F46ECF2F0EE0E0001606F1D
:10032000010E616F220E626F020E636F000E656F29
:10033000060E646F48ECFBF0BEECFAF0000E000114
:10034000DE6FD20E7D6FF30E7E6FF50E7F6F000EA7
:10035000806F000E816F58EC97F057EF97F02DECFF
:1003600006F0A00E0001776FFF0E786F020E796F16
:1003700046ECF2F0310E0001776FFE0E786F030E3F
:10038000796F46ECF2F0000E0001DE6F7F0E7D6F9C
:10039000F40E7E6FF50E7F6F000E806F000E816F82
:1003A00058EC97F057EF97F0180E606F020E616FE0
:1003B000A90E626FF50E636F000E656F030E646F1A
:1003C000ABECEFF0000160516111D8A4EAEF81F0CD
:1003D000ECEF81F00BEF85F0030E18ECD5F01E6EFC
:1003E000000E0101FE6F000EFD6F010EFC6F060E88
:1003F0000001DE6F180E0001DE25D96EDA6A020EEA
:10040000DA22DF503CEC05F00009D8B40AEF82F0A4
:100410000CEF82F05EEF83F0190E0001DE25D96E3D
:10042000DA6A020EDA22200EDE18D8A41AEF82F061
:100430001CEF82F03DEF82F0180EDE25D96EDA6AED
:10044000020EDA22180EDE25E16EE26A020EE222C8
:10045000E750D00FDF6E180E0001DE25D96EDA6A84
:10046000020EDA22DF50C06FC0510101FD25FD6F81
:10047000000EFE21FE6F93EF83F0180EDE25D96E7D
:10048000DA6A020EDA22180EDE25E16EE26A020E48
:10049000E222E750D00FDF6E180EDE25D96EDA6A41
:1004A000020EDA22DF500A0D180EDE25D96EDA6A46
:1004B000020EDA22F3CFDFFFFDC160F0FEC161F072
:1004C000000E636F0A0E626FF2EC05F060C0FDF182
:1004D00061C0FEF12BEF82F01E502D0DD90EF324DA
:1004E000D96E040EF420DA6EFDC1DEFFFEC1DDFF21
:1004F000000E0101FE6F000EFD6F91EF83F01E50A4
:100500002D0DF30EF324D96E040EF420DA6EFDC126
:10051000DFFF78EF82F01E502D0DF40EF324D96E1C
:10052000040EF420DA6EFDC1DFFF78EF82F01E507A
:100530002D0DF50EF324D96E040EF420DA6EFDC1F4
:10054000DFFF78EF82F01E502D0DD50EF324D96E0B
:10055000040EF420DA6EFDC1DEFFFEC1DDFF78EF90
:1005600082F01E502D0DD70EF324D96E040EF42008
:10057000DA6EFDC1DEFFFEC1DDFF78EF82F01E50B6
:100580002D0DFA0EF324D96E040EF420DA6EFDC19F
:10059000DFFF78EF82F01E502D0DFC0EF324D96E94
:1005A000040EF420DA6EFDC1DFFF1E502D0DFD0E8E
:1005B000F324D96E040EF420DA6EFDC1DFFF78EF6C
:1005C00082F00101FD517EECCEF0000E0101FE6FC4
:1005D000000EFD6F1E502D0DF60EF324D96E040E85
:1005E000F420DA6EC8C0DFFF1E502D0DF70EF32485
:1005F000D96E040EF420DA6ED5C0DFFF1E502D0D2B
:10060000F80EF324D96E040EF420DA6ED6C0DFFFA4
:100610001E502D0DFE0EF324D96E040EF420DA6E5A
:10062000000EDF6E1E502D0DFF0EF324D96E040E4A
:10063000F420DA6E010EDF6E1E502D0DDB0EF3245A
:10064000D96E040EF420DA6E000EDE6E000EDD6E42
:100650001E502D0DDD0EF324D96E040EF420DA6E3B
:10066000000EDE6E000EDD6E1E502D0DF90EF32411
:10067000D96E040EF420DA6E000EDF6E1E502D0DC2
:10068000000EF324D96E050EF420DA6E000EDF6E34
:100690001E502D0DFB0EF324D96E040EF420DA6EDD
:1006A000000EDF6E1E502D0D010EF324D96E050EC7
:1006B000F420DA6E000EDF6E91EF83F00101FC5141
:1006C0000001C06FC16BC151000AD8B46AEF83F05A
:1006D00091EF83F0C051010AD8B46CEF82F0030AA5
:1006E000D8B47FEF82F0010AD8B48BEF82F0070A0A
:1006F000D8B497EF82F0010AD8B4A3EF82F0030ACE
:10070000D8B4B1EF82F0010AD8B4BFEF82F00F0A7B
:10071000D8B4CBEF82F0010AD8B4E1EF82F091EFC8
:1007200083F00101FC2B0001DE2B090E0101FC65A9
:100730009CEF83F09EEF83F0FAEF81F0090E000149
:10074000C16F1E0EC06FE40EE82EFED7C02FFCD77F
:10075000C12FFAD700F01E50020D6B0EF324F66E77
:10076000E80EF420F76EF86A000EF8220900F5CFC3
:1007700063F00A00F5CF64F01E502D0DD50EF32462
:100780000001656F040EF420666F5EECE1F0090E67
:100790000001C16F1E0EC06FE40EE82EFED7C02F01
:1007A000FCD7C12FFAD700F01E50020D6B0EF324B8
:1007B000F66EE80EF420F76EF86A000EF8220900D3
:1007C000F5CF63F00A00F5CF64F01E502D0DD50E65
:1007D000F3240001656F040EF420666FEEECF5F073
:1007E000090E0001C16F1E0EC06FE40EE82EFED789
:1007F000C02FFCD7C12FFAD700F01E50020D6B0E90
:10080000F324F66EE80EF420F76EF86A000EF82274
:100810000900F5CF63F00A00F5CF64F01E502D0DEE
:10082000D50EF3240001656F040EF420666F94EC7E
:10083000FFF0090E0001C16F1E0EC06FE40EE82E1E
:10084000FED7C02FFCD7C12FFAD700F01E50020DE3
:100850006B0EF324F66EE80EF420F76EF86A000EC5
:10086000F8220900F5CF63F00A00F5CF64F01E50BE
:100870002D0DD50EF3240001656F040EF420666F74
:10088000BEECFFF0090E0001C16F1E0EC06FE40E3A
:10089000E82EFED7C02FFCD7C12FFAD700F01E508C
:1008A000020D6B0EF324F66EE80EF420F76EF86A74
:1008B000000EF8220900F5CF63F00A00F5CF64F0CE
:1008C0001E502D0DD50EF3240001656F040EF4208B
:1008D000666F6AECFFF0090E0001C16F1E0EC06F5B
:1008E000E40EE82EFED7C02FFCD7C12FFAD700F0B8
:1008F0001E50020D6B0EF324F66EE80EF420F76E18
:10090000F86A000EF8220900F5CF63F00A00F5CF6F
:1009100064F01E502D0DD50EF3240001656F040EFA
:10092000F420666FE4ECC2F0090E0001C16F1E0EE8
:10093000C06FE40EE82EFED7C02FFCD7C12FFAD728
:1009400000F0090E1E60A7EF84F0A9EF84F0B1EF6C
:1009500084F0300E0001E16F1E50310FE26FC7EFDF
:1009600084F0080E1E64B7EF84F0B9EF84F0C7EF8F
:1009700084F0100E1E60BFEF84F0C1EF84F0C7EF6B
:1009800084F0310E0001E16F1E50270FE26F000E60
:100990000001DE6F2DEC06F08A0E0001776FF60E77
:1009A000786F020E796F46ECF2F0440E0001776F1B
:1009B000FD0E786F030E796F46ECF2F0110E000118
:1009C0006C6F030E8AECFEF0E10E0001B86F000EB2
:1009D000B96FF70EBA6FFF0EBB6F010E1E24BC6F0E
:1009E000BD6B000EBD23E6ECFEF0E10E00016C6F66
:1009F000000E6D6FC8ECFDF05E0E00017D6FF20E13
:100A00007E6FF50E7F6F000E806F020E816F58ECC7
:100A100097F057EF97F0180E606F020E616F8B0E14
:100A2000626FF50E636F000E656F040E646FABECC2
:100A3000EFF0000160516111D8A421EF85F023EFA0
:100A400085F01FEF86F0040E18ECD5F01E6E1E50D8
:100A50002D0DFE0EF324D96E040EF420DA6EDE04A2
:100A6000D8A435EF85F037EF85F03AEF85F0010E29
:100A70000001CF6F1E502D0DFF0EF324D96E040E12
:100A8000F420DA6E000EDF6E1E502D0D000EF324E2
:100A9000D96E050EF420DA6EDE04D8A452EF85F08C
:100AA00054EF85F094EF85F01E502D0D000EF324C9
:100AB000D96E050EF420DA6E000EDF6E090E00010D
:100AC000C16F1E0EC06FE40EE82EFED7C02FFCD7FC
:100AD000C12FFAD700F01E50020D6B0EF324F66EF4
:100AE000E80EF420F76EF86A000EF8220900F5CF40
:100AF00063F00A00F5CF64F01E502D0DD50EF324DF
:100B00000001656F040EF420666FE4ECC2F0090E7C
:100B10000001C16F1E0EC06FE40EE82EFED7C02F7D
:100B2000FCD7C12FFAD700F01E50020D6B0EF32434
:100B3000F66EE80EF420F76EF86A000EF82209004F
:100B4000F5CF63F00A00F5CF64F01E502D0DD50EE1
:100B5000F3240001656F040EF420666F6AECFFF069
:100B6000090E0001C16F1E0EC06FE40EE82EFED705
:100B7000C02FFCD7C12FFAD700F0090E1E60C3EFBB
:100B800085F0C5EF85F0CDEF85F0300E0001E16F07
:100B90001E50310FE26FDBEF85F0080E1E64D3EFBD
:100BA00085F0D5EF85F0DBEF85F0310E0001E16FC8
:100BB0001E50270FE26F000E0001DE6F2DEC06F0D5
:100BC000D90E0001776FF70E786F020E796F46EC41
:100BD000F2F0440E0001776FFD0E786F030E796F0F
:100BE00046ECF2F0110E00016C6F030E8AECFEF081
:100BF000E10E0001B86F000EB96FF70EBA6FFF0E6D
:100C0000BB6F010E1E24BC6FBD6B000EBD23E6EC56
:100C1000FEF0E10E00016C6F000E6D6FC8ECFDF090
:100C2000930E00017D6FF00E7E6FF50E7F6F000E4C
:100C3000806F020E816F58EC97F057EF97F0180E07
:100C4000606F020E616F5C0E626FF50E636F000ED7
:100C5000656F060E646FABECEFF00001605161113F
:100C6000D8A435EF86F037EF86F0C5EF89F0000E97
:100C70000101FE6F000EFD6F000EFC6F060E18ECFA
:100C8000D5F01E6E1E502D0DFF0EF324D96E040EEE
:100C9000F420DA6EDF50D8A450EF86F052EF86F0E1
:100CA000BDEF86F0090E1E6058EF86F05AEF86F011
:100CB00062EF86F0300E0001E16F1E50310FE26FDF
:100CC00070EF86F0080E1E6468EF86F06AEF86F01B
:100CD00070EF86F0310E0001E16F1E50270FE26FBA
:100CE000000E0001DE6F2DEC06F0B40E0001776FF0
:100CF000F60E786F020E796F46ECF2F0F30E0001FB
:100D0000776FF50E786F030E796F46ECF2F0440EB4
:100D10000001776FFD0E786F040E796F46ECF2F0EC
:100D2000110E00016C6F040E8AECFEF0E10E000162
:100D3000B86F000EB96FF70EBA6FFF0EBB6F010EE2
:100D40001E24BC6FBD6B000EBD23E6ECFEF0E10E71
:100D500000016C6F000E6D6FC8ECFDF0180E000105
:100D60007D6FED0E7E6FF50E7F6F000E806F020EB1
:100D7000816F58EC97F057EF97F0090E0001DE6F86
:100D8000180E0001DE25D96EDA6A020EDA22DF5073
:100D90003CEC05F00009D8B4D0EF86F0D2EF86F035
:100DA00032EF87F0190E0001DE25D96EDA6A020EE5
:100DB000DA22200EDE18D8A4E0EF86F0E2EF86F00B
:100DC00003EF87F0180EDE25D96EDA6A020EDA22FA
:100DD000180EDE25E16EE26A020EE222E750D00F25
:100DE000DF6E180E0001DE25D96EDA6A020EDA22F5
:100DF000DF50C06FC0510101FD25FD6F000EFE21C7
:100E0000FE6F12EF89F0180EDE25D96EDA6A020E37
:100E1000DA22180EDE25E16EE26A020EE222E750C7
:100E2000D00FDF6E180EDE25D96EDA6A020EDA22D6
:100E3000DF500A0D180EDE25D96EDA6A020EDA22AC
:100E4000F3CFDFFFFDC160F0FEC161F0000E636F04
:100E50000A0E626FF2EC05F060C0FDF161C0FEF1B8
:100E6000F1EF86F00101FC2BC8EF88F01E502D0D2C
:100E7000DB0EF324D96E040EF420DA6EFDC1DEFF22
:100E8000FEC1DDFF000E0101FE6F000EFD6F12EFCF
:100E900089F01E502D0DDD0EF324D96E040EF420C2
:100EA000DA6EFDC1DEFFFEC1DDFF42EF87F01E50AE
:100EB0002D0DF90EF324D96E040EF420DA6EFDC167
:100EC000DFFF42EF87F01E502D0DDF0EF324D96EA9
:100ED000040EF420DA6EFDC1DEFFFEC1DDFF42EF3D
:100EE00087F01E502D0DE70EF324D96E040EF4206A
:100EF000DA6EFDC1DEFFFEC1DDFF42EF87F01E505E
:100F00002D0DEF0EF324D96E040EF420DA6EFDC120
:100F1000DFFF42EF87F01E502D0DE10EF324D96E56
:100F2000040EF420DA6EFDC1DEFFFEC1DDFF42EFEC
:100F300087F01E502D0DE90EF324D96E040EF42017
:100F4000DA6EFDC1DEFFFEC1DDFF42EF87F01E500D
:100F50002D0DF00EF324D96E040EF420DA6EFDC1CF
:100F6000DFFF42EF87F01E502D0DE30EF324D96E04
:100F7000040EF420DA6EFDC1DEFFFEC1DDFF42EF9C
:100F800087F01E502D0DEB0EF324D96E040EF420C5
:100F9000DA6EFDC1DEFFFEC1DDFF42EF87F01E50BD
:100FA0002D0DF10EF324D96E040EF420DA6EFDC17E
:100FB000DFFF42EF87F01E502D0DE50EF324D96EB2
:100FC000040EF420DA6EFDC1DEFFFEC1DDFF42EF4C
:100FD00087F01E502D0DED0EF324D96E040EF42073
:100FE000DA6EFDC1DEFFFEC1DDFF42EF87F01E506D
:100FF0002D0DF20EF324D96E040EF420DA6EFDC12D
:10100000DFFF1E502D0DFB0EF324D96E040EF420CD
:10101000DA6E000EDF6E1E502D0D010EF324D96E18
:10102000050EF420DA6E000EDF6E000E0101FE6F79
:10103000000EFD6F1E502D0DD90EF324D96E040E37
:10104000F420DA6E1E502D0DDD0EF324E16E040E39
:10105000F420E26EE6CFC2F0E5CFC3F01E502D0DB6
:10106000DB0EF324E16E040EF420E26EE6CFC4F052
:10107000E5CFC5F00001C251C427C351C523DE50DE
:10108000C45DDE50C559D8A048EF88F04AEF88F01B
:10109000BCEF88F01E502D0D000EF324D96E050E06
:1010A000F420DA6E000EDF6E090E1E605AEF88F033
:1010B0005CEF88F063EF88F0300EE16F1E50310F67
:1010C000E26F70EF88F0080E1E6469EF88F06BEF36
:1010D00088F070EF88F0310EE16F1E50270FE26F3D
:1010E000000EDE6F2DEC06F0840E0001776FFC0E13
:1010F000786F020E796F46ECF2F0F30E0001776F15
:10110000F50E786F030E796F46ECF2F0440E000195
:10111000776FFD0E786F040E796F46ECF2F0110ECA
:1011200000016C6F040E8AECFEF0E10E0001B86F56
:10113000000EB96FF70EBA6FFF0EBB6F010E1E24C3
:10114000BC6FBD6B000EBD23E6ECFEF0E10E0001AE
:101150006C6F000E6D6FC8ECFDF02D0E00017D6F01
:10116000EF0E7E6FF50E7F6F000E806F020E816FA7
:1011700058EC97F012EF89F01E502D0D000EF3245D
:10118000D96E050EF420DA6E010EDF6E12EF89F0D3
:10119000FC510001C06FC16BC151000AD8B4D3EF3C
:1011A00088F012EF89F0C051010AD8B436EF87F009
:1011B000030AD8B449EF87F0010AD8B457EF87F093
:1011C000070AD8B463EF87F0010AD8B471EF87F04B
:1011D000030AD8B47FEF87F0010AD8B48BEF87F009
:1011E0000F0AD8B499EF87F0010AD8B4A7EF87F0B7
:1011F000030AD8B4B3EF87F0010AD8B4C1EF87F07F
:10120000070AD8B4CFEF87F0010AD8B4DBEF87F034
:10121000030AD8B4E9EF87F0010AD8B4F7EF87F0F2
:1012200012EF89F00001DE2B0E0E0101FC651BEFB1
:1012300089F01DEF89F0C0EF86F01E502D0D000ED5
:10124000F324D96E050EF420DA6EDF50D8B42BEFFC
:1012500089F02DEF89F057EF97F0090E0001C16F6B
:101260001E0EC06FE40EE82EFED7C02FFCD7C12F94
:10127000FAD700F01E50020D6B0EF324F66EE80E46
:10128000F420F76EF86A000EF8220900F5CF63F03B
:101290000A00F5CF64F01E502D0DD50EF324000189
:1012A000656F040EF420666FE4ECC2F0090E0001D5
:1012B000C16F1E0EC06FE40EE82EFED7C02FFCD704
:1012C000C12FFAD700F0090E1E6069EF89F06BEFAD
:1012D00089F073EF89F0300E0001E16F1E50310F7D
:1012E000E26F81EF89F0080E1E6479EF89F07BEFE1
:1012F00089F081EF89F0310E0001E16F1E50270F58
:10130000E26F000E0001DE6F2DEC06F09F0E000173
:10131000776FF60E786F020E796F46ECF2F0440E9E
:101320000001776FFD0E786F030E796F46ECF2F0D7
:10133000110E00016C6F030E8AECFEF0E10E00014D
:10134000B86F000EB96FF70EBA6FFF0EBB6F010ECC
:101350001E24BC6FBD6B000EBD23E6ECFEF0E10E5B
:1013600000016C6F000E6D6FC8ECFDF00C0E0001FB
:101370007D6FF30E7E6FF50E7F6F000E806F020E95
:10138000816F58EC97F057EF97F0180E606F020ED0
:10139000616F380E626FF50E636F000E656F070E9A
:1013A000646FABECEFF0000160516111D8A4DBEF8A
:1013B00089F0DDEF89F0B7EF8AF0070E18ECD5F071
:1013C0001E6E1E502D0DFE0EF324D96E040EF42059
:1013D000DA6EDE04D8A4EFEF89F0F1EF89F005EFC3
:1013E0008AF01E502D0DFB0EF324D96E040EF4204E
:1013F000DA6E030EDE18D8B400EF8AF002EF8AF03E
:1014000005EF8AF0010E0001CF6F1E502D0D000E6A
:10141000F324D96E050EF420DA6EDE04D8A413EF9F
:101420008AF015EF8AF057EF97F01E502D0D000E41
:10143000F324D96E050EF420DA6E000EDF6E090E6D
:101440000001C16F1E0EC06FE40EE82EFED7C02F44
:10145000FCD7C12FFAD700F01E50020D6B0EF324FB
:10146000F66EE80EF420F76EF86A000EF822090016
:10147000F5CF63F00A00F5CF64F01E502D0DD50EA8
:10148000F3240001656F040EF420666FE4ECC2F0F3
:10149000090E0001C16F1E0EC06FE40EE82EFED7CC
:1014A000C02FFCD7C12FFAD700F0090E1E605BEFEA
:1014B0008AF05DEF8AF065EF8AF0300E0001E16F8F
:1014C0001E50310FE26F73EF8AF0080E1E646BEF4F
:1014D0008AF06DEF8AF073EF8AF0310E0001E16F50
:1014E0001E50270FE26F000E0001DE6F2DEC06F09C
:1014F000ED0E0001776FF70E786F020E796F46ECF4
:10150000F2F0440E0001776FFD0E786F030E796FD5
:1015100046ECF2F0110E00016C6F030E8AECFEF047
:10152000E10E0001B86F000EB96FF70EBA6FFF0E33
:10153000BB6F010E1E24BC6FBD6B000EBD23E6EC1D
:10154000FEF0E10E00016C6F000E6D6FC8ECFDF057
:10155000A50E00017D6FF20E7E6FF50E7F6F000EFF
:10156000806F020E816F58EC97F057EF97F0180ECE
:10157000606F020E616F550E626FF50E636F000EA5
:10158000656F060E646FABECEFF000016051611106
:10159000D8A4CDEF8AF0CFEF8AF0DFEF8BF0000E0A
:1015A0000101FE6F000EFD6F000EFC6F060E0001C4
:1015B000DE6F180E0001DE25D96EDA6A020EDA221D
:1015C000DF503CEC05F00009D8B4E9EF8AF0EBEF0E
:1015D0008AF04BEF8BF0190E0001DE25D96EDA6A26
:1015E000020EDA22200EDE18D8A4F9EF8AF0FBEF03
:1015F0008AF01CEF8BF0180EDE25D96EDA6A020E27
:10160000DA22180EDE25E16EE26A020EE222E750CF
:10161000D00FDF6E180E0001DE25D96EDA6A020ED9
:10162000DA22DF50C06FC0510101FD25FD6F000EB1
:10163000FE21FE6F92EF8BF0180EDE25D96EDA6A6E
:10164000020EDA22180EDE25E16EE26A020EE222B6
:10165000E750D00FDF6E180EDE25D96EDA6A020E63
:10166000DA22DF500A0D180EDE25D96EDA6A020E74
:10167000DA22F3CFDFFFFDC160F0FEC161F0000EA2
:10168000636F0A0E626FF2EC05F060C0FDF161C09D
:10169000FEF10AEF8BF00101FC2B70EF8BF0FDC126
:1016A00018F0000E0101FE6F000EFD6F92EF8BF03F
:1016B000FDC117F051EF8BF0FDC116F051EF8BF02B
:1016C000FDC115F051EF8BF0FDC1CAF0CB6B000EE0
:1016D0000101FE6F000EFD6F010E0E6E92EF8BF09A
:1016E000FC510001C06FC16BC151000AD8B47BEF3F
:1016F0008BF092EF8BF0C051010AD8B44FEF8BF012
:10170000030AD8B458EF8BF0010AD8B45CEF8BF021
:10171000070AD8B460EF8BF0010AD8B464EF8BF0FD
:1017200092EF8BF00001DE2B040E0101FC659BEFB4
:101730008BF09DEF8BF0D9EF8AF0090E0001C16F9D
:101740001E0EC06FE40EE82EFED7C02FFCD7C12FAF
:10175000FAD700F00DECE6F0090E0001C16F1E0E85
:10176000C06FE40EE82EFED7C02FFCD7C12FFAD7EA
:1017700000F0000E0001DE6F2DEC06F0720E00018D
:10178000776FFB0E786F020E796F46ECF2F0640E05
:101790000001776FF90E786F030E796F46ECF2F067
:1017A000640E00017D6FF40E7E6FF50E7F6F000EEC
:1017B000806F000E816F58EC97F057EF97F0180E7E
:1017C000606F020E616F300E626FF50E636F000E78
:1017D000656F070E646FABECEFF0000160516111B3
:1017E000D8A4F5EF8BF0F7EF8BF03BEF8CF0000E09
:1017F0000E6E090E0001C16F1E0EC06FE40EE82EC2
:10180000FED7C02FFCD7C12FFAD700F00DECE6F0C1
:10181000090E0001C16F1E0EC06FE40EE82EFED748
:10182000C02FFCD7C12FFAD700F0000E0001DE6FE9
:101830002DEC06F0720E0001776FFB0E786F020E32
:10184000796F46ECF2F0DE0E0001776FF60E786FDE
:10185000030E796F46ECF2F0110E00017D6FF40E6D
:101860007E6FF50E7F6F000E806F000E816F58EC5B
:1018700097F057EF97F0180E606F020E616F7B0EB6
:10188000626FF50E636F000E656F050E646FABEC53
:10189000EFF0000160516111D8A451EF8CF053EFCB
:1018A0008CF0A5EF8CF00E50D8B459EF8CF05BEFB4
:1018B0008CF080EF8CF0000EDE6F2DEC06F0E60E63
:1018C0000001776FFE0E786F020E796F46ECF2F032
:1018D0003D0E0001776FF80E786F030E796F46ECBE
:1018E000F2F0490E00017D6FF40E7E6FF50E7F6FF2
:1018F000000E806F080E816F58EC97F057EF97F04D
:10190000000EDE6F2DEC06F0720E0001776FFB0EFD
:10191000786F020E796F46ECF2F0930E0001776F4C
:10192000FC0E786F030E796F46ECF2F0B20E0001F8
:101930007D6FF30E7E6FF50E7F6F000E806F000ED1
:10194000816F58EC97F057EF97F0180E606F020E0A
:10195000616F810E626FF50E636F000E656F040E8E
:10196000646FABECEFF0000160516111D8A4BBEFE4
:101970008CF0BDEF8CF0CCEF8DF0000E0101FE6F0E
:10198000000EFD6F000EFC6F050E0001DE6F180EDD
:101990000001DE25D96EDA6A020EDA22DF503CEC55
:1019A00005F00009D8B4D7EF8CF0D9EF8CF069EFCF
:1019B0008DF0180E0001DE25D96EDA6A020EDA22E9
:1019C000180EDE25E16EE26A020EE222E750D00F29
:1019D000DF6E180EDE25D96EDA6A020EDA22DF50CB
:1019E000C06FC0510101FD6FFE6BFDC160F0FEC113
:1019F00061F0000E0001636F0A0E626FF2EC05F0F9
:101A000060C0FDF161C0FEF1190E0001DE25D96E46
:101A1000DA6A020EDA22190EDE25E16EE26A020EA1
:101A2000E222E750D00FDF6E190EDE25D96EDA6A9A
:101A3000020EDA22DF50C06FC0510101FD25FD6F9B
:101A4000000EFE21FE6FFC2B43EF8DF0FDC1DAF09E
:101A5000000E0101FE6F000EFD6F8FEF8DF0FDC1D6
:101A6000DBF028EF8DF0FDC1DCF028EF8DF0FDC13B
:101A7000D9F028EF8DF0FDC1D8F028EF8DF0FDC131
:101A8000D7F028EF8DF0FC510001C06FC16BC15140
:101A9000000AD8B44EEF8DF08FEF8DF0C051010ADF
:101AA000D8B426EF8DF0030AD8B42FEF8DF0010AD9
:101AB000D8B433EF8DF0070AD8B437EF8DF0010AB0
:101AC000D8B43BEF8DF0030AD8B43FEF8DF08FEF21
:101AD0008DF0000E0001DE6F2DEC06F01D0E0001F2
:101AE000776FF70E786F020E796F46ECF2F0170EF3
:101AF0000001776FF70E786F030E796F46ECF2F006
:101B00002E0E00017D6FF40E7E6FF50E7F6F000EBE
:101B1000806F000E816F58EC97F057EF97F0030E2F
:101B20000001DE27050E0101FC6599EF8DF09BEFAA
:101B30008DF0C7EF8CF0060EFC19D8A4A2EF8DF043
:101B4000A4EF8DF0A6EF8DF063ECF8F0000E00012D
:101B5000DE6F2DEC06F02B0E0001776FF90E786F1B
:101B6000020E796F46ECF2F08A0E0001776FFD0EDF
:101B7000786F030E796F46ECF2F04F0E00017D6F27
:101B8000F10E7E6FF50E7F6F000E806F000E816F7D
:101B900058EC97F057EF97F0180E606F020E616FD8
:101BA000860E626FF50E636F000E656F040E646F34
:101BB000ABECEFF0000160516111D8A4E2EF8DF0C1
:101BC000E4EF8DF0B6EF8EF0B5ECF6F0DAC060F031
:101BD0000001616B000E636F0A0E626F52ECF6F04B
:101BE00000016051300FE16FDAC072F0736B000ECC
:101BF000756F0A0E746F11ECF7F000017251300F1F
:101C0000E26F2F0EE36FDBC060F0616B000E636F5D
:101C10000A0E626F52ECF6F000016051300FE46F73
:101C2000DBC072F0736B000E756F0A0E746F11ECEF
:101C3000F7F000017251300FE56F2F0EE66FDCC038
:101C400060F0616B000E636F0A0E626F52ECF6F08B
:101C500000016051300FE76FDCC072F0736B000E53
:101C6000756F0A0E746F11ECF7F000017251300FAE
:101C7000E86F200EE96FD9C060F0616B000E636FF2
:101C80000A0E626F52ECF6F000016051300FEA6FFD
:101C9000D9C072F0736B000E756F0A0E746F11EC81
:101CA000F7F000017251300FEB6F3A0EEC6FD8C0B5
:101CB00060F0616B000E636F0A0E626F52ECF6F01B
:101CC00000016051300FED6FD8C072F0736B000EE1
:101CD000756F0A0E746F11ECF7F000017251300F3E
:101CE000EE6F3A0EEF6FD7C060F0616B000E636F5E
:101CF0000A0E626F52ECF6F000016051300FF06F87
:101D0000D7C072F0736B000E756F0A0E746F11EC12
:101D1000F7F000017251300FF16F000EDE6F2DEC05
:101D200006F0360E0001776FFD0E786F020E796FA8
:101D300046ECF2F0010E00016C6F030E8AECFEF02F
:101D4000E10E00016C6F000E6D6FC8ECFDF0F60E39
:101D500000017D6FF40E7E6FF50E7F6F000E806FB9
:101D6000030E816F58EC97F057EF97F0180E606FE5
:101D7000020E616F280E626FF50E636F000E656FC5
:101D8000070E646FABECEFF0000160516111D8A455
:101D9000CCEF8EF0CEEF8EF08EEF8FF0070E18ECBA
:101DA000D5F01E6E090E1E60D8EF8EF0DAEF8EF0C1
:101DB000E2EF8EF0300E0001E16F1E50310FE26F46
:101DC000F0EF8EF0080E1E64E8EF8EF0EAEF8EF072
:101DD000F0EF8EF0310E0001E16F1E50270FE26F21
:101DE000000E0001DE6F1E502D0DFF0EF324D96E84
:101DF000040EF420DA6EDF50D8B401EF8FF003EF59
:101E00008FF04DEF8FF02DEC06F0660E0001776F2E
:101E1000FC0E786F020E796F46ECF2F0700E000146
:101E2000776FF60E786F030E796F46ECF2F0440E82
:101E30000001776FFD0E786F040E796F46ECF2F0BB
:101E4000110E00016C6F040E8AECFEF0E10E000131
:101E5000B86F000EB96FF70EBA6FFF0EBB6F010EB1
:101E60001E24BC6FBD6B000EBD23E6ECFEF0E10E40
:101E700000016C6F000E6D6FC8ECFDF0050E0001E7
:101E80007D6FF50E7E6FF50E7F6F000E806F070E73
:101E9000816F58EC97F057EF97F02DEC06F0C90ED4
:101EA0000001776FF60E786F020E796F46ECF2F054
:101EB000440E0001776FFD0E786F030E796F46ECCC
:101EC000F2F0110E00016C6F030E8AECFEF0E10ED1
:101ED0000001B86F000EB96FF70EBA6FFF0EBB6F3F
:101EE000010E1E24BC6FBD6B000EBD23E6ECFEF0A0
:101EF000E10E00016C6F000E6D6FC8ECFDF0C90EB5
:101F000000017D6FF10E7E6FF50E7F6F000E806F0A
:101F1000020E816F58EC97F057EF97F0180E606F34
:101F2000020E616FB00E626FF50E636F000E656F8B
:101F3000020E646FABECEFF0000160516111D8A4A8
:101F4000A4EF8FF0A6EF8FF0D0EF90F090A0ABEF62
:101F50008FF0ADEF8FF0DBEF8FF0000EDE6F2DEC2A
:101F600006F03F0E0001776FFB0E786F020E796F5F
:101F700046ECF2F09D0E0001776FF90E786F030EBC
:101F8000796F46ECF2F04F0E0001776FFF0E786F1D
:101F9000040E796F46ECF2F0620E00017D6FF00ED8
:101FA0007E6FF50E7F6F000E806F000E816F58EC14
:101FB00097F057EF97F0000E0101FE6F000EFD6FD6
:101FC000000EFC6F010EFC6F030E0001DE6F180E99
:101FD0000001DE25D96EDA6A020EDA22DF503CEC0F
:101FE00005F00009D8B4F7EF8FF0F9EF8FF06AEF42
:101FF00090F0190E0001DE25D96EDA6A020EDA229F
:10200000200EDE18D8A407EF90F009EF90F02AEF29
:1020100090F0180EDE25D96EDA6A020EDA22180E5A
:10202000DE25E16EE26A020EE222E750D00FDF6E9B
:10203000180E0001DE25D96EDA6A020EDA22DF50B0
:10204000C06FC0510101FD25FD6F000EFE21FE6F26
:1020500083EF90F0180EDE25D96EDA6A020EDA22CE
:10206000180EDE25E16EE26A020EE222E750D00F82
:10207000DF6E180EDE25D96EDA6A020EDA22DF5024
:102080000A0D180EDE25D96EDA6A020EDA22F3CFB7
:10209000DFFFFDC160F0FEC161F0000E636F0A0E4C
:1020A000626FF2EC05F060C0FDF161C0FEF118EF67
:1020B00090F0FDC193F1FEC194F1000E0101FE6F9D
:1020C000000EFD6F81EF90F0FDC120F0FEC121F008
:1020D0005DEF90F00101FC510001C06FC16BC15177
:1020E000000AD8B476EF90F081EF90F0C051010A69
:1020F000D8B459EF90F0030AD8B464EF90F081EFB0
:1021000090F00101FC2B0001DE2B020E0101FC65A9
:102110008CEF90F08EEF90F0E7EF8FF0090E00015A
:10212000C16F1E0EC06FE40EE82EFED7C02FFCD785
:10213000C12FFAD700F010ECEFF0090E0001C16FCB
:102140001E0EC06FE40EE82EFED7C02FFCD7C12FA5
:10215000FAD700F0000E0001DE6F2DEC06F09D0EA8
:102160000001776FF90E786F020E796F46ECF2F08E
:10217000B60E0001776FFB0E786F030E796F46EC99
:10218000F2F0820E00017D6FF20E7E6FF50E7F6F12
:10219000000E806F000E816F58EC97F057EF97F0AC
:1021A000180E606F020E616F750E626FF50E636F31
:1021B000000E656F050E646FABECEFF0000160512F
:1021C0006111D8A4E6EF90F0E8EF90F00DEF91F0F8
:1021D000000EDE6F2DEC06F0DE0E0001776FFC0EB8
:1021E000786F020E796F46ECF2F0B50E0001776F52
:1021F000F80E786F030E796F46ECF2F0F20E0001E4
:102200007D6FF00E7E6FF50E7F6F000E806F050EF6
:10221000816F58EC97F057EF97F0180E606F020E31
:10222000616F200E626FF50E636F000E656F070E13
:10223000646FABECEFF0000160516111D8A423EFA3
:1022400091F025EF91F0DAEF91F0070E18ECD5F050
:102250001E6E090E0001C16F1E0EC06FE40EE82E47
:10226000FED7C02FFCD7C12FFAD700F01E50B4EC18
:10227000F8F0090E1E603FEF91F041EF91F049EF49
:1022800091F0300E0001E16F1E50310FE26F57EFF9
:1022900091F0080E1E644FEF91F051EF91F057EF5F
:1022A00091F0310E0001E16F1E50270FE26F000127
:1022B000D351D8B45EEF91F060EF91F0ACEF91F0B4
:1022C000000ED36F2DEC06F0370E0001776FFC0E79
:1022D000786F020E796F46ECF2F0870E0001776F8F
:1022E000FE0E786F030E796F46ECF2F0440E00019B
:1022F000776FFD0E786F040E796F46ECF2F0110ED9
:1023000000016C6F040E8AECFEF0E10E0001B86F64
:10231000000EB96FF70EBA6FFF0EBB6F010E1E24D1
:10232000BC6FBD6B000EBD23E6ECFEF0E10E0001BC
:102330006C6F000E6D6FC8ECFDF0A10E00017D6F9B
:10234000F10E7E6FF50E7F6F000E806F020E816FB3
:1023500058EC97F057EF97F0000EDE6F2DEC06F07B
:10236000DD0E0001776FFE0E786F020E796F46EC7E
:10237000F2F0370E0001776FFC0E786F030E796F65
:1023800046ECF2F0910E0001776FFE0E786F040EAE
:10239000796F46ECF2F0210E00017D6FF10E7E6F39
:1023A000F50E7F6F000E806F060E816F58EC97F070
:1023B00057EF97F0180E606F020E616FA10E626FFB
:1023C000F50E636F000E656F030E646FABECEFF0FC
:1023D000000160516111D8A4F0EF91F0F2EF91F09B
:1023E0009EEF92F0030E18ECD5F01E6E090E000160
:1023F000C16F1E0EC06FE40EE82EFED7C02FFCD7B3
:10240000C12FFAD700F090A008EF92F00AEF92F0F7
:102410002CEF92F0000E0001DE6F2DEC06F03F0E67
:102420000001776FFB0E786F020E796F46ECF2F0C9
:102430009D0E0001776FF90E786F030E796F46ECF1
:10244000F2F04F0E0001776FFF0E786F040E796F78
:1024500046ECF2F0CCEF8FF0090E1E6032EF92F0F6
:1024600034EF92F03CEF92F0300E0001E16F1E501D
:10247000310FE26F4AEF92F0080E1E6442EF92F0C5
:1024800044EF92F04AEF92F0310E0001E16F1E50DE
:10249000270FE26FCB0E0001C16FEC0EC06F840EF0
:1024A000E82EFED7C02FFCD7C12FFAD700F0CB0EF5
:1024B0000001C16FEC0EC06F840EE82EFED7C02F56
:1024C000FCD7C12FFAD700F01EC06DF0010E5FECF3
:1024D000C9F0520E0001C16F2B0EC06F000EE82E26
:1024E000FED7C02FFCD7C12FFAD700F010ECEFF0C9
:1024F000520E0001C16F2B0EC06F000EE82EFED7EA
:10250000C02FFCD7C12FFAD700F0000E0001DE6FFC
:102510002DEC06F09D0E0001776FF90E786F020E1C
:10252000796F46ECF2F0B60E0001776FFB0E786F14
:10253000030E796F46ECF2F0FEEF90F0180E606F2C
:10254000020E616F4E0E626FF50E636F000E656FC7
:10255000060E646FABECEFF0000160516111D8A47E
:10256000B4EF92F0B6EF92F03EEF95F0000E01015D
:10257000FE6F000EFD6F000EFC6F070E0001DE6F98
:10258000180E0001DE25D96EDA6A020EDA22DF505B
:102590003CEC05F00009D8B4D0EF92F0D2EF92F005
:1025A0004CEF93F0180E0001DE25D96EDA6A020EA8
:1025B000DA22180EDE25E16EE26A020EE222E75010
:1025C000D00FDF6E180EDE25D96EDA6A020EDA221F
:1025D000DF50C06FC0510101FD6FFE6BFDC160F0A7
:1025E000FEC161F0000E0001636F0A0E626FF2EC33
:1025F00005F060C0FDF161C0FEF1190E0001DE259D
:10260000D96EDA6A020EDA22190EDE25E16EE26A6E
:10261000020EE222E750D00FDF6E190EDE25D96ED2
:10262000DA6A020EDA22DF50C06FC0510101FD25C7
:10263000FD6F000EFE21FE6FFC2B32EF93F0FDC10B
:10264000F9F1000E0101FE6F000EFD6F4CEF93F0EB
:10265000FDC1FAF121EF93F00101FD517EECCEF0C6
:1026600021EF93F0FC510001C06FC16BC151000A12
:10267000D8B43DEF93F04CEF93F0C051010AD8B4B9
:102680001FEF93F0030AD8B428EF93F0010AD8B4EF
:102690002CEF93F04CEF93F0030E0001DE27020EB7
:1026A0000101FC6556EF93F058EF93F0C0EF92F004
:1026B000000E1E6E25EF95F01E502D0DD90EF32441
:1026C000D96E040EF420DA6E0F0EDE6E000EDD6E93
:1026D0001E502D0DF30EF324D96E040EF420DA6E85
:1026E000010EDF6E1E502D0DF40EF324D96E040E74
:1026F000F420DA6EF9C1DFFF1E502D0DF50EF32424
:10270000D96E040EF420DA6EFAC1DFFF1E502D0DD3
:10271000F60EF324D96E040EF420DA6EC8C0DFFF83
:102720001E502D0DF70EF324D96E040EF420DA6E30
:10273000D5C0DFFF1E502D0DF80EF324D96E040E08
:10274000F420DA6ED6C0DFFF1E502D0DD50EF32417
:10275000D96E040EF420DA6E640EDE6E000EDD6EAD
:102760001E502D0DD70EF324D96E040EF420DA6E10
:10277000300EDE6E750EDD6E1E502D0DFA0EF3243A
:10278000D96E040EF420DA6E1E28DF6E1E502D0D59
:10279000FE0EF324D96E040EF420DA6E000EDF6E06
:1027A0001E502D0DFC0EF324D96E040EF420DA6EAB
:1027B000020EDF6E1E502D0DFD0EF324D96E040E99
:1027C000F420DA6E020EDF6E1E502D0DFF0EF32484
:1027D000D96E040EF420DA6E010EDF6E1E502D0D40
:1027E000DB0EF324D96E040EF420DA6E050EDE6ED5
:1027F000000EDD6E1E502D0DDD0EF324D96E040E7D
:10280000F420DA6E0F0EDE6E000EDD6E1E502D0D02
:10281000F90EF324D96E040EF420DA6E1E28DF6E52
:102820001E502D0DFB0EF324D96E040EF420DA6E2B
:10283000000EDF6E1E502D0D010EF324D96E050E15
:10284000F420DA6E000EDF6E1E502D0D000EF32404
:10285000D96E050EF420DA6E010EDF6E1E50020DE9
:102860006B0EF324F66EE80EF420F76EF86A000E95
:10287000F8220900F5CF63F00A00F5CF64F01E508E
:102880002D0DD50EF3240001656F040EF420666F44
:102890005EECE1F0090E0001C16F1E0EC06FE40E88
:1028A000E82EFED7C02FFCD7C12FFAD700F01E505C
:1028B000020D6B0EF324F66EE80EF420F76EF86A44
:1028C000000EF8220900F5CF63F00A00F5CF64F09E
:1028D0001E502D0DD50EF3240001656F040EF4205B
:1028E000666FEEECF5F0090E0001C16F1E0EC06FB1
:1028F000E40EE82EFED7C02FFCD7C12FFAD700F088
:102900001E50020D6B0EF324F66EE80EF420F76EE7
:10291000F86A000EF8220900F5CF63F00A00F5CF3F
:1029200064F01E502D0DD50EF3240001656F040ECA
:10293000F420666F94ECFFF0090E0001C16F1E0ECB
:10294000C06FE40EE82EFED7C02FFCD7C12FFAD7F8
:1029500000F01E50020D6B0EF324F66EE80EF4200C
:10296000F76EF86A000EF8220900F5CF63F00A004E
:10297000F5CF64F01E502D0DD50EF3240001656FC8
:10298000040EF420666FBEECFFF0090E0001C16F6B
:102990001E0EC06FE40EE82EFED7C02FFCD7C12F4D
:1029A000FAD700F01E50020D6B0EF324F66EE80EFF
:1029B000F420F76EF86A000EF8220900F5CF63F0F4
:1029C0000A00F5CF64F01E502D0DD50EF324000142
:1029D000656F040EF420666F6AECFFF0090E0001CB
:1029E000C16F1E0EC06FE40EE82EFED7C02FFCD7BD
:1029F000C12FFAD700F01E50020D6B0EF324F66EB5
:102A0000E80EF420F76EF86A000EF8220900F5CF00
:102A100063F00A00F5CF64F01E502D0DD50EF3249F
:102A20000001656F040EF420666FE4ECC2F0090E3D
:102A30000001C16F1E0EC06FE40EE82EFED7C02F3E
:102A4000FCD7C12FFAD700F01E2A0F0E1E642BEF01
:102A500095F02DEF95F05CEF93F0000E0001DE6F26
:102A6000C30E7D6FF40E7E6FF50E7F6F000E806FCC
:102A7000000E816F58EC97F057EF97F0180E606FCB
:102A8000020E616FA50E626FF50E636F000E656F2B
:102A9000030E646FABECEFF0000160516111D8A43C
:102AA00054EF95F056EF95F0C1EF95F0040E01014B
:102AB000FB6F8DEF95F0FB5118ECD5F01E6E010108
:102AC000FB51020F18ECD5F00001C06F010EC027BA
:102AD0001E50C16FC26BD890C137C237000EC125DE
:102AE000D96E020EC221DA6EC0C0DFFF0101FB51B8
:102AF000040F18ECD5F00001C06F010EC0271E5066
:102B0000020D010EF324D96E020EF420DA6EC0C05D
:102B1000DFFF0101FB51060FFB6F180EFB25D96E7D
:102B2000DA6A020EDA22200EDE18D8A49AEF95F0A7
:102B30009CEF95F05BEF95F02DEC06F06E0E00012A
:102B4000776FFD0E786F020E796F46ECF2F0A60EED
:102B50000001776FF70E786F030E796F46ECF2F095
:102B6000000E0001DE6F3A0E7D6FF20E7E6FF50EE5
:102B70007F6F000E806F010E816F58EC97F057EF5A
:102B800097F057EF97F0180E606F020E616FB30E5B
:102B9000626FF50E636F000E656F020E646FABEC33
:102BA000EFF0000160516111D8A4D9EF95F0DBEF8F
:102BB00095F0DDEF96F01B0E606F020E616FEE0E6A
:102BC000626F010E636F000E656F060E646FABECF3
:102BD000EFF0000160516111D8A4F1EF95F0F3EF2F
:102BE00095F0A9EF96F01250D8B4F9EF95F0FBEFFD
:102BF00095F01EEF96F02DEC06F07E0E0001776F3B
:102C0000FA0E786F020E796F46ECF2F0A60E000114
:102C1000776FF70E786F030E796F46ECF2F0000EC7
:102C20000001DE6FCB0E7D6FEF0E7E6FF50E7F6FB6
:102C3000000E806F010E816F58EC97F0EE0E0001D0
:102C4000606F010E616F220E626F020E636F000EE5
:102C5000656F060E646F48ECFBF0F50E0001606FC7
:102C6000000E616FE10E626F000E636F000E656F04
:102C70000A0E646F48ECFBF0010E126EE10E0001CB
:102C8000606F000E616FD40E626F010E636F000EF5
:102C9000656F0A0E646F48ECFBF0050E0001C16F12
:102CA0000F0EC06FF10EE82EFED7C02FFCD7C12F3C
:102CB000FAD7BEECFAF0050E0001C16F0F0EC06F1F
:102CC000F10EE82EFED7C02FFCD7C12FFAD703ECA8
:102CD000FBF0050E0001C16F0F0EC06FF10EE82E64
:102CE000FED7C02FFCD7C12FFAD711EC03F0050E89
:102CF0000001C16F0F0EC06FF10EE82EFED7C02F7E
:102D0000FCD7C12FFAD7000E0001DE6F2DEC06F0C4
:102D10007E0E0001776FFA0E786F020E796F46EC27
:102D2000F2F0A60E0001776FF70E786F030E796F41
:102D300046ECF2F0960E00017D6FF40E7E6FF50EFC
:102D40007F6F000E806F000E816F58EC97F057EF89
:102D500097F02DEC06F0BC0E0001776FFD0E786F3A
:102D6000010E796F46ECF2F0830E0001776FFA0ED8
:102D7000786F020E796F46ECF2F0000E0001DE6F04
:102D80007F0E7D6FF40E7E6FE10E7F6F000E806F01
:102D9000000E816F58EC97F0E10E0001606F000E9D
:102DA000616FD40E626F010E636F000E656F0A0EC5
:102DB000646F48ECFBF057EF97F0180E606F020E4F
:102DC000616F900E626FF50E636F000E656F040EFB
:102DD000646FABECEFF0000160516111D8A4F3EF28
:102DE00096F0F5EF96F01AEF97F02DEC06F0C00E86
:102DF0000001776FFC0E786F010E796F46ECF2F0F0
:102E00008A0E0001776FFE0E786F020E796F46EC26
:102E1000F2F0000E0001DE6FAD0E7D6FF40E7E6FDE
:102E2000E10E7F6F000E806F000E816F58EC97F0FF
:102E3000CCEF96F0180E606F020E616F140E626F89
:102E4000F50E636F000E656F0B0E646FABECEFF069
:102E5000000160516111D8A430EF97F032EF97F084
:102E6000D5EF80F0000EDE6FE70E7D6FF40E7E6F03
:102E7000E10E7F6F000E806F040E816F58EC97F0AB
:102E8000CCEF96F0ECEC04F0520E0001C16F2B0E6B
:102E9000C06F000EE82EFED7C02FFCD7C12FFAD787
:102EA00000F057EF97F0ECEC04F0D5EF80F0120053
:102EB000B00E0001776FF70E786F010E796F46EC58
:102EC000F2F01E0E0101CA6F9B0E0001616FFE0E33
:102ED000626F13ECFFF0050E0001836F0F0E826F1F
:102EE000F10EE82EFED7822FFCD7832FFAD77FC0B2
:102EF00061F080C062F00A0E0001636F24EC04F000
:102F0000050E0001836F0F0E826FF10EE82EFED7C3
:102F1000822FFCD7832FFAD7530E0001616FFC0E6E
:102F2000626F13ECFFF0090E0001836F1E0E826FBB
:102F3000E40EE82EFED7822FFCD7832FFAD700F0BD
:102F40007DC061F07EC062F013ECFFF0090E00015D
:102F5000836F1E0E826FE40EE82EFED7822FFCD701
:102F6000832FFAD700F01DEF9FF0E10E616F000E86
:102F7000626F0A0E636F24EC04F0090E0001836F88
:102F80001E0E826FE40EE82EFED7822FFCD7832F11
:102F9000FAD700F04BEF9FF0E10E616F000E626F09
:102FA000020E636F24EC04F0BDEF97F0E10E616F49
:102FB000000E626F110E636F24EC04F0BDEF97F00A
:102FC000E70E616F010E626F060E636F24EC04F072
:102FD000BDEF97F093C105F094C106F005C066F00F
:102FE00006C067F0030E696FE80E686F89ECFCF0AD
:102FF00000016651300FEF6F030E636FE80E626FD2
:1030000005C060F006C061F031ECFDF060C066F014
:1030100061C067F0000E0001696F640E686F89EC93
:10302000FCF000016651300FF06F000E636F640E0C
:10303000626F05C060F006C061F031ECFDF060C069
:1030400066F061C067F0000E0001696F0A0E686FDC
:1030500089ECFCF000016651300FF16F05C060F0A3
:1030600006C061F0000E636F0A0E626F31ECFDF076
:1030700000016051300FF26FEF0E616F000E626F52
:10308000040E636F24EC04F0050E0001836F0F0E35
:10309000826FF10EE82EFED7822FFCD7832FFAD74E
:1030A000A60E0001616FFF0E626F13ECFFF0050EBC
:1030B0000001836F0F0E826FF10EE82EFED7822F74
:1030C000FCD7832FFAD720C005F021C006F005C039
:1030D00066F006C067F0030E0001696FE80E686FC6
:1030E00089ECFCF000016651300FEF6F030E636F47
:1030F000E80E626F05C060F006C061F031ECFDF0D3
:1031000060C066F061C067F0000E0001696F640E78
:10311000686F89ECFCF000016651300FF06F000E13
:10312000636F640E626F05C060F006C061F031EC41
:10313000FDF060C066F061C067F0000E0001696FCD
:103140000A0E686F89ECFCF000016651300FF16FD8
:1031500005C060F006C061F0000E636F0A0E626F7A
:1031600031ECFDF000016051300FF26FEF0E616F36
:10317000000E626F040E636F24EC04F0BDEF97F055
:10318000E10E616F000E626F020E636F24EC04F0BB
:10319000050E0001836F0F0E826FF10EE82EFED731
:1031A000822FFCD7832FFAD7C80E0001616FFF0E64
:1031B000626F13ECFFF0050E0001836F0F0E826F3C
:1031C000F10EE82EFED7822FFCD7832FFAD7C6C088
:1031D00005F0C7C006F005C066F006C067F0270E10
:1031E0000001696F100E686F89ECFCF000016651F8
:1031F000300FEF6F270E636F100E626F05C060F027
:1032000006C061F031ECFDF060C066F061C067F0AF
:10321000030E0001696FE80E686F89ECFCF0000195
:103220006651300FF06F030E636FE80E626F05C0DA
:1032300060F006C061F031ECFDF060C066F061C086
:1032400067F0000E0001696F640E686F89ECFCF096
:1032500000016651300FF16F000E636F640E626FF4
:1032600005C060F006C061F031ECFDF060C066F0B2
:1032700061C067F0000E0001696F0A0E686F89EC8B
:10328000FCF000016651300FF26F05C060F006C01F
:1032900061F0000E636F0A0E626F31ECFDF0000109
:1032A0006051300FF36FEF0E616F000E626F050E0D
:1032B000636F24EC04F0BDEF97F0D00E0001826F35
:1032C000C90EE82EFED7822FFCD700D0E10E0001F8
:1032D000616F000E626F020E636F24EC04F0D00E7B
:1032E0000001826FC90EE82EFED7822FFCD700D0D6
:1032F0005F0E0001616FFF0E626F13ECFFF0D00EE6
:103300000001826FC90EE82EFED7822FFCD700D0B5
:103310001E502D0DD90EF324D96E040EF420DA6E52
:10332000DECF05F0DDCF06F005C066F006C067F021
:10333000000E0001696F640E686F89ECFCF00001FB
:103340006651300FE16F000E636F640E626F05C04F
:1033500060F006C061F031ECFDF060C066F061C065
:1033600067F0000E0001696F0A0E686F89ECFCF0CF
:1033700000016651300FE26F05C060F006C061F0D9
:10338000000E636F0A0E626F31ECFDF000016051B8
:10339000300FE36FE10E616F000E626F030E636F1B
:1033A00024EC04F0D00E0001826FC90EE82EFED787
:1033B000822FFCD700D0130E0001616FFF0E626FE9
:1033C00013ECFFF0D00E0001826FC90EE82EFED77D
:1033D000822FFCD700D01E502D0DF30EF324D96E92
:1033E000040EF420DA6EDF500001826F8251606FAC
:1033F000616B000E636F0A0E626F52ECF6F0000113
:103400006051300FE16F1E502D0DF30EF324D96E75
:10341000040EF420DA6EDF50826F8251726F736B8C
:10342000000E756F0A0E746F11ECF7F00001725107
:10343000300FE26FE10E616F000E626F020E636F7C
:1034400024EC04F0D00E0001826FC90EE82EFED7E6
:10345000822FFCD700D0B80E0001616FFF0E626FA3
:1034600013ECFFF0D00E0001826FC90EE82EFED7DC
:10347000822FFCD700D01E502D0DD50EF324D96E0F
:10348000040EF420DA6EDECF05F0DDCF06F005C0C5
:1034900066F006C067F0000E0001696F640E686F89
:1034A00089ECFCF000016651300FE16F000E636F94
:1034B000640E626F05C060F006C061F031ECFDF093
:1034C00060C066F061C067F0000E0001696F0A0E0F
:1034D000686F89ECFCF000016651300FE26F05C0A7
:1034E00060F006C061F0000E636F0A0E626F31EC8F
:1034F000FDF000016051300FE36FE10E616F000ECF
