:040000000DEF03F00D
:06000800438240EFD3F03B
:100018004380D8CF38F0E8CF39F0E0CF3AF0E9CFD5
:100028003BF0EACF3CF0D9CF3DF0DACF3EF0F6CF47
:100038003FF0F7CF40F0F8CF41F0F5CF42F00E0196
:1000480033AB29EF00F02BEF00F09CEF02F0909615
:10005800339BE30ED46EB00ED36E192A07500810E6
:10006800D8B439EF00F03BEF00F08CEF00F090A02F
:1000780040EF00F042EF00F08CEF00F00706D8A048
:1000880008060101562B1350D8B44DEF00F04FEF7E
:1000980000F057EF00F0030E136055EF00F057EF34
:1000A80000F058EF00F0132A010E2A6E020E2B6E94
:1000B800CF0E2C6EF80E2D6E000E2F6E050E2E6EC6
:1000C80092ECE9F02A502B10D8A46DEF00F06FEFF6
:1000D80000F08CEF00F0060E2A6E020E2B6EDB0E7F
:1000E8002C6EF80E2D6E000E2F6E050E2E6E92ECF5
:1000F800E9F02A502B10D8A484EF00F086EF00F026
:100108008CEF00F0E8ECFAF00101572B8CEF00F0CF
:1001180090A491EF00F093EF00F0DBEF01F08EA6D2
:1001280098EF00F09AEF00F0B5EF00F001013E51B2
:10013800361907E13F513719D8A4A5EF00F0A7EF0A
:1001480000F0B1EF00F08E96000E376F000E366F9C
:10015800264B272B5B2BE5EF00F0364B372BE5EFD3
:1001680000F08EB6BAEF00F0BCEF00F0E5EF00F05B
:1001780001012E51261907E12F512719D8A4C7EFDD
:1001880000F0C9EF00F0E3EF00F01F505B5DD8B05E
:10019800D0EF00F0D2EF00F0DBEF00F08E86364BA8
:1001A800372B000E276F000E266FE5EF00F0010ECB
:1001B8002E25266F000E2F21276FE5EF00F0264B26
:1001C800272B8EA8EAEF00F0ECEF00F007EF01F024
:1001D80001013C51341907E13D513519D8A4F7EF15
:1001E80000F0F9EF00F003EF01F08E98000E356F84
:1001F800000E346F244B252B5A2B37EF01F0344B6C
:10020800352B37EF01F08EB80CEF01F00EEF01F04F
:1002180037EF01F001012C51241907E12D5125195F
:10022800D8A419EF01F01BEF01F035EF01F05E5192
:100238005A5DD8B022EF01F024EF01F02DEF01F064
:100248008E88344B352B000E256F000E246F37EF48
:1002580001F0010E2C25246F000E2D21256F37EF9C
:1002680001F0244B252B8EAA3CEF01F03EEF01F064
:1002780059EF01F001013A51321907E13B513319A5
:10028800D8A449EF01F04BEF01F055EF01F08E9A39
:10029800000E336F000E326F224B232B592B89EF40
:1002A80001F0324B332B89EF01F08EBA5EEF01F08B
:1002B80060EF01F089EF01F001012A51221907E1ED
:1002C8002B512319D8A46BEF01F06DEF01F087EFE4
:1002D80001F05D51595DD8B074EF01F076EF01F08F
:1002E8007FEF01F08E8A324B332B000E236F000E06
:1002F800226F89EF01F0010E2A25226F000E2B21B3
:10030800236F89EF01F0224B232B8EAC8EEF01F087
:1003180090EF01F0ABEF01F001013851301907E11E
:1003280039513119D8A49BEF01F09DEF01F0A7EFE7
:1003380001F08E9C000E316F000E306F204B212B88
:10034800582BDBEF01F0304B312BDBEF01F08EBC8B
:10035800B0EF01F0B2EF01F0DBEF01F0010128513D
:10036800201907E129512119D8A4BDEF01F0BFEFE9
:1003780001F0D9EF01F05C51585DD8B0C6EF01F03B
:10038800C8EF01F0D1EF01F08E8C304B312B000E0D
:10039800216F000E206FDBEF01F0010E2825206F82
:1003A800000E2921216FDBEF01F0204B212B630E7A
:1003B8001818D8A4E2EF01F0E4EF01F0E8EF01F03B
:1003C800000E196E9CEF02F01804D8A4EEEF01F0AD
:1003D800F0EF01F000EF02F017501918D8A4F7EF6A
:1003E80001F0F9EF01F000EF02F0000E196E8A86B5
:1003F800020E186E9CEF02F0020E1818D8A407EF30
:1004080002F009EF02F019EF02F014501918D8A4FD
:1004180010EF02F012EF02F019EF02F0000E196E61
:100428008A96030E186E9CEF02F0030E1818D8A4D3
:1004380020EF02F022EF02F032EF02F01650191806
:10044800D8A429EF02F02BEF02F032EF02F0000EF1
:10045800196E8A88040E186E9CEF02F0040E1818A4
:10046800D8A439EF02F03BEF02F04BEF02F0145042
:100478001918D8A442EF02F044EF02F04BEF02F053
:10048800000E196E8A98050E186E9CEF02F0050E84
:100498001818D8A452EF02F054EF02F064EF02F0FB
:1004A80016501918D8A45BEF02F05DEF02F064EF64
:1004B80002F0000E196E8A8A060E186E9CEF02F082
:1004C800060E1818D8A46BEF02F06DEF02F07DEF5E
:1004D80002F014501918D8A474EF02F076EF02F065
:1004E8007DEF02F0000E196E8A9A070E186E9CEFC7
:1004F80002F0070E1818D8A484EF02F086EF02F075
:100508009CEF02F01950366E376A0001CB5136184D
:1005180007E1CC513718D8A494EF02F096EF02F017
:100528009CEF02F0000E196E010E186E9CEF02F09F
:100538000E0138A1A2EF02F0A4EF02F0A9EF02F039
:1005480090960101522B0E01389138A5AEEF02F0BA
:10055800B0EF02F0F5EF02F090963895F00EC86E05
:10056800DC0EC76E0101512B5151555DD8B0BFEF5C
:1005780002F0C1EF02F0E8EF02F01150D8A4C7EF83
:1005880002F0C9EF02F0E8EF02F0010E116E000E62
:10059800516FC9904651D8B4D4EF02F0D6EF02F0AB
:1005A800DBEF02F0010E0001CD6FF5EF02F05051C4
:1005B800D8B4E1EF02F0E3EF02F0F5EF02F0010E3C
:1005C8000001D46FF5EF02F01150D8B4EEEF02F04D
:1005D800F0EF02F0F5EF02F0000E516FC990F5EF61
:1005E80002F042C0F5FF41C0F8FF40C0F7FF3FC02E
:1005F800F6FF3EC0DAFF3DC0D9FF3CC0EAFF3BC072
:10060800E9FF3AC0E0FF39C0E8FF38C0D8FF43909F
:06061800100065EFEFF099
:10EB70000053797374656D2041757468656E7469AE
:10EB80006361746564207769746820506861736597
:10EB9000206661696C7572652C2073757370656E83
:10EBA00064696E6720616C6C20616374696F6E7359
:10EBB0000053797374656D207265736574206F639B
:10EBC0006375727265642C20497272696761746939
:10EBD0006F6E2073657474696E672064656C65740C
:10EBE0006564000000300060009000C000F000206C
:10EBF0000150018001B001E001100240027002A04A
:10EC000002D00250686173652042206661696C75AC
:10EC1000726520646574656374656400506861732F
:10EC2000652059206661696C75726520646574653C
:10EC300063746564004C6F67696E20636F64652060
:10EC40006E6F74206368616E676564002B434D547A
:10EC5000493A2022534D222C780049444C45006FFC
:10EC60006B004472792052756E206465746563741C
:10EC700065642C204D6F746F722C20497272696725
:10EC80006174696F6E20616E642046657274696795
:10EC90006174696F6E207377697463686564206F4F
:10ECA00066662E0D0A49727269676174696F6E201B
:10ECB0007363686564756C656420746F206E657835
:10ECC000742064617920776974682066657274695C
:10ECD000676174696F6E20666F72206669656C6427
:10ECE000206E6F2E0000004472792052756E2064F1
:10ECF000657465637465642C204D6F746F72206158
:10ED00006E642049727269676174696F6E207377EF
:10ED1000697463686564206F66662E0D0A497272B5
:10ED200069676174696F6E207363686564756C658B
:10ED30006420746F206E657874206461792077692F
:10ED40007468206665727469676174696F6E2066A5
:10ED50006F72206669656C64206E6F2E000000443F
:10ED600072792052756E2064657465637465642CD5
:10ED7000204D6F746F7220616E64204972726967F2
:10ED80006174696F6E207377697463686564206F5E
:10ED900066662E0D0A49727269676174696F6E202A
:10EDA0007363686564756C656420746F206E657844
:10EDB0007420647565206461746520666F722066D6
:10EDC00069656C64206E6F2E0000004472792052D9
:10EDD000756E2064657465637465642C204D6F7472
:10EDE0006F7220616E642049727269676174696F25
:10EDF0006E207377697463686564206F66662E0D94
:10EE00000A49727269676174696F6E20736368651D
:10EE100064756C656420746F206E6578742064611D
:10EE20007920666F72206669656C64206E6F2E00B3
:10EE3000000053797374656D207265737461727428
:10EE4000656420666F7220416C6C20506861736548
:10EE500020446574656374696F6E207769746820F7
:10EE6000696E636F6D706C65746520497272696755
:10EE70006174696F6E20666F72206669656C6420CC
:10EE80006E6F2E0053797374656D207265737461B3
:10EE90007274656420666F7220506F7765722049C6
:10EEA0006E74657272757074207769746820696E0B
:10EEB000636F6D706C657465204972726967617407
:10EEC000696F6E20666F72206669656C64206E6F74
:10EED0002E0053797374656D20726573746172745A
:10EEE000656420696E20446961676E6F737469633D
:10EEF000204D6F6465207769746820696E636F6D5B
:10EF0000706C6574652049727269676174696F6EAF
:10EF100020666F72206669656C64206E6F2E0053E8
:10EF2000797374656D2072657374617274656420A1
:10EF3000666F72204C6F7720506F77657220496E34
:10EF4000207769746820696E636F6D706C65746595
:10EF50002049727269676174696F6E20666F7220F2
:10EF60006669656C64206E6F2E0053797374656DED
:10EF70002072657374617274656420666F722053C9
:10EF80007461636B204572726F72207769746820B8
:10EF9000696E636F6D706C65746520497272696724
:10EFA0006174696F6E20666F72206669656C64209B
:10EFB0006E6F2E0053797374656D20726573746182
:10EFC0007274656420666F72205744542054696DD2
:10EFD000656F7574207769746820696E636F6D70F2
:10EFE0006C6574652049727269676174696F6E201F
:10EFF000666F72206669656C64206E6F2E004665D0
:10F00000727469676174696F6E2073746F70706574
:10F010006420776974682066657274696C697A65C2
:10F0200072206C6576656C2073656E736F722066F6
:10F0300061696C75726520666F72206669656C64C3
:10F04000206E6F2E004C6F772050686173652063CF
:10F05000757272656E742064657465637465642C82
:10F0600020616374696F6E732073757370656E646D
:10F0700065642C20706C65617365207265737461C2
:10F0800072742073797374656D0049727269676177
:10F0900074696F6E206973206E6F742041637469A8
:10F0A00076652E204665727469676174696F6E209B
:10F0B0006E6F7420656E61626C656420666F72208D
:10F0C0006669656C64206E6F2E004D6F6973747590
:10F0D00072652073656E736F722069732066616953
:10F0E0006C65642C2049727269676174696F6E2067
:10F0F0007374617274656420666F72206669656CF2
:10F1000064206E6F2E0053797374656D2072657381
:10F1100074617274656420776974682070686173C3
:10F1200065206661696C7572652C207375737065F6
:10F130006E64696E6720616C6C20616374696F6EC8
:10F1400073004665727469676174696F6E207374C9
:10F150006F707065642077697468206C6F772066C3
:10F16000657274696C697A6572206C6576656C206D
:10F17000666F72206669656C64206E6F2E0057653D
:10F1800074206669656C6420646574656374656485
:10F190002E0D0A49727269676174696F6E206E6F15
:10F1A00074207374617274656420666F722066697E
:10F1B000656C64206E6F2E00000053797374656D6A
:10F1C000207265736574206F636375727265642C59
:10F1D000206C6F67696E20636F646520726573656C
:10F1E0007420746F20466163746F72792073657444
:10F1F00074696E670049727269676174696F6E2025
:10F20000636F6D706C6574656420666F72206475E1
:10F2100065206669656C64730D0A4D6F746F7220AA
:10F220007377697463686564206F66660000004EDA
:10F230006577205254432062617474657279206648
:10F240006F756E642C20706C656173652073796EC8
:10F25000632073797374656D2074696D65206D61C9
:10F260006E75616C6C79004E657720525443206254
:10F2700061747465727920666F756E642C20737981
:10F280007374656D2074696D65206973207365748E
:10F2900020746F206C6F63616C2074696D65004928
:10F2A0006E636F72726563742076616C7565732E20
:10F2B000204665727469676174696F6E206E6F7441
:10F2C00020656E61626C656420666F722066696598
:10F2D0006C64206E6F2E0049727269676174696F89
:10F2E0006E2073746F7070656420776974686F75D1
:10F2F0007420726573706F6E73652066726F6D2017
:10F300006669656C64206E6F2E0049727269676170
:10F3100074696F6E20736B697070656420776974AF
:10F3200068206E6F20726573706F6E7365206672F1
:10F330006F6D206669656C64206E6F3A00596F7559
:10F3400020617265206E6F206D6F72652041646D63
:10F35000696E206E6F772E204E65772041646D694F
:10F360006E2069732073657420746F0D0A000000AD
:10F37000525443204261747465727920666F756ED1
:10F3800064206C6F772C20706C65617365207265EA
:10F39000706C6163652052544320626174746572BD
:10F3A000790049727269676174696F6E20697320B0
:10F3B0006163746976652C204D6F746F72206C6F79
:10F3C0006164206375742D6F6666206E6F742073A0
:10F3D00065740049727269676174696F6E20636F4A
:10F3E0006E66696775726174696F6E2064697361B6
:10F3F000626C656420666F72206669656C64206E5D
:10F400006F2E005068617365206661696C75726566
:10F410002064657465637465642C2073757370650E
:10F420006E64696E6720616C6C20616374696F6ED5
:10F4300073004E6F4C6F616420616E642046756C82
:10F440006C4C6F6164204D6F746F722074687265CC
:10F4500073686F6C64732073657420746F203A2036
:10F46000004D6F6973747572652073656E736F728A
:10F47000206672657175656E63792076616C75655D
:10F4800020666F72206669656C64206E6F2E005373
:10F49000797374656D2074696D652073796E636529
:10F4A0006420746F2063757272656E74206C6F6374
:10F4B000616C2074696D650053797374656D207299
:10F4C000657374617274656420666F7220416C6C40
:10F4D00020506861736520446574656374696F6E5C
:10F4E000004D6F6973747572652073656E736F720A
:10F4F000206973206661696C656420666F7220669E
:10F5000069656C64206E6F2E004972726967617460
:10F51000696F6E206E6F7420636F6E6669677572B7
:10F52000656420666F72206669656C64206E6F2E5C
:10F530000053797374656D207265737461727465BC
:10F540006420666F7220506F77657220496E746513
:10F5500072727570740053797374656D207265737F
:10F5600074617274656420696E20446961676E6FAE
:10F5700073746963206D6F646500497272696761B5
:10F5800074696F6E206669656C64206D617070656A
:10F590006420776974682076616C766573004972BF
:10F5A0007269676174696F6E20636F6E66696775F3
:10F5B00072656420666F72206669656C64206E6F88
:10F5C0002E004D6F746F726C6F6164206375742DC3
:10F5D0006F66662073657420737563636573736605
:10F5E000756C6C79004665727469676174696F6ED9
:10F5F0002064697361626C656420666F722066695D
:10F60000656C64206E6F2E00466572746967617464
:10F61000696F6E2073746F7070656420666F7220FE
:10F620006669656C64206E6F2E004665727469674A
:10F630006174696F6E207374617274656420666FA3
:10F6400072206669656C64206E6F2E004665727468
:10F6500069676174696F6E20656E61626C656420B4
:10F66000666F72206669656C64206E6F2E00537938
:10F670007374656D2072657374617274656420665D
:10F680006F7220737461636B206572726F720053C6
:10F69000797374656D20726573746172746564202A
:10F6A000666F72205744542074696D656F757400DD
:10F6B00049727269676174696F6E2073746F7070DC
:10F6C000656420666F72206669656C64206E6F2EBB
:10F6D0000049727269676174696F6E207374617238
:10F6E00074656420666F72206669656C64206E6F55
:10F6F0002E0057617465722046696C74726174697A
:10F700006F6E206973206E6F7420656E61626C6528
:10F7100064004C6F67696E20636F64652063686185
:10F720006E676564207375636365737366756C6C6F
:10F73000790053797374656D2072657374617274A6
:10F74000656420666F72204C6F7720506F7765720A
:10F750000057617465722066696C74726174696FB8
:10F760006E20646561637469766174656400496ED6
:10F77000636F7272656374206C6F63616C2074696F
:10F780006D6520666F756E64005761746572204602
:10F79000696C74726174696F6E2053657175656E02
:10F7A00063653A0057617465722066696C747261B2
:10F7B00074696F6E2061637469766174656400506A
:10F7C000686173652052206661696C75726520649A
:10F7D000657465637465640057726F6E67206C6F43
:10F7E00067696E20636F646520666F756E640041A3
:10F7F000646D696E207365742073756363657373DC
:10F8000066756C6C790041757468656E74696361C6
:10F8100074696F6E206661696C656400416C6C2070
:10F820005068617365206465746563746564005431
:10F83000657374204461746120496E6A6563746500
:10F84000640053797374656D20436F6E6E656374E5
:10F85000656400466163746F7279204B6579203A64
:10F86000200043757272656E742054696D653A208C
:10F870000049727269676174696F6E204E6F3A0059
:10F880003132333435363738393132004745544612
:10F890005245510045585452414354004441435449
:10F8A0004956450044495341424C450053454E5347
:10F8B0004F52004D415354455200494E4A4543541E
:10F8C0000041435449564500454E41424C45004194
:10F8D0004C495645004552524F5200534C415645F3
:10F8E0000047455443540046444154410046454571
:10F8F000440054494D4500484F4C4400484F4F4B3D
:10F900000041434B004F4646002B393100534354CE
:10F91000004D415000534554004F4E0043540041A8
:10F9200055004665727469676174696F6E20656E13
:10F9300061626C656420776974682064656C6179C4
:10F940003A004665727469676174696F6E206E6F04
:10F950007420636F6E666967757265640D0A002AAC
:10F960002A2A466163746F72792052657365742A1E
:10F970002A2A2A0053797374656D20436F6D706C69
:10F9800065746520446174610043757272656E74BC
:10F9900020496E2046756C6C204C6F6164004E658A
:10F9A00077204D657373616765205265636569767D
:10F9B000656400436F6E6669677572656420666F83
:10F9C00072204669656C6400546F2044656C6574F0
:10F9D000652049727269676174696F6E00496E20B3
:10F9E0004E6F204C6F616420436F6E646974696F61
:10F9F0006E0053797374656D20697320426F6F7464
:10FA0000696E6720557000437572736F7220486F7E
:10FA10006D65202620426C696E6B00576974682002
:10FA200053656E736F72204661696C757265004331
:10FA30006865636B696E672047534D205369676E35
:10FA4000616C00546F20436865636B2047534D2001
:10FA50005369676E616C0042686F6F6D69204A611F
:10FA60006C73616E64686172616E00576972654C97
:10FA70006573732049727269676174696F6E0041C2
:10FA8000542B434E4D493D312C312C302C302C30F1
:10FA90000D0A004C6F6164696E6720537973746559
:10FAA0006D20446174610045786974696E67204413
:10FAB0006961676E6F737469630043757272656E16
:10FAC0007420496E204E6F204C6F61640049727241
:10FAD00069676174696F6E20536B6970706564004B
:10FAE00049727269676174696F6E2053746F7070C8
:10FAF00065640049727269676174696F6E2053743E
:10FB000061727465640049727269676174696F6ECD
:10FB10002052756E6E696E67005072657373205265
:10FB20006573657420427574746F6E00546F204362
:10FB3000616C696272617465204D6F746F72004E02
:10FB40006F20446961676E6F73746963204D656EE1
:10FB5000750053797374656D2052756E6E696E67AA
:10FB600020496E005573657220526567697374721F
:10FB70006174696F6E0043616C6962726174696E71
:10FB800067204D6F746F720046756C6C204C6F610E
:10FB9000642043757272656E740023474554534563
:10FBA0004E534F523031534C4156450053657061AE
:10FBB000726174696F6E2054696D653A20006C63E0
:10FBC000644261636B6C69676874204F6E20006CDF
:10FBD00063644261636B6C69676874204F6666009A
:10FBE00057697468204E6F20526573706F6E73652D
:10FBF000004E6574776F726B20537472656E677414
:10FC00006800546F2044656C657465205379737483
:10FC1000656D0057616974696E6720466F72205583
:10FC200073657200466163746F72792053657474F2
:10FC3000696E6773006C63644261636B6C696768CB
:10FC400074204F6E004C6F726120636F6E74726F20
:10FC50006C6C65720049727269676174696F6E20BD
:10FC60004461746100466163746F72792050696EFB
:10FC7000436F646500446961676E6F7374696320E4
:10FC80004D6F646500416C6C20506F776572205039
:10FC90006861736500466F756E64204C6F77205005
:10FCA000686173650041542B435343533D224753CE
:10FCB0004D220D0A00466F72204669656C64204E25
:10FCC0006F3A200046726F6D204669656C64204E65
:10FCD0006F3A0055736572204C6F67676564204901
:10FCE0004E00436F6E74726F6C2053797374656D40
:10FCF0000041757468656E7469636174696F6E0044
:10FD0000546F2044656C65746520557365720041BD
:10FD1000542B53434C415353303D310D0A00436F34
:10FD20006E6E656374696E6720746F20005365742E
:10FD300074696E672053797374656D0020202020EC
:10FD400020202020202020202000466F722046699D
:10FD5000656C64204E6F3A00466F756E64204C6F80
:10FD60007720525443005068617365204661696C86
:10FD7000757265004669656C64204D617070696ECE
:10FD8000670041542B434D47443D312C340D0A004C
:10FD9000546F204C6F63616C2054696D650053751E
:10FDA000636365737366756C6C7900446973706C1A
:10FDB0006179204F6E2000437572736F7220486F17
:10FDC0006D6500446973706C6179204F666600460A
:10FDD00061696C656420557365720041542B43461C
:10FDE000554E3D300D0A0041542B434D47463D31A1
:10FDF0000D0A0041542B4346554E3D310D0A00413A
:10FE0000542B434C54533D310D0A00204974657204
:10FE10006174696F6E3A0047534D204E6574776F79
:10FE2000726B00437572736F72204F6666004154A7
:10FE30002B43434C4B3F0D0A00556479616D69209B
:10FE40004C4C50004C6F67696E20436F64650052E4
:10FE5000657374696E6720546F0041542B434C5492
:10FE6000533F0D0A000D0A44656C6179313A200058
:10FE70000D0A4F4E54696D653A2000204475654463
:10FE80006174653A2000426C696E6B204F666600B3
:10FE9000437572736F72204F6E00436F6D706C65A7
:10FEA0007465640041542B434D47533D2200566511
:10FEB000727920476F6F6400457863656C6C656E7E
:10FEC0007400426C696E6B204F6E005072696E74E4
:10FED0002061740041542B434D47523D0053656CE3
:10FEE00065637465640044657465637465640044A7
:10FEF000656C6574696E670041542B4353510D0A5C
:10FF00000044656C6179323A200044656C61793354
:10FF10003A2000204F46467072643A004D6F646587
:10FF200072617465004572726F7220496E00566589
:10FF30007279204C6F77004368616E676564005387
:10FF4000657474696E67004472792052756E004260
:10FF500061747465727900204F4E7072643A004E7D
:10FF60006F3A202564004661696C65640041544520
:10FF7000300D0A00415426570D0A00284D696E299C
:10FF800020003C2D2D2D2D00403A302C3000403AE1
:10FF9000312C3100403A322C3200403A332C3300BD
:10FFA0002D2D2D2D3E0057726F6E670020616E64FF
:10FFB0002000284D696E2900205765743A002044BE
:10FFC00072793A0054494D4500234F464600206956
:10FFD000732000506F6F720031303025002564258A
:10FFE0006300234F4E004C4F5700393725003938F6
:0FFFF0002500393925004E4F003125002400002F
:020000040001F9
:10000000000E0101E46F000EE56F000EE96F000EB7
:10001000E86F1E0E556F92ECFBF09E0E0001766F9E
:10002000F90E776F020E786F92ECEAF0520E000133
:10003000C16F2B0EC06F000EE82EFED7C02FFCD76D
:10004000C12FFAD700F0300E0001E1652AEF80F0F1
:100050002CEF80F08BEF94F03A0EE16132EF80F0FC
:1000600034EF80F08BEF94F0000E116E000EDF6F16
:10007000C98080EF80F0D40E0001616FFE0E626FC8
:100080006AECF7F0E10E0001616F000E626F010E85
:10009000636F52ECF9F0B20E0001616FFC0E626FFB
:1000A0006AECF7F0290E0001C16F960EC06F7F0E4B
:1000B000E82EFED7C02FFCD7C12FFAD71150D8A4F5
:1000C00064EF80F066EF80F080EF80F0CB0E0001EF
:1000D000C16FEC0EC06F840EE82EFED7C02FFCD788
:1000E000C12FFAD700F0CB0E0001C16FEC0EC06F2C
:1000F000840EE82EFED7C02FFCD7C12FFAD700F010
:100100001150D8B486EF80F088EF80F03BEF80F09C
:100110000E013885150E0001606F030E616F090E28
:10012000626FF90E636F000E656F030E646FDFEC94
:10013000E7F0000160516111D8A4A1EF80F0A3EFB6
:1001400080F07AEF94F0E10E606F000E616F180E90
:10015000626F030E636F000E656F0A0E646F12EC20
:10016000F4F088ECFAF0000E0001606F040E616F8D
:100170003F0E626F030E636FB1ECF2F038ECFAF0F1
:10018000000E0001606F040E616FE3ECF8F00009EF
:10019000D8B4CDEF80F0CFEF80F0D5EF80F0B8ECA1
:1001A000FAF05CECCFF0E4EF80F0A30E0001C16F39
:1001B000570EC06F020EE82EFED7C02FFCD7C12FFE
:1001C000FAD700F08FEF94F0F50E0001606F000E8B
:1001D000616FE10E626F000E636F000E656F0A0EB5
:1001E000646FDFECE7F0000160516111D8A4FBEF10
:1001F00080F0FDEF80F010EF93F0E10E606F000EE5
:10020000616F7F0E626F010E636F000E656F0A0EE5
:10021000646F12ECF4F0000E0001606F020E616F6B
:10022000FC0E626FF80E636F000E656F040E646F54
:10023000DFECE7F0000160516111D8A422EF81F0FA
:1002400024EF81F049EF81F092ECFBF0D30E000136
:10025000766FFC0E776F020E786F92ECEAF00C0E60
:100260000001766FFC0E776F030E786F92ECEAF068
:10027000000E0001DF6F420E786FF80E796FF50EF9
:100280007A6F000E7B6F000E7C6F90EC94F08FEF16
:1002900094F0000E606F020E616F1F0E626FF90E18
:1002A000636F000E656F020E646FDFECE7F0000114
:1002B00060516111D8A45FEF81F061EF81F0D4EF5C
:1002C00081F0030E606F020E616F910E626F010E7E
:1002D000636F000E656F060E646FDFECE7F00001E0
:1002E00060516111D8A477EF81F079EF81F0AFEF21
:1002F00081F092ECFBF0440E0001766FFE0E776FFA
:10030000010E786F92ECEAF0370E0001766FFF0E67
:10031000776F020E786F92ECEAF0910E0001606F39
:10032000010E616F0A0E626F020E636F000E656F41
:10033000060E646F12ECF4F088ECF3F0000E00018E
:10034000DF6F120E786FF70E796FF50E7A6F000E71
:100350007B6F000E7C6F90EC94F08FEF94F092EC3A
:10036000FBF0A60E0001766FFF0E776F010E786F1F
:1003700092ECEAF0440E0001766FFE0E776F020EEB
:10038000786F92ECEAF0000E0001DF6FD80E786F04
:10039000F70E796FF50E7A6F000E7B6F000E7C6F93
:1003A00090EC94F08FEF94F0000E606F020E616F8E
:1003B000150E626FF90E636F000E656F030E646FAA
:1003C000DFECE7F0000160516111D8A4EAEF81F0A1
:1003D000ECEF81F006EF85F0030E00ECD5F01D6E1A
:1003E00092ECFBF0550E0001766FFC0E776F010E5C
:1003F000786F92ECEAF0B30E0001766FF90E776F2A
:10040000020E786F92ECEAF0E10E0001B86F000E78
:10041000B96F5F0EBA6FFF0EBB6F010E1D24BC6F6C
:10042000BD6B000EBD2310ECF7F0E10E0001766FFE
:10043000000E776F030E786F92ECEAF0000E010168
:10044000E96F000EE86F010EE76F060E0001DF6F27
:10045000000E0001DF25D96EDA6A020EDA22DF50C3
:10046000A0ECFAF00009D8B438EF82F03AEF82F04D
:100470008CEF83F0010E0001DF25D96EDA6A020EDF
:10048000DA22200EDE18D8A448EF82F04AEF82F07C
:100490006BEF82F0000EDF25D96EDA6A020EDA22E7
:1004A000000EDF25E16EE26A020EE222E750D00F75
:1004B000DF6E000E0001DF25D96EDA6A020EDA2245
:1004C000DF50C06FC0510101E825E86F000EE9213F
:1004D000E96FC1EF83F0000EDF25D96EDA6A020EF4
:1004E000DA22000EDF25E16EE26A020EE222E75018
:1004F000D00FDF6E000EDF25D96EDA6A020EDA2227
:10050000DF500A0D000EDF25D96EDA6A020EDA22FC
:10051000F3CFDFFFE8C160F0E9C161F0000E636F67
:100520000A0E626F57ECFBF060C0E8F161C0E9F1C0
:1005300059EF82F01D502D0DCC0EF324D96E040E10
:10054000F420DA6EE8C1DEFFE9C1DDFF000E010133
:10055000E96F000EE86FBFEF83F01D502D0DE60E22
:10056000F324D96E040EF420DA6EE8C1DFFFA6EFA3
:1005700082F01D502D0DE70EF324D96E040EF420E9
:10058000DA6EE8C1DFFFA6EF82F01D502D0DE80EF8
:10059000F324D96E040EF420DA6EE8C1DFFFA6EF73
:1005A00082F01D502D0DC80EF324D96E040EF420D8
:1005B000DA6EE8C1DEFFE9C1DDFFA6EF82F01D5073
:1005C0002D0DCA0EF324D96E040EF420DA6EE8C1A4
:1005D000DEFFE9C1DDFFA6EF82F01D502D0DED0E0F
:1005E000F324D96E040EF420DA6EE8C1DFFFA6EF23
:1005F00082F01D502D0DEF0EF324D96E040EF42061
:10060000DA6EE8C1DFFF1D502D0DF00EF324D96E18
:10061000040EF420DA6EE8C1DFFFA6EF82F00101DC
:10062000E851C2ECC8F0000E0101E96F000EE86F5E
:100630001D502D0DE90EF324D96E040EF420DA6E50
:10064000C9C0DFFF1D502D0DEA0EF324D96E040E34
:10065000F420DA6ED6C0DFFF1D502D0DEB0EF32413
:10066000D96E040EF420DA6ED7C0DFFF1D502D0DB9
:10067000F10EF324D96E040EF420DA6E000EDF6E54
:100680001D502D0DF20EF324D96E040EF420DA6EF7
:10069000010EDF6E1D502D0DCE0EF324D96E040E0B
:1006A000F420DA6E000EDE6E000EDD6E1D502D0D94
:1006B000D00EF324D96E040EF420DA6E000EDE6E36
:1006C000000EDD6E1D502D0DEC0EF324D96E040EC0
:1006D000F420DA6E000EDF6E1D502D0DF30EF324A4
:1006E000D96E040EF420DA6E000EDF6E1D502D0D53
:1006F000EE0EF324D96E040EF420DA6E000EDF6ED7
:100700001D502D0DF40EF324D96E040EF420DA6E74
:10071000000EDF6EBFEF83F00101E7510001C06FF3
:10072000C16BC151000AD8B498EF83F0BFEF83F0DA
:10073000C051010AD8B49AEF82F0030AD8B4ADEFE1
:1007400082F0010AD8B4B9EF82F0070AD8B4C5EF35
:1007500082F0010AD8B4D1EF82F0030AD8B4DFEFF7
:1007600082F0010AD8B4EDEF82F00F0AD8B4F9EFA5
:1007700082F0010AD8B40FEF83F0BFEF83F00101DC
:10078000E72B0001DF2B090E0101E765CAEF83F0BB
:10079000CCEF83F028EF82F0090E0001C16F1E0E2E
:1007A000C06FE40EE82EFED7C02FFCD7C12FFAD7BA
:1007B00000F01D50020DE30EF324F66EEB0EF42054
:1007C000F76EF86A000EF8220900F5CF63F00A0010
:1007D000F5CF64F01D502D0DC80EF3240001656F98
:1007E000040EF420666FE8ECDAF0090E0001C16F28
:1007F0001E0EC06FE40EE82EFED7C02FFCD7C12F0F
:10080000FAD700F01D50020DE30EF324F66EEB0E46
:10081000F420F76EF86A000EF8220900F5CF63F0B5
:100820000A00F5CF64F01D502D0DC80EF324000111
:10083000656F040EF420666F9EECEEF0090E000169
:10084000C16F1E0EC06FE40EE82EFED7C02FFCD77E
:10085000C12FFAD700F01D50020DE30EF324F66EFF
:10086000EB0EF420F76EF86A000EF8220900F5CFBF
:1008700063F00A00F5CF64F01D502D0DC80EF3246F
:100880000001656F040EF420666FEBECF7F0090EC3
:100890000001C16F1E0EC06FE40EE82EFED7C02F00
:1008A000FCD7C12FFAD700F01D50020DE30EF32440
:1008B000F66EEB0EF420F76EF86A000EF8220900CF
:1008C000F5CF63F00A00F5CF64F01D502D0DC80E72
:1008D000F3240001656F040EF420666F15ECF8F048
:1008E000090E0001C16F1E0EC06FE40EE82EFED788
:1008F000C02FFCD7C12FFAD700F01D50020DE30E18
:10090000F324F66EEB0EF420F76EF86A000EF82270
:100910000900F5CF63F00A00F5CF64F01D502D0DEE
:10092000C80EF3240001656F040EF420666FC1EC5D
:10093000F7F0090E0001C16F1E0EC06FE40EE82E25
:10094000FED7C02FFCD7C12FFAD700F01D50020DE3
:10095000E30EF324F66EEB0EF420F76EF86A000E49
:10096000F8220900F5CF63F00A00F5CF64F01D50BE
:100970002D0DC80EF3240001656F040EF420666F80
:1009800033ECBAF0090E0001C16F1E0EC06FE40E09
:10099000E82EFED7C02FFCD7C12FFAD700F0090EE2
:1009A0001D60D5EF84F0D7EF84F0DFEF84F0300ED8
:1009B0000001E16F1D50310FE26FF5EF84F0080E7A
:1009C0001D64E5EF84F0E7EF84F0F5EF84F00C0EA2
:1009D0001D60EDEF84F0EFEF84F0F5EF84F0310E61
:1009E0000001E16F1D50270FE26F000E0001DF6F65
:1009F0009E0E786FF50E796FF50E7A6F000E7B6F95
:100A0000020E7C6F90EC94F08FEF94F0000E606F0C
:100A1000020E616FF70E626FF80E636F000E656F66
:100A2000040E646FDFECE7F0000160516111D8A49F
:100A30001CEF85F01EEF85F0EFEF85F0040E00EC63
:100A4000D5F01D6E1D502D0DF10EF324D96E040E40
:100A5000F420DA6EDE04D8A430EF85F032EF85F0B2
:100A600035EF85F0010E0001D06F1D502D0DF20EF7
:100A7000F324D96E040EF420DA6E000EDF6E1D50E2
:100A80002D0DF30EF324D96E040EF420DA6EDE047D
:100A9000D8A44DEF85F04FEF85F08FEF85F01D5016
:100AA0002D0DF30EF324D96E040EF420DA6E000E31
:100AB000DF6E090E0001C16F1E0EC06FE40EE82E3E
:100AC000FED7C02FFCD7C12FFAD700F01D50020D62
:100AD000E30EF324F66EEB0EF420F76EF86A000EC8
:100AE000F8220900F5CF63F00A00F5CF64F01D503D
:100AF0002D0DC80EF3240001656F040EF420666FFF
:100B000033ECBAF0090E0001C16F1E0EC06FE40E87
:100B1000E82EFED7C02FFCD7C12FFAD700F01D500A
:100B2000020DE30EF324F66EEB0EF420F76EF86A76
:100B3000000EF8220900F5CF63F00A00F5CF64F04B
:100B40001D502D0DC80EF3240001656F040EF42016
:100B5000666FC1ECF7F0090E0001C16F1E0EC06F89
:100B6000E40EE82EFED7C02FFCD7C12FFAD700F035
:100B7000090E1D60BEEF85F0C0EF85F0C8EF85F06F
:100B8000300E0001E16F1D50310FE26FDEEF85F096
:100B9000080E1D64CEEF85F0D0EF85F0DEEF85F016
:100BA0000C0E1D60D6EF85F0D8EF85F0DEEF85F0F6
:100BB000310E0001E16F1D50270FE26F000E0001A2
:100BC000DF6FD30E786FF30E796FF50E7A6F000E2C
:100BD0007B6F020E7C6F90EC94F08FEF94F0000E20
:100BE000606F020E616FC80E626FF80E636F000EC9
:100BF000656F060E646FDFECE7F000016051611174
:100C0000D8A405EF86F007EF86F002EF89F0000E1A
:100C10000101E96F000EE86F000EE76F060E00ECB1
:100C2000D5F01D6E1D502D0DF20EF324D96E040E5D
:100C3000F420DA6EDF50D8A420EF86F022EF86F0A1
:100C400059EF86F0090E1D6028EF86F02AEF86F036
:100C500032EF86F0300E0001E16F1D50310FE26F70
:100C600048EF86F0080E1D6438EF86F03AEF86F004
:100C700048EF86F00C0E1D6040EF86F042EF86F0E4
:100C800048EF86F0310E0001E16F1D50270FE26F33
:100C9000000E0001DF6F8A0E786FF00E796FF50E8F
:100CA0007A6F000E7B6F020E7C6F90EC94F08FEFEA
:100CB00094F0090E0001DF6F000E0001DF25D96EF0
:100CC000DA6A020EDA22DF50A0ECFAF00009D8B49A
:100CD0006CEF86F06EEF86F0CEEF86F0010E00012D
:100CE000DF25D96EDA6A020EDA22200EDE18D8A4C9
:100CF0007CEF86F07EEF86F09FEF86F0000EDF251A
:100D0000D96EDA6A020EDA22000EDF25E16EE26A9F
:100D1000020EE222E750D00FDF6E000E0001DF2549
:100D2000D96EDA6A020EDA22DF50C06FC0510101BB
:100D3000E825E86F000EE921E96F7AEF88F0000EF0
:100D4000DF25D96EDA6A020EDA22000EDF25E16EA7
:100D5000E26A020EE222E750D00FDF6E000EDF25BE
:100D6000D96EDA6A020EDA22DF500A0D000EDF2594
:100D7000D96EDA6A020EDA22F3CFDFFFE8C160F043
:100D8000E9C161F0000E636F0A0E626F57ECFBF071
:100D900060C0E8F161C0E9F18DEF86F00101E72B59
:100DA00030EF88F01D502D0DCE0EF324D96E040EB9
:100DB000F420DA6EE8C1DEFFE9C1DDFF000E0101BB
:100DC000E96F000EE86F7AEF88F01D502D0DD00E00
:100DD000F324D96E040EF420DA6EE8C1DEFFE9C117
:100DE000DDFFDEEF86F01D502D0DEC0EF324D96EE5
:100DF000040EF420DA6EE8C1DFFFDEEF86F01D504E
:100E00002D0DD20EF324D96E040EF420DA6EE8C153
:100E1000DEFFE9C1DDFFDEEF86F01D502D0DDA0E9D
:100E2000F324D96E040EF420DA6EE8C1DEFFE9C1C6
:100E3000DDFFDEEF86F01D502D0DE20EF324D96E9E
:100E4000040EF420DA6EE8C1DFFFDEEF86F01D50FD
:100E50002D0DD40EF324D96E040EF420DA6EE8C101
:100E6000DEFFE9C1DDFFDEEF86F01D502D0DDC0E4B
:100E7000F324D96E040EF420DA6EE8C1DEFFE9C176
:100E8000DDFFDEEF86F01D502D0DE30EF324D96E4D
:100E9000040EF420DA6EE8C1DFFFDEEF86F01D50AD
:100EA0002D0DD60EF324D96E040EF420DA6EE8C1AF
:100EB000DEFFE9C1DDFFDEEF86F01D502D0DDE0EF9
:100EC000F324D96E040EF420DA6EE8C1DEFFE9C126
:100ED000DDFFDEEF86F01D502D0DE40EF324D96EFC
:100EE000040EF420DA6EE8C1DFFFDEEF86F01D505D
:100EF0002D0DD80EF324D96E040EF420DA6EE8C15D
:100F0000DEFFE9C1DDFFDEEF86F01D502D0DE00EA6
:100F1000F324D96E040EF420DA6EE8C1DEFFE9C1D5
:100F2000DDFFDEEF86F01D502D0DE50EF324D96EAA
:100F3000040EF420DA6EE8C1DFFF1D502D0DEE0E19
:100F4000F324D96E040EF420DA6E000EDF6E1D500D
:100F50002D0DF40EF324D96E040EF420DA6E000E7B
:100F6000DF6E000E0101E96F000EE86F1D502D0DC0
:100F7000CC0EF324D96E040EF420DA6E1D502D0D24
:100F8000D00EF324E16E040EF420E26EE6CFC2F040
:100F9000E5CFC3F01D502D0DCE0EF324E16E040EEF
:100FA000F420E26EE6CFC4F0E5CFC5F00001C251F7
:100FB000C427C351C523DE50C45DDE50C559D8A037
:100FC000E4EF87F0E6EF87F024EF88F01D502D0D59
:100FD000F30EF324D96E040EF420DA6E000EDF6EE9
:100FE000090E1D60F6EF87F0F8EF87F0FFEF87F04E
:100FF000300EE16F1D50310FE26F14EF88F0080ED4
:101000001D6405EF88F007EF88F014EF88F00C0EF0
:101010001D600DEF88F00FEF88F014EF88F0310EAF
:10102000E16F1D50270FE26F000EDF6F9F0E786F8C
:10103000F20E796FF50E7A6F000E7B6F020E7C6FE9
:1010400090EC94F07AEF88F01D502D0DF30EF32400
:10105000D96E040EF420DA6E010EDF6E7AEF88F09E
:10106000E7510001C06FC16BC151000AD8B43BEF1A
:1010700088F07AEF88F0C051010AD8B4D2EF86F038
:10108000030AD8B4E5EF86F0010AD8B4F3EF86F08E
:10109000070AD8B4FFEF86F0010AD8B40DEF87F045
:1010A000030AD8B41BEF87F0010AD8B427EF87F002
:1010B0000F0AD8B435EF87F0010AD8B443EF87F0B0
:1010C000030AD8B44FEF87F0010AD8B45DEF87F078
:1010D000070AD8B46BEF87F0010AD8B477EF87F02E
:1010E000030AD8B485EF87F0010AD8B493EF87F0EC
:1010F0007AEF88F00001DF2B0E0E0101E76583EF28
:1011000088F085EF88F05CEF86F01D502D0DF30E12
:10111000F324D96E040EF420DA6EDF50D8B493EFC6
:1011200088F095EF88F08FEF94F0090E0001C16F01
:101130001E0EC06FE40EE82EFED7C02FFCD7C12FC5
:10114000FAD700F01D50020DE30EF324F66EEB0EFD
:10115000F420F76EF86A000EF8220900F5CF63F06C
:101160000A00F5CF64F01D502D0DC80EF3240001C8
:10117000656F040EF420666F33ECBAF0090E0001BF
:10118000C16F1E0EC06FE40EE82EFED7C02FFCD735
:10119000C12FFAD700F0090E1D60D1EF88F0D3EF10
:1011A00088F0DBEF88F0300E0001E16F1D50310F49
:1011B000E26FF1EF88F0080E1D64E1EF88F0E3EFD5
:1011C00088F0F1EF88F00C0E1D60E9EF88F0EBEF8E
:1011D00088F0F1EF88F0310E0001E16F1D50270F0C
:1011E000E26F000E0001DF6F4C0E786FF60E796F24
:1011F000F50E7A6F000E7B6F020E7C6F90EC94F010
:101200008FEF94F0000E606F020E616FA40E626F9C
:10121000F80E636F000E656F070E646FDFECE7F08A
:10122000000160516111D8A418EF89F01AEF89F01C
:10123000C9EF89F0070E00ECD5F01D6E1D502D0D85
:10124000F10EF324D96E040EF420DA6EDE04D8A475
:101250002CEF89F02EEF89F042EF89F01D502D0D13
:10126000EE0EF324D96E040EF420DA6E030EDE18AF
:10127000D8B43DEF89F03FEF89F042EF89F0010EDD
:101280000001D06F1D502D0DF30EF324D96E040E06
:10129000F420DA6EDE04D8A450EF89F052EF89F022
:1012A0008FEF94F01D502D0DF30EF324D96E040E24
:1012B000F420DA6E000EDF6E090E0001C16F1E0E03
:1012C000C06FE40EE82EFED7C02FFCD7C12FFAD78F
:1012D00000F01D50020DE30EF324F66EEB0EF42029
:1012E000F76EF86A000EF8220900F5CF63F00A00E5
:1012F000F5CF64F01D502D0DC80EF3240001656F6D
:10130000040EF420666F33ECBAF0090E0001C16FD1
:101310001E0EC06FE40EE82EFED7C02FFCD7C12FE3
:10132000FAD700F0090E1D6098EF89F09AEF89F066
:10133000A2EF89F0300E0001E16F1D50310FE26F16
:10134000B8EF89F0080E1D64A8EF89F0AAEF89F0C4
:10135000B8EF89F00C0E1D60B0EF89F0B2EF89F0A4
:10136000B8EF89F0310E0001E16F1D50270FE26FD9
:10137000000E0001DF6FE50E786FF50E796FF50E48
:101380007A6F000E7B6F020E7C6F90EC94F08FEF03
:1013900094F0000E606F020E616FC10E626FF80E66
:1013A000636F000E656F060E646FDFECE7F00001FF
:1013B00060516111D8A4DFEF89F0E1EF89F0DCEF33
:1013C0008AF0000E0101E96F000EE86F000EE76F72
:1013D000060E0001DF6F000E0001DF25D96EDA6A0C
:1013E000020EDA22DF50A0ECFAF00009D8B4FBEFCD
:1013F00089F0FDEF89F05DEF8AF0010E0001DF2535
:10140000D96EDA6A020EDA22200EDE18D8A40BEFAB
:101410008AF00DEF8AF02EEF8AF0000EDF25D96EEC
:10142000DA6A020EDA22000EDF25E16EE26A020EAF
:10143000E222E750D00FDF6E000E0001DF25D96EEB
:10144000DA6A020EDA22DF50C06FC0510101E825CE
:10145000E86F000EE921E96FA4EF8AF0000EDF25A6
:10146000D96EDA6A020EDA22000EDF25E16EE26A38
:10147000020EE222E750D00FDF6E000EDF25D96E9C
:10148000DA6A020EDA22DF500A0D000EDF25D96E6D
:10149000DA6A020EDA22F3CFDFFFE8C160F0E9C1B9
:1014A00061F0000E636F0A0E626F57ECFBF060C0D4
:1014B000E8F161C0E9F11CEF8AF00101E72B82EF4E
:1014C0008AF0E8C117F0000E0101E96F000EE86F25
:1014D000A4EF8AF0E8C116F063EF8AF0E8C115F0D6
:1014E00063EF8AF0E8C114F063EF8AF0E8C1CBF053
:1014F000CC6B000E0101E96F000EE86F010E0E6E5D
:10150000A4EF8AF0E7510001C06FC16BC151000A1E
:10151000D8B48DEF8AF0A4EF8AF0C051010AD8B494
:1015200061EF8AF0030AD8B46AEF8AF0010AD8B4EE
:101530006EEF8AF0070AD8B472EF8AF0010AD8B4C5
:1015400076EF8AF0A4EF8AF00001DF2B040E010190
:10155000E765ADEF8AF0AFEF8AF0EBEF89F0090EA7
:101560000001C16F1E0EC06FE40EE82EFED7C02F23
:10157000FCD7C12FFAD700F07FECDEF0090E000196
:10158000C16F1E0EC06FE40EE82EFED7C02FFCD731
:10159000C12FFAD700F0000E0001DF6FA40E786FA4
:1015A000F70E796FF50E7A6F000E7B6F000E7C6F71
:1015B00090EC94F08FEF94F0000E606F020E616F6C
:1015C0009C0E626FF80E636F000E656F070E646FFE
:1015D000DFECE7F0000160516111D8A4F2EF8AF06E
:1015E000F4EF8AF023EF8BF0000E0E6E090E00016F
:1015F000C16F1E0EC06FE40EE82EFED7C02FFCD7C1
:10160000C12FFAD700F07FECDEF0090E0001C16FA8
:101610001E0EC06FE40EE82EFED7C02FFCD7C12FE0
:10162000FAD700F0000E0001DF6F510E786FF70E51
:10163000796FF50E7A6F000E7B6F000E7C6F90EC69
:1016400094F08FEF94F0000E606F020E616FE70E62
:10165000626FF80E636F000E656F050E646FDFEC4E
:10166000E7F0000160516111D8A439EF8BF03BEF36
:101670008BF063EF8BF00E50D8B441EF8BF043EF5B
:101680008BF053EF8BF0000EDF6F890E786FF70E43
:10169000796FF50E7A6F000E7B6F080E7C6F90EC01
:1016A00094F08FEF94F0000EDF6FF20E786FF60E6D
:1016B000796FF50E7A6F000E7B6F000E7C6F90ECE9
:1016C00094F08FEF94F0000E606F020E616FED0EDC
:1016D000626FF80E636F000E656F040E646FDFECCF
:1016E000E7F0000160516111D8A479EF8BF07BEF36
:1016F0008BF060EF8CF0000E0101E96F000EE86FD7
:10170000000EE76F050E0001DF6F000E0001DF2500
:10171000D96EDA6A020EDA22DF50A0ECFAF0000984
:10172000D8B495EF8BF097EF8BF027EF8CF0000E8D
:101730000001DF25D96EDA6A020EDA22000EDF25FB
:10174000E16EE26A020EE222E750D00FDF6E000E79
:10175000DF25D96EDA6A020EDA22DF50C06FC0517F
:101760000101E86FE96BE8C160F0E9C161F0000ECA
:101770000001636F0A0E626F57ECFBF060C0E8F186
:1017800061C0E9F1010E0001DF25D96EDA6A020EAF
:10179000DA22010EDF25E16EE26A020EE222E75054
:1017A000D00FDF6E010EDF25D96EDA6A020EDA2263
:1017B000DF50C06FC0510101E825E86F000EE9213C
:1017C000E96FE72B01EF8CF0E8C1DBF0000E0101BF
:1017D000E96F000EE86F38EF8CF0E8C1DCF0E6EF5F
:1017E0008BF0E8C1DDF0E6EF8BF0E8C1DAF0E6EF70
:1017F0008BF0E8C1D9F0E6EF8BF0E8C1D8F0E6EF66
:101800008BF0E7510001C06FC16BC151000AD8B421
:101810000CEF8CF038EF8CF0C051010AD8B4E4EF33
:101820008BF0030AD8B4EDEF8BF0010AD8B4F1EFD6
:101830008BF0070AD8B4F5EF8BF0010AD8B4F9EFB2
:101840008BF0030AD8B4FDEF8BF038EF8CF0000E6C
:101850000001DF6F6E0E786FF70E796FF50E7A6FFD
:10186000000E7B6F000E7C6F90EC94F08FEF94F085
:10187000030E0001DF27050E0101E76542EF8CF042
:1018800044EF8CF085EF8BF0060EE719D8A44BEFF0
:101890008CF04DEF8CF04FEF8CF074ECF1F0000E0B
:1018A0000001DF6F8F0E786FF40E796FF50E7A6F8F
:1018B000000E7B6F000E7C6F90EC94F08FEF94F035
:1018C000000E606F020E616FF20E626FF80E636FB2
:1018D000000E656F040E646FDFECE7F000016051ED
:1018E0006111D8A476EF8CF078EF8CF031EF8DF0A9
:1018F000C2ECEFF0DBC060F00001616B000E636FC3
:101900000A0E626F02ECEFF000016051300FE16FE0
:10191000DBC072F0736B000E756F0A0E746F1EECF5
:10192000F0F000017251300FE26F2F0EE36FDCC058
:1019300060F0616B000E636F0A0E626F02ECEFF0F5
:1019400000016051300FE46FDCC072F0736B000E69
:10195000756F0A0E746F1EECF0F000017251300FBB
:10196000E56F2F0EE66FDDC060F0616B000E636FF8
:101970000A0E626F02ECEFF000016051300FE76F6A
:10198000DDC072F0736B000E756F0A0E746F1EEC83
:10199000F0F000017251300FE86F200EE96FDAC0ED
:1019A00060F0616B000E636F0A0E626F02ECEFF085
:1019B00000016051300FEA6FDAC072F0736B000EF5
:1019C000756F0A0E746F1EECF0F000017251300F4B
:1019D000EB6F3A0EEC6FD9C060F0616B000E636F75
:1019E0000A0E626F02ECEFF000016051300FED6FF4
:1019F000D9C072F0736B000E756F0A0E746F1EEC17
:101A0000F0F000017251300FEE6F3A0EEF6FD8C058
:101A100060F0616B000E636F0A0E626F02ECEFF014
:101A200000016051300FF06FD8C072F0736B000E80
:101A3000756F0A0E746F1EECF0F000017251300FDA
:101A4000F16F000EDF6F620E786FF80E796FF50E92
:101A50007A6F000E7B6F030E7C6F90EC94F08FEF2B
:101A600094F0000E606F020E616F940E626FF80EBC
:101A7000636F000E656F070E646FDFECE7F0000127
:101A800060516111D8A447EF8DF049EF8DF0A2EFBE
:101A90008DF0070E00ECD5F01D6E090E1D6053EFA2
:101AA0008DF055EF8DF05DEF8DF0300E0001E16FA0
:101AB0001D50310FE26F73EF8DF0080E1D6463EF60
:101AC0008DF065EF8DF073EF8DF00C0E1D606BEFF8
:101AD0008DF06DEF8DF073EF8DF0310E0001E16F41
:101AE0001D50270FE26F000E0001DF6F1D502D0DFE
:101AF000F20EF324D96E040EF420DA6EDF50D8B45F
:101B000084EF8DF086EF8DF094EF8DF0710E786F8D
:101B1000F80E796FF50E7A6F000E7B6F070E7C6FF3
:101B200090EC94F08FEF94F0090E786FF50E796FCA
:101B3000F50E7A6F000E7B6F020E7C6F90EC94F0C6
:101B40008FEF94F0000E606F020E616F1C0E626FDB
:101B5000F90E636F000E656F020E646FDFECE7F045
:101B6000000160516111D8A4B8EF8DF0BAEF8DF08B
:101B7000B2EF8EF090A0BFEF8DF0C1EF8DF0D2EFFD
:101B80008DF0000E0001DF6FA20E786FF30E796FFB
:101B9000F50E7A6F000E7B6F000E7C6F90EC94F068
:101BA0008FEF94F0000E0101E96F000EE86F000E58
:101BB000E76F010EE76F030E0001DF6F000E0001FB
:101BC000DF25D96EDA6A020EDA22DF50A0ECFAF0D5
:101BD0000009D8B4EEEF8DF0F0EF8DF061EF8EF0EC
:101BE000010E0001DF25D96EDA6A020EDA22200E1C
:101BF000DE18D8A4FEEF8DF000EF8EF021EF8EF00E
:101C0000000EDF25D96EDA6A020EDA22000EDF2519
:101C1000E16EE26A020EE222E750D00FDF6E000EA4
:101C20000001DF25D96EDA6A020EDA22DF50C06FBA
:101C3000C0510101E825E86F000EE921E96F7AEF54
:101C40008EF0000EDF25D96EDA6A020EDA22000E5F
:101C5000DF25E16EE26A020EE222E750D00FDF6E6E
:101C6000000EDF25D96EDA6A020EDA22DF500A0D85
:101C7000000EDF25D96EDA6A020EDA22F3CFDFFF1B
:101C8000E8C160F0E9C161F0000E636F0A0E626F97
:101C900057ECFBF060C0E8F161C0E9F10FEF8EF0A6
:101CA000E8C11EF1E9C11FF1000E0101E96F000E4C
:101CB000E86F78EF8EF0E8C120F0E9C121F054EF31
:101CC0008EF00101E7510001C06FC16BC151000AE4
:101CD000D8B46DEF8EF078EF8EF0C051010AD8B411
:101CE00050EF8EF0030AD8B45BEF8EF078EF8EF0F1
:101CF0000101E72B0001DF2B020E0101E76583EFF5
:101D00008EF085EF8EF0DEEF8DF0090E0001C16FD1
:101D10001E0EC06FE40EE82EFED7C02FFCD7C12FD9
:101D2000FAD700F044ECE7F0090E0001C16F1E0E77
:101D3000C06FE40EE82EFED7C02FFCD7C12FFAD714
:101D400000F0000E0001DF6FC20E786FF50E796FA4
:101D5000F50E7A6F000E7B6F000E7C6F90EC94F0A6
:101D60008FEF94F0000E606F020E616FE10E626FF4
:101D7000F80E636F000E656F050E646FDFECE7F021
:101D8000000160516111D8A4C8EF8EF0CAEF8EF047
:101D9000DBEF8EF0000E0001DF6F320E786FF40E75
:101DA000796FF50E7A6F000E7B6F050E7C6F90ECED
:101DB00094F08FEF94F0000E606F020E616F8C0E46
:101DC000626FF80E636F000E656F070E646FDFECD5
:101DD000E7F0000160516111D8A4F1EF8EF0F3EF4C
:101DE0008EF056EF8FF0070E00ECD5F01D6E090E49
:101DF0000001C16F1E0EC06FE40EE82EFED7C02F8B
:101E0000FCD7C12FFAD700F01D50C5ECF1F0090E38
:101E10001D600DEF8FF00FEF8FF017EF8FF0300E8A
:101E20000001E16F1D50310FE26F2DEF8FF0080EB2
:101E30001D641DEF8FF01FEF8FF02DEF8FF00C0E54
:101E40001D6025EF8FF027EF8FF02DEF8FF0310E13
:101E50000001E16F1D50270FE26F0001D451D8B48B
:101E600034EF8FF036EF8FF046EF8FF0000ED46F27
:101E7000E10E786FF40E796FF50E7A6F000E7B6FBE
:101E8000020E7C6F90EC94F08FEF94F0000EDF6FF9
:101E9000610E786FF40E796FF50E7A6F000E7B6F1E
:101EA000060E7C6F90EC94F08FEF94F0000E606F54
:101EB000020E616F0D0E626FF90E636F000E656F9B
:101EC000030E646FDFECE7F0000160516111D8A4EC
:101ED0006CEF8FF06EEF8FF0EBEF8FF0030E00ECF6
:101EE000D5F01D6E090E0001C16F1E0EC06FE40E0D
:101EF000E82EFED7C02FFCD7C12FFAD700F090A054
:101F000084EF8FF086EF8FF088EF8FF0C1EF8DF0C8
:101F1000090E1D608EEF8FF090EF8FF098EF8FF02D
:101F2000300E0001E16F1D50310FE26FAEEF8FF008
:101F3000080E1D649EEF8FF0A0EF8FF0AEEF8FF0D4
:101F40000C0E1D60A6EF8FF0A8EF8FF0AEEF8FF0B4
:101F5000310E0001E16F1D50270FE26FCB0E000123
:101F6000C16FEC0EC06F840EE82EFED7C02FFCD7D9
:101F7000C12FFAD700F0CB0E0001C16FEC0EC06F7D
:101F8000840EE82EFED7C02FFCD7C12FFAD700F061
:101F90001DC06DF0010EB7ECC3F0520E0001C16F11
:101FA0002B0EC06F000EE82EFED7C02FFCD7C12F1E
:101FB000FAD700F044ECE7F0520E0001C16F2B0E8F
:101FC000C06F000EE82EFED7C02FFCD7C12FFAD766
:101FD00000F0CAEF8EF0000E606F020E616FBA0E55
:101FE000626FF80E636F000E656F060E646FDFECB4
:101FF000E7F0000160516111D8A401EF90F003EF08
:1020000090F08BEF92F0000E0101E96F000EE86F87
:10201000000EE76F070E0001DF6F000E0001DF25E5
:10202000D96EDA6A020EDA22DF50A0ECFAF000096B
:10203000D8B41DEF90F01FEF90F099EF90F0000EE4
:102040000001DF25D96EDA6A020EDA22000EDF25E2
:10205000E16EE26A020EE222E750D00FDF6E000E60
:10206000DF25D96EDA6A020EDA22DF50C06FC05166
:102070000101E86FE96BE8C160F0E9C161F0000EB1
:102080000001636F0A0E626F57ECFBF060C0E8F16D
:1020900061C0E9F1010E0001DF25D96EDA6A020E96
:1020A000DA22010EDF25E16EE26A020EE222E7503B
:1020B000D00FDF6E010EDF25D96EDA6A020EDA224A
:1020C000DF50C06FC0510101E825E86F000EE92123
:1020D000E96FE72B7FEF90F0E8C1E4F1000E01011A
:1020E000E96F000EE86F99EF90F0E8C1E5F16EEF4F
:1020F00090F00101E851C2ECC8F06EEF90F0E751AA
:102100000001C06FC16BC151000AD8B48AEF90F0D2
:1021100099EF90F0C051010AD8B46CEF90F0030A27
:10212000D8B475EF90F0010AD8B479EF90F099EF38
:1021300090F0030E0001DF27020E0101E765A3EF17
:1021400090F0A5EF90F00DEF90F0000E1D6E72EF85
:1021500092F01D502D0DCC0EF324D96E040EF420F8
:10216000DA6E0F0EDE6E000EDD6E1D502D0DE60ECA
:10217000F324D96E040EF420DA6E010EDF6E1D50CA
:102180002D0DE70EF324D96E040EF420DA6EE4C1AF
:10219000DFFF1D502D0DE80EF324D96E040EF42040
:1021A000DA6EE5C1DFFF1D502D0DE90EF324D96E67
:1021B000040EF420DA6EC9C0DFFF1D502D0DEA0EAB
:1021C000F324D96E040EF420DA6ED6C0DFFF1D5062
:1021D0002D0DEB0EF324D96E040EF420DA6ED7C069
:1021E000DFFF1D502D0DC80EF324D96E040EF42010
:1021F000DA6E640EDE6E000EDD6E1D502D0DCA0E01
:10220000F324D96E040EF420DA6E300EDE6E750EF5
:10221000DD6E1D502D0DED0EF324D96E040EF4204D
:10222000DA6E1D28DF6E1D502D0DF10EF324D96ED0
:10223000040EF420DA6E000EDF6E1D502D0DEF0E31
:10224000F324D96E040EF420DA6E020EDF6E1D50F8
:102250002D0DF00EF324D96E040EF420DA6E020E6A
:10226000DF6E1D502D0DF20EF324D96E040EF420F6
:10227000DA6E010EDF6E1D502D0DCE0EF324D96ED9
:10228000040EF420DA6E050EDE6E000EDD6E1D50BB
:102290002D0DD00EF324D96E040EF420DA6E0F0E3D
:1022A000DE6E000EDD6E1D502D0DEC0EF324D96E8A
:1022B000040EF420DA6E1D28DF6E1D502D0DEE0E7B
:1022C000F324D96E040EF420DA6E000EDF6E1D507A
:1022D0002D0DF40EF324D96E040EF420DA6E000EE8
:1022E000DF6E1D502D0DF30EF324D96E040EF42075
:1022F000DA6E010EDF6E1D50020DE30EF324F66E52
:10230000EB0EF420F76EF86A000EF8220900F5CF04
:1023100063F00A00F5CF64F01D502D0DC80EF324B4
:102320000001656F040EF420666FE8ECDAF0090E28
:102330000001C16F1E0EC06FE40EE82EFED7C02F45
:10234000FCD7C12FFAD700F01D50020DE30EF32485
:10235000F66EEB0EF420F76EF86A000EF822090014
:10236000F5CF63F00A00F5CF64F01D502D0DC80EB7
:10237000F3240001656F040EF420666F9EECEEF00E
:10238000090E0001C16F1E0EC06FE40EE82EFED7CD
:10239000C02FFCD7C12FFAD700F01D50020DE30E5D
:1023A000F324F66EEB0EF420F76EF86A000EF822B6
:1023B0000900F5CF63F00A00F5CF64F01D502D0D34
:1023C000C80EF3240001656F040EF420666FEBEC79
:1023D000F7F0090E0001C16F1E0EC06FE40EE82E6B
:1023E000FED7C02FFCD7C12FFAD700F01D50020D29
:1023F000E30EF324F66EEB0EF420F76EF86A000E8F
:10240000F8220900F5CF63F00A00F5CF64F01D5003
:102410002D0DC80EF3240001656F040EF420666FC5
:1024200015ECF8F0090E0001C16F1E0EC06FE40E2E
:10243000E82EFED7C02FFCD7C12FFAD700F01D50D1
:10244000020DE30EF324F66EEB0EF420F76EF86A3D
:10245000000EF8220900F5CF63F00A00F5CF64F012
:102460001D502D0DC80EF3240001656F040EF420DD
:10247000666FC1ECF7F0090E0001C16F1E0EC06F50
:10248000E40EE82EFED7C02FFCD7C12FFAD700F0FC
:102490001D50020DE30EF324F66EEB0EF420F76EE2
:1024A000F86A000EF8220900F5CF63F00A00F5CFB4
:1024B00064F01D502D0DC80EF3240001656F040E4D
:1024C000F420666F33ECBAF0090E0001C16F1E0EE6
:1024D000C06FE40EE82EFED7C02FFCD7C12FFAD76D
:1024E00000F01D2A0B0E1D6478EF92F07AEF92F047
:1024F000A9EF90F0000E0001DF6F2F0E786FF80E3D
:10250000796FF50E7A6F000E7B6F000E7C6F90EC8A
:1025100094F08FEF94F0000E606F020E616F110E59
:10252000626FF90E636F000E656F030E646FDFEC70
:10253000E7F0000160516111D8A4A1EF92F0A3EF80
:1025400092F00EEF93F0040E0101E66FDAEF92F0D5
:10255000E65100ECD5F01D6E0101E651020F00ECD2
:10256000D5F00001C06F010EC0271D50C16FC26BB6
:10257000D890C137C237000EC125D96E010EC221D5
:10258000DA6EC0C0DFFF0101E651040F00ECD5F0A8
:102590000001C06F010EC0271D50020D010EF32473
:1025A000D96E010EF420DA6EC0C0DFFF0101E651E2
:1025B000060FE66F000EE625D96EDA6A020EDA2201
:1025C000200EDE18D8A4E7EF92F0E9EF92F0A8EF22
:1025D00092F092ECFBF0740E0001766FFD0E776FB7
:1025E000020E786F92ECEAF09A0E0001766FFE0E02
:1025F000776F030E786F92ECEAF0000E0001DF6F48
:102600007A0E786FF50E796FF50E7A6F000E7B6F8C
:10261000010E7C6F90EC94F08FEF94F08FEF94F0BC
:10262000000E606F020E616F1F0E626FF90E636F16
:10263000000E656F020E646FDFECE7F00001605181
:102640006111D8A426EF93F028EF93F015EF94F0E2
:10265000030E606F020E616F910E626F010E636F69
:10266000000E656F060E646FDFECE7F0000160514D
:102670006111D8A43EEF93F040EF93F0E1EF93F0B7
:102680001250D8B446EF93F048EF93F06BEF93F00D
:1026900092ECFBF0640E0001766FFB0E776F020E7A
:1026A000786F92ECEAF09A0E0001766FFE0E776F6B
:1026B000030E786F92ECEAF0000E0001DF6F3D0E22
:1026C000786FF30E796FF50E7A6F000E7B6F010E47
:1026D0007C6F90EC94F0910E0001606F010E616FC1
:1026E0000A0E626F020E636F000E656F060E646F56
:1026F00012ECF4F0F50E0001606F000E616FE10E58
:10270000626F000E636F000E656F0A0E646F12EC4D
:10271000F4F0010E126EE10E0001606F000E616FA9
:102720007F0E626F010E636F000E656F0A0E646F9D
:1027300012ECF4F0050E0001C16F0F0EC06FF10E28
:10274000E82EFED7C02FFCD7C12FFAD788ECF3F0C4
:10275000050E0001C16F0F0EC06FF10EE82EFED7FF
:10276000C02FFCD7C12FFAD7CDECF3F0050E000136
:10277000C16F0F0EC06FF10EE82EFED7C02FFCD731
:10278000C12FFAD73FECF8F0050E0001C16F0F0E14
:10279000C06FF10EE82EFED7C02FFCD7C12FFAD79D
:1027A000000E0001DF6FEF0E786FF70E796FF50EF8
:1027B0007A6F000E7B6F000E7C6F90EC94F08FEFC1
:1027C00094F092ECFBF0CF0E0001766FFD0E776F68
:1027D000010E786F92ECEAF0690E0001766FFB0E45
:1027E000776F020E786F92ECEAF0000E0001DF6F57
:1027F000D80E786FF70E796FE10E7A6F000E7B6F4F
:10280000000E7C6F90EC94F0E10E0001606F000E02
:10281000616F7F0E626F010E636F000E656F0A0EAF
:10282000646F12ECF4F08FEF94F0000E606F020E04
:10283000616FFC0E626FF80E636F000E656F040E21
:10284000646FDFECE7F0000160516111D8A42BEF59
:1028500094F02DEF94F052EF94F092ECFBF0F10E27
:102860000001766FFC0E776F010E786F92ECEAF044
:10287000660E0001766FFF0E776F020E786F92EC96
:10288000EAF0000E0001DF6F060E786FF80E796F28
:10289000E10E7A6F000E7B6F000E7C6F90EC94F06F
:1028A00004EF94F0000E606F020E616F800E626F95
:1028B000F80E636F000E656F0B0E646FDFECE7F0D0
:1028C000000160516111D8A468EF94F06AEF94F0B0
:1028D000D5EF80F0000EDF6F530E786FF80E796F32
:1028E000E10E7A6F000E7B6F040E7C6F90EC94F01B
:1028F00004EF94F038ECFAF0520E0001C16F2B0E89
:10290000C06F000EE82EFED7C02FFCD7C12FFAD71C
:1029100000F08FEF94F038ECFAF0D5EF80F0120071
:102920001E0E0101556FA40E0001616FFE0E626F55
:102930006AECF7F0050E00017E6F0F0E7D6FF10E51
:10294000E82EFED77D2FFCD77E2FFAD77AC061F014
:102950007BC062F00A0E0001636F52ECF9F0050EC5
:1029600000017E6F0F0E7D6FF10EE82EFED77D2FDA
:10297000FCD77E2FFAD7B10E0001616FFC0E626F9B
:102980006AECF7F0090E00017E6F1E0E7D6FE40EFB
:10299000E82EFED77D2FFCD77E2FFAD700F078C027
:1029A00061F079C062F06AECF7F0090E00017E6F09
:1029B0001E0E7D6FE40EE82EFED77D2FFCD77E2FF6
:1029C000FAD700F04CEF9CF0E10E616F000E626FE1
:1029D0000A0E636F52ECF9F0090E00017E6F1E0EB5
:1029E0007D6FE40EE82EFED77D2FFCD77E2FFAD721
:1029F00000F07AEF9CF0E10E616F000E626F020E44
:102A0000636F52ECF9F0ECEF94F0E10E616F000EA1
:102A1000626F110E636F52ECF9F0ECEF94F08A0ED6
:102A2000616F010E626F060E636F52ECF9F0ECEF0E
:102A300094F01EC105F01FC106F005C066F006C087
:102A400067F0030E696FE80E686F14ECF5F0000193
:102A50006651300FEF6F030E636FE80E626F05C0B3
:102A600060F006C061F0BCECF5F060C066F061C0DB
:102A700067F0000E0001696F640E686F14ECF5F0EA
:102A800000016651300FF06F000E636F640E626FCD
:102A900005C060F006C061F0BCECF5F060C066F007
:102AA00061C067F0000E0001696F0A0E686F14ECD8
:102AB000F5F000016651300FF16F05C060F006C0FF
:102AC00061F0000E636F0A0E626FBCECF5F000015E
:102AD0006051300FF26FEF0E616F000E626F040EE7
:102AE000636F52ECF9F0050E00017E6F0F0E7D6FE3
:102AF000F10EE82EFED77D2FFCD77E2FFAD7AC0E35
:102B00000001616FFF0E626F6AECF7F0050E0001C5
:102B10007E6F0F0E7D6FF10EE82EFED77D2FFCD756
:102B20007E2FFAD720C005F021C006F005C066F060
:102B300006C067F0030E0001696FE80E686F14ECC1
:102B4000F5F000016651300FEF6F030E636FE80E72
:102B5000626F05C060F006C061F0BCECF5F060C0CB
:102B600066F061C067F0000E0001696F640E686F67
:102B700014ECF5F000016651300FF06F000E636F3A
:102B8000640E626F05C060F006C061F0BCECF5F049
:102B900060C066F061C067F0000E0001696F0A0E48
:102BA000686F14ECF5F000016651300FF16F05C04D
:102BB00060F006C061F0000E636F0A0E626FBCEC3D
:102BC000F5F000016051300FF26FEF0E616F000EF3
:102BD000626F040E636F52ECF9F0ECEF94F0E10ECB
:102BE000616F000E626F020E636F52ECF9F0050E1A
:102BF00000017E6F0F0E7D6FF10EE82EFED77D2F48
:102C0000FCD77E2FFAD7CE0E0001616FFF0E626FE8
:102C10006AECF7F0050E00017E6F0F0E7D6FF10E6E
:102C2000E82EFED77D2FFCD77E2FFAD7C7C005F040
:102C3000C8C006F005C066F006C067F0270E0001A8
:102C4000696F100E686F14ECF5F000016651300FDB
:102C5000EF6F270E636F100E626F05C060F006C045
:102C600061F0BCECF5F060C066F061C067F0030E87
:102C70000001696FE80E686F14ECF5F00001665111
:102C8000300FF06F030E636FE80E626F05C060F0E7
:102C900006C061F0BCECF5F060C066F061C067F0A2
:102CA000000E0001696F640E686F14ECF5F000010E
:102CB0006651300FF16F000E636F640E626F05C0D6
:102CC00060F006C061F0BCECF5F060C066F061C079
:102CD00067F0000E0001696F0A0E686F14ECF5F0E2
:102CE00000016651300FF26F05C060F006C061F060
:102CF000000E636F0A0E626FBCECF5F000016051CC
:102D0000300FF36FEF0E616F000E626F050E636F91
:102D100052ECF9F0ECEF94F0D00E00017D6FC90E8B
:102D2000E82EFED77D2FFCD700D0E10E0001616FA9
:102D3000000E626F020E636F52ECF9F0D00E0001CC
:102D40007D6FC90EE82EFED77D2FFCD700D0570E21
:102D50000001616FFF0E626F6AECF7F0D00E0001A8
:102D60007D6FC90EE82EFED77D2FFCD700D01D50F9
:102D70002D0DCC0EF324D96E040EF420DA6EDECFC6
:102D800005F0DDCF06F005C066F006C067F0000E66
:102D90000001696F640E686F14ECF5F00001665174
:102DA000300FE16F000E636F640E626F05C060F05C
:102DB00006C061F0BCECF5F060C066F061C067F081
:102DC000000E0001696F0A0E686F14ECF5F0000147
:102DD0006651300FE26F05C060F006C061F0000E72
:102DE000636F0A0E626FBCECF5F000016051300FAA
:102DF000E36FE10E616F000E626F030E636F52ECC2
:102E0000F9F0D00E00017D6FC90EE82EFED77D2FA0
:102E1000FCD700D0130E0001616FFF0E626F6AECE9
:102E2000F7F0D00E00017D6FC90EE82EFED77D2F82
:102E3000FCD700D01D502D0DE60EF324D96E040EE4
:102E4000F420DA6EDF5000017D6F7D51606F616BA1
:102E5000000E636F0A0E626F02ECEFF0000160512A
:102E6000300FE16F1D502D0DE60EF324D96E040EC8
:102E7000F420DA6EDF507D6F7D51726F736B000E40
:102E8000756F0A0E746F1EECF0F000017251300F76
:102E9000E26FE10E616F000E626F020E636F52EC23
:102EA000F9F0D00E00017D6FC90EE82EFED77D2F00
:102EB000FCD700D0BE0E0001616FFF0E626F6AEC9E
:102EC000F7F0D00E00017D6FC90EE82EFED77D2FE2
:102ED000FCD700D01D502D0DC80EF324D96E040E62
:102EE000F420DA6EDECF05F0DDCF06F005C066F027
:102EF00006C067F0000E0001696F640E686F14EC85
:102F0000F5F000016651300FE16F000E636F640E43
:102F1000626F05C060F006C061F0BCECF5F060C007
:102F200066F061C067F0000E0001696F0A0E686FFD
:102F300014ECF5F000016651300FE26F05C060F04F
:102F400006C061F0000E636F0A0E626FBCECF5F014
:102F500000016051300FE36FE10E616F000E626F90
:102F6000030E636F52ECF9F0D00E00017D6FC90EB5
:102F7000E82EFED77D2FFCD700D0B80E0001616F80
:102F8000FF0E626F6AECF7F0D00E00017D6FC90E84
:102F9000E82EFED77D2FFCD700D01D502D0DCA0E78
:102FA000F324D96E040EF420DA6EDECF05F0DDCF07
:102FB00006F005C066F006C067F0000E0001696FFC
:102FC000640E686F14ECF5F000016651300FE16F8C
:102FD000000E636F640E626F05C060F006C061F0A2
:102FE000BCECF5F060C066F061C067F0000E000157
:102FF000696F0A0E686F14ECF5F000016651300F2E
:10300000E26F05C060F006C061F0000E636F0A0E4B
:10301000626FBCECF5F000016051300FE36FE10E20
:10302000616F000E626F030E636F52ECF9F0D00E09
:1030300000017D6FC90EE82EFED77D2FFCD700D092
:103040007B0E0001616FFE0E626F6AECF7F0D00E2E
:1030500000017D6FC90EE82EFED77D2FFCD700D072
:103060001D502D0DE90EF324D96E040EF420DA6EF6
:10307000DF5000017D6F7D51606F616B000E636FEB
:103080000A0E626F02ECEFF000016051300FE16F49
:103090001D502D0DE90EF324D96E040EF420DA6EC6
:1030A000DF507D6F7D51726F736B000E756F0A0E6E
:1030B000746F1EECF0F000017251300FE26FE10E00
:1030C000616F000E626F020E636F52ECF9F0D00E6A
:1030D00000017D6FC90EE82EFED77D2FFCD700D0F2
:1030E0001D502D0DEA0EF324D96E040EF420DA6E75
:1030F000DF5000017D6F7D51606F616B000E636F6B
:103100000A0E626F02ECEFF000016051300FE16FC8
:103110001D502D0DEA0EF324D96E040EF420DA6E44
:10312000DF507D6F7D51726F736B000E756F0A0EED
:10313000746F1EECF0F000017251300FE26FE10E7F
:10314000616F000E626F020E636F52ECF9F0D00EE9
:1031500000017D6FC90EE82EFED77D2FFCD700D071
:103160001D502D0DEB0EF324D96E040EF420DA6EF3
:10317000DF5000017D6F7D51606F616B000E636FEA
:103180000A0E626F02ECEFF000016051300FE16F48
:103190001D502D0DEB0EF324D96E040EF420DA6EC3
:1031A000DF507D6F7D51726F736B000E756F0A0E6D
:1031B000746F1EECF0F000017251300FE26FE10EFF
:1031C000616F000E626F020E636F52ECF9F0D00E69
:1031D00000017D6FC90EE82EFED77D2FFCD700D0F1
:1031E0001D502D0DE70EF324D96E040EF420DA6E77
:1031F000DF5000017D6F7D51606F616B000E636F6A
:103200000A0E626F02ECEFF000016051300FE16FC7
:103210001D502D0DE70EF324D96E040EF420DA6E46
:10322000DF507D6F7D51726F736B000E756F0A0EEC
:10323000746F1EECF0F000017251300FE26FE10E7E
:10324000616F000E626F020E636F52ECF9F0D00EE8
:1032500000017D6FC90EE82EFED77D2FFCD700D070
:103260001D502D0DE80EF324D96E040EF420DA6EF5
:10327000DF5000017D6F7D51606F616B000E636FE9
:103280000A0E626F02ECEFF000016051300FE16F47
:103290001D502D0DE80EF324D96E040EF420DA6EC5
:1032A000DF507D6F7D51726F736B000E756F0A0E6C
:1032B000746F1EECF0F000017251300FE26FE10EFE
:1032C000616F000E626F020E636F52ECF9F0D00E68
:1032D00000017D6FC90EE82EFED77D2FFCD700D0F0
:1032E000B20E0001616FFC0E626F6AECF7F01D50C8
:1032F0002D0DF30EF324D96E040EF420DA6EDF5098
:10330000D8B485EF99F087EF99F09DEF9AF0220EEF
:103310000001616FF90E626F6AECF7F01D502D0D20
:10332000CE0EF324D96E040EF420DA6EDECF05F053
:10333000DDCF06F005C066F006C067F0000E0001A4
:10334000696F640E686F14ECF5F000016651300F80
:10335000E16F000E636F640E626F05C060F006C01F
:1033600061F0BCECF5F060C066F061C067F0000E83
:103370000001696F0A0E686F14ECF5F000016651E8
:10338000300FE26F05C060F006C061F0000E636FA1
:103390000A0E626FBCECF5F000016051300FE36F74
:1033A000E10E616F000E626F030E636F52ECF9F075
:1033B000D00E00017D6FC90EE82EFED77D2FFCD701
:1033C00000D0570E0001616FFF0E626F6AECF7F0DC
:1033D000D00E00017D6FC90EE82EFED77D2FFCD7E1
:1033E00000D01D502D0DD00EF324D96E040EF42004
:1033F000DA6EDECF05F0DDCF06F005C066F006C060
:1034000067F0000E0001696F640E686F14ECF5F050
:1034100000016651300FE16F000E636F640E626F42
:1034200005C060F006C061F0BCECF5F060C066F06D
:1034300061C067F0000E0001696F0A0E686F14EC3E
:10344000F5F000016651300FE26F05C060F006C074
:1034500061F0000E636F0A0E626FBCECF5F00001C4
:103460006051300FE36FE10E616F000E626F030E6B
:10347000636F52ECF9F0D00E00017D6FC90EE82E9B
:10348000FED77D2FFCD700D00B0E0001616FFE0E22
:10349000626F6AECF7F0D00E00017D6FC90EE82E66
:1034A000FED77D2FFCD700D01D502D0DEC0EF32440
:1034B000D96E040EF420DA6EDF5000017D6F7D516D
:1034C000606F616B000E636F0A0E626F02ECEFF0CB
:1034D00000016051300FE16F1D502D0DEC0EF324F3
:1034E000D96E040EF420DA6EDF507D6F7D51726F5D
:1034F000736B000E756F0A0E746F1EECF0F0000116
:103500007251300FE26FE10E616F000E626F020EBA
:10351000636F52ECF9F0D00E00017D6FC90EE82EFA
:10352000FED77D2FFCD700D0B20E0001616FFC0EDC
:10353000626F6AECF7F07AEF9CF0420E0001616F67
:10354000F90E626F6AECF7F0D00E00017D6FC90EC4
:10355000E82EFED77D2FFCD700D07AEF9CF0D00E5E
:1035600000017D6FC90EE82EFED77D2FFCD700D05D
:10357000650E0001616FFE0E626F6AECF7F0D00E0F
:1035800000017D6FC90EE82EFED77D2FFCD700D03D
:1035900017C060F00001616B000E636F0A0E626F6E
:1035A00002ECEFF000016051300FE16F17C072F0D4
:1035B000736B000E756F0A0E746F1EECF0F0000155
:1035C0007251300FE26FE10E616F000E626F020EFA
:1035D000636F52ECF9F0D00E00017D6FC90EE82E3A
:1035E000FED77D2FFCD700D07B0E0001616FFF0E50
:1035F000626F6AECF7F0D00E00017D6FC90EE82E05
:10360000FED77D2FFCD700D0010E0001616FFF0EA9
:10361000626F6AECF7F0D00E00017D6FC90EE82EE4
:10362000FED77D2FFCD700D016C060F00001616B83
:10363000000E636F0A0E626F02ECEFF00001605142
:10364000300FE16F16C072F0736B000E756F0A0ECB
:10365000746F1EECF0F000017251300FE26FE10E5A
:10366000616F000E626F020E636F52ECF9F0D00EC4
:1036700000017D6FC90EE82EFED77D2FFCD700D04C
:103680007B0E0001616FFF0E626F6AECF7F0D00EE7
:1036900000017D6FC90EE82EFED77D2FFCD700D02C
:1036A0000A0E0001616FFF0E626F6AECF7F0D00E38
:1036B00000017D6FC90EE82EFED77D2FFCD700D00C
:1036C00015C060F00001616B000E636F0A0E626F3F
:1036D00002ECEFF000016051300FE16F15C072F0A5
:1036E000736B000E756F0A0E746F1EECF0F0000124
:1036F0007251300FE26FE10E616F000E626F020EC9
:10370000636F52ECF9F0D00E00017D6FC90EE82E08
:10371000FED77D2FFCD700D0B20E0001616FFF0EE7
:10372000626F6AECF7F0D00E00017D6FC90EE82ED3
:10373000FED77D2FFCD700D0700E0001616FFE0E0A
:10374000626F6AECF7F0D00E00017D6FC90EE82EB3
:10375000FED77D2FFCD700D014C060F00001616B54
:10376000000E636F0A0E626F02ECEFF00001605111
:10377000300FE16F14C072F0736B000E756F0A0E9C
:10378000746F1EECF0F000017251300FE26FE10E29
:10379000616F000E626F020E636F52ECF9F0D00E93
:1037A00000017D6FC90EE82EFED77D2FFCD700D01B
:1037B0007B0E0001616FFF0E626F6AECF7F0D00EB6
:1037C00000017D6FC90EE82EFED77D2FFCD700D0FB
:1037D000AC0E0001616FFB0E626F6AECF7F0D00E69
:1037E00000017D6FC90EE82EFED77D2FFCD700D0DB
:1037F000CBC005F0CCC006F005C066F006C067F08F
:10380000000E0001696F640E686F14ECF5F00001A2
:103810006651300FE16F000E636F640E626F05C07A
:1038200060F006C061F0BCECF5F060C066F061C00D
:1038300067F0000E0001696F0A0E686F14ECF5F076
:1038400000016651300FE26F05C060F006C061F004
:10385000000E636F0A0E626FBCECF5F00001605160
:10386000300FE36FE10E616F000E626F030E636F46
:1038700052ECF9F0D00E00017D6FC90EE82EFED794
:103880007D2FFCD700D0B20E0001616FFF0E626F7A
:103890006AECF7F0A4EF9AF000017C517D6F7E6B2B
:1038A0007E51000AD8B457EF9CF07AEF9CF07D511E
:1038B000010AD8B4E4EF94F0030AD8B4FBEF94F013
:1038C000010AD8B405EF95F0070AD8B40FEF95F0C8
:1038D000010AD8B419EF95F0030AD8B4EFEF95F0C8
:1038E000010AD8B48CEF96F00F0AD8B4AFEF9AF073
:1038F0007AEF9CF0000E116E000E0001DF6F1A0EC1
:10390000D0ECFBF0090E00017E6F1E0E7D6FE40E01
:10391000E82EFED77D2FFCD77E2FFAD700F0C98086
:103920001150D8B496EF9CF098EF9CF090EF9CF07B
:103930000E013885290E00017E6F960E7D6F7F0E79
:10394000E82EFED77D2FFCD77E2FFAD7120000017C
:10395000D251D8B4AEEF9CF0B0EF9CF02FEFA1F0B5
:1039600007500810D8A4B7EF9CF0B9EF9CF02FEFE8
:10397000A1F01050D8A4BFEF9CF0C1EF9CF02FEF46
:10398000A1F0CF51D8A4C7EF9CF0C9EF9CF02FEF66
:10399000A1F0D051D8A4CFEF9CF0D1EF9CF02FEF45
:1039A000A1F0D351D8A4D7EF9CF0D9EF9CF02FEF22
:1039B000A1F0000E856F25EFA1F085512D0DF10EC0
:1039C000F324D96E040EF420DA6EDE04D8A4EBEFF3
:1039D0009CF0EDEF9CF0B7EF9EF085512D0DF30EAE
:1039E000F324D96E040EF420DA6EDF50D8B4FBEF66
:1039F0009CF0FDEF9CF0B7EF9EF085512D0DEE0E83
:103A0000F324D96E040EF420DA6EDE04D8A40BEF92
:103A10009DF00DEF9DF0B7EF9EF0520E0001806F0C
:103A20002B0E7F6F000EE82EFED77F2FFCD7802F46
:103A3000FAD700F09084000E0101376F000E366F48
:103A4000000E356F000E346F000E336F000E326FB4
:103A5000000E316F000E306F000E276F000E266FC4
:103A6000000E256F000E246F000E236F000E226FD4
:103A7000000E216F000E206F000E5B6F000E5A6F5C
:103A8000000E596F000E586F000185512D0DD20E9A
:103A9000F324D96E040EF420DA6EDECF3EF1DDCFD2
:103AA0003FF185512D0DD40EF324D96E040EF42070
:103AB000DA6EDECF3CF1DDCF3DF185512D0DD60E16
:103AC000F324D96E040EF420DA6EDECF3AF1DDCFA6
:103AD0003BF185512D0DD80EF324D96E040EF42040
:103AE000DA6EDECF38F1DDCF39F185512D0DDA0EEA
:103AF000F324D96E040EF420DA6EDECF2EF1DDCF82
:103B00002FF185512D0DDC0EF324D96E040EF42017
:103B1000DA6EDECF2CF1DDCF2DF185512D0DDE0ECD
:103B2000F324D96E040EF420DA6EDECF2AF1DDCF55
:103B30002BF185512D0DE00EF324D96E040EF420E7
:103B4000DA6EDECF28F1DDCF29F185512D0DE20EA1
:103B5000F324D96E040EF420DA6EDF501F6E855107
:103B60002D0DE30EF324D96E040EF420DA6EDF502F
:103B700001015E6F000185512D0DE40EF324D96E15
:103B8000040EF420DA6EDF5001015D6F00018551F3
:103B90002D0DE50EF324D96E040EF420DA6EDF50FD
:103BA00001015C6F3E513F11D8B4D9EF9DF0DBEFBE
:103BB0009DF0DEEF9DF08E86364B372B3C513D114C
:103BC000D8B4E5EF9DF0E7EF9DF0EAEF9DF08E8829
:103BD000344B352B3A513B11D8B4F1EF9DF0F3EF54
:103BE0009DF0F6EF9DF08E8A324B332B3851391110
:103BF000D8B4FDEF9DF0FFEF9DF002EF9EF08E8CAC
:103C0000304B312B000185512D0DEE0EF324D96E72
:103C1000040EF420DA6E020EDF6E85512D0DF40EC7
:103C2000F324D96E040EF420DA6EDF50D8B41BEF03
:103C30009EF01DEF9EF033EF9EF085512D0DF40E9A
:103C4000F324D96E040EF420DA6E000EDF6E6BECF6
:103C5000EBF063C040F164C041F140C107F041C1E5
:103C600008F03FEF9EF085512D0DD00EF324D96E54
:103C7000040EF420DA6EDECF07F0DDCF08F0090E77
:103C80000001806F1E0E7F6FE40EE82EFED77F2F9F
:103C9000FCD7802FFAD700F000018551020DE30E0A
:103CA000F324F66EEB0EF420F76EF86A000EF8229D
:103CB0000900F5CF63F00A00F5CF64F085512D0DB2
:103CC000C80EF324656F040EF420666FD6ECEDF099
:103CD000090E0001806F1E0E7F6FE40EE82EFED7E6
:103CE0007F2FFCD7802FFAD700F021ECF1F0090EDE
:103CF0000001806F1E0E7F6FE40EE82EFED77F2F2F
:103D0000FCD7802FFAD700F0090E000185618BEFF8
:103D10009EF08DEF9EF094EF9EF0300EE16F855196
:103D2000310FE26FA9EF9EF0080E85659AEF9EF0C5
:103D30009CEF9EF0A9EF9EF00C0E8561A2EF9EF025
:103D4000A4EF9EF0A9EF9EF0310EE16F8551270F91
:103D5000E26F2A0E786FF60E796FF50E7A6F000E0D
:103D60007B6F020E7C6F90EC94F016EFA3F0855100
:103D70002D0DF10EF324D96E040EF420DA6EDE045C
:103D8000D8A4C5EF9EF0C7EF9EF013EFA0F08551C9
:103D90002D0DF30EF324D96E040EF420DA6EDF50ED
:103DA000D8B4D5EF9EF0D7EF9EF013EFA0F0855179
:103DB0002D0DEE0EF324D96E040EF420DA6E020EF1
:103DC000DE18D8A4E6EF9EF0E8EF9EF013EFA0F027
:103DD000520E0001806F2B0E7F6F000EE82EFED773
:103DE0007F2FFCD7802FFAD700F090948E968E9874
:103DF0008E9A8E9C000185512D0DEE0EF324D96E06
:103E0000040EF420DA6E030EDF6E85512D0DEC0EDC
:103E1000F324D96E040EF420DA6EDF0685512D0DE1
:103E2000EC0EF324D96E040EF420DA6EDF50D8A421
:103E30001CEF9FF01EEF9FF028EF9FF085512D0D96
:103E4000F30EF324D96E040EF420DA6E000EDF6E4A
:103E5000090E0001806F1E0E7F6FE40EE82EFED764
:103E60007F2FFCD7802FFAD700F000018551020D7B
:103E7000E30EF324F66EEB0EF420F76EF86A000EF4
:103E8000F8220900F5CF63F00A00F5CF64F0855100
:103E90002D0DC80EF324656F040EF420666F33EC0D
:103EA000BAF0090E0001806F1E0E7F6FE40EE82E3F
:103EB000FED77F2FFCD7802FFAD700F00001855165
:103EC0002D0DCC0EF324D96E040EF420DA6EDECF65
:103ED0007FF0DDCF80F085512D0DD00EF324D96E0B
:103EE000040EF420DA6EDECF81F0DDCF82F0855152
:103EF0002D0DCE0EF324D96E040EF420DA6EDECF33
:103F000083F0DDCF84F0831F841F834B842B81518A
:103F1000835F8251845B7F518325076E80518421AA
:103F2000086E090E0001806F1E0E7F6FE40EE82EF2
:103F3000FED77F2FFCD7802FFAD700F021ECF1F0CD
:103F4000090E0001806F1E0E7F6FE40EE82EFED773
:103F50007F2FFCD7802FFAD700F0090E0001856172
:103F6000B4EF9FF0B6EF9FF0BDEF9FF0300EE16F22
:103F70008551310FE26FD2EF9FF0080E8565C3EFD8
:103F80009FF0C5EF9FF0D2EF9FF00C0E8561CBEF55
:103F90009FF0CDEF9FF0D2EF9FF0310EE16F855192
:103FA000270FE26F01014451D8B4D9EF9FF0DBEF46
:103FB0009FF0ECEF9FF0000E446F420E0001786F0F
:103FC000F10E796FF50E7A6F000E7B6F020E7C6F2B
:103FD00090EC94F016EFA3F00001D451D8B4F3EFB5
:103FE0009FF0F5EF9FF005EFA0F0000ED46FFE0EEE
:103FF000786FEF0E796FF50E7A6F000E7B6F020E01
:104000007C6F90EC94F016EFA3F0080E786FF60E2C
:10401000796FF50E7A6F000E7B6F020E7C6F90EC5D
:1040200094F016EFA3F085512D0DF10EF324D96E07
