:040000001AEF03F000
:060008004682C9EFDFF0A3
:100018004680D8CF6EF0E8CF6FF0E0CF70F0E9CF30
:1000280071F0EACF72F0D9CF73F0DACF74F0F6CF6F
:1000380075F0F7CF76F0F8CF77F0F5CF78F00E01BE
:1000480033AB29EF00F02BEF00F0A5EF02F090960C
:10005800339BE30ED46EB00ED36E162A0001CD5139
:10006800CE11D8B43AEF00F03CEF00F090EF00F07A
:1000780090A041EF00F043EF00F090EF00F0CD07C3
:10008800D8A0CE0701013E2B1250D8B44EEF00F095
:1000980050EF00F058EF00F0030E126056EF00F03A
:1000A80058EF00F059EF00F0122A190E0001606FA6
:1000B800020E616FCB0E626FF50E636F000E656FF7
:1000C800050E646F14ECF4F0000160516111D8A4BE
:1000D80070EF00F072EF00F090EF00F01E0E606F0E
:1000E800020E616FD70E626FF50E636F000E656FBB
:1000F800050E646F14ECF4F0000160516111D8A48E
:1001080088EF00F08AEF00F090EF00F0BFEC09F004
:1001180001013F2B90EF00F090A495EF00F097EFCE
:1001280000F0DFEF01F08EA69CEF00F09EEF00F0EC
:10013800B9EF00F0010126511E1907E127511F19D7
:10014800D8A4A9EF00F0ABEF00F0B5EF00F08E9661
:10015800000E1F6F000E1E6F0E4B0F2B432BE9EF87
:1001680000F01E4B1F2BE9EF00F08EB6BEEF00F03B
:10017800C0EF00F0E9EF00F0010116510E1907E198
:1001880017510F19D8A4CBEF00F0CDEF00F0E7EF2F
:1001980000F04751435DD8B0D4EF00F0D6EF00F03F
:1001A800DFEF00F08E861E4B1F2B000E0F6F000E28
:1001B8000E6FE9EF00F0010E16250E6F000E1721E5
:1001C8000F6FE9EF00F00E4B0F2B8EA8EEEF00F04B
:1001D800F0EF00F00BEF01F0010124511C1907E1C9
:1001E80025511D19D8A4FBEF00F0FDEF00F007EF33
:1001F80001F08E98000E1D6F000E1C6F0C4B0D2B1E
:10020800422B3BEF01F01C4B1D2B3BEF01F08EB84E
:1002180010EF01F012EF01F03BEF01F00101145172
:100228000C1907E115510D19D8A41DEF01F01FEFA6
:1002380001F039EF01F04651425DD8B026EF01F0E8
:1002480028EF01F031EF01F08E881C4B1D2B000EBA
:100258000D6F000E0C6F3BEF01F0010E14250C6FB3
:10026800000E15210D6F3BEF01F00C4B0D2B8EAAE4
:1002780040EF01F042EF01F05DEF01F00101225182
:100288001A1907E123511B19D8A44DEF01F04FEFBC
:1002980001F059EF01F08E9A000E1B6F000E1A6FD5
:1002A8000A4B0B2B412B8DEF01F01A4B1B2B8DEFBB
:1002B80001F08EBA62EF01F064EF01F08DEF01F00A
:1002C800010112510A1907E113510B19D8A46FEF54
:1002D80001F071EF01F08BEF01F04551415DD8B0AD
:1002E80078EF01F07AEF01F083EF01F08E8A1A4B74
:1002F8001B2B000E0B6F000E0A6F8DEF01F0010E25
:1003080012250A6F000E13210B6F8DEF01F00A4BB7
:100318000B2B8EAC92EF01F094EF01F0AFEF01F0F0
:1003280001012051181907E121511919D8A49FEF8B
:1003380001F0A1EF01F0ABEF01F08E9C000E196FF8
:10034800000E186F084B092B402BDFEF01F0184BFC
:10035800192BDFEF01F08EBCB4EF01F0B6EF01F01E
:10036800DFEF01F001011051081907E111510919D6
:10037800D8A4C1EF01F0C3EF01F0DDEF01F0445163
:10038800405DD8B0CAEF01F0CCEF01F0D5EF01F035
:100398008E8C184B192B000E096F000E086FDFEFBB
:1003A80001F0010E1025086F000E1121096FDFEF13
:1003B80001F0084B092B630E1518D8A4E6EF01F0DD
:1003C800E8EF01F0ECEF01F0000E166EA5EF02F079
:1003D8001504D8A4F2EF01F0F4EF01F004EF02F0F5
:1003E80014501618D8A4FBEF01F0FDEF01F004EF4C
:1003F80002F0000E166E8A86020E156EA5EF02F048
:10040800020E1518D8A40BEF02F00DEF02F01EEF44
:1004180002F00001D8511618D8A415EF02F017EF12
:1004280002F01EEF02F0000E166E8A96030E156E8D
:10043800A5EF02F0030E1518D8A425EF02F027EF58
:1004480002F038EF02F00001D9511618D8A42FEFA6
:1004580002F031EF02F038EF02F0000E166E8A88D3
:10046800040E156EA5EF02F0040E1518D8A43FEF80
:1004780002F041EF02F052EF02F00001D8511618D5
:10048800D8A449EF02F04BEF02F052EF02F0000E51
:10049800166E8A98050E156EA5EF02F0050E151852
:1004A800D8A459EF02F05BEF02F06CEF02F0000104
:1004B800D9511618D8A463EF02F065EF02F06CEF7B
:1004C80002F0000E166E8A8A060E156EA5EF02F06F
:1004D800060E1518D8A473EF02F075EF02F086EF38
:1004E80002F00001D8511618D8A47DEF02F07FEF72
:1004F80002F086EF02F0000E166E8A9A070E156E4D
:10050800A5EF02F0070E1518D8A48DEF02F08FEFB3
:1005180002F0A5EF02F0165000016C6F6D6B0350EE
:100528006C1907E104506D19D8A49DEF02F09FEFF4
:1005380002F0A5EF02F0000E166E010E156EA5EF83
:1005480002F00E0138A1ABEF02F0ADEF02F0B2EF0E
:1005580002F0909601013A2B0E01389138A5B7EFB9
:1005680002F0B9EF02F002EF03F090963895F00E22
:10057800C86EDC0EC76E0101392B39513D5DD8B00C
:10058800C8EF02F0CAEF02F0F3EF02F00001D45115
:10059800D8A4D1EF02F0D3EF02F0F3EF02F0010E8E
:1005A800D46F000E0101396FC9902D51D8B4DFEF17
:1005B80002F0E1EF02F0E6EF02F0010E0001D26F67
:1005C80002EF03F03751D8B4ECEF02F0EEEF02F08F
:1005D80002EF03F0010E0001D56F02EF03F00001F6
:1005E800D451D8B4FAEF02F0FCEF02F002EF03F0B6
:1005F800000E0101396FC99002EF03F078C0F5FFD2
:1006080077C0F8FF76C0F7FF75C0F6FF74C0DAFF51
:1006180073C0D9FF72C0EAFF71C0E9FF70C0E0FF84
:100628006FC0E8FF6EC0D8FF469010001FEFFAF0C9
:1006380083C179F084C17AF085C17BF086C17CF0F2
:100648002D0E00017D6F7F0E7E6F950E7F6F4C0E15
:10065800806F0AEC04F0010E000179250101836F17
:10066800000E00017A210101846F000E00017B2138
:100678000101856F000E00017C210101866F83C195
:1006880087F084C188F085C189F086C18AF0120E8E
:1006980054EF03F00001D8908A33893388338733C5
:1006A800E82E4EEF03F087C085F088C086F0120070
:1006B8006D01F701E701CF01DF01C701BF01B701F4
:1006C800D701EF013031323334353637383900004D
:1006D8000103161C080000004014540A0D1A2010CB
:1006E8001F1115151115111F02040818060408100A
:1006F8000000040A151F000004071C071C071C043F
:1007080000001F111B151F00040E1F1F1F0E0404DD
:10071800150E150E04040400040E0E0E1F0004002E
:10072800000E1517110E0000000E0001856F000E57
:10073800846F81518211D8B4A4EF03F0A6EF03F0BF
:10074800CEEF03F0010E836FAEEF03F0D890813740
:100758008237832B82AFB3EF03F0B5EF03F0AAEF34
:1007680003F0D8908437853781517F5D8251805955
:10077800D8A0C1EF03F0C3EF03F0C8EF03F0815135
:100788007F5F8251805B8481D89082338133832F4D
:10079800B5EF03F084C07FF085C080F01200C2C0BE
:1007A800F9F2C3C0FAF2000E0101016F000E006FEA
:1007B800F5EF03F0C0C0B8F0C1C0B9F0F90E000100
:1007C800BA6F020EBB6FC4C0BCF0C5C0BDF023EC4D
:1007D800E7F00001B851010100270001B9510101FA
:1007E8000123F9C2F6FFFAC2F7FF000EF86E0800FF
:1007F800F5500009D8A403EF04F005EF04F0DEEF8C
:1008080003F000C1C0F001C1C1F01200000E0001E8
:10081800816F000E826F000E836F000E846F79A1C6
:1008280018EF04F01AEF04F022EF04F07D5181274D
:100838007E5182237F51832380518423D8907D3732
:100848007E377F378037D8907C337B337A33793360
:1008580079517A117B117C11D8A435EF04F037EF68
:1008680004F013EF04F081C079F082C07AF083C0FD
:100878007BF084C07CF012008AB045EF04F047EFAB
:1008880004F05CEF04F0000E0D6E93C185F094C186
:1008980086F0060E7CEC06F0110E0001856F010E45
:1008A8009AEC05F0060EF2EC0BF0000E72EF04F075
:1008B800010E0D6E87C185F088C186F0000E7CECB4
:1008C80006F0110E0001856F010E9AEC05F0000E7E
:1008D800F2EC0BF0000E0101306F010E1200000166
:1008E8007B517C11D8B47BEF04F07DEF04F0A1EFCD
:1008F80004F0010E7D6F85EF04F0D8907B377C37CC
:100908007D2B7CAF8AEF04F08CEF04F081EF04F0CC
:100918007B51795D7C517A59D8A095EF04F097EF17
:1009280004F09BEF04F07B51795F7C517A5BD8909F
:100938007C337B337D2F8CEF04F079C079F07AC05B
:100948007AF0120000017E6F050E00017D6F0F0E18
:100958007C6FF10EE82EFED77C2FFCD77D2FFAD7BF
:10096800F90EF66EE80EF76E000EF86E0900F5CF78
:100978007CF00900F5CF7DF0050E00017C25796F2C
:10098800000E7D217A6F7EC07BF059EC09F0050ED0
:1009980000017D6F0F0E7C6FF10EE82EFED77C2FC5
:1009A800FCD77D2FFAD71200050E00017D6F0F0EC0
:1009B8007C6FF10EE82EFED77C2FFCD77D2FFAD75F
:1009C800F90EF66EE80EF76E000EF86E0900F5CF18
:1009D8007CF00900F5CF7DF0050E00017C25796FCC
:1009E800000E7D217A6F9BEC0AF000017E6F050EE8
:1009F80000017D6F0F0E7C6FF10EE82EFED77C2F65
:100A0800FCD77D2FFAD700017E511200050E000198
:100A18007D6F0F0E7C6FF10EE82EFED77C2FFCD772
:100A28007D2FFAD7F90EF66EE80EF76E000EF86E07
:100A38000900F5CF7CF00900F5CF7DF0080E000124
:100A48007C25796F000E7D217A6F0AC07BF059EC06
:100A580009F0050E00017D6F0F0E7C6FF10EE82E78
:100A6800FED77C2FFCD77D2FFAD71200050E000188
:100A78007D6F0F0E7C6FF10EE82EFED77C2FFCD712
:100A88007D2FFAD7F90EF66EE80EF76E000EF86EA7
:100A98000900F5CF7CF00900F5CF7DF0060E0001C6
:100AA8007C25796F000E7D217A6F0CC07BF059ECA4
:100AB80009F0050E00017D6F0F0E7C6FF10EE82E18
:100AC800FED77C2FFCD77D2FFAD71200050E000128
:100AD8007D6F0F0E7C6FF10EE82EFED77C2FFCD7B2
:100AE8007D2FFAD7F90EF66EE80EF76E000EF86E47
:100AF8000900F5CF7CF00900F5CF7DF0070E000165
:100B08007C25796F000E7D217A6F18C07BF059EC37
:100B180009F0050E00017D6F0F0E7C6FF10EE82EB7
:100B2800FED77C2FFCD77D2FFAD7120000018F6FDC
:100B3800AEC18BF0AFC18CF0B0C18DF0B1C18EF0F9
:100B480000018F51065CD8B0ACEF05F0AEEF05F0B0
:100B5800B0EF05F006048F6FFF0E866FFF0E876FEC
:100B68008F51886F896B86518827875189238B0E0F
:100B78008825D96E000E8921DA6EDF5085258A6FA7
:100B88008A058009AFEC0BF01200F90EF66EE80E3C
:100B9800F76E000EF86E0900F5CF7CF00900F5CF6E
:100BA8007DF0080E00017C25796F000E7D217A6F9B
:100BB8009BEC0AF00009D8A4E4EF05F0E7EF05F094
:100BC800010EE8EF05F0000E0A6E050E00017D6FBC
:100BD8000F0E7C6FF10EE82EFED77C2FFCD77D2FF1
:100BE800FAD71200F50E0401C86F030EC96FF1C3DE
:100BF800CAF4F2C3CBF4000ECE6F000ECD6F000E18
:100C0800D46F000ED36FCA0E0001C06F040EC16FFF
:100C1800F3C3C2F0F4C3C3F0C80EC46F040EC56FAB
:100C2800D3EC03F00401CD510301F125D96E040181
:100C3800CE510301F221DA6E000EDF6E12003D6E16
:100C4800AEC139F0AFC13AF0B0C13BF0B1C13CF030
:100C58003D50065CD8B033EF06F035EF06F037EFBD
:100C680006F006043D6EFF0E346EFF0E356E3D50E5
:100C7800366E376A3450362635503722390E3624C8
:100C8800D96E000E3720DA6EDF503324386E380400
:100C9800800900EC0CF012006BEF06F07AC0F6FF4A
:100CA8007BC0F7FF000EF86E0800F5501FEC0BF044
:100CB80000017A4B7B2B050E00017D6F0F0E7C6FB8
:100CC800F10EE82EFED77C2FFCD77D2FFAD77AC0FD
:100CD800F6FF7BC0F7FF000EF86E0800F55000091C
:100CE800D8A479EF06F07BEF06F052EF06F0120079
:100CF8000001876F070E000187178739E842F80B54
:100D08004009AFEC0BF0000E0001896F000E886FF0
:100D180088518525D96E89518621DA6EDF50A6EC77
:100D28000BF00001884B892B89BFA4EF06F089518D
:100D380009E1080E885DD8A0A4EF06F0A6EF06F03A
:100D48008CEF06F01200050E0001816F0F0E806F08
:100D5800F10EE82EFED7802FFCD7812FFAD72A0E66
:100D680000017C25796F000E7D217A6F20EE2AF034
:100D78007E51D9267F51DA22DF507B6F59EC09F07A
:100D8800050E0001816F0F0E806FF10EE82EFED761
:100D9800802FFCD7812FFAD71200050E0001816F32
:100DA8000F0E806FF10EE82EFED7802FFCD7812F13
:100DB800FAD7290E00017C25796F000E7D217A6F04
:100DC80020EE29F07E51D9267F51DA22DF507B6F41
:100DD80059EC09F0050E0001816F0F0E806FF10EBE
:100DE800E82EFED7802FFCD7812FFAD71200050EE8
:100DF8000001816F0F0E806FF10EE82EFED7802F55
:100E0800FCD7812FFAD7280E00017C25796F000EB8
:100E18007D217A6F20EE28F07E51D9267F51DA2283
:100E2800DF507B6F59EC09F0050E0001816F0F0E42
:100E3800806FF10EE82EFED7802FFCD7812FFAD7CE
:100E48001200050E00017D6F0F0E7C6FF10EE82E6B
:100E5800FED77C2FFCD77D2FFAD7F90EF66EE80E59
:100E6800F76E000EF86E0900F5CF79F00A00F5CF9D
:100E78007AF0D7C07BF059EC09F0050E00017D6FC0
:100E88000F0E7C6FF10EE82EFED77C2FFCD77D2F3E
:100E9800FAD712001E0E01013D6F000E0001D46F3B
:100EA800010EE56FC9806BEF07F0D90E7A6FFD0E62
:100EB8007B6F50EC06F0290E00017F6F960E7E6F57
:100EC8007F0EE82EFED77E2FFCD77F2FFAD70001A2
:100ED800D451D8B472EF07F074EF07F059EF07F068
:100EE8000E01388512008FEF07F07AC0F6FF7BC03D
:100EF800F7FF000EF86E0800F5502CEC0BF000011F
:100F08007A4B7B2BD00E00017C6FC90EE82EFED7E2
:100F18007C2FFCD700D07AC0F6FF7BC0F7FF000E0D
:100F2800F86E0800F5500009D8A49DEF07F09FEF70
:100F380007F079EF07F0120000017A6F0E01DA87E7
:100F4800D8A1A9EF07F0ABEF07F0A4EF07F0D5CED3
:100F58007BF03EEC09F000017A51D8B4B6EF07F007
:100F6800B8EF07F0BCEF07F00E01DA9BBEEF07F011
:100F78000E01DA8BDA89DAB9C4EF07F0C6EF07F0A9
:100F8800BFEF07F000017B51120079C07CF07AC0F6
:100F98007DF0DFEF07F07CC0D9FF7DC0DAFF200EBF
:100FA800DE18D8A4DAEF07F0DCEF07F0DFEF07F080
:100FB800000EEFEF07F07CC0D9FF7DC0DAFF00011B
:100FC8007C4B7D2BDF50D8A4ECEF07F0EEEF07F059
:100FD800CFEF07F0010E1200356E070E35163538C3
:100FE800E842F80B400900EC0CF0000E376E000EDA
:100FF800366E36503324D96E37503420DA6EDF50CF
:10100800F9EC0BF0364A372A37BE14EF08F03750A0
:1010180009E1080E365CD8A014EF08F016EF08F0C6
:10102800FDEF07F01200000E0001886F000E876FB9
:101038002AEF08F086C079F07A6B84C07BF085C00F
:101048007CF0C5ECF7F00001874B882B875182258F
:10105800D96E88518321DA6EDF50866F8651D8A405
:1010680038EF08F03AEF08F01EEF08F01200000E13
:1010780000017E6F54EF08F07AC0D9FF7BC0DAFF19
:10108800DF501FEC0BF000017A4B7B2B7E2BD00E30
:1010980000017D6FC90EE82EFED77D2FFCD700D04A
:1010A80000017C517E5DD8A05CEF08F05EEF08F08F
:1010B80040EF08F01200000E00017E6F78EF08F094
:1010C8007AC0D9FF7BC0DAFFDF502CEC0BF00001AF
:1010D8007A4B7B2B7E2BD00E00017D6FC90EE82E3C
:1010E800FED77D2FFCD700D000017C517E5DD8A0B3
:1010F80080EF08F082EF08F064EF08F01200F90EB4
:10110800F66EE80EF76E000EF86E0900F5CF7CF06B
:101118000900F5CF7DF0070E00017C25796F000EE0
:101128007D217A6F9BEC0AF0186E050E00017D6F29
:101138000F0E7C6FF10EE82EFED77C2FFCD77D2F8B
:10114800FAD7120000018CBFB4EF08F08C5106E109
:101158008B05D8B0B2EF08F0B4EF08F0C2EF08F092
:101168008BC08DF08CC08EF08D1F8E1F8D4B8E2BFB
:101178008DC08BF08EC08CF0C6EF08F08BC08BF062
:101188008CC08CF01200D6EF08F085C0F6FF86C040
:10119800F7FF000EF86E0800F550A6EC0BF0000102
:1011A800854B862B85C0F6FF86C0F7FF000EF86ECC
:1011B8000800F5500009D8A4E4EF08F0E6EF08F0BD
:1011C800C9EF08F012000001916F91C079F0000199
:1011D8007A6B000E7C6F0A0E7B6FE5ECFAF000016B
:1011E8007939F00B926F91C08BF08C6B000E8E6F7B
:1011F8000A0E8D6F00ECFCF000018B519211926F7A
:101208009251120079C07BF07AC07CF00FEF09F0A0
:101218000001794B7A2B79C0D9FF7AC0DAFFDF5009
:10122800D8A419EF09F01BEF09F00CEF09F0000141
:101238007B51795D796F7C517A597A6F1200000E73
:101248000001E46FC70EE4652CEF09F02EEF09F0FA
:1012580030EF09F03BEF09F0000EE425D96EDA6AA9
:10126800030EDA22000EDF6EE42B26EF09F0000EE3
:10127800E56F12000E01D8B544EF09F049EF09F007
:101288000001796B792B4BEF09F00001796B0E01A6
:10129800DA511F0B000179110009D8A456EF09F0A3
:1012A80058EF09F03EEF09F0120079C074FF000111
:1012B8007A51756E7BC076FF3F0E77167784F29E63
:1012C800550E786EAA0E786E778277B26EEF09F0B7
:1012D80070EF09F069EF09F0F28E77941200000EB2
:1012E8000001886F83EF09F085C0D9FF86C0DAFF57
:1012F800DF50A6EC0BF00001854B862B882B87511D
:10130800885DD8A08AEF09F08CEF09F078EF09F032
:101318001200000E0001E46FC70EE46596EF09F0B5
:1013280098EF09F09AEF09F0A5EF09F0000EE4250F
:10133800D96EDA6A040EDA22000EDF6EE42B90EF23
:1013480009F01200000E0001E46FC70EE465AFEF6C
:1013580009F0B1EF09F0B3EF09F0BEEF09F0180E8C
:10136800E425D96EDA6A020EDA22000EDF6EE42B6B
:10137800A9EF09F01200000E0001E46FC70EE46542
:10138800C8EF09F0CAEF09F0CCEF09F0D7EF09F080
:10139800180EE425D96EDA6A020EDA22000EDF6E24
:1013A800E42BC2EF09F012000001796F2F0E000143
:1013B8007965E1EF09F0E3EF09F0EEEF09F03A0E95
:1013C8007961E9EF09F0EBEF09F0EEEF09F0010EB2
:1013D800EFEF09F0000E120094B4F5EF09F0FAEF00
:1013E80009F00001796B792BFCEF09F00001796BAA
:1013F80096501F0B79110009D8A405EF0AF007EFE2
:101408000AF0F0EF09F012000001836F0001835128
:10141800F00B816F8339F00B826FF00E82178151C8
:101428008011040939EC0BF0000182518011040984
:1014380039EC0BF0120094B424EF0AF028EF0AF00C
:10144800276A272A29EF0AF0276A96501F0B2710C8
:101458000009D8A432EF0AF034EF0AF01FEF0AF0BF
:101468001200FF0E00017B6FFF0E7C6F79C07DF0CC
:101478007AC07EF07B517D277C517E237DC083F12D
:101488007EC084F10101856B866B120000017E6FBE
:1014980000017E51040960EC0BF0050EE82EFED722
:1014A80000F000017E51FB0B60EC0BF0A00E00D0A9
:1014B800E82EFDD71200000179517B03F3CF7DF0B0
:1014C800F4CF7EF079517C03F3507E277A517B0369
:1014D800F3507E277DC079F07EC07AF012000001BB
:1014E8007C6FF0EC09F0C1EC0BF000017C51FE0BB5
:1014F80011EC0BF0F0EC09F000017B5111EC0BF052
:10150800B8EC0BF01200316E3150F00B2F6E313801
:10151800F00B306EF00E30162F502E10040988ECA8
:101528000BF030502E10040988EC0BF0120079C033
:1015380074FF00017A51756E3F0E77167780680E3A
:1015480000017B6FE40EE82EFED77B2FFCD700F05E
:10155800765012002C6E2C500409DCEC0BF0050EB2
:10156800E82EFED700F02C50FB0BDCEC0BF0A00EA5
:1015780000D0E82EFDD71200010EAFEC0BF0030EE1
:101588000001866F700E856F5C0EE82EFED7852FE2
:10159800FCD7862FFAD700F012002A6E1FEC0AF04B
:1015A800D3EC0BF02A50FE0B46EC0BF01FEC0AF0C4
:1015B800295046EC0BF0CAEC0BF012000001906FBA
:1015C800010E0001856F90519AEC05F0B30E0001F1
:1015D800856FF60E866FC7EC08F0120000017B6F6E
:1015E8007BC079F00F0E000179177B390F0B0F0BB9
:1015F8000A0DF35079257A6F7A51120000017A6F3B
:101608007AC0D5FE0E01D8B10CEF0BF00EEF0BF03F
:1016180006EF0BF03EEC09F0120000017A6F7AC079
:1016280091FF94B01AEF0BF01CEF0BF015EF0BF0D5
:10163800F0EC09F012000001796F79C0EBFE0E01A1
:1016480037A129EF0BF02BEF0BF023EF0BF0120073
:101658000001796F79C099FF0E0136A936EF0BF0BA
:1016680038EF0BF030EF0BF0120000017F6F000134
:101678007F51FD0B60EC0BF000017F51FD0B4AEC34
:101688000AF01200286E28C091FF94B04EEF0BF0BC
:1016980050EF0BF049EF0BF01FEC0AF01200001F9F
:1016A8001C1F1E1F1E1F1F1E1F1E1F1F001F1E1F69
:0716B8001E1F1F1E1F1E1F55
:1016C00000017D6F00017D5105107B6F4E0E73ECA4
:1016D0000AF012000E01DA85DAB571EF0BF073EF44
:1016E0000BF06CEF0BF012000E01DA81DAB17BEF38
:1016F0000BF07DEF0BF076EF0BF012000E01DA83AA
:10170000DAB385EF0BF087EF0BF080EF0BF01200F0
:101710002D6E2D50FD0BDCEC0BF02D50FD0BAEECC7
:101720000AF012000E0136AB98EF0BF09AEF0BF0B7
:1017300092EF0BF0985012000E0137A3A2EF0BF0BE
:10174000A4EF0BF09CEF0BF0EA5112000001846F44
:10175000010E0001806F845108EC0AF012000001B4
:10176000846F000E0001806F845108EC0AF01200B3
:10177000968496B4BEEF0BF0C0EF0BF0B9EF0BF010
:101780001200968096B0C7EF0BF0C9EF0BF0C2EFD6
:101790000BF01200968496B4D0EF0BF0D2EF0BF062
:1017A000CBEF0BF01200968096B0D9EF0BF0DBEF89
:1017B0000BF0D4EF0BF012002B6E2B500510296E9E
:1017C0004E0ED1EC0AF012000001D185D15108096A
:1017D000AFEC0BF012000001D195D1510809AFEC2C
:1017E0000BF012000001856F00018551A6EC0BF093
:1017F0001200326E010E2E6E325087EC0AF012008B
:10180000326E000E2E6E325087EC0AF01200336EEC
:0A1810003350F9EC0BF01200120047
:10E892000053797374656D2041757468656E74698F
:10E8A2006361746564207769746820506861736578
:10E8B200206661696C7572652C2073757370656E64
:10E8C20064696E6720616C6C20616374696F6E733A
:10E8D200000000300060009000C000F000200150F5
:10E8E200018001B001E001100240027002A002D0DA
:10E8F200020003300360039003C00300005068610C
:10E902007365206C6F7373206465746563746564EA
:10E912000000000000004C6F67696E20636F646541
:10E92200206E6F74206368616E67656400416C6C71
:10E932002050686173652064657465637465640062
:10E942002B434D54493A2022534D222C78004944FE
:10E952004C45006F6B004472792052756E206465DD
:10E962007465637465642C204D6F746F722C20493A
:10E97200727269676174696F6E20616E64204665A8
:10E98200727469676174696F6E2073776974636802
:10E992006564206F66662E0D0A497272696761743A
:10E9A200696F6E207363686564756C656420746F4B
:10E9B200206E6578742064617920776974682066B6
:10E9C20065727469676174696F6E20666F72206622
:10E9D20069656C64206E6F2E0000004472792052CB
:10E9E200756E2064657465637465642C204D6F7464
:10E9F2006F7220616E642049727269676174696F17
:10EA02006E207377697463686564206F66662E0D85
:10EA12000A49727269676174696F6E20736368650F
:10EA220064756C656420746F206E6578742064610F
:10EA320079207769746820666572746967617469A0
:10EA42006F6E20666F72206669656C64206E6F2E31
:10EA52000000004472792052756E2064657465630B
:10EA62007465642C204D6F746F7220616E6420494E
:10EA7200727269676174696F6E2073776974636813
:10EA82006564206F66662E0D0A4972726967617449
:10EA9200696F6E207363686564756C656420746F5A
:10EAA200206E6578742064756520646174652066E3
:10EAB2006F72206669656C64206E6F2E00000044E0
:10EAC20072792052756E2064657465637465642C76
:10EAD200204D6F746F7220616E6420497272696793
:10EAE2006174696F6E207377697463686564206FFF
:10EAF20066662E0D0A49727269676174696F6E20CB
:10EB02007363686564756C656420746F206E6578E4
:10EB1200742064617920666F72206669656C642076
:10EB22006E6F2E00000053797374656D20726573E9
:10EB320074617274656420666F7220416C6C20503F
:10EB42006861736520446574656374696F6E2077CC
:10EB520069746820696E636F6D706C6574652049B5
:10EB6200727269676174696F6E20666F722066697E
:10EB7200656C64206E6F2E0053797374656D20721C
:10EB8200657374617274656420666F7220506F776A
:10EB9200657220496E74657272757074207769743B
:10EBA2006820696E636F6D706C657465204972725E
:10EBB20069676174696F6E20666F72206669656C41
:10EBC20064206E6F2E0053797374656D20726573C5
:10EBD20074617274656420696E20446961676E6F46
:10EBE20073746963204D6F64652077697468206966
:10EBF2006E636F6D706C65746520497272696761CE
:10EC020074696F6E20666F72206669656C64206E2F
:10EC12006F2E0053797374656D207265737461721F
:10EC220074656420666F72204C6F7720506F776531
:10EC32007220496E207769746820696E636F6D7007
:10EC42006C6574652049727269676174696F6E20C0
:10EC5200666F72206669656C64206E6F2E00537950
:10EC62007374656D20726573746172746564206675
:10EC72006F7220537461636B204572726F722077DA
:10EC820069746820696E636F6D706C657465204984
:10EC9200727269676174696F6E20666F722066694D
:10ECA200656C64206E6F2E0053797374656D2072EB
:10ECB200657374617274656420666F722057445480
:10ECC2002054696D656F7574207769746820696E68
:10ECD200636F6D706C6574652049727269676174E7
:10ECE200696F6E20666F72206669656C64206E6F54
:10ECF2002E004665727469676174696F6E20737461
:10ED02006F707065642077697468206665727469D3
:10ED12006C697A6572206C6576656C2073656E73BA
:10ED22006F72206661696C75726520666F7220660B
:10ED320069656C64206E6F2E004C6F77205068619D
:10ED420073652063757272656E74206465746563A1
:10ED52007465642C20616374696F6E7320737573BC
:10ED620070656E6465642C20706C656173652072D9
:10ED72006573746172742073797374656D0049727E
:10ED82007269676174696F6E206973206E6F742097
:10ED92004163746976652E20466572746967617491
:10EDA200696F6E206E6F7420656E61626C6564209F
:10EDB200666F72206669656C64206E6F2E004D6FFF
:10EDC2006973747572652073656E736F72206973EF
:10EDD200206661696C65642C20497272696761748E
:10EDE200696F6E207374617274656420666F72203D
:10EDF2006669656C64206E6F2E0053797374656D5D
:10EE02002072657374617274656420776974682016
:10EE12007068617365206661696C7572652C207318
:10EE2200757370656E64696E6720616C6C206163D6
:10EE320074696F6E73004665727469676174696F95
:10EE42006E2073746F707065642077697468206CCB
:10EE52006F772066657274696C697A6572206C6579
:10EE620076656C20666F72206669656C64206E6FD1
:10EE72002E00576574206669656C6420646574654C
:10EE8200637465642E0D0A49727269676174696FF1
:10EE92006E206E6F74207374617274656420666F85
:10EEA20072206669656C64206E6F2E0000005379D3
:10EEB2007374656D207265736574206F6363757218
:10EEC2007265642C206C6F67696E20636F646520C5
:10EED200726573657420746F20466163746F727912
:10EEE2002073657474696E67004972726967617430
:10EEF200696F6E20636F6D706C6574656420666FF8
:10EF02007220647565206669656C64730D0A4D6FC5
:10EF1200746F72207377697463686564206F6666C4
:10EF22000000004E6577205254432062617474657C
:10EF3200727920666F756E642C20706C65617365E2
:10EF42002073796E632073797374656D2074696DB3
:10EF520065206D616E75616C6C79004E657720522B
:10EF62005443206261747465727920666F756E64B1
:10EF72002C2073797374656D2074696D65206973D3
:10EF82002073657420746F206C6F63616C207469E8
:10EF92006D6500496E636F72726563742076616C91
:10EFA2007565732E204665727469676174696F6E48
:10EFB200206E6F7420656E61626C656420666F728C
:10EFC200206669656C64206E6F2E004972726967F3
:10EFD2006174696F6E2073746F70706564207769F5
:10EFE20074686F757420726573706F6E73652066D6
:10EFF200726F6D206669656C64206E6F2E004972B7
:10F002007269676174696F6E20736B697070656491
:10F012002077697468206E6F20726573706F6E73EB
:10F02200652066726F6D206669656C64206E6F3A4A
:10F0320000596F7520617265206E6F206D6F726569
:10F042002041646D696E206E6F772E204E657720A9
:10F0520041646D696E2069732073657420746F0D4D
:10F062000A00000052544320426174746572792090
:10F07200666F756E64206C6F772C20706C6561739F
:10F0820065207265706C6163652052544320626131
:10F0920074746572790053797374656D2072657347
:10F0A2006574206F636375727265642C2049727295
:10F0B20069676174696F6E2073657474696E672025
:10F0C20064656C657465640049727269676174692C
:10F0D2006F6E206973206163746976652C204D6FB1
:10F0E200746F72206C6F6164206375742D6F666635
:10F0F200206E6F742073657400497272696761745F
:10F10200696F6E20636F6E66696775726174696F8D
:10F112006E2064697361626C656420666F7220663A
:10F1220069656C64206E6F2E00506861736520669D
:10F1320061696C7572652064657465637465642CBD
:10F142002073757370656E64696E6720616C6C20E4
:10F15200616374696F6E73004E6F4C6F61642061FE
:10F162006E642046756C6C4C6F6164204D6F746FD9
:10F1720072207468726573686F6C6473207365744F
:10F1820020746F203A20004D6F6973747572652088
:10F1920073656E736F72206672657175656E6379E1
:10F1A2002076616C756520666F72206669656C6495
:10F1B200206E6F2E0053797374656D2074696D65CE
:10F1C2002073796E63656420746F20637572726553
:10F1D2006E74206C6F63616C2074696D6500537985
:10F1E2007374656D207265737461727465642066F0
:10F1F2006F7220416C6C20506861736520446574A5
:10F20200656374696F6E004D6F6973747572652002
:10F2120073656E736F72206973206661696C6564D1
:10F2220020666F72206669656C64206E6F2E0049DD
:10F23200727269676174696F6E206E6F7420636F9A
:10F242006E6669677572656420666F7220666965AD
:10F252006C64206E6F2E0053797374656D20726535
:10F262007374617274656420666F7220506F776583
:10F272007220496E7465727275707400537973747A
:10F28200656D2072657374617274656420696E20A5
:10F29200446961676E6F73746963206D6F646500A2
:10F2A20049727269676174696F6E206669656C6420
:10F2B200206D617070656420776974682076616C76
:10F2C2007665730049727269676174696F6E206353
:10F2D2006F6E6669677572656420666F7220666913
:10F2E200656C64206E6F2E004D6F746F726C6F616F
:10F2F20064206375742D6F66662073657420737560
:10F30200636365737366756C6C79004665727469C4
:10F31200676174696F6E2064697361626C656420F1
:10F32200666F72206669656C64206E6F2E0046659A
:10F33200727469676174696F6E2073746F7070653F
:10F342006420666F72206669656C64206E6F2E00A1
:10F352004665727469676174696F6E207374617255
:10F3620074656420666F72206669656C64206E6FD6
:10F372002E004665727469676174696F6E20656EEE
:10F3820061626C656420666F72206669656C6420D8
:10F392006E6F2E0053797374656D2072657374619C
:10F3A2007274656420666F7220737461636B20658A
:10F3B20072726F720053797374656D207265737423
:10F3C200617274656420666F7220574454207469B8
:10F3D2006D656F75740049727269676174696F6EE9
:10F3E2002073746F7070656420666F722066696541
:10F3F2006C64206E6F2E0049727269676174696F66
:10F402006E207374617274656420666F722066691F
:10F41200656C64206E6F2E005761746572204669B8
:10F422006C74726174696F6E206973206E6F7420E0
:10F43200656E61626C6564004C6F67696E20636F14
:10F442006465206368616E676564207375636365D4
:10F45200737366756C6C790053797374656D207281
:10F46200657374617274656420666F72204C6F7785
:10F4720020506F7765720057617465722066696CFF
:10F4820074726174696F6E20646561637469766118
:10F4920074656400496E636F7272656374206C6F89
:10F4A20063616C2074696D6520666F756E640057C8
:10F4B200617465722046696C74726174696F6E2042
:10F4C20053657175656E63653A00576174657220A4
:10F4D20066696C74726174696F6E206163746976B7
:10F4E200617465640057726F6E67206C6F67696E36
:10F4F20020636F646520666F756E640041646D6998
:10F502006E20736574207375636365737366756CBF
:10F512006C790041757468656E7469636174696FB2
:10F522006E206661696C6564005465737420446181
:10F53200746120496E6A65637465640053797374FB
:10F54200656D20436F6E6E6563746564004661632A
:10F55200746F7279204B6579203A2000437572727C
:10F56200656E742054696D653A200049727269674C
:10F572006174696F6E204E6F3A0031323334353622
:10F5820037383931320047455446524551004558C3
:10F59200545241435400444143544956450044495E
:10F5A2005341424C450053454E534F52004D415337
:10F5B20054455200494E4A4543540041435449562A
:10F5C2004500454E41424C4500414C495645004597
:10F5D20052524F5200534C415645004745544354F2
:10F5E20000464441544100464545440054494D4576
:10F5F20000484F4C4400484F4F4B0041434B004F93
:10F602004646002B393100534354004D41500053BC
:10F612004554004F4E0043540041550046657274F4
:10F6220069676174696F6E20656E61626C656420E2
:10F63200776974682064656C61793A004665727412
:10F6420069676174696F6E206E6F7420636F6E6696
:10F652006967757265640D0A00466572746967614F
:10F6620074696F6E2044697361626C65643A005319
:10F67200797374656D205265736574204F63637589
:10F68200727265640053797374656D205265737488
:10F69200617274656420576974680053757370658C
:10F6A2006E64656420416C6C20416374696F6E7393
:10F6B2000020202020202020202020202020202068
:10F6C2002020202020002A2A2A466163746F727942
:10F6D2002052657365742A2A2A2A00537973746545
:10F6E2006D20436F6D706C657465204461746100B8
:10F6F20043757272656E7420496E2046756C6C207B
:10F702004C6F616400497272692E446174612043D6
:10F712006F6E6669677572656400466572742E4421
:10F7220061746120436F6E66696775726564004932
:10F732007272692E204E6F7420436F6E6669677510
:10F7420072656400497272692E206E6F7420636F55
:10F752006E666967757265640053657175656E637F
:10F7620065204465616374697661746564004E6501
:10F7720077204D65737361676520526563656976AD
:10F782006564004E65772052544342617474657219
:10F792007920466F756E6400496E636F727265639D
:10F7A20074204C6F63616C2054696D6500576974F5
:10F7B20068204C6F7720466572742E204C65766502
:10F7C2006C004E657874205363686564756C6520BF
:10F7D200536574204F6E00546F2044656C657465E8
:10F7E2002049727269676174696F6E00496E204EBA
:10F7F2006F204C6F616420436F6E646974696F6E31
:10F802000053797374656D20697320426F6F746958
:10F812006E672055700053797374656D205265735D
:10F8220074617274656420466F720053796E63204E
:10F8320053797374656D204D616E75616C6C7900DE
:10F8420049727269676174696F6E20436F6D706C83
:10F852006574656400497272692E20446174612086
:10F8620044697361626C656400466572742E20445B
:10F872006174612044697361626C656400466572FB
:10F882007469676174696F6E2053746F7070656418
:10F89200005068617365204C6F7373204465746512
:10F8A20063746564004665727469676174696F6E3A
:10F8B20020537461727465640046696C7472617479
:10F8C200696F6E2053657175656E63650057697463
:10F8D200682053656E736F72204661696C7572653C
:10F8E20000436865636B696E672047534D20536917
:10F8F200676E616C00546F20436865636B204753E9
:10F902004D205369676E616C0042686F6F6D6920AC
:10F912004A616C73616E64686172616E00576972EC
:10F92200654C6573732049727269676174696F6EA1
:10F93200004C6F6164204375742D4F6666205661DA
:10F942006C756573005265706C6163652052544337
:10F9520020626174746572790041542B434E4D49A3
:10F962003D312C312C302C302C300D0A004C6F6183
:10F9720064696E672053797374656D2044617461A4
:10F982000045786974696E6720446961676E6F73B8
:10F992007469630043757272656E7420496E204EFD
:10F9A2006F204C6F61640053797374656D205469E4
:10F9B2006D652053796E636564004972726967618F
:10F9C20074696F6E20536B6970706564004972725E
:10F9D20069676174696F6E2053746F70706564003B
:10F9E20053657175656E63652041637469766174F0
:10F9F200656400576574204669656C6420446574CB
:10FA020065637465640049727269676174696F6ED7
:10FA12002053746172746564004D6F746F72204C70
:10FA22006F6164204375742D4F6666004972726976
:10FA3200676174696F6E2052756E6E696E670050F1
:10FA42007265737320526573657420427574746FA6
:10FA52006E00546F2043616C696272617465204D5F
:10FA62006F746F720053757370656E64696E672090
:10FA7200416374696F6E7300466163746F727920BB
:10FA8200436F6465205265736574004E6F2044694C
:10FA920061676E6F73746963204D656E75004D6F9B
:10FAA200746F72205377697463686564204F4646A9
:10FAB2000052544320426174746572792069732044
:10FAC2006C6F7700497272692E20526573636865A4
:10FAD20064756C656400497272692E204E6F7420E1
:10FAE200537461727465640053797374656D205246
:10FAF200756E6E696E6720496E005573657220528D
:10FB02006567697374726174696F6E0043616C69D1
:10FB120062726174696E67204D6F746F7200467510
:10FB22006C6C204C6F61642043757272656E740058
:10FB32004C6F772050686173652043757272656EF1
:10FB420074002347455453454E534F523031534C62
:10FB52004156450053657061726174696F6E20543D
:10FB6200696D653A200046657274692E20506F7384
:10FB720074706F6E6564004472792052756E2064F1
:10FB8200657465637465640057697468204E6F20FC
:10FB9200526573706F6E736500497272692E2069C7
:10FBA200732052756E6E696E67004E6574776F7260
:10FBB2006B20537472656E67746800546F204465DD
:10FBC2006C6574652053797374656D005761746553
:10FBD200722046696C74726174696F6E0057616954
:10FBE20074696E6720466F722055736572004661B4
:10FBF20063746F72792053657474696E6773004918
:10FC02007272692E204461746120526573657400BA
:10FC1200536574205375636365737366756C6C7991
:10FC22000049727269676174696F6E204461746120
:10FC320000497272692E20506F7374706F6E656422
:10FC420000466163746F72792050696E436F646518
:10FC520000446961676E6F73746963204D6F6465F8
:10FC620000466F756E64204C6F7720506861736533
:10FC720000506861736520446574656374696F6ED2
:10FC8200004D6F6973747572652053656E736F7280
:10FC920000506F77657220496E7465727275707468
:10FCA2000041542B435343533D2247534D220D0AE7
:10FCB20000466F72204669656C64204E6F3A2000E0
:10FCC2004665746368696E6720497272692E0055D1
:10FCD200736572204C6F6767656420494E005469F2
:10FCE2006D65722054696D65204F555400496E63ED
:10FCF2006F72726563742044617461004973204EAF
:10FD02006F7420456E61626C656400436F6E74723D
:10FD12006F6C2053797374656D00526573746172F0
:10FD2200742053797374656D0041757468656E74DF
:10FD320069636174696F6E00546F2044656C657409
:10FD4200652055736572004665746368696E672045
:10FD52004D6F746F720041542B53434C41535330D7
:10FD62003D310D0A00436F6E6E656374696E6720E4
:10FD7200746F200053657474696E672053797374CD
:10FD8200656D00466F72204669656C64204E6F2E69
:10FD92000043757272656E742054696D653A00464F
:10FDA2006F72204669656C64204E6F3A00466F752B
:10FDB2006E64204C6F772052544300506861736523
:10FDC200204661696C757265004669656C64204DF8
:10FDD200617070696E670041542B434D47443D3159
:10FDE2002C340D0A00546F204C6F63616C205469EF
:10FDF2006D65004661696C656420557365720053D8
:10FE02007461636B204572726F720041542B4346DA
:10FE1200554E3D300D0A0041542B434D47463D316E
:10FE22000D0A0041542B4346554E3D310D0A004107
:10FE3200542B434C54533D310D0A002049746572D2
:10FE42006174696F6E3A0047534D204E6574776F47
:10FE5200726B0041542B43434C4B3F0D0A005564D7
:10FE620079616D69204C4C50004C6F67696E20437C
:10FE72006F64650052657374696E6720546F004148
:10FE8200542B434C54533F0D0A000D0A44656C61D8
:10FE920079313A20000D0A4F4E54696D653A2000BF
:10FEA20020447565446174653A20004973204661B7
:10FEB200696C6564004C6F7720506F7765720046FD
:10FEC20072657175656E63790041542B434D4753DA
:10FED2003D22005665727920476F6F640045786352
:10FEE200656C6C656E740041542B434D47523D0066
:10FEF20053656C6563746564004665746368696E16
:10FF020067004665637468696E670044656C657472
:10FF1200696E670041542B4353510D0A0044656CCE
:10FF22006179323A200044656C6179333A200020CD
:10FF32004F46467072643A004D6F64657261746533
:10FF4200004572726F7220496E0056657279204CBC
:10FF52006F77004368616E67656400536574746906
:10FF62006E67004472792052756E004E6F74205392
:10FF72006574004261747465727900204F4E70722C
:10FF8200643A00415445300D0A00415426570D0A87
:10FF920000284D696E292000446174653A00577249
:10FFA2006F6E670020616E642000284D696E290023
:10FFB200205765743A00204472793A0054494D45FD
:10FFC20000234F4646002069732000506F6F720075
:10FFD20031303025002564256300234F4E004C4FFD
:10FFE2005700393625003937250039382500393987
:0EFFF20025004E4F002564003125002400003C
:020000040001F9
:10000000000E0401D56F000ED66F000EDA6F000EE1
:10001000D96F1E0E01013D6F020EE2EC0AF0030ED5
:10002000E2EC0AF0040EE2EC0AF0700E0001906FB0
:10003000F70E916F020E926F82ECF6F0520E0301F2
:10004000FA6F2B0EF96F000EE82EFED7F92FFCD7B2
:10005000FA2FFAD700F0300E0101486532EF80F038
:1000600034EF80F0CAEF97F03A0E48613AEF80F033
:100070003CEF80F0CAEF97F0000E0001D46F000E45
:10008000E56FC98089EF80F0E90E7A6FFE0E7B6F15
:1000900050EC06F0480E00017A6F010E7B6F010EE6
:1000A0007C6F3BEC08F0B00E00017A6FFC0E7B6FAA
:1000B00050EC06F0290E0301FA6F960EF96F7F0ED1
:1000C000E82EFED7F92FFCD7FA2FFAD70001D4512A
:1000D000D8A46DEF80F06FEF80F089EF80F0CB0E49
:1000E0000301FA6FEC0EF96F840EE82EFED7F92F9C
:1000F000FCD7FA2FFAD700F0CB0E0301FA6FEC0E03
:10010000F96F840EE82EFED7F92FFCD7FA2FFAD715
:1001100000F00001D451D8B490EF80F092EF80F05D
:1001200044EF80F00E013885150E0001796F030E43
:100130007A6F050E7B6FF60E7C6F000E7E6F030EDE
:100140007D6F81ECF3F0000179517A11D8A4ABEF07
:1001500080F0ADEF80F0B9EF97F0480E796F010EA7
:100160007A6F180E7B6F030E7C6F000E7E6F0A0E87
:100170007D6F58ECFFF08DEC09F0000E0001796FF7
:10018000040E7A6F3F0E7B6F030E7C6FF1ECFDF077
:1001900023EC09F0000E0001796F040E7A6FC9ECB0
:1001A00007F00009D8B4D7EF80F0D9EF80F0DFEF87
:1001B00080F0A6EC09F0EEECD9F0EEEF80F0A30EA3
:1001C0000301FA6F570EF96F020EE82EFED7F92FD2
:1001D000FCD7FA2FFAD700F0CEEF97F01A0E0001F5
:1001E000796F000E7A6F480E7B6F010E7C6F000EE8
:1001F0007E6F0A0E7D6F81ECF3F0000179517A1168
:10020000D8A405EF81F007EF81F01EEF96F0480EBD
:10021000796F010E7A6F620E7B6F010E7C6F000E9C
:100220007E6F0A0E7D6F58ECFFF0180E0001796F9B
:10023000020E7A6FF80E7B6FF50E7C6F000E7E6FEC
:10024000040E7D6F81ECF3F0000179517A11D8A48E
:100250002CEF81F02EEF81F05AEF81F0020EE2ECEC
:100260000AF0030EE2EC0AF0040EE2EC0AF0D10E02
:100270000001906FFC0E916F020E926F82ECF6F00F
:10028000C70E0001906FFB0E916F030E926F82EC10
:10029000F6F0000E0001E56F3E0E916FF50E926FC5
:1002A0001A0E936F000E946F000E956FCFEC97F0BF
:1002B000CEEF97F0180E796F020E7A6F1B0E7B6FE0
:1002C000F60E7C6F000E7E6F020E7D6F81ECF3F0F8
:1002D000000179517A11D8A470EF81F072EF81F0AA
:1002E000F3EF81F01B0E796F020E7A6F7C0E7B6F3D
:1002F000010E7C6F000E7E6F060E7D6F81ECF3F0B9
:10030000000179517A11D8A488EF81F08AEF81F049
:10031000C7EF81F0020EE2EC0AF0030EE2EC0AF005
:10032000040EE2EC0AF06B0E0001906FFE0E916F6E
:10033000020E926F82ECF6F0550E0001906FFF0EE8
:10034000916F030E926F82ECF6F07C0E0001796FD4
:10035000010E7A6F220E7B6F020E7C6F000E7E6F95
:10036000060E7D6F58ECFFF0CAECFEF0000E0001A7
:10037000E56F3A0E916FF40E926F1A0E936F000EA6
:10038000946F000E956FCFEC97F0CEEF97F0020EC2
:10039000E2EC0AF0030EE2EC0AF0040EE2EC0AF0E2
:1003A000A00E0001906FFF0E916F020E926F82EC13
:1003B000F6F06B0E0001906FFE0E916F030E926FC0
:1003C00082ECF6F0000E0001E56FE70E916FF40E7F
:1003D000926F1A0E936F000E946F000E956FCFEC14
:1003E00097F0CEEF97F0180E796F020E7A6F110E1C
:1003F0007B6FF60E7C6F000E7E6F030E7D6F81ECBF
:10040000F3F0000179517A11D8A409EF82F00BEFD3
:1004100082F01AEF85F0030ED9ECD7F00001E46FFB
:10042000000E0401DA6F000ED96F010ED86F060EB0
:100430000001E56F180E0001E525D96EDA6A020E9B
:10044000DA22DF50D8EC09F00009D8B42AEF82F0A4
:100450002CEF82F088EF83F0190E0001E525D96EAC
:10046000DA6A020EDA22200EDE18D8A43AEF82F001
:100470003CEF82F05EEF82F0180EE525D96EDA6A65
:10048000020EDA22180EE525E16EE26A020EE22281
:10049000E750D00FDF6E180E0001E525D96EDA6A3D
:1004A000020EDA22DF500301F96FF9510401D92558
:1004B000D96F000EDA21DA6FBDEF83F0180EE52553
:1004C000D96EDA6A020EDA22180EE525E16EE26ACA
:1004D000020EE222E750D00FDF6E180EE525D96E2E
:1004E000DA6A020EDA22DF500A0D180EE525D96EFF
:1004F000DA6A020EDA22F3CFDFFFD9C479F0DAC468
:100500007AF0000E7C6F0A0E7B6F5FEC0AF079C008
:10051000D9F47AC0DAF44BEF82F00001E4512D0DEA
:10052000E50EF324D96E040EF420DA6ED9C4DEFF92
:10053000DAC4DDFF000E0401DA6F000ED96FBBEFE5
:1005400083F00001E4512D0DFF0EF324D96E040E4B
:10055000F420DA6ED9C4DFFF9AEF82F00001E45193
:100560002D0D000EF324D96E050EF420DA6ED9C4D9
:10057000DFFF9AEF82F00001E4512D0D010EF3240C
:10058000D96E050EF420DA6ED9C4DFFF9AEF82F03F
:100590000001E4512D0DE10EF324D96E040EF42078
:1005A000DA6ED9C4DEFFDAC4DDFF9AEF82F0000113
:1005B000E4512D0DE30EF324D96E040EF420DA6E0F
:1005C000D9C4DEFFDAC4DDFF9AEF82F00001E45106
:1005D0002D0D060EF324D96E050EF420DA6ED9C463
:1005E000DFFF9AEF82F00001E4512D0D080EF32495
:1005F000D96E050EF420DA6ED9C4DFFFE4512D0D5B
:10060000090EF324D96E050EF420DA6ED9C4DFFF8B
:100610009AEF82F00401D951F4ECCEF0000E0401FF
:10062000DA6F000ED96F0001E4512D0D020EF32494
:10063000D96E050EF420DA6ECFC0DFFFE4512D0D28
:10064000030EF324D96E050EF420DA6EDAC0DFFF54
:10065000E4512D0D040EF324D96E050EF420DA6E4C
:10066000DBC0DFFFE4512D0D0A0EF324D96E050E19
:10067000F420DA6E000EDF6EE4512D0D0B0EF32424
:10068000D96E050EF420DA6E010EDF6EE4512D0DE9
:10069000E70EF324D96E040EF420DA6E000EDE6E3F
:1006A000000EDD6EE4512D0DE90EF324D96E040E1B
:1006B000F420DA6E000EDE6E000EDD6EE4512D0DBC
:1006C000050EF324D96E050EF420DA6E000EDF6EEF
:1006D000E4512D0D0C0EF324D96E050EF420DA6EC4
:1006E000000EDF6EE4512D0D070EF324D96E050EBA
:1006F000F420DA6E000EDF6EE4512D0D0D0EF324A2
:10070000D96E050EF420DA6E000EDF6EBBEF83F0BB
:100710000401D8510301F96FFA6BFA51000AD8B4F9
:1007200094EF83F0BBEF83F0F951010AD8B48DEF59
:1007300082F0030AD8B4A1EF82F0010AD8B4AEEF78
:1007400082F0070AD8B4BBEF82F0010AD8B4C8EF30
:1007500082F0030AD8B4D7EF82F0010AD8B4E6EFEA
:1007600082F00F0AD8B4F3EF82F0010AD8B40AEF8E
:1007700083F0BBEF83F00401D82B0001E52B090EB9
:100780000401D865C6EF83F0C8EF83F01AEF82F05A
:10079000090E0301FA6F1E0EF96FE40EE82EFED764
:1007A000F92FFCD7FA2FFAD700F00001E451020D1F
:1007B000D30EF324F66EE80EF420F76EF86A000EFE
:1007C000F8220900F5CF7CF00A00F5CF7DF0E45166
:1007D0002D0DE10EF3247E6F040EF4207F6F9CEC50
:1007E000E4F0090E0301FA6F1E0EF96FE40EE82E15
:1007F000FED7F92FFCD7FA2FFAD700F00001E45109
:10080000020DD30EF324F66EE80EF420F76EF86AAC
:10081000000EF8220900F5CF7CF00A00F5CF7DF03C
:10082000E4512D0DE10EF3247E6F040EF4207F6F52
:10083000BBECF9F0090E0301FA6F1E0EF96FE40E1E
:10084000E82EFED7F92FFCD7FA2FFAD700F00001D7
:10085000E451020DD30EF324F66EE80EF420F76E89
:10086000F86A000EF8220900F5CF7CF00A00F5CFF7
:100870007DF0E4512D0DE10EF3247E6F040EF42083
:100880007F6FD1EC06F0090E0301FA6F1E0EF96FAF
:10089000E40EE82EFED7F92FFCD7FA2FFAD700F096
:1008A0000001E451020DD30EF324F66EE80EF4209D
:1008B000F76EF86A000EF8220900F5CF7CF00A0006
:1008C000F5CF7DF0E4512D0DE10EF3247E6F040E83
:1008D000F4207F6FFBEC06F0090E0301FA6F1E0E89
:1008E000F96FE40EE82EFED7F92FFCD7FA2FFAD7CE
:1008F00000F00001E451020DD30EF324F66EE80E71
:10090000F420F76EF86A000EF8220900F5CF7CF0AB
:100910000A00F5CF7DF0E4512D0DE10EF3247E6F3A
:10092000040EF4207F6FA7EC06F0090E0301FA6FA6
:100930001E0EF96FE40EE82EFED7F92FFCD7FA2F22
:10094000FAD700F00001E451020DD30EF324F66E45
:10095000E80EF420F76EF86A000EF8220900F5CFD1
:100960007CF00A00F5CF7DF0E4512D0DE10EF3246B
:100970007E6F040EF4207F6F37ECC2F0090E030186
:10098000FA6F1E0EF96FE40EE82EFED7F92FFCD792
:10099000FA2FFAD700F0000E0001E56F020EE2EC2C
:1009A0000AF0030EE2EC0AF0040EE2EC0AF0070E85
:1009B0000001906FF70E916F020E926F82ECF6F0CD
:1009C000A10E0001906FFD0E916F030E926F82ECED
:1009D000F6F0110E0001856F030E9AEC05F0480E3B
:1009E0000301F16F010EF26FF70EF36FFF0EF46F5C
:1009F000010E0001E4250301F56FF66B000EF623EE
:100A0000F6EC05F0480E0001856F010E866F020EB0
:100A1000876F73EC09F0C60E0001916FF20E926FB2
:100A20001A0E936F000E946F020E956FCFEC97F035
:100A3000CEEF97F0180E796F020E7A6FF30E7B6F80
:100A4000F50E7C6F000E7E6F040E7D6F81ECF3F06F
:100A5000000179517A11D8A430EF85F032EF85F09A
:100A60001BEF86F0040ED9ECD7F00001E46FE451DF
:100A70002D0D0A0EF324D96E050EF420DA6EDE0475
:100A8000D8A445EF85F047EF85F049EF85F0010EDA
:100A90000E6EE4512D0D0B0EF324D96E050EF420CD
:100AA000DA6E000EDF6EE4512D0D0C0EF324D96EBC
:100AB000050EF420DA6EDE04D8A461EF85F063EF52
:100AC00085F0A3EF85F0E4512D0D0C0EF324D96EC3
:100AD000050EF420DA6E000EDF6E090E0301FA6FC8
:100AE0001E0EF96FE40EE82EFED7F92FFCD7FA2F71
:100AF000FAD700F00001E451020DD30EF324F66E94
:100B0000E80EF420F76EF86A000EF8220900F5CF1F
:100B10007CF00A00F5CF7DF0E4512D0DE10EF324B9
:100B20007E6F040EF4207F6F37ECC2F0090E0301D4
:100B3000FA6F1E0EF96FE40EE82EFED7F92FFCD7E0
:100B4000FA2FFAD700F00001E451020DD30EF3247E
:100B5000F66EE80EF420F76EF86A000EF82209002F
:100B6000F5CF7CF00A00F5CF7DF0E4512D0DE10EBC
:100B7000F3247E6F040EF4207F6FA7EC06F0090EBD
:100B80000301FA6F1E0EF96FE40EE82EFED7F92F5F
:100B9000FCD7FA2FFAD700F0000E0001E56F020E25
:100BA000E2EC0AF0030EE2EC0AF0040EE2EC0AF0CA
:100BB000570E0001906FF80E916F020E926F82EC4B
:100BC000F6F0A10E0001906FFD0E916F030E926F73
:100BD00082ECF6F0110E0001856F030E9AEC05F021
:100BE000480E0301F16F010EF26FF70EF36FFF0E67
:100BF000F46F010E0001E4250301F56FF66B000EA2
:100C0000F623F6EC05F0480E0001856F010E866FA5
:100C1000020E876F73EC09F0FB0E0001916FF00E6E
:100C2000926F1A0E936F000E946F020E956FCFECB9
:100C300097F0CEEF97F0180E796F020E7A6FC40E10
:100C40007B6FF50E7C6F000E7E6F060E7D6F81EC64
:100C5000F3F0000179517A11D8A431EF86F033EF27
:100C600086F09DEF89F0000E0401DA6F000ED96F57
:100C7000000ED86F060ED9ECD7F00001E46FE451F6
:100C80002D0D0B0EF324D96E050EF420DA6EDF5015
:100C9000D8A44DEF86F04FEF86F0A6EF86F0000E59
:100CA000E56F020EE2EC0AF0030EE2EC0AF0040E2D
:100CB000E2EC0AF0310E0001906FF70E916F020E18
:100CC000926F82ECF6F05B0E0001906FF60E916F62
:100CD000030E926F82ECF6F0A10E0001906FFD0EF4
:100CE000916F040E926F82ECF6F0110E0001856F89
:100CF000040E9AEC05F0480E0301F16F010EF26F3D
:100D0000F70EF36FFF0EF46F010E0001E4250301EF
:100D1000F56FF66B000EF623F6EC05F0480E0001B9
:100D2000856F010E866F020E876F73EC09F0800EDF
:100D30000001916FED0E926F1A0E936F000E946F7B
:100D4000020E956FCFEC97F0CEEF97F0090EE56F9E
:100D5000180E0001E525D96EDA6A020EDA22DF509C
:100D6000D8EC09F00009D8B4B8EF86F0BAEF86F0F5
:100D70001BEF87F0190E0001E525D96EDA6A020E25
:100D8000DA22200EDE18D8A4C8EF86F0CAEF86F06B
:100D9000ECEF86F0180EE525D96EDA6A020EDA223B
:100DA000180EE525E16EE26A020EE222E750D00F4E
:100DB000DF6E180E0001E525D96EDA6A020EDA221E
:100DC000DF500301F96FF9510401D925D96F000EE5
:100DD000DA21DA6FFCEF88F0180EE525D96EDA6AB1
:100DE000020EDA22180EE525E16EE26A020EE22218
:100DF000E750D00FDF6E180EE525D96EDA6A020EC5
:100E0000DA22DF500A0D180EE525D96EDA6A020ED5
:100E1000DA22F3CFDFFFD9C479F0DAC47AF0000E1A
:100E20007C6F0A0E7B6F5FEC0AF079C0D9F47AC050
:100E3000DAF4D9EF86F00401D82BB2EF88F0000184
:100E4000E4512D0DE70EF324D96E040EF420DA6E72
:100E5000D9C4DEFFDAC4DDFF000E0401DA6F000E34
:100E6000D96FFCEF88F00001E4512D0DE90EF32459
:100E7000D96E040EF420DA6ED9C4DEFFDAC4DDFFC9
:100E80002CEF87F00001E4512D0D050EF324D96EEF
:100E9000050EF420DA6ED9C4DFFF2CEF87F00001D5
:100EA000E4512D0DEB0EF324D96E040EF420DA6E0E
:100EB000D9C4DEFFDAC4DDFF2CEF87F00001E45176
:100EC0002D0DF30EF324D96E040EF420DA6ED9C47E
:100ED000DEFFDAC4DDFF2CEF87F00001E4512D0DB9
:100EE000FB0EF324D96E040EF420DA6ED9C4DFFFB2
:100EF0002CEF87F00001E4512D0DED0EF324D96E97
:100F0000040EF420DA6ED9C4DEFFDAC4DDFF2CEF64
:100F100087F00001E4512D0DF50EF324D96E040E77
:100F2000F420DA6ED9C4DEFFDAC4DDFF2CEF87F0DF
:100F30000001E4512D0DFC0EF324D96E040EF420B3
:100F4000DA6ED9C4DFFF2CEF87F00001E4512D0DDC
:100F5000EF0EF324D96E040EF420DA6ED9C4DEFF4E
:100F6000DAC4DDFF2CEF87F00001E4512D0DF70E00
:100F7000F324D96E040EF420DA6ED9C4DEFFDAC48D
:100F8000DDFF2CEF87F00001E4512D0DFD0EF32461
:100F9000D96E040EF420DA6ED9C4DFFF2CEF87F08F
:100FA0000001E4512D0DF10EF324D96E040EF4204E
:100FB000DA6ED9C4DEFFDAC4DDFF2CEF87F0000162
:100FC000E4512D0DF90EF324D96E040EF420DA6EDF
:100FD000D9C4DEFFDAC4DDFF2CEF87F00001E45155
:100FE0002D0DFE0EF324D96E040EF420DA6ED9C452
:100FF000DFFFE4512D0D070EF324D96E050EF4200A
:10100000DA6E000EDF6EE4512D0D0D0EF324D96E55
:10101000050EF420DA6E000EDF6E000E0401DA6FAA
:10102000000ED96F0001E4512D0DE50EF324D96EA9
:10103000040EF420DA6EE4512D0DE90EF324E16E76
:10104000040EF420E26EE6CFFBF3E5CFFCF3E451AF
:101050002D0DE70EF324E16E040EF420E26EE6CFD0
:10106000FDF3E5CFFEF30301FB51FD27FC51FE2309
:10107000DE50FD5DDE50FE59D8A041EF88F043EF11
:1010800088F0A5EF88F00001E4512D0D0C0EF3243B
:10109000D96E050EF420DA6E000EDF6E000EE56FDD
:1010A000020EE2EC0AF0030EE2EC0AF0040EE2ECAF
:1010B0000AF0EF0E0001906FFC0E916F020E926F1E
:1010C00082ECF6F05B0E0001906FF60E916F030E4E
:1010D000926F82ECF6F0A10E0001906FFD0E916F01
:1010E000040E926F82ECF6F0110E0001856F040E73
:1010F0009AEC05F0480E0301F16F010EF26FF70E46
:10110000F36FFF0EF46F010E0001E4250301F56F8C
:10111000F66B000EF623F6EC05F0480E0001856F25
:10112000010E866F020E876F73EC09F0950E0001B9
:10113000916FEF0E926F1A0E936F000E946F020E66
:10114000956FCFEC97F0FCEF88F00001E4512D0D86
:101150000C0EF324D96E050EF420DA6E010EDF6E4C
:10116000FCEF88F0D8510301F96FFA6BFA51000ACD
:10117000D8B4BDEF88F0FCEF88F0F951010AD8B47B
:101180001FEF87F0030AD8B433EF87F0010AD8B411
:1011900042EF87F0070AD8B44FEF87F0010AD8B4BE
:1011A0005EEF87F0030AD8B46DEF87F0010AD8B478
:1011B0007AEF87F00F0AD8B489EF87F0010AD8B424
:1011C00098EF87F0030AD8B4A5EF87F0010AD8B4E6
:1011D000B4EF87F0070AD8B4C3EF87F0010AD8B498
:1011E000D0EF87F0030AD8B4DFEF87F0010AD8B454
:1011F000EEEF87F0FCEF88F00001E52B0E0E040106
:10120000D86505EF89F007EF89F0A8EF86F00001B7
:10121000E4512D0D0C0EF324D96E050EF420DA6E78
:10122000DF50D8B416EF89F018EF89F0CEEF97F0C1
:10123000090E0301FA6F1E0EF96FE40EE82EFED7B9
:10124000F92FFCD7FA2FFAD700F00001E451020D74
:10125000D30EF324F66EE80EF420F76EF86A000E53
:10126000F8220900F5CF7CF00A00F5CF7DF0E451BB
:101270002D0DE10EF3247E6F040EF4207F6F37EC0A
:10128000C2F0090E0301FA6F1E0EF96FE40EE82E8C
:10129000FED7F92FFCD7FA2FFAD700F0000E000185
:1012A000E56F020EE2EC0AF0030EE2EC0AF0040E27
:1012B000E2EC0AF01C0E0001906FF70E916F020E27
:1012C000926F82ECF6F0A10E0001906FFD0E916F0F
:1012D000030E926F82ECF6F0110E0001856F030E83
:1012E0009AEC05F0480E0301F16F010EF26FF70E54
:1012F000F36FFF0EF46F010E0001E4250301F56F9B
:10130000F66B000EF623F6EC05F0480E0001856F33
:10131000010E866F020E876F73EC09F0740E0001E8
:10132000916FF30E926F1A0E936F000E946F020E70
:10133000956FCFEC97F0CEEF97F0180E796F020E05
:101340007A6FA00E7B6FF50E7C6F000E7E6F070E1E
:101350007D6F81ECF3F0000179517A11D8A4B3EFDD
:1013600089F0B5EF89F07CEF8AF0070ED9ECD7F061
:101370000001E46FE4512D0D0A0EF324D96E050E21
:10138000F420DA6EDE04D8A4C8EF89F0CAEF89F041
:10139000DDEF89F0E4512D0D070EF324D96E050E13
:1013A000F420DA6E030EDE18D8B4D9EF89F0DBEF43
:1013B00089F0DDEF89F0010E0E6EE4512D0D0C0E5B
:1013C000F324D96E050EF420DA6EDE04D8A4EBEF18
:1013D00089F0EDEF89F0CEEF97F0E4512D0D0C0E72
:1013E000F324D96E050EF420DA6E000EDF6E090EBE
:1013F0000301FA6F1E0EF96FE40EE82EFED7F92FE7
:10140000FCD7FA2FFAD700F00001E451020DD30EF9
:10141000F324F66EE80EF420F76EF86A000EF82258
:101420000900F5CF7CF00A00F5CF7DF0E4512D0DD9
:10143000E10EF3247E6F040EF4207F6F37ECC2F0D0
:10144000090E0301FA6F1E0EF96FE40EE82EFED7A7
:10145000F92FFCD7FA2FFAD700F0000E0001E56F44
:10146000020EE2EC0AF0030EE2EC0AF0040EE2ECEB
:101470000AF06B0E0001906FF80E916F020E926FE2
:1014800082ECF6F0A10E0001906FFD0E916F030E3D
:10149000926F82ECF6F0110E0001856F030E9AEC4C
:1014A00005F0480E0301F16F010EF26FF70EF36FB6
:1014B000FF0EF46F010E0001E4250301F56FF66BDA
:1014C000000EF623F6EC05F0480E0001856F010EC4
:1014D000866F020E876F73EC09F00D0E0001916F9D
:1014E000F30E926F1A0E936F000E946F020E956FAB
:1014F000CFEC97F0CEEF97F0180E796F020E7A6F5F
:10150000BD0E7B6FF50E7C6F000E7E6F060E7D6F3D
:1015100081ECF3F0000179517A11D8A492EF8AF0AE
:1015200094EF8AF0ACEF8BF0000E0401DA6F000E3E
:10153000D96F000ED86F060E0001E56F180E00017E
:10154000E525D96EDA6A020EDA22DF50D8EC09F00E
:101550000009D8B4AEEF8AF0B0EF8AF011EF8BF04B
:10156000190E0001E525D96EDA6A020EDA22200E84
:10157000DE18D8A4BEEF8AF0C0EF8AF0E2EF8AF05E
:10158000180EE525D96EDA6A020EDA22180EE52564
:10159000E16EE26A020EE222E750D00FDF6E180E13
:1015A0000001E525D96EDA6A020EDA22DF50030166
:1015B000F96FF9510401D925D96F000EDA21DA6FDC
:1015C00058EF8BF0180EE525D96EDA6A020EDA2292
:1015D000180EE525E16EE26A020EE222E750D00F16
:1015E000DF6E180EE525D96EDA6A020EDA22DF50B8
:1015F0000A0D180EE525D96EDA6A020EDA22F3CF4B
:10160000DFFFD9C479F0DAC47AF0000E7C6F0A0EDD
:101610007B6F5FEC0AF079C0D9F47AC0DAF4CFEFCF
:101620008AF00401D82B36EF8BF0D9C414F0000EE9
:101630000401DA6F000ED96F58EF8BF0D9C4D9F0DE
:1016400017EF8BF0D9C413F017EF8BF0D9C4D8F093
:1016500017EF8BF0D9C403F0046A000E0401DA6FAF
:10166000000ED96F010E0B6E58EF8BF0D8510301AD
:10167000F96FFA6BFA51000AD8B441EF8BF058EFCA
:101680008BF0F951010AD8B415EF8BF0030AD8B4E6
:101690001EEF8BF0010AD8B422EF8BF0070AD8B402
:1016A00026EF8BF0010AD8B42AEF8BF058EF8BF0BD
:1016B0000001E52B040E0401D86561EF8BF063EFA8
:1016C0008BF09EEF8AF0090E0301FA6F1E0EF96F80
:1016D000E40EE82EFED7F92FFCD7FA2FFAD700F048
:1016E0005AECE9F0090E0301FA6F1E0EF96FE40ED1
:1016F000E82EFED7F92FFCD7FA2FFAD700F0000E0C
:101700000001E56F020EE2EC0AF0030EE2EC0AF0D3
:10171000040EE2EC0AF0CE0E0001906FFB0E916F0A
:10172000020E926F82ECF6F0E20E0001906FF90E5D
:10173000916F030E926F82ECF6F0CC0E0001916F68
:10174000F40E926F1A0E936F000E946F000E956F49
:10175000CFEC97F0CEEF97F0180E796F020E7A6FFC
:10176000980E7B6FF50E7C6F000E7E6F070E7D6FFF
:1017700081ECF3F0000179517A11D8A4C2EF8BF01B
:10178000C4EF8BF00FEF8CF0000E0B6E090E03010F
:10179000FA6F1E0EF96FE40EE82EFED7F92FFCD774
:1017A000FA2FFAD700F05AECE9F0090E0301FA6FAC
:1017B0001E0EF96FE40EE82EFED7F92FFCD7FA2F94
:1017C000FAD700F0000E0001E56F020EE2EC0AF01D
:1017D000030EE2EC0AF0040EE2EC0AF0CE0E000179
:1017E000906FFB0E916F020E926F82ECF6F05B0E23
:1017F0000001906FF70E916F030E926F82ECF6F07E
:10180000790E0001916FF40E926F1A0E936F000E15
:10181000946F000E956FCFEC97F0CEEF97F0180E07
:10182000796F020E7A6FE30E7B6FF50E7C6F000E00
:101830007E6F050E7D6F81ECF3F0000179517A1116
:10184000D8A425EF8CF027EF8CF087EF8CF00B50AD
:10185000D8B42DEF8CF02FEF8CF05BEF8CF0000EF6
:10186000E56F020EE2EC0AF0030EE2EC0AF0040E61
:10187000E2EC0AF0040E0001906FFF0E916F020E71
:10188000926F82ECF6F0BB0E0001906FF80E916F34
:10189000030E926F82ECF6F0B10E0001916FF40E20
:1018A000926F1A0E936F000E946F080E956FCFEC27
:1018B00097F0CEEF97F0000EE56F020EE2EC0AF023
:1018C000030EE2EC0AF0040EE2EC0AF0CE0E000188
:1018D000906FFB0E916F020E926F82ECF6F0FE0E8F
:1018E0000001906FFC0E916F030E926F82ECF6F088
:1018F0001A0E0001916FF40E926F1A0E936F000E84
:10190000946F000E956FCFEC97F0CEEF97F0180E16
:10191000796F020E7A6FE90E7B6FF50E7C6F000E09
:101920007E6F040E7D6F81ECF3F0000179517A1126
:10193000D8A49DEF8CF09FEF8CF0BEEF8DF0000EE1
:101940000401DA6F000ED96F000ED86F050E00018A
:10195000E56F180E0001E525D96EDA6A020EDA226B
:10196000DF50D8EC09F00009D8B4B9EF8CF0BBEF28
:101970008CF04DEF8DF0180E0001E525D96EDA6A76
:10198000020EDA22180EE525E16EE26A020EE2226C
:10199000E750D00FDF6E180EE525D96EDA6A020E19
:1019A000DA22DF500301F96FF9510401D96FDA6BC4
:1019B000D9C479F0DAC47AF0000E00017C6F0A0E07
:1019C0007B6F5FEC0AF079C0D9F47AC0DAF4190EB3
:1019D0000001E525D96EDA6A020EDA22190EE52534
:1019E000E16EE26A020EE222E750D00FDF6E190EBE
:1019F000E525D96EDA6A020EDA22DF500301F96FAB
:101A0000F9510401D925D96F000EDA21DA6FD82BEC
:101A100027EF8DF0D9C4DFF0000E0401DA6F000E5D
:101A2000D96F7AEF8DF0D9C4E0F00CEF8DF0D9C406
:101A3000E1F00CEF8DF0D9C4DEF00CEF8DF0D9C4DD
:101A4000DDF00CEF8DF0D9C4DCF00CEF8DF0D85147
:101A50000301F96FFA6BFA51000AD8B432EF8DF036
:101A60007AEF8DF0F951010AD8B40AEF8DF0030A2C
:101A7000D8B413EF8DF0010AD8B417EF8DF0070A30
:101A8000D8B41BEF8DF0010AD8B41FEF8DF0030A14
:101A9000D8B423EF8DF07AEF8DF0000E0001E56FE2
:101AA000020EE2EC0AF0030EE2EC0AF0040EE2ECA5
:101AB0000AF09A0E0001906FF70E916F020E926F6E
:101AC00082ECF6F0940E0001906FF70E916F030E0A
:101AD000926F82ECF6F0960E0001916FF40E926F09
:101AE0001A0E936F000E946F000E956FCFEC97F067
:101AF000CEEF97F0030E0001E527050E0401D8652F
:101B000084EF8DF086EF8DF0A9EF8CF0060ED819DA
:101B1000D8A48DEF8DF08FEF8DF091EF8DF001EC6B
:101B2000FDF0000E0001E56F020EE2EC0AF0030E7C
:101B3000E2EC0AF0040EE2EC0AF0A90E0001906F4C
:101B4000F90E916F020E926F82ECF6F0E70E000133
:101B5000906FFD0E916F030E926F82ECF6F0B70E50
:101B60000001916FF10E926F1A0E936F000E946F39
:101B7000000E956FCFEC97F0CEEF97F0180E796FBF
:101B8000020E7A6FEE0E7B6FF50E7C6F000E7E6F8D
:101B9000040E7D6F81ECF3F0000179517A11D8A425
:101BA000D4EF8DF0D6EF8DF0C9EF8EF0A4ECFBF002
:101BB000DFC079F000017A6B000E7C6F0A0E7B6F3C
:101BC000E5ECFAF000017951300F0101486FDFC0F8
:101BD0008BF000018C6B000E8E6F0A0E8D6F00EC87
:101BE000FCF000018B51300F0101496F2F0E4A6F3D
:101BF000E0C079F000017A6B000E7C6F0A0E7B6FFB
:101C0000E5ECFAF000017951300F01014B6FE0C0B3
:101C10008BF000018C6B000E8E6F0A0E8D6F00EC46
:101C2000FCF000018B51300F01014C6F2F0E4D6FF6
:101C3000E1C079F000017A6B000E7C6F0A0E7B6FB9
:101C4000E5ECFAF000017951300F01014E6FE1C06F
:101C50008BF000018C6B000E8E6F0A0E8D6F00EC06
:101C6000FCF000018B51300F01014F6F200E506FBF
:101C7000DEC079F000017A6B000E7C6F0A0E7B6F7C
:101C8000E5ECFAF000017951300F0101516FDEC02F
:101C90008BF000018C6B000E8E6F0A0E8D6F00ECC6
:101CA000FCF000018B51300F0101526F3A0E536F5F
:101CB000DDC079F000017A6B000E7C6F0A0E7B6F3D
:101CC000E5ECFAF000017951300F0101546FDDC0ED
:101CD0008BF000018C6B000E8E6F0A0E8D6F00EC86
:101CE000FCF000018B51300F0101556F3A0E566F19
:101CF000DCC079F000017A6B000E7C6F0A0E7B6FFE
:101D0000E5ECFAF000017951300F0101576FDCC0AA
:101D10008BF000018C6B000E8E6F0A0E8D6F00EC45
:101D2000FCF000018B51300F0101586F000E0001D3
:101D3000E56F020EE2EC0AF0030EE2EC0AF0040E8C
:101D4000E2EC0AF0930E0001906FFD0E916F020E0F
:101D5000926F82ECF6F0010E0001856F030E9AEC93
:101D600005F0480E0001856F010E866F110E876F1A
:101D700073EC09F05E0E0001916FF50E926F1A0E72
:101D8000936F000E946F030E956FCFEC97F0CEEF2C
:101D900097F0180E796F020E7A6F900E7B6FF50E2A
:101DA0007C6F000E7E6F070E7D6F81ECF3F00001FB
:101DB00079517A11D8A4DFEF8EF0E1EF8EF0BCEF0D
:101DC0008FF0070ED9ECD7F00001E46F090EE46143
:101DD000ECEF8EF0EEEF8EF0F8EF8EF0300E0101AA
:101DE000486F0001E451310F0101496F08EF8FF096
:101DF000080EE465FEEF8EF000EF8FF008EF8FF035
:101E0000310E0101486F0001E451270F0101496FB4
:101E1000000E0001E56FE4512D0D0B0EF324D96E79
:101E2000050EF420DA6EDF50D8B419EF8FF01BEFF7
:101E30008FF070EF8FF0020EE2EC0AF0030EE2EC8E
:101E40000AF0040EE2EC0AF0C20E0001906FFC0EE4
:101E5000916F020E926F82ECF6F0ED0E0001906F22
:101E6000F60E916F030E926F82ECF6F0A10E000158
:101E7000906FFD0E916F040E926F82ECF6F0110ED2
:101E80000001856F040E9AEC05F0480E0301F16F16
:101E9000010EF26FF70EF36FFF0EF46F010E0001EB
:101EA000E4250301F56FF66B000EF623F6EC05F062
:101EB000480E0001856F010E866F020E876F73EC6E
:101EC00009F06D0E0001916FF50E926F1A0E936F6F
:101ED000000E946F070E956FCFEC97F0CEEF97F052
:101EE000020EE2EC0AF0030EE2EC0AF0040EE2EC61
:101EF0000AF0460E0001906FF70E916F020E926F7E
:101F000082ECF6F0A10E0001906FFD0E916F030EB2
:101F1000926F82ECF6F0110E0001856F030E9AECC1
:101F200005F0480E0301F16F010EF26FF70EF36F2B
:101F3000FF0EF46F010E0001E4250301F56FF66B4F
:101F4000000EF623F6EC05F0480E0001856F010E39
:101F5000866F020E876F73EC09F0310E0001916FEE
:101F6000F20E926F1A0E936F000E946F020E956F21
:101F7000CFEC97F0CEEF97F0180E796F020E7A6FD4
:101F8000180E7B6FF60E7C6F000E7E6F020E7D6F5B
:101F900081ECF3F0000179517A11D8A4D2EF8FF0DF
:101FA000D4EF8FF00DEF91F090A0D9EF8FF0DBEF31
:101FB0008FF010EF90F0000EE56F020EE2EC0AF0E9
:101FC000030EE2EC0AF0040EE2EC0AF09B0E0001B4
:101FD000906FFB0E916F020E926F82ECF6F01B0E6B
:101FE0000001906FFA0E916F030E926F82ECF6F083
:101FF0006D0E0001906FFF0E916F040E926F82ECD8
:10200000F6F0CA0E0001916FF00E926F1A0E936FE8
:10201000000E946F000E956FCFEC97F0CEEF97F017
:10202000000E0401DA6F000ED96F000ED86F010E9A
:10203000D86F030E0001E56F180E0001E525D96E7B
:10204000DA6A020EDA22DF50D8EC09F00009D8B4BF
:102050002CEF90F02EEF90F0A0EF90F0190E000111
:10206000E525D96EDA6A020EDA22200EDE18D8A42F
:102070003CEF90F03EEF90F060EF90F0180EE52509
:10208000D96EDA6A020EDA22180EE525E16EE26AEE
:10209000020EE222E750D00FDF6E180E0001E52598
:1020A000D96EDA6A020EDA22DF500301F96FF951B4
:1020B0000401D925D96F000EDA21DA6FB9EF90F05B
:1020C000180EE525D96EDA6A020EDA22180EE52519
:1020D000E16EE26A020EE222E750D00FDF6E180EC8
:1020E000E525D96EDA6A020EDA22DF500A0D180EE3
:1020F000E525D96EDA6A020EDA22F3CFDFFFD9C402
:1021000079F0DAC47AF0000E7C6F0A0E7B6F5FEC18
:102110000AF079C0D9F47AC0DAF44DEF90F0D9C45E
:1021200006F1DAC407F1000E0401DA6F000ED96F70
:10213000B7EF90F0D9C425F0DAC426F093EF90F011
:102140000401D8510301F96FFA6BFA51000AD8B4AF
:10215000ACEF90F0B7EF90F0F951010AD8B48FEFDF
:1021600090F0030AD8B49AEF90F0B7EF90F0040122
:10217000D82B0001E52B020E0401D865C2EF90F0C8
:10218000C4EF90F01CEF90F0090E0301FA6F1E0EE1
:10219000F96FE40EE82EFED7F92FFCD7FA2FFAD705
:1021A00000F04FECF2F0090E0301FA6F1E0EF96F0A
:1021B000E40EE82EFED7F92FFCD7FA2FFAD700F05D
:1021C000000E0001E56F020EE2EC0AF0030EE2ECF5
:1021D0000AF0040EE2EC0AF01B0E0001906FFA0EFA
:1021E000916F020E926F82ECF6F0120E0001906F6A
:1021F000FC0E916F030E926F82ECF6F0EA0E000176
:10220000916FF20E926F1A0E936F000E946F000E84
:10221000956FCFEC97F0CEEF97F0180E796F020E16
:102220007A6FDD0E7B6FF50E7C6F000E7E6F050EF4
:102230007D6F81ECF3F0000179517A11D8A423EF7E
:1022400091F025EF91F051EF91F0000EE56F020E45
:10225000E2EC0AF0030EE2EC0AF0040EE2EC0AF003
:10226000490E0001906FFD0E916F020E926F82EC8D
:10227000F6F0330E0001906FF90E916F030E926F1E
:1022800082ECF6F05A0E0001916FF10E926F1A0E69
:10229000936F000E946F050E956FCFEC97F0CEEF15
:1022A00097F0180E796F020E7A6F880E7B6FF50E1D
:1022B0007C6F000E7E6F070E7D6F81ECF3F00001E6
:1022C00079517A11D8A467EF91F069EF91F014EF8A
:1022D00092F0070ED9ECD7F00001E46F090E03016C
:1022E000FA6F1E0EF96FE40EE82EFED7F92FFCD719
:1022F000FA2FFAD700F00001E45152ECFDF0000192
:10230000D551D8B486EF91F088EF91F0DFEF91F0DE
:10231000000ED56F020EE2EC0AF0030EE2EC0AF0BA
:10232000040EE2EC0AF0830E0001906FFC0E916F38
:10233000020E926F82ECF6F0AD0E0001906FFE0E71
:10234000916F030E926F82ECF6F0A10E0001906F78
:10235000FD0E916F040E926F82ECF6F0110E0001EB
:10236000856F040E9AEC05F0480E0301F16F010E23
:10237000F26FF70EF36FFF0EF46F010E0001E4250C
:102380000301F56FF66B000EF623F6EC05F0480E30
:102390000001856F010E866F020E876F73EC09F0E6
:1023A000090E0001916FF20E926F1A0E936F000EDC
:1023B000946F020E956FCFEC97F0CEEF97F0000E72
:1023C000E56F020EE2EC0AF0030EE2EC0AF0040EF6
:1023D000E2EC0AF0FB0E0001906FFE0E916F020E10
:1023E000926F82ECF6F0830E0001906FFC0E916FFD
:1023F000030E926F82ECF6F0C10E0001906FFE0E9C
:10240000916F040E926F82ECF6F0890E0001916FCD
:10241000F10E926F1A0E936F000E946F060E956F69
:10242000CFEC97F0CEEF97F0180E796F020E7A6F1F
:10243000090E7B6FF60E7C6F000E7E6F030E7D6FB4
:1024400081ECF3F0000179517A11D8A42AEF92F0CF
:102450002CEF92F0ECEF92F0030ED9ECD7F00001E4
:10246000E46F090E0301FA6F1E0EF96FE40EE82EF9
:10247000FED7F92FFCD7FA2FFAD700F090A043EF40
:1024800092F045EF92F06EEF92F0000E0001E56FD2
:10249000020EE2EC0AF0030EE2EC0AF0040EE2ECAB
:1024A0000AF09B0E0001906FFB0E916F020E926F6F
:1024B00082ECF6F01B0E0001906FFA0E916F030E86
:1024C000926F82ECF6F06D0E0001906FFF0E916F2F
:1024D000040E926F82ECF6F001EF90F0090E00010D
:1024E000E46175EF92F077EF92F081EF92F0300EA9
:1024F0000101486F0001E451310F0101496F91EF73
:1025000092F0080EE46587EF92F089EF92F091EF78
:1025100092F0310E0101486F0001E451270F0101D3
:10252000496FCB0E0301FA6FEC0EF96F840EE82EA3
:10253000FED7F92FFCD7FA2FFAD700F0CB0E030104
:10254000FA6FEC0EF96F840EE82EFED7F92FFCD748
:10255000FA2FFAD700F0E4C086F0010E5EECCCF062
:10256000520E0301FA6F2B0EF96F000EE82EFED704
:10257000F92FFCD7FA2FFAD700F04FECF2F0520EF9
:102580000301FA6F2B0EF96F000EE82EFED7F92F1C
:10259000FCD7FA2FFAD700F0000E0001E56F020E0B
:1025A000E2EC0AF0030EE2EC0AF0040EE2EC0AF0B0
:1025B0001B0E0001906FFA0E916F020E926F82EC6B
:1025C000F6F0120E0001906FFC0E916F030E926FE9
:1025D00082ECF6F042EF91F0180E796F020E7A6FEE
:1025E000B60E7B6FF50E7C6F000E7E6F060E7D6F54
:1025F00081ECF3F0000179517A11D8A402EF93F045
:1026000004EF93F08EEF95F0000E0401DA6F000EE8
:10261000D96F000ED86F070E0001E56F180E00018C
:10262000E525D96EDA6A020EDA22DF50D8EC09F01D
:102630000009D8B41EEF93F020EF93F09CEF93F0D5
:10264000180E0001E525D96EDA6A020EDA22180E9C
:10265000E525E16EE26A020EE222E750D00FDF6E5E
:10266000180EE525D96EDA6A020EDA22DF50030170
:10267000F96FF9510401D96FDA6BD9C479F0DAC472
:102680007AF0000E00017C6F0A0E7B6F5FEC0AF09F
:1026900079C0D9F47AC0DAF4190E0001E525D96EB3
:1026A000DA6A020EDA22190EE525E16EE26A020EFE
:1026B000E222E750D00FDF6E190EE525D96EDA6AF7
:1026C000020EDA22DF500301F96FF9510401D92516
:1026D000D96F000EDA21DA6FD82B82EF93F0D9C4CC
:1026E000D5F4000E0401DA6F000ED96F9CEF93F061
:1026F000D9C4D6F471EF93F00401D951F4ECCEF0C3
:1027000071EF93F0D8510301F96FFA6BFA51000A97
:10271000D8B48DEF93F09CEF93F0F951010AD8B43F
:102720006FEF93F0030AD8B478EF93F0010AD8B4AE
:102730007CEF93F09CEF93F0030E0001E527020E6F
:102740000401D865A6EF93F0A8EF93F00EEF93F095
:10275000000E0001E46F76EF95F0E4512D0DE50ECB
:10276000F324D96E040EF420DA6E0F0EDE6E000E26
:10277000DD6EE4512D0DFF0EF324D96E040EF4200E
:10278000DA6E010EDF6EE4512D0D000EF324D96ECA
:10279000050EF420DA6ED5C4DFFFE4512D0D010ED5
:1027A000F324D96E050EF420DA6ED6C4DFFFE451AF
:1027B0002D0D020EF324D96E050EF420DA6ECFC073
:1027C000DFFFE4512D0D030EF324D96E050EF42026
:1027D000DA6EDAC0DFFFE4512D0D040EF324D96E5A
:1027E000050EF420DA6EDBC0DFFFE4512D0DE10EA3
:1027F000F324D96E040EF420DA6E640EDE6E000E41
:10280000DD6EE4512D0DE30EF324D96E040EF42099
:10281000DA6E300EDE6E750EDD6EE4512D0D060E95
:10282000F324D96E050EF420DA6EE429DF6EE4514C
:102830002D0D0A0EF324D96E050EF420DA6E000E6B
:10284000DF6EE4512D0D080EF324D96E050EF42031
:10285000DA6E020EDF6EE4512D0D090EF324D96EEF
:10286000050EF420DA6E020EDF6EE4512D0D0B0E14
:10287000F324D96E050EF420DA6E010EDF6EE451FA
:102880002D0DE70EF324D96E040EF420DA6E050E3A
:10289000DE6E000EDD6EE4512D0DE90EF324D96ECF
:1028A000040EF420DA6E0F0EDE6E000EDD6EE451C3
:1028B0002D0D050EF324D96E050EF420DA6EE429F1
:1028C000DF6EE4512D0D070EF324D96E050EF420B2
:1028D000DA6E000EDF6EE4512D0D0D0EF324D96E6D
:1028E000050EF420DA6E000EDF6EE4512D0D0C0E95
:1028F000F324D96E050EF420DA6E010EDF6EE4517A
:10290000020DD30EF324F66EE80EF420F76EF86A8B
:10291000000EF8220900F5CF7CF00A00F5CF7DF01B
:10292000E4512D0DE10EF3247E6F040EF4207F6F31
:102930009CECE4F0090E0301FA6F1E0EF96FE40E31
:10294000E82EFED7F92FFCD7FA2FFAD700F00001B6
:10295000E451020DD30EF324F66EE80EF420F76E68
:10296000F86A000EF8220900F5CF7CF00A00F5CFD6
:102970007DF0E4512D0DE10EF3247E6F040EF42062
:102980007F6FBBECF9F0090E0301FA6F1E0EF96FB1
:10299000E40EE82EFED7F92FFCD7FA2FFAD700F075
:1029A0000001E451020DD30EF324F66EE80EF4207C
:1029B000F76EF86A000EF8220900F5CF7CF00A00E5
:1029C000F5CF7DF0E4512D0DE10EF3247E6F040E62
:1029D000F4207F6FD1EC06F0090E0301FA6F1E0E92
:1029E000F96FE40EE82EFED7F92FFCD7FA2FFAD7AD
:1029F00000F00001E451020DD30EF324F66EE80E50
:102A0000F420F76EF86A000EF8220900F5CF7CF08A
:102A10000A00F5CF7DF0E4512D0DE10EF3247E6F19
:102A2000040EF4207F6FFBEC06F0090E0301FA6F31
:102A30001E0EF96FE40EE82EFED7F92FFCD7FA2F01
:102A4000FAD700F00001E451020DD30EF324F66E24
:102A5000E80EF420F76EF86A000EF8220900F5CFB0
:102A60007CF00A00F5CF7DF0E4512D0DE10EF3244A
:102A70007E6F040EF4207F6FA7EC06F0090E0301B1
:102A8000FA6F1E0EF96FE40EE82EFED7F92FFCD771
:102A9000FA2FFAD700F00001E451020DD30EF3240F
:102AA000F66EE80EF420F76EF86A000EF8220900C0
:102AB000F5CF7CF00A00F5CF7DF0E4512D0DE10E4D
:102AC000F3247E6F040EF4207F6F37ECC2F0090E02
:102AD0000301FA6F1E0EF96FE40EE82EFED7F92FF0
:102AE000FCD7FA2FFAD700F00001E42B0F0EE465B3
:102AF0007CEF95F07EEF95F0ADEF93F0000EE56F73
:102B00002B0E916FF50E926F1A0E936F000E946F4D
:102B1000000E956FCFEC97F0CEEF97F0180E796F0F
:102B2000020E7A6F0D0E7B6FF60E7C6F000E7E6FBD
:102B3000030E7D6F81ECF3F0000179517A11D8A476
:102B4000A4EF95F0A6EF95F01CEF96F0040E0401AB
