:040000000BEF03F00F
:060008004982FDEFC8F083
:100018004980D8CF6DF0E8CF6EF0E0CF6FF0D9CF40
:1000280070F0DACF71F0F6CF72F0F7CF73F0F8CF47
:1000380074F0F5CF75F00E0133AB25EF00F027EF24
:1000480000F09EEF02F09096339BE30ED46EB00E54
:10005800D36E192A0001CF51D011D8B436EF00F071
:1000680038EF00F089EF00F090A03DEF00F03FEF8F
:1000780000F089EF00F0CF07D8A0D0071E2A15504E
:10008800D8B449EF00F04BEF00F053EF00F0030E47
:10009800156051EF00F053EF00F054EF00F0152A0F
:1000A8000C0E606F020E616F310E626FF80E636F97
:1000B800000E656F050E646F9BECDDF0000160516A
:1000C8006111D8A46AEF00F06CEF00F089EF00F03E
:1000D800110E606F020E616F3D0E626FF80E636F56
:1000E800000E656F050E646F9BECDDF0000160513A
:1000F8006111D8A482EF00F084EF00F089EF00F0DE
:1001080083ECEEF01F2A89EF00F090A48EEF00F048
:1001180090EF00F0D8EF01F08EA695EF00F097EF82
:1001280000F0B2EF00F001013A51321907E13B51FA
:100138003319D8A4A2EF00F0A4EF00F0AEEF00F05E
:100148008E96000E336F000E326F224B232B232A1C
:10015800E2EF00F0324B332BE2EF00F08EB6B7EF50
:1001680000F0B9EF00F0E2EF00F001012A51221986
:1001780007E12B512319D8A4C4EF00F0C6EF00F013
:10018800E0EF00F02750235CD8B0CDEF00F0CFEFC0
:1001980000F0D8EF00F08E86324B332B000E236F21
:1001A800000E226FE2EF00F0010E2A25226F000EEA
:1001B8002B21236FE2EF00F0224B232B8EA8E7EFD1
:1001C80000F0E9EF00F004EF01F0010138513019B7
:1001D80007E139513119D8A4F4EF00F0F6EF00F037
:1001E80000EF01F08E98000E316F000E306F204B3B
:1001F800212B222A34EF01F0304B312B34EF01F060
:100208008EB809EF01F00BEF01F034EF01F00101B6
:100218002851201907E129512119D8A416EF01F016
:1002280018EF01F032EF01F02650225CD8B01FEF32
:1002380001F021EF01F02AEF01F08E88304B312BCD
:10024800000E216F000E206F34EF01F0010E2825FB
:10025800206F000E2921216F34EF01F0204B212B54
:100268008EAA39EF01F03BEF01F056EF01F00101E2
:1002780036512E1907E137512F19D8A446EF01F04E
:1002880048EF01F052EF01F08E9A000E2F6F000E2A
:100298002E6F1E4B1F2B212A86EF01F02E4B2F2B82
:1002A80086EF01F08EBA5BEF01F05DEF01F086EFAB
:1002B80001F0010126511E1907E127511F19D8A481
:1002C80068EF01F06AEF01F084EF01F02550215C3E
:1002D800D8B071EF01F073EF01F07CEF01F08E8A76
:1002E8002E4B2F2B000E1F6F000E1E6F86EF01F096
:1002F800010E26251E6F000E27211F6F86EF01F0C5
:100308001E4B1F2B8EAC8BEF01F08DEF01F0A8EF89
:1003180001F0010134512C1907E135512D19D8A4E8
:1003280098EF01F09AEF01F0A4EF01F08E9C000E17
:100338002D6F000E2C6F1C4B1D2B202AD8EF01F0BF
:100348002C4B2D2BD8EF01F08EBCADEF01F0AFEFA9
:1003580001F0D8EF01F0010124511C1907E12551E2
:100368001D19D8A4BAEF01F0BCEF01F0D6EF01F0E7
:100378002450205CD8B0C3EF01F0C5EF01F0CEEFF8
:1003880001F08E8C2C4B2D2B000E1D6F000E1C6F58
:10039800D8EF01F0010E24251C6F000E25211D6FDA
:1003A800D8EF01F01C4B1D2B630E1818D8A4DFEFF3
:1003B80001F0E1EF01F0E5EF01F0000E196E9EEF9C
:1003C80002F01804D8A4EBEF01F0EDEF01F0FDEF17
:1003D80001F017501918D8A4F4EF01F0F6EF01F066
:1003E800FDEF01F0000E196E8A86020E186E9EEF60
:1003F80002F0020E1818D8A404EF02F006EF02F07B
:1004080017EF02F00001DB511918D8A40EEF02F023
:1004180010EF02F017EF02F0000E196E8A96030E25
:10042800186E9EEF02F0030E1818D8A41EEF02F003
:1004380020EF02F031EF02F00001DC511918D8A4C6
:1004480028EF02F02AEF02F031EF02F0000E196EE9
:100458008A88040E186E9EEF02F0040E1818D8A4AD
:1004680038EF02F03AEF02F04BEF02F00001DB51F7
:100478001918D8A442EF02F044EF02F04BEF02F053
:10048800000E196E8A98050E186E9EEF02F0050E82
:100498001818D8A452EF02F054EF02F065EF02F0FA
:1004A8000001DC511918D8A45CEF02F05EEF02F0ED
:1004B80065EF02F0000E196E8A8A060E186E9EEF1E
:1004C80002F0060E1818D8A46CEF02F06EEF02F0D6
:1004D8007FEF02F00001DB511918D8A476EF02F083
:1004E80078EF02F07FEF02F0000E196E8A9A070E7D
:1004F800186E9EEF02F0070E1818D8A486EF02F0C7
:1005080088EF02F09EEF02F0195000016B6F6C6BE0
:1005180007506B1907E108506C19D8A496EF02F040
:1005280098EF02F09EEF02F0000E196E010E186EA1
:100538009EEF02F00E0138A1A4EF02F0A6EF02F040
:10054800ABEF02F0909601014E2B0E01389138A5C1
:10055800B0EF02F0B2EF02F0F7EF02F090963895A4
:10056800F00EC86EDC0EC76E01014D2B4D511D5C9F
:10057800D8B0C1EF02F0C3EF02F0EAEF02F0145076
:10058800D8A4C9EF02F0CBEF02F0EAEF02F0010EB7
:10059800146E000E4D6FC9904151D8B4D6EF02F0D9
:1005A800D8EF02F0DDEF02F0010E0001D56FF7EF92
:1005B80002F04B51D8B4E3EF02F0E5EF02F0F7EFA9
:1005C80002F0010E0001D86FF7EF02F01450D8B412
:1005D800F0EF02F0F2EF02F0F7EF02F0000E4D6FCD
:1005E800C990F7EF02F075C0F5FF74C0F8FF73C04B
:1005F800F7FF72C0F6FF71C0DAFF70C0D9FF6FC095
:10060800E0FF6EC0E8FF6DC0D8FF49901000F5EF1D
:02061800E2F00E
:10EAC2000049727269676174696F6E206973206EA2
:10EAD2006F74204163746976652E2046657274698D
:10EAE200676174696F6E206E6F7420656E61626C0F
:10EAF200656420666F72206669656C64206E6F2E95
:10EB02000053797374656D2041757468656E74691C
:10EB12006361746564207769746820506861736505
:10EB2200206661696C7572652C2073757370656EF1
:10EB320064696E6720616C6C20616374696F6E73C7
:10EB420000496E636F72726563742076616C7565DD
:10EB5200732E204665727469676174696F6E206EE8
:10EB62006F7420656E61626C656420666F722066E8
:10EB720069656C64206E6F2E00596F752061726535
:10EB8200206E6F206D6F72652041646D696E206E1C
:10EB92006F772E204E65772041646D696E20697310
:10EBA2002073657420746F0D0A0000004972726947
:10EBB200676174696F6E2069732061637469766539
:10EBC2002C204D6F746F72206C6F616420637574BA
:10EBD2002D6F6666206E6F742073657400497272C1
:10EBE20069676174696F6E20636F6E6669677572BB
:10EBF2006174696F6E2064697361626C656420661A
:10EC02006F72206669656C64206E6F2E004D6F69AD
:10EC120073747572652073656E736F7220667265A8
:10EC22007175656E63792076616C756520666F72A9
:10EC3200206669656C64206E6F2E000000300060F3
:10EC4200009000C000F000200150018001B001E0FE
:10EC520001100240027002A002D0020003300360E1
:10EC6200039003C003000053797374656D207469C7
:10EC72006D652073796E63656420746F20637572AD
:10EC820072656E74206C6F63616C2074696D6500CF
:10EC92004D6F6973747572652073656E736F722040
:10ECA2006973206661696C656420666F72206669AB
:10ECB200656C64206E6F2E004972726967617469B7
:10ECC2006F6E206E6F7420636F6E66696775726512
:10ECD2006420666F72206669656C64206E6F2E0018
:10ECE20049727269676174696F6E206669656C64E6
:10ECF200206D617070656420776974682076616C3C
:10ED02007665730049727269676174696F6E206318
:10ED12006F6E6669677572656420666F72206669D8
:10ED2200656C64206E6F2E004D6F746F726C6F6134
:10ED320064206375742D6F66662073657420737525
:10ED4200636365737366756C6C790046657274698A
:10ED5200676174696F6E2064697361626C656420B7
:10ED6200666F72206669656C64206E6F2E00466560
:10ED7200727469676174696F6E20656E61626C6539
:10ED82006420666F72206669656C64206E6F2E0067
:10ED920057617465722046696C74726174696F6E32
:10EDA200206973206E6F7420656E61626C65640009
:10EDB2004C6F67696E20636F6465206368616E677C
:10EDC2006564207375636365737366756C6C790033
:10EDD20057617465722066696C74726174696F6ED2
:10EDE20020646561637469766174656400496E6369
:10EDF2006F7272656374206C6F63616C2074696DED
:10EE02006520666F756E640057617465722046698D
:10EE12006C74726174696F6E2053657175656E638F
:10EE2200653A0057617465722066696C7472617428
:10EE3200696F6E20616374697661746564005068FD
:10EE4200617365206C6F73732064657465637465A8
:10EE52006400000000000057726F6E67206C6F67DD
:10EE6200696E20636F646520666F756E64004C6F17
:10EE720067696E20636F6465206E6F7420636861DA
:10EE82006E6765640041646D696E207365742073FA
:10EE920075636365737366756C6C7900417574682C
:10EEA200656E7469636174696F6E206661696C6511
:10EEB2006400416C6C205068617365206465746500
:10EEC20063746564005465737420446174612049FD
:10EED2006E6A65637465640053797374656D20436B
:10EEE2006F6E6E656374656400466163746F7279F8
:10EEF200204B6579203A20002B434D54493A202279
:10EF0200534D222C7800313233343536373839318B
:10EF120032004745544652455100455854524143E8
:10EF22005400444143544956450044495341424CDC
:10EF32004500494E4A454354004143544956450011
:10EF4200454E41424C4500474554435400464441D6
:10EF520054410049444C4500464545440054494DFE
:10EF62004500484F4C4400484F4F4B002B3931006D
:10EF7200534354004D415000534554004354006FD5
:10EF82006B004155004472792052756E206465749D
:10EF920065637465642C204D6F746F722C20497206
:10EFA2007269676174696F6E20616E642046657272
:10EFB2007469676174696F6E2073776974636865D9
:10EFC20064206F66662E0D0A497272696761746900
:10EFD2006F6E207363686564756C656420746F205E
:10EFE2006E6578742064617920776974682066653B
:10EFF200727469676174696F6E20666F72206669E8
:10F00200656C64206E6F2E00000044727920527588
:10F012006E2064657465637465642C204D6F746F33
:10F022007220616E642049727269676174696F6EE1
:10F03200207377697463686564206F66662E0D0AB3
:10F0420049727269676174696F6E2073636865647F
:10F05200756C656420746F206E65787420646179C4
:10F062002077697468206665727469676174696F74
:10F072006E20666F72206669656C64206E6F2E006A
:10F0820000004472792052756E2064657465637461
:10F0920065642C204D6F746F7220616E642049721A
:10F0A2007269676174696F6E2073776974636865EA
:10F0B20064206F66662E0D0A49727269676174690F
:10F0C2006F6E207363686564756C656420746F206D
:10F0D2006E65787420647565206461746520666F5E
:10F0E20072206669656C64206E6F2E0000004472A7
:10F0F200792052756E2064657465637465642C2092
:10F102004D6F746F7220616E64204972726967611B
:10F1120074696F6E207377697463686564206F66C3
:10F12200662E0D0A49727269676174696F6E207387
:10F1320063686564756C656420746F206E657874AD
:10F142002064617920666F72206669656C64206E46
:10F152006F2E00000053797374656D2072657374AD
:10F16200617274656420666F7220416C6C20506815
:10F1720061736520446574656374696F6E20776995
:10F18200746820696E636F6D706C65746520497276
:10F192007269676174696F6E20666F722066696555
:10F1A2006C64206E6F2E0053797374656D207265E6
:10F1B2007374617274656420666F7220506F776534
:10F1C2007220496E74657272757074207769746802
:10F1D20020696E636F6D706C657465204972726927
:10F1E200676174696F6E20666F72206669656C6410
:10F1F200206E6F2E0053797374656D20726573747F
:10F20200617274656420696E20446961676E6F7310
:10F21200746963204D6F6465207769746820696E34
:10F22200636F6D706C657465204972726967617491
:10F23200696F6E20666F72206669656C64206E6FFE
:10F242002E0053797374656D2072657374617274E4
:10F25200656420666F72204C6F7720506F776572FD
:10F2620020496E207769746820696E636F6D706CD7
:10F272006574652049727269676174696F6E206690
:10F282006F72206669656C64206E6F2E005379730D
:10F2920074656D2072657374617274656420666F43
:10F2A2007220537461636B204572726F72207769AA
:10F2B200746820696E636F6D706C65746520497245
:10F2C2007269676174696F6E20666F722066696524
:10F2D2006C64206E6F2E0053797374656D207265B5
:10F2E2007374617274656420666F7220574454208F
:10F2F20054696D656F7574207769746820696E63EF
:10F302006F6D706C657465204972726967617469AA
:10F312006F6E20666F72206669656C64206E6F2E58
:10F32200004665727469676174696F6E2073746FE9
:10F332007070656420776974682066657274696CA0
:10F34200697A6572206C6576656C2073656E736F81
:10F3520072206661696C75726520666F72206669DB
:10F36200656C64206E6F2E004C6F7720506861735D
:10F37200652063757272656E74206465746563746A
:10F3820065642C20616374696F6E7320737573708A
:10F39200656E6465642C20706C65617365207265AE
:10F3A20073746172742073797374656D004D6F6943
:10F3B20073747572652073656E736F722069732042
:10F3C2006661696C65642C2049727269676174694F
:10F3D2006F6E207374617274656420666F7220664A
:10F3E20069656C64206E6F2E0053797374656D20AD
:10F3F20072657374617274656420776974682070D1
:10F4020068617365206661696C7572652C2073751D
:10F412007370656E64696E6720616C6C20616374E1
:10F42200696F6E73004665727469676174696F6EA5
:10F432002073746F707065642077697468206C6FD4
:10F44200772066657274696C697A6572206C65767C
:10F45200656C20666F72206669656C64206E6F2E23
:10F4620000576574206669656C6420646574656321
:10F472007465642E0D0A49727269676174696F6EF0
:10F48200206E6F74207374617274656420666F728B
:10F49200206669656C64206E6F2E000000537973DC
:10F4A20074656D207265736574206F636375727223
:10F4B20065642C206C6F67696E20636F64652072CF
:10F4C2006573657420746F20466163746F7279206E
:10F4D20073657474696E67004972726967617469F1
:10F4E2006F6E20636F6D706C6574656420666F72F9
:10F4F20020647565206669656C64730D0A4D6F74CE
:10F502006F72207377697463686564206F66660042
:10F5120000004E6577205254432062617474657214
:10F522007920666F756E642C20706C65617365203E
:10F5320073796E632073797374656D2074696D6578
:10F54200206D616E75616C6C79004E657720525446
:10F5520043206261747465727920666F756E642CE3
:10F562002073797374656D2074696D6520697320E9
:10F5720073657420746F206C6F63616C2074696DA5
:10F58200650049727269676174696F6E2073746F86
:10F592007070656420776974686F75742072657322
:10F5A200706F6E73652066726F6D206669656C643C
:10F5B200206E6F2E0049727269676174696F6E20E6
:10F5C200736B69707065642077697468206E6F2050
:10F5D200726573706F6E73652066726F6D206669F7
:10F5E200656C64206E6F3A00525443204261747419
:10F5F20065727920666F756E64206C6F772C20704F
:10F602006C65617365207265706C6163652052542C
:10F612004320626174746572790053797374656D05
:10F62200207265736574206F636375727265642CF2
:10F632002049727269676174696F6E2073657474B0
:10F64200696E672064656C657465640050686173F7
:10F6520065206661696C75726520646574656374A2
:10F6620065642C2073757370656E64696E672061C2
:10F672006C6C20616374696F6E73004E6F4C6F61C6
:10F682006420616E642046756C6C4C6F6164204D21
:10F692006F746F72207468726573686F6C64732024
:10F6A20073657420746F203A200053797374656D0A
:10F6B2002072657374617274656420666F72204192
:10F6C2006C6C20506861736520446574656374696D
:10F6D2006F6E0053797374656D2072657374617215
:10F6E20074656420666F7220506F77657220496E70
:10F6F200746572727570740053797374656D2072DB
:10F70200657374617274656420696E20446961670F
:10F712006E6F73746963206D6F6465004665727401
:10F7220069676174696F6E2073746F7070656420AD
:10F73200666F72206669656C64206E6F2E00466586
:10F74200727469676174696F6E2073746172746533
:10F752006420666F72206669656C64206E6F2E008D
:10F7620053797374656D2072657374617274656424
:10F7720020666F7220737461636B206572726F72A0
:10F782000053797374656D20726573746172746568
:10F792006420666F72205744542074696D656F75DA
:10F7A200740049727269676174696F6E2073746F55
:10F7B2007070656420666F72206669656C64206E85
:10F7C2006F2E0049727269676174696F6E2073747B
:10F7D200617274656420666F72206669656C64206C
:10F7E2006E6F2E0053797374656D20726573746148
:10F7F2007274656420666F72204C6F7720506F7749
:10F8020065720043757272656E742054696D653A53
:10F81200200049727269676174696F6E204E6F3A97
:10F822000053454E534F52004D41535445520041EF
:10F832004C495645004552524F5200534C41564591
:10F842000041434B004F4646004F4E0046657274DE
:10F8520069676174696F6E20656E61626C656420B0
:10F86200776974682064656C61793A0046657274E0
:10F8720069676174696F6E206E6F7420636F6E6664
:10F882006967757265640D0A0053797374656D203A
:10F892005265736574204F636375727265640053B9
:10F8A200797374656D205265737461727465642036
:10F8B200576974680053757370656E64656420419E
:10F8C2006C6C20416374696F6E73002020202020CD
:10F8D2002020202020202020202020202020200046
:10F8E2002A2A2A466163746F72792052657365749D
:10F8F2002A2A2A2A0053797374656D20436F6D702A
:10F902006C65746520446174610043757272656E42
:10F912007420496E2046756C6C204C6F6164004EF9
:10F922006577205254434261747465727920466F40
:10F93200756E640057697468204C6F772046657253
:10F94200742E204C6576656C004E65787420536386
:10F95200686564756C6520536574204F6E00546F42
:10F962002044656C657465204972726967617469C7
:10F972006F6E00496E204E6F204C6F616420436FA2
:10F982006E646974696F6E0053797374656D206972
:10F992007320426F6F74696E6720557000537973DC
:10F9A20074656D2052657374617274656420466F6C
:10F9B200720053796E632053797374656D204D61C3
:10F9C2006E75616C6C790049727269676174696FF6
:10F9D2006E20436F6D706C657465640041542B43F7
:10F9E2004E4D493D312C312C302C302C300D0A003B
:10F9F2004665727469676174696F6E2053746F70C3
:10FA0200706564005068617365204C6F73732044A5
:10FA120065746563746564004665727469676174D0
:10FA2200696F6E20537461727465640057697468FB
:10FA32002053656E736F72204661696C7572650042
:10FA4200436865636B696E672047534D205369674E
:10FA52006E616C00546F20436865636B2047534DA1
:10FA6200205369676E616C0042686F6F6D69204A4E
:10FA7200616C73616E64686172616E005769726570
:10FA82004C6573732049727269676174696F6E00A5
:10FA92005265706C616365205254432062617474D4
:10FAA200657279004C6F6164696E67205379737473
:10FAB200656D20446174610045786974696E6720E0
:10FAC200446961676E6F737469630043757272652E
:10FAD2006E7420496E204E6F204C6F616400537922
:10FAE2007374656D2054696D652053796E63656426
:10FAF2000049727269676174696F6E20536B697035
:10FB02007065640049727269676174696F6E20532F
:10FB1200746F7070656400576574204669656C6423
:10FB22002044657465637465640049727269676133
:10FB320074696F6E205374617274656400497272E5
:10FB420069676174696F6E2052756E6E696E6700C7
:10FB520050726573732052657365742042757474B4
:10FB62006F6E00546F2043616C696272617465202C
:10FB72004D6F746F720053757370656E64696E6752
:10FB820020416374696F6E7300466163746F7279AA
:10FB920020436F6465205265736574004E6F204484
:10FBA2006961676E6F73746963204D656E75004D90
:10FBB2006F746F72205377697463686564204F466F
:10FBC200460052544320426174746572792069730D
:10FBD200206C6F77002347455453454E534F5230A4
:10FBE20031534C4156450053657061726174696FBF
:10FBF2006E2054696D653A2000497272692E205256
:10FC0200657363686564756C656400497272692E18
:10FC1200204E6F742053746172746564005379735B
:10FC220074656D2052756E6E696E6720496E00555F
:10FC320073657220526567697374726174696F6E5D
:10FC42000043616C6962726174696E67204D6F7402
:10FC52006F720046756C6C204C6F61642043757244
:10FC620072656E74004C6F77205068617365204333
:10FC7200757272656E740046657274692E20506FDB
:10FC82007374706F6E6564004472792052756E20D1
:10FC920064657465637465640057697468204E6FA7
:10FCA20020526573706F6E7365004E6574776F7264
:10FCB2006B20537472656E67746800546F204465DC
:10FCC2006C6574652053797374656D00576169744E
:10FCD200696E6720466F72205573657200466163D4
:10FCE200746F72792053657474696E677300497218
:10FCF20072692E20446174612052657365740041FB
:10FD0200542B435343533D2247534D220D0A00497E
:10FD1200727269676174696F6E204461746100492F
:10FD22007272692E20506F7374706F6E6564004634
:10FD32006163746F72792050696E436F6465004429
:10FD42006961676E6F73746963204D6F6465004605
:10FD52006F756E64204C6F77205068617365005038
:10FD62006861736520446574656374696F6E0050E1
:10FD72006F77657220496E74657272757074004196
:10FD8200542B53434C415353303D310D0A00436FC2
:10FD92006E6E656374696E6720746F2000536574BC
:10FDA20074696E672053797374656D00466F7220B3
:10FDB2004669656C64204E6F3A200054696D657225
:10FDC2002054696D65204F555400436F6E74726FF5
:10FDD2006C2053797374656D00526573746172742B
:10FDE2002053797374656D00546F2044656C65749B
:10FDF2006520557365720041542B434D47443D3194
:10FE02002C340D0A00466F72204669656C64204EE0
:10FE12006F2E00466F72204669656C64204E6F3A01
:10FE220000466F756E64204C6F7720525443005425
:10FE32006F204C6F63616C2054696D65005068617E
:10FE42007365204661696C757265005375636365FD
:10FE5200737366756C6C790041542B4346554E3D65
:10FE6200300D0A0041542B434D47463D310D0A00E7
:10FE720041542B4346554E3D310D0A0041542B430C
:10FE82004C54533D310D0A00204974657261746906
:10FE92006F6E3A0047534D204E6574776F726B0058
:10FEA200537461636B204572726F720041542B432D
:10FEB2004C54533F0D0A000D0A44656C6179313A86
:10FEC20020000D0A4F4E54696D653A20002044759A
:10FED20065446174653A200041542B43434C4B3FC7
:10FEE2000D0A00556479616D69204C4C50005265D1
:10FEF2007374696E6720546F005665727920476F7C
:10FF02006F6400457863656C6C656E74004C6F7746
:10FF120020506F7765720041542B4353510D0A00F4
:10FF220044656C6179323A200044656C6179333AF8
:10FF32002000204F46467072643A004D6F6465722D
:10FF4200617465004572726F7220496E0056657267
:10FF520079204C6F770053656C6563746564004467
:10FF6200656C6574696E6700204F4E7072643A006A
:10FF720053657474696E67004472792052756E001D
:10FF82004261747465727900415445300D0A004132
:10FF92005426570D0A00284D696E29200020616EF3
:10FFA200642000284D696E2900205765743A0020AC
:10FFB2004472793A00446174653A0054494D4500EF
:10FFC200234F4646002069732000506F6F72003144
:10FFD200303025002564256300234F4E004C4F57D7
:10FFE20000393625003937250039382500393925B9
:0DFFF200004E4F0025640031250024000062
:020000040001F9
:10000000A2C182F0A3C183F0090E4EECEBF0140EF6
:100010000001826F010E99ECEAF0090EBBECF0F0E2
:100020001E0E1D6E0E0E0001776FFD0E786F22EC16
:10003000EBF0090E0001946F1E0E936FE40EE82E94
:10004000FED7932FFCD7942FFAD700F08EC077F00D
:100050008FC078F022ECEBF0090E0001946F1E0EB9
:10006000936FE40EE82EFED7932FFCD7942FFAD788
:1000700000F00CEF88F0510E776F010E786F0A0ECA
:10008000796F56ECEDF0090E0001946F1E0E936F20
:10009000E40EE82EFED7932FFCD7942FFAD700F06A
:1000A0003AEF88F0510E776F010E786F020E796F7C
:1000B00056ECEDF043EF80F0510E776F010E786F44
:1000C000110E796F56ECEDF043EF80F07E0E776FF6
:1000D000010E786F060E796F56ECEDF043EF80F06D
:1000E00005C0CDF006C0CEF0CDC07CF0CEC07DF016
:1000F000030E7F6FE80E7E6F60ECE8F000017C512C
:10010000300F01015F6F030E0001796FE80E786F09
:10011000CDC076F0CEC077F072ECE9F076C07CF01E
:1001200077C07DF0000E00017F6F640E7E6F60EC83
:10013000E8F000017C51300F0101606F000E0001FA
:10014000796F640E786FCDC076F0CEC077F072EC28
:10015000E9F076C07CF077C07DF0000E00017F6F83
:100160000A0E7E6F60ECE8F000017C51300F010157
:10017000616FCDC076F0CEC077F0000E0001796FD0
:100180000A0E786F72ECE9F000017651300F010130
:10019000626F5F0E0001776F010E786F040E796F4A
:1001A00056ECEDF0050E0001946F0F0E936FF10EFB
:1001B000E82EFED7932FFCD7942FFAD79F0E00017D
:1001C000776FFF0E786F22ECEBF0050E0001946F55
:1001D0000F0E936FF10EE82EFED7932FFCD7942FBE
:1001E000FAD728C0CDF029C0CEF0CDC07CF0CEC06B
:1001F0007DF0030E00017F6FE80E7E6F60ECE8F08B
:1002000000017C51300F01015F6F030E0001796F17
:10021000E80E786FCDC076F0CEC077F072ECE9F0E2
:1002200076C07CF077C07DF0000E00017F6F640E19
:100230007E6F60ECE8F000017C51300F0101606FCF
:10024000000E0001796F640E786FCDC076F0CEC0DD
:1002500077F072ECE9F076C07CF077C07DF0000EAC
:1002600000017F6F0A0E7E6F60ECE8F000017C51A8
:10027000300F0101616FCDC076F0CEC077F0000E77
:100280000001796F0A0E786F72ECE9F00001765187
:10029000300F0101626F5F0E0001776F010E786F02
:1002A000040E796F56ECEDF043EF80F0510E776F4E
:1002B000010E786F020E796F56ECEDF0050E00011D
:1002C000946F0F0E936FF10EE82EFED7932FFCD78D
:1002D000942FFAD7C70E0001776FFF0E786F22ECCC
:1002E000EBF0050E0001946F0F0E936FF10EE82EE8
:1002F000FED7932FFCD7942FFAD7C9C0CDF0CAC030
:10030000CEF0CDC07CF0CEC07DF0270E00017F6F17
:10031000100E7E6F60ECE8F000017C51300F01019F
:100320005F6F270E0001796F100E786FCDC076F0E9
:10033000CEC077F072ECE9F076C07CF077C07DF04B
:10034000030E00017F6FE80E7E6F60ECE8F00001A5
:100350007C51300F0101606F030E0001796FE80ED0
:10036000786FCDC076F0CEC077F072ECE9F076C051
:100370007CF077C07DF0000E00017F6F640E7E6F11
:1003800060ECE8F000017C51300F0101616F000E5C
:100390000001796F640E786FCDC076F0CEC077F033
:1003A00072ECE9F076C07CF077C07DF0000E0001C1
:1003B0007F6F0A0E7E6F60ECE8F000017C51300F19
:1003C0000101626FCDC076F0CEC077F0000E000163
:1003D000796F0A0E786F72ECE9F000017651300FF8
:1003E0000101636F5F0E0001776F010E786F050EDC
:1003F000796F56ECEDF043EF80F0D00E0001936F73
:10040000C90EE82EFED7932FFCD700D0510E000165
:10041000776F010E786F020E796F56ECEDF0D00E0B
:100420000001936FC90EE82EFED7932FFCD700D0A2
:100430006A0E0001776FFF0E786F22ECEBF0D00EA2
:100440000001936FC90EE82EFED7932FFCD700D082
:100450000001E8512D0DD60EF324D96E040EF420C0
:10046000DA6EDECFCDF0DDCFCEF0CDC07CF0CEC0E9
:100470007DF0000E7F6F640E7E6F60ECE8F000018F
:100480007C51300F0101516F000E0001796F640E35
:10049000786FCDC076F0CEC077F072ECE9F076C020
:1004A0007CF077C07DF0000E00017F6F0A0E7E6F3A
:1004B00060ECE8F000017C51300F0101526FCDC0BB
:1004C00076F0CEC077F0000E0001796F0A0E786FDB
:1004D00072ECE9F000017651300F0101536F510EBB
:1004E0000001776F010E786F030E796F56ECEDF017
:1004F000D00E0001936FC90EE82EFED7932FFCD7C4
:1005000000D0340E0001776FFF0E786F22ECEBF015
:10051000D00E0001936FC90EE82EFED7932FFCD7A3
:1005200000D00001E8512D0DF00EF324D96E040E19
:10053000F420DA6EDF50936F9351766F776B000E75
:10054000796F0A0E786FBBECE3F000017651300F43
:100550000101516F0001E8512D0DF00EF324D96E09
:10056000040EF420DA6EDF50936F9351886F896B1D
:10057000000E8B6F0A0E8A6FD6ECE4F000018851F2
:10058000300F0101526F510E0001776F010E786F2D
:10059000020E796F56ECEDF0D00E0001936FC90E8C
:1005A000E82EFED7932FFCD700D0B10E0001776F55
:1005B000FF0E786F22ECEBF0D00E0001936FC90EA6
:1005C000E82EFED7932FFCD700D00001E8512D0D67
:1005D000D20EF324D96E040EF420DA6EDECFCDF005
:1005E000DDCFCEF0CDC07CF0CEC07DF0000E7F6FB1
:1005F000640E7E6F60ECE8F000017C51300F010169
:10060000516F000E0001796F640E786FCDC076F0E7
:10061000CEC077F072ECE9F076C07CF077C07DF068
:10062000000E00017F6F0A0E7E6F60ECE8F00001A3
:100630007C51300F0101526FCDC076F0CEC077F003
:10064000000E0001796F0A0E786F72ECE9F000017C
:100650007651300F0101536F510E0001776F010E7B
:10066000786F030E796F56ECEDF0D00E0001936FAA
:10067000C90EE82EFED7932FFCD700D0AB0E000199
:10068000776FFF0E786F22ECEBF0D00E0001936FC6
:10069000C90EE82EFED7932FFCD700D00001E851F9
:1006A0002D0DD40EF324D96E040EF420DA6EDECFB5
:1006B000CDF0DDCFCEF0CDC07CF0CEC07DF0000E11
:1006C0007F6F640E7E6F60ECE8F000017C51300FAC
:1006D0000101516F000E0001796F640E786FCDC07B
:1006E00076F0CEC077F072ECE9F076C07CF077C09F
:1006F0007DF0000E00017F6F0A0E7E6F60ECE8F067
:1007000000017C51300F0101526FCDC076F0CEC098
:1007100077F0000E0001796F0A0E786F72ECE9F045
:1007200000017651300F0101536F510E0001776FB8
:10073000010E786F030E796F56ECEDF0D00E0001CC
:10074000936FC90EE82EFED7932FFCD700D0CF0EA3
:100750000001776FFE0E786F22ECEBF0D00E0001F7
:10076000936FC90EE82EFED7932FFCD700D000015F
:10077000E8512D0DF30EF324D96E040EF420DA6E39
:10078000DF50936F9351766F776B000E796F0A0E7F
:10079000786FBBECE3F000017651300F0101516F2F
:1007A0000001E8512D0DF30EF324D96E040EF42050
:1007B000DA6EDF50936F9351886F896B000E8B6FE9
:1007C0000A0E8A6FD6ECE4F000018851300F010167
:1007D000526F510E0001776F010E786F020E796F24
:1007E00056ECEDF0D00E0001936FC90EE82EFED747
:1007F000932FFCD700D00001E8512D0DF40EF32407
:10080000D96E040EF420DA6EDF50936F9351766F39
:10081000776B000E796F0A0E786FBBECE3F0000186
:100820007651300F0101516F0001E8512D0DF40E8A
:10083000F324D96E040EF420DA6EDF50936F9351D7
:10084000886F896B000E8B6F0A0E8A6FD6ECE4F00E
:1008500000018851300F0101526F510E0001776F76
:10086000010E786F020E796F56ECEDF0D00E00019C
:10087000936FC90EE82EFED7932FFCD700D000014E
:10088000E8512D0DF50EF324D96E040EF420DA6E26
:10089000DF50936F9351766F776B000E796F0A0E6E
:1008A000786FBBECE3F000017651300F0101516F1E
:1008B0000001E8512D0DF50EF324D96E040EF4203D
:1008C000DA6EDF50936F9351886F896B000E8B6FD8
:1008D0000A0E8A6FD6ECE4F000018851300F010156
:1008E000526F510E0001776F010E786F020E796F13
:1008F00056ECEDF0D00E0001936FC90EE82EFED736
:10090000932FFCD700D00001E8512D0DF10EF324F8
:10091000D96E040EF420DA6EDF50936F9351766F28
:10092000776B000E796F0A0E786FBBECE3F0000175
:100930007651300F0101516F0001E8512D0DF10E7C
:10094000F324D96E040EF420DA6EDF50936F9351C6
:10095000886F896B000E8B6F0A0E8A6FD6ECE4F0FD
:1009600000018851300F0101526F510E0001776F65
:10097000010E786F020E796F56ECEDF0D00E00018B
:10098000936FC90EE82EFED7932FFCD700D000013D
:10099000E8512D0DF20EF324D96E040EF420DA6E18
:1009A000DF50936F9351766F776B000E796F0A0E5D
:1009B000786FBBECE3F000017651300F0101516F0D
:1009C0000001E8512D0DF20EF324D96E040EF4202F
:1009D000DA6EDF50936F9351886F896B000E8B6FC7
:1009E0000A0E8A6FD6ECE4F000018851300F010145
:1009F000526F510E0001776F010E786F020E796F02
:100A000056ECEDF0D00E0001936FC90EE82EFED724
:100A1000932FFCD700D00E0E0001776FFD0E786F7C
:100A200022ECEBF00001E8512D0DFD0EF324D96E00
:100A3000040EF420DA6EDF50D8B421EF85F023EFF6
:100A400085F048EF86F04E0E776FF80E786F22EC47
:100A5000EBF00001E8512D0DD80EF324D96E040EF1
:100A6000F420DA6EDECFCDF0DDCFCEF0CDC07CF05D
:100A7000CEC07DF0000E7F6F640E7E6F60ECE8F0FC
:100A800000017C51300F0101516F000E0001796FA0
:100A9000640E786FCDC076F0CEC077F072ECE9F0DE
:100AA00076C07CF077C07DF0000E00017F6F0A0EEB
:100AB0007E6F60ECE8F000017C51300F0101526F55
:100AC000CDC076F0CEC077F0000E0001796F0A0E2F
:100AD000786F72ECE9F000017651300F0101536F2D
:100AE000510E0001776F010E786F030E796F56EC8F
:100AF000EDF0D00E0001936FC90EE82EFED7932FB4
:100B0000FCD700D06A0E0001776FFF0E786F22ECE1
:100B1000EBF0D00E0001936FC90EE82EFED7932F95
:100B2000FCD700D00001E8512D0DDA0EF324D96E68
:100B3000040EF420DA6EDECFCDF0DDCFCEF0CDC0E6
:100B40007CF0CEC07DF0000E7F6F640E7E6F60EC97
:100B5000E8F000017C51300F0101516F000E0001DF
:100B6000796F640E786FCDC076F0CEC077F072ECFE
:100B7000E9F076C07CF077C07DF0000E00017F6F59
:100B80000A0E7E6F60ECE8F000017C51300F01012D
:100B9000526FCDC076F0CEC077F0000E0001796FB5
:100BA0000A0E786F72ECE9F000017651300F010106
:100BB000536F510E0001776F010E786F030E796F3E
:100BC00056ECEDF0D00E0001936FC90EE82EFED763
:100BD000932FFCD700D08A0E0001776FFE0E786F3E
:100BE00022ECEBF0D00E0001936FC90EE82EFED779
:100BF000932FFCD700D00001E8512D0DF60EF32401
:100C0000D96E040EF420DA6EDF50936F9351766F35
:100C1000776B000E796F0A0E786FBBECE3F0000182
:100C20007651300F0101516F0001E8512D0DF60E84
:100C3000F324D96E040EF420DA6EDF50936F9351D3
:100C4000886F896B000E8B6F0A0E8A6FD6ECE4F00A
:100C500000018851300F0101526F510E0001776F72
:100C6000010E786F020E796F56ECEDF0D00E000198
:100C7000936FC90EE82EFED7932FFCD700D00E0E2F
:100C80000001776FFD0E786F22ECEBF03AEF88F001
:100C90006E0E776FF80E786F22ECEBF0D00E00013D
:100CA000936FC90EE82EFED7932FFCD700D03AEFF2
:100CB00088F0D00E0001936FC90EE82EFED7932F57
:100CC000FCD700D0B90E0001776FFE0E786F22ECD2
:100CD000EBF0D00E0001936FC90EE82EFED7932FD4
:100CE000FCD700D017C076F00001776B000E796F4B
:100CF0000A0E786FBBECE3F000017651300F010172
:100D0000516F17C088F00001896B000E8B6F0A0EBF
:100D10008A6FD6ECE4F000018851300F0101526F68
:100D2000510E0001776F010E786F020E796F56EC4D
:100D3000EDF0D00E0001936FC90EE82EFED7932F71
:100D4000FCD700D0980E0001776FFF0E786F22EC71
:100D5000EBF0D00E0001936FC90EE82EFED7932F53
:100D6000FCD700D0220E0001776FFF0E786F22ECC7
:100D7000EBF0D00E0001936FC90EE82EFED7932F33
:100D8000FCD700D0DCC076F00001776B000E796FE5
:100D90000A0E786FBBECE3F000017651300F0101D1
:100DA000516FDCC088F00001896B000E8B6F0A0E5A
:100DB0008A6FD6ECE4F000018851300F0101526FC8
:100DC000510E0001776F010E786F020E796F56ECAD
:100DD000EDF0D00E0001936FC90EE82EFED7932FD1
:100DE000FCD700D0980E0001776FFF0E786F22ECD1
:100DF000EBF0D00E0001936FC90EE82EFED7932FB3
:100E0000FCD700D02B0E0001776FFF0E786F22EC1D
:100E1000EBF0D00E0001936FC90EE82EFED7932F92
:100E2000FCD700D016C076F00001776B000E796F0A
:100E30000A0E786FBBECE3F000017651300F010130
:100E4000516F16C088F00001896B000E8B6F0A0E7F
:100E50008A6FD6ECE4F000018851300F0101526F27
:100E6000510E0001776F010E786F020E796F56EC0C
:100E7000EDF0D00E0001936FC90EE82EFED7932F30
:100E8000FCD700D0A50E0001776FFF0E786F22EC23
:100E9000EBF0D00E0001936FC90EE82EFED7932F12
:100EA000FCD700D0C40E0001776FFE0E786F22ECE5
:100EB000EBF0D00E0001936FC90EE82EFED7932FF2
:100EC000FCD700D0DBC076F00001776B000E796FA5
:100ED0000A0E786FBBECE3F000017651300F010190
:100EE000516FDBC088F00001896B000E8B6F0A0E1A
:100EF0008A6FD6ECE4F000018851300F0101526F87
:100F0000510E0001776F010E786F020E796F56EC6B
:100F1000EDF0D00E0001936FC90EE82EFED7932F8F
:100F2000FCD700D0980E0001776FFF0E786F22EC8F
:100F3000EBF0D00E0001936FC90EE82EFED7932F71
:100F4000FCD700D0E90E0001776FFB0E786F22EC22
:100F5000EBF0D00E0001936FC90EE82EFED7932F51
:100F6000FCD700D007C0CDF008C0CEF0CDC07CF0DB
:100F7000CEC07DF0000E00017F6F640E7E6F60ECCE
:100F8000E8F000017C51300F0101516F000E0001AB
:100F9000796F640E786FCDC076F0CEC077F072ECCA
:100FA000E9F076C07CF077C07DF0000E00017F6F25
:100FB0000A0E7E6F60ECE8F000017C51300F0101F9
:100FC000526FCDC076F0CEC077F0000E0001796F81
:100FD0000A0E786F72ECE9F000017651300F0101D2
:100FE000536F510E0001776F010E786F030E796F0A
:100FF00056ECEDF0D00E0001936FC90EE82EFED72F
:10100000932FFCD700D0A50E0001776FFF0E786FED
:1010100022ECEBF04EEF86F000019251936F946B4F
:101020009451000AD8B417EF88F03AEF88F0935142
:10103000010AD8B43BEF80F0030AD8B452EF80F035
:10104000010AD8B45CEF80F0070AD8B466EF80F0EC
:10105000010AD8B470EF80F0030AD8B456EF81F0DB
:10106000010AD8B4FDEF81F00F0AD8B459EF86F029
:101070003AEF88F0000E146E000E1B6E090E000190
:10108000946F1E0E936FE40EE82EFED7932FFCD7BD
:10109000942FFAD700F0290E0001946F960E936FEB
:1010A0007F0EE82EFED7932FFCD7942FFAD790C14E
:1010B00082F091C183F0000E4EECEBF0140E0001B3
:1010C000826F010E99ECEAF0000EBBECF0F012001A
:1010D0000001D651D8B46FEF88F071EF88F0CFEFF0
:1010E0008DF0CF51D011D8A478EF88F07AEF88F046
:1010F000CFEF8DF01350D8A480EF88F082EF88F006
:10110000CFEF8DF01050D8A488EF88F08AEF88F0E8
:10111000CFEF8DF01150D8A490EF88F092EF88F0C7
:10112000CFEF8DF0D751D8A498EF88F09AEF88F0E0
:10113000CFEF8DF0000EC86FC5EF8DF0C8512D0DAB
:10114000FB0EF324D96E040EF420DA6EDE04D8A46C
:10115000ACEF88F0AEEF88F09DEF8AF0C8512D0D0E
:10116000FD0EF324D96E040EF420DA6EDF50D8B4ED
:10117000BCEF88F0BEEF88F09DEF8AF0C8512D0DCE
:10118000F80EF324D96E040EF420DA6EDE04D8A42F
:10119000CCEF88F0CEEF88F09DEF8AF0520E04017C
:1011A000C96F2B0EC86F000EE82EFED7C82FFCD7D4
:1011B000C92FFAD700F0908498C182F099C183F0CA
:1011C000040E4EECEBF0040E0001826F010E99EC60
:1011D000EAF0040EBBECF0F0000E0101336F000EDC
:1011E000326F000E316F000E306F000E2F6F000E49
:1011F0002E6F000E2D6F000E2C6F000E236F000E51
:10120000226F000E216F000E206F000E1F6F000E68
:101210001E6F000E1D6F000E1C6F000E236E000E61
:10122000226E000E216E000E206E0001C8512D0DA1
:10123000DC0EF324D96E040EF420DA6EDECF3AF120
:10124000DDCF3BF1C8512D0DDE0EF324D96E040E17
:10125000F420DA6EDECF38F1DDCF39F1C8512D0D33
:10126000E00EF324D96E040EF420DA6EDECF36F1F0
:10127000DDCF37F1C8512D0DE20EF324D96E040EE7
:10128000F420DA6EDECF34F1DDCF35F1C8512D0D0B
:10129000E40EF324D96E040EF420DA6EDECF2AF1C8
:1012A000DDCF2BF1C8512D0DE60EF324D96E040EBF
:1012B000F420DA6EDECF28F1DDCF29F1C8512D0DF3
:1012C000E80EF324D96E040EF420DA6EDECF26F198
:1012D000DDCF27F1C8512D0DEA0EF324D96E040E8F
:1012E000F420DA6EDECF24F1DDCF25F1C8512D0DCB
:1012F000EC0EF324D96E040EF420DA6EDF50276E64
:10130000C8512D0DED0EF324D96E040EF420DA6EC3
:10131000DF50266EC8512D0DEE0EF324D96E040E4B
:10132000F420DA6EDF50256EC8512D0DEF0EF32438
:10133000D96E040EF420DA6EDF50246E01013A51AA
:101340003B11D8B4A6EF89F0A8EF89F0ABEF89F094
:101350008E86324B332B38513911D8B4B2EF89F025
:10136000B4EF89F0B7EF89F08E88304B312B3651CE
:101370003711D8B4BEEF89F0C0EF89F0C3EF89F020
:101380008E8A2E4B2F2B34513511D8B4CAEF89F0E9
:10139000CCEF89F0CFEF89F08E8C2C4B2D2B0001F8
:1013A000C8512D0DF80EF324D96E040EF420DA6E18
:1013B000020EDF6EC8512D0DFE0EF324D96E040E01
:1013C000F420DA6EDF50D8B4E8EF89F0EAEF89F064
:1013D00000EF8AF0C8512D0DFE0EF324D96E040ED5
:1013E000F420DA6E000EDF6EC5ECDFF079C03CF160
:1013F0007AC03DF13CC1CFF03DC1D0F00CEF8AF096
:10140000C8512D0DDA0EF324D96E040EF420DA6ED5
:10141000DECFCFF0DDCFD0F0090E0401C96F1E0E74
:10142000C86FE40EE82EFED7C82FFCD7C92FFAD715
:1014300000F00001C851020D3D0EF324F66EEC0ED3
:10144000F420F76EF86A000EF8220900F5CF79F063
:101450000A00F5CF7AF0C8512D0DD20EF3247B6F20
:10146000040EF4207C6FC9ECE1F0090E0401C96F91
:101470001E0EC86FE40EE82EFED7C82FFCD7C92F6A
:10148000FAD700F084ECE5F0090E0401C96F1E0ED6
:10149000C86FE40EE82EFED7C82FFCD7C92FFAD7A5
:1014A00000F0020EB8ECEFF0030EB8ECEFF0040E13
:1014B000B8ECEFF01A0E00018D6FFA0E8E6F020E6F
:1014C0008F6F58ECDFF0070E00018D6FFE0E8E6FF0
:1014D000030E8F6F58ECDFF0110E0001826F030EC8
:1014E00099ECEAF0510E0301E86F010EE96FF60E78
:1014F000EA6FFF0EEB6F010E0001C8250301EC6FD0
:10150000ED6B000EED23A3ECEBF0510E0001826FAA
:10151000010E836F020E846F50ECEEF0400E00015E
:101520008E6FF70E8F6F6B0E906F010E916F020E24
:10153000926F00EC80F0E4EF8FF0C8512D0DFB0EA0
:10154000F324D96E040EF420DA6EDE04D8A4ABEFD7
:101550008AF0ADEF8AF0B3EF8CF0C8512D0DFD0E7F
:10156000F324D96E040EF420DA6EDF50D8B4BBEF4A
:101570008AF0BDEF8AF0B3EF8CF0C8512D0DF80E54
:10158000F324D96E040EF420DA6E020EDE18D8A40D
:10159000CCEF8AF0CEEF8AF0B3EF8CF0520E04015C
:1015A000C96F2B0EC86F000EE82EFED7C82FFCD7D0
:1015B000C92FFAD700F0909490C182F091C183F0C6
:1015C000000E4EECEBF0040E0001826F010E99EC60
:1015D000EAF0000EBBECF0F08E968E988E9A8E9C00
:1015E0000001C8512D0DF80EF324D96E040EF4201D
:1015F000DA6E030EDF6EC8512D0DF60EF324D96E90
:10160000040EF420DA6EDF06C8512D0DF60EF32419
:10161000D96E040EF420DA6EDF50D8A412EF8BF0EE
:1016200014EF8BF01EEF8BF0C8512D0DFD0EF3243F
:10163000D96E040EF420DA6E000EDF6E090E04017E
:10164000C96F1E0EC86FE40EE82EFED7C82FFCD758
:10165000C92FFAD700F00001C851020D3D0EF32446
:10166000F66EEC0EF420F76EF86A000EF822090010
:10167000F5CF79F00A00F5CF7AF0C8512D0DD20ED2
:10168000F3247B6F040EF4207C6F2DECABF0090E7D
:101690000401C96F1E0EC86FE40EE82EFED7C82FD6
:1016A000FCD7C92FFAD700F00001C8512D0DD60E76
:1016B000F324D96E040EF420DA6EDECFC8F4DDCF49
:1016C000C9F4C8512D0DDA0EF324D96E040EF4209E
:1016D000DA6EDECFCAF4DDCFCBF4C8512D0DD80EB3
:1016E000F324D96E040EF420DA6EDECFCCF4DDCF15
:1016F000CDF40401CC1FCD1FCC4BCD2BCA51CC5FF8
:10170000CB51CD5BC851CC250001CF6F0401C9512D
:10171000CD210001D06F090E0401C96F1E0EC86FE4
:10172000E40EE82EFED7C82FFCD7C92FFAD700F059
:1017300084ECE5F0090E0401C96F1E0EC86FE40EBB
:10174000E82EFED7C82FFCD7C92FFAD700F0010129
:101750003F51D8B4AEEF8BF0B0EF8BF007EF8CF0C9
:10176000000E3F6F020EB8ECEFF0030EB8ECEFF096
:10177000040EB8ECEFF0F20E00018D6FF90E8E6FD3
:10178000020E8F6F58ECDFF0360E00018D6FF90EF0
:101790008E6F030E8F6F58ECDFF0070E00018D6F18
:1017A000FE0E8E6F040E8F6F58ECDFF0110E0001ED
:1017B000826F040E99ECEAF0510E0301E86F010EFE
:1017C000E96FF60EEA6FFF0EEB6F010E0001C82500
:1017D0000301EC6FED6B000EED23A3ECEBF0510E6B
:1017E0000001826F010E836F020E846F50ECEEF0E9
:1017F000270E00018E6FF40E8F6F6B0E906F010E2F
:10180000916F020E926F00EC80F0E4EF8FF0000118
:10181000D851D8B40EEF8CF010EF8CF067EF8CF04D
:10182000000ED86F020EB8ECEFF0030EB8ECEFF03C
:10183000040EB8ECEFF0F20E00018D6FF90E8E6F12
:10184000020E8F6F58ECDFF02E0E00018D6FFA0E36
:101850008E6F030E8F6F58ECDFF0070E00018D6F57
:10186000FE0E8E6F040E8F6F58ECDFF0110E00012C
:10187000826F040E99ECEAF0510E0301E86F010E3D
:10188000E96FF60EEA6FFF0EEB6F010E0001C8253F
:101890000301EC6FED6B000EED23A3ECEBF0510EAA
:1018A0000001826F010E836F020E846F50ECEEF028
:1018B000230E00018E6FF30E8F6F6B0E906F010E73
:1018C000916F020E926F00EC80F0E4EF8FF0020E49
:1018D000B8ECEFF0030EB8ECEFF0040EB8ECEFF05C
:1018E000F20E00018D6FF90E8E6F020E8F6F58ECA5
:1018F000DFF0070E00018D6FFE0E8E6F030E8F6FEF
:1019000058ECDFF0110E0001826F030E99ECEAF043
:10191000510E0301E86F010EE96FF60EEA6FFF0E3C
:10192000EB6F010E0001C8250301EC6FED6B000E9B
:10193000ED23A3ECEBF0510E0001826F010E836FDB
:10194000020E846F50ECEEF01E0E00018E6FF70E4B
:101950008F6F6B0E906F010E916F020E926F00EC05
:1019600080F0E4EF8FF0C8512D0DFB0EF324D96EFB
:10197000040EF420DA6EDE04D8A4C1EF8CF0C3EFBD
:101980008CF0C4EF8DF0C8512D0DFB0EF324D96EF1
:10199000040EF420DA6E000EDF6EC8512D0DF90E24
:1019A000F324D96E040EF420DA6EC8512D0DFA0E10
:1019B000F324E16E040EF420E26EDE50E618D8A4A3
:1019C000E4EF8CF0E6EF8CF0F2EF8CF0C8512D0DC7
:1019D000FA0EF324D96E040EF420DA6E010EDF6ED7
:1019E000FBEF8CF0C8512D0DFA0EF324D96E040EC6
:1019F000F420DA6EDF2A000ED66F010E126EC829AF
:101A00001A6E090E0401C96F1E0EC86FE40EE82E8F
:101A1000FED7C82FFCD7C92FFAD700F00001C85154
:101A2000A5ECE9F0090E0401C96F1E0EC86FE40EA3
:101A3000E82EFED7C82FFCD7C92FFAD700F0000137
:101A4000C851020D3D0EF324F66EEC0EF420F76E35
:101A5000F86A000EF8220900F5CF79F00A00F5CFF8
:101A60007AF0C8512D0DD20EF3247B6F040EF420B2
:101A70007C6FCDECEBF0090E0401C96F1E0EC86F30
:101A8000E40EE82EFED7C82FFCD7C92FFAD700F0F6
:101A90000001C851020D3D0EF324F66EEC0EF42049
:101AA000F76EF86A000EF8220900F5CF79F00A0007
:101AB000F5CF7AF0C8512D0DD20EF3247B6F040EB2
:101AC000F4207C6FF7ECEBF0090E0401C96F1E0ED9
:101AD000C86FE40EE82EFED7C82FFCD7C92FFAD75F
:101AE00000F00001C8512D0DFD0EF324D96E040E37
:101AF000F420DA6EDF50D8B480EF8DF082EF8DF0F5
:101B0000E4EF8FF0C8512D0DF80EF324D96E040EBA
:101B1000F420DA6E000EDF6E090E0401C96F1E0E8E
:101B2000C86FE40EE82EFED7C82FFCD7C92FFAD70E
:101B300000F00001C851020D3D0EF324F66EEC0ECC
:101B4000F420F76EF86A000EF8220900F5CF79F05C
:101B50000A00F5CF7AF0C8512D0DD20EF3247B6F19
:101B6000040EF4207C6FC9ECE1F0090E0401C96F8A
:101B70001E0EC86FE40EE82EFED7C82FFCD7C92F63
:101B8000FAD700F0E4EF8FF0C82B0F0EC865CBEF4B
:101B90008DF0CDEF8DF09EEF88F0E4EF8FF01150D7
:101BA000D8B4D5EF8DF0D7EF8DF0E4EF8FF0000EC5
:101BB000116E000EC86FDCEF8FF0C8512D0DFB0EBB
:101BC000F324D96E040EF420DA6EDE04D8A4EBEF11
:101BD0008DF0EDEF8DF0DBEF8FF0C8512D0DFC0E89
:101BE000F324D96E040EF420DA6EDF50D8A4FBEF94
:101BF0008DF0FDEF8DF0FAEF8EF0C8512D0DFB0E3C
:101C0000F324D96E040EF420DA6E000EDF6EC85194
:101C10002D0DF90EF324D96E040EF420DA6EC8519E
:101C20002D0DFA0EF324E16E040EF420E26EDE5068
:101C3000E618D8A41EEF8EF020EF8EF02CEF8EF079
:101C4000C8512D0DFA0EF324D96E040EF420DA6E6D
:101C5000010EDF6E35EF8EF0C8512D0DFA0EF32414
:101C6000D96E040EF420DA6EDF2AC8512D0DF80E5D
:101C7000F324D96E040EF420DA6E020EDE18D8A416
:101C800044EF8EF046EF8EF08EEF8EF0909490C180
:101C900082F091C183F0000E4EECEBF0040E0001D7
:101CA000826F010E99ECEAF0000EBBECF0F08E961C
:101CB0008E988E9A8E9C0001C8512D0DF80EF3243B
:101CC000D96E040EF420DA6E000EDF6EC851020DDC
:101CD0003D0EF324F66EEC0EF420F76EF86A000E5B
:101CE000F8220900F5CF79F00A00F5CF7AF0C85153
:101CF0002D0DD20EF3247B6F040EF4207C6FC9EC03
:101D0000E1F0090E0401C96F1E0EC86FE40EE82E43
:101D1000FED7C82FFCD7C92FFAD700F0000E00015C
:101D2000D66F010E126EC8291A6E090E0401C96F12
:101D30001E0EC86FE40EE82EFED7C82FFCD7C92FA1
:101D4000FAD700F00001C851A5ECE9F0090E040132
:101D5000C96F1E0EC86FE40EE82EFED7C82FFCD741
:101D6000C92FFAD700F00001C851020D3D0EF3242F
:101D7000F66EEC0EF420F76EF86A000EF8220900F9
:101D8000F5CF79F00A00F5CF7AF0C8512D0DD20EBB
:101D9000F3247B6F040EF4207C6FCDECEBF0090E86
:101DA0000401C96F1E0EC86FE40EE82EFED7C82FBF
:101DB000FCD7C92FFAD700F00001C851020D3D0E23
:101DC000F324F66EEC0EF420F76EF86A000EF8229B
:101DD0000900F5CF79F00A00F5CF7AF0C8512D0D42
:101DE000D20EF3247B6F040EF4207C6FF7ECEBF043
:101DF000B5EF8DF0C8512D0DF80EF324D96E040EF9
:101E0000F420DA6EDE04D8A408EF8FF00AEF8FF02A
:101E10003DEF8FF030ECE0F079C0CFF07AC0D0F039
:101E20000001C8512D0DD80EF324D96E040EF420F4
:101E3000DA6EDECFC8F4DDCFC9F4C8512D0DD60E51
:101E4000F324D96E040EF420DA6EDECFCAF4DDCFAF
:101E5000CBF40401C851CA5FC951CB5B0001CF511B
:101E60000401CA250001CF6FD0510401CB2100012C
:101E7000D06F84ECE5F0B5EF8DF0C8512D0DF80E64
:101E8000F324D96E040EF420DA6E020EDE18D8A404
:101E90004CEF8FF04EEF8FF0DBEF8FF0909490C10E
:101EA00082F091C183F0000E4EECEBF0040E0001C5
:101EB000826F010E99ECEAF0000EBBECF0F08E960A
:101EC0008E988E9A8E9C0001C8512D0DF80EF32429
:101ED000D96E040EF420DA6E000EDF6EC851020DCA
:101EE0003D0EF324F66EEC0EF420F76EF86A000E49
:101EF000F8220900F5CF79F00A00F5CF7AF0C85141
:101F00002D0DD20EF3247B6F040EF4207C6FC9ECF0
:101F1000E1F0090E0401C96F1E0EC86FE40EE82E31
:101F2000FED7C82FFCD7C92FFAD700F030ECE0F06D
:101F300079C0CFF07AC0D0F00001C8512D0DD60E77
:101F4000F324D96E040EF420DA6EDECFC8F4DDCFB0
:101F5000C9F4C8512D0DDA0EF324D96E040EF42005
:101F6000DA6EDECFCAF4DDCFCBF4C8512D0DD80E1A
:101F7000F324D96E040EF420DA6EDECFCCF4DDCF7C
:101F8000CDF40401CC1FCD1FCC4BCD2BCA51CC5F5F
:101F9000CB51CD5BC851CC27C951CD230001CF51C6
:101FA0000401CC250001CF6FD0510401CD210001E7
:101FB000D06F39EF8FF0C82B0F0EC865E2EF8FF0AE
:101FC000E4EF8FF0DDEF8DF01200CFECCAF047ECBC
:101FD000BAF0D3ECDAF00401CF6F030ECF19D8B406
:101FE000F4EF8FF0F6EF8FF048EF90F096ECEFF013
:101FF0008A0E00018D6FF90E8E6F020E8F6F58ECF6
:10200000DFF0000E0401CE6F510E0301E86F010EE8
:10201000E96FD60EEA6FFF0EEB6F010E0401CE25BD
:102020000001766F776B000E7723000E796F0A0E32
:10203000786F23ECEFF076C0ECF377C0EDF3000E91
:102040000301EF6F250EEE6FA3ECEBF0510E0001D4
:102050008D6F010E8E6F030E8F6F58ECDFF0A30EA5
:102060000401CD6F570ECC6F020EE82EFED7CC2F99
:10207000FCD7CD2FFAD700F00401CE2B090ECE6588
:1020800044EF90F046EF90F004EF90F055EF90F0B1
:10209000030ECF19D8A44FEF90F051EF90F055EF09
:1020A00090F0EAECECF070ECA7F027ECB2F00AEC60
:1020B000D7F0520E0401CD6F2B0ECC6F000EE82E20
:1020C000FED7CC2FFCD7CD2FFAD700F05CECD5F0A3
:1020D0000C50D8B46EEF90F070EF90F08AEF90F063
:1020E000520E0401CD6F2B0ECC6F000EE82EFED7E2
:1020F000CC2FFCD7CD2FFAD700F0520E0401CD6FB4
:102100002B0ECC6F000EE82EFED7CC2FFCD7CD2F98
:10211000FAD700F09CECECF07AECE4F0E2C076F058
:102120000001776B000E796F0A0E786FBBECE3F05D
:1021300000017651300F0101516FE2C088F00001BB
:10214000896B000E8B6F0A0E8A6FD6ECE4F00001EB
:102150008851300F0101526F2F0E536FE3C076F09C
:102160000001776B000E796F0A0E786FBBECE3F01D
:1021700000017651300F0101546FE3C088F0000177
:10218000896B000E8B6F0A0E8A6FD6ECE4F00001AB
:102190008851300F0101556F2F0E566FE4C076F055
:1021A0000001776B000E796F0A0E786FBBECE3F0DD
:1021B00000017651300F0101576FE4C088F0000133
:1021C000896B000E8B6F0A0E8A6FD6ECE4F000016B
:1021D0008851300F0101586F200E596FE1C076F021
:1021E0000001776B000E796F0A0E786FBBECE3F09D
:1021F00000017651300F01015A6FE1C088F00001F3
:10220000896B000E8B6F0A0E8A6FD6ECE4F000012A
:102210008851300F01015B6F3A0E5C6FE0C076F0C1
:102220000001776B000E796F0A0E786FBBECE3F05C
:1022300000017651300F01015D6FE0C088F00001B0
:10224000896B000E8B6F0A0E8A6FD6ECE4F00001EA
:102250008851300F01015E6F3A0E5F6FDFC076F07C
:102260000001776B000E796F0A0E786FBBECE3F01C
:1022700000017651300F0101606FDFC088F000016E
:10228000896B000E8B6F0A0E8A6FD6ECE4F00001AA
:102290008851300F0101616F000E1B6E050E0001A9
:1022A0008E6FF80E8F6F6B0E906F010E916F030E95
:1022B000926F00EC80F0000E0001E86F300E01011B
:1022C000516F0001E851310F0101526F140E0001EE
:1022D0008E6FF80E8F6F6B0E906F010E916F070E61
:1022E000926F00EC80F0010E0001E86F300E0101EA
:1022F000516F0001E851310F0101526F140E0001BE
:102300008E6FF80E8F6F6B0E906F010E916F070E30
:10231000926F00EC80F0D7EF91F0020EB8ECEFF086
:10232000030EB8ECEFF0040EB8ECEFF0CE0E0001A7
:102330008D6FFC0E8E6F020E8F6F58ECDFF0360E35
:1023400000018D6FFC0E8E6F030E8F6F58ECDFF067
:10235000F40E0401CD6F820ECC6F050EE82EFED771
:10236000CC2FFCD7CD2FFAD7850E0001766F010E4A
:10237000776F7E0E786F010E796F000E7B6F060E01
:102380007A6F9CECE7F0FF0E0001D06FDC0ECF6F90
:102390002CECC5F00001D951D8B4D1EF91F0D3EFB6
:1023A00091F0D7EF91F0000ED96F9CECECF00001AA
:1023B000DA51D8B4DEEF91F0E0EF91F08DEF91F0CB
:1023C000DA51D8B4E6EF91F0E8EF91F0F2EF95F042
:1023D0003FECE9F00009D8B4F0EF91F0F2EF91F0A2
:1023E0002DEF92F0FF0E0001D06FDC0ECF6F020ECA
:1023F000B8ECEFF0030EB8ECEFF0040EB8ECEFF031
:10240000A10E00018D6FF80E8E6F020E8F6F58ECCB
:10241000DFF03F0E00018D6FFE0E8E6F030E8F6F8B
:1024200058ECDFF0B70E00018D6FF80E8E6F040EC2
:102430008F6F58ECDFF0EB0E00018E6FF30E8F6F95
:102440006B0E906F010E916F000E926F00EC80F09A
:10245000010E0101446FF2EF95F0000E1A6E000EAE
:102460000001E86F8FEF93F0E8512D0DFB0EF32480
:10247000D96E040EF420DA6EDE04D8A442EF92F096
:1024800044EF92F08EEF93F0E8C01AF07AECE4F0AB
:102490000001E8512D0DF50EF324D96E040EF42041
:1024A000DA6EE451DE5CD8A058EF92F05AEF92F069
:1024B000F3EF92F0E8512D0DF40EF324D96E040ED3
:1024C000F420DA6EE351DE5CD8B069EF92F06BEF86
:1024D00092F07CEF92F0E8512D0DF50EF324D96EB9
:1024E000040EF420DA6EE451DE18D8B47AEF92F0DC
:1024F0007CEF92F0F3EF92F0E8512D0DF30EF32400
:10250000D96E040EF420DA6EE251DE5CD8B08BEFA7
:1025100092F08DEF92F0AFEF92F0E8512D0DF40EA6
:10252000F324D96E040EF420DA6EE351DE18D8A439
:102530009CEF92F09EEF92F0AFEF92F0E8512D0DEC
:10254000F50EF324D96E040EF420DA6EE451DE1891
:10255000D8B4ADEF92F0AFEF92F0F3EF92F0E85114
:102560002D0DF10EF324D96E040EF420DA6EE15134
:10257000DE5CD8B0BEEF92F0C0EF92F08AEF93F03D
:10258000E8512D0DF30EF324D96E040EF420DA6E0B
:10259000E251DE18D8A4CFEF92F0D1EF92F08AEF9B
:1025A00093F0E8512D0DF40EF324D96E040EF420AF
:1025B000DA6EE351DE18D8A4E0EF92F0E2EF92F089
:1025C0008AEF93F0E8512D0DF50EF324D96E040E29
:1025D000F420DA6EE451DE18D8A4F1EF92F0F3EFB4
:1025E00092F08AEF93F0000ED66FE8512D0DFB0E9E
:1025F000F324D96E040EF420DA6E000EDF6EE8517B
:102600002D0DF90EF324D96E040EF420DA6EE85184
:102610002D0DFA0EF324E16E040EF420E26EDFCFEE
:10262000E7FFE8512D0DFD0EF324D96E040EF420C2
:10263000DA6EDF50D8B41FEF93F021EF93F07BEF09
:1026400093F0E8512D0DF80EF324D96E040EF4200A
:10265000DA6E020EDE18D8A430EF93F032EF93F06A
:1026600050EF93F0E8512D0DF80EF324D96E040EBF
:10267000F420DA6E000EDF6EE8512D0DFE0EF3240D
:10268000D96E040EF420DA6E010EDF6E30ECE0F04D
:1026900079C03CF17AC03DF12FECE5F07BEF93F08F
:1026A000E8512D0DF80EF324D96E040EF420DA6EE5
:1026B000030EDE18D8B45FEF93F061EF93F071EF83
:1026C00093F0E8512D0DF80EF324D96E040EF4208A
:1026D000DA6EDE04D8A46FEF93F071EF93F07BEF26
:1026E00093F0E8512D0DF80EF324D96E040EF4206A
:1026F000DA6E000EDF6E090E0401CD6F1E0ECC6F78
:10270000E40EE82EFED7CC2FFCD7CD2FFAD700F061
:1027100097EF93F0010ED66F97EF93F0E82B0F0E23
:10272000E86595EF93F097EF93F034EF92F00001A6
:10273000D651D8B49EEF93F0A0EF93F0CCEF95F084
:10274000010E0101476F510E0301E86F010EE96FA1
:10275000F60EEA6FFF0EEB6F010E0001E825030194
:10276000EC6FED6B000EED23A3ECEBF044EF95F076
:10277000020EB8ECEFF0030EB8ECEFF0040EB8EC7C
:10278000EFF09F0E00018D6FF90E8E6F020E8F6FAE
:1027900058ECDFF0710E00018D6FFD0E8E6F030E91
:1027A0008F6F58ECDFF0070E00018D6FFE0E8E6FFD
:1027B000040E8F6F58ECDFF0110E0001826F040ED3
:1027C00099ECEAF0510E0001826F010E836F020E48
:1027D000846F50ECEEF0A90E00018E6FF10E8F6F3A
:1027E0006B0E906F010E916F020E926F00EC80F0F5
:1027F0006AEF95F0020EB8ECEFF0030EB8ECEFF0D4
:10280000040EB8ECEFF09F0E00018D6FF90E8E6F85
:10281000020E8F6F58ECDFF00F0E00018D6FFF0E70
:102820008E6F030E8F6F58ECDFF0070E00018D6F77
:10283000FE0E8E6F040E8F6F58ECDFF0110E00014C
:10284000826F040E99ECEAF0510E0001826F010EC6
:10285000836F020E846F50ECEEF0440E00018E6F19
:10286000F20E8F6F6B0E906F010E916F020E926FD2
:1028700000EC80F06AEF95F0020EB8ECEFF0030E7A
:10288000B8ECEFF0040EB8ECEFF09F0E00018D6F86
:10289000F90E8E6F020E8F6F58ECDFF0410E0001C3
:1028A0008D6FFD0E8E6F030E8F6F58ECDFF0070EED
:1028B00000018D6FFE0E8E6F040E8F6F58ECDFF0EF
:1028C000110E0001826F040E99ECEAF0510E000126
:1028D000826F010E836F020E846F50ECEEF0F70EE4
:1028E00000018E6FF10E8F6F6B0E906F010E916F66
:1028F000020E926F00EC80F06AEF95F0020EB8ECD9
:10290000EFF0030EB8ECEFF0040EB8ECEFF09F0E12
:1029100000018D6FF90E8E6F020E8F6F58ECDFF095
:10292000610E00018D6FFD0E8E6F030E8F6F58ECE0
:10293000DFF0070E00018D6FFE0E8E6F040E8F6F9D
:1029400058ECDFF0110E0001826F040E99ECEAF0F2
:10295000510E0001826F010E836F020E846F50ECE6
:10296000EEF0570E00018E6FF10E8F6F6B0E906FB1
:10297000010E916F020E926F00EC80F06AEF95F0FD
:10298000020EB8ECEFF0030EB8ECEFF0040EB8EC6A
:10299000EFF09F0E00018D6FF90E8E6F020E8F6F9C
:1029A00058ECDFF0BD0E00018D6FFD0E8E6F030E33
:1029B0008F6F58ECDFF0070E00018D6FFE0E8E6FEB
:1029C000040E8F6F58ECDFF0110E0001826F040EC1
:1029D00099ECEAF0510E0001826F010E836F020E36
:1029E000846F50ECEEF0D90E00018E6FF20E8F6FF7
:1029F0006B0E906F010E916F020E926F00EC80F0E3
:102A00006AEF95F0020EB8ECEFF0030EB8ECEFF0C1
:102A1000040EB8ECEFF09F0E00018D6FF90E8E6F73
:102A2000020E8F6F58ECDFF0A20E00018D6FFE0ECC
:102A30008E6F030E8F6F58ECDFF0070E00018D6F65
:102A4000FE0E8E6F040E8F6F58ECDFF0110E00013A
:102A5000826F040E99ECEAF0510E0001826F010EB4
:102A6000836F020E846F50ECEEF08F0E00018E6FBC
:102A7000F20E8F6F6B0E906F010E916F020E926FC0
:102A800000EC80F06AEF95F00401CF51CC6FCD6B74
:102A9000CD51000AD8B44FEF95F06AEF95F0CC51C4
:102AA000010AD8B4B8EF93F0030AD8B4FAEF93F060
:102AB000010AD8B43CEF94F0070AD8B47EEF94F042
:102AC000010AD8B4C0EF94F0030AD8B402EF95F02D
:102AD0006AEF95F030ECE0F079C0CFF07AC0D0F03A
:102AE000F2EF95F0D50E00018E6FF60E8F6F6B0E24
:102AF000906F010E916F000E926F00EC80F0F2EF7C
:102B000095F0E60E00018E6FF70E8F6F6B0E906FD3
:102B1000010E916F000E926F00EC80F0F2EF95F0D5
:102B2000FA0E00018E6FF60E8F6F6B0E906F010E16
:102B3000916F000E926F00EC80F0F2EF95F0AC0E0A
:102B400000018E6FF60E8F6F6B0E906F010E916FFE
:102B5000000E926F00EC80F0F2EF95F0830E000112
:102B60008E6FF70E8F6F6B0E906F010E916F000ED0
:102B7000926F00EC80F0F2EF95F0620E00018E6F24
:102B8000F70E8F6F6B0E906F010E916F000E926FAC
:102B900000EC80F0F2EF95F00401CF51CC6FCD6BDB
:102BA000CD51000AD8B4D7EF95F0F2EF95F0CC51A3
:102BB000010AD8B472EF95F0030AD8B481EF95F00A
:102BC000010AD8B490EF95F0070AD8B49FEF95F0BA
:102BD000010AD8B4AEEF95F0030AD8B4BDEF95F072
:102BE000F2EF95F07CECDEF00009D8B4FAEF95F046
:102BF000FCEF95F04CEF96F0020EB8ECEFF0030E00
:102C0000B8ECEFF0040EB8ECEFF0C40E00018D6FDD
:102C1000FB0E8E6F020E8F6F58ECDFF0920E0001EC
:102C20008D6FFA0E8E6F030E8F6F58ECDFF0EA0E89
:102C300000018E6FF50E8F6F6B0E906F010E916F0E
:102C4000000E926F00EC80F00C50D8B42AEF96F092
:102C50002CEF96F0FCEF96F088ECD3F0520E0401C6
:102C6000CD6F2B0ECC6F000EE82EFED7CC2FFCD7ED
:102C7000CD2FFAD700F0D7ECE5F0520E0401CD6F5E
:102C80002B0ECC6F000EE82EFED7CC2FFCD7CD2F0D
:102C9000FAD700F0FCEF96F00F50D8B452EF96F050
:102CA00054EF96F0FCEF96F0000E0F6E090E040143
:102CB000CD6F1E0ECC6FE40EE82EFED7CC2FFCD7C6
:102CC000CD2FFAD700F039ECEAF0090E0401CD6FF0
:102CD0001E0ECC6FE40EE82EFED7CC2FFCD7CD2FE6
:102CE000FAD700F00C50D8B478EF96F07AEF96F05F
:102CF000CBEF96F088ECD3F0520E0401CD6F2B0E83
:102D0000CC6F000EE82EFED7CC2FFCD7CD2FFAD7F4
:102D100000F0D7ECE5F0520E0401CD6F2B0ECC6F16
:102D2000000EE82EFED7CC2FFCD7CD2FFAD700F01F
:102D3000020EB8ECEFF0030EB8ECEFF0040EB8ECB6
:102D4000EFF0210E00018D6FF90E8E6F020E8F6F66
:102D500058ECDFF0E00E00018D6FFA0E8E6F030E5F
:102D60008F6F58ECDFF0310E00018D6FFE0E8E6F0D
:102D7000040E8F6F58ECDFF04C0E00018E6FF50ED5
:102D80008F6F6B0E906F010E916F000E926F00ECC3
:102D900080F0FCEF96F0020EB8ECEFF0030EB8EC0A
:102DA000EFF0040EB8ECEFF0210E00018D6FF90E7C
:102DB0008E6F020E8F6F58ECDFF0B40E00018D6F36
:102DC000F90E8E6F030E8F6F58ECDFF0310E00019D
:102DD0008D6FFE0E8E6F040E8F6F58ECDFF0140EA9
:102DE00000018E6FF50E8F6F6B0E906F010E916F5D
:102DF000000E926F00EC80F01200050E00017E6F55
:102E00000F0E7D6FF10EE82EFED77D2FFCD77E2FA3
:102E1000FAD779C076F07AC077F05FECEFF0000176
:102E20007D6F7D51CD6FCE6B050E00017E6F0F0E55
:102E30007D6FF10EE82EFED77D2FFCD77E2FFAD7BF
:102E4000FF0E0001CD17000ECE17010E7925766F0B
:102E5000000E7A21776F5FECEFF000017D6F7D51FE
:102E6000CB6FCC6B050E00017E6F0F0E7D6FF10EE8
:102E7000E82EFED77D2FFCD77E2FFAD70001CB514D
:102E8000CC6FCB6B000ECB17FF0ECC17CB51CD11F7
:102E90007D6FCC51CE117E6F7BC0D9FF7CC0DAFF35
:102EA0007DC0DEFF7EC0DDFF020E7925766F000E4D
:102EB0007A21776F5FECEFF000017D6F7D51CD6F70
:102EC000CE6B050E00017E6F0F0E7D6FF10EE82EAA
:102ED000FED77D2FFCD77E2FFAD7FF0E0001CD172E
:102EE000000ECE17030E7925766F000E7A21776FCC
:102EF0005FECEFF000017D6F7D51CB6FCC6B050E69
:102F000000017E6F0F0E7D6FF10EE82EFED77D2F34
:102F1000FCD77E2FFAD70001CB51CC6FCB6B000EC4
:102F2000CB17FF0ECC17CB51CD117D6FCC51CE11ED
:102F30007E6F20EE02F07B51D9267C51DA227DC0D3
:102F4000DEFF7EC0DDFF040E7925766F000E7A214C
:102F5000776F5FECEFF000017D6F7D51CD6FCE6B31
:102F6000050E00017E6F0F0E7D6FF10EE82EFED76D
:102F70007D2FFCD77E2FFAD7FF0E0001CD17000E54
:102F8000CE17050E7925766F000E7A21776F5FECEC
:102F9000EFF000017D6F7D51CB6FCC6B050E000112
:102FA0007E6F0F0E7D6FF10EE82EFED77D2FFCD7C2
:102FB0007E2FFAD70001CB51CC6FCB6B000ECB1715
:102FC000FF0ECC17CB51CD117D6FCC51CE117E6F42
:102FD00020EE04F07B51D9267C51DA227DC0DEFF41
:102FE0007EC0DDFF050E00017E6F0F0E7D6FF10EBE
:102FF000E82EFED77D2FFCD77E2FFAD7060E0001D4
:103000007925766F000E7A21776F5FECEFF0000183
:103010007D6F7D51CD6FCE6B050E00017E6F0F0E63
:103020007D6FF10EE82EFED77D2FFCD77E2FFAD7CD
:10303000FF0E0001CD17000ECE17070E7925766F13
:10304000000E7A21776F5FECEFF000017D6F7D510C
:10305000CB6FCC6BCB51CC6FCB6B000ECB17FF0E75
:10306000CC17CB51CD117D6FCC51CE117E6F20EEA0
:1030700006F07B51D9267C51DA227DC0DEFF7EC06E
:10308000DDFF050E00017E6F0F0E7D6FF10EE82E45
:10309000FED77D2FFCD77E2FFAD7080E00017925A9
:1030A000766F000E7A21776F5FECEFF000017D6F95
:1030B0007D51CD6FCE6B050E00017E6F0F0E7D6FC3
:1030C000F10EE82EFED77D2FFCD77E2FFAD7FF0E0C
:1030D0000001CD17000ECE17090E7925766F000E70
:1030E0007A21776F5FECEFF000017D6F7D51CB6F40
:1030F000CC6BCB51CC6FCB6B000ECB17FF0ECC172C
:10310000CB51CD117D6FCC51CE117E6F20EE08F0EA
:103110007B51D9267C51DA227DC0DEFF7EC0DDFFE7
:10312000050E00017E6F0F0E7D6FF10EE82EFED7AB
:103130007D2FFCD77E2FFAD70A0E00017925766FF6
:10314000000E7A21776F5FECEFF000017D6F7D510B
:10315000CD6FCE6B050E00017E6F0F0E7D6FF10EF1
:10316000E82EFED77D2FFCD77E2FFAD7FF0E000169
:10317000CD17000ECE170B0E7925766F000E7A2133
:10318000776F5FECEFF000017D6F7D51CB6FCC6B03
:10319000CB51CC6FCB6B000ECB17FF0ECC17CB51A6
:1031A000CD117D6FCC51CE117E6F20EE0AF07B5198
:1031B000D9267C51DA227DC0DEFF7EC0DDFF050E00
:1031C00000017E6F0F0E7D6FF10EE82EFED77D2F72
:1031D000FCD77E2FFAD70C0E00017925766F000EF2
:1031E0007A21776F5FECEFF000017D6F7D51CD6F3D
:1031F000CE6B050E00017E6F0F0E7D6FF10EE82E77
:10320000FED77D2FFCD77E2FFAD7FF0E0001CD17FA
:10321000000ECE170D0E7925766F000E7A21776F8E
:103220005FECEFF000017D6F7D51CB6FCC6BCB512C
:10323000CC6FCB6B000ECB17FF0ECC17CB51CD1143
:103240007D6FCC51CE117E6F20EE0CF07B51D926D4
:103250007C51DA227DC0DEFF7EC0DDFF050E00015D
:103260007E6F0F0E7D6FF10EE82EFED77D2FFCD7FF
:103270007E2FFAD70E0E00017925766F000E7A2187
:10328000776F5FECEFF000017D6F7D51CD6FCE6BFE
:10329000050E00017E6F0F0E7D6FF10EE82EFED73A
:1032A0007D2FFCD77E2FFAD7FF0E0001CD17000E21
:1032B000CE170F0E7925766F000E7A21776F5FECAF
:1032C000EFF000017D6F7D51CB6FCC6BCB51CC6F9C
:1032D000CB6B000ECB17FF0ECC17CB51CD117D6FF2
:1032E000CC51CE117E6F20EE0EF07B51D9267C5151
:1032F000DA227DC0DEFF7EC0DDFF050E00017E6F9D
:103300000F0E7D6FF10EE82EFED77D2FFCD77E2F9E
:10331000FAD7100E00017925766F000E7A21776FAB
:103320005FECEFF000017D6F7D51CD6FCE6B050E30
:1033300000017E6F0F0E7D6FF10EE82EFED77D2F00
:10334000FCD77E2FFAD7FF0E0001CD17000ECE1747
:10335000110E7925766F000E7A21776F5FECEFF012
:1033600000017D6F7D51CB6FCC6BCB51CC6FCB6BA4
:10337000000ECB17FF0ECC17CB51CD117D6FCC516A
:10338000CE117E6F20EE10F07B51D9267C51DA22CF
:103390007DC0DEFF7EC0DDFF050E00017E6F0F0EDB
:1033A0007D6FF10EE82EFED77D2FFCD77E2FFAD74A
:1033B000120E00017925766F000E7A21776F5FEC8F
:1033C000EFF000017D6F7D51CD6FCE6B050E0001DA
:1033D0007E6F0F0E7D6FF10EE82EFED77D2FFCD78E
:1033E0007E2FFAD7FF0E0001CD17000ECE17130E59
:1033F0007925766F000E7A21776F5FECEFF0000190
:103400007D6F7D51CB6FCC6BCB51CC6FCB6B000EF6
:10341000CB17FF0ECC17CB51CD117D6FCC51CE11F8
:103420007E6F20EE12F07B51D9267C51DA227DC0CE
:10343000DEFF7EC0DDFF050E00017E6F0F0E7D6F8B
:10344000F10EE82EFED77D2FFCD77E2FFAD7140E73
:1034500000017925766F000E7A21776F5FECEFF02F
:1034600000017D6F7D51CD6FCE6B050E00017E6F2B
:103470000F0E7D6FF10EE82EFED77D2FFCD77E2F2D
:10348000FAD7FF0E0001CD17000ECE17150E7925C5
:10349000766F000E7A21776F5FECEFF000017D6FA1
:1034A0007D51CB6FCC6BCB51CC6FCB6B000ECB1760
:1034B000FF0ECC17CB51CD117D6FCC51CE117E6F4D
:1034C00020EE14F07B51D9267C51DA227DC0DEFF3C
:1034D0007EC0DDFF050E00017E6F0F0E7D6FF10EC9
:1034E000E82EFED77D2FFCD77E2FFAD7160E0001CF
:1034F0007925766F000E7A21776F5FECEFF000018F
:103500007D6F7D51CD6FCE6B050E00017E6F0F0E6E
:103510007D6FF10EE82EFED77D2FFCD77E2FFAD7D8
:10352000FF0E0001CD17000ECE17170E7925766F0E
:10353000000E7A21776F5FECEFF000017D6F7D5117
:10354000CB6FCC6BCB51CC6FCB6B000ECB17FF0E80
:10355000CC17CB51CD117D6FCC51CE117E6F20EEAB
:1035600016F07B51D9267C51DA227DC0DEFF7EC069
:10357000DDFF050E00017E6F0F0E7D6FF10EE82E50
:10358000FED77D2FFCD77E2FFAD7180E00017925A4
:10359000766F000E7A21776F5FECEFF000017D6FA0
:1035A0007D51CD6FCE6B050E00017E6F0F0E7D6FCE
:1035B000F10EE82EFED77D2FFCD77E2FFAD7FF0E17
:1035C0000001CD17000ECE17190E7925766F000E6B
:1035D0007A21776F5FECEFF000017D6F7D51CB6F4B
:1035E000CC6BCB51CC6FCB6B000ECB17FF0ECC1737
:1035F000CB51CD117D6FCC51CE117E6F20EE18F0E6
:103600007B51D9267C51DA227DC0DEFF7EC0DDFFF2
:10361000050E00017E6F0F0E7D6FF10EE82EFED7B6
:103620007D2FFCD77E2FFAD7000120EE1AF07B51B8
:10363000D9267C51DA221A0E7925766F000E7A216E
:10364000776F5FECEFF0DF6E050E00017E6F0F0EFF
:103650007D6FF10EE82EFED77D2FFCD77E2FFAD797
:10366000000120EE1BF07B51D9267C51DA221B0E83
:103670007925766F000E7A21776F5FECEFF0DF6EC1
:10368000050E00017E6F0F0E7D6FF10EE82EFED746
:103690007D2FFCD77E2FFAD7000120EE1CF07B5146
:1036A000D9267C51DA221C0E7925766F000E7A21FC
:1036B000776F5FECEFF0DF6E050E00017E6F0F0E8F
:1036C0007D6FF10EE82EFED77D2FFCD77E2FFAD727
:1036D000000120EE1DF07B51D9267C51DA221D0E0F
:1036E0007925766F000E7A21776F5FECEFF0DF6E51
:1036F000050E00017E6F0F0E7D6FF10EE82EFED7D6
:103700007D2FFCD77E2FFAD7000120EE1EF07B51D3
:10371000D9267C51DA221E0E7925766F000E7A2189
:10372000776F5FECEFF0DF6E050E00017E6F0F0E1E
:103730007D6FF10EE82EFED77D2FFCD77E2FFAD7B6
:10374000000120EE1FF07B51D9267C51DA221F0E9A
:103750007925766F000E7A21776F5FECEFF0DF6EE0
:10376000050E00017E6F0F0E7D6FF10EE82EFED765
:103770007D2FFCD77E2FFAD7000120EE20F07B5161
:10378000D9267C51DA22200E7925766F000E7A2117
:10379000776F5FECEFF0DF6E050E00017E6F0F0EAE
:1037A0007D6FF10EE82EFED77D2FFCD77E2FFAD746
:1037B000000120EE21F07B51D9267C51DA22210E26
:1037C0007925766F000E7A21776F5FECEFF0DF6E70
:1037D000050E00017E6F0F0E7D6FF10EE82EFED7F5
:1037E0007D2FFCD77E2FFAD7000120EE22F07B51EF
:1037F000D9267C51DA22220E7925766F000E7A21A5
:10380000776F5FECEFF0DF6E050E00017E6F0F0E3D
:103810007D6FF10EE82EFED77D2FFCD77E2FFAD7D5
:10382000000120EE23F07B51D9267C51DA22230EB1
:103830007925766F000E7A21776F5FECEFF0DF6EFF
:10384000050E00017E6F0F0E7D6FF10EE82EFED784
:103850007D2FFCD77E2FFAD7000120EE24F07B517C
:10386000D9267C51DA22240E7925766F000E7A2132
:10387000776F5FECEFF0DF6E050E00017E6F0F0ECD
:103880007D6FF10EE82EFED77D2FFCD77E2FFAD765
:10389000000120EE25F07B51D9267C51DA22250E3D
:1038A0007925766F000E7A21776F5FECEFF0DF6E8F
:1038B000050E00017E6F0F0E7D6FF10EE82EFED714
:1038C0007D2FFCD77E2FFAD7000120EE26F07B510A
:1038D000D9267C51DA22260E7925766F000E7A21C0
:1038E000776F5FECEFF0DF6E050E00017E6F0F0E5D
:1038F0007D6FF10EE82EFED77D2FFCD77E2FFAD7F5
:10390000000120EE27F07B51D9267C51DA22270EC8
:103910007925766F000E7A21776F5FECEFF0DF6E1E
:10392000050E00017E6F0F0E7D6FF10EE82EFED7A3
:103930007D2FFCD77E2FFAD7000120EE28F07B5197
:10394000D9267C51DA22280E7925766F000E7A214D
:10395000776F5FECEFF0DF6E050E00017E6F0F0EEC
:103960007D6FF10EE82EFED77D2FFCD77E2FFAD784
:10397000000120EE29F07B51D9267C51DA22290E54
:103980007925766F000E7A21776F5FECEFF00009F2
:10399000D8A4CDEF9CF0D0EF9CF0010ED1EF9CF0BD
:1039A000000EDF6E050E00017E6F0F0E7D6FF10EB3
:1039B000E82EFED77D2FFCD77E2FFAD7000120EE10
:1039C0002AF07B51D9267C51DA222A0E7925766F8E
:1039D000000E7A21776F5FECEFF00009D8A4F3EFC7
:1039E0009CF0F6EF9CF0010EF7EF9CF0000EDF6EFE
:1039F000050E00017E6F0F0E7D6FF10EE82EFED7D3
:103A00007D2FFCD77E2FFAD7000120EE2BF07B51C3
:103A1000D9267C51DA222B0E7925766F000E7A2179
:103A2000776F5FECEFF00009D8A419EF9DF01CEF61
:103A30009DF0010E1DEF9DF0000EDF6E050E0001E2
:103A40007E6F0F0E7D6FF10EE82EFED77D2FFCD717
:103A50007E2FFAD7000120EE2CF07B51D9267C5125
:103A6000DA222C0E7925766F000E7A21776F5FECC3
:103A7000EFF00009D8A43FEF9DF042EF9DF0010E5A
:103A800043EF9DF0000EDF6E050E00017E6F0F0EFE
:103A90007D6FF10EE82EFED77D2FFCD77E2FFAD753
:103AA0001200010E00019A6F6E0E996F010E9C6F4D
:103AB0006D0E9B6F000E9E6F000E9D6FFF0ED06F00
:103AC000DC0ECF6F000E01014A6F0B0E1A646BEF14
:103AD0009DF06DEF9DF06FEF9DF0000E1A6E1AC015
:103AE000E8F0E0EFA1F0E8512D0DFC0EF324D96EC3
:103AF000040EF420DA6EDF50D8B481EF9DF083EF2E
:103B00009DF0DEEFA1F0E8512D0DFB0EF324D96EF0
:103B1000040EF420DA6EDE04D8B491EF9DF093EF3A
:103B20009DF0DEEFA1F001014A51D8A49AEF9DF07B
:103B30009CEF9DF0C0EF9DF0090E0001956F1E0EE9
:103B4000946FE40EE82EFED7942FFCD7952FFAD76A
:103B500000F07AECE4F0090E0001956F1E0E946FF0
:103B6000E40EE82EFED7942FFCD7952FFAD700F05D
:103B7000010E01014A6FFF0E0001D06FDC0ECF6F06
:103B80000001E8512D0DF50EF324D96E040EF4203A
:103B9000DA6EE451DE5CD8A0D0EF9DF0D2EF9DF05C
:103BA000C0EF9EF0E8512D0DF40EF324D96E040EF3
:103BB000F420DA6EE351DE5CD8B0E1EF9DF0E3EF84
:103BC0009DF0F4EF9DF0E8512D0DF50EF324D96E24
:103BD000040EF420DA6EE451DE18D8B4F2EF9DF052
:103BE000F4EF9DF0C0EF9EF0E8512D0DF30EF3249D
:103BF000D96E040EF420DA6EE251DE5CD8B003EF29
:103C00009EF005EF9EF027EF9EF0E8512D0DF40E8B
:103C1000F324D96E040EF420DA6EE351DE18D8A432
:103C200014EF9EF016EF9EF027EF9EF0E8512D0D59
:103C3000F50EF324D96E040EF420DA6EE451DE188A
:103C4000D8B425EF9EF027EF9EF0C0EF9EF0E8512C
:103C50002D0DF10EF324D96E040EF420DA6EE1512D
:103C6000DE5CD8B036EF9EF038EF9EF06BEF9EF042
:103C7000E8512D0DF30EF324D96E040EF420DA6E04
:103C8000E251DE18D8A447EF9EF049EF9EF06BEFAB
:103C90009EF0E8512D0DF40EF324D96E040EF4209D
:103CA000DA6EE351DE18D8A458EF9EF05AEF9EF07A
:103CB0006BEF9EF0E8512D0DF50EF324D96E040E36
:103CC000F420DA6EE451DE18D8B469EF9EF06BEFA1
:103CD0009EF0C0EF9EF0E8512D0DF20EF324D96E48
:103CE000040EF420DA6EDE50E05DD8A07AEF9EF08C
:103CF0007CEF9EF0C4EF9EF0E8512D0DF10EF32401
:103D0000D96E040EF420DA6EE151DE18D8A48BEFE0
:103D10009EF08DEF9EF0C4EF9EF0E8512D0DF30E56
:103D2000F324D96E040EF420DA6EE251DE18D8A422
:103D30009CEF9EF09EEF9EF0C4EF9EF0E8512D0D9B
:103D4000F40EF324D96E040EF420DA6EE351DE187B
:103D5000D8A4ADEF9EF0AFEF9EF0C4EF9EF0E85117
:103D60002D0DF50EF324D96E040EF420DA6EE45115
:103D7000DE18D8A4BEEF9EF0C0EF9EF0C4EF9EF018
:103D8000010ED66FE9EFA1F0E8512D0DF90EF324E5
:103D9000D96E040EF420DA6EE8512D0DFA0EF324DC
:103DA000E16E040EF420E26EDE50E65CD8B0DBEF8C
:103DB0009EF0DDEF9EF0DFEF9EF0C0EF9EF0000E74
:103DC000D66F000E9F6F000EA06F000EA16F000E49
:103DD000A26FE4C09EF037EF9FF0D00E9E25766F65
:103DE000776B070E7723000E796F640E786F72EC95
:103DF000E9F0000176517711D8B401EF9FF003EF9D
:103E00009FF02EEF9FF09EC094F0030E9417D8A45D
:103E10000CEF9FF00EEF9FF02EEF9FF0D00E9E253F
:103E2000766F776B070E7723010E796F900E786FA0
:103E300072ECE9F0000176517711D8A422EF9FF0DF
:103E400024EF9FF02EEF9FF099519F279A51A023C6
:103E5000000EA123000EA22336EF9FF09B519F2757
:103E60009C51A023000EA123000EA2239E2BE851FB
:103E70002D0DF50EF324D96E040EF420DA6EDE500B
:103E80009E5DD8A046EF9FF048EF9FF0EDEF9EF0CB
:103E9000E8512D0DF50EF324D96E040EF420DA6EE0
:103EA000DF507B6FE8512D0DF40EF324D96E040E14
:103EB000F420DA6EDF509BECDCF000017B519F2791
:103EC0007C51A023000EA123000EA223E8512D0D4A
:103ED000F30EF324D96E040EF420DA6EDF50946FE3
:103EE00094519F27000EA023A123A223E4C07BF0BE
:103EF000E3519BECDCF000017B51946F7C51956F9A
:103F0000966B976B94519F5F9551A05B9651A15B07
:103F10009751A25BE2C094F0956B966B976B9451AE
:103F20009F5F9551A05B9651A15B9751A25B9FC08B
:103F300076F0A0C077F0A1C078F0A2C079F0180E9A
:103F40007A6F000E7B6F000E7C6F000E7D6F09ECA8
:103F5000E9F076C09FF077C0A0F078C0A1F079C0FA
:103F6000A2F00001E8512D0DF10EF324D96E040EDC
:103F7000F420DA6EE151DE5CD8A0C1EF9FF0C3EF10
