:040000000FEF03F00B
:06000800438292EFDBF0E1
:100018004380D8CF38F0E8CF39F0E0CF3AF0E9CFD5
:100028003BF0EACF3CF0D9CF3DF0DACF3EF0F6CF47
:100038003FF0F7CF40F0F8CF41F0F5CF42F00E0196
:1000480033AB29EF00F02BEF00F09EEF02F0909613
:10005800339BE30ED46EB00ED36E1A2A07500810E5
:10006800D8B439EF00F03BEF00F08CEF00F090A02F
:1000780040EF00F042EF00F08CEF00F00706D8A048
:1000880008060101CB2B1450D8B44DEF00F04FEF08
:1000980000F057EF00F0030E146055EF00F057EF33
:1000A80000F058EF00F0142A190E2A6E020E2B6E7B
:1000B800530E2C6EF50E2D6E000E2F6E050E2E6E45
:1000C80049ECF1F02A502B10D8A46DEF00F06FEF37
:1000D80000F08CEF00F01E0E2A6E020E2B6E5F0EE3
:1000E8002C6EF50E2D6E000E2F6E050E2E6E49EC41
:1000F800F1F02A502B10D8A484EF00F086EF00F01E
:100108008CEF00F002EC06F00101CC2B8CEF00F034
:1001180090A491EF00F093EF00F0DDEF01F08EA6D0
:1001280098EF00F09AEF00F0B5EF00F00101B3513D
:10013800AB1907E1B451AC19D8A4A5EF00F0A7EFAB
:1001480000F0B1EF00F08E96000EAC6F000EAB6FB2
:100158009B4B9C2BD02BE7EF00F0AB4BAC2BE7EF86
:1001680000F08EB6BAEF00F0BCEF00F0E7EF00F059
:100178000101A3519B1907E1A4519C19D8A4C7EF09
:1001880000F0C9EF00F0E5EF00F00001E0510101D7
:10019800D05DD8B0D2EF00F0D4EF00F0DDEF00F082
:1001A8008E86AB4BAC2B000E9C6F000E9B6FE7EF5F
:1001B80000F0010EA3259B6F000EA4219C6FE7EFB2
:1001C80000F09B4B9C2B8EA8ECEF00F0EEEF00F0BC
:1001D80009EF01F00101B151A91907E1B251AA19BA
:1001E800D8A4F9EF00F0FBEF00F005EF01F08E98CE
:1001F800000EAA6F000EA96F994B9A2BCF2B39EFDF
:1002080001F0A94BAA2B39EF01F08EB80EEF01F0DF
:1002180010EF01F039EF01F00101A151991907E13F
:10022800A2519A19D8A41BEF01F01DEF01F037EF86
:1002380001F0D351CF5DD8B024EF01F026EF01F0E3
:100248002FEF01F08E88A94BAA2B000E9A6F000E93
:10025800996F39EF01F0010EA125996F000EA221C7
:100268009A6F39EF01F0994B9A2B8EAA3EEF01F065
:1002780040EF01F05BEF01F00101AF51A71907E171
:10028800B051A819D8A44BEF01F04DEF01F057EF8A
:1002980001F08E9A000EA86F000EA76F974B982B4F
:1002A800CE2B8BEF01F0A74BA82B8BEF01F08EBA6A
:1002B80060EF01F062EF01F08BEF01F001019F5157
:1002C800971907E1A0519819D8A46DEF01F06FEFC5
:1002D80001F089EF01F0D251CE5DD8B076EF01F090
:1002E80078EF01F081EF01F08E8AA74BA82B000E62
:1002F800986F000E976F8BEF01F0010E9F25976F97
:10030800000EA021986F8BEF01F0974B982B8EACC5
:1003180090EF01F092EF01F0ADEF01F00101AD5166
:10032800A51907E1AE51A619D8A49DEF01F09FEFDA
:1003380001F0A9EF01F08E9C000EA66F000EA56FCC
:10034800954B962BCD2BDDEF01F0A54BA62BDDEFC2
:1003580001F08EBCB2EF01F0B4EF01F0DDEF01F077
:1003680001019D51951907E19E519619D8A4BFEF37
:1003780001F0C1EF01F0DBEF01F0D151CD5DD8B054
:10038800C8EF01F0CAEF01F0D3EF01F08E8CA54B56
:10039800A62B000E966F000E956FDDEF01F0010E93
:1003A8009D25956F000E9E21966FDDEF01F0954B10
:1003B800962B630E1918D8A4E4EF01F0E6EF01F0CC
:1003C800EAEF01F0000E1A6E9EEF02F01904D8A4AD
:1003D800F0EF01F0F2EF01F002EF02F018501A18F6
:1003E800D8A4F9EF01F0FBEF01F002EF02F0000EE4
:1003F8001A6E8A86020E196E9EEF02F0020E191806
:10040800D8A409EF02F00BEF02F01BEF02F0155031
:100418001A18D8A412EF02F014EF02F01BEF02F042
:10042800000E1A6E8A96030E196E9EEF02F0030EE6
:100438001918D8A422EF02F024EF02F034EF02F0EA
:1004480017501A18D8A42BEF02F02DEF02F034EF52
:1004580002F0000E1A6E8A88040E196E9EEF02F0E2
:10046800040E1918D8A43BEF02F03DEF02F04DEF4F
:1004780002F015501A18D8A444EF02F046EF02F023
:100488004DEF02F0000E1A6E8A98050E196E9EEF57
:1004980002F0050E1918D8A454EF02F056EF02F036
:1004A80066EF02F017501A18D8A45DEF02F05FEF5C
:1004B80002F066EF02F0000E1A6E8A8A060E196EB6
:1004C8009EEF02F0060E1918D8A46DEF02F06FEF38
:1004D80002F07FEF02F015501A18D8A476EF02F058
:1004E80078EF02F07FEF02F0000E1A6E8A9A070E7C
:1004F800196E9EEF02F0070E1918D8A486EF02F0C5
:1005080088EF02F09EEF02F01A50366E376A00014B
:10051800CA51361807E1CB513718D8A496EF02F024
:1005280098EF02F09EEF02F0000E1A6E010E196E9F
:100538009EEF02F00E0138A1A4EF02F0A6EF02F040
:10054800ABEF02F090960101C72B0E01389138A548
:10055800B0EF02F0B2EF02F0F7EF02F090963895A4
:10056800F00EC86EDC0EC76E0101C62BC651CA5DFF
:10057800D8B0C1EF02F0C3EF02F0EAEF02F0115079
:10058800D8A4C9EF02F0CBEF02F0EAEF02F0010EB7
:10059800116E000EC66FC990BB51D8B4D6EF02F0E9
:1005A800D8EF02F0DDEF02F0010E0001CC6FF7EF9B
:1005B80002F0C551D8B4E3EF02F0E5EF02F0F7EF2F
:1005C80002F0010E0001D36FF7EF02F01150D8B41A
:1005D800F0EF02F0F2EF02F0F7EF02F0000EC66F54
:1005E800C990F7EF02F042C0F5FF41C0F8FF40C0E4
:1005F800F7FF3FC0F6FF3EC0DAFF3DC0D9FF3CC061
:10060800EAFF3BC0E9FF3AC0E0FF39C0E8FF38C065
:10061800D8FF439010008FEFF8F0050E0001686FC7
:100628000F0E676FF10EE82EFED7672FFCD7682FE5
:10063800FAD72A0E00016325606F000E6421616FEE
:1006480020EE2AF06551D9266651DA22DF50626F12
:10065800A0EC05F0050E0001686F0F0E676FF10E34
:10066800E82EFED7672FFCD7682FFAD71200050EA1
:100678000001686F0F0E676FF10EE82EFED7672F27
:10068800FCD7682FFAD7290E00016325606F000E8A
:100698006421616F20EE29F06551D9266651DA226E
:1006A800DF50626FA0EC05F0050E0001686F0F0EB9
:1006B800676FF10EE82EFED7672FFCD7682FFAD7A1
:1006C8001200050E0001686F0F0E676FF10EE82E1D
:1006D800FED7672FFCD7682FFAD7280E00016325AD
:1006E800606F000E6421616F20EE28F06551D926F5
:1006F8006651DA22DF50626FA0EC05F0050E0001AA
:10070800686F0F0E676FF10EE82EFED7672FFCD7C4
:10071800682FFAD71200050E0001646F0F0E636F81
:10072800F10EE82EFED7632FFCD7642FFAD7810E7F
:10073800F66EE80EF76E000EF86E0900F5CF60F061
:100748000A00F5CF61F012C062F0A0EC05F0050ECA
:100758000001646F0F0E636FF10EE82EFED7632F52
:10076800FCD7642FFAD712001E0E0101CA6F000EC3
:10077800116E010E0001DE6FC980D6EF03F07B0E0B
:100788000001616FFD0E626F90ECFFF0290E000111
:10079800666F960E656F7F0EE82EFED7652FFCD725
:1007A800662FFAD71150D8B4DCEF03F0DEEF03F070
:1007B800C3EF03F00E0138851200F9EF03F061C0B2
:1007C800F6FF62C0F7FF000EF86E0800F550F6EC71
:1007D80006F00001614B622BD00E0001636FC90E59
:1007E800E82EFED7632FFCD700D061C0F6FF62C0A9
:1007F800F7FF000EF86E0800F5500009D8A407EFBF
:1008080004F009EF04F0E3EF03F012000001616F58
:100818000E01DA87D8A113EF04F015EF04F00EEFFC
:1008280004F0D5CE62F085EC05F000016151D8B432
:1008380020EF04F022EF04F026EF04F00E01DA9B1B
:1008480028EF04F00E01DA8BDA89DAB92EEF04F01A
:1008580030EF04F029EF04F000016251120060C08B
:1008680063F061C064F049EF04F063C0D9FF64C06D
:10087800DAFF200EDE18D8A444EF04F046EF04F0A7
:1008880049EF04F0000E59EF04F063C0D9FF64C0CB
:10089800DAFF0001634B642BDF50D8A456EF04F055
:1008A80058EF04F039EF04F0010E1200050E0001B4
:1008B800636F0F0E626FF10EE82EFED7622FFCD722
:1008C800632FFAD7608060B06CEF04F06EEF04F02D
:1008D80067EF04F063CF64F00001656B6450636FE9
:1008E800626B625164136351651364C060F065C044
:1008F80061F01200000E00016F6F000E6E6F91EF35
:1009080004F06DC060F0616B6BC062F06CC063F0A6
:10091800D9ECF4F000016E4B6F2B6E516925D96E3E
:100928006F516A21DA6EDF506D6F6D51D8A49FEF59
:1009380004F0A1EF04F085EF04F01200000E0001AE
:10094800656FBBEF04F061C0D9FF62C0DAFFDF500A
:10095800E9EC06F00001614B622B652BD00E00011B
:10096800646FC90EE82EFED7642FFCD700D00001B3
:100978006351655DD8A0C3EF04F0C5EF04F0A7EF9D
:1009880004F01200000E0001656FDFEF04F061C093
:10099800D9FF62C0DAFFDF50F6EC06F00001614BC8
:1009A800622B652BD00E0001646FC90EE82EFED7AE
:1009B800642FFCD700D000016351655DD8A0E7EF34
:1009C80004F0E9EF04F0CBEF04F01200810EF66EAC
:1009D800E80EF76E000EF86E0900F5CF63F0090017
:1009E800F5CF64F0070E00016325606F000E6421E7
:1009F800616F98EC06F01D6E050E0001646F0F0E16
:100A0800636FF10EE82EFED7632FFCD7642FFAD759
:100A18001200000173BF1BEF05F0735106E1720568
:100A2800D8B019EF05F01BEF05F029EF05F072C0FB
:100A380074F073C075F0741F751F744B752B74C0F8
:100A480072F075C073F02DEF05F072C072F073C0CC
:100A580073F012000001786F78C060F00001616BDC
:100A6800000E636F0A0E626FCFECF6F0000160397A
:100A7800F00B796F78C072F0736B000E756F0A0E09
:100A8800746F8EECF7F0000172517911796F79511A
:100A9800120060C062F061C063F056EF05F000011B
:100AA800604B612B60C0D9FF61C0DAFFDF50D8A46A
:100AB80060EF05F062EF05F053EF05F000016251B9
:100AC800605D606F63516159616F1200000E1E6EA8
:100AD800C70E1E6472EF05F074EF05F076EF05F0AF
:100AE80081EF05F02C0E1E24D96EDA6A030EDA2285
:100AF800000EDF6E1E2A6CEF05F0000E0001DE6F9F
:100B080012000E01D8B58BEF05F090EF05F000014B
:100B1800606B602B92EF05F00001606B0E01DA51FB
:100B28001F0B000160110009D8A49DEF05F09FEF8D
:100B380005F085EF05F0120060C074FF00016151F7
:100B4800756E62C076FF3F0E77167784F29E550E5B
:100B5800786EAA0E786E778277B2B5EF05F0B7EFA8
:100B680005F0B0EF05F0F28E779412000001606F87
:100B78002F0E00016065C3EF05F0C5EF05F0D0EF5B
:100B880005F03A0E6061CBEF05F0CDEF05F0D0EF40
:100B980005F0010ED1EF05F0000E1200000E1E6EDA
:100BA800C70E1E64DAEF05F0DCEF05F0DEEF05F0A6
:100BB800E9EF05F0180E1E24D96EDA6A020EDA2261
:100BC800000EDF6E1E2AD4EF05F0120094B4EFEF8A
:100BD80005F0F4EF05F00001606B602BF6EF05F00F
:100BE8000001606B96501F0B60110009D8A4FFEF3D
:100BF80005F001EF06F0EAEF05F01200000E1E6E98
:100C0800C70E1E640AEF06F00CEF06F00EEF06F0B2
:100C180019EF06F0180E1E24D96EDA6A020EDA22CF
:100C2800000EDF6E1E2A04EF06F0120000016A6F44
:100C380000016A51F00B686F6A39F00B696FF00EAA
:100C4800691768516711040903EC07F0000169513D
:100C58006711040903EC07F01200FF0E0001626F30
:100C6800FF0E636F60C064F061C065F06251642775
:100C78006351652364C0F5F165C0F6F10101F76BB6
:100C8800F86B12008AB04BEF06F04DEF06F053EF09
:100C980006F0000E0001CE6F000E5AEF06F0010EAE
:100CA8000001CE6F000E0101BE6F010E120000019F
:100CB800656F00016551040910EC07F0050EE82E78
:100CC800FED700F000016551FB0B10EC07F0A00EF9
:100CD80000D0E82EFDD71200000160516203F3CF67
:100CE80064F0F4CF65F060516303F35065276151F8
:100CF8006203F350652764C060F065C061F01200BC
:100D08000001636FEAEC05F069EC07F0000163513C
:100D1800FE0BDBEC06F0EAEC05F000016251DBECBF
:100D280006F060EC07F0120060C074FF000161512A
:100D3800756E3F0E77167780680E0001626FE40EBD
:100D4800E82EFED7622FFCD700F076501200010E75
:100D580057EC07F0030E00016D6F700E6C6F5C0EA0
:100D6800E82EFED76C2FFCD76D2FFAD700F01200B3
:100D78000001626F62C060F00F0E000160176239F7
:100D88000F0B0F0B0A0DF3506025616F61511200B4
:100D98000001616F61C0D5FE0E01D8B1D6EF06F033
:100DA800D8EF06F0D0EF06F085EC05F01200000150
:100DB800616F61C091FF94B0E4EF06F0E6EF06F0D2
:100DC800DFEF06F0EAEC05F012000001606F60C08A
:100DD800EBFE0E0137A1F3EF06F0F5EF06F0EDEFAD
:100DE80006F012000001606F60C099FF0E0136A97D
:100DF80000EF07F002EF07F0FAEF06F0120000012B
:100E0800666F00016651FD0B10EC07F0000166519A
:100E1800FD0B5BEC06F012000001646F00016451E9
:100E28000101B7110001626F4E0E84EC06F012004A
:100E38000E01DA85DAB523EF07F025EF07F01EEF8C
:100E480007F012000E01DA81DAB12DEF07F02FEF6B
:100E580007F028EF07F012000E01DA83DAB337EF54
:100E680007F039EF07F032EF07F012000E0136AB4A
:100E780040EF07F042EF07F03AEF07F09850120002
:100E88000E0137A34AEF07F04CEF07F044EF07F0E5
:100E9800EA51120000016B6F010E0001676F6B5180
:100EA8001AEC06F0120000016B6F000E0001676F6C
:100EB8006B511AEC06F01200968496B466EF07F0B0
:100EC80068EF07F061EF07F01200968096B06FEFB9
:100ED80007F071EF07F06AEF07F0120000016C6F7E
:100EE80000016C514EEC07F012000B840B500809FE
:100EF80057EC07F012000B940B50080957EC07F059
:020F08001200D5
:10E81A000053797374656D2041757468656E746907
:10E82A0063617465642077697468205068617365F0
:10E83A00206661696C7572652C2073757370656EDC
:10E84A0064696E6720616C6C20616374696F6E73B2
:10E85A00000000300060009000C000F0002001506D
:10E86A00018001B001E001100240027002A002D052
:10E87A00020003300360039003C003000050686184
:10E88A007365206C6F737320646574656374656463
:10E89A000000000000004C6F67696E20636F6465BA
:10E8AA00206E6F74206368616E67656400416C6CEA
:10E8BA0020506861736520646574656374656400DB
:10E8CA002B434D54493A2022534D222C7800494477
:10E8DA004C45006F6B004472792052756E20646556
:10E8EA007465637465642C204D6F746F722C2049B3
:10E8FA00727269676174696F6E20616E6420466521
:10E90A00727469676174696F6E207377697463687A
:10E91A006564206F66662E0D0A49727269676174B2
:10E92A00696F6E207363686564756C656420746FC3
:10E93A00206E65787420646179207769746820662E
:10E94A0065727469676174696F6E20666F7220669A
:10E95A0069656C64206E6F2E000000447279205243
:10E96A00756E2064657465637465642C204D6F74DC
:10E97A006F7220616E642049727269676174696F8F
:10E98A006E207377697463686564206F66662E0DFE
:10E99A000A49727269676174696F6E207363686588
:10E9AA0064756C656420746F206E65787420646188
:10E9BA007920776974682066657274696761746919
:10E9CA006F6E20666F72206669656C64206E6F2EAA
:10E9DA000000004472792052756E20646574656384
:10E9EA007465642C204D6F746F7220616E642049C7
:10E9FA00727269676174696F6E207377697463688C
:10EA0A006564206F66662E0D0A49727269676174C1
:10EA1A00696F6E207363686564756C656420746FD2
:10EA2A00206E65787420647565206461746520665B
:10EA3A006F72206669656C64206E6F2E0000004458
:10EA4A0072792052756E2064657465637465642CEE
:10EA5A00204D6F746F7220616E642049727269670B
:10EA6A006174696F6E207377697463686564206F77
:10EA7A0066662E0D0A49727269676174696F6E2043
:10EA8A007363686564756C656420746F206E65785D
:10EA9A00742064617920666F72206669656C6420EF
:10EAAA006E6F2E00000053797374656D2072657362
:10EABA0074617274656420666F7220416C6C2050B8
:10EACA006861736520446574656374696F6E207745
:10EADA0069746820696E636F6D706C65746520492E
:10EAEA00727269676174696F6E20666F72206669F7
:10EAFA00656C64206E6F2E0053797374656D207295
:10EB0A00657374617274656420666F7220506F77E2
:10EB1A00657220496E7465727275707420776974B3
:10EB2A006820696E636F6D706C65746520497272D6
:10EB3A0069676174696F6E20666F72206669656CB9
:10EB4A0064206E6F2E0053797374656D207265733D
:10EB5A0074617274656420696E20446961676E6FBE
:10EB6A0073746963204D6F646520776974682069DE
:10EB7A006E636F6D706C6574652049727269676146
:10EB8A0074696F6E20666F72206669656C64206EA8
:10EB9A006F2E0053797374656D2072657374617298
:10EBAA0074656420666F72204C6F7720506F7765AA
:10EBBA007220496E207769746820696E636F6D7080
:10EBCA006C6574652049727269676174696F6E2039
:10EBDA00666F72206669656C64206E6F2E005379C9
:10EBEA007374656D207265737461727465642066EE
:10EBFA006F7220537461636B204572726F72207753
:10EC0A0069746820696E636F6D706C6574652049FC
:10EC1A00727269676174696F6E20666F72206669C5
:10EC2A00656C64206E6F2E0053797374656D207263
:10EC3A00657374617274656420666F7220574454F8
:10EC4A002054696D656F7574207769746820696EE0
:10EC5A00636F6D706C65746520497272696761745F
:10EC6A00696F6E20666F72206669656C64206E6FCC
:10EC7A002E004665727469676174696F6E207374D9
:10EC8A006F7070656420776974682066657274694C
:10EC9A006C697A6572206C6576656C2073656E7333
:10ECAA006F72206661696C75726520666F72206684
:10ECBA0069656C64206E6F2E004C6F772050686116
:10ECCA0073652063757272656E742064657465631A
:10ECDA007465642C20616374696F6E732073757335
:10ECEA0070656E6465642C20706C65617365207252
:10ECFA006573746172742073797374656D004972F7
:10ED0A007269676174696F6E206973206E6F74200F
:10ED1A004163746976652E20466572746967617409
:10ED2A00696F6E206E6F7420656E61626C65642017
:10ED3A00666F72206669656C64206E6F2E004D6F77
:10ED4A006973747572652073656E736F7220697367
:10ED5A00206661696C65642C204972726967617406
:10ED6A00696F6E207374617274656420666F7220B5
:10ED7A006669656C64206E6F2E0053797374656DD5
:10ED8A00207265737461727465642077697468208F
:10ED9A007068617365206661696C7572652C207391
:10EDAA00757370656E64696E6720616C6C2061634F
:10EDBA0074696F6E73004665727469676174696F0E
:10EDCA006E2073746F707065642077697468206C44
:10EDDA006F772066657274696C697A6572206C65F2
:10EDEA0076656C20666F72206669656C64206E6F4A
:10EDFA002E00576574206669656C642064657465C5
:10EE0A00637465642E0D0A49727269676174696F69
:10EE1A006E206E6F74207374617274656420666FFD
:10EE2A0072206669656C64206E6F2E00000053794B
:10EE3A007374656D207265736574206F6363757290
:10EE4A007265642C206C6F67696E20636F6465203D
:10EE5A00726573657420746F20466163746F72798A
:10EE6A002073657474696E670049727269676174A8
:10EE7A00696F6E20636F6D706C6574656420666F70
:10EE8A007220647565206669656C64730D0A4D6F3E
:10EE9A00746F72207377697463686564206F66663D
:10EEAA000000004E657720525443206261747465F5
:10EEBA00727920666F756E642C20706C656173655B
:10EECA002073796E632073797374656D2074696D2C
:10EEDA0065206D616E75616C6C79004E65772052A4
:10EEEA005443206261747465727920666F756E642A
:10EEFA002C2073797374656D2074696D652069734C
:10EF0A002073657420746F206C6F63616C20746960
:10EF1A006D6500496E636F72726563742076616C09
:10EF2A007565732E204665727469676174696F6EC0
:10EF3A00206E6F7420656E61626C656420666F7204
:10EF4A00206669656C64206E6F2E0049727269676B
:10EF5A006174696F6E2073746F707065642077696D
:10EF6A0074686F757420726573706F6E736520664E
:10EF7A00726F6D206669656C64206E6F2E0049722F
:10EF8A007269676174696F6E20736B69707065640A
:10EF9A002077697468206E6F20726573706F6E7364
:10EFAA00652066726F6D206669656C64206E6F3AC3
:10EFBA0000596F7520617265206E6F206D6F7265E2
:10EFCA002041646D696E206E6F772E204E65772022
:10EFDA0041646D696E2069732073657420746F0DC6
:10EFEA000A00000052544320426174746572792009
:10EFFA00666F756E64206C6F772C20706C65617318
:10F00A0065207265706C61636520525443206261A9
:10F01A0074746572790053797374656D20726573BF
:10F02A006574206F636375727265642C204972720D
:10F03A0069676174696F6E2073657474696E67209D
:10F04A0064656C65746564004972726967617469A4
:10F05A006F6E206973206163746976652C204D6F29
:10F06A00746F72206C6F6164206375742D6F6666AD
:10F07A00206E6F74207365740049727269676174D7
:10F08A00696F6E20636F6E66696775726174696F06
:10F09A006E2064697361626C656420666F722066B3
:10F0AA0069656C64206E6F2E005068617365206616
:10F0BA0061696C7572652064657465637465642C36
:10F0CA002073757370656E64696E6720616C6C205D
:10F0DA00616374696F6E73004E6F4C6F6164206177
:10F0EA006E642046756C6C4C6F6164204D6F746F52
:10F0FA0072207468726573686F6C647320736574C8
:10F10A0020746F203A20004D6F6973747572652000
:10F11A0073656E736F72206672657175656E637959
:10F12A002076616C756520666F72206669656C640D
:10F13A00206E6F2E0053797374656D2074696D6546
:10F14A002073796E63656420746F206375727265CB
:10F15A006E74206C6F63616C2074696D65005379FD
:10F16A007374656D20726573746172746564206668
:10F17A006F7220416C6C205068617365204465741D
:10F18A00656374696F6E004D6F697374757265207B
:10F19A0073656E736F72206973206661696C65644A
:10F1AA0020666F72206669656C64206E6F2E004956
:10F1BA00727269676174696F6E206E6F7420636F13
:10F1CA006E6669677572656420666F722066696526
:10F1DA006C64206E6F2E0053797374656D207265AE
:10F1EA007374617274656420666F7220506F7765FC
:10F1FA007220496E746572727570740053797374F3
:10F20A00656D2072657374617274656420696E201D
:10F21A00446961676E6F73746963206D6F6465001A
:10F22A0049727269676174696F6E206669656C6498
:10F23A00206D617070656420776974682076616CEE
:10F24A007665730049727269676174696F6E2063CB
:10F25A006F6E6669677572656420666F722066698B
:10F26A00656C64206E6F2E004D6F746F726C6F61E7
:10F27A0064206375742D6F666620736574207375D8
:10F28A00636365737366756C6C790046657274693D
:10F29A00676174696F6E2064697361626C6564206A
:10F2AA00666F72206669656C64206E6F2E00466513
:10F2BA00727469676174696F6E2073746F707065B8
:10F2CA006420666F72206669656C64206E6F2E001A
:10F2DA004665727469676174696F6E2073746172CE
:10F2EA0074656420666F72206669656C64206E6F4F
:10F2FA002E004665727469676174696F6E20656E67
:10F30A0061626C656420666F72206669656C642050
:10F31A006E6F2E0053797374656D20726573746114
:10F32A007274656420666F7220737461636B206502
:10F33A0072726F720053797374656D20726573749B
:10F34A00617274656420666F722057445420746930
:10F35A006D656F75740049727269676174696F6E61
:10F36A002073746F7070656420666F7220666965B9
:10F37A006C64206E6F2E0049727269676174696FDE
:10F38A006E207374617274656420666F7220666998
:10F39A00656C64206E6F2E00576174657220466931
:10F3AA006C74726174696F6E206973206E6F742059
:10F3BA00656E61626C6564004C6F67696E20636F8D
:10F3CA006465206368616E6765642073756363654D
:10F3DA00737366756C6C790053797374656D2072FA
:10F3EA00657374617274656420666F72204C6F77FE
:10F3FA0020506F7765720057617465722066696C78
:10F40A0074726174696F6E20646561637469766190
:10F41A0074656400496E636F7272656374206C6F01
:10F42A0063616C2074696D6520666F756E64005740
:10F43A00617465722046696C74726174696F6E20BA
:10F44A0053657175656E63653A005761746572201C
:10F45A0066696C74726174696F6E2061637469762F
:10F46A00617465640057726F6E67206C6F67696EAE
:10F47A0020636F646520666F756E640041646D6910
:10F48A006E20736574207375636365737366756C38
:10F49A006C790041757468656E7469636174696F2B
:10F4AA006E206661696C65640054657374204461FA
:10F4BA00746120496E6A6563746564005379737474
:10F4CA00656D20436F6E6E656374656400466163A3
:10F4DA00746F7279204B6579203A200043757272F5
:10F4EA00656E742054696D653A20004972726967C5
:10F4FA006174696F6E204E6F3A003132333435369B
:10F50A00373839313200474554465245510045583B
:10F51A0054524143540044414354495645004449D6
:10F52A005341424C450053454E534F52004D4153AF
:10F53A0054455200494E4A454354004143544956A2
:10F54A004500454E41424C4500414C49564500450F
:10F55A0052524F5200534C4156450047455443546A
:10F56A0000464441544100464545440054494D45EE
:10F57A0000484F4C4400484F4F4B0041434B004F0B
:10F58A004646002B393100534354004D4150005335
:10F59A004554004F4E00435400415500466572746D
:10F5AA0069676174696F6E20656E61626C6564205B
:10F5BA00776974682064656C61793A00466572748B
:10F5CA0069676174696F6E206E6F7420636F6E660F
:10F5DA006967757265640D0A0046657274696761C8
:10F5EA0074696F6E2044697361626C65643A005392
:10F5FA00797374656D205265736574204F63637502
:10F60A00727265640053797374656D205265737400
:10F61A006172746564205769746800537573706504
:10F62A006E64656420416C6C20416374696F6E730B
:10F63A00002A2A2A466163746F72792052657365BB
:10F64A00742A2A2A2A0053797374656D20436F6DD0
:10F65A00706C6574652044617461004375727265EB
:10F66A006E7420496E2046756C6C204C6F61640084
:10F67A00497272692E4461746120436F6E666967CC
:10F68A007572656400466572742E44617461204324
:10F69A006F6E6669677572656400497272692E20B9
:10F6AA004E6F7420436F6E666967757265640049B0
:10F6BA007272692E206E6F7420636F6E6669677549
:10F6CA007265640053657175656E63652044656192
:10F6DA006374697661746564004E6577204D65735D
:10F6EA0073616765205265636569766564004E6576
:10F6FA0077205254434261747465727920466F755B
:10F70A006E6400496E636F7272656374204C6F6336
:10F71A00616C2054696D650057697468204C6F7775
:10F72A0020466572742E204C6576656C00546F20F5
:10F73A0044656C6574652049727269676174696FA2
:10F74A006E00496E204E6F204C6F616420436F6ECD
:10F75A00646974696F6E0053797374656D20697397
:10F76A0020426F6F74696E672055700053796E631B
:10F77A002053797374656D204D616E75616C6C7977
:10F78A000049727269676174696F6E20436F6D70A8
:10F79A006C657465640053656E64696E67204E6FAC
:10F7AA0074696669636174696F6E00437572736F19
:10F7BA007220486F6D65202620426C696E6B004985
:10F7CA007272692E20446174612044697361626CAB
:10F7DA00656400466572742E204461746120446930
:10F7EA007361626C65640046657274696761746905
:10F7FA006F6E2053746F7070656400506861736532
:10F80A00204C6F73732044657465637465640046A5
:10F81A0065727469676174696F6E2053746172747A
:10F82A0065640046696C74726174696F6E20536511
:10F83A007175656E636500576974682053656E73E8
:10F84A006F72204661696C75726500436865636B07
:10F85A00696E672047534D205369676E616C005487
:10F86A006F20436865636B2047534D205369676E69
:10F87A00616C0042686F6F6D69204A616C73616EDA
:10F88A0064686172616E00576972654C65737320B2
:10F89A0049727269676174696F6E004C6F616420A6
:10F8AA004375742D4F66662056616C7565730052F8
:10F8BA0065706C616365205254432062617474659B
:10F8CA0072790041542B434E4D493D312C312C3035
:10F8DA002C302C300D0A004C6F6164696E6720531E
:10F8EA00797374656D20446174610045786974693F
:10F8FA006E6720446961676E6F737469630043754C
:10F90A007272656E7420496E204E6F204C6F61646E
:10F91A000053797374656D2054696D652053796E4F
:10F92A006365640049727269676174696F6E205316
:10F93A006B69707065640049727269676174696F96
:10F94A006E2053746F707065640053657175656ECF
:10F95A0063652041637469766174656400576574F0
:10F96A00204669656C642044657465637465640047
:10F97A0049727269676174696F6E20537461727437
:10F98A006564004D6F746F72204C6F61642043751B
:10F99A00742D4F66660049727269676174696F6E89
:10F9AA002052756E6E696E670050726573732052CD
:10F9BA006573657420427574746F6E00546F2043CA
:10F9CA00616C696272617465204D6F746F72005365
:10F9DA00757370656E64696E6720416374696F6ED2
:10F9EA007300466163746F727920436F64652052B5
:10F9FA0065736574004E6F20446961676E6F737436
:10FA0A006963204D656E75004D6F746F7220537770
:10FA1A00697463686564204F464600525443204225
:10FA2A00617474657279206973206C6F770049720A
:10FA3A0072692E2052657363686564756C6564002B
:10FA4A00497272692E204E6F742053746172746504
:10FA5A00640053797374656D2052756E6E696E67B2
:10FA6A0020496E0055736572205265676973747216
:10FA7A006174696F6E0043616C6962726174696E68
:10FA8A0067204D6F746F720046756C6C204C6F6105
:10FA9A00642043757272656E74004C6F77205068EB
:10FAAA006173652043757272656E7400234745540D
:10FABA0053454E534F523031534C415645005365CE
:10FACA007061726174696F6E2054696D653A2000C5
:10FADA006C63644261636B6C69676874204F6E2063
:10FAEA00006C63644261636B6C69676874204F667B
:10FAFA00660046657274692E20506F7374706F6E5B
:10FB0A006564004472792052756E20646574656379
:10FB1A007465640057697468204E6F20526573706B
:10FB2A006F6E736500497272692E2069732052756F
:10FB3A006E6E696E67004E6574776F726B205374D0
:10FB4A0072656E67746800546F2044656C657465ED
:10FB5A002053797374656D00576174657220466924
:10FB6A006C74726174696F6E0057616974696E674B
:10FB7A0020466F72205573657200466163746F7216
:10FB8A00792053657474696E677300497272692EBD
:10FB9A002044617461205265736574005365742052
:10FBAA005375636365737366756C6C79006C636413
:10FBBA004261636B6C69676874204F6E004C6F72A8
:10FBCA006120636F6E74726F6C6C65720049727239
:10FBDA0069676174696F6E20446174610049727269
:10FBEA00692E20506F7374706F6E6564004661638E
:10FBFA00746F72792050696E436F6465004469615D
:10FC0A00676E6F73746963204D6F646500466F7524
:10FC1A006E64204C6F77205068617365004D6F6980
:10FC2A0073747572652053656E736F720041542B3D
:10FC3A00435343533D2247534D220D0A00466F72E8
:10FC4A00204669656C64204E6F3A200046657463ED
:10FC5A0068696E6720497272692E0046726F6D205C
:10FC6A004669656C64204E6F3A0055736572204C84
:10FC7A006F6767656420494E00496E636F727265EB
:10FC8A0063742044617461004973204E6F74204587
:10FC9A006E61626C656400436F6E74726F6C2053A0
:10FCAA00797374656D005265737461727420537947
:10FCBA007374656D0041757468656E746963617407
:10FCCA00696F6E00546F2044656C657465205573C6
:10FCDA006572004665746368696E67204D6F746F5C
:10FCEA00720041542B53434C415353303D310D0A5A
:10FCFA0000436F6E6E656374696E6720746F2000CF
:10FD0A0053657474696E672053797374656D002046
:10FD1A0020202020202020202020202000466F7232
:10FD2A00204669656C64204E6F2E004375727265B9
:10FD3A006E742054696D653A00466F722046696593
:10FD4A006C64204E6F3A00466F756E64204C6F7774
:10FD5A0020525443005068617365204661696C758E
:10FD6A007265004669656C64204D617070696E67E2
:10FD7A000041542B434D47443D312C340D0A005465
:10FD8A006F204C6F63616C2054696D650044697320
:10FD9A00706C6179204F6E2000437572736F722008
:10FDAA00486F6D6500446973706C6179204F6666AF
:10FDBA00004661696C656420557365720041542B75
:10FDCA004346554E3D300D0A0041542B434D47469C
:10FDDA003D310D0A0041542B4346554E3D310D0A23
:10FDEA000041542B434C54533D310D0A00204974B1
:10FDFA0065726174696F6E3A0047534D204E65749F
:10FE0A00776F726B00437572736F72204F6666006C
:10FE1A0041542B43434C4B3F0D0A00556479616DA5
:10FE2A0069204C4C50004C6F67696E20436F6465C3
:10FE3A000052657374696E6720546F0041542B43F6
:10FE4A004C54533F0D0A000D0A44656C6179313AEE
:10FE5A0020000D0A4F4E54696D653A200020447502
:10FE6A0065446174653A2000426C696E6B204F6686
:10FE7A006600437572736F72204F6E004973204695
:10FE8A0061696C6564004672657175656E637900B7
:10FE9A0041542B434D47533D220056657279204702
:10FEAA006F6F6400457863656C6C656E7400426CB4
:10FEBA00696E6B204F6E005072696E742061740017
:10FECA0041542B434D47523D0053656C656374653D
:10FEDA0064004665746368696E67004665637468A2
:10FEEA00696E670044656C6574696E670041542BDE
:10FEFA004353510D0A0044656C6179323A2000443B
:10FF0A00656C6179333A2000204F46467072643A34
:10FF1A00004D6F646572617465004572726F72207C
:10FF2A00496E0056657279204C6F77004368616E9E
:10FF3A006765640053657474696E6700447279205A
:10FF4A0052756E004E6F742053657400426174746A
:10FF5A0065727900204F4E7072643A004154453000
:10FF6A000D0A00415426570D0A00284D696E2920B2
:10FF7A00003C2D2D2D2D00403A302C3000403A31D6
:10FF8A002C3100403A322C3200403A332C33002DC7
:10FF9A002D2D2D3E0057726F6E670020616E642012
:10FFAA0000284D696E2900205765743A0020447272
:10FFBA00793A0054494D4500234F4646002069735B
:10FFCA002000506F6F7200313030250025642563A0
:10FFDA0000234F4E004C4F5700393625003937253C
:10FFEA000039382500393925004E4F002564003183
:05FFFA002500240000B9
:020000040001F9
:10000000000E0101F96F000EFA6F000EFE6F000E78
:10001000FD6F1E0ECA6FABEC06F0E30E0001776FAA
:10002000F60E786F020E796FC3ECF2F0520E0001FB
:10003000C16F2B0EC06F000EE82EFED7C02FFCD76D
:10004000C12FFAD700F0300E0001E1652AEF80F0F1
:100050002CEF80F053EF97F03A0EE16132EF80F031
:1000600034EF80F053EF97F0000E116E000EDE6F4C
:10007000C98080EF80F0CA0E0001616FFE0E626FD2
:1000800090ECFFF0E10E0001616F000E626F010E57
:10009000636FA2EC04F0440E0001616FFC0E626F0E
:1000A00090ECFFF0290E0001C16F960EC06F7F0E1D
:1000B000E82EFED7C02FFCD7C12FFAD71150D8A4F5
:1000C00064EF80F066EF80F080EF80F0CB0E0001EF
:1000D000C16FEC0EC06F840EE82EFED7C02FFCD788
:1000E000C12FFAD700F0CB0E0001C16FEC0EC06F2C
:1000F000840EE82EFED7C02FFCD7C12FFAD700F010
:100100001150D8B486EF80F088EF80F03BEF80F09C
:100110000E013885410E0001606F030E616F8D0E78
:10012000626FF50E636F000E656F030E646F28EC4F
:10013000F0F0000160516111D8A4A1EF80F0A3EFAD
:1001400080F042EF97F0E10E606F000E616F440E99
:10015000626F030E636F000E656F0A0E646FC5EC6D
:10016000FBF0E7ECFFF0000E0001606F040E616F22
:100170006B0E626F030E636F1DECFAF06AEC05F014
:10018000000E0001606F040E616F33EC04F0000993
:10019000D8B4CDEF80F0CFEF80F0D5EF80F0D2EC87
:1001A00005F0AEECD7F0E4EF80F0A30E0001C16FD4
:1001B000570EC06F020EE82EFED7C02FFCD7C12FFE
:1001C000FAD700F057EF97F0F50E0001606F000EC0
:1001D000616FE10E626F000E636F000E656F0A0EB5
:1001E000646F28ECF0F0000160516111D8A4FBEFBE
:1001F00080F0FDEF80F0C3EF95F0E10E606F000E30
:10020000616FD40E626F010E636F000E656F0A0E90
:10021000646FC5ECFBF0180E0001606F020E616F99
:10022000800E626FF50E636F000E656F040E646FD3
:1002300028ECF0F0000160516111D8A422EF81F0A8
:1002400024EF81F049EF81F0ABEC06F0740E000171
:10025000776FFC0E786F020E796FC3ECF2F05B0ED5
:100260000001776FFB0E786F030E796FC3ECF2F02D
:10027000000E0001DE6FC60E7D6FF40E7E6FF50E70
:100280007F6F000E806F000E816F58EC97F057EF74
:1002900097F0180E606F020E616FA30E626FF50E7D
:1002A000636F000E656F020E646F28ECF0F00001C2
:1002B00060516111D8A45FEF81F061EF81F0D4EF5C
:1002C00081F01B0E606F020E616FEE0E626F010E09
:1002D000636F000E656F060E646F28ECF0F000018E
:1002E00060516111D8A477EF81F079EF81F0AFEF21
:1002F00081F0ABEC06F0300E0001776FFE0E786FE8
:10030000020E796FC3ECF2F0360E0001776FFF0E2C
:10031000786F030E796FC3ECF2F0EE0E0001606FA0
:10032000010E616F220E626F020E636F000E656F29
:10033000060E646FC5ECFBF03BECFBF0000E000119
:10034000DE6FC20E7D6FF30E7E6FF50E7F6F000EB7
:10035000806F000E816F58EC97F057EF97F0ABEC81
:1003600006F09F0E0001776FFF0E786F020E796F17
:10037000C3ECF2F0300E0001776FFE0E786F030EC3
:10038000796FC3ECF2F0000E0001DE6F6F0E7D6F2F
:10039000F40E7E6FF50E7F6F000E806F000E816F82
:1003A00058EC97F057EF97F0180E606F020E616FE0
:1003B000990E626FF50E636F000E656F030E646F2A
:1003C00028ECF0F0000160516111D8A4EAEF81F04F
:1003D000ECEF81F00BEF85F0030E99ECD5F01E6E7B
:1003E000000E0101FE6F000EFD6F010EFC6F060E88
:1003F0000001DE6F180E0001DE25D96EDA6A020EEA
:10040000DA22DF50BAEC05F00009D8B40AEF82F026
:100410000CEF82F05EEF83F0190E0001DE25D96E3D
:10042000DA6A020EDA22200EDE18D8A41AEF82F061
:100430001CEF82F03DEF82F0180EDE25D96EDA6AED
:10044000020EDA22180EDE25E16EE26A020EE222C8
:10045000E750D00FDF6E180E0001DE25D96EDA6A84
:10046000020EDA22DF50C06FC0510101FD25FD6F81
:10047000000EFE21FE6F93EF83F0180EDE25D96E7D
:10048000DA6A020EDA22180EDE25E16EE26A020E48
:10049000E222E750D00FDF6E180EDE25D96EDA6A41
:1004A000020EDA22DF500A0D180EDE25D96EDA6A46
:1004B000020EDA22F3CFDFFFFDC160F0FEC161F072
:1004C000000E636F0A0E626F70EC06F060C0FDF103
:1004D00061C0FEF12BEF82F01E502D0DD90EF324DA
:1004E000D96E040EF420DA6EFDC1DEFFFEC1DDFF21
:1004F000000E0101FE6F000EFD6F91EF83F01E50A4
:100500002D0DF30EF324D96E040EF420DA6EFDC126
:10051000DFFF78EF82F01E502D0DF40EF324D96E1C
:10052000040EF420DA6EFDC1DFFF78EF82F01E507A
:100530002D0DF50EF324D96E040EF420DA6EFDC1F4
:10054000DFFF78EF82F01E502D0DD50EF324D96E0B
:10055000040EF420DA6EFDC1DEFFFEC1DDFF78EF90
:1005600082F01E502D0DD70EF324D96E040EF42008
:10057000DA6EFDC1DEFFFEC1DDFF78EF82F01E50B6
:100580002D0DFA0EF324D96E040EF420DA6EFDC19F
:10059000DFFF78EF82F01E502D0DFC0EF324D96E94
:1005A000040EF420DA6EFDC1DFFF1E502D0DFD0E8E
:1005B000F324D96E040EF420DA6EFDC1DFFF78EF6C
:1005C00082F00101FD51FFECCEF0000E0101FE6F43
:1005D000000EFD6F1E502D0DF60EF324D96E040E85
:1005E000F420DA6EC8C0DFFF1E502D0DF70EF32485
:1005F000D96E040EF420DA6ED5C0DFFF1E502D0D2B
:10060000F80EF324D96E040EF420DA6ED6C0DFFFA4
:100610001E502D0DFE0EF324D96E040EF420DA6E5A
:10062000000EDF6E1E502D0DFF0EF324D96E040E4A
:10063000F420DA6E010EDF6E1E502D0DDB0EF3245A
:10064000D96E040EF420DA6E000EDE6E000EDD6E42
:100650001E502D0DDD0EF324D96E040EF420DA6E3B
:10066000000EDE6E000EDD6E1E502D0DF90EF32411
:10067000D96E040EF420DA6E000EDF6E1E502D0DC2
:10068000000EF324D96E050EF420DA6E000EDF6E34
:100690001E502D0DFB0EF324D96E040EF420DA6EDD
:1006A000000EDF6E1E502D0D010EF324D96E050EC7
:1006B000F420DA6E000EDF6E91EF83F00101FC5141
:1006C0000001C06FC16BC151000AD8B46AEF83F05A
:1006D00091EF83F0C051010AD8B46CEF82F0030AA5
:1006E000D8B47FEF82F0010AD8B48BEF82F0070A0A
:1006F000D8B497EF82F0010AD8B4A3EF82F0030ACE
:10070000D8B4B1EF82F0010AD8B4BFEF82F00F0A7B
:10071000D8B4CBEF82F0010AD8B4E1EF82F091EFC8
:1007200083F00101FC2B0001DE2B090E0101FC65A9
:100730009CEF83F09EEF83F0FAEF81F0090E000149
:10074000C16F1E0EC06FE40EE82EFED7C02FFCD77F
:10075000C12FFAD700F01E50020D5B0EF324F66E87
:10076000E80EF420F76EF86A000EF8220900F5CFC3
:1007700063F00A00F5CF64F01E502D0DD50EF32462
:100780000001656F040EF420666FDBECE1F0090EEA
:100790000001C16F1E0EC06FE40EE82EFED7C02F01
:1007A000FCD7C12FFAD700F01E50020D5B0EF324C8
:1007B000F66EE80EF420F76EF86A000EF8220900D3
:1007C000F5CF63F00A00F5CF64F01E502D0DD50E65
:1007D000F3240001656F040EF420666F6BECF6F0F5
:1007E000090E0001C16F1E0EC06FE40EE82EFED789
:1007F000C02FFCD7C12FFAD700F01E50020D5B0EA0
:10080000F324F66EE80EF420F76EF86A000EF82274
:100810000900F5CF63F00A00F5CF64F01E502D0DEE
:10082000D50EF3240001656F040EF420666F3BECD7
:1008300003F0090E0001C16F1E0EC06FE40EE82E1A
:10084000FED7C02FFCD7C12FFAD700F01E50020DE3
:100850005B0EF324F66EE80EF420F76EF86A000ED5
:10086000F8220900F5CF63F00A00F5CF64F01E50BE
:100870002D0DD50EF3240001656F040EF420666F74
:1008800065EC03F0090E0001C16F1E0EC06FE40E8F
:10089000E82EFED7C02FFCD7C12FFAD700F01E508C
:1008A000020D5B0EF324F66EE80EF420F76EF86A84
:1008B000000EF8220900F5CF63F00A00F5CF64F0CE
:1008C0001E502D0DD50EF3240001656F040EF4208B
:1008D000666F11EC03F0090E0001C16F1E0EC06FB0
:1008E000E40EE82EFED7C02FFCD7C12FFAD700F0B8
:1008F0001E50020D5B0EF324F66EE80EF420F76E28
:10090000F86A000EF8220900F5CF63F00A00F5CF6F
:1009100064F01E502D0DD50EF3240001656F040EFA
:10092000F420666FE4ECC2F0090E0001C16F1E0EE8
:10093000C06FE40EE82EFED7C02FFCD7C12FFAD728
:1009400000F0090E1E60A7EF84F0A9EF84F0B1EF6C
:1009500084F0300E0001E16F1E50310FE26FC7EFDF
:1009600084F0080E1E64B7EF84F0B9EF84F0C7EF8F
:1009700084F0100E1E60BFEF84F0C1EF84F0C7EF6B
:1009800084F0310E0001E16F1E50270FE26F000E60
:100990000001DE6FABEC06F07A0E0001776FF60E09
:1009A000786F020E796FC3ECF2F0430E0001776F9F
:1009B000FD0E786F030E796FC3ECF2F0110E00019B
:1009C0006C6F030E07ECFFF0E10E0001B86F000E34
:1009D000B96FF60EBA6FFF0EBB6F010E1E24BC6F0F
:1009E000BD6B000EBD2363ECFFF0E10E00016C6FE8
:1009F000000E6D6F45ECFEF04E0E00017D6FF20EA5
:100A00007E6FF50E7F6F000E806F020E816F58ECC7
:100A100097F057EF97F0180E606F020E616F7B0E24
:100A2000626FF50E636F000E656F040E646F28EC45
:100A3000F0F0000160516111D8A421EF85F023EF9F
:100A400085F01FEF86F0040E99ECD5F01E6E1E5057
:100A50002D0DFE0EF324D96E040EF420DA6EDE04A2
:100A6000D8A435EF85F037EF85F03AEF85F0010E29
:100A70000001CF6F1E502D0DFF0EF324D96E040E12
:100A8000F420DA6E000EDF6E1E502D0D000EF324E2
:100A9000D96E050EF420DA6EDE04D8A452EF85F08C
:100AA00054EF85F094EF85F01E502D0D000EF324C9
:100AB000D96E050EF420DA6E000EDF6E090E00010D
:100AC000C16F1E0EC06FE40EE82EFED7C02FFCD7FC
:100AD000C12FFAD700F01E50020D5B0EF324F66E04
:100AE000E80EF420F76EF86A000EF8220900F5CF40
:100AF00063F00A00F5CF64F01E502D0DD50EF324DF
:100B00000001656F040EF420666FE4ECC2F0090E7C
:100B10000001C16F1E0EC06FE40EE82EFED7C02F7D
:100B2000FCD7C12FFAD700F01E50020D5B0EF32444
:100B3000F66EE80EF420F76EF86A000EF82209004F
:100B4000F5CF63F00A00F5CF64F01E502D0DD50EE1
:100B5000F3240001656F040EF420666F11EC03F0BE
:100B6000090E0001C16F1E0EC06FE40EE82EFED705
:100B7000C02FFCD7C12FFAD700F0090E1E60C3EFBB
:100B800085F0C5EF85F0CDEF85F0300E0001E16F07
:100B90001E50310FE26FDBEF85F0080E1E64D3EFBD
:100BA00085F0D5EF85F0DBEF85F0310E0001E16FC8
:100BB0001E50270FE26F000E0001DE6FABEC06F057
:100BC000C90E0001776FF70E786F020E796FC3ECD4
:100BD000F2F0430E0001776FFD0E786F030E796F10
:100BE000C3ECF2F0110E00016C6F030E07ECFFF086
:100BF000E10E0001B86F000EB96FF60EBA6FFF0E6E
:100C0000BB6F010E1E24BC6FBD6B000EBD2363ECD9
:100C1000FFF0E10E00016C6F000E6D6F45ECFEF011
:100C2000830E00017D6FF00E7E6FF50E7F6F000E5C
:100C3000806F020E816F58EC97F057EF97F0180E07
:100C4000606F020E616F4C0E626FF50E636F000EE7
:100C5000656F060E646F28ECF0F0000160516111C1
:100C6000D8A435EF86F037EF86F0C5EF89F0000E97
:100C70000101FE6F000EFD6F000EFC6F060E99EC79
:100C8000D5F01E6E1E502D0DFF0EF324D96E040EEE
:100C9000F420DA6EDF50D8A450EF86F052EF86F0E1
:100CA000BDEF86F0090E1E6058EF86F05AEF86F011
:100CB00062EF86F0300E0001E16F1E50310FE26FDF
:100CC00070EF86F0080E1E6468EF86F06AEF86F01B
:100CD00070EF86F0310E0001E16F1E50270FE26FBA
:100CE000000E0001DE6FABEC06F0A40E0001776F82
:100CF000F60E786F020E796FC3ECF2F0E30E00018E
:100D0000776FF50E786F030E796FC3ECF2F0430E38
:100D10000001776FFD0E786F040E796FC3ECF2F06F
:100D2000110E00016C6F040E07ECFFF0E10E0001E4
:100D3000B86F000EB96FF60EBA6FFF0EBB6F010EE3
:100D40001E24BC6FBD6B000EBD2363ECFFF0E10EF3
:100D500000016C6F000E6D6F45ECFEF0080E000197
:100D60007D6FED0E7E6FF50E7F6F000E806F020EB1
:100D7000816F58EC97F057EF97F0090E0001DE6F86
:100D8000180E0001DE25D96EDA6A020EDA22DF5073
:100D9000BAEC05F00009D8B4D0EF86F0D2EF86F0B7
:100DA00032EF87F0190E0001DE25D96EDA6A020EE5
:100DB000DA22200EDE18D8A4E0EF86F0E2EF86F00B
:100DC00003EF87F0180EDE25D96EDA6A020EDA22FA
:100DD000180EDE25E16EE26A020EE222E750D00F25
:100DE000DF6E180E0001DE25D96EDA6A020EDA22F5
:100DF000DF50C06FC0510101FD25FD6F000EFE21C7
:100E0000FE6F12EF89F0180EDE25D96EDA6A020E37
:100E1000DA22180EDE25E16EE26A020EE222E750C7
:100E2000D00FDF6E180EDE25D96EDA6A020EDA22D6
:100E3000DF500A0D180EDE25D96EDA6A020EDA22AC
:100E4000F3CFDFFFFDC160F0FEC161F0000E636F04
:100E50000A0E626F70EC06F060C0FDF161C0FEF139
:100E6000F1EF86F00101FC2BC8EF88F01E502D0D2C
:100E7000DB0EF324D96E040EF420DA6EFDC1DEFF22
:100E8000FEC1DDFF000E0101FE6F000EFD6F12EFCF
:100E900089F01E502D0DDD0EF324D96E040EF420C2
:100EA000DA6EFDC1DEFFFEC1DDFF42EF87F01E50AE
:100EB0002D0DF90EF324D96E040EF420DA6EFDC167
:100EC000DFFF42EF87F01E502D0DDF0EF324D96EA9
:100ED000040EF420DA6EFDC1DEFFFEC1DDFF42EF3D
:100EE00087F01E502D0DE70EF324D96E040EF4206A
:100EF000DA6EFDC1DEFFFEC1DDFF42EF87F01E505E
:100F00002D0DEF0EF324D96E040EF420DA6EFDC120
:100F1000DFFF42EF87F01E502D0DE10EF324D96E56
:100F2000040EF420DA6EFDC1DEFFFEC1DDFF42EFEC
:100F300087F01E502D0DE90EF324D96E040EF42017
:100F4000DA6EFDC1DEFFFEC1DDFF42EF87F01E500D
:100F50002D0DF00EF324D96E040EF420DA6EFDC1CF
:100F6000DFFF42EF87F01E502D0DE30EF324D96E04
:100F7000040EF420DA6EFDC1DEFFFEC1DDFF42EF9C
:100F800087F01E502D0DEB0EF324D96E040EF420C5
:100F9000DA6EFDC1DEFFFEC1DDFF42EF87F01E50BD
:100FA0002D0DF10EF324D96E040EF420DA6EFDC17E
:100FB000DFFF42EF87F01E502D0DE50EF324D96EB2
:100FC000040EF420DA6EFDC1DEFFFEC1DDFF42EF4C
:100FD00087F01E502D0DED0EF324D96E040EF42073
:100FE000DA6EFDC1DEFFFEC1DDFF42EF87F01E506D
:100FF0002D0DF20EF324D96E040EF420DA6EFDC12D
:10100000DFFF1E502D0DFB0EF324D96E040EF420CD
:10101000DA6E000EDF6E1E502D0D010EF324D96E18
:10102000050EF420DA6E000EDF6E000E0101FE6F79
:10103000000EFD6F1E502D0DD90EF324D96E040E37
:10104000F420DA6E1E502D0DDD0EF324E16E040E39
:10105000F420E26EE6CFC2F0E5CFC3F01E502D0DB6
:10106000DB0EF324E16E040EF420E26EE6CFC4F052
:10107000E5CFC5F00001C251C427C351C523DE50DE
:10108000C45DDE50C559D8A048EF88F04AEF88F01B
:10109000BCEF88F01E502D0D000EF324D96E050E06
:1010A000F420DA6E000EDF6E090E1E605AEF88F033
:1010B0005CEF88F063EF88F0300EE16F1E50310F67
:1010C000E26F70EF88F0080E1E6469EF88F06BEF36
:1010D00088F070EF88F0310EE16F1E50270FE26F3D
:1010E000000EDE6FABEC06F0830E0001776FFC0E96
:1010F000786F020E796FC3ECF2F0E30E0001776FA8
:10110000F50E786F030E796FC3ECF2F0430E000119
:10111000776FFD0E786F040E796FC3ECF2F0110E4D
:1011200000016C6F040E07ECFFF0E10E0001B86FD8
:10113000000EB96FF60EBA6FFF0EBB6F010E1E24C4
:10114000BC6FBD6B000EBD2363ECFFF0E10E000130
:101150006C6F000E6D6F45ECFEF01D0E00017D6F93
:10116000EF0E7E6FF50E7F6F000E806F020E816FA7
:1011700058EC97F012EF89F01E502D0D000EF3245D
:10118000D96E050EF420DA6E010EDF6E12EF89F0D3
:10119000FC510001C06FC16BC151000AD8B4D3EF3C
:1011A00088F012EF89F0C051010AD8B436EF87F009
:1011B000030AD8B449EF87F0010AD8B457EF87F093
:1011C000070AD8B463EF87F0010AD8B471EF87F04B
:1011D000030AD8B47FEF87F0010AD8B48BEF87F009
:1011E0000F0AD8B499EF87F0010AD8B4A7EF87F0B7
:1011F000030AD8B4B3EF87F0010AD8B4C1EF87F07F
:10120000070AD8B4CFEF87F0010AD8B4DBEF87F034
:10121000030AD8B4E9EF87F0010AD8B4F7EF87F0F2
:1012200012EF89F00001DE2B0E0E0101FC651BEFB1
:1012300089F01DEF89F0C0EF86F01E502D0D000ED5
:10124000F324D96E050EF420DA6EDF50D8B42BEFFC
:1012500089F02DEF89F057EF97F0090E0001C16F6B
:101260001E0EC06FE40EE82EFED7C02FFCD7C12F94
:10127000FAD700F01E50020D5B0EF324F66EE80E56
:10128000F420F76EF86A000EF8220900F5CF63F03B
:101290000A00F5CF64F01E502D0DD50EF324000189
:1012A000656F040EF420666FE4ECC2F0090E0001D5
:1012B000C16F1E0EC06FE40EE82EFED7C02FFCD704
:1012C000C12FFAD700F0090E1E6069EF89F06BEFAD
:1012D00089F073EF89F0300E0001E16F1E50310F7D
:1012E000E26F81EF89F0080E1E6479EF89F07BEFE1
:1012F00089F081EF89F0310E0001E16F1E50270F58
:10130000E26F000E0001DE6FABEC06F08F0E000105
:10131000776FF60E786F020E796FC3ECF2F0430E22
:101320000001776FFD0E786F030E796FC3ECF2F05A
:10133000110E00016C6F030E07ECFFF0E10E0001CF
:10134000B86F000EB96FF60EBA6FFF0EBB6F010ECD
:101350001E24BC6FBD6B000EBD2363ECFFF0E10EDD
:1013600000016C6F000E6D6F45ECFEF0FC0E00018D
:101370007D6FF20E7E6FF50E7F6F000E806F020E96
:10138000816F58EC97F057EF97F0180E606F020ED0
:10139000616F280E626FF50E636F000E656F070EAA
:1013A000646F28ECF0F0000160516111D8A4DBEF0C
:1013B00089F0DDEF89F0B7EF8AF0070E99ECD5F0F0
:1013C0001E6E1E502D0DFE0EF324D96E040EF42059
:1013D000DA6EDE04D8A4EFEF89F0F1EF89F005EFC3
:1013E0008AF01E502D0DFB0EF324D96E040EF4204E
:1013F000DA6E030EDE18D8B400EF8AF002EF8AF03E
:1014000005EF8AF0010E0001CF6F1E502D0D000E6A
:10141000F324D96E050EF420DA6EDE04D8A413EF9F
:101420008AF015EF8AF057EF97F01E502D0D000E41
:10143000F324D96E050EF420DA6E000EDF6E090E6D
:101440000001C16F1E0EC06FE40EE82EFED7C02F44
:10145000FCD7C12FFAD700F01E50020D5B0EF3240B
:10146000F66EE80EF420F76EF86A000EF822090016
:10147000F5CF63F00A00F5CF64F01E502D0DD50EA8
:10148000F3240001656F040EF420666FE4ECC2F0F3
:10149000090E0001C16F1E0EC06FE40EE82EFED7CC
:1014A000C02FFCD7C12FFAD700F0090E1E605BEFEA
:1014B0008AF05DEF8AF065EF8AF0300E0001E16F8F
:1014C0001E50310FE26F73EF8AF0080E1E646BEF4F
:1014D0008AF06DEF8AF073EF8AF0310E0001E16F50
:1014E0001E50270FE26F000E0001DE6FABEC06F01E
:1014F000DD0E0001776FF70E786F020E796FC3EC87
:10150000F2F0430E0001776FFD0E786F030E796FD6
:10151000C3ECF2F0110E00016C6F030E07ECFFF04C
:10152000E10E0001B86F000EB96FF60EBA6FFF0E34
:10153000BB6F010E1E24BC6FBD6B000EBD2363ECA0
:10154000FFF0E10E00016C6F000E6D6F45ECFEF0D8
:10155000950E00017D6FF20E7E6FF50E7F6F000E0F
:10156000806F020E816F58EC97F057EF97F0180ECE
:10157000606F020E616F450E626FF50E636F000EB5
:10158000656F060E646F28ECF0F000016051611188
:10159000D8A4CDEF8AF0CFEF8AF0DFEF8BF0000E0A
:1015A0000101FE6F000EFD6F000EFC6F060E0001C4
:1015B000DE6F180E0001DE25D96EDA6A020EDA221D
:1015C000DF50BAEC05F00009D8B4E9EF8AF0EBEF90
:1015D0008AF04BEF8BF0190E0001DE25D96EDA6A26
:1015E000020EDA22200EDE18D8A4F9EF8AF0FBEF03
:1015F0008AF01CEF8BF0180EDE25D96EDA6A020E27
:10160000DA22180EDE25E16EE26A020EE222E750CF
:10161000D00FDF6E180E0001DE25D96EDA6A020ED9
:10162000DA22DF50C06FC0510101FD25FD6F000EB1
:10163000FE21FE6F92EF8BF0180EDE25D96EDA6A6E
:10164000020EDA22180EDE25E16EE26A020EE222B6
:10165000E750D00FDF6E180EDE25D96EDA6A020E63
:10166000DA22DF500A0D180EDE25D96EDA6A020E74
:10167000DA22F3CFDFFFFDC160F0FEC161F0000EA2
:10168000636F0A0E626F70EC06F060C0FDF161C01E
:10169000FEF10AEF8BF00101FC2B70EF8BF0FDC126
:1016A00018F0000E0101FE6F000EFD6F92EF8BF03F
:1016B000FDC117F051EF8BF0FDC116F051EF8BF02B
:1016C000FDC115F051EF8BF0FDC1CAF0CB6B000EE0
:1016D0000101FE6F000EFD6F010E0E6E92EF8BF09A
:1016E000FC510001C06FC16BC151000AD8B47BEF3F
:1016F0008BF092EF8BF0C051010AD8B44FEF8BF012
:10170000030AD8B458EF8BF0010AD8B45CEF8BF021
:10171000070AD8B460EF8BF0010AD8B464EF8BF0FD
:1017200092EF8BF00001DE2B040E0101FC659BEFB4
:101730008BF09DEF8BF0D9EF8AF0090E0001C16F9D
:101740001E0EC06FE40EE82EFED7C02FFCD7C12FAF
:10175000FAD700F08AECE6F0090E0001C16F1E0E08
:10176000C06FE40EE82EFED7C02FFCD7C12FFAD7EA
:1017700000F0000E0001DE6FABEC06F0620E00011F
:10178000776FFB0E786F020E796FC3ECF2F0540E98
:101790000001776FF90E786F030E796FC3ECF2F0EA
:1017A000540E00017D6FF40E7E6FF50E7F6F000EFC
:1017B000806F000E816F58EC97F057EF97F0180E7E
:1017C000606F020E616F200E626FF50E636F000E88
:1017D000656F070E646F28ECF0F000016051611135
:1017E000D8A4F5EF8BF0F7EF8BF03BEF8CF0000E09
:1017F0000E6E090E0001C16F1E0EC06FE40EE82EC2
:10180000FED7C02FFCD7C12FFAD700F08AECE6F044
:10181000090E0001C16F1E0EC06FE40EE82EFED748
:10182000C02FFCD7C12FFAD700F0000E0001DE6FE9
:10183000ABEC06F0620E0001776FFB0E786F020EC4
:10184000796FC3ECF2F0CE0E0001776FF60E786F71
:10185000030E796FC3ECF2F0010E00017D6FF40E00
:101860007E6FF50E7F6F000E806F000E816F58EC5B
:1018700097F057EF97F0180E606F020E616F6B0EC6
:10188000626FF50E636F000E656F050E646F28ECD6
:10189000F0F0000160516111D8A451EF8CF053EFCA
:1018A0008CF0A5EF8CF00E50D8B459EF8CF05BEFB4
:1018B0008CF080EF8CF0000EDE6FABEC06F0E50EE6
:1018C0000001776FFE0E786F020E796FC3ECF2F0B5
:1018D0002D0E0001776FF80E786F030E796FC3EC51
:1018E000F2F0390E00017D6FF40E7E6FF50E7F6F02
:1018F000000E806F080E816F58EC97F057EF97F04D
:10190000000EDE6FABEC06F0620E0001776FFB0E8F
:10191000786F020E796FC3ECF2F0920E0001776FD0
:10192000FC0E786F030E796FC3ECF2F0A20E00018B
:101930007D6FF30E7E6FF50E7F6F000E806F000ED1
:10194000816F58EC97F057EF97F0180E606F020E0A
:10195000616F710E626FF50E636F000E656F040E9E
:10196000646F28ECF0F0000160516111D8A4BBEF66
:101970008CF0BDEF8CF0CCEF8DF0000E0101FE6F0E
:10198000000EFD6F000EFC6F050E0001DE6F180EDD
:101990000001DE25D96EDA6A020EDA22DF50BAECD7
:1019A00005F00009D8B4D7EF8CF0D9EF8CF069EFCF
:1019B0008DF0180E0001DE25D96EDA6A020EDA22E9
:1019C000180EDE25E16EE26A020EE222E750D00F29
:1019D000DF6E180EDE25D96EDA6A020EDA22DF50CB
:1019E000C06FC0510101FD6FFE6BFDC160F0FEC113
:1019F00061F0000E0001636F0A0E626F70EC06F07A
:101A000060C0FDF161C0FEF1190E0001DE25D96E46
:101A1000DA6A020EDA22190EDE25E16EE26A020EA1
:101A2000E222E750D00FDF6E190EDE25D96EDA6A9A
:101A3000020EDA22DF50C06FC0510101FD25FD6F9B
:101A4000000EFE21FE6FFC2B43EF8DF0FDC1DAF09E
:101A5000000E0101FE6F000EFD6F8FEF8DF0FDC1D6
:101A6000DBF028EF8DF0FDC1DCF028EF8DF0FDC13B
:101A7000D9F028EF8DF0FDC1D8F028EF8DF0FDC131
:101A8000D7F028EF8DF0FC510001C06FC16BC15140
:101A9000000AD8B44EEF8DF08FEF8DF0C051010ADF
:101AA000D8B426EF8DF0030AD8B42FEF8DF0010AD9
:101AB000D8B433EF8DF0070AD8B437EF8DF0010AB0
:101AC000D8B43BEF8DF0030AD8B43FEF8DF08FEF21
:101AD0008DF0000E0001DE6FABEC06F00D0E000184
:101AE000776FF70E786F020E796FC3ECF2F0070E86
:101AF0000001776FF70E786F030E796FC3ECF2F089
:101B00001E0E00017D6FF40E7E6FF50E7F6F000ECE
:101B1000806F000E816F58EC97F057EF97F0030E2F
:101B20000001DE27050E0101FC6599EF8DF09BEFAA
:101B30008DF0C7EF8CF0060EFC19D8A4A2EF8DF043
:101B4000A4EF8DF0A6EF8DF0E0ECF8F0000E0001B0
:101B5000DE6FABEC06F01B0E0001776FF90E786FAD
:101B6000020E796FC3ECF2F0890E0001776FFD0E63
:101B7000786F030E796FC3ECF2F03F0E00017D6FBA
:101B8000F10E7E6FF50E7F6F000E806F000E816F7D
:101B900058EC97F057EF97F0180E606F020E616FD8
:101BA000760E626FF50E636F000E656F040E646F44
:101BB00028ECF0F0000160516111D8A4E2EF8DF043
:101BC000E4EF8DF0B6EF8EF032ECF7F0DAC060F0B3
:101BD0000001616B000E636F0A0E626FCFECF6F0CE
:101BE00000016051300FE16FDAC072F0736B000ECC
:101BF000756F0A0E746F8EECF7F000017251300FA2
:101C0000E26F2F0EE36FDBC060F0616B000E636F5D
:101C10000A0E626FCFECF6F000016051300FE46FF6
:101C2000DBC072F0736B000E756F0A0E746F8EEC72
:101C3000F7F000017251300FE56F2F0EE66FDCC038
:101C400060F0616B000E636F0A0E626FCFECF6F00E
:101C500000016051300FE76FDCC072F0736B000E53
:101C6000756F0A0E746F8EECF7F000017251300F31
:101C7000E86F200EE96FD9C060F0616B000E636FF2
:101C80000A0E626FCFECF6F000016051300FEA6F80
:101C9000D9C072F0736B000E756F0A0E746F8EEC04
:101CA000F7F000017251300FEB6F3A0EEC6FD8C0B5
:101CB00060F0616B000E636F0A0E626FCFECF6F09E
:101CC00000016051300FED6FD8C072F0736B000EE1
:101CD000756F0A0E746F8EECF7F000017251300FC1
:101CE000EE6F3A0EEF6FD7C060F0616B000E636F5E
:101CF0000A0E626FCFECF6F000016051300FF06F0A
:101D0000D7C072F0736B000E756F0A0E746F8EEC95
:101D1000F7F000017251300FF16F000EDE6FABEC87
:101D200006F0350E0001776FFD0E786F020E796FA9
:101D3000C3ECF2F0010E00016C6F030E07ECFFF034
:101D4000E10E00016C6F000E6D6F45ECFEF0E60ECB
:101D500000017D6FF40E7E6FF50E7F6F000E806FB9
:101D6000030E816F58EC97F057EF97F0180E606FE5
:101D7000020E616F180E626FF50E636F000E656FD5
:101D8000070E646F28ECF0F0000160516111D8A4D7
:101D9000CCEF8EF0CEEF8EF08EEF8FF0070E99EC39
:101DA000D5F01E6E090E1E60D8EF8EF0DAEF8EF0C1
:101DB000E2EF8EF0300E0001E16F1E50310FE26F46
:101DC000F0EF8EF0080E1E64E8EF8EF0EAEF8EF072
:101DD000F0EF8EF0310E0001E16F1E50270FE26F21
:101DE000000E0001DE6F1E502D0DFF0EF324D96E84
:101DF000040EF420DA6EDF50D8B401EF8FF003EF59
:101E00008FF04DEF8FF0ABEC06F0560E0001776FC0
:101E1000FC0E786F020E796FC3ECF2F0600E0001D9
:101E2000776FF60E786F030E796FC3ECF2F0430E06
:101E30000001776FFD0E786F040E796FC3ECF2F03E
:101E4000110E00016C6F040E07ECFFF0E10E0001B3
:101E5000B86F000EB96FF60EBA6FFF0EBB6F010EB2
:101E60001E24BC6FBD6B000EBD2363ECFFF0E10EC2
:101E700000016C6F000E6D6F45ECFEF0F50E000179
:101E80007D6FF40E7E6FF50E7F6F000E806F070E74
:101E9000816F58EC97F057EF97F0ABEC06F0B90E66
:101EA0000001776FF60E786F020E796FC3ECF2F0D7
:101EB000430E0001776FFD0E786F030E796FC3EC50
:101EC000F2F0110E00016C6F030E07ECFFF0E10E53
:101ED0000001B86F000EB96FF60EBA6FFF0EBB6F40
:101EE000010E1E24BC6FBD6B000EBD2363ECFFF022
:101EF000E10E00016C6F000E6D6F45ECFEF0B90E47
:101F000000017D6FF10E7E6FF50E7F6F000E806F0A
:101F1000020E816F58EC97F057EF97F0180E606F34
:101F2000020E616FA00E626FF50E636F000E656F9B
:101F3000020E646F28ECF0F0000160516111D8A42A
:101F4000A4EF8FF0A6EF8FF0D0EF90F090A0ABEF62
:101F50008FF0ADEF8FF0DBEF8FF0000EDE6FABECAC
:101F600006F02F0E0001776FFB0E786F020E796F6F
:101F7000C3ECF2F08D0E0001776FF90E786F030E4F
:101F8000796FC3ECF2F04E0E0001776FFF0E786FA1
:101F9000040E796FC3ECF2F0520E00017D6FF00E6B
:101FA0007E6FF50E7F6F000E806F000E816F58EC14
:101FB00097F057EF97F0000E0101FE6F000EFD6FD6
:101FC000000EFC6F010EFC6F030E0001DE6F180E99
:101FD0000001DE25D96EDA6A020EDA22DF50BAEC91
:101FE00005F00009D8B4F7EF8FF0F9EF8FF06AEF42
:101FF00090F0190E0001DE25D96EDA6A020EDA229F
:10200000200EDE18D8A407EF90F009EF90F02AEF29
:1020100090F0180EDE25D96EDA6A020EDA22180E5A
:10202000DE25E16EE26A020EE222E750D00FDF6E9B
:10203000180E0001DE25D96EDA6A020EDA22DF50B0
:10204000C06FC0510101FD25FD6F000EFE21FE6F26
:1020500083EF90F0180EDE25D96EDA6A020EDA22CE
:10206000180EDE25E16EE26A020EE222E750D00F82
:10207000DF6E180EDE25D96EDA6A020EDA22DF5024
:102080000A0D180EDE25D96EDA6A020EDA22F3CFB7
:10209000DFFFFDC160F0FEC161F0000E636F0A0E4C
:1020A000626F70EC06F060C0FDF161C0FEF118EFE8
:1020B00090F0FDC193F1FEC194F1000E0101FE6F9D
:1020C000000EFD6F81EF90F0FDC120F0FEC121F008
:1020D0005DEF90F00101FC510001C06FC16BC15177
:1020E000000AD8B476EF90F081EF90F0C051010A69
:1020F000D8B459EF90F0030AD8B464EF90F081EFB0
:1021000090F00101FC2B0001DE2B020E0101FC65A9
:102110008CEF90F08EEF90F0E7EF8FF0090E00015A
:10212000C16F1E0EC06FE40EE82EFED7C02FFCD785
:10213000C12FFAD700F08DECEFF0090E0001C16F4E
:102140001E0EC06FE40EE82EFED7C02FFCD7C12FA5
:10215000FAD700F0000E0001DE6FABEC06F08D0E3A
:102160000001776FF90E786F020E796FC3ECF2F011
:10217000A60E0001776FFB0E786F030E796FC3EC2C
:10218000F2F0720E00017D6FF20E7E6FF50E7F6F22
:10219000000E806F000E816F58EC97F057EF97F0AC
:1021A000180E606F020E616F650E626FF50E636F41
:1021B000000E656F050E646F28ECF0F000016051B1
:1021C0006111D8A4E6EF90F0E8EF90F00DEF91F0F8
:1021D000000EDE6FABEC06F0DD0E0001776FFC0E3B
:1021E000786F020E796FC3ECF2F0A50E0001776FE5
:1021F000F80E786F030E796FC3ECF2F0E20E000177
:102200007D6FF00E7E6FF50E7F6F000E806F050EF6
:10221000816F58EC97F057EF97F0180E606F020E31
:10222000616F100E626FF50E636F000E656F070E23
:10223000646F28ECF0F0000160516111D8A423EF25
:1022400091F025EF91F0DAEF91F0070E99ECD5F0CF
:102250001E6E090E0001C16F1E0EC06FE40EE82E47
:10226000FED7C02FFCD7C12FFAD700F01E5031EC9B
:10227000F9F0090E1E603FEF91F041EF91F049EF48
:1022800091F0300E0001E16F1E50310FE26F57EFF9
:1022900091F0080E1E644FEF91F051EF91F057EF5F
:1022A00091F0310E0001E16F1E50270FE26F000127
:1022B000D351D8B45EEF91F060EF91F0ACEF91F0B4
:1022C000000ED36FABEC06F0270E0001776FFC0E0B
:1022D000786F020E796FC3ECF2F0860E0001776F13
:1022E000FE0E786F030E796FC3ECF2F0430E00011F
:1022F000776FFD0E786F040E796FC3ECF2F0110E5C
:1023000000016C6F040E07ECFFF0E10E0001B86FE6
:10231000000EB96FF60EBA6FFF0EBB6F010E1E24D2
:10232000BC6FBD6B000EBD2363ECFFF0E10E00013E
:102330006C6F000E6D6F45ECFEF0910E00017D6F2D
:10234000F10E7E6FF50E7F6F000E806F020E816FB3
:1023500058EC97F057EF97F0000EDE6FABEC06F0FD
:10236000DC0E0001776FFE0E786F020E796FC3EC02
:10237000F2F0270E0001776FFC0E786F030E796F75
:10238000C3ECF2F0900E0001776FFE0E786F040E32
:10239000796FC3ECF2F0110E00017D6FF10E7E6FCC
:1023A000F50E7F6F000E806F060E816F58EC97F070
:1023B00057EF97F0180E606F020E616F910E626F0B
:1023C000F50E636F000E656F030E646F28ECF0F07E
:1023D000000160516111D8A4F0EF91F0F2EF91F09B
:1023E0009EEF92F0030E99ECD5F01E6E090E0001DF
:1023F000C16F1E0EC06FE40EE82EFED7C02FFCD7B3
:10240000C12FFAD700F090A008EF92F00AEF92F0F7
:102410002CEF92F0000E0001DE6FABEC06F02F0EF9
:102420000001776FFB0E786F020E796FC3ECF2F04C
:102430008D0E0001776FF90E786F030E796FC3EC84
:10244000F2F04E0E0001776FFF0E786F040E796F79
:10245000C3ECF2F0CCEF8FF0090E1E6032EF92F079
:1024600034EF92F03CEF92F0300E0001E16F1E501D
:10247000310FE26F4AEF92F0080E1E6442EF92F0C5
:1024800044EF92F04AEF92F0310E0001E16F1E50DE
:10249000270FE26FCB0E0001C16FEC0EC06F840EF0
:1024A000E82EFED7C02FFCD7C12FFAD700F0CB0EF5
:1024B0000001C16FEC0EC06F840EE82EFED7C02F56
:1024C000FCD7C12FFAD700F01EC06DF0010E6DECE5
:1024D000CCF0520E0001C16F2B0EC06F000EE82E23
:1024E000FED7C02FFCD7C12FFAD700F08DECEFF04C
:1024F000520E0001C16F2B0EC06F000EE82EFED7EA
:10250000C02FFCD7C12FFAD700F0000E0001DE6FFC
:10251000ABEC06F08D0E0001776FF90E786F020EAE
:10252000796FC3ECF2F0A60E0001776FFB0E786FA7
:10253000030E796FC3ECF2F0FEEF90F0180E606FAF
:10254000020E616F3E0E626FF50E636F000E656FD7
:10255000060E646F28ECF0F0000160516111D8A400
:10256000B4EF92F0B6EF92F03EEF95F0000E01015D
:10257000FE6F000EFD6F000EFC6F070E0001DE6F98
:10258000180E0001DE25D96EDA6A020EDA22DF505B
:10259000BAEC05F00009D8B4D0EF92F0D2EF92F087
:1025A0004CEF93F0180E0001DE25D96EDA6A020EA8
:1025B000DA22180EDE25E16EE26A020EE222E75010
:1025C000D00FDF6E180EDE25D96EDA6A020EDA221F
:1025D000DF50C06FC0510101FD6FFE6BFDC160F0A7
:1025E000FEC161F0000E0001636F0A0E626F70ECB5
:1025F00006F060C0FDF161C0FEF1190E0001DE259C
:10260000D96EDA6A020EDA22190EDE25E16EE26A6E
:10261000020EE222E750D00FDF6E190EDE25D96ED2
:10262000DA6A020EDA22DF50C06FC0510101FD25C7
:10263000FD6F000EFE21FE6FFC2B32EF93F0FDC10B
:10264000F9F1000E0101FE6F000EFD6F4CEF93F0EB
:10265000FDC1FAF121EF93F00101FD51FFECCEF045
:1026600021EF93F0FC510001C06FC16BC151000A12
:10267000D8B43DEF93F04CEF93F0C051010AD8B4B9
:102680001FEF93F0030AD8B428EF93F0010AD8B4EF
:102690002CEF93F04CEF93F0030E0001DE27020EB7
:1026A0000101FC6556EF93F058EF93F0C0EF92F004
:1026B000000E1E6E25EF95F01E502D0DD90EF32441
:1026C000D96E040EF420DA6E0F0EDE6E000EDD6E93
:1026D0001E502D0DF30EF324D96E040EF420DA6E85
:1026E000010EDF6E1E502D0DF40EF324D96E040E74
:1026F000F420DA6EF9C1DFFF1E502D0DF50EF32424
:10270000D96E040EF420DA6EFAC1DFFF1E502D0DD3
:10271000F60EF324D96E040EF420DA6EC8C0DFFF83
:102720001E502D0DF70EF324D96E040EF420DA6E30
:10273000D5C0DFFF1E502D0DF80EF324D96E040E08
:10274000F420DA6ED6C0DFFF1E502D0DD50EF32417
:10275000D96E040EF420DA6E640EDE6E000EDD6EAD
:102760001E502D0DD70EF324D96E040EF420DA6E10
:10277000300EDE6E750EDD6E1E502D0DFA0EF3243A
:10278000D96E040EF420DA6E1E28DF6E1E502D0D59
:10279000FE0EF324D96E040EF420DA6E000EDF6E06
:1027A0001E502D0DFC0EF324D96E040EF420DA6EAB
:1027B000020EDF6E1E502D0DFD0EF324D96E040E99
:1027C000F420DA6E020EDF6E1E502D0DFF0EF32484
:1027D000D96E040EF420DA6E010EDF6E1E502D0D40
:1027E000DB0EF324D96E040EF420DA6E050EDE6ED5
:1027F000000EDD6E1E502D0DDD0EF324D96E040E7D
:10280000F420DA6E0F0EDE6E000EDD6E1E502D0D02
:10281000F90EF324D96E040EF420DA6E1E28DF6E52
:102820001E502D0DFB0EF324D96E040EF420DA6E2B
:10283000000EDF6E1E502D0D010EF324D96E050E15
:10284000F420DA6E000EDF6E1E502D0D000EF32404
:10285000D96E050EF420DA6E010EDF6E1E50020DE9
:102860005B0EF324F66EE80EF420F76EF86A000EA5
:10287000F8220900F5CF63F00A00F5CF64F01E508E
:102880002D0DD50EF3240001656F040EF420666F44
:10289000DBECE1F0090E0001C16F1E0EC06FE40E0B
:1028A000E82EFED7C02FFCD7C12FFAD700F01E505C
:1028B000020D5B0EF324F66EE80EF420F76EF86A54
:1028C000000EF8220900F5CF63F00A00F5CF64F09E
:1028D0001E502D0DD50EF3240001656F040EF4205B
:1028E000666F6BECF6F0090E0001C16F1E0EC06F33
:1028F000E40EE82EFED7C02FFCD7C12FFAD700F088
:102900001E50020D5B0EF324F66EE80EF420F76EF7
:10291000F86A000EF8220900F5CF63F00A00F5CF3F
:1029200064F01E502D0DD50EF3240001656F040ECA
:10293000F420666F3BEC03F0090E0001C16F1E0E20
:10294000C06FE40EE82EFED7C02FFCD7C12FFAD7F8
:1029500000F01E50020D5B0EF324F66EE80EF4201C
:10296000F76EF86A000EF8220900F5CF63F00A004E
:10297000F5CF64F01E502D0DD50EF3240001656FC8
:10298000040EF420666F65EC03F0090E0001C16FC0
:102990001E0EC06FE40EE82EFED7C02FFCD7C12F4D
:1029A000FAD700F01E50020D5B0EF324F66EE80E0F
:1029B000F420F76EF86A000EF8220900F5CF63F0F4
:1029C0000A00F5CF64F01E502D0DD50EF324000142
:1029D000656F040EF420666F11EC03F0090E000120
:1029E000C16F1E0EC06FE40EE82EFED7C02FFCD7BD
:1029F000C12FFAD700F01E50020D5B0EF324F66EC5
:102A0000E80EF420F76EF86A000EF8220900F5CF00
:102A100063F00A00F5CF64F01E502D0DD50EF3249F
:102A20000001656F040EF420666FE4ECC2F0090E3D
:102A30000001C16F1E0EC06FE40EE82EFED7C02F3E
:102A4000FCD7C12FFAD700F01E2A0F0E1E642BEF01
:102A500095F02DEF95F05CEF93F0000E0001DE6F26
:102A6000B30E7D6FF40E7E6FF50E7F6F000E806FDC
:102A7000000E816F58EC97F057EF97F0180E606FCB
:102A8000020E616F950E626FF50E636F000E656F3B
:102A9000030E646F28ECF0F0000160516111D8A4BE
:102AA00054EF95F056EF95F0C1EF95F0040E01014B
:102AB000FB6F8DEF95F0FB5199ECD5F01E6E010187
:102AC000FB51020F99ECD5F00001C06F010EC02739
:102AD0001E50C16FC26BD890C137C237000EC125DE
:102AE000D96E020EC221DA6EC0C0DFFF0101FB51B8
:102AF000040F99ECD5F00001C06F010EC0271E50E5
:102B0000020D010EF324D96E020EF420DA6EC0C05D
:102B1000DFFF0101FB51060FFB6F180EFB25D96E7D
:102B2000DA6A020EDA22200EDE18D8A49AEF95F0A7
:102B30009CEF95F05BEF95F0ABEC06F06D0E0001AD
:102B4000776FFD0E786F020E796FC3ECF2F0960E80
:102B50000001776FF70E786F030E796FC3ECF2F018
:102B6000000E0001DE6F2A0E7D6FF20E7E6FF50EF5
:102B70007F6F000E806F010E816F58EC97F057EF5A
:102B800097F057EF97F0180E606F020E616FA30E6B
:102B9000626FF50E636F000E656F020E646F28ECB6
:102BA000F0F0000160516111D8A4D9EF95F0DBEF8E
:102BB00095F0DDEF96F01B0E606F020E616FEE0E6A
:102BC000626F010E636F000E656F060E646F28EC76
:102BD000F0F0000160516111D8A4F1EF95F0F3EF2E
:102BE00095F0A9EF96F01250D8B4F9EF95F0FBEFFD
:102BF00095F01EEF96F0ABEC06F06E0E0001776FCD
:102C0000FA0E786F020E796FC3ECF2F0960E0001A7
:102C1000776FF70E786F030E796FC3ECF2F0000E4A
:102C20000001DE6FBB0E7D6FEF0E7E6FF50E7F6FC6
:102C3000000E806F010E816F58EC97F0EE0E0001D0
:102C4000606F010E616F220E626F020E636F000EE5
:102C5000656F060E646FC5ECFBF0F50E0001606F4A
:102C6000000E616FE10E626F000E636F000E656F04
:102C70000A0E646FC5ECFBF0010E126EE10E00014E
:102C8000606F000E616FD40E626F010E636F000EF5
:102C9000656F0A0E646FC5ECFBF0050E0001C16F95
:102CA0000F0EC06FF10EE82EFED7C02FFCD7C12F3C
:102CB000FAD73BECFBF0050E0001C16F0F0EC06FA1
:102CC000F10EE82EFED7C02FFCD7C12FFAD780EC2B
:102CD000FBF0050E0001C16F0F0EC06FF10EE82E64
:102CE000FED7C02FFCD7C12FFAD78FEC03F0050E0B
:102CF0000001C16F0F0EC06FF10EE82EFED7C02F7E
:102D0000FCD7C12FFAD7000E0001DE6FABEC06F046
:102D10006E0E0001776FFA0E786F020E796FC3ECBA
:102D2000F2F0960E0001776FF70E786F030E796F51
:102D3000C3ECF2F0860E00017D6FF40E7E6FF50E8F
:102D40007F6F000E806F000E816F58EC97F057EF89
:102D500097F0ABEC06F0BB0E0001776FFD0E786FBD
:102D6000010E796FC3ECF2F0730E0001776FFA0E6B
:102D7000786F020E796FC3ECF2F0000E0001DE6F87
:102D80006F0E7D6FF40E7E6FE10E7F6F000E806F11
:102D9000000E816F58EC97F0E10E0001606F000E9D
:102DA000616FD40E626F010E636F000E656F0A0EC5
:102DB000646FC5ECFBF057EF97F0180E606F020ED2
:102DC000616F800E626FF50E636F000E656F040E0B
:102DD000646F28ECF0F0000160516111D8A4F3EFAA
:102DE00096F0F5EF96F01AEF97F0ABEC06F0BF0E09
:102DF0000001776FFC0E786F010E796FC3ECF2F073
:102E0000890E0001776FFE0E786F020E796FC3ECAA
:102E1000F2F0000E0001DE6F9D0E7D6FF40E7E6FEE
:102E2000E10E7F6F000E806F000E816F58EC97F0FF
:102E3000CCEF96F0180E606F020E616F040E626F99
:102E4000F50E636F000E656F0B0E646F28ECF0F0EB
:102E5000000160516111D8A430EF97F032EF97F084
:102E6000D5EF80F0000EDE6FD70E7D6FF40E7E6F13
:102E7000E10E7F6F000E806F040E816F58EC97F0AB
:102E8000CCEF96F06AEC05F0520E0001C16F2B0EEC
:102E9000C06F000EE82EFED7C02FFCD7C12FFAD787
:102EA00000F057EF97F06AEC05F0D5EF80F01200D4
:102EB000A00E0001776FF70E786F010E796FC3ECEB
:102EC000F2F01E0E0101CA6F9A0E0001616FFE0E34
:102ED000626F90ECFFF0050E0001836F0F0E826FA2
:102EE000F10EE82EFED7822FFCD7832FFAD77FC0B2
:102EF00061F080C062F00A0E0001636FA2EC04F082
:102F0000050E0001836F0F0E826FF10EE82EFED7C3
:102F1000822FFCD7832FFAD7430E0001616FFC0E7E
:102F2000626F90ECFFF0090E0001836F1E0E826F3E
:102F3000E40EE82EFED7822FFCD7832FFAD700F0BD
:102F40007DC061F07EC062F090ECFFF0090E0001E0
:102F5000836F1E0E826FE40EE82EFED7822FFCD701
:102F6000832FFAD700F01DEF9FF0E10E616F000E86
:102F7000626F0A0E636FA2EC04F0090E0001836F0A
:102F80001E0E826FE40EE82EFED7822FFCD7832F11
:102F9000FAD700F04BEF9FF0E10E616F000E626F09
:102FA000020E636FA2EC04F0BDEF97F0E10E616FCB
:102FB000000E626F110E636FA2EC04F0BDEF97F08C
:102FC000E70E616F010E626F060E636FA2EC04F0F4
:102FD000BDEF97F093C105F094C106F005C066F00F
:102FE00006C067F0030E696FE80E686F06ECFDF02F
:102FF00000016651300FEF6F030E636FE80E626FD2
:1030000005C060F006C061F0AEECFDF060C066F097
:1030100061C067F0000E0001696F640E686F06EC16
:10302000FDF000016651300FF06F000E636F640E0B
:10303000626F05C060F006C061F0AEECFDF060C0EC
:1030400066F061C067F0000E0001696F0A0E686FDC
:1030500006ECFDF000016651300FF16F05C060F025
:1030600006C061F0000E636F0A0E626FAEECFDF0F9
:1030700000016051300FF26FEF0E616F000E626F52
:10308000040E636FA2EC04F0050E0001836F0F0EB7
:10309000826FF10EE82EFED7822FFCD7832FFAD74E
:1030A000A50E0001616FFF0E626F90ECFFF0050E40
:1030B0000001836F0F0E826FF10EE82EFED7822F74
:1030C000FCD7832FFAD720C005F021C006F005C039
:1030D00066F006C067F0030E0001696FE80E686FC6
:1030E00006ECFDF000016651300FEF6F030E636FC9
:1030F000E80E626F05C060F006C061F0AEECFDF056
:1031000060C066F061C067F0000E0001696F640E78
:10311000686F06ECFDF000016651300FF06F000E95
:10312000636F640E626F05C060F006C061F0AEECC4
:10313000FDF060C066F061C067F0000E0001696FCD
:103140000A0E686F06ECFDF000016651300FF16F5A
:1031500005C060F006C061F0000E636F0A0E626F7A
:10316000AEECFDF000016051300FF26FEF0E616FB9
:10317000000E626F040E636FA2EC04F0BDEF97F0D7
:10318000E10E616F000E626F020E636FA2EC04F03D
:10319000050E0001836F0F0E826FF10EE82EFED731
:1031A000822FFCD7832FFAD7C70E0001616FFF0E65
:1031B000626F90ECFFF0050E0001836F0F0E826FBF
:1031C000F10EE82EFED7822FFCD7832FFAD7C6C088
:1031D00005F0C7C006F005C066F006C067F0270E10
:1031E0000001696F100E686F06ECFDF0000166517A
:1031F000300FEF6F270E636F100E626F05C060F027
:1032000006C061F0AEECFDF060C066F061C067F032
:10321000030E0001696FE80E686F06ECFDF0000117
:103220006651300FF06F030E636FE80E626F05C0DA
:1032300060F006C061F0AEECFDF060C066F061C009
:1032400067F0000E0001696F640E686F06ECFDF018
:1032500000016651300FF16F000E636F640E626FF4
:1032600005C060F006C061F0AEECFDF060C066F035
:1032700061C067F0000E0001696F0A0E686F06EC0E
:10328000FDF000016651300FF26F05C060F006C01E
:1032900061F0000E636F0A0E626FAEECFDF000018C
:1032A0006051300FF36FEF0E616F000E626F050E0D
:1032B000636FA2EC04F0BDEF97F0D00E0001826FB7
:1032C000C90EE82EFED7822FFCD700D0E10E0001F8
:1032D000616F000E626F020E636FA2EC04F0D00EFD
:1032E0000001826FC90EE82EFED7822FFCD700D0D6
:1032F0005E0E0001616FFF0E626F90ECFFF0D00E6A
:103300000001826FC90EE82EFED7822FFCD700D0B5
:103310001E502D0DD90EF324D96E040EF420DA6E52
:10332000DECF05F0DDCF06F005C066F006C067F021
:10333000000E0001696F640E686F06ECFDF000017D
:103340006651300FE16F000E636F640E626F05C04F
:1033500060F006C061F0AEECFDF060C066F061C0E8
:1033600067F0000E0001696F0A0E686F06ECFDF051
:1033700000016651300FE26F05C060F006C061F0D9
:10338000000E636F0A0E626FAEECFDF0000160513B
:10339000300FE36FE10E616F000E626F030E636F1B
:1033A000A2EC04F0D00E0001826FC90EE82EFED709
:1033B000822FFCD700D0120E0001616FFF0E626FEA
:1033C00090ECFFF0D00E0001826FC90EE82EFED700
:1033D000822FFCD700D01E502D0DF30EF324D96E92
:1033E000040EF420DA6EDF500001826F8251606FAC
