:0400000015EF03F005
:06000800418228EFC7F061
:100018004180D8CF16F0E8CF17F0E0CF18F0D9CF4D
:1000280019F0DACF1AF0F6CF1BF0F7CF1CF0F8CFA3
:100038001DF0F5CF1EF00E0133AB25EF00F027EFD2
:1000480000F0A8EF02F09096339BE30ED46EB00E4A
:10005800D36E3A2A29502A10D8B435EF00F037EF7A
:1000680000F089EF00F090A03CEF00F03EEF00F0C8
:1000780089EF00F02906D8A02A060101D12B00013A
:10008800D551D8B44AEF00F04CEF00F054EF00F02F
:10009800030ED56152EF00F054EF00F055EF00F079
:1000A800D52B0C0E096E020E0A6E8D0E0B6EF70E16
:1000B8000C6E000E0E6E050E0D6E97ECDBF00950FF
:1000C8000A10D8A46AEF00F06CEF00F089EF00F096
:1000D800110E096E020E0A6E990E0B6EF70E0C6E5B
:1000E800000E0E6E050E0D6E97ECDBF009500A102F
:1000F800D8A481EF00F083EF00F089EF00F084ECE2
:10010800EBF00101D22B89EF00F090A48EEF00F004
:1001180090EF00F0E6EF01F08EA695EF00F097EF74
:1001280000F0B3EF00F00101B951B11907E1BA517C
:10013800B219D8A4A2EF00F0A4EF00F0AFEF00F0DE
:100148008E96000EB26F000EB16FA14BA22B00016C
:10015800DF2BE6EF00F0B14BB22BE6EF00F08EB6E6
:10016800B8EF00F0BAEF00F0E6EF00F00101A95196
:10017800A11907E1AA51A219D8A4C5EF00F0C7EF49
:1001880000F0E4EF00F00001E351DF5DD8B0CFEFFD
:1001980000F0D1EF00F0DBEF00F08E860101B14BEB
:1001A800B22B000EA26F000EA16FE6EF00F0010E59
:1001B8000101A925A16F000EAA21A26FE6EF00F0A8
:1001C800A14BA22B8EA8EBEF00F0EDEF00F009EFAA
:1001D80001F00101B751AF1907E1B851B019D8A41E
:1001E800F8EF00F0FAEF00F005EF01F08E98000E3E
:1001F800B06F000EAF6F9F4BA02B0001DE2B3CEFC2
:1002080001F0AF4BB02B3CEF01F08EB80EEF01F0D0
:1002180010EF01F03CEF01F00101A7519F1907E130
:10022800A851A019D8A41BEF01F01DEF01F03AEF77
:1002380001F00001E251DE5DD8B025EF01F027EFB3
:1002480001F031EF01F08E880101AF4BB02B000EA9
:10025800A06F000E9F6F3CEF01F0010E0101A72572
:100268009F6F000EA821A06F3CEF01F09F4BA02BC1
:100278008EAA41EF01F043EF01F05FEF01F00101B9
:10028800B551AD1907E1B651AE19D8A44EEF01F03A
:1002980050EF01F05BEF01F08E9A000EAE6F000E8A
:1002A800AD6F9D4B9E2B0001DD2B92EF01F0AD4B06
:1002B800AE2B92EF01F08EBA64EF01F066EF01F019
:1002C80092EF01F00101A5519D1907E1A6519E1970
:1002D800D8A471EF01F073EF01F090EF01F0000185
:1002E800E151DD5DD8B07BEF01F07DEF01F087EFE4
:1002F80001F08E8A0101AD4BAE2B000E9E6F000EF1
:100308009D6F92EF01F0010E0101A5259D6F000E72
:10031800A6219E6F92EF01F09D4B9E2B8EAC97EF1E
:1003280001F099EF01F0B4EF01F00101B351AB19FD
:1003380007E1B451AC19D8A4A4EF01F0A6EF01F07D
:10034800B0EF01F08E9C000EAC6F000EAB6F9B4BB4
:100358009C2BD32BE6EF01F0AB4BAC2BE6EF01F077
:100368008EBCB9EF01F0BBEF01F0E6EF01F001013F
:10037800A3519B1907E1A4519C19D8A4C6EF01F019
:10038800C8EF01F0E4EF01F00001E0510101D35D95
:10039800D8B0D1EF01F0D3EF01F0DCEF01F08E8C93
:1003A800AB4BAC2B000E9C6F000E9B6FE6EF01F081
:1003B800010EA3259B6F000EA4219C6FE6EF01F0B0
:1003C8009B4B9C2B630E3918D8A4EDEF01F0EFEF8F
:1003D80001F0F3EF01F0000E3A6EA8EF02F03904D5
:1003E800D8A4F9EF01F0FBEF01F00CEF02F00001E7
:1003F800D7513A18D8A403EF02F005EF02F00CEF3A
:1004080002F0000E3A6E8A86020E396EA8EF02F0EC
:10041800020E3918D8A413EF02F015EF02F025EFF9
:1004280002F032503A18D8A41CEF02F01EEF02F086
:1004380025EF02F0000E3A6E8A96030E396EA8EF89
:1004480002F0030E3918D8A42CEF02F02EEF02F0B8
:100458003EEF02F033503A18D8A435EF02F037EFE8
:1004680002F03EEF02F0000E3A6E8A88040E396EF2
:10047800A8EF02F0040E3918D8A445EF02F047EFB0
:1004880002F057EF02F032503A18D8A44EEF02F0BB
:1004980050EF02F057EF02F0000E3A6E8A98050E00
:1004A800396EA8EF02F0050E3918D8A45EEF02F0F5
:1004B80060EF02F070EF02F033503A18D8A467EFFB
:1004C80002F069EF02F070EF02F0000E3A6E8A8ACD
:1004D800060E396EA8EF02F0060E3918D8A477EF89
:1004E80002F079EF02F089EF02F032503A18D8A4FE
:1004F80080EF02F082EF02F089EF02F0000E3A6E10
:100508008A9A070E396EA8EF02F0070E3918D8A498
:1005180090EF02F092EF02F0A8EF02F03A50146E5A
:10052800156A0001C451141807E1C5511518D8A45B
:10053800A0EF02F0A2EF02F0A8EF02F0000E3A6E70
:10054800010E396EA8EF02F00E0138A1AEEF02F0ED
:10055800B0EF02F0B5EF02F090960101CD2B0E013D
:10056800389138A5BAEF02F0BCEF02F001EF03F0C2
:1005780090963895F00EC86EDC0EC76E0101CC2B34
:10058800CC51D05DD8B0CBEF02F0CDEF02F0F4EF54
:1005980002F02F50D8A4D3EF02F0D5EF02F0F4EF19
:1005A80002F0010E2F6E000ECC6FC990C151D8B465
:1005B800E0EF02F0E2EF02F0E7EF02F0010E0001D7
:1005C800C86F01EF03F0CB51D8B4EDEF02F0EFEFB5
:1005D80002F001EF03F0010E0001D36F01EF03F009
:1005E8002F50D8B4FAEF02F0FCEF02F001EF03F05D
:1005F800000ECC6FC99001EF03F01EC0F5FF1DC0BF
:10060800F8FF1CC0F7FF1BC0F6FF1AC0DAFF19C0BD
:10061800D9FF18C0E0FF17C0E8FF16C0D8FF419007
:060628001000B2EFDAF051
:10EA1E000049727269676174696F6E206973206E46
:10EA2E006F74204163746976652E20466572746931
:10EA3E00676174696F6E206E6F7420656E61626CB3
:10EA4E00656420666F72206669656C64206E6F2E39
:10EA5E000053797374656D2041757468656E7469C1
:10EA6E0063617465642077697468205068617365AA
:10EA7E00206661696C7572652C2073757370656E96
:10EA8E0064696E6720616C6C20616374696F6E736C
:10EA9E0000496E636F72726563742076616C756582
:10EAAE00732E204665727469676174696F6E206E8D
:10EABE006F7420656E61626C656420666F7220668D
:10EACE0069656C64206E6F2E00596F7520617265DA
:10EADE00206E6F206D6F72652041646D696E206EC1
:10EAEE006F772E204E65772041646D696E206973B5
:10EAFE002073657420746F0D0A00000049727269EC
:10EB0E00676174696F6E20697320616374697665DD
:10EB1E002C204D6F746F72206C6F6164206375745E
:10EB2E002D6F6666206E6F74207365740049727265
:10EB3E0069676174696F6E20636F6E66696775725F
:10EB4E006174696F6E2064697361626C65642066BE
:10EB5E006F72206669656C64206E6F2E004D6F6952
:10EB6E0073747572652073656E736F72206672654D
:10EB7E007175656E63792076616C756520666F724E
:10EB8E00206669656C64206E6F2E00000030006098
:10EB9E00009000C000F000200150018001B001E0A3
:10EBAE0001100240027002A002D002000330036086
:10EBBE00039003C003000053797374656D2074696C
:10EBCE006D652073796E63656420746F2063757252
:10EBDE0072656E74206C6F63616C2074696D650074
:10EBEE004D6F6973747572652073656E736F7220E5
:10EBFE006973206661696C656420666F7220666950
:10EC0E00656C64206E6F2E0049727269676174695B
:10EC1E006F6E206E6F7420636F6E666967757265B6
:10EC2E006420666F72206669656C64206E6F2E00BC
:10EC3E0049727269676174696F6E206669656C648A
:10EC4E00206D617070656420776974682076616CE0
:10EC5E007665730049727269676174696F6E2063BD
:10EC6E006F6E6669677572656420666F722066697D
:10EC7E00656C64206E6F2E004D6F746F726C6F61D9
:10EC8E0064206375742D6F666620736574207375CA
:10EC9E00636365737366756C6C790046657274692F
:10ECAE00676174696F6E2064697361626C6564205C
:10ECBE00666F72206669656C64206E6F2E00466505
:10ECCE00727469676174696F6E20656E61626C65DE
:10ECDE006420666F72206669656C64206E6F2E000C
:10ECEE0057617465722046696C74726174696F6ED7
:10ECFE00206973206E6F7420656E61626C656400AE
:10ED0E004C6F67696E20636F6465206368616E6720
:10ED1E006564207375636365737366756C6C7900D7
:10ED2E0057617465722066696C74726174696F6E76
:10ED3E0020646561637469766174656400496E630D
:10ED4E006F7272656374206C6F63616C2074696D91
:10ED5E006520666F756E6400576174657220466932
:10ED6E006C74726174696F6E2053657175656E6334
:10ED7E00653A0057617465722066696C74726174CD
:10ED8E00696F6E20616374697661746564005068A2
:10ED9E00617365206C6F737320646574656374654D
:10EDAE006400000000000057726F6E67206C6F6782
:10EDBE00696E20636F646520666F756E64004C6FBC
:10EDCE0067696E20636F6465206E6F74206368617F
:10EDDE006E6765640041646D696E2073657420739F
:10EDEE0075636365737366756C6C790041757468D1
:10EDFE00656E7469636174696F6E206661696C65B6
:10EE0E006400416C6C2050686173652064657465A4
:10EE1E0063746564005465737420446174612049A1
:10EE2E006E6A65637465640053797374656D20430F
:10EE3E006F6E6E656374656400466163746F72799C
:10EE4E00204B6579203A20002B434D54493A20221D
:10EE5E00534D222C78003132333435363738393130
:10EE6E00320047455446524551004558545241438D
:10EE7E005400444143544956450044495341424C81
:10EE8E004500494E4A4543540041435449564500B6
:10EE9E00454E41424C45004745544354004644417B
:10EEAE0054410049444C4500464545440054494DA3
:10EEBE004500484F4C4400484F4F4B002B39310012
:10EECE00534354004D415000534554004354006F7A
:10EEDE006B004155004472792052756E2064657442
:10EEEE0065637465642C204D6F746F722C204972AB
:10EEFE007269676174696F6E20616E642046657217
:10EF0E007469676174696F6E20737769746368657D
:10EF1E0064206F66662E0D0A4972726967617469A4
:10EF2E006F6E207363686564756C656420746F2002
:10EF3E006E657874206461792077697468206665DF
:10EF4E00727469676174696F6E20666F722066698C
:10EF5E00656C64206E6F2E0000004472792052752D
:10EF6E006E2064657465637465642C204D6F746FD8
:10EF7E007220616E642049727269676174696F6E86
:10EF8E00207377697463686564206F66662E0D0A58
:10EF9E0049727269676174696F6E20736368656424
:10EFAE00756C656420746F206E6578742064617969
:10EFBE002077697468206665727469676174696F19
:10EFCE006E20666F72206669656C64206E6F2E000F
:10EFDE0000004472792052756E2064657465637406
:10EFEE0065642C204D6F746F7220616E64204972BF
:10EFFE007269676174696F6E20737769746368658F
:10F00E0064206F66662E0D0A4972726967617469B3
:10F01E006F6E207363686564756C656420746F2011
:10F02E006E65787420647565206461746520666F02
:10F03E0072206669656C64206E6F2E00000044724B
:10F04E00792052756E2064657465637465642C2036
:10F05E004D6F746F7220616E6420497272696761C0
:10F06E0074696F6E207377697463686564206F6668
:10F07E00662E0D0A49727269676174696F6E20732C
:10F08E0063686564756C656420746F206E65787452
:10F09E002064617920666F72206669656C64206EEB
:10F0AE006F2E00000053797374656D207265737452
:10F0BE00617274656420666F7220416C6C205068BA
:10F0CE0061736520446574656374696F6E2077693A
:10F0DE00746820696E636F6D706C6574652049721B
:10F0EE007269676174696F6E20666F7220666965FA
:10F0FE006C64206E6F2E0053797374656D2072658B
:10F10E007374617274656420666F7220506F7765D8
:10F11E007220496E746572727570742077697468A6
:10F12E0020696E636F6D706C6574652049727269CB
:10F13E00676174696F6E20666F72206669656C64B4
:10F14E00206E6F2E0053797374656D207265737423
:10F15E00617274656420696E20446961676E6F73B5
:10F16E00746963204D6F6465207769746820696ED9
:10F17E00636F6D706C657465204972726967617436
:10F18E00696F6E20666F72206669656C64206E6FA3
:10F19E002E0053797374656D207265737461727489
:10F1AE00656420666F72204C6F7720506F776572A2
:10F1BE0020496E207769746820696E636F6D706C7C
:10F1CE006574652049727269676174696F6E206635
:10F1DE006F72206669656C64206E6F2E00537973B2
:10F1EE0074656D2072657374617274656420666FE8
:10F1FE007220537461636B204572726F722077694F
:10F20E00746820696E636F6D706C657465204972E9
:10F21E007269676174696F6E20666F7220666965C8
:10F22E006C64206E6F2E0053797374656D20726559
:10F23E007374617274656420666F72205744542033
:10F24E0054696D656F7574207769746820696E6393
:10F25E006F6D706C6574652049727269676174694F
:10F26E006F6E20666F72206669656C64206E6F2EFD
:10F27E00004665727469676174696F6E2073746F8E
:10F28E007070656420776974682066657274696C45
:10F29E00697A6572206C6576656C2073656E736F26
:10F2AE0072206661696C75726520666F7220666980
:10F2BE00656C64206E6F2E004C6F77205068617302
:10F2CE00652063757272656E74206465746563740F
:10F2DE0065642C20616374696F6E7320737573702F
:10F2EE00656E6465642C20706C6561736520726553
:10F2FE0073746172742073797374656D004D6F69E8
:10F30E0073747572652073656E736F7220697320E6
:10F31E006661696C65642C204972726967617469F3
:10F32E006F6E207374617274656420666F722066EE
:10F33E0069656C64206E6F2E0053797374656D2051
:10F34E007265737461727465642077697468207075
:10F35E0068617365206661696C7572652C207375C2
:10F36E007370656E64696E6720616C6C2061637486
:10F37E00696F6E73004665727469676174696F6E4A
:10F38E002073746F707065642077697468206C6F79
:10F39E00772066657274696C697A6572206C657621
:10F3AE00656C20666F72206669656C64206E6F2EC8
:10F3BE0000576574206669656C64206465746563C6
:10F3CE007465642E0D0A49727269676174696F6E95
:10F3DE00206E6F74207374617274656420666F7230
:10F3EE00206669656C64206E6F2E00000053797381
:10F3FE0074656D207265736574206F6363757272C8
:10F40E0065642C206C6F67696E20636F6465207273
:10F41E006573657420746F20466163746F72792012
:10F42E0073657474696E6700497272696761746995
:10F43E006F6E20636F6D706C6574656420666F729D
:10F44E0020647565206669656C64730D0A4D6F7472
:10F45E006F72207377697463686564206F666600E7
:10F46E0000004E65772052544320626174746572B9
:10F47E007920666F756E642C20706C6561736520E3
:10F48E0073796E632073797374656D2074696D651D
:10F49E00206D616E75616C6C79004E6577205254EB
:10F4AE0043206261747465727920666F756E642C88
:10F4BE002073797374656D2074696D65206973208E
:10F4CE0073657420746F206C6F63616C2074696D4A
:10F4DE00650049727269676174696F6E2073746F2B
:10F4EE007070656420776974686F757420726573C7
:10F4FE00706F6E73652066726F6D206669656C64E1
:10F50E00206E6F2E0049727269676174696F6E208A
:10F51E00736B69707065642077697468206E6F20F4
:10F52E00726573706F6E73652066726F6D2066699B
:10F53E00656C64206E6F3A005254432042617474BD
:10F54E0065727920666F756E64206C6F772C2070F3
:10F55E006C65617365207265706C616365205254D1
:10F56E004320626174746572790053797374656DAA
:10F57E00207265736574206F636375727265642C97
:10F58E002049727269676174696F6E207365747455
:10F59E00696E672064656C6574656400506861739C
:10F5AE0065206661696C7572652064657465637447
:10F5BE0065642C2073757370656E64696E67206167
:10F5CE006C6C20616374696F6E73004E6F4C6F616B
:10F5DE006420616E642046756C6C4C6F6164204DC6
:10F5EE006F746F72207468726573686F6C647320C9
:10F5FE0073657420746F203A200053797374656DAF
:10F60E002072657374617274656420666F72204136
:10F61E006C6C205068617365204465746563746911
:10F62E006F6E0053797374656D20726573746172B9
:10F63E0074656420666F7220506F77657220496E14
:10F64E00746572727570740053797374656D20727F
:10F65E00657374617274656420696E2044696167B4
:10F66E006E6F73746963206D6F64650046657274A6
:10F67E0069676174696F6E2073746F707065642052
:10F68E00666F72206669656C64206E6F2E0046652B
:10F69E00727469676174696F6E20737461727465D8
:10F6AE006420666F72206669656C64206E6F2E0032
:10F6BE0053797374656D20726573746172746564C9
:10F6CE0020666F7220737461636B206572726F7245
:10F6DE000053797374656D2072657374617274650D
:10F6EE006420666F72205744542074696D656F757F
:10F6FE00740049727269676174696F6E2073746FFA
:10F70E007070656420666F72206669656C64206E29
:10F71E006F2E0049727269676174696F6E2073741F
:10F72E00617274656420666F72206669656C642010
:10F73E006E6F2E0053797374656D207265737461EC
:10F74E007274656420666F72204C6F7720506F77ED
:10F75E0065720043757272656E742054696D653AF8
:10F76E00200049727269676174696F6E204E6F3A3C
:10F77E000053454E534F52004D4153544552004194
:10F78E004C495645004552524F5200534C41564536
:10F79E000041434B004F4646004F4E004665727483
:10F7AE0069676174696F6E20656E61626C65642055
:10F7BE00776974682064656C61793A004665727485
:10F7CE0069676174696F6E206E6F7420636F6E6609
:10F7DE006967757265640D0A0053797374656D20DF
:10F7EE005265736574204F6363757272656400535E
:10F7FE00797374656D2052657374617274656420DB
:10F80E00576974680053757370656E646564204142
:10F81E006C6C20416374696F6E7300202020202071
:10F82E0020202020202020202020202020202000EA
:10F83E0053656E64696E67204E6F746966696361A5
:10F84E0074696F6E002A2A2A466163746F7279207A
:10F85E0052657365742A2A2A2A0053797374656D6A
:10F86E0020436F6D706C6574652044617461004354
:10F87E00757272656E7420496E2046756C6C204CE4
:10F88E006F6164004E657720525443426174746513
:10F89E00727920466F756E640057697468204C6FDC
:10F8AE007720466572742E204C6576656C004E6529
:10F8BE007874205363686564756C65205365742095
:10F8CE004F6E00546F2044656C65746520497272EA
:10F8DE0069676174696F6E00496E204E6F204C6FC0
:10F8EE00616420436F6E646974696F6E005379733F
:10F8FE0074656D20697320426F6F74696E67205551
:10F90E00700053796E632053797374656D204D6169
:10F91E006E75616C6C790049727269676174696F9A
:10F92E006E20436F6D706C65746564004375727301
:10F93E006F7220486F6D65202620426C696E6B00D9
:10F94E0041542B434E4D493D312C312C302C302C13
:10F95E00300D0A004665727469676174696F6E20B6
:10F96E0053746F70706564005068617365204C6FDE
:10F97E0073732044657465637465640046657274C0
:10F98E0069676174696F6E20537461727465640087
:10F99E00576974682053656E736F72204661696C87
:10F9AE0075726500436865636B696E672047534DDA
:10F9BE00205369676E616C00546F20436865636BFA
:10F9CE002047534D205369676E616C0042686F6F1C
:10F9DE006D69204A616C73616E64686172616E005C
:10F9EE00576972654C6573732049727269676174E9
:10F9FE00696F6E005265706C6163652052544320CE
:10FA0E0062617474657279004C6F6164696E67200F
:10FA1E0053797374656D204461746100457869741F
:10FA2E00696E6720446961676E6F73746963004322
:10FA3E00757272656E7420496E204E6F204C6F6128
:10FA4E00640053797374656D2054696D6520537924
:10FA5E006E6365640049727269676174696F6E20C6
:10FA6E00536B69707065640049727269676174697D
:10FA7E006F6E2053746F7070656400576574204606
:10FA8E0069656C64204465746563746564004972CD
:10FA9E007269676174696F6E205374617274656404
:10FAAE000049727269676174696F6E2052756E6E6D
:10FABE00696E6700507265737320526573657420AA
:10FACE00427574746F6E00546F2043616C6962727C
:10FADE00617465204D6F746F720053757370656E2F
:10FAEE0064696E6720416374696F6E73004661636B
:10FAFE00746F727920436F6465205265736574006C
:10FB0E004E6F20446961676E6F73746963204D6533
:10FB1E006E75004D6F746F722053776974636865EC
:10FB2E0064204F46460052544320426174746572FD
:10FB3E0079206973206C6F77002347455453454EE7
:10FB4E00534F523031534C415645005365706172DC
:10FB5E006174696F6E2054696D653A200049727246
:10FB6E00692E2052657363686564756C656400491F
:10FB7E007272692E204E6F742053746172746564B4
:10FB8E000053797374656D2052756E6E696E6720C1
:10FB9E00496E0055736572205265676973747261A0
:10FBAE0074696F6E0043616C6962726174696E672D
:10FBBE00204D6F746F720046756C6C204C6F6164D3
:10FBCE002043757272656E74004C6F7720506861B9
:10FBDE0073652043757272656E74006C6364426166
:10FBEE00636B6C69676874204F6E20006C636442AF
:10FBFE0061636B6C69676874204F66660046657258
:10FC0E0074692E20506F7374706F6E656400447249
:10FC1E00792052756E20646574656374656400574F
:10FC2E00697468204E6F20526573706F6E73650035
:10FC3E004E6574776F726B20537472656E6774685D
:10FC4E0000546F2044656C65746520537973746538
:10FC5E006D0057616974696E6720466F7220557327
:10FC6E00657200466163746F7279205365747469AE
:10FC7E006E677300497272692E204461746120525E
:10FC8E0065736574006C63644261636B6C6967686D
:10FC9E0074204F6E004C6F726120636F6E74726FC2
:10FCAE006C6C65720041542B435343533D224753B2
:10FCBE004D220D0A0049727269676174696F6E2078
:10FCCE004461746100497272692E20506F737470B2
:10FCDE006F6E656400466163746F72792050696E51
:10FCEE00436F646500446961676E6F737469632066
:10FCFE004D6F646500466F756E64204C6F772050B3
:10FD0E00686173650041542B53434C415353303D4E
:10FD1E00310D0A00436F6E6E656374696E672074F1
:10FD2E006F200053657474696E6720537973746520
:10FD3E006D00466F72204669656C64204E6F3A20E6
:10FD4E0000436F6E74726F6C2053797374656D001F
:10FD5E00526573746172742053797374656D0054B7
:10FD6E006F2044656C65746520557365720041544F
:10FD7E002B434D47443D312C340D0A00466F722003
:10FD8E004669656C64204E6F2E00466F7220466980
:10FD9E00656C64204E6F3A00466F756E64204C6F32
:10FDAE00772052544300546F204C6F63616C205483
:10FDBE00696D65005068617365204661696C757286
:10FDCE0065007765742066726571206F6620006429
:10FDDE0072792066726571206F66200053756363B9
:10FDEE0065737366756C6C7900446973706C6179B8
:10FDFE00204F6E2000437572736F7220486F6D65D1
:10FE0E0000446973706C6179204F66660041542B13
:10FE1E004346554E3D300D0A0041542B434D474647
:10FE2E003D310D0A0041542B4346554E3D310D0ACE
:10FE3E000041542B434C54533D310D0A002049745C
:10FE4E0065726174696F6E3A0047534D204E65744A
:10FE5E00776F726B00437572736F72204F66660018
:10FE6E0041542B434C54533F0D0A000D0A44656C0C
:10FE7E006179313A20000D0A4F4E54696D653A2072
:10FE8E000020447565446174653A200041542B434B
:10FE9E00434C4B3F0D0A00556479616D69204C4C03
:10FEAE00500052657374696E6720546F00426C691E
:10FEBE006E6B204F666600437572736F72204F6EC5
:10FECE00005665727920476F6F6400457863656CE4
:10FEDE006C656E7400426C696E6B204F6E005072D2
:10FEEE00696E742061740041542B4353510D0A0006
:10FEFE0044656C6179323A200044656C6179333A1D
:10FF0E002000204F46467072643A004D6F64657251
:10FF1E00617465004572726F7220496E005665728B
:10FF2E0079204C6F770053656C656374656400448B
:10FF3E00656C6574696E6700204F4E7072643A008E
:10FF4E0053657474696E67004472792052756E0041
:10FF5E004261747465727900415445300D0A004156
:10FF6E005426570D0A00284D696E2920003C2D2D70
:10FF7E002D2D00403A302C3000403A312C310040CB
:10FF8E003A322C3200403A332C33002D2D2D2D3E9B
:10FF9E000020616E642000284D696E29002057658F
:10FFAE00743A00204472793A00446174653A005400
:10FFBE00494D4500234F4646002069732000506F7F
:10FFCE006F720031303025002564256300234F4EBB
:10FFDE00004C4F5700393625003937250039382562
:10FFEE0000393925004E4F002564003125002400CC
:01FFFE000002
:020000040001F9
:100000003E0E0001736FF80E746F010E756FE3EC16
:10001000DCF01E0E0101D06FC00E206EFC0E216EB2
:10002000BFECE8F0090E00017F6F1E0E7E6FE40E3C
:10003000E82EFED77E2FFCD77F2FFAD700F079C0AD
:1000400020F07AC021F0BFECE8F0090E00017F6FCC
:100050001E0E7E6FE40EE82EFED77E2FFCD77F2F7C
:10006000FAD700F080EF87F0E40E206E000E216ECC
:100070000A0E226E76ECEAF0090E00017F6F1E0E6A
:100080007E6FE40EE82EFED77E2FFCD77F2FFAD7A7
:1000900000F0AEEF87F0E40E206E000E216E020E2F
:1000A000226E76ECEAF03CEF80F0E40E206E000E5B
:1000B000216E110E226E76ECEAF03CEF80F0E70E36
:1000C000206E010E216E060E226E76ECEAF03CEFF9
:1000D00080F0C0C027F0C1C028F027C062F028C05F
:1000E00063F0030E656FE80E646F39ECE6F0000113
:1000F0006251300FF26F030E226EE80E216E27C0A0
:100100001FF028C020F0E1ECE6F01FC062F020C034
:1001100063F0000E0001656F640E646F39ECE6F069
:1001200000016251300FF36F000E226E640E216EDB
:1001300027C01FF028C020F0E1ECE6F01FC062F0FD
:1001400020C063F0000E0001656F0A0E646F39EC89
:10015000E6F000016251300FF46F27C01FF028C095
:1001600020F0000E226E0A0E216EE1ECE6F01F5028
:10017000300F0001F56FF20E206E000E216E040E9E
:10018000226E76ECEAF0050E00017F6F0F0E7E6F97
:10019000F10EE82EFED77E2FFCD77F2FFAD79F0EC9
:1001A000206EFF0E216EBFECE8F0050E00017F6FA0
:1001B0000F0E7E6FF10EE82EFED77E2FFCD77F2F1D
:1001C000FAD7FEC027F0FFC028F027C062F028C091
:1001D00063F0030E0001656FE80E646F39ECE6F022
:1001E00000016251300FF26F030E226EE80E216E95
:1001F00027C01FF028C020F0E1ECE6F01FC062F03D
:1002000020C063F0000E0001656F640E646F39EC6E
:10021000E6F000016251300FF36F000E226E640EA3
:10022000216E27C01FF028C020F0E1ECE6F01FC0CF
:1002300062F020C063F0000E0001656F0A0E646F6B
:1002400039ECE6F000016251300FF46F27C01FF067
:1002500028C020F0000E226E0A0E216EE1ECE6F0BE
:100260001F50300F0001F56FF20E206E000E216E50
:10027000040E226E76ECEAF03CEF80F0E40E206E85
:10028000000E216E020E226E76ECEAF0050E0001E1
:100290007F6F0F0E7E6FF10EE82EFED77E2FFCD7FC
:1002A0007F2FFAD7C70E206EFF0E216EBFECE8F04D
:1002B000050E00017F6F0F0E7E6FF10EE82EFED748
:1002C0007E2FFCD77F2FFAD7C2C027F0C3C028F0FB
:1002D00027C062F028C063F0270E0001656F100E82
:1002E000646F39ECE6F000016251300FF26F270EB7
:1002F000226E100E216E27C01FF028C020F0E1EC06
:10030000E6F01FC062F020C063F0030E0001656FCD
:10031000E80E646F39ECE6F000016251300FF36FC4
:10032000030E226EE80E216E27C01FF028C020F0B9
:10033000E1ECE6F01FC062F020C063F0000E0001A7
:10034000656F640E646F39ECE6F000016251300FA6
:10035000F46F000E226E640E216E27C01FF028C0BD
:1003600020F0E1ECE6F01FC062F020C063F0000E68
:100370000001656F0A0E646F39ECE6F0000162510E
:10038000300FF56F27C01FF028C020F0000E226E3E
:100390000A0E216EE1ECE6F01F50300F0001F66FFF
:1003A000F20E206E000E216E050E226E76ECEAF043
:1003B0003CEF80F0D00E00017E6FC90EE82EFED714
:1003C0007E2FFCD700D0E40E206E000E216E020EB0
:1003D000226E76ECEAF0D00E00017E6FC90EE82E98
:1003E000FED77E2FFCD700D0460E206EFF0E216E6A
:1003F000BFECE8F0D00E00017E6FC90EE82EFED7EC
:100400007E2FFCD700D03E502D0DF80EF324D96E70
:10041000040EF420DA6EDECF27F0DDCF28F027C0FF
:1004200062F028C063F0000E0001656F640E646F17
:1004300039ECE6F000016251300FE46F000E226EDD
:10044000640E216E27C01FF028C020F0E1ECE6F01A
:100450001FC062F020C063F0000E0001656F0A0E3D
:10046000646F39ECE6F000016251300FE56F27C090
:100470001FF028C020F0000E226E0A0E216EE1EC63
:10048000E6F01F50300F0001E66FE40E206E000E04
:10049000216E030E226E76ECEAF0D00E00017E6F24
:1004A000C90EE82EFED77E2FFCD700D0100E206E8E
:1004B000FF0E216EBFECE8F0D00E00017E6FC90E7A
:1004C000E82EFED77E2FFCD700D03E502D0D120E09
:1004D000F324D96E050EF420DA6EDF5000017E6F32
:1004E0007E511F6E206A000E226E0A0E216EE8EC0D
:1004F000E0F01F50300F0001E46F3E502D0D120E42
:10050000F324D96E050EF420DA6EDF507E6F7E5133
:100510006E6F6F6B000E716F0A0E706FADECE1F0D5
:1005200000016E51300FE56FE40E206E000E216E5B
:10053000020E226E76ECEAF0D00E00017E6FC90E3C
:10054000E82EFED77E2FFCD700D0B10E206EFF0E16
:10055000216EBFECE8F0D00E00017E6FC90EE82ED0
:10056000FED77E2FFCD700D03E502D0DF40EF32485
:10057000D96E040EF420DA6EDECF27F0DDCF28F03E
:1005800027C062F028C063F0000E0001656F640EA2
:10059000646F39ECE6F000016251300FE46F000E39
:1005A000226E640E216E27C01FF028C020F0E1ECFF
:1005B000E6F01FC062F020C063F0000E0001656F1E
:1005C0000A0E646F39ECE6F000016251300FE56FFE
:1005D00027C01FF028C020F0000E226E0A0E216EE8
:1005E000E1ECE6F01F50300F0001E66FE40E206EE4
:1005F000000E216E030E226E76ECEAF0D00E0001A2
:100600007E6FC90EE82EFED77E2FFCD700D0AB0E32
:10061000206EFF0E216EBFECE8F0D00E00017E6F61
:10062000C90EE82EFED77E2FFCD700D03E502D0DF0
:10063000F60EF324D96E040EF420DA6EDECF27F026
:10064000DDCF28F027C062F028C063F0000E000163
:10065000656F640E646F39ECE6F000016251300F93
:10066000E46F000E226E640E216E27C01FF028C0BA
:1006700020F0E1ECE6F01FC062F020C063F0000E55
:100680000001656F0A0E646F39ECE6F000016251FB
:10069000300FE56F27C01FF028C020F0000E226E3B
:1006A0000A0E216EE1ECE6F01F50300F0001E66FFC
:1006B000E40E206E000E216E030E226E76ECEAF040
:1006C000D00E00017E6FC90EE82EFED77E2FFCD71C
:1006D00000D08F0E206EFE0E216EBFECE8F0D00E23
:1006E00000017E6FC90EE82EFED77E2FFCD700D00A
:1006F0003E502D0D150EF324D96E050EF420DA6E42
:10070000DF5000017E6F7E511F6E206A000E226E48
:100710000A0E216EE8ECE0F01F50300F0001E46F8C
:100720003E502D0D150EF324D96E050EF420DA6E11
:10073000DF507E6F7E516E6F6F6B000E716F0A0E11
:10074000706FADECE1F000016E51300FE56FE40E1B
:10075000206E000E216E020E226E76ECEAF0D00EB4
:1007600000017E6FC90EE82EFED77E2FFCD700D089
:100770003E502D0D160EF324D96E050EF420DA6EC0
:10078000DF5000017E6F7E511F6E206A000E226EC8
:100790000A0E216EE8ECE0F01F50300F0001E46F0C
:1007A0003E502D0D160EF324D96E050EF420DA6E90
:1007B000DF507E6F7E516E6F6F6B000E716F0A0E91
:1007C000706FADECE1F000016E51300FE56FE40E9B
:1007D000206E000E216E020E226E76ECEAF0D00E34
:1007E00000017E6FC90EE82EFED77E2FFCD700D009
:1007F0003E502D0D170EF324D96E050EF420DA6E3F
:10080000DF5000017E6F7E511F6E206A000E226E47
:100810000A0E216EE8ECE0F01F50300F0001E46F8B
:100820003E502D0D170EF324D96E050EF420DA6E0E
:10083000DF507E6F7E516E6F6F6B000E716F0A0E10
:10084000706FADECE1F000016E51300FE56FE40E1A
:10085000206E000E216E020E226E76ECEAF0D00EB3
:1008600000017E6FC90EE82EFED77E2FFCD700D088
:100870003E502D0D130EF324D96E050EF420DA6EC2
:10088000DF5000017E6F7E511F6E206A000E226EC7
:100890000A0E216EE8ECE0F01F50300F0001E46F0B
:1008A0003E502D0D130EF324D96E050EF420DA6E92
:1008B000DF507E6F7E516E6F6F6B000E716F0A0E90
:1008C000706FADECE1F000016E51300FE56FE40E9A
:1008D000206E000E216E020E226E76ECEAF0D00E33
:1008E00000017E6FC90EE82EFED77E2FFCD700D008
:1008F0003E502D0D140EF324D96E050EF420DA6E41
:10090000DF5000017E6F7E511F6E206A000E226E46
:100910000A0E216EE8ECE0F01F50300F0001E46F8A
:100920003E502D0D140EF324D96E050EF420DA6E10
:10093000DF507E6F7E516E6F6F6B000E716F0A0E0F
:10094000706FADECE1F000016E51300FE56FE40E19
:10095000206E000E216E020E226E76ECEAF0D00EB2
:1009600000017E6FC90EE82EFED77E2FFCD700D087
:10097000C00E206EFC0E216EBFECE8F03E502D0D37
:100980001F0EF324D96E050EF420DA6EDF50D8B4B2
:10099000CCEF84F0CEEF84F0E0EF85F0AA0E206E6D
:1009A000F70E216EBFECE8F03E502D0DFA0EF32449
:1009B000D96E040EF420DA6EDECF27F0DDCF28F0FA
:1009C00027C062F028C063F0000E0001656F640E5E
:1009D000646F39ECE6F000016251300FE46F000EF5
:1009E000226E640E216E27C01FF028C020F0E1ECBB
:1009F000E6F01FC062F020C063F0000E0001656FDA
:100A00000A0E646F39ECE6F000016251300FE56FB9
:100A100027C01FF028C020F0000E226E0A0E216EA3
:100A2000E1ECE6F01F50300F0001E66FE40E206E9F
:100A3000000E216E030E226E76ECEAF0D00E00015D
:100A40007E6FC90EE82EFED77E2FFCD700D0460E53
:100A5000206EFF0E216EBFECE8F0D00E00017E6F1D
:100A6000C90EE82EFED77E2FFCD700D03E502D0DAC
:100A7000FC0EF324D96E040EF420DA6EDECF27F0DC
:100A8000DDCF28F027C062F028C063F0000E00011F
:100A9000656F640E646F39ECE6F000016251300F4F
:100AA000E46F000E226E640E216E27C01FF028C076
:100AB00020F0E1ECE6F01FC062F020C063F0000E11
:100AC0000001656F0A0E646F39ECE6F000016251B7
:100AD000300FE56F27C01FF028C020F0000E226EF7
:100AE0000A0E216EE1ECE6F01F50300F0001E66FB8
:100AF000E40E206E000E216E030E226E76ECEAF0FC
:100B0000D00E00017E6FC90EE82EFED77E2FFCD7D7
:100B100000D04B0E206EFE0E216EBFECE8F0D00E22
:100B200000017E6FC90EE82EFED77E2FFCD700D0C5
:100B30003E502D0D180EF324D96E050EF420DA6EFA
:100B4000DF5000017E6F7E511F6E206A000E226E04
:100B50000A0E216EE8ECE0F01F50300F0001E46F48
:100B60003E502D0D180EF324D96E050EF420DA6ECA
:100B7000DF507E6F7E516E6F6F6B000E716F0A0ECD
:100B8000706FADECE1F000016E51300FE56FE40ED7
:100B9000206E000E216E020E226E76ECEAF0D00E70
:100BA00000017E6FC90EE82EFED77E2FFCD700D045
:100BB000C00E206EFC0E216EBFECE8F0AEEF87F0A9
:100BC000CA0E206EF70E216EBFECE8F0D00E0001C9
:100BD0007E6FC90EE82EFED77E2FFCD700D0AEEF79
:100BE00087F0D00E00017E6FC90EE82EFED77E2F53
:100BF000FCD700D0790E206EFE0E216EBFECE8F01F
:100C0000D00E00017E6FC90EE82EFED77E2FFCD7D6
:100C100000D0D7C01FF0206A000E226E0A0E216E8F
:100C2000E8ECE0F01F50300F0001E46FD7C06EF029
:100C30006F6B000E716F0A0E706FADECE1F000018A
:100C40006E51300FE56FE40E206E000E216E020E25
:100C5000226E76ECEAF0D00E00017E6FC90EE82E0F
:100C6000FED77E2FFCD700D0740E206EFF0E216EB3
:100C7000BFECE8F0D00E00017E6FC90EE82EFED763
:100C80007E2FFCD700D0FE0E206EFE0E216EBFEC34
:100C9000E8F0D00E00017E6FC90EE82EFED77E2F41
:100CA000FCD700D033C01FF0206A000E226E0A0E5F
:100CB000216EE8ECE0F01F50300F0001E46F33C00C
:100CC0006EF06F6B000E716F0A0E706FADECE1F09D
:100CD00000016E51300FE56FE40E206E000E216EA4
:100CE000020E226E76ECEAF0D00E00017E6FC90E85
:100CF000E82EFED77E2FFCD700D0740E206EFF0E9C
:100D0000216EBFECE8F0D00E00017E6FC90EE82E18
:100D1000FED77E2FFCD700D0070E206EFF0E216E6F
:100D2000BFECE8F0D00E00017E6FC90EE82EFED7B2
:100D30007E2FFCD700D0D6C01FF0206A000E226E96
:100D40000A0E216EE8ECE0F01F50300F0001E46F56
:100D5000D6C06EF06F6B000E716F0A0E706FADEC47
:100D6000E1F000016E51300FE56FE40E206E000ED1
:100D7000216E020E226E76ECEAF0D00E00017E6F3C
:100D8000C90EE82EFED77E2FFCD700D0A50E206E10
:100D9000FF0E216EBFECE8F0D00E00017E6FC90E91
:100DA000E82EFED77E2FFCD700D0840E206EFE0EDC
:100DB000216EBFECE8F0D00E00017E6FC90EE82E68
:100DC000FED77E2FFCD700D032C01FF0206A000E65
:100DD000226E0A0E216EE8ECE0F01F50300F000189
:100DE000E46F32C06EF06F6B000E716F0A0E706FA1
:100DF000ADECE1F000016E51300FE56FE40E206EB6
:100E0000000E216E020E226E76ECEAF0D00E00018A
:100E10007E6FC90EE82EFED77E2FFCD700D0740E51
:100E2000206EFF0E216EBFECE8F0D00E00017E6F49
:100E3000C90EE82EFED77E2FFCD700D0590E206EAB
:100E4000FB0E216EBFECE8F0D00E00017E6FC90EE4
:100E5000E82EFED77E2FFCD700D0C4C027F0C5C037
:100E600028F027C062F028C063F0000E0001656F13
:100E7000640E646F39ECE6F000016251300FE46FEC
:100E8000000E226E640E216E27C01FF028C020F0D5
:100E9000E1ECE6F01FC062F020C063F0000E00013C
:100EA000656F0A0E646F39ECE6F000016251300F95
:100EB000E56F27C01FF028C020F0000E226E0A0E3A
:100EC000216EE1ECE6F01F50300F0001E66FE40EFA
:100ED000206E000E216E030E226E76ECEAF0D00E2C
:100EE00000017E6FC90EE82EFED77E2FFCD700D002
:100EF000A50E206EFF0E216EBFECE8F0E6EF85F048
:100F000000017D517E6F7F6B7F51000AD8B48BEF5B
:100F100087F0AEEF87F07E51010AD8B434EF80F04D
:100F2000030AD8B44BEF80F0010AD8B455EF80F033
:100F3000070AD8B45FEF80F0010AD8B469EF80F0F7
:100F4000030AD8B43EEF81F0010AD8B4DAEF81F099
:100F50000F0AD8B4F1EF85F0AEEF87F0000E2F6ED8
:100F6000000E3F6E090E00017F6F1E0E7E6FE40EB5
:100F7000E82EFED77E2FFCD77F2FFAD700F0290E60
:100F800000017F6F960E7E6F7F0EE82EFED77E2FBC
:100F9000FCD77F2FFAD7290E0001736FF80E746FFC
:100FA000010E756FE3ECDCF012000001D051D8B4F3
:100FB000DCEF87F0DEEF87F02CEF8DF029502A1060
:100FC000D8A4E5EF87F0E7EF87F02CEF8DF0D25152
:100FD000D8A4EDEF87F0EFEF87F02CEF8DF0CD5137
:100FE000D8A4F5EF87F0F7EF87F02CEF8DF0CE5116
:100FF000D8A4FDEF87F0FFEF87F02CEF8DF0D151F3
:10100000D8A405EF88F007EF88F02CEF8DF0000EE4
:10101000BD6F22EF8DF0BD512D0D1D0EF324D96E45
:10102000050EF420DA6EDE04D8A419EF88F01BEF69
:1010300088F013EF8AF0BD512D0D1F0EF324D96EE9
:10104000050EF420DA6EDF50D8B429EF88F02BEFCC
:1010500088F013EF8AF0BD512D0D1A0EF324D96ECE
:10106000050EF420DA6EDE04D8A439EF88F03BEFE9
:1010700088F013EF8AF0520E0001B86F2B0EB76F95
:10108000000EE82EFED7B72FFCD7B82FFAD700F006
:101090009084000E0101B26F000EB16F000EB06FB0
:1010A000000EAF6F000EAE6F000EAD6F000EAC6F96
:1010B000000EAB6F000EA26F000EA16F000EA06FAE
:1010C000000E9F6F000E9E6F000E9D6F000E9C6FB6
:1010D000000E9B6F000E0001DF6F000EDE6F000E32
:1010E000DD6F000E0101D36F0001BD512D0DFE0E0D
:1010F000F324D96E040EF420DA6EDECFB9F1DDCF21
:10110000BAF1BD512D0D000EF324D96E050EF42059
:10111000DA6EDECFB7F1DDCFB8F1BD512D0D020E85
:10112000F324D96E050EF420DA6EDECFB5F1DDCFF3
:10113000B6F1BD512D0D040EF324D96E050EF42029
:10114000DA6EDECFB3F1DDCFB4F1BD512D0D060E59
:10115000F324D96E050EF420DA6EDECFA9F1DDCFCF
:10116000AAF1BD512D0D080EF324D96E050EF42001
:10117000DA6EDECFA7F1DDCFA8F1BD512D0D0A0E3D
:10118000F324D96E050EF420DA6EDECFA5F1DDCFA3
:10119000A6F1BD512D0D0C0EF324D96E050EF420D1
:1011A000DA6EDECFA3F1DDCFA4F1BD512D0D0E0E11
:1011B000F324D96E050EF420DA6EDF50E36FBD51D3
:1011C0002D0D0F0EF324D96E050EF420DA6EDF50CC
:1011D000E26FBD512D0D100EF324D96E050EF420D3
:1011E000DA6EDF50E16FBD512D0D110EF324D96E73
:1011F000050EF420DA6EDF50E06F0101B951BA112B
:10120000D8B405EF89F007EF89F00AEF89F08E86F0
:10121000B14BB22BB751B811D8B411EF89F013EF1D
:1012200089F016EF89F08E88AF4BB02BB551B6110F
:10123000D8B41DEF89F01FEF89F022EF89F08E8A74
:10124000AD4BAE2BB351B411D8B429EF89F02BEFCD
:1012500089F02EEF89F08E8CAB4BAC2B0001BD5189
:101260002D0D1A0EF324D96E050EF420DA6E020E3F
:10127000DF6EBD512D0D200EF324D96E050EF42026
:10128000DA6EDF50D8B447EF89F049EF89F05FEFAD
:1012900089F0BD512D0D200EF324D96E050EF420DA
:1012A000DA6E000EDF6E50ECDDF060C0BBF161C0A5
:1012B000BCF1BBC129F0BCC12AF06BEF89F0BD5174
:1012C0002D0DFC0EF324D96E040EF420DA6EDECF61
:1012D00029F0DDCF2AF0090E0001B86F1E0EB76F9E
:1012E000E40EE82EFED7B72FFCD7B82FFAD700F0C0
:1012F0000001BD51020D990EF324F66EEB0EF420A1
:10130000F76EF86A000EF8220900F5CF60F00A00C7
:10131000F5CF61F0BD512D0DF40EF324626F040E74
:10132000F420636F59ECDFF0090E0001B86F1E0E58
:10133000B76FE40EE82EFED7B72FFCD7B82FFAD739
:1013400000F0B0ECE2F0090E0001B86F1E0EB76FAE
:10135000E40EE82EFED7B72FFCD7B82FFAD700F04F
:10136000090E0001BD61B7EF89F0B9EF89F0C0EF58
:1013700089F0300EE46FBD51310FE56FD5EF89F084
:10138000080EBD65C6EF89F0C8EF89F0D5EF89F08A
:10139000100EBD61CEEF89F0D0EF89F0D5EF89F066
:1013A000310EE46FBD51270FE56F5AECECF08A0E59
:1013B0000001736FF90E746F020E756FE3ECDCF0D1
:1013C0008A0E0001736FFD0E746F030E756FE3ECF0
:1013D000DCF0110E0001686F030E37ECE8F0E40E4C
:1013E0000201D36F000ED46FF60ED56FFF0ED66FCD
:1013F00031C0D7F2D86B14ECE9F0E40E0001686F4D
:10140000000E696F14ECE7F09C0E0001796FF60E88
:101410007A6FD40E7B6F010E7C6F020E7D6F00EC35
:1014200080F013EF8FF0BD512D0D1D0EF324D96EFA
:10143000050EF420DA6EDE04D8A421EF8AF023EF43
:101440008AF010EF8CF0BD512D0D1F0EF324D96ED4
:10145000050EF420DA6EDF50D8B431EF8AF033EFA6
:101460008AF010EF8CF0BD512D0D1A0EF324D96EB9
:10147000050EF420DA6E020EDE18D8A442EF8AF0D0
:1014800044EF8AF010EF8CF0520E0001B86F2B0E73
:10149000B76F000EE82EFED7B72FFCD7B82FFAD7BC
:1014A00000F090948E968E988E9A8E9C0001BD517D
:1014B0002D0D1A0EF324D96E050EF420DA6E030EEC
:1014C000DF6EBD512D0D180EF324D96E050EF420DC
:1014D000DA6EDF06BD512D0D180EF324D96E050E00
:1014E000F420DA6EDF50D8A478EF8AF07AEF8AF031
:1014F00084EF8AF0BD512D0D1F0EF324D96E050E19
:10150000F420DA6E000EDF6E090E0001B86F1E0EB9
:10151000B76FE40EE82EFED7B72FFCD7B82FFAD757
:1015200000F00001BD51020D990EF324F66EEB0E92
:10153000F420F76EF86A000EF8220900F5CF60F08B
:101540000A00F5CF61F0BD512D0DF40EF324626F4A
:10155000040EF420636F00ECADF0090E0001B86FCB
:101560001E0EB76FE40EE82EFED7B72FFCD7B82FAC
:10157000FAD700F00001BD512D0DF80EF324D96EFD
:10158000040EF420DA6EDECFB7F0DDCFB8F0BD5137
:101590002D0DFC0EF324D96E040EF420DA6EDECF8E
:1015A000B9F0DDCFBAF0BD512D0DFA0EF324D96E8E
:1015B000040EF420DA6EDECFBBF0DDCFBCF0BB1F33
:1015C000BC1FBB4BBC2BB951BB5FBA51BC5BB75105
:1015D000BB25296EB851BC212A6E090E0001B86FD7
:1015E0001E0EB76FE40EE82EFED7B72FFCD7B82F2C
:1015F000FAD700F0B0ECE2F0090E0001B86F1E0E51
:10160000B76FE40EE82EFED7B72FFCD7B82FFAD766
:1016100000F0090E0001BD6110EF8BF012EF8BF0AE
:1016200019EF8BF0300EE46FBD51310FE56F2EEFE7
:101630008BF0080EBD651FEF8BF021EF8BF02EEFC6
:101640008BF0100EBD6127EF8BF029EF8BF02EEFA2
:101650008BF0310EE46FBD51270FE56F0101BF51D3
:10166000D8B435EF8BF037EF8BF080EF8BF0000EB6
:10167000BF6F5AECECF0620E0001736FF90E746FDD
:10168000020E756FE3ECDCF0A70E0001736FF80E2D
:10169000746F030E756FE3ECDCF08A0E0001736F5C
:1016A000FD0E746F040E756FE3ECDCF0110E00019B
:1016B000686F040E37ECE8F0E40E0201D36F000E01
:1016C000D46FF60ED56FFF0ED66F31C0D7F2D86B40
:1016D00014ECE9F0E40E0001686F000E696F14EC81
:1016E000E7F0830E0001796FF30E7A6FD40E7B6FF3
:1016F000010E7C6F020E7D6F00EC80F013EF8FF017
:101700000001D351D8B487EF8BF089EF8BF0D2EF83
:101710008BF0000ED36F5AECECF0620E0001736F89
:10172000F90E746F020E756FE3ECDCF09E0E000193
:10173000736FF90E746F030E756FE3ECDCF08A0EB5
:101740000001736FFD0E746F040E756FE3ECDCF037
:10175000110E0001686F040E37ECE8F0E40E020190
:10176000D36F000ED46FF60ED56FFF0ED66F31C05B
:10177000D7F2D86B14ECE9F0E40E0001686F000EAC
:10178000696F14ECE7F07F0E0001796FF20E7A6F4B
:10179000D40E7B6F010E7C6F020E7D6F00EC80F02B
:1017A00013EF8FF05AECECF0620E0001736FF90E3C
:1017B000746F020E756FE3ECDCF08A0E0001736F3C
:1017C000FD0E746F030E756FE3ECDCF0110E00017B
:1017D000686F030E37ECE8F0E40E0201D36F000EE1
:1017E000D46FF60ED56FFF0ED66F31C0D7F2D86B1F
:1017F00014ECE9F0E40E0001686F000E696F14EC60
:10180000E7F07A0E0001796FF60E7A6FD40E7B6FD7
:10181000010E7C6F020E7D6F00EC80F013EF8FF0F5
:10182000BD512D0D1D0EF324D96E050EF420DA6E78
:10183000DE04D8A41EEF8CF020EF8CF021EF8DF0A9
:10184000BD512D0D1D0EF324D96E050EF420DA6E58
:10185000000EDF6EBD512D0D1B0EF324D96E050E4B
:10186000F420DA6EBD512D0D1C0EF324E16E050E31
:10187000F420E26EDE50E618D8A441EF8CF043EF7E
:101880008CF04FEF8CF0BD512D0D1C0EF324D96E52
:10189000050EF420DA6E010EDF6E58EF8CF0BD51AC
:1018A0002D0D1C0EF324D96E050EF420DA6EDF2AFE
:1018B000000ED06F010ECF6FBD29DB6F090E000146
:1018C000B86F1E0EB76FE40EE82EFED7B72FFCD709
:1018D000B82FFAD700F00001BD5146ECE7F0090E31
:1018E0000001B86F1E0EB76FE40EE82EFED7B72FBB
:1018F000FCD7B82FFAD700F00001BD51020D990EA8
:10190000F324F66EEB0EF420F76EF86A000EF82260
:101910000900F5CF60F00A00F5CF61F0BD512D0D43
:10192000F40EF324626F040EF420636F3EECE9F0D2
:10193000090E0001B86F1E0EB76FE40EE82EFED739
:10194000B72FFCD7B82FFAD700F00001BD51020D18
:10195000990EF324F66EEB0EF420F76EF86A000E83
:10196000F8220900F5CF60F00A00F5CF61F0BD5113
:101970002D0DF40EF324626F040EF420636F68ECF7
:10198000E9F0090E0001B86F1E0EB76FE40EE82EE5
:10199000FED7B72FFCD7B82FFAD700F00001BD5102
:1019A0002D0D1F0EF324D96E050EF420DA6EDF50D4
:1019B000D8B4DDEF8CF0DFEF8CF013EF8FF0BD517A
:1019C0002D0D1A0EF324D96E050EF420DA6E000EDA
:1019D000DF6E090E0001B86F1E0EB76FE40EE82E21
:1019E000FED7B72FFCD7B82FFAD700F00001BD51B2
:1019F000020D990EF324F66EEB0EF420F76EF86AE2
:101A0000000EF8220900F5CF60F00A00F5CF61F072
:101A1000BD512D0DF40EF324626F040EF420636F9C
:101A200059ECDFF0090E0001B86F1E0EB76FE40E1F
:101A3000E82EFED7B72FFCD7B82FFAD700F013EF58
:101A40008FF0BD2B0F0EBD6528EF8DF02AEF8DF0C6
:101A50000BEF88F013EF8FF0CE51D8B432EF8DF04A
:101A600034EF8DF013EF8FF0000ECE6F000EBD6FD0
:101A70000BEF8FF0BD512D0D1D0EF324D96E050E09
:101A8000F420DA6EDE04D8A448EF8DF04AEF8DF032
:101A90000AEF8FF0BD512D0D1E0EF324D96E050EE9
:101AA000F420DA6EDF50D8A458EF8DF05AEF8DF0A5
:101AB00046EF8EF0BD512D0D1D0EF324D96E050E8F
:101AC000F420DA6E000EDF6EBD512D0D1B0EF324D7
:101AD000D96E050EF420DA6EBD512D0D1C0EF324C7
:101AE000E16E050EF420E26EDE50E618D8A47BEF1E
:101AF0008DF07DEF8DF089EF8DF0BD512D0D1C0E19
:101B0000F324D96E050EF420DA6E010EDF6E92EF2B
:101B10008DF0BD512D0D1C0EF324D96E050EF42051
:101B2000DA6EDF2ABD512D0D1A0EF324D96E050E83
:101B3000F420DA6E020EDE18D8A4A1EF8DF0A3EF28
:101B40008DF0DAEF8DF090948E968E988E9A8E9C12
:101B5000BD512D0D1A0EF324D96E050EF420DA6E48
:101B6000000EDF6EBD51020D990EF324F66EEB0EE2
:101B7000F420F76EF86A000EF8220900F5CF60F045
:101B80000A00F5CF61F0BD512D0DF40EF324626F04
:101B9000040EF420636F59ECDFF0090E0001B86FFA
:101BA0001E0EB76FE40EE82EFED7B72FFCD7B82F66
:101BB000FAD700F0000E0001D06F010ECF6FBD29E3
:101BC000DB6F090E0001B86F1E0EB76FE40EE82E32
:101BD000FED7B72FFCD7B82FFAD700F00001BD51C0
:101BE00046ECE7F0090E0001B86F1E0EB76FE40E69
:101BF000E82EFED7B72FFCD7B82FFAD700F0000198
:101C0000BD51020D990EF324F66EEB0EF420F76E23
:101C1000F86A000EF8220900F5CF60F00A00F5CF4F
:101C200061F0BD512D0DF40EF324626F040EF4200B
:101C3000636F3EECE9F0090E0001B86F1E0EB76F3E
:101C4000E40EE82EFED7B72FFCD7B82FFAD700F056
:101C50000001BD51020D990EF324F66EEB0EF42037
:101C6000F76EF86A000EF8220900F5CF60F00A005E
:101C7000F5CF61F0BD512D0DF40EF324626F040E0B
:101C8000F420636F68ECE9F012EF8DF0BD512D0D7B
:101C90001A0EF324D96E050EF420DA6EDE04D8A4F1
:101CA00054EF8EF056EF8EF083EF8EF0BBECDDF04C
:101CB00060C029F061C02AF00001BD512D0DFA0E5F
:101CC000F324D96E040EF420DA6EDECFB7F0DDCF48
:101CD000B8F0BD512D0DF80EF324D96E040EF4208A
:101CE000DA6EDECFB9F0DDCFBAF0B751B95FB851D7
:101CF000BA5B2950B925296E2A50BA212A6EB0EC58
:101D0000E2F012EF8DF0BD512D0D1A0EF324D96EB5
:101D1000050EF420DA6E020EDE18D8A492EF8EF0D3
:101D200094EF8EF00AEF8FF090948E968E988E9AA4
:101D30008E9CBD512D0D1A0EF324D96E050EF42084
:101D4000DA6E000EDF6EBD51020D990EF324F66EB1
:101D5000EB0EF420F76EF86A000EF8220900F5CFBA
:101D600060F00A00F5CF61F0BD512D0DF40EF324A3
:101D7000626F040EF420636F59ECDFF0090E00016E
:101D8000B86F1E0EB76FE40EE82EFED7B72FFCD744
:101D9000B82FFAD700F0BBECDDF060C029F061C0CD
:101DA0002AF00001BD512D0DF80EF324D96E040E5A
:101DB000F420DA6EDECFB7F0DDCFB8F0BD512D0DD7
:101DC000FC0EF324D96E040EF420DA6EDECFB9F0E7
:101DD000DDCFBAF0BD512D0DFA0EF324D96E040EED
:101DE000F420DA6EDECFBBF0DDCFBCF0BB1FBC1F32
:101DF000BB4BBC2BB951BB5FBA51BC5BB751BB27C6
:101E0000B851BC232950BB25296E2A50BC212A6E0B
:101E10007FEF8EF0BD2B0F0EBD6511EF8FF013EF2E
:101E20008FF03AEF8DF01200050E0001656F0F0E76
:101E3000646FF10EE82EFED7642FFCD7652FFAD71A
:101E400060C01FF061C020F049ECECF00001646F4D
:101E50006451276E286A050E0001656F0F0E646FCE
:101E6000F10EE82EFED7642FFCD7652FFAD7FF0EB0
:101E70002716000E2816010E000160251F6E000EA9
:101E80006121206E49ECECF00001646F6451256E15
:101E9000266A050E0001656F0F0E646FF10EE82EC5
:101EA000FED7642FFCD7652FFAD72550266E256AFA
:101EB000000E2516FF0E2616255027100001646F10
:101EC00026502810656F62C0D9FF63C0DAFF64C076
:101ED000DEFF65C0DDFF020E60251F6E000E612172
:101EE000206E49ECECF00001646F6451276E286AA3
:101EF000050E0001656F0F0E646FF10EE82EFED720
:101F0000642FFCD7652FFAD7FF0E2716000E281670
:101F1000030E000160251F6E000E6121206E49EC4A
:101F2000ECF00001646F6451256E266A050E000115
:101F3000656F0F0E646FF10EE82EFED7642FFCD78D
:101F4000652FFAD72550266E256A000E2516FF0E3E
:101F50002616255027100001646F26502810656F43
:101F600020EE02F06251D9266351DA2264C0DEFF0E
:101F700065C0DDFF040E60251F6E000E6121206E1E
:101F800049ECECF00001646F6451276E286A050E7D
:101F90000001656F0F0E646FF10EE82EFED7642FFF
:101FA000FCD7652FFAD7FF0E2716000E2816050E50
:101FB000000160251F6E000E6121206E49ECECF0DF
:101FC0000001646F6451256E266A050E0001656F7D
:101FD0000F0E646FF10EE82EFED7642FFCD7652F2D
:101FE000FAD72550266E256A000E2516FF0E2616F6
:101FF000255027100001646F26502810656F20EED1
:1020000004F06251D9266351DA2264C0DEFF65C054
:10201000DDFF050E0001656F0F0E646FF10EE82EF7
:10202000FED7642FFCD7652FFAD7060E0001602576
:102030001F6E000E6121206E49ECECF00001646F10
:102040006451276E286A050E0001656F0F0E646FDC
:10205000F10EE82EFED7642FFCD7652FFAD7FF0EBE
:102060002716000E2816070E000160251F6E000EB1
:102070006121206E49ECECF00001646F6451256E23
:10208000266A2550266E256A000E2516FF0E261696
:1020900025502710646F26502810656F20EE06F03B
:1020A0006251D9266351DA2264C0DEFF65C0DDFFCC
:1020B000050E0001656F0F0E646FF10EE82EFED75E
:1020C000642FFCD7652FFAD7080E000160251F6E1C
:1020D000000E6121206E49ECECF00001646F645148
:1020E000276E286A050E0001656F0F0E646FF10EF2
:1020F000E82EFED7642FFCD7652FFAD7FF0E2716E0
:10210000000E2816090E000160251F6E000E6121C9
:10211000206E49ECECF00001646F6451256E266A74
:102120002550266E256A000E2516FF0E2616255010
:102130002710646F26502810656F20EE08F062515A
:10214000D9266351DA2264C0DEFF65C0DDFF050ECB
:102150000001656F0F0E646FF10EE82EFED7642F3D
:10216000FCD7652FFAD70A0E000160251F6E000EFE
:102170006121206E49ECECF00001646F6451276E20
:10218000286A050E0001656F0F0E646FF10EE82ED0
:10219000FED7642FFCD7652FFAD7FF0E2716000E47
:1021A00028160B0E000160251F6E000E6121206EA7
:1021B00049ECECF00001646F6451256E266A2550ED
:1021C000266E256A000E2516FF0E261625502710AE
:1021D000646F26502810656F20EE0AF06251D926F0
:1021E0006351DA2264C0DEFF65C0DDFF050E000129
:1021F000656F0F0E646FF10EE82EFED7642FFCD7CB
:10220000652FFAD70C0E000160251F6E000E6121AC
:10221000206E49ECECF00001646F6451276E286A6F
:10222000050E0001656F0F0E646FF10EE82EFED7EC
:10223000642FFCD7652FFAD7FF0E2716000E28163D
:102240000D0E000160251F6E000E6121206E49EC0D
:10225000ECF00001646F6451256E266A2550266EED
:10226000256A000E2516FF0E261625502710646FCE
:1022700026502810656F20EE0CF06251D92663516C
:10228000DA2264C0DEFF65C0DDFF050E0001656F68
:102290000F0E646FF10EE82EFED7642FFCD7652F6A
:1022A000FAD70E0E000160251F6E000E6121206E10
:1022B00049ECECF00001646F6451276E286A050E4A
:1022C0000001656F0F0E646FF10EE82EFED7642FCC
:1022D000FCD7652FFAD7FF0E2716000E28160F0E13
:1022E000000160251F6E000E6121206E49ECECF0AC
:1022F0000001646F6451256E266A2550266E256A9A
:10230000000E2516FF0E261625502710646F265046
:102310002810656F20EE0EF06251D9266351DA2243
:1023200064C0DEFF65C0DDFF050E0001656F0F0EA6
:10233000646FF10EE82EFED7642FFCD7652FFAD715
:10234000100E000160251F6E000E6121206E49EC09
:10235000ECF00001646F6451276E286A050E0001DD
:10236000656F0F0E646FF10EE82EFED7642FFCD759
:10237000652FFAD7FF0E2716000E2816110E000142
:1023800060251F6E000E6121206E49ECECF000010B
:10239000646F6451256E266A2550266E256A000EEC
:1023A0002516FF0E261625502710646F265028107C
:1023B000656F20EE10F06251D9266351DA2264C0B5
:1023C000DEFF65C0DDFF050E0001656F0F0E646F57
:1023D000F10EE82EFED7642FFCD7652FFAD7120E28
:1023E000000160251F6E000E6121206E49ECECF0AB
:1023F0000001646F6451276E286A050E0001656F45
:102400000F0E646FF10EE82EFED7642FFCD7652FF8
:10241000FAD7FF0E2716000E2816130E00016025AE
:102420001F6E000E6121206E49ECECF00001646F1C
:102430006451256E266A2550266E256A000E2516E3
:10244000FF0E261625502710646F26502810656F42
:1024500020EE12F06251D9266351DA2264C0DEFF09
:1024600065C0DDFF050E0001656F0F0E646FF10E94
:10247000E82EFED7642FFCD7652FFAD7140E000183
:1024800060251F6E000E6121206E49ECECF000010A
:10249000646F6451276E286A050E0001656F0F0E88
:1024A000646FF10EE82EFED7642FFCD7652FFAD7A4
:1024B000FF0E2716000E2816150E000160251F6E50
:1024C000000E6121206E49ECECF00001646F645154
:1024D000256E266A2550266E256A000E2516FF0EEB
:1024E000261625502710646F26502810656F20EEA1
:1024F00014F06251D9266351DA2264C0DEFF65C050
:10250000DDFF050E0001656F0F0E646FF10EE82E02
:10251000FED7642FFCD7652FFAD7160E0001602571
:102520001F6E000E6121206E49ECECF00001646F1B
:102530006451276E286A050E0001656F0F0E646FE7
:10254000F10EE82EFED7642FFCD7652FFAD7FF0EC9
:102550002716000E2816170E000160251F6E000EAC
:102560006121206E49ECECF00001646F6451256E2E
:10257000266A2550266E256A000E2516FF0E2616A1
:1025800025502710646F26502810656F20EE16F036
:102590006251D9266351DA2264C0DEFF65C0DDFFD7
:1025A000050E0001656F0F0E646FF10EE82EFED769
:1025B000642FFCD7652FFAD7180E000160251F6E17
:1025C000000E6121206E49ECECF00001646F645153
:1025D000276E286A050E0001656F0F0E646FF10EFD
:1025E000E82EFED7642FFCD7652FFAD7FF0E2716EB
:1025F000000E2816190E000160251F6E000E6121C5
:10260000206E49ECECF00001646F6451256E266A7F
:102610002550266E256A000E2516FF0E261625501B
:102620002710646F26502810656F20EE18F0625155
:10263000D9266351DA2264C0DEFF65C0DDFF050ED6
:102640000001656F0F0E646FF10EE82EFED7642F48
:10265000FCD7652FFAD7000120EE1AF06251D92677
:102660006351DA221A0E60251F6E000E6121206E62
:1026700049ECECF0DF6E050E0001656F0F0E646F24
:10268000F10EE82EFED7642FFCD7652FFAD7000194
:1026900020EE1BF06251D9266351DA221B0E602511
:1026A0001F6E000E6121206E49ECECF0DF6E050E0E
:1026B0000001656F0F0E646FF10EE82EFED7642FD8
:1026C000FCD7652FFAD7000120EE1CF06251D92605
:1026D0006351DA221C0E60251F6E000E6121206EF0
:1026E00049ECECF0DF6E050E0001656F0F0E646FB4
:1026F000F10EE82EFED7642FFCD7652FFAD7000124
:1027000020EE1DF06251D9266351DA221D0E60259C
:102710001F6E000E6121206E49ECECF0DF6E050E9D
:102720000001656F0F0E646FF10EE82EFED7642F67
:10273000FCD7652FFAD7000120EE1EF06251D92692
:102740006351DA221E0E60251F6E000E6121206E7D
:1027500049ECECF0DF6E050E0001656F0F0E646F43
:10276000F10EE82EFED7642FFCD7652FFAD70001B3
:1027700020EE1FF06251D9266351DA221F0E602528
:102780001F6E000E6121206E49ECECF0DF6E050E2D
:102790000001656F0F0E646FF10EE82EFED7642FF7
:1027A000FCD7652FFAD7000120EE20F06251D92620
:1027B0006351DA22200E60251F6E000E6121206E0B
:1027C00049ECECF0DF6E050E0001656F0F0E646FD3
:1027D000F10EE82EFED7642FFCD7652FFAD7000143
:1027E00020EE21F06251D9266351DA22210E6025B4
:1027F0001F6E000E6121206E49ECECF0DF6E050EBD
:102800000001656F0F0E646FF10EE82EFED7642F86
:10281000FCD7652FFAD7000120EE22F06251D926AD
:102820006351DA22220E60251F6E000E6121206E98
:1028300049ECECF0DF6E050E0001656F0F0E646F62
:10284000F10EE82EFED7642FFCD7652FFAD70001D2
:1028500020EE23F06251D9266351DA22230E60253F
:102860001F6E000E6121206E49ECECF0DF6E050E4C
:102870000001656F0F0E646FF10EE82EFED7642F16
:10288000FCD7652FFAD7000120EE24F06251D9263B
:102890006351DA22240E60251F6E000E6121206E26
:1028A00049ECECF0DF6E050E0001656F0F0E646FF2
:1028B000F10EE82EFED7642FFCD7652FFAD7000162
:1028C00020EE25F06251D9266351DA22250E6025CB
:1028D0001F6E000E6121206E49ECECF0DF6E050EDC
:1028E0000001656F0F0E646FF10EE82EFED7642FA6
:1028F000FCD7652FFAD7000120EE26F06251D926C9
:102900006351DA22260E60251F6E000E6121206EB3
:1029100049ECECF0DF6E050E0001656F0F0E646F81
:10292000F10EE82EFED7642FFCD7652FFAD70001F1
:1029300020EE27F06251D9266351DA22270E602556
:102940001F6E000E6121206E49ECECF0DF6E050E6B
:102950000001656F0F0E646FF10EE82EFED7642F35
:10296000FCD7652FFAD7000120EE28F06251D92656
:102970006351DA22280E60251F6E000E6121206E41
:1029800049ECECF0DF6E050E0001656F0F0E646F11
:10299000F10EE82EFED7642FFCD7652FFAD7000181
:1029A00020EE29F06251D9266351DA22290E6025E2
:1029B0001F6E000E6121206E49ECECF00009D8A4D6
:1029C000E4EF94F0E7EF94F0010EE8EF94F0000EDE
:1029D000DF6E050E0001656F0F0E646FF10EE82EBD
:1029E000FED7642FFCD7652FFAD7000120EE2AF01E
:1029F0006251D9266351DA222A0E60251F6E000E1D
:102A00006121206E49ECECF00009D8A40AEF95F0A2
:102A10000DEF95F0010E0EEF95F0000EDF6E050E36
:102A20000001656F0F0E646FF10EE82EFED7642F64
:102A3000FCD7652FFAD7000120EE2BF06251D92682
:102A40006351DA222B0E60251F6E000E6121206E6D
:102A500049ECECF00009D8A430EF95F033EF95F095
:102A6000010E34EF95F0000EDF6E050E0001656F6C
:102A70000F0E646FF10EE82EFED7642FFCD7652F82
:102A8000FAD7000120EE2CF06251D9266351DA22E8
:102A90002C0E60251F6E000E6121206E49ECECF0BB
:102AA0000009D8A456EF95F059EF95F0010E5AEFB2
:102AB00095F0000EDF6E050E0001656F0F0E646F5E
:102AC000F10EE82EFED7642FFCD7652FFAD712003F
:102AD000DEECC8F000ECBBF0EFECD8F00201E96FDF
:102AE000030EE919D8B477EF95F079EF95F0C8EFB8
:102AF00095F05AECECF0FB0E0001736FF80E746F5A
:102B0000020E756FE3ECDCF0000E0201E86FE40EDC
:102B1000D36F000ED46FD60ED56FFF0ED66F010E99
:102B2000E8251F6E206A000E2022000E226E0A0E7B
:102B3000216E35ECECF01FC0D7F220C0D8F2000EA9
:102B40000201DA6F250ED96F14ECE9F0E40E0001F2
:102B5000736F000E746F030E756FE3ECDCF0A30E61
:102B60000101FF6F570EFE6F020EE82EFED7FE2FFB
:102B7000FCD7FF2FFAD700F00201E82B090EE86519
:102B8000C4EF95F0C6EF95F087EF95F0D5EF95F08F
:102B9000030EE919D8A4CFEF95F0D1EF95F0D5EF5A
:102BA00095F0BEECEAF059ECA9F07FECB0F0B0EC97
:102BB000D6F0520E0101FF6F2B0EFE6F000EE82EB5
:102BC000FED7FE2FFCD7FF2FFAD700F013ECD5F07D
:102BD000BBECE9F006ECE2F036C01FF0206A000E14
:102BE000226E0A0E216EE8ECE0F01F50300F00015B
:102BF000E46F36C06EF06F6B000E716F0A0E706F6F
:102C0000ADECE1F000016E51300FE56F2F0EE66F75
:102C100037C01FF0206A000E226E0A0E216EE8EC0B
:102C2000E0F01F50300F0001E76F37C06EF06F6BA0
:102C3000000E716F0A0E706FADECE1F000016E5185
:102C4000300FE86F2F0EE96F38C01FF0206A000EBA
:102C5000226E0A0E216EE8ECE0F01F50300F0001EA
:102C6000EA6F38C06EF06F6B000E716F0A0E706FF6
:102C7000ADECE1F000016E51300FEB6F200EEC6F08
:102C8000DAC01FF0206A000E226E0A0E216EE8ECF8
:102C9000E0F01F50300F0001ED6FDAC06EF06F6B87
:102CA000000E716F0A0E706FADECE1F000016E5115
:102CB000300FEE6F3A0EEF6FD9C01FF0206A000E92
:102CC000226E0A0E216EE8ECE0F01F50300F00017A
:102CD000F06FD9C06EF06F6B000E716F0A0E706FDF
:102CE000ADECE1F000016E51300FF16F3A0EF26F72
:102CF000D8C01FF0206A000E226E0A0E216EE8EC8A
:102D0000E0F01F50300F0001F36FD8C06EF06F6B12
:102D1000000E716F0A0E706FADECE1F000016E51A4
:102D2000300FF46F000E3F6E610E796FF70E7A6F01
:102D3000D40E7B6F010E7C6F030E7D6F00EC80F074
:102D4000000E3E6E300E0001E46F3E50310FE56F15
:102D5000700E796FF70E7A6FD40E7B6F010E7C6F59
:102D6000070E7D6F00EC80F0010E3E6E300E00010C
:102D7000E46F3E50310FE56F700E796FF70E7A6F8A
:102D8000D40E7B6F010E7C6F070E7D6F00EC80F020
:102D90000CEF97F05AECECF0600E0001736FFC0E34
:102DA000746F020E756FE3ECDCF0A60E0001736F1A
:102DB000FB0E746F030E756FE3ECDCF0F40E010193
:102DC000FF6F820EFE6F050EE82EFED7FE2FFCD79A
:102DD000FF2FFAD7EE0E0001606F010E616FE70E54
:102DE000626F010E636F000E656F060E646FB9ECC3
:102DF000E4F0FF0E2A6EDC0E296E6BECC5F00001CC
:102E0000D451D8B406EF97F008EF97F00CEF97F095
:102E1000000ED46FBBECE9F03050D8B412EF97F04D
:102E200014EF97F0CAEF96F03050D8B41AEF97F03D
:102E30001CEF97F0FAEF99F0C9ECEBF00009D8B469
:102E400024EF97F026EF97F059EF97F0FF0E2A6ED8
:102E5000DC0E296E5AECECF0FD0E0001736FF70EDC
:102E6000746F020E756FE3ECDCF0C20E0001736F3D
:102E7000FD0E746F030E756FE3ECDCF0130E0001B2
:102E8000736FF80E746F040E756FE3ECDCF0470E91
:102E90000001796FF30E7A6FD40E7B6F010E7C6F99
:102EA000000E7D6F00EC80F0010E0101C46FFAEF9F
:102EB00099F0000E0001DB6F000E3E6EBCEF98F043
:102EC0003E502D0D1D0EF324D96E050EF420DA6E42
:102ED000DE04D8A46EEF97F070EF97F0BBEF98F098
:102EE0003EC0DBF006ECE2F03E502D0D170EF32451
:102EF000D96E050EF420DA6E3850DE5CD8A083EF70
:102F000097F085EF97F01FEF98F03E502D0D160EBD
:102F1000F324D96E050EF420DA6E3750DE5CD8B09B
:102F200094EF97F096EF97F0A7EF97F03E502D0DA6
:102F3000170EF324D96E050EF420DA6E3850DE1821
:102F4000D8B4A5EF97F0A7EF97F01FEF98F03E5099
:102F50002D0D150EF324D96E050EF420DA6E3650C1
:102F6000DE5CD8B0B6EF97F0B8EF97F0DAEF97F0F5
:102F70003E502D0D160EF324D96E050EF420DA6E98
:102F80003750DE18D8A4C7EF97F0C9EF97F0DAEF03
:102F900097F03E502D0D170EF324D96E050EF42038
:102FA000DA6E3850DE18D8B4D8EF97F0DAEF97F031
:102FB0001FEF98F03E502D0D130EF324D96E050E21
:102FC000F420DA6E0001DA51DE5CD8B0EAEF97F057
:102FD000ECEF97F0B7EF98F03E502D0D150EF3245F
:102FE000D96E050EF420DA6E3650DE18D8A4FBEF49
:102FF00097F0FDEF97F0B7EF98F03E502D0D160EBD
:10300000F324D96E050EF420DA6E3750DE18D8A4FA
:103010000CEF98F00EEF98F0B7EF98F03E502D0DB2
:10302000170EF324D96E050EF420DA6E3850DE1830
:10303000D8A41DEF98F01FEF98F0B7EF98F0000EAE
:103040000001D06F3E502D0D1D0EF324D96E050EDC
:10305000F420DA6E000EDF6E3E502D0D1B0EF324B1
:10306000D96E050EF420DA6E3E502D0D1C0EF324A1
:10307000E16E050EF420E26EDFCFE7FF3E502D0D2E
:103080001F0EF324D96E050EF420DA6EDF50D8B48B
:103090004CEF98F04EEF98F0A8EF98F03E502D0DC1
:1030A0001A0EF324D96E050EF420DA6E020EDE1825
:1030B000D8A45DEF98F05FEF98F07DEF98F03E5068
:1030C0002D0D1A0EF324D96E050EF420DA6E000EC3
:1030D000DF6E3E502D0D200EF324D96E050EF42028
:1030E000DA6E010EDF6EBBECDDF060C0BBF161C0DB
:1030F000BCF15CECE2F0A8EF98F03E502D0D1A0EFA
:10310000F324D96E050EF420DA6E030EDE18D8B45F
:103110008CEF98F08EEF98F09EEF98F03E502D0DCA
:103120001A0EF324D96E050EF420DA6EDE04D8A44C
:103130009CEF98F09EEF98F0A8EF98F03E502D0D80
:103140001A0EF324D96E050EF420DA6E000EDF6E2F
:10315000090E0101FF6F1E0EFE6FE40EE82EFED772
:10316000FE2FFCD7FF2FFAD700F0C4EF98F0010E26
:10317000D06FC4EF98F03E2A0F0E3E64C2EF98F075
:10318000C4EF98F060EF97F00001D051D8B4CBEFC6
:1031900098F0CDEF98F0D3EF99F0010E0101C76FD1
:1031A000090E3E60D6EF98F0D8EF98F0E0EF98F077
:1031B000300E0001E46F3E50310FE56F4AEF99F099
:1031C000080E3E64E6EF98F0E8EF98F04AEF99F0C9
:1031D000310E0001E46F3E50270FE56F4AEF99F082
:1031E000050E0001796FF10E7A6FD40E7B6F010E20
:1031F0007C6F020E7D6F00EC80F071EF99F0A00EF5
:103200000001796FF10E7A6FD40E7B6F010E7C6F27
:10321000020E7D6F00EC80F071EF99F0530E00010B
:10322000796FF10E7A6FD40E7B6F010E7C6F020EF8
:103230007D6F00EC80F071EF99F0B30E0001796FB3
:10324000F00E7A6FD40E7B6F010E7C6F020E7D6FD5
:1032500000EC80F071EF99F0350E0001796FF20EFD
:103260007A6FD40E7B6F010E7C6F020E7D6F00ECC7
:1032700080F071EF99F0EB0E0001796FF10E7A6F2B
:10328000D40E7B6F010E7C6F020E7D6F00EC80F020
:1032900071EF99F00201E9510101FE6FFF6BFF51DF
:1032A000000AD8B456EF99F071EF99F0FE51010A77
:1032B000D8B4F0EF98F0030AD8B4FFEF98F0010A01
:1032C000D8B40EEF99F0070AD8B41DEF99F0010AAF
:1032D000D8B42CEF99F0030AD8B43BEF99F071EF12
:1032E00099F0BBECDDF060C029F061C02AF0FAEF84
:1032F00099F0310E0001796FF60E7A6FD40E7B6F64
:10330000010E7C6F000E7D6F00EC80F0FAEF99F0FB
:10331000420E0001796FF70E7A6FD40E7B6F010EAB
:103320007C6F000E7D6F00EC80F0FAEF99F0560E86
:103330000001796FF60E7A6FD40E7B6F010E7C6FF1
:10334000000E7D6F00EC80F0FAEF99F0080E00019E
:10335000796FF60E7A6FD40E7B6F010E7C6F000EC4
:103360007D6F00EC80F0FAEF99F0DF0E0001796FCD
:10337000F60E7A6FD40E7B6F010E7C6F000E7D6FA0
:1033800000EC80F0FAEF99F0BE0E0001796FF60EB6
:103390007A6FD40E7B6F010E7C6F000E7D6F00EC98
:1033A00080F0FAEF99F00201E9510101FE6FFF6B25
:1033B000FF51000AD8B4DFEF99F0FAEF99F0FE510F
:1033C000010AD8B479EF99F0030AD8B488EF99F0DC
:1033D000010AD8B497EF99F0070AD8B4A6EF99F08C
:1033E000010AD8B4B5EF99F0030AD8B4C4EF99F044
:1033F000FAEF99F051ECE3F00009D8B402EF9AF03B
:1034000004EF9AF04EEF9AF05AECECF0340E000113
:10341000736FFB0E746F020E756FE3ECDCF0020E3F
:103420000001736FFA0E746F030E756FE3ECDCF03E
:10343000460E0001796FF50E7A6FD40E7B6F010E88
:103440007C6F000E7D6F00EC80F00001C951D8B494
:103450002CEF9AF02EEF9AF016EF9BF058ECD3F089
:10346000520E0101FF6F2B0EFE6F000EE82EFED7ED
:10347000FE2FFCD7FF2FFAD700F09FECE3F0520E9F
:103480000101FF6F2B0EFE6F000EE82EFED7FE2F00
:10349000FCD7FF2FFAD700F016EF9BF00001CC51BC
:1034A000D8B455EF9AF057EF9AF0F4EF9AF0000E77
:1034B000CC6F090E0101FF6F1E0EFE6FE40EE82EA9
:1034C000FED7FE2FFCD7FF2FFAD700F0A7ECE7F0CE
:1034D000090E0101FF6F1E0EFE6FE40EE82EFED7EF
:1034E000FE2FFCD7FF2FFAD700F00001C951D8B446
:1034F0007CEF9AF07EEF9AF0C8EF9AF058ECD3F098
:10350000520E0101FF6F2B0EFE6F000EE82EFED74C
:10351000FE2FFCD7FF2FFAD700F09FECE3F0520EFE
:103520000101FF6F2B0EFE6F000EE82EFED7FE2F5F
:10353000FCD7FF2FFAD700F05AECECF0920E000106
:10354000736FF80E746F020E756FE3ECDCF0500EC3
:103550000001736FFA0E746F030E756FE3ECDCF00D
:10356000B40E0001736FFD0E746F040E756FE3EC03
:10357000DCF0A80E0001796FF40E7A6FD40E7B6F29
:10358000010E7C6F000E7D6F00EC80F016EF9BF05B
:103590005AECECF0920E0001736FF80E746F020E8D
:1035A000756FE3ECDCF0100E0001736FF90E746FB1
:1035B000030E756FE3ECDCF0B40E0001736FFD0ECB
:1035C000746F040E756FE3ECDCF0700E0001796F20
:1035D000F40E7A6FD40E7B6F010E7C6F000E7D6F40
:1035E00000EC80F016EF9BF0C951D8B4FAEF9AF0D6
:1035F000FCEF9AF016EF9BF0520E0101FF6F2B0EBD
:10360000FE6F000EE82EFED7FE2FFCD7FF2FFAD755
:1036100000F0520E0101FF6F2B0EFE6F000EE82E20
:10362000FED7FE2FFCD7FF2FFAD700F01200010EB5
:103630000001806F6E0E7F6F010E826F6D0E816FC5
:10364000000E846F000E836FFF0E2A6EDC0E296E53
:10365000000E0101CA6F0B0E0001DB6532EF9BF01B
:1036600034EF9BF036EF9BF0000EDB6FDBC03EF0DB
:1036700094EF9FF03E502D0D1E0EF324D96E050ED3
:10368000F420DA6EDF50D8B448EF9BF04AEF9BF09D
:1036900093EF9FF03E502D0D1D0EF324D96E050EB5
:1036A000F420DA6EDE04D8B458EF9BF05AEF9BF0AA
:1036B00093EF9FF00101CA51D8A461EF9BF063EF33
:1036C0009BF086EF9BF0090E00017B6F1E0E7A6F58
:1036D000E40EE82EFED77A2FFCD77B2FFAD700F026
:1036E00006ECE2F0090E00017B6F1E0E7A6FE40E0D
:1036F000E82EFED77A2FFCD77B2FFAD700F0010EE9
:103700000101CA6FFF0E2A6EDC0E296E3E502D0D90
:10371000170EF324D96E050EF420DA6E3850DE5CF5
:10372000D8A095EF9BF097EF9BF086EF9CF03E5072
:103730002D0D160EF324D96E050EF420DA6E3750D7
:10374000DE5CD8B0A6EF9BF0A8EF9BF0B9EF9BF042
:103750003E502D0D170EF324D96E050EF420DA6EAF
:103760003850DE18D8B4B7EF9BF0B9EF9BF086EF76
:103770009CF03E502D0D150EF324D96E050EF4204D
:10378000DA6E3650DE5CD8B0C8EF9BF0CAEF9BF023
:10379000ECEF9BF03E502D0D160EF324D96E050E66
:1037A000F420DA6E3750DE18D8A4D9EF9BF0DBEFA7
:1037B0009BF0ECEF9BF03E502D0D170EF324D96ECD
:1037C000050EF420DA6E3850DE18D8B4EAEF9BF01C
:1037D000ECEF9BF086EF9CF03E502D0D130EF32482
:1037E000D96E050EF420DA6E0001DA51DE5CD8B035
:1037F000FCEF9BF0FEEF9BF031EF9CF03E502D0D67
:10380000150EF324D96E050EF420DA6E3650DE184C
:10381000D8A40DEF9CF00FEF9CF031EF9CF03E50E0
:103820002D0D160EF324D96E050EF420DA6E3750E6
:10383000DE18D8A41EEF9CF020EF9CF031EF9CF036
:103840003E502D0D170EF324D96E050EF420DA6EBE
:103850003850DE18D8B42FEF9CF031EF9CF086EF93
:103860009CF03E502D0D140EF324D96E050EF4205D
:10387000DA6EDE50D95DD8A040EF9CF042EF9CF0AC
:103880008BEF9CF03E502D0D130EF324D96E050ED8
:10389000F420DA6EDA51DE18D8A451EF9CF053EF21
:1038A0009CF08BEF9CF03E502D0D150EF324D96E3D
:1038B000050EF420DA6E3650DE18D8A462EF9CF0C4
:1038C00064EF9CF08BEF9CF03E502D0D160EF32410
:1038D000D96E050EF420DA6E3750DE18D8A473EFD7
:1038E0009CF075EF9CF08BEF9CF03E502D0D170E69
:1038F000F324D96E050EF420DA6E3850DE18D8A401
:1039000084EF9CF086EF9CF08BEF9CF0010E0001A1
:10391000D06F9CEF9FF03E502D0D1B0EF324D96EFF
:10392000050EF420DA6E3E502D0D1C0EF324E16ED0
:10393000050EF420E26EDE50E65CD8B0A2EF9CF0FB
:10394000A4EF9CF0A6EF9CF086EF9CF0000ED06FE9
:10395000000E856F000E866F000E876F000E886F59
:1039600038C084F0FFEF9CF0D00E84251F6E206AD3
:10397000070E2022000E226E640E216EE1ECE6F0AE
:103980001F502010D8B4C7EF9CF0C9EF9CF0F5EFA2
:103990009CF084C07AF0030E00017A17D8A4D3EF0C
:1039A0009CF0D5EF9CF0F5EF9CF0D00E84251F6EB7
:1039B000206A070E2022010E226E900E216EE1EC8D
:1039C000E6F01F502010D8A4E8EF9CF0EAEF9CF03E
:1039D000F5EF9CF000017F51852780518623000E72
:1039E0008723000E8823FEEF9CF00001815185277C
:1039F00082518623000E8723000E8823842B3E509D
:103A00002D0D170EF324D96E050EF420DA6EDE505C
:103A1000845DD8A00EEF9DF010EF9DF0B4EF9CF008
:103A20003E502D0D170EF324D96E050EF420DA6EDC
:103A3000DF50616F3E502D0D160EF324D96E050E2A
:103A4000F420DA6EDF5023ECDAF0000161518527B3
:103A500062518623000E8723000E88233E502D0DD1
:103A6000150EF324D96E050EF420DA6EDF507A6F4E
:103A70007A518527000E86238723882338C061F07A
:103A8000375023ECDAF0000161517A6F62517B6F9D
:103A90007C6B7D6B7A51855F7B51865B7C51875B4C
:103AA0007D51885B36C07AF07B6B7C6B7D6B7A5185
:103AB000855F7B51865B7C51875B7D51885B85C0D0
:103AC00060F086C061F087C062F088C063F0180EB5
:103AD000646F000E656F000E666F000E676FABECD3
:103AE000E6F060C085F061C086F062C087F063C018
:103AF00088F03E502D0D130EF324D96E050EF420E0
:103B0000DA6E0001DA51DE5CD8A089EF9DF08BEF10
:103B10009DF012EF9EF03E502D0D130EF324D96E42
:103B2000050EF420DA6EDF507A6FDA517A5D7B6F22
:103B30007C6BD8A07C077D6B7CBF7D077D517E6F41
:103B40007B5185277C5186237D5187237E51882395
:103B500085C060F086C061F087C062F088C063F005
:103B60003C0E646F000E656F000E666F000E676F8F
:103B7000ABECE6F060C085F061C086F062C087F013
:103B800063C088F03E502D0D140EF324D96E050E3F
:103B9000F420DA6EDE500001D95DD8A0D2EF9DF09E
:103BA000D4EF9DF0F3EF9DF03E502D0D140EF32455
:103BB000D96E050EF420DA6EDF507A6F7A51D95D36
:103BC0007B6F7C6BD8A07C077D6B7CBF7D077D51B4
:103BD0007E6F7B51855F7C51865B7D51875B7E511B
:103BE000885B6EEF9EF03E502D0D140EF324D96EBF
:103BF000050EF420DA6EDF507A6FD9517A5D7B6F53
:103C00007C6BD8A07C077D6B7CBF7D077D517E6F70
:103C10007B5185277C5186237D5187237E518823C4
:103C20006EEF9EF03E502D0D130EF324D96E050E4F
:103C3000F420DA6EDA51DE5CD8B021EF9EF023EF8B
:103C40009EF06EEF9EF03E502D0D130EF324D96EB4
:103C5000050EF420DA6EDF507A6F7A51DA5D7B6FF1
:103C60007C6BD8A07C077D6B7CBF7D077D517E6F10
:103C70007B51855F7C51865B7D51875B7E51885B84
:103C800085C060F086C061F087C062F088C063F0D4
:103C90003C0E646F000E656F000E666F000E676F5E
:103CA000ABECE6F060C085F061C086F062C087F0E2
:103CB00063C088F03E502D0D140EF324D96E050E0E
:103CC000F420DA6EDE500001D95DD8A06AEF9EF0D4
:103CD0006CEF9EF0F3EF9DF0D4EF9DF085518611CF
:103CE00087118811D8B477EF9EF079EF9EF084EFBA
:103CF0009EF08505861187118811D8A482EF9EF069
:103D000084EF9EF08AEF9EF0000E2A6E010E296E5F
:103D100093EF9FF029507A6F2A507B6F7C6B7D6BFD
:103D20007A51855D7B5186597C5187597D518859DF
:103D3000D8B09DEF9EF09FEF9EF093EF9FF085C06F
:103D400029F086C02AF03E502D0D150EF324D96EB1
:103D5000050EF420DA6EDF507A6F7A511F6E206AFA
:103D6000000E226E0A0E216EE8ECE0F01F50300FBC
:103D70000001F16F3E502D0D150EF324D96E050E86
:103D8000F420DA6EDF507A6F7A516E6F6F6B000E2F
:103D9000716F0A0E706FADECE1F000016E51300FE3
:103DA000F26F2F0EF36F3E502D0D160EF324D96EC9
:103DB000050EF420DA6EDF507A6F7A511F6E206A9A
:103DC000000E226E0A0E216EE8ECE0F01F50300F5C
:103DD0000001F46F3E502D0D160EF324D96E050E22
:103DE000F420DA6EDF507A6F7A516E6F6F6B000ECF
:103DF000716F0A0E706FADECE1F000016E51300F83
:103E0000F56F2F0EF66F3E502D0D170EF324D96E61
:103E1000050EF420DA6EDF507A6F7A511F6E206A39
:103E2000000E226E0A0E216EE8ECE0F01F50300FFB
:103E30000001F76F3E502D0D170EF324D96E050EBD
:103E4000F420DA6EDF507A6F7A516E6F6F6B000E6E
:103E5000716F0A0E706FADECE1F000016E51300F22
:103E6000F86F3A0EF96F3E502D0D130EF324D96EF4
:103E7000050EF420DA6EDF507A6F7A511F6E206AD9
:103E8000000E226E0A0E216EE8ECE0F01F50300F9B
:103E90000001FA6F3E502D0D130EF324D96E050E5E
:103EA000F420DA6EDF507A6F7A516E6F6F6B000E0E
:103EB000716F0A0E706FADECE1F000016E51300FC2
:103EC000FB6F3A0EFC6F3E502D0D140EF324D96E8D
