:040000000DEF03F00D
:0600080043825FEFD8F017
:100018004380D8CF38F0E8CF39F0E0CF3AF0E9CFD5
:100028003BF0EACF3CF0D9CF3DF0DACF3EF0F6CF47
:100038003FF0F7CF40F0F8CF41F0F5CF42F00E0196
:1000480033AB29EF00F02BEF00F09CEF02F0909615
:10005800339BE30ED46EB00ED36E1A2A07500810E5
:10006800D8B439EF00F03BEF00F08CEF00F090A02F
:1000780040EF00F042EF00F08CEF00F00706D8A048
:1000880008060101CB2B1450D8B44DEF00F04FEF08
:1000980000F057EF00F0030E146055EF00F057EF33
:1000A80000F058EF00F0142A190E2A6E020E2B6E7B
:1000B800450E2C6EF70E2D6E000E2F6E050E2E6E51
:1000C800C3ECEDF02A502B10D8A46DEF00F06FEFC1
:1000D80000F08CEF00F01E0E2A6E020E2B6E510EF1
:1000E8002C6EF70E2D6E000E2F6E050E2E6EC3ECC5
:1000F800EDF02A502B10D8A484EF00F086EF00F022
:100108008CEF00F0BFECFFF00101CC2B8CEF00F07E
:1001180090A491EF00F093EF00F0DBEF01F08EA6D2
:1001280098EF00F09AEF00F0B5EF00F00101B3513D
:10013800AB1907E1B451AC19D8A4A5EF00F0A7EFAB
:1001480000F0B1EF00F08E96000EAC6F000EAB6FB2
:100158009B4B9C2BD02BE5EF00F0AB4BAC2BE5EF8A
:1001680000F08EB6BAEF00F0BCEF00F0E5EF00F05B
:100178000101A3519B1907E1A4519C19D8A4C7EF09
:1001880000F0C9EF00F0E3EF00F0D451D05DD8B033
:10019800D0EF00F0D2EF00F0DBEF00F08E86AB4B33
:1001A800AC2B000E9C6F000E9B6FE5EF00F0010E6C
:1001B800A3259B6F000EA4219C6FE5EF00F09B4BDD
:1001C8009C2B8EA8EAEF00F0ECEF00F007EF01F0AF
:1001D8000101B151A91907E1B251AA19D8A4F7EF41
:1001E80000F0F9EF00F003EF01F08E98000EAA6F0F
:1001F800000EA96F994B9A2BCF2B37EF01F0A94B23
:10020800AA2B37EF01F08EB80CEF01F00EEF01F0DA
:1002180037EF01F00101A151991907E1A2519A198B
:10022800D8A419EF01F01BEF01F035EF01F0D3511D
:10023800CF5DD8B022EF01F024EF01F02DEF01F0EF
:100248008E88A94BAA2B000E9A6F000E996F37EF74
:1002580001F0010EA125996F000EA2219A6F37EFC8
:1002680001F0994B9A2B8EAA3CEF01F03EEF01F07A
:1002780059EF01F00101AF51A71907E1B051A819D1
:10028800D8A449EF01F04BEF01F055EF01F08E9A39
:10029800000EA86F000EA76F974B982BCE2B89EFF7
:1002A80001F0A74BA82B89EF01F08EBA5EEF01F0A1
:1002B80060EF01F089EF01F001019F51971907E103
:1002C800A0519819D8A46BEF01F06DEF01F087EFFA
:1002D80001F0D251CE5DD8B074EF01F076EF01F0A5
:1002E8007FEF01F08E8AA74BA82B000E986F000EA7
:1002F800976F89EF01F0010E9F25976F000EA021DF
:10030800986F89EF01F0974B982B8EAC8EEF01F028
:1003180090EF01F0ABEF01F00101AD51A51907E134
:10032800AE51A619D8A49BEF01F09DEF01F0A7EFFD
:1003380001F08E9C000EA66F000EA56F954B962BB4
:10034800CD2BDBEF01F0A54BA62BDBEF01F08EBC2C
:10035800B0EF01F0B2EF01F0DBEF01F001019D51C8
:10036800951907E19E519619D8A4BDEF01F0BFEF8A
:1003780001F0D9EF01F0D151CD5DD8B0C6EF01F051
:10038800C8EF01F0D1EF01F08E8CA54BA62B000E23
:10039800966F000E956FDBEF01F0010E9D25956FAE
:1003A800000E9E21966FDBEF01F0954B962B630EA6
:1003B8001918D8A4E2EF01F0E4EF01F0E8EF01F03A
:1003C800000E1A6E9CEF02F01904D8A4EEEF01F0AB
:1003D800F0EF01F000EF02F018501A18D8A4F7EF68
:1003E80001F0F9EF01F000EF02F0000E1A6E8A86B4
:1003F800020E196E9CEF02F0020E1918D8A407EF2E
:1004080002F009EF02F019EF02F015501A18D8A4FB
:1004180010EF02F012EF02F019EF02F0000E1A6E60
:100428008A96030E196E9CEF02F0030E1918D8A4D1
:1004380020EF02F022EF02F032EF02F017501A1804
:10044800D8A429EF02F02BEF02F032EF02F0000EF1
:100458001A6E8A88040E196E9CEF02F0040E1918A1
:10046800D8A439EF02F03BEF02F04BEF02F0155041
:100478001A18D8A442EF02F044EF02F04BEF02F052
:10048800000E1A6E8A98050E196E9CEF02F0050E82
:100498001918D8A452EF02F054EF02F064EF02F0FA
:1004A80017501A18D8A45BEF02F05DEF02F064EF62
:1004B80002F0000E1A6E8A8A060E196E9CEF02F080
:1004C800060E1918D8A46BEF02F06DEF02F07DEF5D
:1004D80002F015501A18D8A474EF02F076EF02F063
:1004E8007DEF02F0000E1A6E8A9A070E196E9CEFC5
:1004F80002F0070E1918D8A484EF02F086EF02F074
:100508009CEF02F01A50366E376A0001CB5136184C
:1005180007E1CC513718D8A494EF02F096EF02F017
:100528009CEF02F0000E1A6E010E196E9CEF02F09D
:100538000E0138A1A2EF02F0A4EF02F0A9EF02F039
:1005480090960101C72B0E01389138A5AEEF02F045
:10055800B0EF02F0F5EF02F090963895F00EC86E05
:10056800DC0EC76E0101C62BC651CA5DD8B0BFEFFD
:1005780002F0C1EF02F0E8EF02F01150D8A4C7EF83
:1005880002F0C9EF02F0E8EF02F0010E116E000E62
:10059800C66FC990BB51D8B4D4EF02F0D6EF02F0C1
:1005A800DBEF02F0010E0001CD6FF5EF02F0C5514F
:1005B800D8B4E1EF02F0E3EF02F0F5EF02F0010E3C
:1005C8000001D46FF5EF02F01150D8B4EEEF02F04D
:1005D800F0EF02F0F5EF02F0000EC66FC990F5EFEC
:1005E80002F042C0F5FF41C0F8FF40C0F7FF3FC02E
:1005F800F6FF3EC0DAFF3DC0D9FF3CC0EAFF3BC072
:10060800E9FF3AC0E0FF39C0E8FF38C0D8FF43909F
:1006180010005EEFF5F0FF0E0001626FFF0E636FD2
:1006280060C064F061C065F062516427635165235E
:1006380064C0F6F165C0F7F10101F86BF96B1200BF
:100648000001656F000165510409C8EC03F0050E4F
:10065800E82EFED700F000016551FB0BC8EC03F053
:10066800A00E00D0E82EFDD71200000160516203F1
:10067800F3CF64F0F4CF65F060516303F35065275E
:1006880061516203F350652764C060F065C061F092
:1006980012000001636FA7ECFFF021EC04F00001E9
:1006A8006351FE0B93EC03F0A7ECFFF000016251DD
:1006B80093EC03F018EC04F0120060C074FF000122
:1006C8006151756E3F0E77167780680E0001626F74
:1006D800E40EE82EFED7622FFCD700F07650120009
:1006E8000001626F62C060F00F0E0001601762398E
:1006F8000F0B0F0B0A0DF3506025616F615112004B
:100708000001616F61C0D5FE0E01D8B18EEF03F014
:1007180090EF03F088EF03F02AECFFF012000001DD
:10072800616F61C091FF94B09CEF03F09EEF03F0FE
:1007380097EF03F0A7ECFFF012000001606F60C0B4
:10074800EBFE0E0137A1ABEF03F0ADEF03F0A5EF21
:1007580003F012000001606F60C099FF0E0136A916
:10076800B8EF03F0BAEF03F0B2EF03F012000001A4
:10077800666F00016651FD0BC8EC03F0000166517D
:10078800FD0B24EC03F012000001646F00016451BA
:100798000101B7110001626F4E0E4DEC03F012001B
:1007A8000E01DA85DAB5DBEF03F0DDEF03F0D6EF03
:1007B80003F012000E01DA81DAB1E5EF03F0E7EF9A
:1007C80003F0E0EF03F012000E01DA83DAB3EFEF83
:1007D80003F0F1EF03F0EAEF03F012000E0136AB7D
:1007E800F8EF03F0FAEF03F0F2EF03F0985012007D
:1007F8000E0137A302EF04F004EF04F0FCEF03F05E
:10080800EA51120000016B6F010E0001676F6B5116
:10081800D7ECFFF0120000016B6F000E0001676F4C
:100828006B51D7ECFFF01200968496B41EEF04F0DB
:1008380020EF04F019EF04F01200968096B027EF2D
:1008480004F029EF04F022EF04F0120000016C6FAD
:1008580000016C5106EC04F012000B840B500809DF
:100868000FEC04F012000B940B5008090FEC04F085
:0208780012006C
:10E9DA000053797374656D2041757468656E746946
:10E9EA00636174656420776974682050686173652F
:10E9FA00206661696C7572652C2073757370656E1B
:10EA0A0064696E6720616C6C20616374696F6E73F0
:10EA1A00000000300060009000C000F000200150AB
:10EA2A00018001B001E001100240027002A002D090
:10EA3A00020003300360039003C0030000506861C2
:10EA4A0073652042206661696C757265206465741D
:10EA5A006563746564005068617365205920666156
:10EA6A00696C757265206465746563746564004CCD
:10EA7A006F67696E20636F6465206E6F74206368C8
:10EA8A00616E676564002B434D54493A2022534D09
:10EA9A00222C780049444C45006F6B00447279205F
:10EAAA0052756E2064657465637465642C204D6FBD
:10EABA00746F722C2049727269676174696F6E2073
:10EACA00616E64204665727469676174696F6E204D
:10EADA007377697463686564206F66662E0D0A49E8
:10EAEA00727269676174696F6E20736368656475B1
:10EAFA006C656420746F206E657874206461792077
:10EB0A0077697468206665727469676174696F6E83
:10EB1A0020666F72206669656C64206E6F2E000035
:10EB2A00004472792052756E206465746563746559
:10EB3A00642C204D6F746F7220616E64204972726A
:10EB4A0069676174696F6E20737769746368656455
:10EB5A00206F66662E0D0A49727269676174696F61
:10EB6A006E207363686564756C656420746F206ECB
:10EB7A0065787420646179207769746820666572A3
:10EB8A007469676174696F6E20666F722066696561
:10EB9A006C64206E6F2E0000004472792052756EEC
:10EBAA002064657465637465642C204D6F746F729C
:10EBBA0020616E642049727269676174696F6E20A0
:10EBCA007377697463686564206F66662E0D0A49F7
:10EBDA00727269676174696F6E20736368656475C0
:10EBEA006C656420746F206E657874206475652086
:10EBFA006461746520666F72206669656C64206E54
:10EC0A006F2E0000004472792052756E206465747C
:10EC1A0065637465642C204D6F746F7220616E6435
:10EC2A002049727269676174696F6E2073776974BB
:10EC3A0063686564206F66662E0D0A497272696799
:10EC4A006174696F6E207363686564756C656420AE
:10EC5A00746F206E6578742064617920666F722003
:10EC6A006669656C64206E6F2E00000053797374B8
:10EC7A00656D2072657374617274656420666F7263
:10EC8A0020416C6C2050686173652044657465632B
:10EC9A0074696F6E207769746820696E636F6D702E
:10ECAA006C6574652049727269676174696F6E2058
:10ECBA00666F72206669656C64206E6F2E005379E8
:10ECCA007374656D2072657374617274656420660D
:10ECDA006F7220506F77657220496E746572727513
:10ECEA007074207769746820696E636F6D706C65E3
:10ECFA0074652049727269676174696F6E20666F04
:10ED0A0072206669656C64206E6F2E005379737485
:10ED1A00656D2072657374617274656420696E2012
:10ED2A00446961676E6F73746963204D6F6465200F
:10ED3A007769746820696E636F6D706C657465209D
:10ED4A0049727269676174696F6E20666F722066B4
:10ED5A0069656C64206E6F2E0053797374656D203B
:10ED6A0072657374617274656420666F72204C6F89
:10ED7A007720506F77657220496E20776974682012
:10ED8A00696E636F6D706C6574652049727269672C
:10ED9A006174696F6E20666F72206669656C6420A3
:10EDAA006E6F2E0053797374656D2072657374618A
:10EDBA007274656420666F7220537461636B2045B8
:10EDCA0072726F72207769746820696E636F6D70F2
:10EDDA006C6574652049727269676174696F6E2027
:10EDEA00666F72206669656C64206E6F2E005379B7
:10EDFA007374656D207265737461727465642066DC
:10EE0A006F72205744542054696D656F757420776A
:10EE1A0069746820696E636F6D706C6574652049EA
:10EE2A00727269676174696F6E20666F72206669B3
:10EE3A00656C64206E6F2E00466572746967617432
:10EE4A00696F6E2073746F70706564207769746877
:10EE5A002066657274696C697A6572206C6576657C
:10EE6A006C2073656E736F72206661696C7572656A
:10EE7A0020666F72206669656C64206E6F2E004C86
:10EE8A006F772050686173652063757272656E745E
:10EE9A002064657465637465642C20616374696FAA
:10EEAA006E732073757370656E6465642C20706C64
:10EEBA006561736520726573746172742073797306
:10EECA0074656D0049727269676174696F6E206951
:10EEDA0073206E6F74204163746976652E204665CF
:10EEEA00727469676174696F6E206E6F7420656EE3
:10EEFA0061626C656420666F72206669656C642065
:10EF0A006E6F2E004D6F6973747572652073656E2E
:10EF1A00736F72206973206661696C65642C20497D
:10EF2A00727269676174696F6E2073746172746555
:10EF3A006420666F72206669656C64206E6F2E00AD
:10EF4A0053797374656D2072657374617274656444
:10EF5A002077697468207068617365206661696CDE
:10EF6A007572652C2073757370656E64696E67209F
:10EF7A00616C6C20616374696F6E730046657274AC
:10EF8A0069676174696F6E2073746F70706564204D
:10EF9A0077697468206C6F772066657274696C692A
:10EFAA007A6572206C6576656C20666F7220666978
:10EFBA00656C64206E6F2E00576574206669656CF7
:10EFCA00642064657465637465642E0D0A497272FF
:10EFDA0069676174696F6E206E6F742073746172F1
:10EFEA0074656420666F72206669656C64206E6F52
:10EFFA002E00000053797374656D20726573657411
:10F00A00206F636375727265642C206C6F67696E1A
:10F01A0020636F646520726573657420746F20467F
:10F02A006163746F72792073657474696E670049DD
:10F03A00727269676174696F6E20636F6D706C6557
:10F04A0074656420666F7220647565206669656CF4
:10F05A0064730D0A4D6F746F7220737769746368F5
:10F06A006564206F66660000004E6577205254433F
:10F07A00206261747465727920666F756E642C20E3
:10F08A00706C656173652073796E6320737973742C
:10F09A00656D2074696D65206D616E75616C6C7942
:10F0AA00004E657720525443206261747465727908
:10F0BA0020666F756E642C2073797374656D207485
:10F0CA00696D652069732073657420746F206C6F95
:10F0DA0063616C2074696D6500496E636F72726555
:10F0EA0063742076616C7565732E20466572746947
:10F0FA00676174696F6E206E6F7420656E61626CF1
:10F10A00656420666F72206669656C64206E6F2E76
:10F11A000049727269676174696F6E2073746F70E7
:10F12A0070656420776974686F757420726573708E
:10F13A006F6E73652066726F6D206669656C6420F8
:10F14A006E6F2E0049727269676174696F6E2073FF
:10F15A006B69707065642077697468206E6F2072BD
:10F16A006573706F6E73652066726F6D2066696570
:10F17A006C64206E6F3A00596F7520617265206E5B
:10F18A006F206D6F72652041646D696E206E6F77B6
:10F19A002E204E65772041646D696E206973207355
:10F1AA00657420746F0D0A000000525443204261B6
:10F1BA00747465727920666F756E64206C6F772C33
:10F1CA0020706C65617365207265706C616365207F
:10F1DA00525443206261747465727900537973746E
:10F1EA00656D207265736574206F636375727265ED
:10F1FA00642C2049727269676174696F6E20736545
:10F20A007474696E672064656C657465640049721C
:10F21A007269676174696F6E2069732061637469CA
:10F22A0076652C204D6F746F72206C6F6164206359
:10F23A0075742D6F6666206E6F742073657400494D
:10F24A00727269676174696F6E20636F6E6669674F
:10F25A0075726174696F6E2064697361626C65644A
:10F26A0020666F72206669656C64206E6F2E00508E
:10F27A0068617365206661696C757265206465747E
:10F28A0065637465642C2073757370656E64696E4A
:10F29A006720616C6C20616374696F6E73004E6FD6
:10F2AA004C6F616420616E642046756C6C4C6F61B2
:10F2BA0064204D6F746F72207468726573686F6C26
:10F2CA0064732073657420746F203A20004D6F694F
:10F2DA0073747572652073656E736F7220667265DA
:10F2EA007175656E63792076616C756520666F72DB
:10F2FA00206669656C64206E6F2E0053797374659D
:10F30A006D2074696D652073796E63656420746F0E
:10F31A002063757272656E74206C6F63616C207401
:10F32A00696D650053797374656D207265737461D4
:10F33A007274656420666F7220416C6C205068613B
:10F34A00736520446574656374696F6E004D6F69F7
:10F35A0073747572652073656E736F72206973209A
:10F36A006661696C656420666F72206669656C64A3
:10F37A00206E6F2E0049727269676174696F6E2020
:10F38A006E6F7420636F6E66696775726564206656
:10F39A006F72206669656C64206E6F2E00537973F4
:10F3AA0074656D2072657374617274656420666F2A
:10F3BA007220506F77657220496E7465727275702B
:10F3CA00740053797374656D207265737461727415
:10F3DA00656420696E20446961676E6F737469633E
:10F3EA00206D6F64650049727269676174696F6E36
:10F3FA00206669656C64206D617070656420776948
:10F40A0074682076616C7665730049727269676107
:10F41A0074696F6E20636F6E6669677572656420C2
:10F42A00666F72206669656C64206E6F2E004D6F80
:10F43A00746F726C6F6164206375742D6F666620D9
:10F44A00736574207375636365737366756C6C7921
:10F45A00004665727469676174696F6E20646973C6
:10F46A0061626C656420666F72206669656C6420EF
:10F47A006E6F2E004665727469676174696F6E20DB
:10F48A0073746F7070656420666F72206669656C4C
:10F49A0064206E6F2E004665727469676174696FC5
:10F4AA006E207374617274656420666F7220666977
:10F4BA00656C64206E6F2E004665727469676174AC
:10F4CA00696F6E20656E61626C656420666F72207A
:10F4DA006669656C64206E6F2E0053797374656D6E
:10F4EA002072657374617274656420666F7220732A
:10F4FA007461636B206572726F72005379737465FD
:10F50A006D2072657374617274656420666F72200F
:10F51A005744542074696D656F7574004972726935
:10F52A00676174696F6E2073746F707065642066AA
:10F53A006F72206669656C64206E6F2E0049727264
:10F54A0069676174696F6E2073746172746564208F
:10F55A00666F72206669656C64206E6F2E00576153
:10F56A007465722046696C74726174696F6E206981
:10F57A0073206E6F7420656E61626C6564004C6FF7
:10F58A0067696E20636F6465206368616E6765648E
:10F59A00207375636365737366756C6C7900537950
:10F5AA007374656D20726573746172746564206624
:10F5BA006F72204C6F7720506F77657200576174B5
:10F5CA0065722066696C74726174696F6E20646515
:10F5DA0061637469766174656400496E636F7272FF
:10F5EA00656374206C6F63616C2074696D65206655
:10F5FA006F756E640057617465722046696C747227
:10F60A006174696F6E2053657175656E63653A0042
:10F61A0057617465722066696C74726174696F6E81
:10F62A00206163746976617465640050686173650A
:10F63A002052206661696C75726520646574656321
:10F64A007465640057726F6E67206C6F67696E200D
:10F65A00636F646520666F756E640041646D696EE0
:10F66A0020736574207375636365737366756C6C58
:10F67A00790041757468656E7469636174696F6E47
:10F68A00206661696C656400416C6C205068617326
:10F69A0065206465746563746564005465737420D9
:10F6AA004461746120496E6A6563746564005379C4
:10F6BA007374656D20436F6E6E656374656400468E
:10F6CA006163746F7279204B6579203A2000437523
:10F6DA007272656E742054696D653A2000497272BF
:10F6EA0069676174696F6E204E6F3A003132333444
:10F6FA00353637383931320047455446524551007C
:10F70A0045585452414354004441435449564500D4
:10F71A0044495341424C450053454E534F52004DC4
:10F72A00415354455200494E4A45435400414354BB
:10F73A0049564500454E41424C4500414C495645C3
:10F74A00004552524F5200534C41564500474554CA
:10F75A0043540046444154410046454544005449F7
:10F76A004D4500484F4C4400484F4F4B0041434BD6
:10F77A00004F4646002B393100534354004D415047
:10F78A0000534554004F4E0043540041550046650E
:10F79A00727469676174696F6E20656E61626C6507
:10F7AA006420776974682064656C61793A004665FB
:10F7BA00727469676174696F6E206E6F7420636F0B
:10F7CA006E666967757265640D0A004665727469CA
:10F7DA00676174696F6E2044697361626C65643A2B
:10F7EA000053797374656D205265736574204F6395
:10F7FA00637572726564002A2A2A466163746F729D
:10F80A00792052657365742A2A2A2A0053797374F7
:10F81A00656D20436F6D706C657465204461746119
:10F82A000043757272656E7420496E2046756C6C61
:10F83A00204C6F616400497272692E4461746120C0
:10F84A00436F6E6669677572656400466572742EE9
:10F85A004461746120436F6E6669677572656400FE
:10F86A00497272692E204E6F7420436F6E66696703
:10F87A0075726564004E6577204D657373616765BF
:10F88A0020526563656976656400436F6E666967D1
:10F89A007572656420666F72204669656C640057EC
:10F8AA00697468204C6F7720466572742E204C6507
:10F8BA0076656C00546F2044656C657465204972E6
:10F8CA007269676174696F6E00496E204E6F204CD1
:10F8DA006F616420436F6E646974696F6E00537957
:10F8EA007374656D20697320426F6F74696E672047
:10F8FA0055700049727269676174696F6E20436F4F
:10F90A006D706C657465640053656E64696E67201A
:10F91A004E6F74696669636174696F6E00437572CC
:10F92A00736F7220486F6D65202620426C696E6B7A
:10F93A0000497272692E20446174612044697361BE
:10F94A00626C656400466572742E2044617461209D
:10F95A0044697361626C65640046657274696761C3
:10F96A0074696F6E2053746F7070656400466572B7
:10F97A007469676174696F6E205374617274656427
:10F98A0000576974682053656E736F722046616907
:10F99A006C75726500436865636B696E67204753CF
:10F9AA004D205369676E616C00546F20436865632C
:10F9BA006B2047534D205369676E616C0042686F34
:10F9CA006F6D69204A616C73616E64686172616E01
:10F9DA0000576972654C6573732049727269676171
:10F9EA0074696F6E005265706C616365205254438E
:10F9FA0020626174746572790041542B434E4D49FB
:10FA0A003D312C312C302C302C300D0A004C6F61DA
:10FA1A0064696E672053797374656D2044617461FB
:10FA2A000045786974696E6720446961676E6F730F
:10FA3A007469630043757272656E7420496E204E54
:10FA4A006F204C6F61640049727269676174696FF3
:10FA5A006E20536B697070656400497272696761E0
:10FA6A0074696F6E2053746F7070656400576574A3
:10FA7A00204669656C642044657465637465640036
:10FA8A0049727269676174696F6E20537461727426
:10FA9A0065640049727269676174696F6E20527594
:10FAAA006E6E696E67005072657373205265736576
:10FABA007420427574746F6E00546F2043616C69D0
:10FACA006272617465204D6F746F7200466163746F
:10FADA006F727920436F6465205265736574004EB6
:10FAEA006F20446961676E6F73746963204D656E38
:10FAFA0075004D6F746F722053776974636865641B
:10FB0A00204F46460052544320426174746572790C
:10FB1A00206973206C6F7700497272692E204E6FCC
:10FB2A007420537461727465640053797374656DDB
:10FB3A002052756E6E696E6720496E005573657244
:10FB4A0020526567697374726174696F6E004361EC
:10FB5A006C6962726174696E67204D6F746F7200AE
:10FB6A0046756C6C204C6F61642043757272656EC9
:10FB7A0074002347455453454E534F523031534C2A
:10FB8A004156450053657061726174696F6E205405
:10FB9A00696D653A20006C63644261636B6C6967E6
:10FBAA006874204F6E20006C63644261636B6C69F9
:10FBBA00676874204F66660057697468204E6F2024
:10FBCA00526573706F6E7365004E6574776F726BF2
:10FBDA0020537472656E67746800546F2044656CB4
:10FBEA006574652053797374656D0057616974692A
:10FBFA006E6720466F7220557365720046616374A2
:10FC0A006F72792053657474696E677300497272F2
:10FC1A00692E2044617461205265736574006C63B7
:10FC2A00644261636B6C69676874204F6E004C6F45
:10FC3A00726120636F6E74726F6C6C6572004972C8
:10FC4A007269676174696F6E20446174610046610C
:10FC5A0063746F72792050696E436F6465004469FA
:10FC6A0061676E6F73746963204D6F646500416CE0
:10FC7A006C20506F77657220506861736500466F1B
:10FC8A00756E64204C6F772050686173650041542B
:10FC9A002B435343533D2247534D220D0A00466FCF
:10FCAA0072204669656C64204E6F3A200046726F76
:10FCBA006D204669656C64204E6F3A005573657213
:10FCCA00204C6F6767656420494E00496E636F7206
:10FCDA0072656374204461746100436F6E74726F5D
:10FCEA006C2053797374656D0041757468656E7420
:10FCFA0069636174696F6E00546F2044656C657442
:10FD0A006520557365720041542B53434C4153533C
:10FD1A00303D310D0A00436F6E6E656374696E671C
:10FD2A0020746F200053657474696E672053797369
:10FD3A0074656D00202020202020202020202020F3
:10FD4A002000466F72204669656C64204E6F2E0053
:10FD5A00466F72204669656C64204E6F3A00466FA2
:10FD6A00756E64204C6F772052544300506861735B
:10FD7A0065204661696C757265004669656C642028
:10FD8A004D617070696E670041542B434D47443D85
:10FD9A00312C340D0A00546F204C6F63616C20546F
:10FDAA00696D65005375636365737366756C6C7909
:10FDBA0000446973706C6179204F6E20004375723C
:10FDCA00736F7220486F6D6500446973706C617956
:10FDDA00204F6666004661696C65642055736572DA
:10FDEA000041542B4346554E3D300D0A0041542BD9
:10FDFA00434D47463D310D0A0041542B4346554E6B
:10FE0A003D310D0A0041542B434C54533D310D0AE8
:10FE1A000020497465726174696F6E3A0047534DE8
:10FE2A00204E6574776F726B00437572736F722020
:10FE3A004F66660041542B43434C4B3F0D0A005515
:10FE4A006479616D69204C4C50004C6F67696E2073
:10FE5A00436F64650052657374696E6720546F005E
:10FE6A0041542B434C54533F0D0A000D0A44656C10
:10FE7A006179313A20000D0A4F4E54696D653A2076
:10FE8A000020447565446174653A2000426C696ECD
:10FE9A006B204F666600437572736F72204F6E0057
:10FEAA0041542B434D47533D2200566572792047F2
:10FEBA006F6F6400457863656C6C656E7400426CA4
:10FECA00696E6B204F6E005072696E742061740007
:10FEDA0041542B434D47523D0053656C656374652D
:10FEEA00640044656C6574696E670041542B435322
:10FEFA00510D0A0044656C6179323A200044656C00
:10FF0A006179333A2000204F46467072643A004DB8
:10FF1A006F646572617465004572726F7220496E12
:10FF2A000056657279204C6F77004368616E676589
:10FF3A00640053657474696E67004472792052755F
:10FF4A006E004261747465727900204F4E7072645B
:10FF5A003A004E6F3A202564004661696C65640078
:10FF6A00415445300D0A00415426570D0A00284DC8
:10FF7A00696E2920003C2D2D2D2D00403A302C3061
:10FF8A0000403A312C3100403A322C3200403A33A8
:10FF9A002C33002D2D2D2D3E0057726F6E670020D9
:10FFAA00616E642000284D696E2900205765743AF5
:10FFBA0000204472793A0054494D4500234F464681
:10FFCA00002069732000506F6F72003130302500B5
:10FFDA002564256300234F4E004C4F5700393625C0
:10FFEA00003937250039382500393925004E4F00A8
:06FFFA0031250024000087
:020000040001F9
:10000000000E0101FA6F000EFB6F000EFF6F000E75
:10001000FE6F1E0ECA6FEEECFFF07F0E0001776FD1
:10002000F80E786F020E796F3DECEFF0520E000182
:10003000C16F2B0EC06F000EE82EFED7C02FFCD76D
:10004000C12FFAD700F0300E0001E1652AEF80F0F1
:100050002CEF80F091EF95F03A0EE16132EF80F0F5
:1000600034EF80F091EF95F0000E116E000EDF6F0F
:10007000C98080EF80F0DA0E0001616FFE0E626FC2
:100080005FECFCF0E10E0001616F000E626F010E8B
:10009000636F47ECFEF0A50E0001616FFC0E626F0E
:1000A0005FECFCF0290E0001C16F960EC06F7F0E51
:1000B000E82EFED7C02FFCD7C12FFAD71150D8A4F5
:1000C00064EF80F066EF80F080EF80F0CB0E0001EF
:1000D000C16FEC0EC06F840EE82EFED7C02FFCD788
:1000E000C12FFAD700F0CB0E0001C16FEC0EC06F2C
:1000F000840EE82EFED7C02FFCD7C12FFAD700F010
:100100001150D8B486EF80F088EF80F03BEF80F09C
:100110000E013885410E0001606F030E616F7F0E86
:10012000626FF70E636F000E656F030E646F7EECF7
:10013000EBF0000160516111D8A4A1EF80F0A3EFB2
:1001400080F080EF95F0E10E606F000E616F440E5D
:10015000626F030E636F000E656F0A0E646F94EC9E
:10016000F8F05FECFFF0000E0001606F040E616FAD
:100170006B0E626F030E636FECECF6F00FECFFF0AA
:10018000000E0001606F040E616FD8ECFDF00009F5
:10019000D8B4CDEF80F0CFEF80F0D5EF80F08FECCA
:1001A000FFF07BECD4F0E4EF80F0A30E0001C16F10
:1001B000570EC06F020EE82EFED7C02FFCD7C12FFE
:1001C000FAD700F095EF95F0F50E0001606F000E84
:1001D000616FE10E626F000E636F000E656F0A0EB5
:1001E000646F7EECEBF0000160516111D8A4FBEF6D
:1001F00080F0FDEF80F016EF94F0E10E606F000EDE
:10020000616FD50E626F010E636F000E656F0A0E8F
:10021000646F94ECF8F0180E0001606F020E616FCD
:10022000720E626FF70E636F000E656F040E646FDF
:100230007EECEBF0000160516111D8A422EF81F057
:1002400024EF81F049EF81F0EEECFFF0C60E0001E3
:10025000776FFC0E786F020E796F3DECEFF0EE0ECB
:100260000001776FFB0E786F030E796F3DECEFF0B6
:10027000000E0001DF6FB80E7D6FF60E7E6FF50E7B
:100280007F6F000E806F000E816F96EC95F095EFFA
:1002900095F0180E606F020E616F950E626FF70E8B
:1002A000636F000E656F020E646F7EECEBF0000171
:1002B00060516111D8A45FEF81F061EF81F0D4EF5C
:1002C00081F01B0E606F020E616FEF0E626F010E08
:1002D000636F000E656F060E646F7EECEBF000013D
:1002E00060516111D8A477EF81F079EF81F0AFEF21
:1002F00081F0EEECFFF0540E0001776FFE0E786F88
:10030000010E796F3DECEFF0340E0001776FFF0EB8
:10031000786F020E796F3DECEFF0EF0E0001606F29
:10032000010E616F220E626F020E636F000E656F29
:10033000060E646F94ECF8F00AECF8F0000E000181
:10034000DF6F880E7D6FF50E7E6FF50E7F6F000EEE
:10035000806F000E816F96EC95F095EF95F0EEECC6
:10036000FFF0A30E0001776FFF0E786F010E796F1B
:100370003DECEFF0540E0001776FFE0E786F020E29
:10038000796F3DECEFF0000E0001DF6F4E0E7D6FD8
:10039000F60E7E6FF50E7F6F000E806F000E816F80
:1003A00096EC95F095EF95F0180E606F020E616F68
:1003B0008B0E626FF70E636F000E656F030E646F36
:1003C0007EECEBF0000160516111D8A4EAEF81F0FE
:1003D000ECEF81F039EF85F0030E66ECD2F01E6E83
:1003E000EEECFFF0480E0001776FFC0E786F010E07
:1003F000796F3DECEFF0940E0001776FF80E786F97
:10040000020E796F3DECEFF0E10E0001B86F000EC7
:10041000B96F5C0EBA6FFF0EBB6F010E1E24BC6F6E
:10042000BD6B000EBD2332ECFCF0E10E0001776FD6
:10043000000E786F030E796F3DECEFF0000E0101B6
:10044000FF6F000EFE6F010EFD6F060E0001DF6FE5
:10045000180E0001DF25D96EDA6A020EDA22DF50AB
:1004600077ECFFF00009D8B438EF82F03AEF82F071
:100470008CEF83F0190E0001DF25D96EDA6A020EC7
:10048000DA22200EDE18D8A448EF82F04AEF82F07C
:100490006BEF82F0180EDF25D96EDA6A020EDA22CF
:1004A000180EDF25E16EE26A020EE222E750D00F5D
:1004B000DF6E180E0001DF25D96EDA6A020EDA222D
:1004C000DF50C06FC0510101FE25FE6F000EFF21FD
:1004D000FF6FC1EF83F0180EDF25D96EDA6A020EC6
:1004E000DA22180EDF25E16EE26A020EE222E75000
:1004F000D00FDF6E180EDF25D96EDA6A020EDA220F
:10050000DF500A0D180EDF25D96EDA6A020EDA22E4
:10051000F3CFDFFFFEC160F0FFC161F0000E636F3B
:100520000A0E626F39EC03F060C0FEF161C0FFF1AA
:1005300059EF82F01E502D0DD90EF324D96E040E02
:10054000F420DA6EFEC1DEFFFFC1DDFF000E010107
:10055000FF6F000EFE6FBFEF83F01E502D0DF30EE8
:10056000F324D96E040EF420DA6EFEC1DFFFA6EF8D
:1005700082F01E502D0DF40EF324D96E040EF420DB
:10058000DA6EFEC1DFFFA6EF82F01E502D0DF50ED4
:10059000F324D96E040EF420DA6EFEC1DFFFA6EF5D
:1005A00082F01E502D0DD50EF324D96E040EF420CA
:1005B000DA6EFEC1DEFFFFC1DDFFA6EF82F01E5046
:1005C0002D0DD70EF324D96E040EF420DA6EFEC181
:1005D000DEFFFFC1DDFFA6EF82F01E502D0DFA0EEB
:1005E000F324D96E040EF420DA6EFEC1DFFFA6EF0D
:1005F00082F01E502D0DFC0EF324D96E040EF42053
:10060000DA6EFEC1DFFF1E502D0DFD0EF324D96EF4
:10061000040EF420DA6EFEC1DFFFA6EF82F00101C6
:10062000FE51CCECCBF0000E0101FF6F000EFE6F0F
:100630001E502D0DF60EF324D96E040EF420DA6E42
:10064000C9C0DFFF1E502D0DF70EF324D96E040E26
:10065000F420DA6ED6C0DFFF1E502D0DF80EF32405
:10066000D96E040EF420DA6ED7C0DFFF1E502D0DB8
:10067000FE0EF324D96E040EF420DA6E000EDF6E47
:100680001E502D0DFF0EF324D96E040EF420DA6EE9
:10069000010EDF6E1E502D0DDB0EF324D96E040EFD
:1006A000F420DA6E000EDE6E000EDD6E1E502D0D93
:1006B000DD0EF324D96E040EF420DA6E000EDE6E29
:1006C000000EDD6E1E502D0DF90EF324D96E040EB2
:1006D000F420DA6E000EDF6E1E502D0D000EF32496
:1006E000D96E050EF420DA6E000EDF6E1E502D0D51
:1006F000FB0EF324D96E040EF420DA6E000EDF6ECA
:100700001E502D0D010EF324D96E050EF420DA6E65
:10071000000EDF6EBFEF83F00101FD510001C06FDD
:10072000C16BC151000AD8B498EF83F0BFEF83F0DA
:10073000C051010AD8B49AEF82F0030AD8B4ADEFE1
:1007400082F0010AD8B4B9EF82F0070AD8B4C5EF35
:1007500082F0010AD8B4D1EF82F0030AD8B4DFEFF7
:1007600082F0010AD8B4EDEF82F00F0AD8B4F9EFA5
:1007700082F0010AD8B40FEF83F0BFEF83F00101DC
:10078000FD2B0001DF2B090E0101FD65CAEF83F08F
:10079000CCEF83F028EF82F0090E0001C16F1E0E2E
:1007A000C06FE40EE82EFED7C02FFCD7C12FFAD7BA
:1007B00000F01E50020D1B0EF324F66EEA0EF4201C
:1007C000F76EF86A000EF8220900F5CF63F00A0010
:1007D000F5CF64F01E502D0DD50EF3240001656F8A
:1007E000040EF420666FA8ECDEF0090E0001C16F64
:1007F0001E0EC06FE40EE82EFED7C02FFCD7C12F0F
:10080000FAD700F01E50020D1B0EF324F66EEA0E0E
:10081000F420F76EF86A000EF8220900F5CF63F0B5
:100820000A00F5CF64F01E502D0DD50EF324000103
:10083000656F040EF420666FE5ECF2F0090E00011E
:10084000C16F1E0EC06FE40EE82EFED7C02FFCD77E
:10085000C12FFAD700F01E50020D1B0EF324F66EC6
:10086000EA0EF420F76EF86A000EF8220900F5CFC0
:1008700063F00A00F5CF64F01E502D0DD50EF32461
:100880000001656F040EF420666FE0ECFCF0090EC9
:100890000001C16F1E0EC06FE40EE82EFED7C02F00
:1008A000FCD7C12FFAD700F01E50020D1B0EF32407
:1008B000F66EEA0EF420F76EF86A000EF8220900D0
:1008C000F5CF63F00A00F5CF64F01E502D0DD50E64
:1008D000F3240001656F040EF420666F0AECFDF04E
:1008E000090E0001C16F1E0EC06FE40EE82EFED788
:1008F000C02FFCD7C12FFAD700F01E50020D1B0EDF
:10090000F324F66EEA0EF420F76EF86A000EF82271
:100910000900F5CF63F00A00F5CF64F01E502D0DED
:10092000D50EF3240001656F040EF420666FB6EC5B
:10093000FCF0090E0001C16F1E0EC06FE40EE82E20
:10094000FED7C02FFCD7C12FFAD700F01E50020DE2
:100950001B0EF324F66EEA0EF420F76EF86A000E12
:10096000F8220900F5CF63F00A00F5CF64F01E50BD
:100970002D0DD50EF3240001656F040EF420666F73
:10098000B1ECBFF0090E0001C16F1E0EC06FE40E86
:10099000E82EFED7C02FFCD7C12FFAD700F0090EE2
:1009A0001E60D5EF84F0D7EF84F0DFEF84F0300ED7
:1009B0000001E16F1E50310FE26FF5EF84F0080E79
:1009C0001E64E5EF84F0E7EF84F0F5EF84F0100E9D
:1009D0001E60EDEF84F0EFEF84F0F5EF84F0310E60
:1009E0000001E16F1E50270FE26F000E0001DF6F64
:1009F000EEECFFF0400E0001776FF80E786F020EFC
:100A0000796F3DECEFF05A0E0001776FFD0E786FB5
:100A1000030E796F3DECEFF0110E00016C6F030EC9
:100A2000D6ECFBF0E10E0001B86F000EB96F600E5E
:100A3000BA6FFF0EBB6F010E1E24BC6FBD6B000EA4
:100A4000BD2332ECFCF0E10E00016C6F000E6D6F07
:100A500014ECFBF0140E00017D6FF40E7E6FF50EAA
:100A60007F6F000E806F020E816F96EC95F095EF10
:100A700095F0180E606F020E616F6D0E626FF70ECB
:100A8000636F000E656F040E646F7EECEBF0000187
:100A900060516111D8A44FEF85F051EF85F04DEF13
:100AA00086F0040E66ECD2F01E6E1E502D0DFE0E6A
:100AB000F324D96E040EF420DA6EDE04D8A463EFBA
:100AC00085F065EF85F068EF85F0010E0001D06FCD
:100AD0001E502D0DFF0EF324D96E040EF420DA6E95
:100AE000000EDF6E1E502D0D000EF324D96E050E84
:100AF000F420DA6EDE04D8A480EF85F082EF85F072
:100B0000C2EF85F01E502D0D000EF324D96E050E98
:100B1000F420DA6E000EDF6E090E0001C16F1E0EAA
:100B2000C06FE40EE82EFED7C02FFCD7C12FFAD736
:100B300000F01E50020D1B0EF324F66EEA0EF42098
:100B4000F76EF86A000EF8220900F5CF63F00A008C
:100B5000F5CF64F01E502D0DD50EF3240001656F06
:100B6000040EF420666FB1ECBFF0090E0001C16FF6
:100B70001E0EC06FE40EE82EFED7C02FFCD7C12F8B
:100B8000FAD700F01E50020D1B0EF324F66EEA0E8B
:100B9000F420F76EF86A000EF8220900F5CF63F032
:100BA0000A00F5CF64F01E502D0DD50EF324000180
:100BB000656F040EF420666FB6ECFCF0090E0001C0
:100BC000C16F1E0EC06FE40EE82EFED7C02FFCD7FB
:100BD000C12FFAD700F0090E1E60F1EF85F0F3EF98
:100BE00085F0FBEF85F0300E0001E16F1E50310FF4
:100BF000E26F09EF86F0080E1E6401EF86F003EF46
:100C000086F009EF86F0310E0001E16F1E50270FCC
:100C1000E26F000E0001DF6FEEECFFF03B0E000113
:100C2000776FF90E786F020E796F3DECEFF05A0E88
:100C30000001776FFD0E786F030E796F3DECEFF0DA
:100C4000110E00016C6F030ED6ECFBF0E10E0001FB
:100C5000B86F000EB96F600EBA6FFF0EBB6F010E5A
:100C60001E24BC6FBD6B000EBD2332ECFCF0E10E08
:100C700000016C6F000E6D6F14ECFBF0490E00016B
:100C80007D6FF20E7E6FF50E7F6F000E806F020E8D
:100C9000816F96EC95F095EF95F0180E606F020E4F
:100CA000616F3E0E626FF70E636F000E656F060E8A
:100CB000646F7EECEBF0000160516111D8A463EF2A
:100CC00086F065EF86F0F5EF89F0000E0101FF6F09
:100CD000000EFE6F000EFD6F060E66ECD2F01E6E6B
:100CE0001E502D0DFF0EF324D96E040EF420DA6E83
:100CF000DF50D8A47EEF86F080EF86F0EDEF86F02F
:100D0000090E1E6086EF86F088EF86F090EF86F081
:100D1000300E0001E16F1E50310FE26F9EEF86F042
:100D2000080E1E6496EF86F098EF86F09EEF86F030
:100D3000310E0001E16F1E50270FE26F000E00011F
:100D4000DF6F000EDF6FEEECFFF06A0E0001776FD1
:100D5000F80E786F020E796F3DECEFF0D50E0001C2
:100D6000776FF70E786F030E796F3DECEFF05A0E48
:100D70000001776FFD0E786F040E796F3DECEFF098
:100D8000110E00016C6F040ED6ECFBF0E10E0001B9
:100D9000B86F000EB96F600EBA6FFF0EBB6F010E19
:100DA0001E24BC6FBD6B000EBD2332ECFCF0E10EC7
:100DB00000016C6F000E6D6F14ECFBF0CE0E0001A5
:100DC0007D6FEE0E7E6FF50E7F6F000E806F020E50
:100DD000816F96EC95F095EF95F0090E0001DF6FAD
:100DE000180E0001DF25D96EDA6A020EDA22DF5012
:100DF00077ECFFF00009D8B400EF87F002EF87F03E
:100E000062EF87F0190E0001DF25D96EDA6A020E53
:100E1000DA22200EDE18D8A410EF87F012EF87F048
:100E200033EF87F0180EDF25D96EDA6A020EDA2268
:100E3000180EDF25E16EE26A020EE222E750D00FC3
:100E4000DF6E180E0001DF25D96EDA6A020EDA2293
:100E5000DF50C06FC0510101FE25FE6F000EFF2163
:100E6000FF6F42EF89F0180EDF25D96EDA6A020EA5
:100E7000DA22180EDF25E16EE26A020EE222E75066
:100E8000D00FDF6E180EDF25D96EDA6A020EDA2275
:100E9000DF500A0D180EDF25D96EDA6A020EDA224B
:100EA000F3CFDFFFFEC160F0FFC161F0000E636FA2
:100EB0000A0E626F39EC03F060C0FEF161C0FFF111
:100EC00021EF87F00101FD2BF8EF88F01E502D0D6A
:100ED000DB0EF324D96E040EF420DA6EFEC1DEFFC1
:100EE000FFC1DDFF000E0101FF6F000EFE6F42EF3C
:100EF00089F01E502D0DDD0EF324D96E040EF42062
:100F0000DA6EFEC1DEFFFFC1DDFF72EF87F01E501B
:100F10002D0DF90EF324D96E040EF420DA6EFEC105
:100F2000DFFF72EF87F01E502D0DDF0EF324D96E18
:100F3000040EF420DA6EFEC1DEFFFFC1DDFF72EFAA
:100F400087F01E502D0DE70EF324D96E040EF42009
:100F5000DA6EFEC1DEFFFFC1DDFF72EF87F01E50CB
:100F60002D0DEF0EF324D96E040EF420DA6EFEC1BF
:100F7000DFFF72EF87F01E502D0DE10EF324D96EC6
:100F8000040EF420DA6EFEC1DEFFFFC1DDFF72EF5A
:100F900087F01E502D0DE90EF324D96E040EF420B7
:100FA000DA6EFEC1DEFFFFC1DDFF72EF87F01E507B
:100FB0002D0DF00EF324D96E040EF420DA6EFEC16E
:100FC000DFFF72EF87F01E502D0DE30EF324D96E74
:100FD000040EF420DA6EFEC1DEFFFFC1DDFF72EF0A
:100FE00087F01E502D0DEB0EF324D96E040EF42065
:100FF000DA6EFEC1DEFFFFC1DDFF72EF87F01E502B
:101000002D0DF10EF324D96E040EF420DA6EFEC11C
:10101000DFFF72EF87F01E502D0DE50EF324D96E21
:10102000040EF420DA6EFEC1DEFFFFC1DDFF72EFB9
:1010300087F01E502D0DED0EF324D96E040EF42012
:10104000DA6EFEC1DEFFFFC1DDFF72EF87F01E50DA
:101050002D0DF20EF324D96E040EF420DA6EFEC1CB
:10106000DFFF1E502D0DFB0EF324D96E040EF4206D
:10107000DA6E000EDF6E1E502D0D010EF324D96EB8
:10108000050EF420DA6E000EDF6E000E0101FF6F18
:10109000000EFE6F1E502D0DD90EF324D96E040ED6
:1010A000F420DA6E1E502D0DDD0EF324E16E040ED9
:1010B000F420E26EE6CFC2F0E5CFC3F01E502D0D56
:1010C000DB0EF324E16E040EF420E26EE6CFC4F0F2
:1010D000E5CFC5F00001C251C427C351C523DE507E
:1010E000C45DDE50C559D8A078EF88F07AEF88F05B
:1010F000ECEF88F01E502D0D000EF324D96E050E76
:10110000F420DA6E000EDF6E090E1E608AEF88F0A2
:101110008CEF88F093EF88F0300EE16F1E50310FA6
:10112000E26FA0EF88F0080E1E6499EF88F09BEF45
:1011300088F0A0EF88F0310EE16F1E50270FE26FAC
:10114000000EDF6FEEECFFF0D50E0001776FFC0EA6
:10115000786F020E796F3DECEFF0D50E0001776FDE
:10116000F70E786F030E796F3DECEFF05A0E000129
:10117000776FFD0E786F040E796F3DECEFF0110E76
:1011800000016C6F040ED6ECFBF0E10E0001B86FAD
:10119000000EB96F600EBA6FFF0EBB6F010E1E24FA
:1011A000BC6FBD6B000EBD2332ECFCF0E10E000104
:1011B0006C6F000E6D6F14ECFBF0E30E00017D6FA1
:1011C000F00E7E6FF50E7F6F000E806F020E816F46
:1011D00096EC95F042EF89F01E502D0D000EF32491
:1011E000D96E050EF420DA6E010EDF6E42EF89F043
:1011F000FD510001C06FC16BC151000AD8B403EFAB
:1012000089F042EF89F0C051010AD8B466EF87F047
:10121000030AD8B479EF87F0010AD8B487EF87F0D2
:10122000070AD8B493EF87F0010AD8B4A1EF87F08A
:10123000030AD8B4AFEF87F0010AD8B4BBEF87F048
:101240000F0AD8B4C9EF87F0010AD8B4D7EF87F0F6
:10125000030AD8B4E3EF87F0010AD8B4F1EF87F0BE
:10126000070AD8B4FFEF87F0010AD8B40BEF88F073
:10127000030AD8B419EF88F0010AD8B427EF88F030
:1012800042EF89F00001DF2B0E0E0101FD654BEFEF
:1012900089F04DEF89F0F0EF86F01E502D0D000E15
:1012A000F324D96E050EF420DA6EDF50D8B45BEF6C
:1012B00089F05DEF89F095EF95F0090E0001C16F9F
:1012C0001E0EC06FE40EE82EFED7C02FFCD7C12F34
:1012D000FAD700F01E50020D1B0EF324F66EEA0E34
:1012E000F420F76EF86A000EF8220900F5CF63F0DB
:1012F0000A00F5CF64F01E502D0DD50EF324000129
:10130000656F040EF420666FB1ECBFF0090E0001AA
:10131000C16F1E0EC06FE40EE82EFED7C02FFCD7A3
:10132000C12FFAD700F0090E1E6099EF89F09BEFEC
:1013300089F0A3EF89F0300E0001E16F1E50310FEC
:10134000E26FB1EF89F0080E1E64A9EF89F0ABEFF0
:1013500089F0B1EF89F0310E0001E16F1E50270FC7
:10136000E26F000E0001DF6FEEECFFF0550E0001A2
:10137000776FF80E786F020E796F3DECEFF05A0E32
:101380000001776FFD0E786F030E796F3DECEFF083
:10139000110E00016C6F030ED6ECFBF0E10E0001A4
:1013A000B86F000EB96F600EBA6FFF0EBB6F010E03
:1013B0001E24BC6FBD6B000EBD2332ECFCF0E10EB1
:1013C00000016C6F000E6D6F14ECFBF0C20E00019B
:1013D0007D6FF40E7E6FF50E7F6F000E806F020E34
:1013E000816F96EC95F095EF95F0180E606F020EF8
:1013F000616F1A0E626FF70E636F000E656F070E56
:10140000646F7EECEBF0000160516111D8A40BEF2A
:101410008AF00DEF8AF0E7EF8AF0070E66ECD2F063
:101420001E6E1E502D0DFE0EF324D96E040EF420F8
:10143000DA6EDE04D8A41FEF8AF021EF8AF035EFD0
:101440008AF01E502D0DFB0EF324D96E040EF420ED
:10145000DA6E030EDE18D8B430EF8AF032EF8AF07D
:1014600035EF8AF0010E0001D06F1E502D0D000ED9
:10147000F324D96E050EF420DA6EDE04D8A443EF0F
:101480008AF045EF8AF095EF95F01E502D0D000E75
:10149000F324D96E050EF420DA6E000EDF6E090E0D
:1014A0000001C16F1E0EC06FE40EE82EFED7C02FE4
:1014B000FCD7C12FFAD700F01E50020D1B0EF324EB
:1014C000F66EEA0EF420F76EF86A000EF8220900B4
:1014D000F5CF63F00A00F5CF64F01E502D0DD50E48
:1014E000F3240001656F040EF420666FB1ECBFF0C9
:1014F000090E0001C16F1E0EC06FE40EE82EFED76C
:10150000C02FFCD7C12FFAD700F0090E1E608BEF59
:101510008AF08DEF8AF095EF8AF0300E0001E16FCE
:101520001E50310FE26FA3EF8AF0080E1E649BEF8E
:101530008AF09DEF8AF0A3EF8AF0310E0001E16F8F
:101540001E50270FE26F000E0001DF6FEEECFFF080
:101550004F0E0001776FF90E786F020E796F3DEC38
:10156000EFF05A0E0001776FFD0E786F030E796F62
:101570003DECEFF0110E00016C6F030ED6ECFBF0AA
:10158000E10E0001B86F000EB96F600EBA6FFF0E6A
:10159000BB6F010E1E24BC6FBD6B000EBD2332EC71
:1015A000FCF0E10E00016C6F000E6D6F14ECFBF0AF
:1015B0005B0E00017D6FF40E7E6FF50E7F6F000EE7
:1015C000806F020E816F96EC95F095EF95F0180EF6
:1015D000606F020E616F370E626FF70E636F000E61
:1015E000656F060E646F7EECEBF0000160516111D7
:1015F000D8A4FDEF8AF0FFEF8AF0FAEF8BF0000E2F
:101600000101FF6F000EFE6F000EFD6F060E000160
:10161000DF6F180E0001DF25D96EDA6A020EDA22BA
:10162000DF5077ECFFF00009D8B419EF8BF01BEF17
:101630008BF07BEF8BF0190E0001DF25D96EDA6A93
:10164000020EDA22200EDE18D8A429EF8BF02BEF41
:101650008BF04CEF8BF0180EDF25D96EDA6A020E94
:10166000DA22180EDF25E16EE26A020EE222E7506E
:10167000D00FDF6E180E0001DF25D96EDA6A020E78
:10168000DA22DF50C06FC0510101FE25FE6F000E4F
:10169000FF21FF6FC2EF8BF0180EDF25D96EDA6ADB
:1016A000020EDA22180EDF25E16EE26A020EE22255
:1016B000E750D00FDF6E180EDF25D96EDA6A020E02
:1016C000DA22DF500A0D180EDF25D96EDA6A020E13
:1016D000DA22F3CFDFFFFEC160F0FFC161F0000E40
:1016E000636F0A0E626F39EC03F060C0FEF161C0F7
:1016F000FFF13AEF8BF00101FD2BA0EF8BF0FEC163
:1017000018F0000E0101FF6F000EFE6FC2EF8BF0AC
:10171000FEC117F081EF8BF0FEC116F081EF8BF068
:10172000FEC115F081EF8BF0FEC1CBF0CC6B000E4B
:101730000101FF6F000EFE6F010E0E6EC2EF8BF007
:10174000FD510001C06FC16BC151000AD8B4ABEFAD
:101750008BF0C2EF8BF0C051010AD8B47FEF8BF051
:10176000030AD8B488EF8BF0010AD8B48CEF8BF061
:10177000070AD8B490EF8BF0010AD8B494EF8BF03D
:10178000C2EF8BF00001DF2B040E0101FD65CBEFF2
:101790008BF0CDEF8BF009EF8BF0090E0001C16FDC
:1017A0001E0EC06FE40EE82EFED7C02FFCD7C12F4F
:1017B000FAD700F078ECE4F0090E0001C16F1E0EBC
:1017C000C06FE40EE82EFED7C02FFCD7C12FFAD78A
:1017D00000F0000E0001DF6F1A0E7D6FF60E7E6FB7
:1017E000F50E7F6F000E806F000E816F96EC95F006
:1017F00095EF95F0180E606F020E616F120E626F1A
:10180000F70E636F000E656F070E646F7EECEBF0F2
:10181000000160516111D8A410EF8CF012EF8CF030
:1018200041EF8CF0000E0E6E090E0001C16F1E0E0E
:10183000C06FE40EE82EFED7C02FFCD7C12FFAD719
:1018400000F078ECE4F0090E0001C16F1E0EC06FCD
:10185000E40EE82EFED7C02FFCD7C12FFAD700F038
:10186000000E0001DF6FC70E7D6FF50E7E6FF50E67
:101870007F6F000E806F000E816F96EC95F095EFF4
:1018800095F0180E606F020E616F5D0E626FF70EBD
:10189000636F000E656F050E646F7EECEBF0000168
:1018A00060516111D8A457EF8CF059EF8CF081EFA3
:1018B0008CF00E50D8B45FEF8CF061EF8CF071EFCC
:1018C0008CF0000EDF6FFF0E7D6FF50E7E6FF50E54
:1018D0007F6F000E806F080E816F96EC95F095EF8C
:1018E00095F0000EDF6F680E7D6FF50E7E6FF50EC2
:1018F0007F6F000E806F000E816F96EC95F095EF74
:1019000095F0180E606F020E616F630E626FF70E36
:10191000636F000E656F040E646F7EECEBF00001E8
:1019200060516111D8A497EF8CF099EF8CF07EEFA5
:101930008DF0000E0101FF6F000EFE6F000EFD6FB7
:10194000050E0001DF6F180E0001DF25D96EDA6A7F
:10195000020EDA22DF5077ECFFF00009D8B4B3EFC3
:101960008CF0B5EF8CF045EF8DF0180E0001DF25FF
:10197000D96EDA6A020EDA22180EDF25E16EE26A0B
:10198000020EE222E750D00FDF6E180EDF25D96E6F
:10199000DA6A020EDA22DF50C06FC0510101FE6F19
:1019A000FF6BFEC160F0FFC161F0000E0001636FCC
:1019B0000A0E626F39EC03F060C0FEF161C0FFF106
:1019C000190E0001DF25D96EDA6A020EDA22190E2D
:1019D000DF25E16EE26A020EE222E750D00FDF6EF1
:1019E000190EDF25D96EDA6A020EDA22DF50C06FD7
:1019F000C0510101FE25FE6F000EFF21FF6FFD2B80
:101A00001FEF8DF0FEC1DBF0000E0101FF6F000E35
:101A1000FE6F56EF8DF0FEC1DCF004EF8DF0FEC1DD
:101A2000DDF004EF8DF0FEC1DAF004EF8DF0FEC1C1
:101A3000D9F004EF8DF0FEC1D8F004EF8DF0FD5128
:101A40000001C06FC16BC151000AD8B42AEF8DF0FC
:101A500056EF8DF0C051010AD8B402EF8DF0030AA1
:101A6000D8B40BEF8DF0010AD8B40FEF8DF0070A50
:101A7000D8B413EF8DF0010AD8B417EF8DF0030A34
:101A8000D8B41BEF8DF056EF8DF0000E0001DF6F24
:101A9000E40E7D6FF50E7E6FF50E7F6F000E806F8A
:101AA000000E816F96EC95F095EF95F0030E000116
:101AB000DF27050E0101FD6560EF8DF062EF8DF00F
:101AC000A3EF8CF0060EFD19D8A469EF8DF06BEF33
:101AD0008DF06DEF8DF0AFECF5F0000E0001DF6FD3
:101AE000050E7D6FF30E7E6FF50E7F6F000E806F1B
:101AF000000E816F96EC95F095EF95F0180E606FE3
:101B0000020E616F680E626FF70E636F000E656FF5
:101B1000040E646F7EECEBF0000160516111D8A4FB
:101B200094EF8DF096EF8DF04FEF8EF0ACECF3F07C
:101B3000DBC060F00001616B000E636F0A0E626F24
:101B400049ECF3F000016051300FE16FDBC072F03F
:101B5000736B000E756F0A0E746F08ECF4F00001E1
:101B60007251300FE26F2F0EE36FDCC060F0616BDB
:101B7000000E636F0A0E626F49ECF3F000016051D2
:101B8000300FE46FDCC072F0736B000E756F0A0EDD
:101B9000746F08ECF4F000017251300FE56F2F0EF6
:101BA000E66FDDC060F0616B000E636F0A0E626F5E
:101BB00049ECF3F000016051300FE76FDDC072F0C7
:101BC000736B000E756F0A0E746F08ECF4F0000171
:101BD0007251300FE86F200EE96FDAC060F0616B70
:101BE000000E636F0A0E626F49ECF3F00001605162
:101BF000300FEA6FDAC072F0736B000E756F0A0E69
:101C0000746F08ECF4F000017251300FEB6F3A0E74
:101C1000EC6FD9C060F0616B000E636F0A0E626FEB
:101C200049ECF3F000016051300FED6FD9C072F054
:101C3000736B000E756F0A0E746F08ECF4F0000100
:101C40007251300FEE6F3A0EEF6FD8C060F0616BDB
:101C5000000E636F0A0E626F49ECF3F000016051F1
:101C6000300FF06FD8C072F0736B000E756F0A0EF4
:101C7000746F08ECF4F000017251300FF16F000E38
:101C8000DF6FD80E7D6FF60E7E6FF50E7F6F000E44
:101C9000806F030E816F96EC95F095EF95F0180E1E
:101CA000606F020E616F0A0E626FF70E636F000EB7
:101CB000656F070E646F7EECEBF0000160516111FF
:101CC000D8A465EF8EF067EF8EF0B8EF8EF0070EB8
:101CD00066ECD2F01E6E090E1E6071EF8EF073EF8F
:101CE0008EF07BEF8EF0300E0001E16F1E50310F51
:101CF000E26F89EF8EF0080E1E6481EF8EF083EFA5
:101D00008EF089EF8EF0310E0001E16F1E50270F2B
:101D1000E26F000E0001DF6F1E502D0DFF0EF32449
:101D2000D96E040EF420DA6EDF50D8B49AEF8EF03C
:101D30009CEF8EF0AAEF8EF0E70E7D6FF60E7E6FB1
:101D4000F50E7F6F000E806F070E816F96EC95F099
:101D500095EF95F07F0E7D6FF30E7E6FF50E7F6F22
:101D6000000E806F020E816F96EC95F095EF95F066
:101D7000180E606F020E616F920E626FF70E636F46
:101D8000000E656F020E646F7EECEBF00001605197
:101D90006111D8A4CEEF8EF0D0EF8EF0C8EF8FF0A7
:101DA00090A0D5EF8EF0D7EF8EF0E8EF8EF0000E1A
:101DB0000001DF6F180E7D6FF20E7E6FF50E7F6FE4
:101DC000000E806F000E816F96EC95F095EF95F008
:101DD000000E0101FF6F000EFE6F000EFD6F010E81
:101DE000FD6F030E0001DF6F180E0001DF25D96EB5
:101DF000DA6A020EDA22DF5077ECFFF00009D8B47D
:101E000004EF8FF006EF8FF077EF8FF0190E0001DF
:101E1000DF25D96EDA6A020EDA22200EDE18D8A487
:101E200014EF8FF016EF8FF037EF8FF0180EDF25DD
:101E3000D96EDA6A020EDA22180EDF25E16EE26A46
:101E4000020EE222E750D00FDF6E180E0001DF25F0
:101E5000D96EDA6A020EDA22DF50C06FC05101017A
:101E6000FE25FE6F000EFF21FF6F90EF8FF0180E22
:101E7000DF25D96EDA6A020EDA22180EDF25E16E4E
:101E8000E26A020EE222E750D00FDF6E180EDF2565
:101E9000D96EDA6A020EDA22DF500A0D180EDF253B
:101EA000D96EDA6A020EDA22F3CFDFFFFEC160F0EC
:101EB000FFC161F0000E636F0A0E626F39EC03F030
:101EC00060C0FEF161C0FFF125EF8FF0FEC193F11C
:101ED000FFC194F1000E0101FF6F000EFE6F8EEF47
:101EE0008FF0FEC120F0FFC121F06AEF8FF00101F9
:101EF000FD510001C06FC16BC151000AD8B483EF1E
:101F00008FF08EEF8FF0C051010AD8B466EF8FF0DA
:101F1000030AD8B471EF8FF08EEF8FF00101FD2B23
:101F20000001DF2B020E0101FD6599EF8FF09BEFA1
:101F30008FF0F4EF8EF0090E0001C16F1E0EC06F1E
:101F4000E40EE82EFED7C02FFCD7C12FFAD700F041
:101F5000E3ECEAF0090E0001C16F1E0EC06FE40E43
:101F6000E82EFED7C02FFCD7C12FFAD700F0000E05
:101F70000001DF6F380E7D6FF40E7E6FF50E7F6F00
:101F8000000E806F000E816F96EC95F095EF95F046
:101F9000180E606F020E616F570E626FF70E636F5F
:101FA000000E656F050E646F7EECEBF00001605172
:101FB0006111D8A4DEEF8FF0E0EF8FF0F1EF8FF03A
:101FC000000E0001DF6FA80E7D6FF20E7E6FF50E22
:101FD0007F6F000E806F050E816F96EC95F095EF88
:101FE00095F0180E606F020E616F020E626FF70EB1
:101FF000636F000E656F070E646F7EECEBF00001FF
:1020000060516111D8A407EF90F009EF90F064EFF0
:1020100090F0070E66ECD2F01E6E090E0001C16F43
:102020001E0EC06FE40EE82EFED7C02FFCD7C12FC6
:10203000FAD700F01E5000ECF6F0090E1E6023EFF8
:1020400090F025EF90F02DEF90F0300E0001E16F51
:102050001E50310FE26F3BEF90F0080E1E6433EF1D
:1020600090F035EF90F03BEF90F0310E0001E16F12
:102070001E50270FE26F0001D451D8B442EF90F008
:1020800044EF90F054EF90F0000ED46F570E7D6F38
:10209000F30E7E6FF50E7F6F000E806F020E816F64
:1020A00096EC95F095EF95F0000EDF6FD70E7D6FF3
:1020B000F20E7E6FF50E7F6F000E806F060E816F41
:1020C00096EC95F095EF95F0180E606F020E616F2B
:1020D000830E626FF70E636F000E656F030E646F01
:1020E0007EECEBF0000160516111D8A47AEF90F022
:1020F0007CEF90F0F1EF90F0030E66ECD2F01E6EE4
:10210000090E0001C16F1E0EC06FE40EE82EFED74F
:10211000C02FFCD7C12FFAD700F090A092EF90F01B
:1021200094EF90F096EF90F0D7EF8EF0090E1E60CE
:102130009CEF90F09EEF90F0A6EF90F0300E000133
:10214000E16F1E50310FE26FB4EF90F0080E1E6485
:10215000ACEF90F0AEEF90F0B4EF90F0310E0001E4
:10216000E16F1E50270FE26FCB0E0001C16FEC0E26
:10217000C06F840EE82EFED7C02FFCD7C12FFAD730
:1021800000F0CB0E0001C16FEC0EC06F840EE82E84
:10219000FED7C02FFCD7C12FFAD700F01EC06DF0BC
:1021A000010E3AECC9F0520E0001C16F2B0EC06F48
:1021B000000EE82EFED7C02FFCD7C12FFAD700F0B3
:1021C000E3ECEAF0520E0001C16F2B0EC06F000E5F
:1021D000E82EFED7C02FFCD7C12FFAD700F0E0EFD2
:1021E0008FF0180E606F020E616F300E626FF70E87
:1021F000636F000E656F060E646F7EECEBF00001FE
:1022000060516111D8A407EF91F009EF91F091EFBF
:1022100093F0000E0101FF6F000EFE6F000EFD6FC8
:10222000070E0001DF6F180E0001DF25D96EDA6A94
:10223000020EDA22DF5077ECFFF00009D8B423EF6A
:1022400091F025EF91F09FEF91F0180E0001DF253E
:10225000D96EDA6A020EDA22180EDF25E16EE26A22
:10226000020EE222E750D00FDF6E180EDF25D96E86
:10227000DA6A020EDA22DF50C06FC0510101FE6F30
:10228000FF6BFEC160F0FFC161F0000E0001636FE3
:102290000A0E626F39EC03F060C0FEF161C0FFF11D
:1022A000190E0001DF25D96EDA6A020EDA22190E44
:1022B000DF25E16EE26A020EE222E750D00FDF6E08
:1022C000190EDF25D96EDA6A020EDA22DF50C06FEE
:1022D000C0510101FE25FE6F000EFF21FF6FFD2B97
:1022E00085EF91F0FEC1FAF1000E0101FF6F000EC3
:1022F000FE6F9FEF91F0FEC1FBF174EF91F00101D1
:10230000FE51CCECCBF074EF91F0FD510001C06FA9
:10231000C16BC151000AD8B490EF91F09FEF91F0DA
:10232000C051010AD8B472EF91F0030AD8B47BEF20
:1023300091F0010AD8B47FEF91F09FEF91F0030E76
:102340000001DF27020E0101FD65A9EF91F0ABEF5F
:1023500091F013EF91F0000E1E6E78EF93F01E5087
:102360002D0DD90EF324D96E040EF420DA6E0F0E63
:10237000DE6E000EDD6E1E502D0DF30EF324D96EB1
:10238000040EF420DA6E010EDF6E1E502D0DF40ED9
:10239000F324D96E040EF420DA6EFAC1DFFF1E506A
:1023A0002D0DF50EF324D96E040EF420DA6EFBC168
:1023B000DFFF1E502D0DF60EF324D96E040EF4200F
:1023C000DA6EC9C0DFFF1E502D0DF70EF324D96E53
:1023D000040EF420DA6ED6C0DFFF1E502D0DF80E6D
:1023E000F324D96E040EF420DA6ED7C0DFFF1E503E
:1023F0002D0DD50EF324D96E040EF420DA6E640E82
:10240000DE6E000EDD6E1E502D0DD70EF324D96E3C
:10241000040EF420DA6E300EDE6E750EDD6E1E5088
:102420002D0DFA0EF324D96E040EF420DA6E1E2858
:10243000DF6E1E502D0DFE0EF324D96E040EF42017
:10244000DA6E000EDF6E1E502D0DFC0EF324D96ED9
:10245000040EF420DA6E020EDF6E1E502D0DFD0EFE
:10246000F324D96E040EF420DA6E020EDF6E1E50D5
:102470002D0DFF0EF324D96E040EF420DA6E010E3A
:10248000DF6E1E502D0DDB0EF324D96E040EF420EA
:10249000DA6E050EDE6E000EDD6E1E502D0DDD0EA9
:1024A000F324D96E040EF420DA6E0F0EDE6E000EE9
:1024B000DD6E1E502D0DF90EF324D96E040EF4209E
:1024C000DA6E1E28DF6E1E502D0DFB0EF324D96E22
:1024D000040EF420DA6E000EDF6E1E502D0D010E7C
:1024E000F324D96E050EF420DA6E000EDF6E1E5056
:1024F0002D0D000EF324D96E050EF420DA6E010EB8
:10250000DF6E1E50020D1B0EF324F66EEA0EF42051
:10251000F76EF86A000EF8220900F5CF63F00A00A2
:10252000F5CF64F01E502D0DD50EF3240001656F1C
:10253000040EF420666FA8ECDEF0090E0001C16FF6
:102540001E0EC06FE40EE82EFED7C02FFCD7C12FA1
:10255000FAD700F01E50020D1B0EF324F66EEA0EA1
:10256000F420F76EF86A000EF8220900F5CF63F048
:102570000A00F5CF64F01E502D0DD50EF324000196
:10258000656F040EF420666FE5ECF2F0090E0001B1
:10259000C16F1E0EC06FE40EE82EFED7C02FFCD711
:1025A000C12FFAD700F01E50020D1B0EF324F66E59
:1025B000EA0EF420F76EF86A000EF8220900F5CF53
:1025C00063F00A00F5CF64F01E502D0DD50EF324F4
:1025D0000001656F040EF420666FE0ECFCF0090E5C
:1025E0000001C16F1E0EC06FE40EE82EFED7C02F93
:1025F000FCD7C12FFAD700F01E50020D1B0EF3249A
:10260000F66EEA0EF420F76EF86A000EF822090062
:10261000F5CF63F00A00F5CF64F01E502D0DD50EF6
:10262000F3240001656F040EF420666F0AECFDF0E0
:10263000090E0001C16F1E0EC06FE40EE82EFED71A
:10264000C02FFCD7C12FFAD700F01E50020D1B0E71
:10265000F324F66EEA0EF420F76EF86A000EF82204
:102660000900F5CF63F00A00F5CF64F01E502D0D80
:10267000D50EF3240001656F040EF420666FB6ECEE
:10268000FCF0090E0001C16F1E0EC06FE40EE82EB3
:10269000FED7C02FFCD7C12FFAD700F01E50020D75
:1026A0001B0EF324F66EEA0EF420F76EF86A000EA5
:1026B000F8220900F5CF63F00A00F5CF64F01E5050
:1026C0002D0DD50EF3240001656F040EF420666F06
:1026D000B1ECBFF0090E0001C16F1E0EC06FE40E19
:1026E000E82EFED7C02FFCD7C12FFAD700F01E2A44
:1026F0000F0E1E647EEF93F080EF93F0AFEF91F03A
:10270000000E0001DF6FA50E7D6FF60E7E6FF50ED9
:102710007F6F000E806F000E816F96EC95F095EF45
:1027200095F0180E606F020E616F870E626FF70EE4
:10273000636F000E656F030E646F7EECEBF00001BB
:1027400060516111D8A4A7EF93F0A9EF93F014EFB3
:1027500094F0040E0101FC6FE0EF93F0FC5166EC85
:10276000D2F01E6E0101FC51020F66ECD2F00001A6
:10277000C06F010EC0271E50C16FC26BD890C13709
:10278000C237000EC125D96E020EC221DA6EC0C05A
:10279000DFFF0101FC51040F66ECD2F00001C06FB5
:1027A000010EC0271E50020D010EF324D96E020E39
:1027B000F420DA6EC0C0DFFF0101FC51060FFC6F90
:1027C000180EFC25D96EDA6A020EDA22200EDE1807
:1027D000D8A4EDEF93F0EFEF93F0AEEF93F0EEECC3
:1027E000FFF0840E0001776FFD0E786F020E796F97
:1027F0003DECEFF0080E0001776FF90E786F030ED5
:10280000796F3DECEFF0000E0001DF6FF00E7D6F91
:10281000F30E7E6FF50E7F6F000E806F010E816FDD
:1028200096EC95F095EF95F095EF95F0180E606F9A
:10283000020E616F950E626FF70E636F000E656F8B
:10284000020E646F7EECEBF0000160516111D8A4C0
:102850002CEF94F02EEF94F01BEF95F01B0E606FB1
:10286000020E616FEF0E626F010E636F000E656FF7
:10287000060E646F7EECEBF0000160516111D8A48C
:1028800044EF94F046EF94F0E7EF94F01250D8B490
:102890004CEF94F04EEF94F071EF94F0EEECFFF00B
:1028A000460E0001776FFB0E786F020E796F3DECDC
:1028B000EFF0080E0001776FF90E786F030E796F55
:1028C0003DECEFF0000E0001DF6F810E7D6FF10E29
:1028D0007E6FF50E7F6F000E806F010E816F96EC9C
:1028E00095F0EF0E0001606F010E616F220E626FB6
:1028F000020E636F000E656F060E646F94ECF8F0C5
:10290000F50E0001606F000E616FE10E626F000E48
:10291000636F000E656F0A0E646F94ECF8F0010EA1
:10292000126EE10E0001606F000E616FD50E626FD6
:10293000010E636F000E656F0A0E646F94ECF8F081
:10294000050E0001C16F0F0EC06FF10EE82EFED70D
:10295000C02FFCD7C12FFAD70AECF8F0050E000102
:10296000C16F0F0EC06FF10EE82EFED7C02FFCD73F
:10297000C12FFAD74FECF8F0050E0001C16F0F0E12
:10298000C06FF10EE82EFED7C02FFCD7C12FFAD7AB
:1029900034ECFDF0050E0001C16F0F0EC06FF10E9B
:1029A000E82EFED7C02FFCD7C12FFAD7000E0001AA
:1029B000DF6F650E7D6FF60E7E6FF50E7F6F000E7A
:1029C000806F000E816F96EC95F095EF95F0EEEC30
:1029D000FFF0DF0E0001776FFD0E786F010E796F4B
:1029E0003DECEFF04B0E0001776FFB0E786F020E9F
:1029F000796F3DECEFF0000E0001DF6F4E0E7D6F42
:102A0000F60E7E6FE10E7F6F000E806F000E816FFD
:102A100096EC95F0E10E0001606F000E616FD50E2F
:102A2000626F010E636F000E656F0A0E646F94ECA7
:102A3000F8F095EF95F0180E606F020E616F720E50
:102A4000626FF70E636F000E656F040E646F7EECAD
:102A5000EBF0000160516111D8A431EF95F033EF34
:102A600095F058EF95F0EEECFFF0F30E0001776F64
:102A7000FC0E786F010E796F3DECEFF0630E0001F4
:102A8000776FFF0E786F020E796F3DECEFF0000E5E
:102A90000001DF6F7C0E7D6FF60E7E6FE10E7F6FA3
:102AA000000E806F000E816F96EC95F00AEF95F0A6
:102AB000180E606F020E616FF60E626FF60E636F96
:102AC000000E656F0B0E646F7EECEBF00001605141
:102AD0006111D8A46EEF95F070EF95F0D5EF80F00E
:102AE000000EDF6FC90E7D6FF60E7E6FE10E7F6FF9
:102AF000000E806F040E816F96EC95F00AEF95F052
:102B00000FECFFF0520E0001C16F2B0EC06F000ED4
:102B1000E82EFED7C02FFCD7C12FFAD700F095EFD3
:102B200095F00FECFFF0D5EF80F01200120E0001CF
:102B3000776FF90E786F010E796F3DECEFF01E0E96
:102B40000101CA6FAA0E0001616FFE0E626F5FEC99
:102B5000FCF0050E0001836F0F0E826FF10EE82E60
:102B6000FED7822FFCD7832FFAD77FC061F080C0B9
:102B700062F00A0E0001636F47ECFEF0050E0001E3
:102B8000836F0F0E826FF10EE82EFED7822FFCD7D7
:102B9000832FFAD7A40E0001616FFC0E626F5FEC09
:102BA000FCF0090E0001836F1E0E826FE40EE82E0A
:102BB000FED7822FFCD7832FFAD700F07DC061F0BB
:102BC0007EC062F05FECFCF0090E0001836F1E0E08
:102BD000826FE40EE82EFED7822FFCD7832FFAD720
:102BE00000F05BEF9DF0E10E616F000E626F0A0E68
:102BF000636F47ECFEF0090E0001836F1E0E826FBB
:102C0000E40EE82EFED7822FFCD7832FFAD700F0F0
:102C100089EF9DF0E10E616F000E626F020E636F2F
:102C200047ECFEF0FBEF95F0E10E616F000E626F76
:102C3000110E636F47ECFEF0FBEF95F0E80E616F4D
:102C4000010E626F060E636F47ECFEF0FBEF95F02E
:102C500093C105F094C106F005C066F006C067F0A8
:102C6000030E696FE80E686FD5ECF9F0000166514C
:102C7000300FEF6F030E636FE80E626F05C060F0F8
:102C800006C061F07DECFAF060C066F061C067F0EC
:102C9000000E0001696F640E686FD5ECF9F0000159
:102CA0006651300FF06F000E636F640E626F05C0E7
:102CB00060F006C061F07DECFAF060C066F061C0C3
:102CC00067F0000E0001696F0A0E686FD5ECF9F02D
:102CD00000016651300FF16F05C060F006C061F071
:102CE000000E636F0A0E626F7DECFAF00001605116
:102CF000300FF26FEF0E616F000E626F040E636FA4
:102D000047ECFEF0050E0001836F0F0E826FF10E8F
:102D1000E82EFED7822FFCD7832FFAD7A90E000109
:102D2000616FFF0E626F5FECFCF0050E0001836FB8
:102D30000F0E826FF10EE82EFED7822FFCD7832F65
:102D4000FAD720C005F021C006F005C066F006C025
:102D500067F0030E0001696FE80E686FD5ECF9F0BB
:102D600000016651300FEF6F030E636FE80E626F64
:102D700005C060F006C061F07DECFAF060C066F05E
:102D800061C067F0000E0001696F640E686FD5ECDA
:102D9000F9F000016651300FF06F000E636F640EA2
:102DA000626F05C060F006C061F07DECFAF060C0B3
:102DB00066F061C067F0000E0001696F0A0E686F6F
:102DC000D5ECF9F000016651300FF16F05C060F0ED
:102DD00006C061F0000E636F0A0E626F7DECFAF0C0
:102DE00000016051300FF26FEF0E616F000E626FE5
:102DF000040E636F47ECFEF0FBEF95F0E10E616FA0
:102E0000000E626F020E636F47ECFEF0050E0001CC
:102E1000836F0F0E826FF10EE82EFED7822FFCD744
:102E2000832FFAD7CB0E0001616FFF0E626F5FEC4C
:102E3000FCF0050E0001836F0F0E826FF10EE82E7D
:102E4000FED7822FFCD7832FFAD7C7C005F0C8C0A2
:102E500006F005C066F006C067F0270E0001696F36
:102E6000100E686FD5ECF9F000016651300FEF6F6E
:102E7000270E636F100E626F05C060F006C061F030
:102E80007DECFAF060C066F061C067F0030E0001EF
:102E9000696FE80E686FD5ECF9F000016651300FEC
:102EA000F06F030E636FE80E626F05C060F006C03E
:102EB00061F07DECFAF060C066F061C067F0000E72
:102EC0000001696F640E686FD5ECF9F0000166517E
:102ED000300FF16F000E636F640E626F05C060F01B
:102EE00006C061F07DECFAF060C066F061C067F08A
:102EF000000E0001696F0A0E686FD5ECF9F0000151
:102F00006651300FF26F05C060F006C061F0000E30
:102F1000636F0A0E626F7DECFAF000016051300FB2
:102F2000F36FEF0E616F000E626F050E636F47EC7B
:102F3000FEF0FBEF95F0D00E0001826FC90EE82E77
:102F4000FED7822FFCD700D0E10E0001616F000E8A
:102F5000626F020E636F47ECFEF0D00E0001826FCD
:102F6000C90EE82EFED7822FFCD700D0540E0001E8
:102F7000616FFF0E626F5FECFCF0D00E0001826F9C
:102F8000C90EE82EFED7822FFCD700D01E502D0D83
:102F9000D90EF324D96E040EF420DA6EDECF05F0DC
:102FA000DDCF06F005C066F006C067F0000E000138
:102FB000696F640E686FD5ECF9F000016651300F4F
:102FC000E16F000E636F640E626F05C060F006C0B3
:102FD00061F07DECFAF060C066F061C067F0000E51
:102FE0000001696F0A0E686FD5ECF9F000016651B7
:102FF000300FE26F05C060F006C061F0000E636F35
:103000000A0E626F7DECFAF000016051300FE36F41
:10301000E10E616F000E626F030E636F47ECFEF00E
:10302000D00E0001826FC90EE82EFED7822FFCD78A
:1030300000D0100E0001616FFF0E626F5FECFCF0BC
:10304000D00E0001826FC90EE82EFED7822FFCD76A
:1030500000D01E502D0DF30EF324D96E040EF42073
:10306000DA6EDF500001826F8251606F616B000E7B
:10307000636F0A0E626F49ECF3F000016051300F8C
:10308000E16F1E502D0DF30EF324D96E040EF420C3
:10309000DA6EDF50826F8251726F736B000E756F44
:1030A0000A0E746F08ECF4F000017251300FE26FF9
:1030B000E10E616F000E626F020E636F47ECFEF06F
:1030C000D00E0001826FC90EE82EFED7822FFCD7EA
:1030D00000D0BB0E0001616FFF0E626F5FECFCF071
:1030E000D00E0001826FC90EE82EFED7822FFCD7CA
:1030F00000D01E502D0DD50EF324D96E040EF420F1
:10310000DA6EDECF05F0DDCF06F005C066F006C052
:1031100067F0000E0001696F640E686FD5ECF9F07E
:1031200000016651300FE16F000E636F640E626F35
:1031300005C060F006C061F07DECFAF060C066F09A
:1031400061C067F0000E0001696F0A0E686FD5EC70
:10315000F9F000016651300FE26F05C060F006C063
:1031600061F0000E636F0A0E626F7DECFAF00001F1
:103170006051300FE36FE10E616F000E626F030E5E
:10318000636F47ECFEF0D00E0001826FC90EE82E8F
:10319000FED7822FFCD700D0B50E0001616FFF0E65
:1031A000626F5FECFCF0D00E0001826FC90EE82E5A
:1031B000FED7822FFCD700D01E502D0DD70EF32442
:1031C000D96E040EF420DA6EDECF05F0DDCF06F006
:1031D00005C066F006C067F0000E0001696F640E5E
:1031E000686FD5ECF9F000016651300FE16F000E09
:1031F000636F640E626F05C060F006C061F07DEC25
:10320000FAF060C066F061C067F0000E0001696FFF
:103210000A0E686FD5ECF9F000016651300FE26FCD
:1032200005C060F006C061F0000E636F0A0E626FA9
:103230007DECFAF000016051300FE36FE10E616F39
:10324000000E626F030E636F47ECFEF0D00E0001BC
:10325000826FC90EE82EFED7822FFCD700D08B0ECE
:103260000001616FFE0E626F5FECFCF0D00E00019A
:10327000826FC90EE82EFED7822FFCD700D01E50D9
:103280002D0DF60EF324D96E040EF420DA6EDF5005
:103290000001826F8251606F616B000E636F0A0ED6
:1032A000626F49ECF3F000016051300FE16F1E5086
:1032B0002D0DF60EF324D96E040EF420DA6EDF50D5
:1032C000826F8251726F736B000E756F0A0E746F8E
:1032D00008ECF4F000017251300FE26FE10E616F03
:1032E000000E626F020E636F47ECFEF0D00E00011D
:1032F000826FC90EE82EFED7822FFCD700D01E5059
:103300002D0DF70EF324D96E040EF420DA6EDF5083
:103310000001826F8251606F616B000E636F0A0E55
:10332000626F49ECF3F000016051300FE16F1E5005
:103330002D0DF70EF324D96E040EF420DA6EDF5053
:10334000826F8251726F736B000E756F0A0E746F0D
:1033500008ECF4F000017251300FE26FE10E616F82
:10336000000E626F020E636F47ECFEF0D00E00019C
:10337000826FC90EE82EFED7822FFCD700D01E50D8
:103380002D0DF80EF324D96E040EF420DA6EDF5002
:103390000001826F8251606F616B000E636F0A0ED5
:1033A000626F49ECF3F000016051300FE16F1E5085
:1033B0002D0DF80EF324D96E040EF420DA6EDF50D2
:1033C000826F8251726F736B000E756F0A0E746F8D
:1033D00008ECF4F000017251300FE26FE10E616F02
:1033E000000E626F020E636F47ECFEF0D00E00011C
:1033F000826FC90EE82EFED7822FFCD700D01E5058
:103400002D0DF40EF324D96E040EF420DA6EDF5085
:103410000001826F8251606F616B000E636F0A0E54
:10342000626F49ECF3F000016051300FE16F1E5004
:103430002D0DF40EF324D96E040EF420DA6EDF5055
:10344000826F8251726F736B000E756F0A0E746F0C
:1034500008ECF4F000017251300FE26FE10E616F81
:10346000000E626F020E636F47ECFEF0D00E00019B
:10347000826FC90EE82EFED7822FFCD700D01E50D7
:103480002D0DF50EF324D96E040EF420DA6EDF5004
:103490000001826F8251606F616B000E636F0A0ED4
:1034A000626F49ECF3F000016051300FE16F1E5084
:1034B0002D0DF50EF324D96E040EF420DA6EDF50D4
:1034C000826F8251726F736B000E756F0A0E746F8C
:1034D00008ECF4F000017251300FE26FE10E616F01
:1034E000000E626F020E636F47ECFEF0D00E00011B
:1034F000826FC90EE82EFED7822FFCD700D0A50E12
:103500000001616FFC0E626F5FECFCF01E502D0D30
:10351000000EF324D96E050EF420DA6EDF50D8B415
:1035200094EF9AF096EF9AF0ACEF9BF0980E0001B2
:10353000616FF70E626F5FECFCF01E502D0DDB0E1D
:10354000F324D96E040EF420DA6EDECF05F0DDCF61
:1035500006F005C066F006C067F0000E0001696F56
:10356000640E686FD5ECF9F000016651300FE16F21
:10357000000E636F640E626F05C060F006C061F0FC
:103580007DECFAF060C066F061C067F0000E0001EB
:10359000696F0A0E686FD5ECF9F000016651300FC3
:1035A000E26F05C060F006C061F0000E636F0A0EA6
:1035B000626F7DECFAF000016051300FE36FE10EB5
:1035C000616F000E626F030E636F47ECFEF0D00E6A
:1035D0000001826FC90EE82EFED7822FFCD700D0E3
:1035E000540E0001616FFF0E626F5FECFCF0D00EB5
:1035F0000001826FC90EE82EFED7822FFCD700D0C3
:103600001E502D0DDD0EF324D96E040EF420DA6E5B
:10361000DECF05F0DDCF06F005C066F006C067F02E
:10362000000E0001696F640E686FD5ECF9F00001BF
:103630006651300FE16F000E636F640E626F05C05C
:1036400060F006C061F07DECFAF060C066F061C029
:1036500067F0000E0001696F0A0E686FD5ECF9F093
:1036600000016651300FE26F05C060F006C061F0E6
:10367000000E636F0A0E626F7DECFAF0000160517C
:10368000300FE36FE10E616F000E626F030E636F28
:1036900047ECFEF0D00E0001826FC90EE82EFED777
:1036A000822FFCD700D01B0E0001616FFE0E626FEF
:1036B0005FECFCF0D00E0001826FC90EE82EFED741
:1036C000822FFCD700D01E502D0DF90EF324D96E99
:1036D000040EF420DA6EDF500001826F8251606FB9
:1036E000616B000E636F0A0E626F49ECF3F000012C
:1036F0006051300FE16F1E502D0DF90EF324D96E7D
:10370000040EF420DA6EDF50826F8251726F736B99
:10371000000E756F0A0E746F08ECF4F00001725120
:10372000300FE26FE10E616F000E626F020E636F89
:1037300047ECFEF0D00E0001826FC90EE82EFED7D6
:10374000822FFCD700D0A50E0001616FFC0E626FC6
:103750005FECFCF089EF9DF0B80E0001616FF70E91
:10376000626F5FECFCF0D00E0001826FC90EE82E94
:10377000FED7822FFCD700D089EF9DF0D00E00013C
:10378000826FC90EE82EFED7822FFCD700D0750EAF
:103790000001616FFE0E626F5FECFCF0D00E000165
:1037A000826FC90EE82EFED7822FFCD700D018C03A
:1037B00060F00001616B000E636F0A0E626F49ECEE
:1037C000F3F000016051300FE16F18C072F0736BBD
:1037D000000E756F0A0E746F08ECF4F00001725160
:1037E000300FE26FE10E616F000E626F020E636FC9
:1037F00047ECFEF0D00E0001826FC90EE82EFED716
:10380000822FFCD700D0780E0001616FFF0E626F2F
:103810005FECFCF0D00E0001826FC90EE82EFED7DF
:10382000822FFCD700D0FE0E0001616FFE0E626F8A
:103830005FECFCF0D00E0001826FC90EE82EFED7BF
:10384000822FFCD700D017C060F00001616B000E22
:10385000636F0A0E626F49ECF3F000016051300FA4
:10386000E16F17C072F0736B000E756F0A0E746F04
:1038700008ECF4F000017251300FE26FE10E616F5D
:10388000000E626F020E636F47ECFEF0D00E000177
:10389000826FC90EE82EFED7822FFCD700D0780E9B
:1038A0000001616FFF0E626F5FECFCF0D00E000153
:1038B000826FC90EE82EFED7822FFCD700D0070EEC
:1038C0000001616FFF0E626F5FECFCF0D00E000133
:1038D000826FC90EE82EFED7822FFCD700D016C00B
:1038E00060F00001616B000E636F0A0E626F49ECBD
:1038F000F3F000016051300FE16F16C072F0736B8E
:10390000000E756F0A0E746F08ECF4F0000172512E
:10391000300FE26FE10E616F000E626F020E636F97
:1039200047ECFEF0D00E0001826FC90EE82EFED7E4
:10393000822FFCD700D0AF0E0001616FFF0E626FC7
:103940005FECFCF0D00E0001826FC90EE82EFED7AE
:10395000822FFCD700D0800E0001616FFE0E626FD7
:103960005FECFCF0D00E0001826FC90EE82EFED78E
:10397000822FFCD700D015C060F00001616B000EF3
:10398000636F0A0E626F49ECF3F000016051300F73
:10399000E16F15C072F0736B000E756F0A0E746FD5
:1039A00008ECF4F000017251300FE26FE10E616F2C
:1039B000000E626F020E636F47ECFEF0D00E000146
:1039C000826FC90EE82EFED7822FFCD700D0780E6A
:1039D0000001616FFF0E626F5FECFCF0D00E000122
:1039E000826FC90EE82EFED7822FFCD700D08E0E34
:1039F0000001616FFB0E626F5FECFCF0D00E000106
:103A0000826FC90EE82EFED7822FFCD700D0CBC024
:103A100005F0CCC006F005C066F006C067F0000EE9
:103A20000001696F640E686FD5ECF9F00001665112
:103A3000300FE16F000E636F640E626F05C060F0BF
:103A400006C061F07DECFAF060C066F061C067F01E
:103A5000000E0001696F0A0E686FD5ECF9F00001E5
:103A60006651300FE26F05C060F006C061F0000ED5
:103A7000636F0A0E626F7DECFAF000016051300F47
:103A8000E36FE10E616F000E626F030E636F47EC30
:103A9000FEF0D00E0001826FC90EE82EFED7822FF5
:103AA000FCD700D0AF0E0001616FFF0E626F5FECBC
:103AB000FCF0B3EF9BF000018151826F836B835167
:103AC000000AD8B466EF9DF089EF9DF08251010A9B
:103AD000D8B4F3EF95F0030AD8B40AEF96F0010AD0
:103AE000D8B414EF96F0070AD8B41EEF96F0010A86
:103AF000D8B428EF96F0030AD8B4FEEF96F0010A86
:103B0000D8B49BEF97F00F0AD8B4BEEF9BF089EFC3
:103B10009DF0000E116E000E0001DF6F1A0EA1EC79
:103B200003F0090E0001836F1E0E826FE40EE82E73
:103B3000FED7822FFCD7832FFAD700F0C98011500F
:103B4000D8B4A5EF9DF0A7EF9DF09FEF9DF00E017B
:103B50003885290E0001836F960E826F7F0EE82E46
:103B6000FED7822FFCD7832FFAD712000001D25143
:103B7000D8B4BDEF9DF0BFEF9DF011EFA3F007505B
:103B80000810D8A4C6EF9DF0C8EF9DF011EFA3F088
:103B90001050D8A4CEEF9DF0D0EF9DF011EFA3F020
:103BA000CF51D8A4D6EF9DF0D8EF9DF011EFA3F040
:103BB000D051D8A4DEEF9DF0E0EF9DF011EFA3F01F
:103BC000D351D8A4E6EF9DF0E8EF9DF011EFA3F0FC
:103BD000000EC66F07EFA3F0C6512D0DFE0EF324A5
:103BE000D96E040EF420DA6EDE04D8A4FAEF9DF04C
:103BF000FCEF9DF0F8EF9FF0C6512D0D000EF32461
:103C0000D96E050EF420DA6EDF50D8B40AEF9EF0BC
:103C10000CEF9EF0F8EF9FF0C6512D0DFB0EF32434
:103C2000D96E040EF420DA6EDE04D8A41AEF9EF0EA
:103C30001CEF9EF0F8EF9FF0520E0001C16F2B0EAB
