:040000001AEF03F000
:060008004682CCEFDFF0A0
:100018004680D8CF6EF0E8CF6FF0E0CF70F0E9CF30
:1000280071F0EACF72F0D9CF73F0DACF74F0F6CF6F
:1000380075F0F7CF76F0F8CF77F0F5CF78F00E01BE
:1000480033AB29EF00F02BEF00F0A5EF02F090960C
:10005800339BE30ED46EB00ED36E162A0001CD5139
:10006800CE11D8B43AEF00F03CEF00F090EF00F07A
:1000780090A041EF00F043EF00F090EF00F0CD07C3
:10008800D8A0CE0701013E2B1250D8B44EEF00F095
:1000980050EF00F058EF00F0030E126056EF00F03A
:1000A80058EF00F059EF00F0122A190E0001606FA6
:1000B800020E616FDF0E626FF50E636F000E656FE3
:1000C800050E646F17ECF4F0000160516111D8A4BB
:1000D80070EF00F072EF00F090EF00F01E0E606F0E
:1000E800020E616FEB0E626FF50E636F000E656FA7
:1000F800050E646F17ECF4F0000160516111D8A48B
:1001080088EF00F08AEF00F090EF00F009EC0AF0B9
:1001180001013F2B90EF00F090A495EF00F097EFCE
:1001280000F0DFEF01F08EA69CEF00F09EEF00F0EC
:10013800B9EF00F0010126511E1907E127511F19D7
:10014800D8A4A9EF00F0ABEF00F0B5EF00F08E9661
:10015800000E1F6F000E1E6F0E4B0F2B432BE9EF87
:1001680000F01E4B1F2BE9EF00F08EB6BEEF00F03B
:10017800C0EF00F0E9EF00F0010116510E1907E198
:1001880017510F19D8A4CBEF00F0CDEF00F0E7EF2F
:1001980000F04751435DD8B0D4EF00F0D6EF00F03F
:1001A800DFEF00F08E861E4B1F2B000E0F6F000E28
:1001B8000E6FE9EF00F0010E16250E6F000E1721E5
:1001C8000F6FE9EF00F00E4B0F2B8EA8EEEF00F04B
:1001D800F0EF00F00BEF01F0010124511C1907E1C9
:1001E80025511D19D8A4FBEF00F0FDEF00F007EF33
:1001F80001F08E98000E1D6F000E1C6F0C4B0D2B1E
:10020800422B3BEF01F01C4B1D2B3BEF01F08EB84E
:1002180010EF01F012EF01F03BEF01F00101145172
:100228000C1907E115510D19D8A41DEF01F01FEFA6
:1002380001F039EF01F04651425DD8B026EF01F0E8
:1002480028EF01F031EF01F08E881C4B1D2B000EBA
:100258000D6F000E0C6F3BEF01F0010E14250C6FB3
:10026800000E15210D6F3BEF01F00C4B0D2B8EAAE4
:1002780040EF01F042EF01F05DEF01F00101225182
:100288001A1907E123511B19D8A44DEF01F04FEFBC
:1002980001F059EF01F08E9A000E1B6F000E1A6FD5
:1002A8000A4B0B2B412B8DEF01F01A4B1B2B8DEFBB
:1002B80001F08EBA62EF01F064EF01F08DEF01F00A
:1002C800010112510A1907E113510B19D8A46FEF54
:1002D80001F071EF01F08BEF01F04551415DD8B0AD
:1002E80078EF01F07AEF01F083EF01F08E8A1A4B74
:1002F8001B2B000E0B6F000E0A6F8DEF01F0010E25
:1003080012250A6F000E13210B6F8DEF01F00A4BB7
:100318000B2B8EAC92EF01F094EF01F0AFEF01F0F0
:1003280001012051181907E121511919D8A49FEF8B
:1003380001F0A1EF01F0ABEF01F08E9C000E196FF8
:10034800000E186F084B092B402BDFEF01F0184BFC
:10035800192BDFEF01F08EBCB4EF01F0B6EF01F01E
:10036800DFEF01F001011051081907E111510919D6
:10037800D8A4C1EF01F0C3EF01F0DDEF01F0445163
:10038800405DD8B0CAEF01F0CCEF01F0D5EF01F035
:100398008E8C184B192B000E096F000E086FDFEFBB
:1003A80001F0010E1025086F000E1121096FDFEF13
:1003B80001F0084B092B630E1518D8A4E6EF01F0DD
:1003C800E8EF01F0ECEF01F0000E166EA5EF02F079
:1003D8001504D8A4F2EF01F0F4EF01F004EF02F0F5
:1003E80014501618D8A4FBEF01F0FDEF01F004EF4C
:1003F80002F0000E166E8A86020E156EA5EF02F048
:10040800020E1518D8A40BEF02F00DEF02F01EEF44
:1004180002F00001D8511618D8A415EF02F017EF12
:1004280002F01EEF02F0000E166E8A96030E156E8D
:10043800A5EF02F0030E1518D8A425EF02F027EF58
:1004480002F038EF02F00001D9511618D8A42FEFA6
:1004580002F031EF02F038EF02F0000E166E8A88D3
:10046800040E156EA5EF02F0040E1518D8A43FEF80
:1004780002F041EF02F052EF02F00001D8511618D5
:10048800D8A449EF02F04BEF02F052EF02F0000E51
:10049800166E8A98050E156EA5EF02F0050E151852
:1004A800D8A459EF02F05BEF02F06CEF02F0000104
:1004B800D9511618D8A463EF02F065EF02F06CEF7B
:1004C80002F0000E166E8A8A060E156EA5EF02F06F
:1004D800060E1518D8A473EF02F075EF02F086EF38
:1004E80002F00001D8511618D8A47DEF02F07FEF72
:1004F80002F086EF02F0000E166E8A9A070E156E4D
:10050800A5EF02F0070E1518D8A48DEF02F08FEFB3
:1005180002F0A5EF02F0165000016C6F6D6B0350EE
:100528006C1907E104506D19D8A49DEF02F09FEFF4
:1005380002F0A5EF02F0000E166E010E156EA5EF83
:1005480002F00E0138A1ABEF02F0ADEF02F0B2EF0E
:1005580002F0909601013A2B0E01389138A5B7EFB9
:1005680002F0B9EF02F002EF03F090963895F00E22
:10057800C86EDC0EC76E0101392B39513D5DD8B00C
:10058800C8EF02F0CAEF02F0F3EF02F00001D45115
:10059800D8A4D1EF02F0D3EF02F0F3EF02F0010E8E
:1005A800D46F000E0101396FC9902D51D8B4DFEF17
:1005B80002F0E1EF02F0E6EF02F0010E0001D26F67
:1005C80002EF03F03751D8B4ECEF02F0EEEF02F08F
:1005D80002EF03F0010E0001D56F02EF03F00001F6
:1005E800D451D8B4FAEF02F0FCEF02F002EF03F0B6
:1005F800000E0101396FC99002EF03F078C0F5FFD2
:1006080077C0F8FF76C0F7FF75C0F6FF74C0DAFF51
:1006180073C0D9FF72C0EAFF71C0E9FF70C0E0FF84
:100628006FC0E8FF6EC0D8FF4690100022EFFAF0C6
:100638000AEC0BF0850E0001906FF60E916F020E1A
:10064800926F85ECF6F0790E0001906FFA0E916FBB
:10065800030E926F85ECF6F0C40E0001916FEE0E5A
:10066800926F1A0E936F000E946F000E956FC2EC86
:1006780097F0000E0001D76F66EC07F0000E00013E
:10068800E46F090EE4654BEF03F04DEF03F04FEF15
:1006980003F05AEF03F01A0EE425D96EDA6A000E59
:1006A800DA22300EDF6EE42B45EF03F014ECFFF096
:1006B800120083C179F084C17AF085C17BF086C1CC
:1006C8007CF02D0E00017D6F7F0E7E6F950E7F6F83
:1006D8004C0E806F4BEC04F0010E000179250101EE
:1006E800836F000E00017A210101846F000E000162
:1006F8007B210101856F000E00017C210101866FBD
:1007080083C187F084C188F085C189F086C18AF0E9
:10071800120E95EF03F00001D8908A33893388339D
:100728008733E82E8FEF03F087C085F088C086F006
:1007380012006D01F701E701CF01DF01C701BF0119
:10074800B701D701EF013031323334353637383914
:1007580000000103161C080000004014540A0D1A7A
:1007680020101F1115151115111F02040818060471
:1007780008100000040A151F000004071C071C07C6
:100788001C0400001F111B151F00040E1F1F1F0E45
:100798000404150E150E04040400040E0E0E1F00AA
:1007A8000400000E1517110E0000000E0001856FE1
:1007B800000E846F81518211D8B4E5EF03F0E7EFA2
:1007C80003F00FEF04F0010E836FEFEF03F0D89002
:1007D80081378237832B82AFF4EF03F0F6EF03F013
:1007E800EBEF03F0D8908437853781517F5D8251D4
:1007F8008059D8A002EF04F004EF04F009EF04F0E8
:1008080081517F5F8251805B8481D89082338133AC
:10081800832FF6EF03F084C07FF085C080F01200CC
:10082800C2C0F9F2C3C0FAF2000E0101016F000E56
:10083800006F36EF04F0C0C0B8F0C1C0B9F0F90ECF
:100848000001BA6F020EBB6FC4C0BCF0C5C0BDF0DA
:1008580026ECE7F00001B851010100270001B95169
:1008680001010123F9C2F6FFFAC2F7FF000EF86E84
:100878000800F5500009D8A444EF04F046EF04F04E
:100888001FEF04F000C1C0F001C1C1F01200000E5A
:100898000001816F000E826F000E836F000E846F5F
:1008A80079A159EF04F05BEF04F063EF04F07D5198
:1008B80081277E5182237F51832380518423D890BE
:1008C8007D377E377F378037D8907C337B337A33D8
:1008D800793379517A117B117C11D8A476EF04F021
:1008E80078EF04F054EF04F081C079F082C07AF018
:1008F80083C07BF084C07CF012008AB086EF04F0DD
:1009080088EF04F09DEF04F0000E0D6E87C185F0AE
:1009180088C186F0000EBDEC06F0110E0001856F4F
:10092800010EDBEC05F0000E3CEC0CF0000EB3EF12
:1009380004F0010E0D6E93C185F094C186F0060E89
:10094800BDEC06F0110E0001856F010EDBEC05F021
:10095800060E3CEC0CF0000E0101306F010E120087
:1009680000017B517C11D8B4BCEF04F0BEEF04F059
:10097800E2EF04F0010E7D6FC6EF04F0D8907B37EC
:100988007C377D2B7CAFCBEF04F0CDEF04F0C2EFCA
:1009980004F07B51795D7C517A59D8A0D6EF04F0E8
:1009A800D8EF04F0DCEF04F07B51795F7C517A5B7F
:1009B800D8907C337B337D2FCDEF04F079C079F06C
:1009C8007AC07AF0120000017E6F050E00017D6F7B
:1009D8000F0E7C6FF10EE82EFED77C2FFCD77D2FF3
:1009E800FAD70D0EF66EE90EF76E000EF86E0900D6
:1009F800F5CF7CF00900F5CF7DF0050E00017C25D0
:100A0800796F000E7D217A6F7EC07BF0A3EC09F030
:100A1800050E00017D6F0F0E7C6FF10EE82EFED7DC
:100A28007C2FFCD77D2FFAD71200050E00017D6FB1
:100A38000F0E7C6FF10EE82EFED77C2FFCD77D2F92
:100A4800FAD70D0EF66EE90EF76E000EF86E090075
:100A5800F5CF7CF00900F5CF7DF0050E00017C256F
:100A6800796F000E7D217A6FE5EC0AF000017E6F48
:100A7800050E00017D6F0F0E7C6FF10EE82EFED77C
:100A88007C2FFCD77D2FFAD700017E511200050E6E
:100A980000017D6F0F0E7C6FF10EE82EFED77C2FC4
:100AA800FCD77D2FFAD70D0EF66EE90EF76E000E05
:100AB800F86E0900F5CF7CF00900F5CF7DF0080E3F
:100AC80000017C25796F000E7D217A6F0AC07BF0CA
:100AD800A3EC09F0050E00017D6F0F0E7C6FF10E7F
:100AE800E82EFED77C2FFCD77D2FFAD71200050EF3
:100AF80000017D6F0F0E7C6FF10EE82EFED77C2F64
:100B0800FCD77D2FFAD70D0EF66EE90EF76E000EA4
:100B1800F86E0900F5CF7CF00900F5CF7DF0060EE0
:100B280000017C25796F000E7D217A6F0CC07BF067
:100B3800A3EC09F0050E00017D6F0F0E7C6FF10E1E
:100B4800E82EFED77C2FFCD77D2FFAD71200050E92
:100B580000017D6F0F0E7C6FF10EE82EFED77C2F03
:100B6800FCD77D2FFAD70D0EF66EE90EF76E000E44
:100B7800F86E0900F5CF7CF00900F5CF7DF0070E7F
:100B880000017C25796F000E7D217A6F18C07BF0FB
:100B9800A3EC09F0050E00017D6F0F0E7C6FF10EBE
:100BA800E82EFED77C2FFCD77D2FFAD71200000144
:100BB8008F6FAEC18BF0AFC18CF0B0C18DF0B1C1F9
:100BC8008EF000018F51065CD8B0EDEF05F0EFEF25
:100BD80005F0F1EF05F006048F6FFF0E866FFF0E2C
:100BE800876F8F51886F896B865188278751892332
:100BF8008B0E8825D96E000E8921DA6EDF50852587
:100C08008A6F8A058009F9EC0BF012000D0EF66E5A
:100C1800E90EF76E000EF86E0900F5CF7CF00900BA
:100C2800F5CF7DF0080E00017C25796F000E7D213F
:100C38007A6FE5EC0AF00009D8A425EF06F028EF52
:100C480006F0010E29EF06F0000E0A6E050E0001EF
:100C58007D6F0F0E7C6FF10EE82EFED77C2FFCD730
:100C68007D2FFAD71200F50E0401C86F030EC96F65
:100C7800F1C3CAF4F2C3CBF4000ECE6F000ECD6FF1
:100C8800000ED46F000ED36FCA0E0001C06F040EA1
:100C9800C16FF3C3C2F0F4C3C3F0C80EC46F040E2F
:100CA800C56F14EC04F00401CD510301F125D96E90
:100CB8000401CE510301F221DA6E000EDF6E12003C
:100CC8003D6EAEC139F0AFC13AF0B0C13BF0B1C131
:100CD8003CF03D50065CD8B074EF06F076EF06F0B5
:100CE80078EF06F006043D6EFF0E346EFF0E356E8B
:100CF8003D50366E376A3450362635503722390E15
:100D08003624D96E000E3720DA6EDF503324386E61
:100D1800380480094AEC0CF01200ACEF06F07AC0F7
:100D2800F6FF7BC0F7FF000EF86E0800F55069EC7F
:100D38000BF000017A4B7B2B050E00017D6F0F0E27
:100D48007C6FF10EE82EFED77C2FFCD77D2FFAD7CB
:100D58007AC0F6FF7BC0F7FF000EF86E0800F5506A
:100D68000009D8A4BAEF06F0BCEF06F093EF06F03E
:100D780012000001876F070E000187178739E842C4
:100D8800F80B4009F9EC0BF0000E0001896F000E1A
:100D9800886F88518525D96E89518621DA6EDF5092
:100DA800F0EC0BF00001884B892B89BFE5EF06F0CA
:100DB800895109E1080E885DD8A0E5EF06F0E7EF54
:100DC80006F0CDEF06F01200050E0001816F0F0E40
:100DD800806FF10EE82EFED7802FFCD7812FFAD72F
:100DE8002A0E00017C25796F000E7D217A6F20EE96
:100DF8002AF07E51D9267F51DA22DF507B6FA3EC8F
:100E080009F0050E0001816F0F0E806FF10EE82EBC
:100E1800FED7802FFCD7812FFAD71200050E0001CC
:100E2800816F0F0E806FF10EE82EFED7802FFCD752
:100E3800812FFAD7290E00017C25796F000E7D21BC
:100E48007A6F20EE29F07E51D9267F51DA22DF50C1
:100E58007B6FA3EC09F0050E0001816F0F0E806F08
:100E6800F10EE82EFED7802FFCD7812FFAD712007B
:100E7800050E0001816F0F0E806FF10EE82EFED770
:100E8800802FFCD7812FFAD7280E00017C25796F97
:100E9800000E7D217A6F20EE28F07E51D9267F51F1
:100EA800DA22DF507B6FA3EC09F0050E0001816F99
:100EB8000F0E806FF10EE82EFED7802FFCD7812F02
:100EC800FAD71200050E00017D6F0F0E7C6FF10E30
:100ED800E82EFED77C2FFCD77D2FFAD70D0EF66EA5
:100EE800E90EF76E000EF86E0900F5CF79F00A00EA
:100EF800F5CF7AF0D7C07BF0A3EC09F0050E00011E
:100F08007D6F0F0E7C6FF10EE82EFED77C2FFCD77D
:100F18007D2FFAD712001E0E01013D6F000E000151
:100F2800D46F010EE56FC980ACEF07F0D80E7A6F69
:100F3800FD0E7B6F91EC06F0290E00017F6F960E77
:100F48007E6F7F0EE82EFED77E2FFCD77F2FFAD735
:100F58000001D451D8B4B3EF07F0B5EF07F09AEF1A
:100F680007F00E0138851200D0EF07F07AC0F6FFBF
:100F78007BC0F7FF000EF86E0800F55076EC0BF01A
:100F880000017A4B7B2BD00E00017C6FC90EE82E36
:100F9800FED77C2FFCD700D07AC0F6FF7BC0F7FFC6
:100FA800000EF86E0800F5500009D8A4DEEF07F02F
:100FB800E0EF07F0BAEF07F0120000017A6F0E01B8
:100FC800DA87D8A1EAEF07F0ECEF07F0E5EF07F0D2
:100FD800D5CE7BF088EC09F000017A51D8B4F7EF50
:100FE80007F0F9EF07F0FDEF07F00E01DA9BFFEFCE
:100FF80007F00E01DA8BDA89DAB905EF08F007EFA6
:1010080008F000EF08F000017B51120079C07CF075
:101018007AC07DF020EF08F07CC0D9FF7DC0DAFFF0
:10102800200EDE18D8A41BEF08F01DEF08F020EF03
:1010380008F0000E30EF08F07CC0D9FF7DC0DAFF61
:1010480000017C4B7D2BDF50D8A42DEF08F02FEF4B
:1010580008F010EF08F0010E1200356E070E351675
:101068003538E842F80B40094AEC0CF0000E376EB0
:10107800000E366E36503324D96E37503420DA6E6F
:10108800DF5043EC0CF0364A372A37BE55EF08F0EC
:10109800375009E1080E365CD8A055EF08F057EF35
:1010A80008F03EEF08F01200050E00017C6F0F0EED
:1010B8007B6FF10EE82EFED77B2FFCD77C2FFAD75B
:1010C800608060B06AEF08F06CEF08F065EF08F038
:1010D80063CF7DF000017E6B64507C6F7B6B7B512E
:1010E8007D137C517E137DC079F07EC07AF01200AA
:1010F800000E0001886F000E876F8FEF08F086C022
:1011080079F07A6B84C07BF085C07CF0C8ECF7F08E
:101118000001874B882B87518225D96E88518321FE
:10112800DA6EDF50866F8651D8A49DEF08F09FEFE6
:1011380008F083EF08F01200000E00017E6FB9EF8F
:1011480008F07AC0D9FF7BC0DAFFDF5069EC0BF0FA
:1011580000017A4B7B2B7E2BD00E00017D6FC90ED0
:10116800E82EFED77D2FFCD700D000017C517E5D94
:10117800D8A0C1EF08F0C3EF08F0A5EF08F01200FF
:10118800000E00017E6FDDEF08F07AC0D9FF7BC04A
:10119800DAFFDF5076EC0BF000017A4B7B2B7E2BCD
:1011A800D00E00017D6FC90EE82EFED77D2FFCD72B
:1011B80000D000017C517E5DD8A0E5EF08F0E7EF94
:1011C80008F0C9EF08F012000D0EF66EE90EF76E82
:1011D800000EF86E0900F5CF7CF00900F5CF7DF020
:1011E800070E00017C25796F000E7D217A6FE5ECF2
:1011F8000AF0186E050E00017D6F0F0E7C6FF10E60
:10120800E82EFED77C2FFCD77D2FFAD712000001DD
:101218008CBF19EF09F08C5106E18B05D8B017EF98
:1012280009F019EF09F027EF09F08BC08DF08CC099
:101238008EF08D1F8E1F8D4B8E2B8DC08BF08EC028
:101248008CF02BEF09F08BC08BF08CC08CF0120067
:101258003BEF09F085C0F6FF86C0F7FF000EF86E79
:101268000800F550F0EC0BF00001854B862B85C08B
:10127800F6FF86C0F7FF000EF86E0800F55000096B
:10128800D8A449EF09F04BEF09F02EEF09F012004E
:101298000001916F91C079F000017A6B000E7C6FAC
:1012A8000A0E7B6FE8ECFAF000017939F00B926FC7
:1012B80091C08BF08C6B000E8E6F0A0E8D6F03EC55
:1012C800FCF000018B519211926F9251120079C07B
:1012D8007BF07AC07CF074EF09F00001794B7A2B2F
:1012E80079C0D9FF7AC0DAFFDF50D8A47EEF09F0C1
:1012F80080EF09F071EF09F000017B51795D796F9A
:101308007C517A597A6F12000E01D8B58EEF09F028
:1013180093EF09F00001796B792B95EF09F0000143
:10132800796B0E01DA511F0B000179110009D8A45D
:10133800A0EF09F0A2EF09F088EF09F0120079C0D8
:1013480074FF00017A51756E7BC076FF3F0E7716E9
:101358007784F29E550E786EAA0E786E778277B2F1
:10136800B8EF09F0BAEF09F0B3EF09F0F28E77940D
:101378001200000E0001886FCDEF09F085C0D9FF7B
:1013880086C0DAFFDF50F0EC0BF00001854B862BAE
:10139800882B8751885DD8A0D4EF09F0D6EF09F0E3
:1013A800C2EF09F01200000E0001E46FC70EE465F9
:1013B800E0EF09F0E2EF09F0E4EF09F0EFEF09F0F0
:1013C800000EE425D96EDA6A040EDA22000EDF6E0A
:1013D800E42BDAEF09F01200000E0001E46FC70EEB
:1013E800E465F9EF09F0FBEF09F0FDEF09F008EF0C
:1013F8000AF0180EE425D96EDA6A020EDA22000E17
:10140800DF6EE42BF3EF09F01200000E0001E46F29
:10141800C70EE46512EF0AF014EF0AF016EF0AF0AF
:1014280021EF0AF0180EE425D96EDA6A020EDA22E4
:10143800000EDF6EE42B0CEF0AF012000001796F4A
:101448002F0E000179652BEF0AF02DEF0AF038EF27
:101458000AF03A0E796133EF0AF035EF0AF038EF07
:101468000AF0010E39EF0AF0000E120094B43FEFB3
:101478000AF044EF0AF00001796B792B46EF0AF085
:101488000001796B96501F0B79110009D8A44FEF12
:101498000AF051EF0AF03AEF0AF012000001836FE8
:1014A80000018351F00B816F8339F00B826FF00ECE
:1014B800821781518011040983EC0BF000018251DD
:1014C8008011040983EC0BF0120094B46EEF0AF05B
:1014D80072EF0AF0276A272A73EF0AF0276A9650F4
:1014E8001F0B27100009D8A47CEF0AF07EEF0AF042
:1014F80069EF0AF01200FF0E00017B6FFF0E7C6F90
:1015080079C07DF07AC07EF07B517D277C517E23A7
:101518007DC083F17EC084F10101856B866B12006A
:1015280000017E6F00017E510409AAEC0BF0050E44
:10153800E82EFED700F000017E51FB0BAAEC0BF061
:10154800A00E00D0E82EFDD71200000179517B03D0
:10155800F3CF7DF0F4CF7EF079517C03F3507E27F2
:101568007A517B03F3507E277DC079F07EC07AF0F4
:10157800120000017C6F3AEC0AF00BEC0CF0000151
:101588007C51FE0B5BEC0BF03AEC0AF000017B514E
:101598005BEC0BF002EC0CF01200316E3150F00BEA
:1015A8002F6E3138F00B306EF00E30162F502E1093
:1015B8000409D2EC0BF030502E100409D2EC0BF0D9
:1015C800120079C074FF00017A51756E3F0E7716CC
:1015D8007780680E00017B6FE40EE82EFED77B2F24
:1015E800FCD700F0765012002C6E2C50040926EC23
:1015F8000CF0050EE82EFED700F02C50FB0B26EC65
:101608000CF0A00E00D0E82EFDD71200010EF9EC68
:101618000BF0030E0001866F700E856F5C0EE82ECE
:10162800FED7852FFCD7862FFAD700F012002A6E36
:1016380069EC0AF01DEC0CF02A50FE0B90EC0BF054
:1016480069EC0AF0295090EC0BF014EC0CF0120045
:101658000001906F010E0001856F9051DBEC05F0E1
:10166800C70E0001856FF60E866F2CEC09F012008C
:1016780000017B6F7BC079F00F0E000179177B3971
:101688000F0B0F0B0A0DF35079257A6F7A51120060
:1016980000017A6F7AC0D5FE0E01D8B156EF0BF073
:1016A80058EF0BF050EF0BF088EC09F01200000136
:1016B8007A6F7AC091FF94B064EF0BF066EF0BF08D
:1016C8005FEF0BF03AEC0AF012000001796F79C075
:1016D800EBFE0E0137A173EF0BF075EF0BF06DEF1A
:1016E8000BF012000001796F79C099FF0E0136A93D
:1016F80080EF0BF082EF0BF07AEF0BF01200000195
:101708007F6F00017F51FD0BAAEC0BF000017F51A8
:10171800FD0B94EC0AF01200286E28C091FF94B0DB
:1017280098EF0BF09AEF0BF093EF0BF069EC0AF0DF
:101738001200001F1C1F1E1F1E1F1F1E1F1E1F1F03
:0B174800001F1E1F1E1F1F1E1F1E1F64
:1017540000017D6F00017D5105107B6F4E0EBDECC5
:101764000AF012000E01DA85DAB5BBEF0BF0BDEF1B
:101774000BF0B6EF0BF012000E01DA81DAB1C5EF0F
:101784000BF0C7EF0BF0C0EF0BF012000E01DA8381
:10179400DAB3CFEF0BF0D1EF0BF0CAEF0BF012007E
:1017A4002D6E2D50FD0B26EC0CF02D50FD0BF8EC9E
:1017B4000AF012000E0136ABE2EF0BF0E4EF0BF08F
:1017C400DCEF0BF0985012000E0137A3ECEF0BF096
:1017D400EEEF0BF0E6EF0BF0EA5112000001846F1C
:1017E400010E0001806F845152EC0AF012000001D6
:1017F400846F000E0001806F845152EC0AF01200D5
:10180400968496B408EF0CF00AEF0CF003EF0CF09A
:101814001200968096B011EF0CF013EF0CF00CEF61
:101824000CF01200968496B41AEF0CF01CEF0CF036
:1018340015EF0CF01200968096B023EF0CF025EF14
:101844000CF01EEF0CF012002B6E2B500510296EBD
:101854004E0E1BEC0BF012000001D185D15108098A
:10186400F9EC0BF012000001D195D1510809F9EC03
:101874000BF012000001856F00018551F0EC0BF0B4
:101884001200326E010E2E6E3250D1EC0AF01200AC
:10189400326E000E2E6E3250D1EC0AF01200336E0E
:0A18A400335043EC0CF01200120068
:10E8A6000053797374656D2041757468656E74697B
:10E8B6006361746564207769746820506861736564
:10E8C600206661696C7572652C2073757370656E50
:10E8D60064696E6720616C6C20616374696F6E7326
:10E8E600000000300060009000C000F000200150E1
:10E8F600018001B001E001100240027002A002D0C6
:10E90600020003300360039003C0030000506861F7
:10E916007365206C6F7373206465746563746564D6
:10E926000000000000004C6F67696E20636F64652D
:10E93600206E6F74206368616E67656400416C6C5D
:10E94600205068617365206465746563746564004E
:10E956002B434D54493A2022534D222C78004944EA
:10E966004C45006F6B004472792052756E206465C9
:10E976007465637465642C204D6F746F722C204926
:10E98600727269676174696F6E20616E6420466594
:10E99600727469676174696F6E20737769746368EE
:10E9A6006564206F66662E0D0A4972726967617426
:10E9B600696F6E207363686564756C656420746F37
:10E9C600206E6578742064617920776974682066A2
:10E9D60065727469676174696F6E20666F7220660E
:10E9E60069656C64206E6F2E0000004472792052B7
:10E9F600756E2064657465637465642C204D6F7450
:10EA06006F7220616E642049727269676174696F02
:10EA16006E207377697463686564206F66662E0D71
:10EA26000A49727269676174696F6E2073636865FB
:10EA360064756C656420746F206E657874206461FB
:10EA4600792077697468206665727469676174698C
:10EA56006F6E20666F72206669656C64206E6F2E1D
:10EA66000000004472792052756E206465746563F7
:10EA76007465642C204D6F746F7220616E6420493A
:10EA8600727269676174696F6E20737769746368FF
:10EA96006564206F66662E0D0A4972726967617435
:10EAA600696F6E207363686564756C656420746F46
:10EAB600206E6578742064756520646174652066CF
:10EAC6006F72206669656C64206E6F2E00000044CC
:10EAD60072792052756E2064657465637465642C62
:10EAE600204D6F746F7220616E642049727269677F
:10EAF6006174696F6E207377697463686564206FEB
:10EB060066662E0D0A49727269676174696F6E20B6
:10EB16007363686564756C656420746F206E6578D0
:10EB2600742064617920666F72206669656C642062
:10EB36006E6F2E00000053797374656D20726573D5
:10EB460074617274656420666F7220416C6C20502B
:10EB56006861736520446574656374696F6E2077B8
:10EB660069746820696E636F6D706C6574652049A1
:10EB7600727269676174696F6E20666F722066696A
:10EB8600656C64206E6F2E0053797374656D207208
:10EB9600657374617274656420666F7220506F7756
:10EBA600657220496E746572727570742077697427
:10EBB6006820696E636F6D706C657465204972724A
:10EBC60069676174696F6E20666F72206669656C2D
:10EBD60064206E6F2E0053797374656D20726573B1
:10EBE60074617274656420696E20446961676E6F32
:10EBF60073746963204D6F64652077697468206952
:10EC06006E636F6D706C65746520497272696761B9
:10EC160074696F6E20666F72206669656C64206E1B
:10EC26006F2E0053797374656D207265737461720B
:10EC360074656420666F72204C6F7720506F77651D
:10EC46007220496E207769746820696E636F6D70F3
:10EC56006C6574652049727269676174696F6E20AC
:10EC6600666F72206669656C64206E6F2E0053793C
:10EC76007374656D20726573746172746564206661
:10EC86006F7220537461636B204572726F722077C6
:10EC960069746820696E636F6D706C657465204970
:10ECA600727269676174696F6E20666F7220666939
:10ECB600656C64206E6F2E0053797374656D2072D7
:10ECC600657374617274656420666F72205744546C
:10ECD6002054696D656F7574207769746820696E54
:10ECE600636F6D706C6574652049727269676174D3
:10ECF600696F6E20666F72206669656C64206E6F40
:10ED06002E004665727469676174696F6E2073744C
:10ED16006F707065642077697468206665727469BF
:10ED26006C697A6572206C6576656C2073656E73A6
:10ED36006F72206661696C75726520666F722066F7
:10ED460069656C64206E6F2E004C6F772050686189
:10ED560073652063757272656E742064657465638D
:10ED66007465642C20616374696F6E7320737573A8
:10ED760070656E6465642C20706C656173652072C5
:10ED86006573746172742073797374656D0049726A
:10ED96007269676174696F6E206973206E6F742083
:10EDA6004163746976652E2046657274696761747D
:10EDB600696F6E206E6F7420656E61626C6564208B
:10EDC600666F72206669656C64206E6F2E004D6FEB
:10EDD6006973747572652073656E736F72206973DB
:10EDE600206661696C65642C20497272696761747A
:10EDF600696F6E207374617274656420666F722029
:10EE06006669656C64206E6F2E0053797374656D48
:10EE16002072657374617274656420776974682002
:10EE26007068617365206661696C7572652C207304
:10EE3600757370656E64696E6720616C6C206163C2
:10EE460074696F6E73004665727469676174696F81
:10EE56006E2073746F707065642077697468206CB7
:10EE66006F772066657274696C697A6572206C6565
:10EE760076656C20666F72206669656C64206E6FBD
:10EE86002E00576574206669656C64206465746538
:10EE9600637465642E0D0A49727269676174696FDD
:10EEA6006E206E6F74207374617274656420666F71
:10EEB60072206669656C64206E6F2E0000005379BF
:10EEC6007374656D207265736574206F6363757204
:10EED6007265642C206C6F67696E20636F646520B1
:10EEE600726573657420746F20466163746F7279FE
:10EEF6002073657474696E6700497272696761741C
:10EF0600696F6E20636F6D706C6574656420666FE3
:10EF16007220647565206669656C64730D0A4D6FB1
:10EF2600746F72207377697463686564206F6666B0
:10EF36000000004E65772052544320626174746568
:10EF4600727920666F756E642C20706C65617365CE
:10EF56002073796E632073797374656D2074696D9F
:10EF660065206D616E75616C6C79004E6577205217
:10EF76005443206261747465727920666F756E649D
:10EF86002C2073797374656D2074696D65206973BF
:10EF96002073657420746F206C6F63616C207469D4
:10EFA6006D6500496E636F72726563742076616C7D
:10EFB6007565732E204665727469676174696F6E34
:10EFC600206E6F7420656E61626C656420666F7278
:10EFD600206669656C64206E6F2E004972726967DF
:10EFE6006174696F6E2073746F70706564207769E1
:10EFF60074686F757420726573706F6E73652066C2
:10F00600726F6D206669656C64206E6F2E004972A2
:10F016007269676174696F6E20736B69707065647D
:10F026002077697468206E6F20726573706F6E73D7
:10F03600652066726F6D206669656C64206E6F3A36
:10F0460000596F7520617265206E6F206D6F726555
:10F056002041646D696E206E6F772E204E65772095
:10F0660041646D696E2069732073657420746F0D39
:10F076000A0000005254432042617474657279207C
:10F08600666F756E64206C6F772C20706C6561738B
:10F0960065207265706C616365205254432062611D
:10F0A60074746572790053797374656D2072657333
:10F0B6006574206F636375727265642C2049727281
:10F0C60069676174696F6E2073657474696E672011
:10F0D60064656C6574656400497272696761746918
:10F0E6006F6E206973206163746976652C204D6F9D
:10F0F600746F72206C6F6164206375742D6F666621
:10F10600206E6F742073657400497272696761744A
:10F11600696F6E20636F6E66696775726174696F79
:10F126006E2064697361626C656420666F72206626
:10F1360069656C64206E6F2E005068617365206689
:10F1460061696C7572652064657465637465642CA9
:10F156002073757370656E64696E6720616C6C20D0
:10F16600616374696F6E73004E6F4C6F61642061EA
:10F176006E642046756C6C4C6F6164204D6F746FC5
:10F1860072207468726573686F6C6473207365743B
:10F1960020746F203A20004D6F6973747572652074
:10F1A60073656E736F72206672657175656E6379CD
:10F1B6002076616C756520666F72206669656C6481
:10F1C600206E6F2E0053797374656D2074696D65BA
:10F1D6002073796E63656420746F2063757272653F
:10F1E6006E74206C6F63616C2074696D6500537971
:10F1F6007374656D207265737461727465642066DC
:10F206006F7220416C6C2050686173652044657490
:10F21600656374696F6E004D6F69737475726520EE
:10F2260073656E736F72206973206661696C6564BD
:10F2360020666F72206669656C64206E6F2E0049C9
:10F24600727269676174696F6E206E6F7420636F86
:10F256006E6669677572656420666F722066696599
:10F266006C64206E6F2E0053797374656D20726521
:10F276007374617274656420666F7220506F77656F
:10F286007220496E74657272757074005379737466
:10F29600656D2072657374617274656420696E2091
:10F2A600446961676E6F73746963206D6F6465008E
:10F2B60049727269676174696F6E206669656C640C
:10F2C600206D617070656420776974682076616C62
:10F2D6007665730049727269676174696F6E20633F
:10F2E6006F6E6669677572656420666F72206669FF
:10F2F600656C64206E6F2E004D6F746F726C6F615B
:10F3060064206375742D6F6666207365742073754B
:10F31600636365737366756C6C79004665727469B0
:10F32600676174696F6E2064697361626C656420DD
:10F33600666F72206669656C64206E6F2E00466586
:10F34600727469676174696F6E2073746F7070652B
:10F356006420666F72206669656C64206E6F2E008D
:10F366004665727469676174696F6E207374617241
:10F3760074656420666F72206669656C64206E6FC2
:10F386002E004665727469676174696F6E20656EDA
:10F3960061626C656420666F72206669656C6420C4
:10F3A6006E6F2E0053797374656D20726573746188
:10F3B6007274656420666F7220737461636B206576
:10F3C60072726F720053797374656D20726573740F
:10F3D600617274656420666F7220574454207469A4
:10F3E6006D656F75740049727269676174696F6ED5
:10F3F6002073746F7070656420666F72206669652D
:10F406006C64206E6F2E0049727269676174696F51
:10F416006E207374617274656420666F722066690B
:10F42600656C64206E6F2E005761746572204669A4
:10F436006C74726174696F6E206973206E6F7420CC
:10F44600656E61626C6564004C6F67696E20636F00
:10F456006465206368616E676564207375636365C0
:10F46600737366756C6C790053797374656D20726D
:10F47600657374617274656420666F72204C6F7771
:10F4860020506F7765720057617465722066696CEB
:10F4960074726174696F6E20646561637469766104
:10F4A60074656400496E636F7272656374206C6F75
:10F4B60063616C2074696D6520666F756E640057B4
:10F4C600617465722046696C74726174696F6E202E
:10F4D60053657175656E63653A0057617465722090
:10F4E60066696C74726174696F6E206163746976A3
:10F4F600617465640057726F6E67206C6F67696E22
:10F5060020636F646520666F756E640041646D6983
:10F516006E20736574207375636365737366756CAB
:10F526006C790041757468656E7469636174696F9E
:10F536006E206661696C656400546573742044616D
:10F54600746120496E6A65637465640053797374E7
:10F55600656D20436F6E6E65637465640046616316
:10F56600746F7279204B6579203A20004375727268
:10F57600656E742054696D653A2000497272696738
:10F586006174696F6E204E6F3A003132333435360E
:10F5960037383931320047455446524551004558AF
:10F5A600545241435400444143544956450044494A
:10F5B6005341424C450053454E534F52004D415323
:10F5C60054455200494E4A45435400414354495616
:10F5D6004500454E41424C4500414C495645004583
:10F5E60052524F5200534C415645004745544354DE
:10F5F60000464441544100464545440054494D4562
:10F6060000484F4C4400484F4F4B0041434B004F7E
:10F616004646002B393100534354004D41500053A8
:10F626004554004F4E0043540041550046657274E0
:10F6360069676174696F6E20656E61626C656420CE
:10F64600776974682064656C61793A0046657274FE
:10F6560069676174696F6E206E6F7420636F6E6682
:10F666006967757265640D0A00466572746967613B
:10F6760074696F6E2044697361626C65643A005305
:10F68600797374656D205265736574204F63637575
:10F69600727265640053797374656D205265737474
:10F6A6006172746564205769746800537573706578
:10F6B6006E64656420416C6C20416374696F6E737F
:10F6C6000020202020202020202020202020202054
:10F6D6002020202020002A2A2A466163746F72792E
:10F6E6002052657365742A2A2A2A00537973746531
:10F6F6006D20436F6D706C657465204461746100A4
:10F7060043757272656E7420496E2046756C6C2066
:10F716004C6F616400497272692E446174612043C2
:10F726006F6E6669677572656400466572742E440D
:10F7360061746120436F6E6669677572656400491E
:10F746007272692E204E6F7420436F6E66696775FC
:10F7560072656400497272692E206E6F7420636F41
:10F766006E666967757265640053657175656E636B
:10F7760065204465616374697661746564004E65ED
:10F7860077205254434261747465727920466F75CE
:10F796006E6400496E636F7272656374204C6F63AA
:10F7A600616C2054696D650057697468204C6F77E9
:10F7B60020466572742E204C6576656C004E657821
:10F7C60074205363686564756C6520536574204FB7
:10F7D6006E00546F2044656C6574652049727269C9
:10F7E600676174696F6E00496E204E6F204C6F61C1
:10F7F6006420436F6E646974696F6E005379737425
:10F80600656D20697320426F6F74696E672055704D
:10F816000053797374656D205265737461727465F3
:10F826006420466F720053796E6320537973746552
:10F836006D204D616E75616C6C79004972726967F5
:10F846006174696F6E20436F6D706C6574656400DA
:10F85600497272692E204461746120446973616241
:10F866006C656400466572742E20446174612044A0
:10F87600697361626C656400466572746967617478
:10F88600696F6E2053746F707065640050686173A1
:10F8960065204C6F737320446574656374656400FA
:10F8A6004665727469676174696F6E20537461721C
:10F8B6007465640046696C74726174696F6E205376
:10F8C600657175656E636500576974682053656E6A
:10F8D600736F72204661696C757265004368656373
:10F8E6006B696E672047534D205369676E616C00E4
:10F8F600546F20436865636B2047534D20536967F7
:10F906006E616C0042686F6F6D69204A616C73614D
:10F916006E64686172616E00576972654C657373D7
:10F926002049727269676174696F6E004C6F616419
:10F93600204375742D4F66662056616C756573009D
:10F946005265706C61636520525443206261747421
:10F956006572790041542B434E4D493D312C312C73
:10F96600302C302C300D0A004C6F6164696E6720B4
:10F9760053797374656D20446174610045786974C8
:10F98600696E6720446961676E6F737469630043CB
:10F99600757272656E7420496E204E6F204C6F61D1
:10F9A600640053797374656D2054696D65205379CD
:10F9B6006E6365640049727269676174696F6E206F
:10F9C600536B697070656400497272696761746926
:10F9D6006F6E2053746F7070656400536571756542
:10F9E6006E6365204163746976617465640057656A
:10F9F60074204669656C6420446574656374656447
:10FA06000049727269676174696F6E20537461721E
:10FA1600746564004D6F746F72204C6F616420438F
:10FA260075742D4F66660049727269676174696FF5
:10FA36006E2052756E6E696E670050726573732024
:10FA4600526573657420427574746F6E00546F202E
:10FA560043616C696272617465204D6F746F7200E8
:10FA660053757370656E64696E6720416374696F60
:10FA76006E7300466163746F727920436F6465200C
:10FA86005265736574004E6F20446961676E6F73CB
:10FA9600746963204D656E75004D6F746F722053E7
:10FAA60077697463686564204F4646005254432064
:10FAB60042617474657279206973206C6F770049AE
:10FAC6007272692E2052657363686564756C65642D
:10FAD60000497272692E204E6F74205374617274DD
:10FAE60065640053797374656D2052756E6E696E28
:10FAF6006720496E00557365722052656769737495
:10FB0600726174696F6E0043616C696272617469D7
:10FB16006E67204D6F746F720046756C6C204C6F6B
:10FB260061642043757272656E74004C6F77205065
:10FB3600686173652043757272656E74002347456C
:10FB46005453454E534F523031534C415645005352
:10FB5600657061726174696F6E2054696D653A20D3
:10FB66000046657274692E20506F7374706F6E65EF
:10FB760064004472792052756E20646574656374FE
:10FB860065640057697468204E6F20526573706F04
:10FB96006E736500497272692E2069732052756E04
:10FBA6006E696E67004E6574776F726B2053747260
:10FBB600656E67746800546F2044656C65746520D3
:10FBC60053797374656D0057617465722046696C6C
:10FBD60074726174696F6E0057616974696E67202B
:10FBE600466F72205573657200466163746F727951
:10FBF6002053657474696E677300497272692E20AA
:10FC060044617461205265736574005365742053B2
:10FC160075636365737366756C6C79004972726996
:10FC2600676174696F6E204461746100497272691C
:10FC36002E20506F7374706F6E6564004661637436
:10FC46006F72792050696E436F646500446961671D
:10FC56006E6F73746963204D6F646500466F756ED1
:10FC660064204C6F7720506861736500506861733B
:10FC76006520446574656374696F6E004D6F6973C2
:10FC8600747572652053656E736F7200506F776579
:10FC96007220496E746572727570740041542B43FC
:10FCA6005343533D2247534D220D0A00466F72209F
:10FCB6004669656C64204E6F3A2000466574636839
:10FCC600696E6720497272692E0055736572204C01
:10FCD6006F6767656420494E0054696D65722054EC
:10FCE600696D65204F555400496E636F7272656386
:10FCF600742044617461004973204E6F7420456E10
:10FD060061626C656400436F6E74726F6C20537928
:10FD16007374656D005265737461727420537973E0
:10FD260074656D0041757468656E746963617469A4
:10FD36006F6E00546F2044656C657465205573655D
:10FD460072004665746368696E67204D6F746F72E2
:10FD56000041542B53434C415353303D310D0A005F
:10FD6600436F6E6E656374696E6720746F2000530F
:10FD7600657474696E672053797374656D00466F98
:10FD860072204669656C64204E6F2E004375727250
:10FD9600656E742054696D653A00466F7220466937
:10FDA600656C64204E6F3A00466F756E64204C6F2A
:10FDB6007720525443005068617365204661696C30
:10FDC600757265004669656C64204D617070696E78
:10FDD600670041542B434D47443D312C340D0A00F6
:10FDE600546F204C6F63616C2054696D65004661E9
:10FDF600696C6564205573657200537461636B208A
:10FE06004572726F720041542B4346554E3D300D7C
:10FE16000A0041542B434D47463D310D0A004154DB
:10FE26002B4346554E3D310D0A0041542B434C544D
:10FE3600533D310D0A0020497465726174696F6E15
:10FE46003A0047534D204E6574776F726B004154EC
:10FE56002B43434C4B3F0D0A00556479616D692075
:10FE66004C4C50004C6F67696E20436F64650052BE
:10FE7600657374696E6720546F0041542B434C546C
:10FE8600533F0D0A000D0A44656C6179313A200032
:10FE96000D0A4F4E54696D653A200020447565443D
:10FEA6006174653A20004973204661696C65640097
:10FEB6004C6F7720506F7765720046726571756575
:10FEC6006E63790041542B434D47533D22005665DE
:10FED600727920476F6F6400457863656C6C656E58
:10FEE600740041542B434D47523D0053656C656386
:10FEF600746564004665746368696E670046656389
:10FF06007468696E670044656C6574696E67004164
:10FF1600542B4353510D0A0044656C6179323A20E3
:10FF26000044656C6179333A2000204F4646707272
:10FF3600643A004D6F646572617465004572726F54
:10FF46007220496E0056657279204C6F77004368BF
:10FF5600616E6765640053657474696E6700447208
:10FF6600792052756E004E6F74205365740042619D
:10FF7600747465727900204F4E7072643A00415471
:10FF860045300D0A00415426570D0A00284D696E6A
:10FF9600292000446174653A0057726F6E6700202D
:10FFA600616E642000284D696E2900205765743AF9
:10FFB60000204472793A0054494D4500234F464685
:10FFC600002069732000506F6F72003130302500B9
:10FFD6002564256300234F4E004C4F5700393625C4
:10FFE600003937250039382500393925004E4F00AC
:09FFF600256400312500240000FF
:020000040001F9
:10000000000E0401D56F000ED66F000EDA6F000EE1
:10001000D96F1E0E01013D6F97C185F098C186F022
:10002000080EBDEC06F0100E0001856F010EDBEC32
:1000300005F0080E3CEC0CF0300E0101486523EF92
:1000400080F025EF80F0BDEF97F03A0E48612BEF7E
:1000500080F02DEF80F0BDEF97F0000E0001D46F1F
:10006000000EE56FC9807AEF80F0E80E7A6FFE0E21
:100070007B6F91EC06F0480E00017A6F010E7B6FEA
:10008000010E7C6FA0EC08F0AF0E00017A6FFC0E41
:100090007B6F91EC06F0290E0301FA6F960EF96F53
:1000A0007F0EE82EFED7F92FFCD7FA2FFAD70001E2
:1000B000D451D8A45EEF80F060EF80F07AEF80F04A
:1000C000CB0E0301FA6FEC0EF96F840EE82EFED70B
:1000D000F92FFCD7FA2FFAD700F0CB0E0301FA6FF5
:1000E000EC0EF96F840EE82EFED7F92FFCD7FA2F0D
:1000F000FAD700F00001D451D8B481EF80F083EF3B
:1001000080F035EF80F00E013885150E0001796F13
:10011000030E7A6F190E7B6FF60E7C6F000E7E6FEA
:10012000030E7D6F84ECF3F0000179517A11D8A4AD
:100130009CEF80F09EEF80F0ACEF97F0480E796F67
:10014000010E7A6F180E7B6F030E7C6F000E7E6FB0
:100150000A0E7D6FA2ECFFF0D7EC09F0000E000153
:10016000796F040E7A6F3F0E7B6F030E7C6FF4EC99
:10017000FDF0E5ECFFF0000E0001796F040E7A6FE0
:100180000AEC08F00009D8B4C8EF80F0CAEF80F09C
:10019000D0EF80F0F0EC09F0F1ECD9F0DFEF80F077
:1001A000A30E0301FA6F570EF96F020EE82EFED769
:1001B000F92FFCD7FA2FFAD700F0C1EF97F01A0EFB
:1001C0000001796F000E7A6F480E7B6F010E7C6F15
:1001D000000E7E6F0A0E7D6F84ECF3F00001795102
:1001E0007A11D8A4F6EF80F0F8EF80F011EF96F0D6
:1001F000480E796F010E7A6F620E7B6F010E7C6F75
:10020000000E7E6F0A0E7D6FA2ECFFF0180E00014B
:10021000796F020E7A6F0C0E7B6FF60E7C6F000EFC
:100220007E6F040E7D6F84ECF3F0000179517A113A
:10023000D8A41DEF81F01FEF81F04BEF81F0020E8B
:100240002CEC0BF0030E2CEC0BF0040E2CEC0BF052
:10025000D00E0001906FFC0E916F020E926F85EC34
:10026000F6F0C60E0001906FFB0E916F030E926FB9
:1002700085ECF6F0000E0001E56F520E916FF50E61
:10028000926F1A0E936F000E946F000E956FC2EC72
:1002900097F0C1EF97F0180E796F020E7A6F2F0E5C
:1002A0007B6FF60E7C6F000E7E6F020E7D6F84EC0E
:1002B000F3F0000179517A11D8A461EF81F063EF76
:1002C00081F0E4EF81F01B0E796F020E7A6F7C0EE5
:1002D0007B6F010E7C6F000E7E6F060E7D6F84ECCF
:1002E000F3F0000179517A11D8A479EF81F07BEF16
:1002F00081F0B8EF81F0020E2CEC0BF0030E2CEC29
:100300000BF0040E2CEC0BF06A0E0001906FFE0E49
:10031000916F020E926F85ECF6F0540E0001906F13
:10032000FF0E916F030E926F85ECF6F07C0E0001CC
:10033000796F010E7A6F220E7B6F020E7C6F000EBA
:100340007E6F060E7D6FA2ECFFF0CDECFEF0000E8E
:100350000001E56F4E0E916FF40E926F1A0E936FBF
:10036000000E946F000E956FC2EC97F0C1EF97F0FE
:10037000020E2CEC0BF0030E2CEC0BF0040E2CEC0C
:100380000BF09F0E0001906FFF0E916F020E926FA7
:1003900085ECF6F06A0E0001906FFE0E916F030E71
:1003A000926F85ECF6F0000E0001E56FFB0E916F89
:1003B000F40E926F1A0E936F000E946F000E956FED
:1003C000C2EC97F0C1EF97F0180E796F020E7A6FBA
:1003D000250E7B6FF60E7C6F000E7E6F030E7D6F19
:1003E00084ECF3F0000179517A11D8A4FAEF81F08E
:1003F000FCEF81F00BEF85F0030EDCECD7F0000191
:10040000E46F000E0401DA6F000ED96F010ED86F91
:10041000060E0001E56F180E0001E525D96EDA6AB7
:10042000020EDA22DF5022EC0AF00009D8B41BEFEA
:1004300082F01DEF82F079EF83F0190E0001E525BF
:10044000D96EDA6A020EDA22200EDE18D8A42BEF5B
:1004500082F02DEF82F04FEF82F0180EE525D96E75
:10046000DA6A020EDA22180EE525E16EE26A020E61
:10047000E222E750D00FDF6E180E0001E525D96E9D
:10048000DA6A020EDA22DF500301F96FF951040132
:10049000D925D96F000EDA21DA6FAEEF83F0180E8E
:1004A000E525D96EDA6A020EDA22180EE525E16E2C
:1004B000E26A020EE222E750D00FDF6E180EE52549
:1004C000D96EDA6A020EDA22DF500A0D180EE5251F
:1004D000D96EDA6A020EDA22F3CFDFFFD9C479F0DF
:1004E000DAC47AF0000E7C6F0A0E7B6FA9EC0AF07A
:1004F00079C0D9F47AC0DAF43CEF82F00001E4511B
:100500002D0DE50EF324D96E040EF420DA6ED9C455
:10051000DEFFDAC4DDFF000E0401DA6F000ED96FD2
:10052000ACEF83F00001E4512D0DFF0EF324D96EE2
:10053000040EF420DA6ED9C4DFFF8BEF82F00001E5
:10054000E4512D0D000EF324D96E050EF420DA6E61
:10055000D9C4DFFF8BEF82F00001E4512D0D010EB5
:10056000F324D96E050EF420DA6ED9C4DFFF8BEFC9
:1005700082F00001E4512D0DE10EF324D96E040E3A
:10058000F420DA6ED9C4DEFFDAC4DDFF8BEF82F02F
:100590000001E4512D0DE30EF324D96E040EF42076
:1005A000DA6ED9C4DEFFDAC4DDFF8BEF82F0000122
:1005B000E4512D0D060EF324D96E050EF420DA6EEB
:1005C000D9C4DFFF8BEF82F00001E4512D0D080E3E
:1005D000F324D96E050EF420DA6ED9C4DFFFE4519E
:1005E0002D0D090EF324D96E050EF420DA6ED9C450
:1005F000DFFF8BEF82F00401D951F7ECCEF0000E53
:100600000401DA6F000ED96F0001E4512D0D020EC6
:10061000F324D96E050EF420DA6ECFC0DFFFE4516B
:100620002D0D030EF324D96E050EF420DA6EDAC018
:10063000DFFFE4512D0D040EF324D96E050EF420D6
:10064000DA6EDBC0DFFFE4512D0D0A0EF324D96E04
:10065000050EF420DA6E000EDF6EE4512D0D0B0E48
:10066000F324D96E050EF420DA6E010EDF6EE4512C
:100670002D0DE70EF324D96E040EF420DA6E000E71
:10068000DE6E000EDD6EE4512D0DE90EF324D96E01
:10069000040EF420DA6E000EDE6E000EDD6EE45104
:1006A0002D0D050EF324D96E050EF420DA6E000E22
:1006B000DF6EE4512D0D0C0EF324D96E050EF420DF
:1006C000DA6E000EDF6EE4512D0D070EF324D96EA5
:1006D000050EF420DA6E000EDF6EE4512D0D0D0EC6
:1006E000F324D96E050EF420DA6E000EDF6EACEF47
:1006F00083F00401D8510301F96FFA6BFA51000A33
:10070000D8B485EF83F0ACEF83F0F951010AD8B487
:100710007EEF82F0030AD8B492EF82F0010AD8B4D7
:100720009FEF82F0070AD8B4ACEF82F0010AD8B488
:10073000B9EF82F0030AD8B4C8EF82F0010AD8B446
:10074000D7EF82F00F0AD8B4E4EF82F0010AD8B4F0
:10075000FBEF82F0ACEF83F00401D82B0001E52B16
:10076000090E0401D865B7EF83F0B9EF83F00BEF02
:1007700082F0090E0301FA6F1E0EF96FE40EE82EE7
:10078000FED7F92FFCD7FA2FFAD700F00001E45179
:10079000020DE70EF324F66EE80EF420F76EF86A09
:1007A000000EF8220900F5CF7CF00A00F5CF7DF0AD
:1007B000E4512D0DE10EF3247E6F040EF4207F6FC3
:1007C0009FECE4F0090E0301FA6F1E0EF96FE40EC0
:1007D000E82EFED7F92FFCD7FA2FFAD700F0000148
:1007E000E451020DE70EF324F66EE80EF420F76EE6
:1007F000F86A000EF8220900F5CF7CF00A00F5CF68
:100800007DF0E4512D0DE10EF3247E6F040EF420F3
:100810007F6FBEECF9F0090E0301FA6F1E0EF96F3F
:10082000E40EE82EFED7F92FFCD7FA2FFAD700F006
:100830000001E451020DE70EF324F66EE80EF420F9
:10084000F76EF86A000EF8220900F5CF7CF00A0076
:10085000F5CF7DF0E4512D0DE10EF3247E6F040EF3
:10086000F4207F6F12EC07F0090E0301FA6F1E0EE1
:10087000F96FE40EE82EFED7F92FFCD7FA2FFAD73E
:1008800000F00001E451020DE70EF324F66EE80ECD
:10089000F420F76EF86A000EF8220900F5CF7CF01C
:1008A0000A00F5CF7DF0E4512D0DE10EF3247E6FAB
:1008B000040EF4207F6F3CEC07F0090E0301FA6F81
:1008C0001E0EF96FE40EE82EFED7F92FFCD7FA2F93
:1008D000FAD700F00001E451020DE70EF324F66EA2
:1008E000E80EF420F76EF86A000EF8220900F5CF42
:1008F0007CF00A00F5CF7DF0E4512D0DE10EF324DC
:100900007E6F040EF4207F6FE8EC06F0090E030101
:10091000FA6F1E0EF96FE40EE82EFED7F92FFCD702
:10092000FA2FFAD700F00001E451020DE70EF3248C
:10093000F66EE80EF420F76EF86A000EF822090051
:10094000F5CF7CF00A00F5CF7DF0E4512D0DE10EDE
:10095000F3247E6F040EF4207F6F3AECC2F0090E90
:100960000301FA6F1E0EF96FE40EE82EFED7F92F81
:10097000FCD7FA2FFAD700F0000E0001E56F020E47
:100980002CEC0BF0030E2CEC0BF0040E2CEC0BF00B
:100990001B0E0001906FF70E916F020E926F85ECA7
:1009A000F6F0A00E0001906FFD0E916F030E926F96
:1009B00085ECF6F0110E0001856F030EDBEC05F0FF
:1009C000480E0301F16F010EF26FF60EF36FFF0E8A
:1009D000F46F010E0001E4250301F56FF66B000EC4
:1009E000F62337EC06F0480E0001856F010E866F86
:1009F000020E876FBDEC09F0DA0E0001916FF20E66
:100A0000926F1A0E936F000E946F020E956FC2ECE8
:100A100097F0C1EF97F0180E796F020E7A6F070EFC
:100A20007B6FF60E7C6F000E7E6F040E7D6F84EC84
:100A3000F3F0000179517A11D8A421EF85F023EF6A
:100A400085F00CEF86F0040EDCECD7F00001E46FCB
:100A5000E4512D0D0A0EF324D96E050EF420DA6E42
:100A6000DE04D8A436EF85F038EF85F03AEF85F054
:100A7000010E0E6EE4512D0D0B0EF324D96E050EF2
:100A8000F420DA6E000EDF6EE4512D0D0C0EF3240F
:100A9000D96E050EF420DA6EDE04D8A452EF85F08C
:100AA00054EF85F094EF85F0E4512D0D0C0EF324F6
:100AB000D96E050EF420DA6E000EDF6E090E03010A
:100AC000FA6F1E0EF96FE40EE82EFED7F92FFCD751
:100AD000FA2FFAD700F00001E451020DE70EF324DB
:100AE000F66EE80EF420F76EF86A000EF8220900A0
:100AF000F5CF7CF00A00F5CF7DF0E4512D0DE10E2D
:100B0000F3247E6F040EF4207F6F3AECC2F0090EDE
:100B10000301FA6F1E0EF96FE40EE82EFED7F92FCF
:100B2000FCD7FA2FFAD700F00001E451020DE70ECE
:100B3000F324F66EE80EF420F76EF86A000EF82241
:100B40000900F5CF7CF00A00F5CF7DF0E4512D0DC2
:100B5000E10EF3247E6F040EF4207F6FE8EC06F0C4
:100B6000090E0301FA6F1E0EF96FE40EE82EFED790
:100B7000F92FFCD7FA2FFAD700F0000E0001E56F2D
:100B8000020E2CEC0BF0030E2CEC0BF0040E2CECF4
:100B90000BF0560E0001906FF80E916F020E926FDF
:100BA00085ECF6F0A00E0001906FFD0E916F030E24
:100BB000926F85ECF6F0110E0001856F030EDBECF1
:100BC00005F0480E0301F16F010EF26FF60EF36FA0
:100BD000FF0EF46F010E0001E4250301F56FF66BC3
:100BE000000EF62337EC06F0480E0001856F010E6B
:100BF000866F020E876FBDEC09F00F0E0001916F3A
:100C0000F10E926F1A0E936F000E946F020E956F95
:100C1000C2EC97F0C1EF97F0180E796F020E7A6F61
:100C2000D80E7B6FF50E7C6F000E7E6F060E7D6F0B
:100C300084ECF3F0000179517A11D8A422EF86F008
:100C400024EF86F08EEF89F0000E0401DA6F000EBB
:100C5000D96F000ED86F060EDCECD7F00001E46F00
:100C6000E4512D0D0B0EF324D96E050EF420DA6E2F
:100C7000DF50D8A43EEF86F040EF86F097EF86F085
:100C8000000EE56F020E2CEC0BF0030E2CEC0BF0BB
:100C9000040E2CEC0BF0450E0001906FF70E916FD7
:100CA000020E926F85ECF6F06F0E0001906FF60E5B
:100CB000916F030E926F85ECF6F0A00E0001906F1D
:100CC000FD0E916F040E926F85ECF6F0110E00018F
:100CD000856F040EDBEC05F0480E0301F16F010E89
:100CE000F26FF60EF36FFF0EF46F010E0001E425B4
:100CF0000301F56FF66B000EF62337EC06F0480E95
:100D00000001856F010E866F020E876FBDEC09F042
:100D1000940E0001916FED0E926F1A0E936F000EFC
:100D2000946F020E956FC2EC97F0C1EF97F0090E29
:100D3000E56F180E0001E525D96EDA6A020EDA2297
:100D4000DF5022EC0AF00009D8B4A9EF86F0ABEF2F
:100D500086F00CEF87F0190E0001E525D96EDA6AEE
:100D6000020EDA22200EDE18D8A4B9EF86F0BBEF0F
:100D700086F0DDEF86F0180EE525D96EDA6A020EF0
:100D8000DA22180EE525E16EE26A020EE222E75051
:100D9000D00FDF6E180E0001E525D96EDA6A020E5B
:100DA000DA22DF500301F96FF9510401D925D96F17
:100DB000000EDA21DA6FEDEF88F0180EE525D96E16
:100DC000DA6A020EDA22180EE525E16EE26A020EF8
:100DD000E222E750D00FDF6E180EE525D96EDA6AF1
:100DE000020EDA22DF500A0D180EE525D96EDA6AF6
:100DF000020EDA22F3CFDFFFD9C479F0DAC47AF039
:100E0000000E7C6F0A0E7B6FA9EC0AF079C0D9F452
:100E10007AC0DAF4CAEF86F00401D82BA3EF88F089
:100E20000001E4512D0DE70EF324D96E040EF420D9
:100E3000DA6ED9C4DEFFDAC4DDFF000E0401DA6F1A
:100E4000000ED96FEDEF88F00001E4512D0DE90E91
:100E5000F324D96E040EF420DA6ED9C4DEFFDAC4AE
:100E6000DDFF1DEF87F00001E4512D0D050EF32489
:100E7000D96E050EF420DA6ED9C4DFFF1DEF87F0BE
:100E80000001E4512D0DEB0EF324D96E040EF42075
:100E9000DA6ED9C4DEFFDAC4DDFF1DEF87F0000192
:100EA000E4512D0DF30EF324D96E040EF420DA6E06
:100EB000D9C4DEFFDAC4DDFF1DEF87F00001E45185
:100EC0002D0DFB0EF324D96E040EF420DA6ED9C476
:100ED000DFFF1DEF87F00001E4512D0DED0EF3242F
:100EE000D96E040EF420DA6ED9C4DEFFDAC4DDFF59
:100EF0001DEF87F00001E4512D0DF50EF324D96E9E
:100F0000040EF420DA6ED9C4DEFFDAC4DDFF1DEF73
:100F100087F00001E4512D0DFC0EF324D96E040E70
:100F2000F420DA6ED9C4DFFF1DEF87F00001E45131
:100F30002D0DEF0EF324D96E040EF420DA6ED9C411
:100F4000DEFFDAC4DDFF1DEF87F00001E4512D0D57
:100F5000F70EF324D96E040EF420DA6ED9C4DEFF46
:100F6000DAC4DDFF1DEF87F00001E4512D0DFD0E09
:100F7000F324D96E040EF420DA6ED9C4DFFF1DEF1E
:100F800087F00001E4512D0DF10EF324D96E040E0B
:100F9000F420DA6ED9C4DEFFDAC4DDFF1DEF87F07E
:100FA0000001E4512D0DF90EF324D96E040EF42046
:100FB000DA6ED9C4DEFFDAC4DDFF1DEF87F0000171
:100FC000E4512D0DFE0EF324D96E040EF420DA6EDA
:100FD000D9C4DFFFE4512D0D070EF324D96E050EA1
:100FE000F420DA6E000EDF6EE4512D0D0D0EF324A9
:100FF000D96E050EF420DA6E000EDF6E000E0401CD
:10100000DA6F000ED96F0001E4512D0DE50EF324C7
:10101000D96E040EF420DA6EE4512D0DE90EF3249E
:10102000E16E040EF420E26EE6CFFBF3E5CFFCF3B5
:10103000E4512D0DE70EF324E16E040EF420E26E70
:10104000E6CFFDF3E5CFFEF30301FB51FD27FC5195
:10105000FE23DE50FD5DDE50FE59D8A032EF88F051
:1010600034EF88F096EF88F00001E4512D0D0C0E5E
:10107000F324D96E050EF420DA6E000EDF6E000E3A
:10108000E56F020E2CEC0BF0030E2CEC0BF0040EB3
:101090002CEC0BF0EE0E0001906FFC0E916F020E27
:1010A000926F85ECF6F06F0E0001906FF60E916F67
:1010B000030E926F85ECF6F0A00E0001906FFD0E0E
:1010C000916F040E926F85ECF6F0110E0001856FA2
:1010D000040EDBEC05F0480E0301F16F010EF26F18
:1010E000F60EF36FFF0EF46F010E0001E42503010D
:1010F000F56FF66B000EF62337EC06F0480E000194
:10110000856F010E866F020E876FBDEC09F0A90E88
:101110000001916FEF0E926F1A0E936F000E946F95
:10112000020E956FC2EC97F0EDEF88F00001E451EC
:101130002D0D0C0EF324D96E050EF420DA6E010E7F
:10114000DF6EEDEF88F0D8510301F96FFA6BFA51B9
:10115000000AD8B4AEEF88F0EDEF88F0F951010A3B
:10116000D8B410EF87F0030AD8B424EF87F0010A4F
:10117000D8B433EF87F0070AD8B440EF87F0010AFC
:10118000D8B44FEF87F0030AD8B45EEF87F0010AB6
:10119000D8B46BEF87F00F0AD8B47AEF87F0010A62
:1011A000D8B489EF87F0030AD8B496EF87F0010A24
:1011B000D8B4A5EF87F0070AD8B4B4EF87F0010AD6
:1011C000D8B4C1EF87F0030AD8B4D0EF87F0010A92
:1011D000D8B4DFEF87F0EDEF88F00001E52B0E0EBD
:1011E0000401D865F6EF88F0F8EF88F099EF86F003
:1011F0000001E4512D0D0C0EF324D96E050EF420E0
:10120000DA6EDF50D8B407EF89F009EF89F0C1EF4B
:1012100097F0090E0301FA6F1E0EF96FE40EE82E27
:10122000FED7F92FFCD7FA2FFAD700F00001E451CE
:10123000020DE70EF324F66EE80EF420F76EF86A5E
:10124000000EF8220900F5CF7CF00A00F5CF7DF002
:10125000E4512D0DE10EF3247E6F040EF4207F6F18
:101260003AECC2F0090E0301FA6F1E0EF96FE40E9C
:10127000E82EFED7F92FFCD7FA2FFAD700F0000E90
:101280000001E56F020E2CEC0BF0030E2CEC0BF0C2
:10129000040E2CEC0BF0300E0001906FF70E916FE6
:1012A000020E926F85ECF6F0A00E0001906FFD0E1D
:1012B000916F030E926F85ECF6F0110E0001856FB1
:1012C000030EDBEC05F0480E0301F16F010EF26F27
:1012D000F60EF36FFF0EF46F010E0001E42503011B
:1012E000F56FF66B000EF62337EC06F0480E0001A2
:1012F000856F010E866F020E876FBDEC09F0880EB8
:101300000001916FF30E926F1A0E936F000E946F9F
:10131000020E956FC2EC97F0C1EF97F0180E796F3F
:10132000020E7A6FB40E7B6FF50E7C6F000E7E6F2F
:10133000070E7D6F84ECF3F0000179517A11D8A487
:10134000A4EF89F0A6EF89F06DEF8AF0070EDCECD0
:10135000D7F00001E46FE4512D0D0A0EF324D96E8D
:10136000050EF420DA6EDE04D8A4B9EF89F0BBEFE5
:1013700089F0CEEF89F0E4512D0D070EF324D96EDC
:10138000050EF420DA6E030EDE18D8B4CAEF89F029
:10139000CCEF89F0CEEF89F0010E0E6EE4512D0DE9
:1013A0000C0EF324D96E050EF420DA6EDE04D8A4F8
:1013B000DCEF89F0DEEF89F0C1EF97F0E4512D0DFD
:1013C0000C0EF324D96E050EF420DA6E000EDF6EDB
:1013D000090E0301FA6F1E0EF96FE40EE82EFED718
:1013E000F92FFCD7FA2FFAD700F00001E451020DD3
:1013F000E70EF324F66EE80EF420F76EF86A000E9E
:10140000F8220900F5CF7CF00A00F5CF7DF0E45119
:101410002D0DE10EF3247E6F040EF4207F6F3AEC65
:10142000C2F0090E0301FA6F1E0EF96FE40EE82EEA
:10143000FED7F92FFCD7FA2FFAD700F0000E0001E3
:10144000E56F020E2CEC0BF0030E2CEC0BF0040EEF
:101450002CEC0BF06A0E0001906FF80E916F020EEB
:10146000926F85ECF6F0A00E0001906FFD0E916F6B
:10147000030E926F85ECF6F0110E0001856F030EDE
:10148000DBEC05F0480E0301F16F010EF26FF60E72
:10149000F36FFF0EF46F010E0001E4250301F56FF9
:1014A000F66B000EF62337EC06F0480E0001856F50
:1014B000010E866F020E876FBDEC09F0210E000150
:1014C000916FF30E926F1A0E936F000E946F020ECF
:1014D000956FC2EC97F0C1EF97F0180E796F020E7E
:1014E0007A6FD10E7B6FF50E7C6F000E7E6F060E4D
:1014F0007D6F84ECF3F0000179517A11D8A483EF69
:101500008AF085EF8AF09DEF8BF0000E0401DA6F10
:10151000000ED96F000ED86F060E0001E56F180E91
:101520000001E525D96EDA6A020EDA22DF5022ECDC
:101530000AF00009D8B49FEF8AF0A1EF8AF002EF19
:101540008BF0190E0001E525D96EDA6A020EDA2257
:10155000200EDE18D8A4AFEF8AF0B1EF8AF0D3EFF7
:101560008AF0180EE525D96EDA6A020EDA22180E14
:10157000E525E16EE26A020EE222E750D00FDF6E4F
:10158000180E0001E525D96EDA6A020EDA22DF5064
:101590000301F96FF9510401D925D96F000EDA2141
:1015A000DA6F49EF8BF0180EE525D96EDA6A020E74
:1015B000DA22180EE525E16EE26A020EE222E75019
:1015C000D00FDF6E180EE525D96EDA6A020EDA2228
:1015D000DF500A0D180EE525D96EDA6A020EDA22FE
:1015E000F3CFDFFFD9C479F0DAC47AF0000E7C6F54
:1015F0000A0E7B6FA9EC0AF079C0D9F47AC0DAF44C
:10160000C0EF8AF00401D82B27EF8BF0D9C414F077
:10161000000E0401DA6F000ED96F49EF8BF0D9C4C8
:10162000D9F008EF8BF0D9C413F008EF8BF0D9C4D0
:10163000D8F008EF8BF0D9C403F0046A000E04015F
:10164000DA6F000ED96F010E0B6E49EF8BF0D85197
:101650000301F96FFA6BFA51000AD8B432EF8BF03C
:1016600049EF8BF0F951010AD8B406EF8BF0030A69
:10167000D8B40FEF8BF0010AD8B413EF8BF0070A40
:10168000D8B417EF8BF0010AD8B41BEF8BF049EFF9
:101690008BF00001E52B040E0401D86552EF8BF0AE
:1016A00054EF8BF08FEF8AF0090E0301FA6F1E0ED4
:1016B000F96FE40EE82EFED7F92FFCD7FA2FFAD7F0
:1016C00000F05DECE9F0090E0301FA6F1E0EF96FF0
:1016D000E40EE82EFED7F92FFCD7FA2FFAD700F048
:1016E000000E0001E56F020E2CEC0BF0030E2CEC4B
:1016F0000BF0040E2CEC0BF0CD0E0001906FFB0EE6
:10170000916F020E926F85ECF6F0E10E0001906F82
:10171000F90E916F030E926F85ECF6F0E00E00016A
:10172000916FF40E926F1A0E936F000E946F000E6D
:10173000956FC2EC97F0C1EF97F0180E796F020E1B
:101740007A6FAC0E7B6FF50E7C6F000E7E6F070E0E
:101750007D6F84ECF3F0000179517A11D8A4B3EFD6
:101760008BF0B5EF8BF000EF8CF0000E0B6E090ED6
:101770000301FA6F1E0EF96FE40EE82EFED7F92F63
:10178000FCD7FA2FFAD700F05DECE9F0090E03015F
:10179000FA6F1E0EF96FE40EE82EFED7F92FFCD774
:1017A000FA2FFAD700F0000E0001E56F020E2CECC4
:1017B0000BF0030E2CEC0BF0040E2CEC0BF0CD0E0A
:1017C0000001906FFB0E916F020E926F85ECF6F0A8
:1017D0006F0E0001906FF70E916F030E926F85EC04
:1017E000F6F08D0E0001916FF40E926F1A0E936F4A
:1017F000000E946F000E956FC2EC97F0C1EF97F05A
:10180000180E796F020E7A6FF70E7B6FF50E7C6FF4
:10181000000E7E6F050E7D6F84ECF3F000017951B0
:101820007A11D8A416EF8CF018EF8CF078EF8CF0CA
:101830000B50D8B41EEF8CF020EF8CF04CEF8CF0F6
:10184000000EE56F020E2CEC0BF0030E2CEC0BF0EF
:10185000040E2CEC0BF0030E0001906FFF0E916F45
:10186000020E926F85ECF6F0BA0E0001906FF80E42
:10187000916F030E926F85ECF6F0C50E0001916F2B
:10188000F40E926F1A0E936F000E946F080E956F00
:10189000C2EC97F0C1EF97F0000EE56F020E2CEC52
:1018A0000BF0030E2CEC0BF0040E2CEC0BF0CD0E19
:1018B0000001906FFB0E916F020E926F85ECF6F0B7
:1018C000FD0E0001906FFC0E916F030E926F85EC80
:1018D000F6F02E0E0001916FF40E926F1A0E936FB8
:1018E000000E946F000E956FC2EC97F0C1EF97F069
:1018F000180E796F020E7A6FFD0E7B6FF50E7C6FFE
:10190000000E7E6F040E7D6F84ECF3F000017951C0
:101910007A11D8A48EEF8CF090EF8CF0AFEF8DF0B1
:10192000000E0401DA6F000ED96F000ED86F050E9D
:101930000001E56F180E0001E525D96EDA6A020E86
:10194000DA22DF5022EC0AF00009D8B4AAEF8CF0BA
:10195000ACEF8CF03EEF8DF0180E0001E525D96E4E
:10196000DA6A020EDA22180EE525E16EE26A020E4C
:10197000E222E750D00FDF6E180EE525D96EDA6A45
:10198000020EDA22DF500301F96FF9510401D96F19
:10199000DA6BD9C479F0DAC47AF0000E00017C6FFA
:1019A0000A0E7B6FA9EC0AF079C0D9F47AC0DAF498
:1019B000190E0001E525D96EDA6A020EDA22190E37
:1019C000E525E16EE26A020EE222E750D00FDF6EFB
:1019D000190EE525D96EDA6A020EDA22DF5003010C
:1019E000F96FF9510401D925D96F000EDA21DA6FA8
:1019F000D82B18EF8DF0D9C4DFF0000E0401DA6F98
:101A0000000ED96F6BEF8DF0D9C4E0F0FDEF8CF0D4
:101A1000D9C4E1F0FDEF8CF0D9C4DEF0FDEF8CF01D
:101A2000D9C4DDF0FDEF8CF0D9C4DCF0FDEF8CF013
:101A3000D8510301F96FFA6BFA51000AD8B423EFB9
:101A40008DF06BEF8DF0F951010AD8B4FBEF8CF0FB
:101A5000030AD8B404EF8DF0010AD8B408EF8DF072
:101A6000070AD8B40CEF8DF0010AD8B410EF8DF04E
:101A7000030AD8B414EF8DF06BEF8DF0000E000167
:101A8000E56F020E2CEC0BF0030E2CEC0BF0040EA9
:101A90002CEC0BF0990E0001906FF70E916F020E77
:101AA000926F85ECF6F0930E0001906FF70E916F38
:101AB000030E926F85ECF6F0AA0E0001916FF40E02
:101AC000926F1A0E936F000E946F000E956FC2EC1A
:101AD00097F0C1EF97F0030E0001E527050E040112
:101AE000D86575EF8DF077EF8DF09AEF8CF0060EDC
:101AF000D819D8A47EEF8DF080EF8DF082EF8DF0B5
:101B000004ECFDF0000E0001E56F020E2CEC0BF072
:101B1000030E2CEC0BF0040E2CEC0BF0A80E0001C5
:101B2000906FF90E916F020E926F85ECF6F0E60E53
:101B30000001906FFD0E916F030E926F85ECF6F031
:101B4000CB0E0001916FF10E926F1A0E936F000E83
:101B5000946F000E956FC2EC97F0C1EF97F0180EDE
:101B6000796F020E7A6F020E7B6FF60E7C6F000E9D
:101B70007E6F040E7D6F84ECF3F0000179517A11D1
:101B8000D8A4C5EF8DF0C7EF8DF0BAEF8EF0A7ECBB
:101B9000FBF0DFC079F000017A6B000E7C6F0A0E5B
:101BA0007B6FE8ECFAF000017951300F0101486FCA
:101BB000DFC08BF000018C6B000E8E6F0A0E8D6FF4
:101BC00003ECFCF000018B51300F0101496F2F0E27
:101BD0004A6FE0C079F000017A6B000E7C6F0A0E4C
:101BE0007B6FE8ECFAF000017951300F01014B6F87
:101BF000E0C08BF000018C6B000E8E6F0A0E8D6FB3
:101C000003ECFCF000018B51300F01014C6F2F0EE3
:101C10004D6FE1C079F000017A6B000E7C6F0A0E07
:101C20007B6FE8ECFAF000017951300F01014E6F43
:101C3000E1C08BF000018C6B000E8E6F0A0E8D6F71
:101C400003ECFCF000018B51300F01014F6F200EAF
:101C5000506FDEC079F000017A6B000E7C6F0A0EC7
:101C60007B6FE8ECFAF000017951300F0101516F00
:101C7000DEC08BF000018C6B000E8E6F0A0E8D6F34
:101C800003ECFCF000018B51300F0101526F3A0E52
:101C9000536FDDC079F000017A6B000E7C6F0A0E85
:101CA0007B6FE8ECFAF000017951300F0101546FBD
:101CB000DDC08BF000018C6B000E8E6F0A0E8D6FF5
:101CC00003ECFCF000018B51300F0101556F3A0E0F
:101CD000566FDCC079F000017A6B000E7C6F0A0E43
:101CE0007B6FE8ECFAF000017951300F0101576F7A
:101CF000DCC08BF000018C6B000E8E6F0A0E8D6FB6
:101D000003ECFCF000018B51300F0101586F000E05
:101D10000001E56F020E2CEC0BF0030E2CEC0BF027
:101D2000040E2CEC0BF0920E0001906FFD0E916FE3
:101D3000020E926F85ECF6F0010E0001856F030E26
:101D4000DBEC05F0480E0001856F010E866F110E69
:101D5000876FBDEC09F0720E0001916FF50E926F66
:101D60001A0E936F000E946F030E956FC2EC97F0EE
:101D7000C1EF97F0180E796F020E7A6FA40E7B6F89
:101D8000F50E7C6F000E7E6F070E7D6F84ECF3F016
:101D9000000179517A11D8A4D0EF8EF0D2EF8EF0F5
:101DA000ADEF8FF0070EDCECD7F00001E46F090E09
:101DB000E461DDEF8EF0DFEF8EF0E9EF8EF0300EB4
:101DC0000101486F0001E451310F0101496FF9EF42
:101DD0008EF0080EE465EFEF8EF0F1EF8EF0F9EF84
:101DE0008EF0310E0101486F0001E451270F01010F
:101DF000496F000E0001E56FE4512D0D0B0EF32429
:101E0000D96E050EF420DA6EDF50D8B40AEF8FF0E9
:101E10000CEF8FF061EF8FF0020E2CEC0BF0030E45
:101E20002CEC0BF0040E2CEC0BF0C10E0001906FAB
:101E3000FC0E916F020E926F85ECF6F0010E000120
:101E4000906FF70E916F030E926F85ECF6F0A00E77
:101E50000001906FFD0E916F040E926F85ECF6F00D
:101E6000110E0001856F040EDBEC05F0480E030136
:101E7000F16F010EF26FF60EF36FFF0EF46F010EAD
:101E80000001E4250301F56FF66B000EF62337EC35
:101E900006F0480E0001856F010E866F020E876FF7
:101EA000BDEC09F0810E0001916FF50E926F1A0ED4
:101EB000936F000E946F070E956FC2EC97F0C1EF11
:101EC00097F0020E2CEC0BF0030E2CEC0BF0040E32
:101ED0002CEC0BF05A0E0001906FF70E916F020E72
:101EE000926F85ECF6F0A00E0001906FFD0E916FE1
:101EF000030E926F85ECF6F0110E0001856F030E54
:101F0000DBEC05F0480E0301F16F010EF26FF60EE7
:101F1000F36FFF0EF46F010E0001E4250301F56F6E
:101F2000F66B000EF62337EC06F0480E0001856FC5
:101F3000010E866F020E876FBDEC09F0450E0001A1
:101F4000916FF20E926F1A0E936F000E946F020E45
:101F5000956FC2EC97F0C1EF97F0180E796F020EF3
:101F60007A6F2C0E7B6FF60E7C6F000E7E6F020E6A
:101F70007D6F84ECF3F0000179517A11D8A4C3EF9E
:101F80008FF0C5EF8FF0FEEF90F090A0CAEF8FF0CA
:101F9000CCEF8FF001EF90F0000EE56F020E2CEC0D
:101FA0000BF0030E2CEC0BF0040E2CEC0BF09A0E45
:101FB0000001906FFB0E916F020E926F85ECF6F0B0
:101FC0001A0E0001906FFA0E916F030E926F85EC5E
:101FD000F6F06C0E0001906FFF0E916F040E926F81
:101FE00085ECF6F0DE0E0001916FF00E926F1A0E86
:101FF000936F000E946F000E956FC2EC97F0C1EFD7
:1020000097F0000E0401DA6F000ED96F000ED86F42
:10201000010ED86F030E0001E56F180E0001E525D3
:10202000D96EDA6A020EDA22DF5022EC0AF00009D9
:10203000D8B41DEF90F01FEF90F091EF90F0190ED3
:102040000001E525D96EDA6A020EDA22200EDE18CA
:10205000D8A42DEF90F02FEF90F051EF90F0180EE4
:10206000E525D96EDA6A020EDA22180EE525E16E50
:10207000E26A020EE222E750D00FDF6E180E000176
:10208000E525D96EDA6A020EDA22DF500301F96F14
:10209000F9510401D925D96F000EDA21DA6FAAEFC0
:1020A00090F0180EE525D96EDA6A020EDA22180EC3
:1020B000E525E16EE26A020EE222E750D00FDF6E04
:1020C000180EE525D96EDA6A020EDA22DF500A0D03
:1020D000180EE525D96EDA6A020EDA22F3CFDFFF99
:1020E000D9C479F0DAC47AF0000E7C6F0A0E7B6FE7
:1020F000A9EC0AF079C0D9F47AC0DAF43EEF90F096
:10210000D9C406F1DAC407F1000E0401DA6F000E3B
:10211000D96FA8EF90F0D9C425F0DAC426F084EF87
:1021200090F00401D8510301F96FFA6BFA51000ADB
:10213000D8B49DEF90F0A8EF90F0F951010AD8B40F
:1021400080EF90F0030AD8B48BEF90F0A8EF90F0F6
:102150000401D82B0001E52B020E0401D865B3EF72
:1021600090F0B5EF90F00DEF90F0090E0301FA6FCB
:102170001E0EF96FE40EE82EFED7F92FFCD7FA2FCA
:10218000FAD700F052ECF2F0090E0301FA6F1E0EBE
:10219000F96FE40EE82EFED7F92FFCD7FA2FFAD705
:1021A00000F0000E0001E56F020E2CEC0BF0030EA8
:1021B0002CEC0BF0040E2CEC0BF01A0E0001906FBF
:1021C000FA0E916F020E926F85ECF6F0110E00017F
:1021D000906FFC0E916F030E926F85ECF6F0FE0E81
:1021E0000001916FF20E926F1A0E936F000E946FB2
:1021F000000E956FC2EC97F0C1EF97F0180E796F53
:10220000020E7A6FF10E7B6FF50E7C6F000E7E6F03
:10221000050E7D6F84ECF3F0000179517A11D8A49A
:1022200014EF91F016EF91F042EF91F0000EE56F90
:10223000020E2CEC0BF0030E2CEC0BF0040E2CEC2D
:102240000BF0480E0001906FFD0E916F020E926F21
:1022500085ECF6F0320E0001906FF90E916F030ECF
:10226000926F85ECF6F06E0E0001916FF10E926F99
:102270001A0E936F000E946F050E956FC2EC97F0D7
:10228000C1EF97F0180E796F020E7A6F9C0E7B6F7C
:10229000F50E7C6F000E7E6F070E7D6F84ECF3F001
:1022A000000179517A11D8A458EF91F05AEF91F0CA
:1022B00005EF92F0070EDCECD7F00001E46F090E99
:1022C0000301FA6F1E0EF96FE40EE82EFED7F92F08
:1022D000FCD7FA2FFAD700F00001E45155ECFDF0DD
:1022E0000001D551D8B477EF91F079EF91F0D0EFAC
:1022F00091F0000ED56F020E2CEC0BF0030E2CECBF
:102300000BF0040E2CEC0BF0820E0001906FFC0E13
:10231000916F020E926F85ECF6F0AC0E0001906F9B
:10232000FE0E916F030E926F85ECF6F0A00E000189
:10233000906FFD0E916F040E926F85ECF6F0110E0A
:102340000001856F040EDBEC05F0480E0301F16F10
:10235000010EF26FF60EF36FFF0EF46F010E000127
:10236000E4250301F56FF66B000EF62337EC06F05B
:10237000480E0001856F010E866F020E876FBDEC5F
:1023800009F01D0E0001916FF20E926F1A0E936FFD
:10239000000E946F020E956FC2EC97F0C1EF97F0AC
:1023A000000EE56F020E2CEC0BF0030E2CEC0BF084
:1023B000040E2CEC0BF0FA0E0001906FFE0E916FE4
:1023C000020E926F85ECF6F0820E0001906FFC0E0B
:1023D000916F030E926F85ECF6F0C00E0001906FC6
:1023E000FE0E916F040E926F85ECF6F09D0E0001CB
:1023F000916FF10E926F1A0E936F000E946F060E8E
:10240000956FC2EC97F0C1EF97F0180E796F020E3E
:102410007A6F1D0E7B6FF60E7C6F000E7E6F030EC3
:102420007D6F84ECF3F0000179517A11D8A41BEF91
:1024300092F01DEF92F0DDEF92F0030EDCECD7F09E
:102440000001E46F090E0301FA6F1E0EF96FE40E2E
:10245000E82EFED7F92FFCD7FA2FFAD700F090A07C
:1024600034EF92F036EF92F05FEF92F0000E000141
:10247000E56F020E2CEC0BF0030E2CEC0BF0040EAF
:102480002CEC0BF09A0E0001906FFB0E916F020E78
:10249000926F85ECF6F01A0E0001906FFA0E916FB4
:1024A000030E926F85ECF6F06C0E0001906FFF0E3C
:1024B000916F040E926F85ECF6F0F2EF8FF0090E3B
:1024C0000001E46166EF92F068EF92F072EF92F033
:1024D000300E0101486F0001E451310F0101496FD5
:1024E00082EF92F0080EE46578EF92F07AEF92F0C6
:1024F00082EF92F0310E0101486F0001E451270F85
:102500000101496FCB0E0301FA6FEC0EF96F840ED7
:10251000E82EFED7F92FFCD7FA2FFAD700F0CB0E12
:102520000301FA6FEC0EF96F840EE82EFED7F92F37
:10253000FCD7FA2FFAD700F0E4C086F0010E61EC68
:10254000CCF0520E0301FA6F2B0EF96F000EE82E3D
:10255000FED7F92FFCD7FA2FFAD700F052ECF2F0A1
:10256000520E0301FA6F2B0EF96F000EE82EFED704
:10257000F92FFCD7FA2FFAD700F0000E0001E56F13
:10258000020E2CEC0BF0030E2CEC0BF0040E2CECDA
:102590000BF01A0E0001906FFA0E916F020E926FFF
:1025A00085ECF6F0110E0001906FFC0E916F030E9A
:1025B000926F85ECF6F033EF91F0180E796F020E02
:1025C0007A6FCA0E7B6FF50E7C6F000E7E6F060E63
:1025D0007D6F84ECF3F0000179517A11D8A4F3EF08
:1025E00092F0F5EF92F07FEF95F0000E0401DA6FB4
:1025F000000ED96F000ED86F070E0001E56F180EA0
:102600000001E525D96EDA6A020EDA22DF5022ECEB
:102610000AF00009D8B40FEF93F011EF93F08DEFAB
:1026200093F0180E0001E525D96EDA6A020EDA225F
:10263000180EE525E16EE26A020EE222E750D00FA5
:10264000DF6E180EE525D96EDA6A020EDA22DF5047
:102650000301F96FF9510401D96FDA6BD9C479F02C
:10266000DAC47AF0000E00017C6F0A0E7B6FA9ECD1
:102670000AF079C0D9F47AC0DAF4190E0001E52520
:10268000D96EDA6A020EDA22190EE525E16EE26AE7
:10269000020EE222E750D00FDF6E190EE525D96E4B
:1026A000DA6A020EDA22DF500301F96FF9510401F0
:1026B000D925D96F000EDA21DA6FD82B73EF93F09A
:1026C000D9C4D5F4000E0401DA6F000ED96F8DEF76
:1026D00093F0D9C4D6F462EF93F00401D951F7EC2A
:1026E000CEF062EF93F0D8510301F96FFA6BFA5113
:1026F000000AD8B47EEF93F08DEF93F0F951010A00
:10270000D8B460EF93F0030AD8B469EF93F0010AEC
:10271000D8B46DEF93F08DEF93F0030E0001E52731
:10272000020E0401D86597EF93F099EF93F0FFEF55
:1027300092F0000E0001E46F67EF95F0E4512D0D6B
:10274000E50EF324D96E040EF420DA6E0F0EDE6E61
:10275000000EDD6EE4512D0DFF0EF324D96E040E34
:10276000F420DA6E010EDF6EE4512D0D000EF3241D
:10277000D96E050EF420DA6ED5C4DFFFE4512D0DBD
:10278000010EF324D96E050EF420DA6ED6C4DFFFF5
:10279000E4512D0D020EF324D96E050EF420DA6EED
:1027A000CFC0DFFFE4512D0D030EF324D96E050ECB
:1027B000F420DA6EDAC0DFFFE4512D0D040EF324AD
:1027C000D96E050EF420DA6EDBC0DFFFE4512D0D6B
:1027D000E10EF324D96E040EF420DA6E640EDE6E80
:1027E000000EDD6EE4512D0DE30EF324D96E040EC0
:1027F000F420DA6E300EDE6E750EDD6EE4512D0DB6
:10280000060EF324D96E050EF420DA6EE429DF6E8D
:10281000E4512D0D0A0EF324D96E050EF420DA6E64
:10282000000EDF6EE4512D0D080EF324D96E050E57
:10283000F420DA6E020EDF6EE4512D0D090EF32442
:10284000D96E050EF420DA6E020EDF6EE4512D0D06
:102850000B0EF324D96E050EF420DA6E010EDF6E36
:10286000E4512D0DE70EF324D96E040EF420DA6E38
:10287000050EDE6E000EDD6EE4512D0DE90EF32423
:10288000D96E040EF420DA6E0F0EDE6E000EDD6ED1
:10289000E4512D0D050EF324D96E050EF420DA6EE9
:1028A000E429DF6EE4512D0D070EF324D96E050ED9
:1028B000F420DA6E000EDF6EE4512D0D0D0EF324C0
:1028C000D96E050EF420DA6E000EDF6EE4512D0D88
:1028D0000C0EF324D96E050EF420DA6E010EDF6EB5
:1028E000E451020DE70EF324F66EE80EF420F76EC5
:1028F000F86A000EF8220900F5CF7CF00A00F5CF47
:102900007DF0E4512D0DE10EF3247E6F040EF420D2
:102910007F6F9FECE4F0090E0301FA6F1E0EF96F52
:10292000E40EE82EFED7F92FFCD7FA2FFAD700F0E5
:102930000001E451020DE70EF324F66EE80EF420D8
:10294000F76EF86A000EF8220900F5CF7CF00A0055
:10295000F5CF7DF0E4512D0DE10EF3247E6F040ED2
:10296000F4207F6FBEECF9F0090E0301FA6F1E0E22
:10297000F96FE40EE82EFED7F92FFCD7FA2FFAD71D
:1029800000F00001E451020DE70EF324F66EE80EAC
:10299000F420F76EF86A000EF8220900F5CF7CF0FB
:1029A0000A00F5CF7DF0E4512D0DE10EF3247E6F8A
:1029B000040EF4207F6F12EC07F0090E0301FA6F8A
:1029C0001E0EF96FE40EE82EFED7F92FFCD7FA2F72
:1029D000FAD700F00001E451020DE70EF324F66E81
:1029E000E80EF420F76EF86A000EF8220900F5CF21
:1029F0007CF00A00F5CF7DF0E4512D0DE10EF324BB
:102A00007E6F040EF4207F6F3CEC07F0090E03018B
:102A1000FA6F1E0EF96FE40EE82EFED7F92FFCD7E1
:102A2000FA2FFAD700F00001E451020DE70EF3246B
:102A3000F66EE80EF420F76EF86A000EF822090030
:102A4000F5CF7CF00A00F5CF7DF0E4512D0DE10EBD
:102A5000F3247E6F040EF4207F6FE8EC06F0090E7D
:102A60000301FA6F1E0EF96FE40EE82EFED7F92F60
:102A7000FCD7FA2FFAD700F00001E451020DE70E5F
:102A8000F324F66EE80EF420F76EF86A000EF822D2
:102A90000900F5CF7CF00A00F5CF7DF0E4512D0D53
:102AA000E10EF3247E6F040EF4207F6F3AECC2F047
:102AB000090E0301FA6F1E0EF96FE40EE82EFED721
:102AC000F92FFCD7FA2FFAD700F00001E42B0F0EF4
:102AD000E4656DEF95F06FEF95F09EEF93F0000ECB
