:040000000FEF03F00B
:060008004382E0EFD0F09E
:100018004380D8CF38F0E8CF39F0E0CF3AF0E9CFD5
:100028003BF0EACF3CF0D9CF3DF0DACF3EF0F6CF47
:100038003FF0F7CF40F0F8CF41F0F5CF42F00E0196
:1000480033AB29EF00F02BEF00F09EEF02F0909613
:10005800339BE30ED46EB00ED36E192A07500810E6
:10006800D8B439EF00F03BEF00F08CEF00F090A02F
:1000780040EF00F042EF00F08CEF00F00706D8A048
:10008800080601013E2B1350D8B44DEF00F04FEF96
:1000980000F057EF00F0030E136055EF00F057EF34
:1000A80000F058EF00F0132A010E2A6E020E2B6E94
:1000B800D90E2C6EF80E2D6E000E2F6E050E2E6EBC
:1000C800C1ECE8F02A502B10D8A46DEF00F06FEFC8
:1000D80000F08CEF00F0060E2A6E020E2B6EE50E75
:1000E8002C6EF80E2D6E000E2F6E050E2E6EC1ECC6
:1000F800E8F02A502B10D8A484EF00F086EF00F027
:100108008CEF00F025ECFAF001013F2B8CEF00F0AA
:1001180090A491EF00F093EF00F0DDEF01F08EA6D0
:1001280098EF00F09AEF00F0B5EF00F001012651CA
:100138001E1907E127511F19D8A4A5EF00F0A7EF52
:1001480000F0B1EF00F08E96000E1F6F000E1E6FCC
:100158000E4B0F2B432BE7EF00F01E4B1F2BE7EF47
:1001680000F08EB6BAEF00F0BCEF00F0E7EF00F059
:10017800010116510E1907E117510F19D8A4C7EF3D
:1001880000F0C9EF00F0E5EF00F00001E0510101D7
:10019800435DD8B0D2EF00F0D4EF00F0DDEF00F00F
:1001A8008E861E4B1F2B000E0F6F000E0E6FE7EF93
:1001B80000F0010E16250E6F000E17210F6FE7EFE6
:1001C80000F00E4B0F2B8EA8ECEF00F0EEEF00F0D6
:1001D80009EF01F0010124511C1907E125511D19EE
:1001E800D8A4F9EF00F0FBEF00F005EF01F08E98CE
:1001F800000E1D6F000E1C6F0C4B0D2B422B39EFA0
:1002080001F01C4B1D2B39EF01F08EB80EEF01F0F9
:1002180010EF01F039EF01F0010114510C1907E159
:1002280015510D19D8A41BEF01F01DEF01F037EFA0
:1002380001F04651425DD8B024EF01F026EF01F0FD
:100248002FEF01F08E881C4B1D2B000E0D6F000E3A
:100258000C6F39EF01F0010E14250C6F000E1521FB
:100268000D6F39EF01F00C4B0D2B8EAA3EEF01F00C
:1002780040EF01F05BEF01F0010122511A1907E18B
:1002880023511B19D8A44BEF01F04DEF01F057EFA4
:1002980001F08E9A000E1B6F000E1A6F0A4B0B2B83
:1002A800412B8BEF01F01A4B1B2B8BEF01F08EBA11
:1002B80060EF01F062EF01F08BEF01F001011251E4
:1002C8000A1907E113510B19D8A46DEF01F06FEF6C
:1002D80001F089EF01F04551415DD8B076EF01F0AA
:1002E80078EF01F081EF01F08E8A1A4B1B2B000E7C
:1002F8000B6F000E0A6F8BEF01F0010E12250A6FCB
:10030800000E13210B6F8BEF01F00A4B0B2B8EACF9
:1003180090EF01F092EF01F0ADEF01F001012051F3
:10032800181907E121511919D8A49DEF01F09FEF81
:1003380001F0A9EF01F08E9C000E196F000E186FE6
:10034800084B092B402BDDEF01F0184B192BDDEF83
:1003580001F08EBCB2EF01F0B4EF01F0DDEF01F077
:1003680001011051081907E111510919D8A4BFEF6B
:1003780001F0C1EF01F0DBEF01F04451405DD8B06E
:10038800C8EF01F0CAEF01F0D3EF01F08E8C184BE3
:10039800192B000E096F000E086FDDEF01F0010E3A
:1003A8001025086F000E1121096FDDEF01F0084BD1
:1003B800092B630E1818D8A4E4EF01F0E6EF01F05A
:1003C800EAEF01F0000E196E9EEF02F01804D8A4AF
:1003D800F0EF01F0F2EF01F002EF02F017501918F8
:1003E800D8A4F9EF01F0FBEF01F002EF02F0000EE4
:1003F800196E8A86020E186E9EEF02F0020E181809
:10040800D8A409EF02F00BEF02F01BEF02F0145032
:100418001918D8A412EF02F014EF02F01BEF02F043
:10042800000E196E8A96030E186E9EEF02F0030EE8
:100438001818D8A422EF02F024EF02F034EF02F0EB
:1004480016501918D8A42BEF02F02DEF02F034EF54
:1004580002F0000E196E8A88040E186E9EEF02F0E4
:10046800040E1818D8A43BEF02F03DEF02F04DEF50
:1004780002F014501918D8A444EF02F046EF02F025
:100488004DEF02F0000E196E8A98050E186E9EEF59
:1004980002F0050E1818D8A454EF02F056EF02F037
:1004A80066EF02F016501918D8A45DEF02F05FEF5E
:1004B80002F066EF02F0000E196E8A8A060E186EB8
:1004C8009EEF02F0060E1818D8A46DEF02F06FEF39
:1004D80002F07FEF02F014501918D8A476EF02F05A
:1004E80078EF02F07FEF02F0000E196E8A9A070E7D
:1004F800186E9EEF02F0070E1818D8A486EF02F0C7
:1005080088EF02F09EEF02F01950366E376A00014C
:10051800CB51361807E1CC513718D8A496EF02F022
:1005280098EF02F09EEF02F0000E196E010E186EA1
:100538009EEF02F00E0138A1A4EF02F0A6EF02F040
:10054800ABEF02F0909601013A2B0E01389138A5D5
:10055800B0EF02F0B2EF02F0F7EF02F090963895A4
:10056800F00EC86EDC0EC76E0101392B39513D5DA6
:10057800D8B0C1EF02F0C3EF02F0EAEF02F0115079
:10058800D8A4C9EF02F0CBEF02F0EAEF02F0010EB7
:10059800116E000E396FC9902E51D8B4D6EF02F003
:1005A800D8EF02F0DDEF02F0010E0001CD6FF7EF9A
:1005B80002F03851D8B4E3EF02F0E5EF02F0F7EFBC
:1005C80002F0010E0001D46FF7EF02F01150D8B419
:1005D800F0EF02F0F2EF02F0F7EF02F0000E396FE1
:1005E800C990F7EF02F042C0F5FF41C0F8FF40C0E4
:1005F800F7FF3FC0F6FF3EC0DAFF3DC0D9FF3CC061
:10060800EAFF3BC0E9FF3AC0E0FF39C0E8FF38C065
:0A061800D8FF4390100040EFF1F00E
:10EB9E000053797374656D2041757468656E746980
:10EBAE006361746564207769746820506861736569
:10EBBE00206661696C7572652C2073757370656E55
:10EBCE0064696E6720616C6C20616374696F6E732B
:10EBDE000053797374656D207265736574206F636D
:10EBEE006375727265642C2049727269676174690B
:10EBFE006F6E2073657474696E672064656C6574DE
:10EC0E006564000000300060009000C000F000203D
:10EC1E000150018001B001E001100240027002A01B
:10EC2E0002D00250686173652042206661696C757E
:10EC3E007265206465746563746564005068617301
:10EC4E00652059206661696C75726520646574650E
:10EC5E0063746564004C6F67696E20636F64652032
:10EC6E006E6F74206368616E676564002B434D544C
:10EC7E00493A2022534D222C780049444C45006FCE
:10EC8E006B004472792052756E20646574656374EE
:10EC9E0065642C204D6F746F722C204972726967F7
:10ECAE006174696F6E20616E642046657274696767
:10ECBE006174696F6E207377697463686564206F21
:10ECCE0066662E0D0A49727269676174696F6E20ED
:10ECDE007363686564756C656420746F206E657807
:10ECEE00742064617920776974682066657274692E
:10ECFE00676174696F6E20666F72206669656C64F9
:10ED0E00206E6F2E0000004472792052756E2064C2
:10ED1E00657465637465642C204D6F746F72206129
:10ED2E006E642049727269676174696F6E207377C1
:10ED3E00697463686564206F66662E0D0A49727287
:10ED4E0069676174696F6E207363686564756C655D
:10ED5E006420746F206E6578742064617920776901
:10ED6E007468206665727469676174696F6E206677
:10ED7E006F72206669656C64206E6F2E0000004411
:10ED8E0072792052756E2064657465637465642CA7
:10ED9E00204D6F746F7220616E64204972726967C4
:10EDAE006174696F6E207377697463686564206F30
:10EDBE0066662E0D0A49727269676174696F6E20FC
:10EDCE007363686564756C656420746F206E657816
:10EDDE007420647565206461746520666F722066A8
:10EDEE0069656C64206E6F2E0000004472792052AB
:10EDFE00756E2064657465637465642C204D6F7444
:10EE0E006F7220616E642049727269676174696FF6
:10EE1E006E207377697463686564206F66662E0D65
:10EE2E000A49727269676174696F6E2073636865EF
:10EE3E0064756C656420746F206E657874206461EF
:10EE4E007920666F72206669656C64206E6F2E0085
:10EE5E00000053797374656D2072657374617274FA
:10EE6E00656420666F7220416C6C2050686173651A
:10EE7E0020446574656374696F6E207769746820C9
:10EE8E00696E636F6D706C65746520497272696727
:10EE9E006174696F6E20666F72206669656C64209E
:10EEAE006E6F2E0053797374656D20726573746185
:10EEBE007274656420666F7220506F776572204998
:10EECE006E74657272757074207769746820696EDD
:10EEDE00636F6D706C6574652049727269676174D9
:10EEEE00696F6E20666F72206669656C64206E6F46
:10EEFE002E0053797374656D20726573746172742C
:10EF0E00656420696E20446961676E6F737469630E
:10EF1E00204D6F6465207769746820696E636F6D2C
:10EF2E00706C6574652049727269676174696F6E81
:10EF3E0020666F72206669656C64206E6F2E0053BA
:10EF4E00797374656D207265737461727465642073
:10EF5E00666F72204C6F7720506F77657220496E06
:10EF6E00207769746820696E636F6D706C65746567
:10EF7E002049727269676174696F6E20666F7220C4
:10EF8E006669656C64206E6F2E0053797374656DBF
:10EF9E002072657374617274656420666F7220539B
:10EFAE007461636B204572726F722077697468208A
:10EFBE00696E636F6D706C657465204972726967F6
:10EFCE006174696F6E20666F72206669656C64206D
:10EFDE006E6F2E0053797374656D20726573746154
:10EFEE007274656420666F72205744542054696DA4
:10EFFE00656F7574207769746820696E636F6D70C4
:10F00E006C6574652049727269676174696F6E20F0
:10F01E00666F72206669656C64206E6F2E004665A1
:10F02E00727469676174696F6E2073746F70706546
:10F03E006420776974682066657274696C697A6594
:10F04E0072206C6576656C2073656E736F722066C8
:10F05E0061696C75726520666F72206669656C6495
:10F06E00206E6F2E004C6F772050686173652063A1
:10F07E00757272656E742064657465637465642C54
:10F08E0020616374696F6E732073757370656E643F
:10F09E0065642C20706C6561736520726573746194
:10F0AE0072742073797374656D0049727269676149
:10F0BE0074696F6E206973206E6F7420416374697A
:10F0CE0076652E204665727469676174696F6E206D
:10F0DE006E6F7420656E61626C656420666F72205F
:10F0EE006669656C64206E6F2E004D6F6973747562
:10F0FE0072652073656E736F722069732066616925
:10F10E006C65642C2049727269676174696F6E2038
:10F11E007374617274656420666F72206669656CC3
:10F12E0064206E6F2E0053797374656D2072657353
:10F13E007461727465642077697468207068617395
:10F14E0065206661696C7572652C207375737065C8
:10F15E006E64696E6720616C6C20616374696F6E9A
:10F16E0073004665727469676174696F6E2073749B
:10F17E006F707065642077697468206C6F77206695
:10F18E00657274696C697A6572206C6576656C203F
:10F19E00666F72206669656C64206E6F2E0057650F
:10F1AE0074206669656C6420646574656374656457
:10F1BE002E0D0A49727269676174696F6E206E6FE7
:10F1CE0074207374617274656420666F7220666950
:10F1DE00656C64206E6F2E00000053797374656D3C
:10F1EE00207265736574206F636375727265642C2B
:10F1FE00206C6F67696E20636F646520726573653E
:10F20E007420746F20466163746F72792073657415
:10F21E0074696E670049727269676174696F6E20F6
:10F22E00636F6D706C6574656420666F72206475B3
:10F23E0065206669656C64730D0A4D6F746F72207C
:10F24E007377697463686564206F66660000004EAC
:10F25E00657720525443206261747465727920661A
:10F26E006F756E642C20706C656173652073796E9A
:10F27E00632073797374656D2074696D65206D619B
:10F28E006E75616C6C79004E657720525443206226
:10F29E0061747465727920666F756E642C20737953
:10F2AE007374656D2074696D652069732073657460
:10F2BE0020746F206C6F63616C2074696D650049FA
:10F2CE006E636F72726563742076616C7565732EF2
:10F2DE00204665727469676174696F6E206E6F7413
:10F2EE0020656E61626C656420666F72206669656A
:10F2FE006C64206E6F2E0049727269676174696F5B
:10F30E006E2073746F7070656420776974686F75A2
:10F31E007420726573706F6E73652066726F6D20E8
:10F32E006669656C64206E6F2E0049727269676142
:10F33E0074696F6E20736B69707065642077697481
:10F34E0068206E6F20726573706F6E7365206672C3
:10F35E006F6D206669656C64206E6F3A00596F752B
:10F36E0020617265206E6F206D6F72652041646D35
:10F37E00696E206E6F772E204E65772041646D6921
:10F38E006E2069732073657420746F0D0A0000007F
:10F39E00525443204261747465727920666F756EA3
:10F3AE0064206C6F772C20706C65617365207265BC
:10F3BE00706C61636520525443206261747465728F
:10F3CE00790049727269676174696F6E2069732082
:10F3DE006163746976652C204D6F746F72206C6F4B
:10F3EE006164206375742D6F6666206E6F74207372
:10F3FE0065740049727269676174696F6E20636F1C
:10F40E006E66696775726174696F6E206469736187
:10F41E00626C656420666F72206669656C64206E2E
:10F42E006F2E005068617365206661696C75726538
:10F43E002064657465637465642C207375737065E0
:10F44E006E64696E6720616C6C20616374696F6EA7
:10F45E0073004E6F4C6F616420616E642046756C54
:10F46E006C4C6F6164204D6F746F7220746872659E
:10F47E0073686F6C64732073657420746F203A2008
:10F48E00004D6F6973747572652073656E736F725C
:10F49E00206672657175656E63792076616C75652F
:10F4AE0020666F72206669656C64206E6F2E005345
:10F4BE00797374656D2074696D652073796E6365FB
:10F4CE006420746F2063757272656E74206C6F6346
:10F4DE00616C2074696D650053797374656D20726B
:10F4EE00657374617274656420666F7220416C6C12
:10F4FE0020506861736520446574656374696F6E2E
:10F50E00004D6F6973747572652073656E736F72DB
:10F51E00206973206661696C656420666F7220666F
:10F52E0069656C64206E6F2E004972726967617432
:10F53E00696F6E206E6F7420636F6E666967757289
:10F54E00656420666F72206669656C64206E6F2E2E
:10F55E000053797374656D2072657374617274658E
:10F56E006420666F7220506F77657220496E7465E5
:10F57E0072727570740053797374656D2072657351
:10F58E0074617274656420696E20446961676E6F80
:10F59E0073746963206D6F64650049727269676187
:10F5AE0074696F6E20636F6E66696775726564202D
:10F5BE00666F72206669656C64206E6F2E004D6FEB
:10F5CE00746F726C6F6164206375742D6F66662044
:10F5DE00736574207375636365737366756C6C798C
:10F5EE00004665727469676174696F6E2064697331
:10F5FE0061626C656420666F72206669656C64205A
:10F60E006E6F2E004665727469676174696F6E2045
:10F61E0073746F7070656420666F72206669656CB6
:10F62E0064206E6F2E004665727469676174696F2F
:10F63E006E207374617274656420666F72206669E1
:10F64E00656C64206E6F2E00466572746967617416
:10F65E00696F6E20656E61626C656420666F7220E4
:10F66E006669656C64206E6F2E0053797374656DD8
:10F67E002072657374617274656420666F72207394
:10F68E007461636B206572726F7200537973746567
:10F69E006D2072657374617274656420666F72207A
:10F6AE005744542074696D656F75740049727269A0
:10F6BE00676174696F6E2073746F70706564206615
:10F6CE006F72206669656C64206E6F2E00497272CF
:10F6DE0069676174696F6E207374617274656420FA
:10F6EE00666F72206669656C64206E6F2E005761BE
:10F6FE007465722046696C74726174696F6E2069EC
:10F70E0073206E6F7420656E61626C6564004C6F61
:10F71E0067696E20636F6465206368616E676564F8
:10F72E00207375636365737366756C6C79005379BA
:10F73E007374656D2072657374617274656420668E
:10F74E006F72204C6F7720506F776572005761741F
:10F75E0065722066696C74726174696F6E2064657F
:10F76E0061637469766174656400496E636F727269
:10F77E00656374206C6F63616C2074696D652066BF
:10F78E006F756E640057617465722046696C747291
:10F79E006174696F6E2053657175656E63653A00AD
:10F7AE0057617465722066696C74726174696F6EEC
:10F7BE002061637469766174656400506861736575
:10F7CE002052206661696C7572652064657465638C
:10F7DE007465640057726F6E67206C6F67696E2078
:10F7EE00636F646520666F756E640041646D696E4B
:10F7FE0020736574207375636365737366756C6CC3
:10F80E00790041757468656E7469636174696F6EB1
:10F81E00206661696C656400416C6C205068617390
:10F82E006520646574656374656400546573742043
:10F83E004461746120496E6A65637465640053792E
:10F84E007374656D20436F6E6E65637465640046F8
:10F85E006163746F7279204B6579203A200043758D
:10F86E007272656E742054696D653A200049727229
:10F87E0069676174696F6E204E6F3A0031323334AE
:10F88E0035363738393132004745544652455100E6
:10F89E00455854524143540044414354495645003F
:10F8AE0044495341424C450053454E534F52004D2F
:10F8BE00415354455200494E4A4543540041435426
:10F8CE0049564500454E41424C4500414C4956452E
:10F8DE00004552524F5200534C4156450047455435
:10F8EE004354004644415441004645454400544962
:10F8FE004D4500484F4C4400484F4F4B0041434B41
:10F90E00004F4646002B39310053435400534554A3
:10F91E00004F4E00435400415500466572746967AE
:10F92E006174696F6E20656E61626C6564207769C3
:10F93E0074682064656C61793A0046657274696713
:10F94E006174696F6E206E6F7420636F6E66696787
:10F95E00757265640D0A002A2A2A466163746F72F5
:10F96E00792052657365742A2A2A2A005379737492
:10F97E00656D20436F6D706C6574652044617461B4
:10F98E000043757272656E7420496E2046756C6CFC
:10F99E00204C6F6164004E6577204D65737361670F
:10F9AE006520526563656976656400436F6E6669AE
:10F9BE00677572656420666F72204669656C6400B7
:10F9CE00546F2044656C6574652049727269676175
:10F9DE0074696F6E00496E204E6F204C6F6164200B
:10F9EE00436F6E646974696F6E0053797374656DDD
:10F9FE0020697320426F6F74696E672055700043E3
:10FA0E007572736F7220486F6D65202620426C6987
:10FA1E006E6B00576974682053656E736F72204663
:10FA2E0061696C75726500436865636B696E67200A
:10FA3E0047534D205369676E616C00546F204368C5
:10FA4E0065636B2047534D205369676E616C0042AE
:10FA5E00686F6F6D69204A616C73616E6468617264
:10FA6E00616E00576972654C6573732049727269D5
:10FA7E00676174696F6E0041542B434E4D493D31A1
:10FA8E002C312C302C302C300D0A004C6F616469F7
:10FA9E006E672053797374656D20446174610045FF
:10FAAE00786974696E6720446961676E6F737469F3
:10FABE00630043757272656E7420496E204E6F201E
:10FACE004C6F61640049727269676174696F6E2070
:10FADE00536B69707065640049727269676174690D
:10FAEE006F6E2053746F707065640049727269672F
:10FAFE006174696F6E20537461727465640049722B
:10FB0E007269676174696F6E2052756E6E696E6789
:10FB1E00005072657373205265736574204275745C
:10FB2E00746F6E00546F2043616C6962726174650C
:10FB3E00204D6F746F72004E6F20446961676E6F57
:10FB4E0073746963204D656E750053797374656DBA
:10FB5E002052756E6E696E6720496E005573657220
:10FB6E0020526567697374726174696F6E004361C8
:10FB7E006C6962726174696E67204D6F746F72008A
:10FB8E0046756C6C204C6F61642043757272656EA5
:10FB9E0074002347455453454E534F523031534C06
:10FBAE004156450053657061726174696F6E2054E1
:10FBBE00696D653A20006C63644261636B6C6967C2
:10FBCE006874204F6E20006C63644261636B6C69D5
:10FBDE00676874204F66660057697468204E6F2000
:10FBEE00526573706F6E7365004E6574776F726BCE
:10FBFE0020537472656E67746800546F2044656C90
:10FC0E006574652053797374656D00576169746905
:10FC1E006E6720466F72205573657200466163747D
:10FC2E006F72792053657474696E6773006C6364C8
:10FC3E004261636B6C69676874204F6E004C6F7223
:10FC4E006120636F6E74726F6C6C657200497272B4
:10FC5E0069676174696F6E20446174610046616307
:10FC6E00746F72792050696E436F646500446961E8
:10FC7E00676E6F73746963204D6F646500416C6CC1
:10FC8E0020506F77657220506861736500466F75FE
:10FC9E006E64204C6F772050686173650041542B61
:10FCAE00435343533D2247534D220D0A00466F7274
:10FCBE00204669656C64204E6F3A200046726F6D67
:10FCCE00204669656C64204E6F3A0055736572204C
:10FCDE004C6F6767656420494E00436F6E74726F98
:10FCEE006C2053797374656D0041757468656E741C
:10FCFE0069636174696F6E00546F2044656C65743E
:10FD0E006520557365720041542B53434C41535338
:10FD1E00303D310D0A00436F6E6E656374696E6718
:10FD2E0020746F200053657474696E672053797365
:10FD3E0074656D00202020202020202020202020EF
:10FD4E002000466F72204669656C64204E6F3A0043
:10FD5E00466F756E64204C6F772052544300506886
:10FD6E00617365204661696C7572650041542B4361
:10FD7E004D47443D312C340D0A00546F204C6F63B7
:10FD8E00616C2054696D65005375636365737366AA
:10FD9E00756C6C7900446973706C6179204F6E20BC
:10FDAE0000437572736F7220486F6D6500446973FE
:10FDBE00706C6179204F6666004661696C656420DF
:10FDCE005573657200234F46463031534C415645AC
:10FDDE000041542B4346554E3D300D0A0041542BE5
:10FDEE00434D47463D310D0A0041542B4346554E77
:10FDFE003D310D0A0041542B434C54533D310D0AF5
:10FE0E000020497465726174696F6E3A0047534DF4
:10FE1E00204E6574776F726B00437572736F72202C
:10FE2E004F66660041542B43434C4B3F0D0A005521
:10FE3E006479616D69204C4C50004C6F67696E207F
:10FE4E00436F64650052657374696E6720546F006A
:10FE5E0041542B434C54533F0D0A000D0A44656C1C
:10FE6E006179313A20000D0A4F4E54696D653A2082
:10FE7E000020447565446174653A2000426C696ED9
:10FE8E006B204F666600437572736F72204F6E0063
:10FE9E00436F6D706C6574656400234F4E30315442
:10FEAE00494D450041542B434D47533D2200566565
:10FEBE00727920476F6F6400457863656C6C656E70
:10FECE007400426C696E6B204F6E005072696E74D6
:10FEDE002061740041542B434D47523D0053656CD5
:10FEEE006563746564004465746563746564004499
:10FEFE00656C6574696E670041542B4353510D0A4E
:10FF0E000044656C6179323A200044656C61793346
:10FF1E003A2000204F46467072643A004D6F646579
:10FF2E0072617465004572726F7220496E0056657B
:10FF3E007279204C6F77004368616E676564005379
:10FF4E00657474696E67004472792052756E004252
:10FF5E0061747465727900204F4E7072643A004E6F
:10FF6E006F3A202564004661696C65640041544512
:10FF7E00300D0A00415426570D0A00284D696E298E
:10FF8E0020003C2D2D2D2D00403A302C3000403AD3
:10FF9E00312C3100403A322C3200403A332C3300AF
:10FFAE002D2D2D2D3E0057726F6E670020616E64F1
:10FFBE002000284D696E2900205765743A002044B0
:10FFCE0072793A002069732000506F6F72003130E1
:10FFDE0030250025642563004C4F57003937250026
:10FFEE0039382500393925004E4F003125002400BF
:01FFFE000002
:020000040001F9
:10000000000E0101F86F000EF96F000EFC6F000E7C
:10001000FB6F1E0E3D6FB9ECFAF0A40E0001766F77
:10002000F90E776F020E786F2FECEAF0520E000196
:10003000C16F2B0EC06F000EE82EFED7C02FFCD76D
:10004000C12FFAD700F0300E0001E1652AEF80F0F1
:100050002CEF80F008EF94F03A0EE16132EF80F07F
:1000600034EF80F008EF94F0000E116E000EDF6F99
:10007000C98080EF80F0E20E0001616FFE0E626FBA
:10008000C5ECF6F0E10E0001616F000E626F010E2B
:10009000636FADECF8F0B80E0001616FFC0E626F9B
:1000A000C5ECF6F0290E0001C16F960EC06F7F0EF1
:1000B000E82EFED7C02FFCD7C12FFAD71150D8A4F5
:1000C00064EF80F066EF80F080EF80F0CB0E0001EF
:1000D000C16FEC0EC06F840EE82EFED7C02FFCD788
:1000E000C12FFAD700F0CB0E0001C16FEC0EC06F2C
:1000F000840EE82EFED7C02FFCD7C12FFAD700F010
:100100001150D8B486EF80F088EF80F03BEF80F09C
:100110000E013885150E0001606F030E616F130E1E
:10012000626FF90E636F000E656F030E646F0EEC65
:10013000E7F0000160516111D8A4A1EF80F0A3EFB6
:1001400080F0F7EF93F0E10E606F000E616F180E14
:10015000626F030E636F000E656F0A0E646F39ECF9
:10016000F3F0C5ECF9F0000E0001606F040E616F52
:100170003F0E626F030E636FD8ECF1F075ECF9F08F
:10018000000E0001606F040E616F3EECF8F0000994
:10019000D8B4CDEF80F0CFEF80F0D5EF80F0F5EC64
:1001A000F9F0D8ECCEF0E6EF80F0A30E0001C16FBD
:1001B000570EC06F020EE82EFED7C02FFCD7C12FFE
:1001C000FAD700F00CEF94F00CEF94F0F50E00016C
:1001D000606F000E616FE10E626F000E636F000EC4
:1001E000656F0A0E646F0EECE7F00001605161115B
:1001F000D8A4FDEF80F0FFEF80F08DEF92F0E10EDC
:10020000606F000E616F670E626F010E636F000E0C
:10021000656F0A0E646F39ECF3F0000E0001606F39
:10022000020E616F060E626FF90E636F000E656F4E
:10023000040E646F0EECE7F0000160516111D8A468
:1002400024EF81F026EF81F04BEF81F0B9ECFAF06A
:10025000D90E0001766FFC0E776F020E786F2FECCF
:10026000EAF0120E0001766FFC0E776F030E786FC6
:100270002FECEAF0000E0001DF6F4C0E786FF80EE5
:10028000796FF50E7A6F000E7B6F000E7C6F0DECB0
:1002900094F00CEF94F0000E606F020E616F250E6B
:1002A000626FF90E636F000E656F020E646F0EECE5
:1002B000E7F0000160516111D8A461EF81F063EFB4
:1002C00081F0D6EF81F0030E606F020E616F790E40
:1002D000626F010E636F000E656F060E646F0EECA9
:1002E000E7F0000160516111D8A479EF81F07BEF54
:1002F00081F0B1EF81F0B9ECFAF0480E0001766FB1
:10030000FE0E776F010E786F2FECEAF0450E0001BC
:10031000766FFF0E776F020E786F2FECEAF0790E92
:100320000001606F010E616F0A0E626F020E636F53
:10033000000E656F060E646F39ECF3F0AFECF2F06F
:10034000000E0001DF6F1C0E786FF70E796FF50E4F
:100350007A6F000E7B6F000E7C6F0DEC94F00CEF4B
:1003600094F0B9ECFAF0B40E0001766FFF0E776FDF
:10037000010E786F2FECEAF0480E0001766FFE0E4A
:10038000776F020E786F2FECEAF0000E0001DF6F3E
:10039000E20E786FF70E796FF50E7A6F000E7B6FB5
:1003A000000E7C6F0DEC94F00CEF94F0000E606F7B
:1003B000020E616F1B0E626FF90E636F000E656FA8
:1003C000030E646F0EECE7F0000160516111D8A4D8
:1003D000ECEF81F0EEEF81F008EF85F0030EA0EC7A
:1003E000D2F01D6EB9ECFAF05B0E0001766FFC0ED8
:1003F000776F010E786F2FECEAF0B90E0001766F7F
:10040000F90E776F020E786F2FECEAF0E10E000123
:10041000B86F000EB96F6D0EBA6FFF0EBB6F010E95
:100420001D24BC6FBD6B000EBD236BECF6F0E10E1E
:100430000001766F000E776F030E786F2FECEAF0F5
:10044000000E0101FC6F000EFB6F010EFA6F060E2D
:100450000001DF6F000E0001DF25D96EDA6A020E9F
:10046000DA22DF50DDECF9F00009D8B43AEF82F07F
:100470003CEF82F08EEF83F0010E0001DF25D96E94
:10048000DA6A020EDA22200EDE18D8A44AEF82F0D1
:100490004CEF82F06DEF82F0000EDF25D96EDA6A44
:1004A000020EDA22000EDF25E16EE26A020EE2227F
:1004B000E750D00FDF6E000E0001DF25D96EDA6A3B
:1004C000020EDA22DF50C06FC0510101FB25FB6F25
:1004D000000EFC21FC6FC3EF83F0000EDF25D96E08
:1004E000DA6A020EDA22000EDF25E16EE26A020EFF
:1004F000E222E750D00FDF6E000EDF25D96EDA6AF8
:10050000020EDA22DF500A0D000EDF25D96EDA6AFC
:10051000020EDA22F3CFDFFFFBC160F0FCC161F015
:10052000000E636F0A0E626F7EECFAF060C0FBF1A2
:1005300061C0FCF15BEF82F01D502D0DE00EF32445
:10054000D96E040EF420DA6EFBC1DEFFFCC1DDFFC4
:10055000000E0101FC6F000EFB6FC1EF83F01D5018
:100560002D0DFA0EF324D96E040EF420DA6EFBC1C1
:10057000DFFFA8EF82F01D502D0DFB0EF324D96E86
:10058000040EF420DA6EFBC1DFFFA8EF82F01D50ED
:100590002D0DFC0EF324D96E040EF420DA6EFBC18F
:1005A000DFFFA8EF82F01D502D0DDC0EF324D96E75
:1005B000040EF420DA6EFBC1DEFFFCC1DDFFA8EF04
:1005C00082F01D502D0DDE0EF324D96E040EF420A2
:1005D000DA6EFBC1DEFFFCC1DDFFA8EF82F01D502B
:1005E0002D0D010EF324D96E050EF420DA6EFBC139
:1005F000DFFFA8EF82F01D502D0D030EF324D96EFE
:10060000050EF420DA6EFBC1DFFF1D502D0D040E28
:10061000F324D96E050EF420DA6EFBC1DFFFA8EFDC
:1006200082F00101FB5144ECC8F0000E0101FC6FA7
:10063000000EFB6F1D502D0DFD0EF324D96E040E20
:10064000F420DA6EC9C0DFFF1D502D0DFE0EF3241D
:10065000D96E040EF420DA6ED6C0DFFF1D502D0DCA
:10066000FF0EF324D96E040EF420DA6ED7C0DFFF3C
:100670001D502D0D050EF324D96E050EF420DA6EF3
:10068000000EDF6E1D502D0D060EF324D96E050EE3
:10069000F420DA6E010EDF6E1D502D0DE20EF324F4
:1006A000D96E040EF420DA6E000EDE6E000EDD6EE2
:1006B0001D502D0DE40EF324D96E040EF420DA6ED5
:1006C000000EDE6E000EDD6E1D502D0D000EF324AB
:1006D000D96E050EF420DA6E000EDF6E1D502D0D62
:1006E000070EF324D96E050EF420DA6E000EDF6ECD
:1006F0001D502D0D020EF324D96E050EF420DA6E76
:10070000000EDF6E1D502D0D080EF324D96E050E60
:10071000F420DA6E000EDF6EC1EF83F00101FA51B2
:100720000001C06FC16BC151000AD8B49AEF83F0C9
:10073000C1EF83F0C051010AD8B49CEF82F0030AE4
:10074000D8B4AFEF82F0010AD8B4BBEF82F0070A49
:10075000D8B4C7EF82F0010AD8B4D3EF82F0030A0D
:10076000D8B4E1EF82F0010AD8B4EFEF82F00F0ABB
:10077000D8B4FBEF82F0010AD8B411EF83F0C1EFD7
:1007800083F00101FA2B0001DF2B090E0101FA654C
:10079000CCEF83F0CEEF83F02AEF82F0090E000158
:1007A000C16F1E0EC06FE40EE82EFED7C02FFCD71F
:1007B000C12FFAD700F01D50020D110EF324F66E72
:1007C000EC0EF420F76EF86A000EF8220900F5CF5F
:1007D00063F00A00F5CF64F01D502D0DDC0EF324FC
:1007E0000001656F040EF420666F13ECDAF0090E59
:1007F0000001C16F1E0EC06FE40EE82EFED7C02FA1
:10080000FCD7C12FFAD700F01D50020D110EF324B2
:10081000F66EEC0EF420F76EF86A000EF82209006E
:10082000F5CF63F00A00F5CF64F01D502D0DDC0EFE
:10083000F3240001656F040EF420666FD7ECEDF031
:10084000090E0001C16F1E0EC06FE40EE82EFED728
:10085000C02FFCD7C12FFAD700F01D50020D110E8A
:10086000F324F66EEC0EF420F76EF86A000EF82210
:100870000900F5CF63F00A00F5CF64F01D502D0D8F
:10088000DC0EF3240001656F040EF420666F46EC65
:10089000F7F0090E0001C16F1E0EC06FE40EE82EC6
:1008A000FED7C02FFCD7C12FFAD700F01D50020D84
:1008B000110EF324F66EEC0EF420F76EF86A000EBB
:1008C000F8220900F5CF63F00A00F5CF64F01D505F
:1008D0002D0DDC0EF3240001656F040EF420666F0D
:1008E00070ECF7F0090E0001C16F1E0EC06FE40E30
:1008F000E82EFED7C02FFCD7C12FFAD700F01D502D
:10090000020D110EF324F66EEC0EF420F76EF86A69
:10091000000EF8220900F5CF63F00A00F5CF64F06D
:100920001D502D0DDC0EF3240001656F040EF42024
:10093000666F1CECF7F0090E0001C16F1E0EC06F50
:10094000E40EE82EFED7C02FFCD7C12FFAD700F057
:100950001D50020D110EF324F66EEC0EF420F76E0E
:10096000F86A000EF8220900F5CF63F00A00F5CF0F
:1009700064F01D502D0DDC0EF3240001656F040E94
:10098000F420666FB2ECB9F0090E0001C16F1E0EC3
:10099000C06FE40EE82EFED7C02FFCD7C12FFAD7C8
:1009A00000F0090E1D60D7EF84F0D9EF84F0E1EF7D
:1009B00084F0300E0001E16F1D50310FE26FF7EF50
:1009C00084F0080E1D64E7EF84F0E9EF84F0F7EFA0
:1009D00084F00C0E1D60EFEF84F0F1EF84F0F7EF80
:1009E00084F0310E0001E16F1D50270FE26F000E01
:1009F0000001DF6FA80E786FF50E796FF50E7A6F34
:100A0000000E7B6F020E7C6F0DEC94F00CEF94F0F7
:100A1000000E606F020E616F010E626FF90E636F60
:100A2000000E656F040E646F0EECE7F0000160517C
:100A30006111D8A41EEF85F020EF85F0F1EF85F06D
:100A4000040EA0ECD2F01D6E1D502D0D050EF324EA
:100A5000D96E050EF420DA6EDE04D8A432EF85F0EC
:100A600034EF85F037EF85F0010E0001D06F1D5097
:100A70002D0D060EF324D96E050EF420DA6E000E4D
:100A8000DF6E1D502D0D070EF324D96E050EF420D8
:100A9000DA6EDE04D8A44FEF85F051EF85F091EFC8
:100AA00085F01D502D0D070EF324D96E050EF42090
:100AB000DA6E000EDF6E090E0001C16F1E0EC06FF0
:100AC000E40EE82EFED7C02FFCD7C12FFAD700F0D6
:100AD0001D50020D110EF324F66EEC0EF420F76E8D
:100AE000F86A000EF8220900F5CF63F00A00F5CF8E
:100AF00064F01D502D0DDC0EF3240001656F040E13
:100B0000F420666FB2ECB9F0090E0001C16F1E0E41
:100B1000C06FE40EE82EFED7C02FFCD7C12FFAD746
:100B200000F01D50020D110EF324F66EEC0EF420B1
:100B3000F76EF86A000EF8220900F5CF63F00A009C
:100B4000F5CF64F01D502D0DDC0EF3240001656F10
:100B5000040EF420666F1CECF7F0090E0001C16F63
:100B60001E0EC06FE40EE82EFED7C02FFCD7C12F9B
:100B7000FAD700F0090E1D60C0EF85F0C2EF85F0D6
:100B8000CAEF85F0300E0001E16F1D50310FE26FAA
:100B9000E0EF85F0080E1D64D0EF85F0D2EF85F010
:100BA000E0EF85F00C0E1D60D8EF85F0DAEF85F0F0
:100BB000E0EF85F0310E0001E16F1D50270FE26F6D
:100BC000000E0001DF6F010E786FF40E796FF50EE5
:100BD0007A6F000E7B6F020E7C6F0DEC94F00CEFC1
:100BE00094F0000E606F020E616FD20E626FF80E0D
:100BF000636F000E656F060E646F0EECE7F0000188
:100C000060516111D8A407EF86F009EF86F004EF78
:100C100089F0000E0101FC6F000EFB6F000EFA6FF1
:100C2000060EA0ECD2F01D6E1D502D0D060EF32405
:100C3000D96E050EF420DA6EDF50D8A422EF86F0CC
:100C400024EF86F05BEF86F0090E1D602AEF86F038
:100C50002CEF86F034EF86F0300E0001E16F1D506E
:100C6000310FE26F4AEF86F0080E1D643AEF86F00E
:100C70003CEF86F04AEF86F00C0E1D6042EF86F0E6
:100C800044EF86F04AEF86F0310E0001E16F1D500F
:100C9000270FE26F000E0001DF6FB80E786FF00EC5
:100CA000796FF50E7A6F000E7B6F020E7C6F0DEC84
:100CB00094F00CEF94F0090E0001DF6F000E0001BC
:100CC000DF25D96EDA6A020EDA22DF50DDECF9F0A8
:100CD0000009D8B46EEF86F070EF86F0D0EF86F0A2
:100CE000010E0001DF25D96EDA6A020EDA22200E2B
:100CF000DE18D8A47EEF86F080EF86F0A1EF86F0B4
:100D0000000EDF25D96EDA6A020EDA22000EDF2528
:100D1000E16EE26A020EE222E750D00FDF6E000EB3
:100D20000001DF25D96EDA6A020EDA22DF50C06FC9
:100D3000C0510101FB25FB6F000EFC21FC6F7CEF15
:100D400088F0000EDF25D96EDA6A020EDA22000E74
:100D5000DF25E16EE26A020EE222E750D00FDF6E7D
:100D6000000EDF25D96EDA6A020EDA22DF500A0D94
:100D7000000EDF25D96EDA6A020EDA22F3CFDFFF2A
:100D8000FBC160F0FCC161F0000E636F0A0E626F80
:100D90007EECFAF060C0FBF161C0FCF18FEF86F0F1
:100DA0000101FA2B32EF88F01D502D0DE20EF324D5
:100DB000D96E040EF420DA6EFBC1DEFFFCC1DDFF4C
:100DC000000E0101FC6F000EFB6F7CEF88F01D50E0
:100DD0002D0DE40EF324D96E040EF420DA6EFBC15F
:100DE000DEFFFCC1DDFFE0EF86F01D502D0D000E93
:100DF000F324D96E050EF420DA6EFBC1DFFFE0EFBD
:100E000086F01D502D0DE60EF324D96E040EF4204D
:100E1000DA6EFBC1DEFFFCC1DDFFE0EF86F01D50A6
:100E20002D0DEE0EF324D96E040EF420DA6EFBC104
:100E3000DEFFFCC1DDFFE0EF86F01D502D0DF60E4C
:100E4000F324D96E040EF420DA6EFBC1DFFFE0EF6D
:100E500086F01D502D0DE80EF324D96E040EF420FB
:100E6000DA6EFBC1DEFFFCC1DDFFE0EF86F01D5056
:100E70002D0DF00EF324D96E040EF420DA6EFBC1B2
:100E8000DEFFFCC1DDFFE0EF86F01D502D0DF70EFB
:100E9000F324D96E040EF420DA6EFBC1DFFFE0EF1D
:100EA00086F01D502D0DEA0EF324D96E040EF420A9
:100EB000DA6EFBC1DEFFFCC1DDFFE0EF86F01D5006
:100EC0002D0DF20EF324D96E040EF420DA6EFBC160
:100ED000DEFFFCC1DDFFE0EF86F01D502D0DF80EAA
:100EE000F324D96E040EF420DA6EFBC1DFFFE0EFCD
:100EF00086F01D502D0DEC0EF324D96E040EF42057
:100F0000DA6EFBC1DEFFFCC1DDFFE0EF86F01D50B5
:100F10002D0DF40EF324D96E040EF420DA6EFBC10D
:100F2000DEFFFCC1DDFFE0EF86F01D502D0DF90E58
:100F3000F324D96E040EF420DA6EFBC1DFFF1D50DE
:100F40002D0D020EF324D96E050EF420DA6E000E7C
:100F5000DF6E1D502D0D080EF324D96E050EF42002
:100F6000DA6E000EDF6E000E0101FC6F000EFB6FEB
:100F70001D502D0DE00EF324D96E040EF420DA6E10
:100F80001D502D0DE40EF324E16E040EF420E26EEC
:100F9000E6CFC2F0E5CFC3F01D502D0DE20EF324D5
:100FA000E16E040EF420E26EE6CFC4F0E5CFC5F0AA
:100FB0000001C251C427C351C523DE50C45DDE50B9
:100FC000C559D8A0E6EF87F0E8EF87F026EF88F064
:100FD0001D502D0D070EF324D96E050EF420DA6E88
:100FE000000EDF6E090E1D60F8EF87F0FAEF87F054
:100FF00001EF88F0300EE16F1D50310FE26F16EFF8
:1010000088F0080E1D6407EF88F009EF88F016EFEE
:1010100088F00C0E1D600FEF88F011EF88F016EFCE
:1010200088F0310EE16F1D50270FE26F000EDF6F69
:10103000CD0E786FF20E796FF50E7A6F000E7B6F22
:10104000020E7C6F0DEC94F07CEF88F01D502D0D9E
:10105000070EF324D96E050EF420DA6E010EDF6E52
:101060007CEF88F0FA510001C06FC16BC151000ADA
:10107000D8B43DEF88F07CEF88F0C051010AD8B4B5
:10108000D4EF86F0030AD8B4E7EF86F0010AD8B4AB
:10109000F5EF86F0070AD8B401EF87F0010AD8B45B
:1010A0000FEF87F0030AD8B41DEF87F0010AD8B418
:1010B00029EF87F00F0AD8B437EF87F0010AD8B4C8
:1010C00045EF87F0030AD8B451EF87F0010AD8B48E
:1010D0005FEF87F0070AD8B46DEF87F0010AD8B444
:1010E00079EF87F0030AD8B487EF87F0010AD8B404
:1010F00095EF87F07CEF88F00001DF2B0E0E0101E9
:10110000FA6585EF88F087EF88F05EEF86F01D5076
:101110002D0D070EF324D96E050EF420DA6EDF5084
:10112000D8B495EF88F097EF88F00CEF94F0090EA3
:101130000001C16F1E0EC06FE40EE82EFED7C02F57
:10114000FCD7C12FFAD700F01D50020D110EF32469
:10115000F66EEC0EF420F76EF86A000EF822090025
:10116000F5CF63F00A00F5CF64F01D502D0DDC0EB5
:10117000F3240001656F040EF420666FB2ECB9F041
:10118000090E0001C16F1E0EC06FE40EE82EFED7DF
:10119000C02FFCD7C12FFAD700F0090E1D60D3EF86
:1011A00088F0D5EF88F0DDEF88F0300E0001E16FB8
:1011B0001D50310FE26FF3EF88F0080E1D64E3EF6E
:1011C00088F0E5EF88F0F3EF88F00C0E1D60EBEF90
:1011D00088F0EDEF88F0F3EF88F0310E0001E16F59
:1011E0001D50270FE26F000E0001DF6F560E786F63
:1011F000F60E796FF50E7A6F000E7B6F020E7C6F24
:101200000DEC94F00CEF94F0000E606F020E616F25
:10121000AE0E626FF80E636F000E656F070E646F9F
:101220000EECE7F0000160516111D8A41AEF89F0CB
:101230001CEF89F0CBEF89F0070EA0ECD2F01D6E09
:101240001D502D0D050EF324D96E050EF420DA6E17
:10125000DE04D8A42EEF89F030EF89F044EF89F056
:101260001D502D0D020EF324D96E050EF420DA6EFA
:10127000030EDE18D8B43FEF89F041EF89F044EF58
:1012800089F0010E0001D06F1D502D0D070EF324C3
:10129000D96E050EF420DA6EDE04D8A452EF89F080
:1012A00054EF89F0E4EF80F01D502D0D070EF3246C
:1012B000D96E050EF420DA6E000EDF6E090E000105
:1012C000C16F1E0EC06FE40EE82EFED7C02FFCD7F4
:1012D000C12FFAD700F01D50020D110EF324F66E47
:1012E000EC0EF420F76EF86A000EF8220900F5CF34
:1012F00063F00A00F5CF64F01D502D0DDC0EF324D1
:101300000001656F040EF420666FB2ECB9F0090EAF
:101310000001C16F1E0EC06FE40EE82EFED7C02F75
:10132000FCD7C12FFAD700F0090E1D609AEF89F0A3
:101330009CEF89F0A4EF89F0300E0001E16F1D50A1
:10134000310FE26FBAEF89F0080E1D64AAEF89F041
:10135000ACEF89F0BAEF89F00C0E1D60B2EF89F0A6
:10136000B4EF89F0BAEF89F0310E0001E16F1D5042
:10137000270FE26F000E0001DF6FEF0E786FF50EA2
:10138000796FF50E7A6F000E7B6F020E7C6F0DEC9D
:1013900094F00CEF94F0000E606F020E616FCB0EB4
:1013A000626FF80E636F000E656F060E646F0EECD1
:1013B000E7F0000160516111D8A4E1EF89F0E3EF9B
:1013C00089F0DEEF8AF0000E0101FC6F000EFB6F6A
:1013D000000EFA6F060E0001DF6F000E0001DF2520
:1013E000D96EDA6A020EDA22DF50DDECF9F000097C
:1013F000D8B4FDEF89F0FFEF89F05FEF8AF0010EBE
:101400000001DF25D96EDA6A020EDA22200EDE181C
:10141000D8A40DEF8AF00FEF8AF030EF8AF0000EBB
:10142000DF25D96EDA6A020EDA22000EDF25E16EC0
:10143000E26A020EE222E750D00FDF6E000E0001DA
:10144000DF25D96EDA6A020EDA22DF50C06FC05192
:101450000101FB25FB6F000EFC21FC6FA6EF8AF05B
:10146000000EDF25D96EDA6A020EDA22000EDF25C1
:10147000E16EE26A020EE222E750D00FDF6E000E4C
:10148000DF25D96EDA6A020EDA22DF500A0D000E6D
:10149000DF25D96EDA6A020EDA22F3CFDFFFFBC155
:1014A00060F0FCC161F0000E636F0A0E626F7EECAB
:1014B000FAF060C0FBF161C0FCF11EEF8AF001019F
:1014C000FA2B84EF8AF0FBC117F0000E0101FC6FCC
:1014D000000EFB6FA6EF8AF0FBC116F065EF8AF0F5
:1014E000FBC115F065EF8AF0FBC114F065EF8AF0DF
:1014F000FBC1CBF0CC6B000E0101FC6F000EFB6F4B
:10150000010E0E6EA6EF8AF0FA510001C06FC16B9A
:10151000C151000AD8B48FEF8AF0A6EF8AF0C0510B
:10152000010AD8B463EF8AF0030AD8B46CEF8AF0EA
:10153000010AD8B470EF8AF0070AD8B474EF8AF0C1
:10154000010AD8B478EF8AF0A6EF8AF00001DF2B09
:10155000040E0101FA65AFEF8AF0B1EF8AF0EDEF0A
:1015600089F0090E0001C16F1E0EC06FE40EE82E57
:10157000FED7C02FFCD7C12FFAD700F0AAECDDF0C0
:10158000090E0001C16F1E0EC06FE40EE82EFED7DB
:10159000C02FFCD7C12FFAD700F0000E0001DF6F7B
:1015A000AE0E786FF70E796FF50E7A6F000E7B6FC7
:1015B000000E7C6F0DEC94F00CEF94F0000E606F59
:1015C000020E616FA60E626FF80E636F000E656FFC
:1015D000070E646F0EECE7F0000160516111D8A4B2
:1015E000F4EF8AF0F6EF8AF025EF8BF0000E0E6E26
:1015F000090E0001C16F1E0EC06FE40EE82EFED76B
:10160000C02FFCD7C12FFAD700F0AAECDDF0090EED
:101610000001C16F1E0EC06FE40EE82EFED7C02F72
:10162000FCD7C12FFAD700F0000E0001DF6F5B0E70
:10163000786FF70E796FF50E7A6F000E7B6F000EE4
:101640007C6F0DEC94F00CEF94F0000E606F020EC6
:10165000616FF10E626FF80E636F000E656F050E1D
:10166000646F0EECE7F0000160516111D8A43BEF0C
:101670008BF03DEF8BF065EF8BF00E50D8B443EF5D
:101680008BF045EF8BF055EF8BF0000EDF6F930E74
:10169000786FF70E796FF50E7A6F000E7B6F080E7C
:1016A0007C6F0DEC94F00CEF94F0000EDF6FFC0EED
:1016B000786FF60E796FF50E7A6F000E7B6F000E65
:1016C0007C6F0DEC94F00CEF94F0000E606F020E46
:1016D000616FF70E626FF80E636F000E656F040E98
:1016E000646F0EECE7F0000160516111D8A47BEF4C
:1016F0008BF07DEF8BF062EF8CF0000E0101FC6F40
:10170000000EFB6F000EFA6F050E0001DF6F000E7A
:101710000001DF25D96EDA6A020EDA22DF50DDEC35
:10172000F9F00009D8B497EF8BF099EF8BF029EF1F
:101730008CF0000E0001DF25D96EDA6A020EDA2283
:10174000000EDF25E16EE26A020EE222E750D00FC2
:10175000DF6E000EDF25D96EDA6A020EDA22DF5064
:10176000C06FC0510101FB6FFC6BFBC160F0FCC19D
:1017700061F0000E0001636F0A0E626F7EECFAF0FA
:1017800060C0FBF161C0FCF1010E0001DF25D96EE4
:10179000DA6A020EDA22010EDF25E16EE26A020E3B
:1017A000E222E750D00FDF6E010EDF25D96EDA6A34
:1017B000020EDA22DF50C06FC0510101FB25FB6F22
:1017C000000EFC21FC6FFA2B03EF8CF0FBC1DBF069
:1017D000000E0101FC6F000EFB6F3AEF8CF0FBC1B5
:1017E000DCF0E8EF8BF0FBC1DDF0E8EF8BF0FBC144
:1017F000DAF0E8EF8BF0FBC1D9F0E8EF8BF0FBC13A
:10180000D8F0E8EF8BF0FA510001C06FC16BC15105
:10181000000AD8B40EEF8CF03AEF8CF0C051010AF8
:10182000D8B4E6EF8BF0030AD8B4EFEF8BF0010ADF
:10183000D8B4F3EF8BF0070AD8B4F7EF8BF0010AB6
:10184000D8B4FBEF8BF0030AD8B4FFEF8BF03AEF7C
:101850008CF0000E0001DF6F780E786FF70E796F55
:10186000F50E7A6F000E7B6F000E7C6F0DEC94F01E
:101870000CEF94F0030E0001DF27050E0101FA655D
:1018800044EF8CF046EF8CF087EF8BF0060EFA19E0
:10189000D8A44DEF8CF04FEF8CF051EF8CF050EC62
:1018A000F0F0000E0001DF6FBD0E786FF40E796F5F
:1018B000F50E7A6F000E7B6F000E7C6F0DEC94F0CE
:1018C0000CEF94F0000E606F020E616FFC0E626F01
:1018D000F80E636F000E656F040E646F0EECE7F098
:1018E000000160516111D8A478EF8CF07AEF8CF090
:1018F00033EF8DF09EECEEF0DBC060F00001616B29
:10190000000E636F0A0E626F3BECEEF00001605157
:10191000300FE16FDBC072F0736B000E756F0A0E53
:10192000746FFAECEEF000017251300FE26F2F0E7F
:10193000E36FDCC060F0616B000E636F0A0E626FD4
:101940003BECEEF000016051300FE46FDCC072F050
:10195000736B000E756F0A0E746FFAECEEF00001F7
:101960007251300FE56F2F0EE66FDDC060F0616BD6
:10197000000E636F0A0E626F3BECEEF000016051E7
:10198000300FE76FDDC072F0736B000E756F0A0EDB
:10199000746FFAECEEF000017251300FE86F200E18
:1019A000E96FDAC060F0616B000E636F0A0E626F60
:1019B0003BECEEF000016051300FEA6FDAC072F0DC
:1019C000736B000E756F0A0E746FFAECEEF0000187
:1019D0007251300FEB6F3A0EEC6FD9C060F0616B53
:1019E000000E636F0A0E626F3BECEEF00001605177
:1019F000300FED6FD9C072F0736B000E756F0A0E69
:101A0000746FFAECEEF000017251300FEE6F3A0E87
:101A1000EF6FD8C060F0616B000E636F0A0E626FEB
:101A20003BECEEF000016051300FF06FD8C072F067
:101A3000736B000E756F0A0E746FFAECEEF0000116
:101A40007251300FF16F000EDF6F6C0E786FF80E71
:101A5000796FF50E7A6F000E7B6F030E7C6F0DECC5
:101A600094F00CEF94F0000E606F020E616F9E0E0A
:101A7000626FF80E636F000E656F070E646F0EECF9
:101A8000E7F0000160516111D8A449EF8DF04BEFF0
:101A90008DF0A4EF8DF0070EA0ECD2F01D6E090EB4
:101AA0001D6055EF8DF057EF8DF05FEF8DF0300E2C
:101AB0000001E16F1D50310FE26F75EF8DF0080EE0
:101AC0001D6465EF8DF067EF8DF075EF8DF00C0EF6
:101AD0001D606DEF8DF06FEF8DF075EF8DF0310EB5
:101AE0000001E16F1D50270FE26F000E0001DF6F54
:101AF0001D502D0D060EF324D96E050EF420DA6E5E
:101B0000DF50D8B486EF8DF088EF8DF096EF8DF032
:101B10007B0E786FF80E796FF50E7A6F000E7B6F83
:101B2000070E7C6F0DEC94F00CEF94F0370E786F8D
:101B3000F50E796FF50E7A6F000E7B6F020E7C6FDB
:101B40000DEC94F00CEF94F0000E606F020E616FDC
:101B5000220E626FF90E636F000E656F020E646FE6
:101B60000EECE7F0000160516111D8A4BAEF8DF0DE
:101B7000BCEF8DF0B4EF8EF090A0C1EF8DF0C3EF0D
:101B80008DF0D4EF8DF0000E0001DF6FD00E786F76
:101B9000F30E796FF50E7A6F000E7B6F000E7C6F7F
:101BA0000DEC94F00CEF94F0000E0101FC6F000EB0
:101BB000FB6F000EFA6F010EFA6F030E0001DF6F6C
:101BC000000E0001DF25D96EDA6A020EDA22DF503C
:101BD000DDECF9F00009D8B4F0EF8DF0F2EF8DF004
:101BE00063EF8EF0010E0001DF25D96EDA6A020E76
:101BF000DA22200EDE18D8A400EF8EF002EF8EF06D
:101C000023EF8EF0000EDF25D96EDA6A020EDA229B
:101C1000000EDF25E16EE26A020EE222E750D00FED
:101C2000DF6E000E0001DF25D96EDA6A020EDA22BD
:101C3000DF50C06FC0510101FB25FB6F000EFC217E
:101C4000FC6F7CEF8EF0000EDF25D96EDA6A020E93
:101C5000DA22000EDF25E16EE26A020EE222E75090
:101C6000D00FDF6E000EDF25D96EDA6A020EDA229F
:101C7000DF500A0D000EDF25D96EDA6A020EDA2275
:101C8000F3CFDFFFFBC160F0FCC161F0000E636FBA
:101C90000A0E626F7EECFAF060C0FBF161C0FCF1ED
:101CA00011EF8EF0FBC106F1FCC107F1000E01013E
:101CB000FC6F000EFB6F7AEF8EF0FBC120F0FCC1D1
:101CC00021F056EF8EF00101FA510001C06FC16B97
:101CD000C151000AD8B46FEF8EF07AEF8EF0C05188
:101CE000010AD8B452EF8EF0030AD8B45DEF8EF03B
:101CF0007AEF8EF00101FA2B0001DF2B020E0101B9
:101D0000FA6585EF8EF087EF8EF0E0EF8DF0090E2B
:101D10000001C16F1E0EC06FE40EE82EFED7C02F6B
:101D2000FCD7C12FFAD700F073ECE6F0090E0001E2
:101D3000C16F1E0EC06FE40EE82EFED7C02FFCD779
:101D4000C12FFAD700F0000E0001DF6FCC0E786FC4
:101D5000F50E796FF50E7A6F000E7B6F000E7C6FBB
:101D60000DEC94F00CEF94F0000E606F020E616FBA
:101D7000EB0E626FF80E636F000E656F050E646FF9
:101D80000EECE7F0000160516111D8A4CAEF8EF0AB
:101D9000CCEF8EF0DDEF8EF0000E0001DF6F600EF5
:101DA000786FF40E796FF50E7A6F000E7B6F050E6B
:101DB0007C6F0DEC94F00CEF94F0000E606F020E4F
:101DC000616F960E626FF80E636F000E656F070EFF
:101DD000646F0EECE7F0000160516111D8A4F3EFDD
:101DE0008EF0F5EF8EF058EF8FF0070EA0ECD2F0EA
:101DF0001D6E090E0001C16F1E0EC06FE40EE82EAD
:101E0000FED7C02FFCD7C12FFAD700F01D50A1EC90
:101E1000F0F0090E1D600FEF8FF011EF8FF019EF4A
:101E20008FF0300E0001E16F1D50310FE26F2FEF88
:101E30008FF0080E1D641FEF8FF021EF8FF02FEF52
:101E40008FF00C0E1D6027EF8FF029EF8FF02FEF32
:101E50008FF0310E0001E16F1D50270FE26F00017E
:101E6000D451D8B436EF8FF038EF8FF048EF8FF0C1
:101E7000000ED46F0F0E786FF50E796FF50E7A6F36
:101E8000000E7B6F020E7C6F0DEC94F00CEF94F063
:101E9000000EDF6F8F0E786FF40E796FF50E7A6F8C
:101EA000000E7B6F060E7C6F0DEC94F00CEF94F03F
:101EB000000E606F020E616F170E626FF90E636F96
:101EC000000E656F030E646F0EECE7F000016051C9
:101ED0006111D8A46EEF8FF070EF8FF0EDEF8FF0FF
:101EE000030EA0ECD2F01D6E090E0001C16F1E0E94
:101EF000C06FE40EE82EFED7C02FFCD7C12FFAD753
:101F000000F090A086EF8FF088EF8FF08AEF8FF0CF
:101F1000C3EF8DF0090E1D6090EF8FF092EF8FF000
:101F20009AEF8FF0300E0001E16F1D50310FE26F1C
:101F3000B0EF8FF0080E1D64A0EF8FF0A2EF8FF0CE
:101F4000B0EF8FF00C0E1D60A8EF8FF0AAEF8FF0AE
:101F5000B0EF8FF0310E0001E16F1D50270FE26FDF
:101F6000CB0E0001C16FEC0EC06F840EE82EFED7C1
:101F7000C02FFCD7C12FFAD700F0CB0E0001C16FE4
:101F8000EC0EC06F840EE82EFED7C02FFCD7C12FF9
:101F9000FAD700F01DC06DF0010E38ECC3F0520E00
:101FA0000001C16F2B0EC06F000EE82EFED7C02FB0
:101FB000FCD7C12FFAD700F073ECE6F0520E000107
:101FC000C16F2B0EC06F000EE82EFED7C02FFCD7BE
:101FD000C12FFAD700F0CCEF8EF0000E606F020E2A
:101FE000616FC40E626FF80E636F000E656F060EB0
:101FF000646F0EECE7F0000160516111D8A403EFAB
:1020000090F005EF90F0E4EF80F0000E0101FC6F1E
:10201000000EFB6F000EFA6F070E0001DF6F000E5F
:102020000001DF25D96EDA6A020EDA22DF50DDEC1C
:10203000F9F00009D8B41FEF90F021EF90F09BEF7A
:1020400090F0000E0001DF25D96EDA6A020EDA2266
:10205000000EDF25E16EE26A020EE222E750D00FA9
:10206000DF6E000EDF25D96EDA6A020EDA22DF504B
:10207000C06FC0510101FB6FFC6BFBC160F0FCC184
:1020800061F0000E0001636F0A0E626F7EECFAF0E1
:1020900060C0FBF161C0FCF1010E0001DF25D96ECB
:1020A000DA6A020EDA22010EDF25E16EE26A020E22
:1020B000E222E750D00FDF6E010EDF25D96EDA6A1B
:1020C000020EDA22DF50C06FC0510101FB25FB6F09
:1020D000000EFC21FC6FFA2B81EF90F0FBC1F8F1B0
:1020E000000E0101FC6F000EFB6F9BEF90F0FBC137
:1020F000F9F170EF90F00101FB5144ECC8F070EF82
:1021000090F0FA510001C06FC16BC151000AD8B400
:102110008CEF90F09BEF90F0C051010AD8B46EEFB5
:1021200090F0030AD8B477EF90F0010AD8B47BEFAF
:1021300090F09BEF90F0030E0001DF27020E0101EB
:10214000FA65A5EF90F0A7EF90F00FEF90F0000E7A
:102150001D6E74EF92F01D502D0DE00EF324D96E1C
:10216000040EF420DA6E0F0EDE6E000EDD6E1D50D2
:102170002D0DFA0EF324D96E040EF420DA6E010E42
:10218000DF6E1D502D0DFB0EF324D96E040EF420CE
:10219000DA6EF8C1DFFF1D502D0DFC0EF324D96E51
:1021A000040EF420DA6EF9C1DFFF1D502D0DFD0E77
:1021B000F324D96E040EF420DA6EC9C0DFFF1D507F
:1021C0002D0DFE0EF324D96E040EF420DA6ED6C067
:1021D000DFFF1D502D0DFF0EF324D96E040EF420E9
:1021E000DA6ED7C0DFFF1D502D0DDC0EF324D96E43
:1021F000040EF420DA6E640EDE6E000EDD6E1D50ED
:102200002D0DDE0EF324D96E040EF420DA6E300E9E
:10221000DE6E750EDD6E1D502D0D010EF324D96E90
:10222000050EF420DA6E1D28DF6E1D502D0D050EF3
:10223000F324D96E050EF420DA6E000EDF6E1D5009
:102240002D0D030EF324D96E050EF420DA6E020E66
:10225000DF6E1D502D0D040EF324D96E050EF420F3
:10226000DA6E020EDF6E1D502D0D060EF324D96EB0
:10227000050EF420DA6E010EDF6E1D502D0DE20EFC
:10228000F324D96E040EF420DA6E050EDE6E000E15
:10229000DD6E1D502D0DE40EF324D96E040EF420D6
:1022A000DA6E0F0EDE6E000EDD6E1D502D0D000E6F
:1022B000F324D96E050EF420DA6E1D28DF6E1D5052
:1022C0002D0D020EF324D96E050EF420DA6E000EE9
:1022D000DF6E1D502D0D080EF324D96E050EF4206F
:1022E000DA6E000EDF6E1D502D0D070EF324D96E31
:1022F000050EF420DA6E010EDF6E1D50020D110E78
:10230000F324F66EEC0EF420F76EF86A000EF82255
:102310000900F5CF63F00A00F5CF64F01D502D0DD4
:10232000DC0EF3240001656F040EF420666F13ECDD
:10233000DAF0090E0001C16F1E0EC06FE40EE82E28
:10234000FED7C02FFCD7C12FFAD700F01D50020DC9
:10235000110EF324F66EEC0EF420F76EF86A000E00
:10236000F8220900F5CF63F00A00F5CF64F01D50A4
:102370002D0DDC0EF3240001656F040EF420666F52
:10238000D7ECEDF0090E0001C16F1E0EC06FE40E18
:10239000E82EFED7C02FFCD7C12FFAD700F01D5072
:1023A000020D110EF324F66EEC0EF420F76EF86AAF
:1023B000000EF8220900F5CF63F00A00F5CF64F0B3
:1023C0001D502D0DDC0EF3240001656F040EF4206A
:1023D000666F46ECF7F0090E0001C16F1E0EC06F6C
:1023E000E40EE82EFED7C02FFCD7C12FFAD700F09D
:1023F0001D50020D110EF324F66EEC0EF420F76E54
:10240000F86A000EF8220900F5CF63F00A00F5CF54
:1024100064F01D502D0DDC0EF3240001656F040ED9
:10242000F420666F70ECF7F0090E0001C16F1E0E0C
:10243000C06FE40EE82EFED7C02FFCD7C12FFAD70D
:1024400000F01D50020D110EF324F66EEC0EF42078
:10245000F76EF86A000EF8220900F5CF63F00A0063
:10246000F5CF64F01D502D0DDC0EF3240001656FD7
:10247000040EF420666F1CECF7F0090E0001C16F2A
:102480001E0EC06FE40EE82EFED7C02FFCD7C12F62
:10249000FAD700F01D50020D110EF324F66EEC0E6B
:1024A000F420F76EF86A000EF8220900F5CF63F009
:1024B0000A00F5CF64F01D502D0DDC0EF324000151
:1024C000656F040EF420666FB2ECB9F0090E0001DE
:1024D000C16F1E0EC06FE40EE82EFED7C02FFCD7D2
:1024E000C12FFAD700F01D2A0B0E1D647AEF92F06F
:1024F0007CEF92F0ABEF90F0000E0001DF6F390E31
:10250000786FF80E796FF50E7A6F000E7B6F000E04
:102510007C6F0DEC94F00CEF94F0000E606F020EE7
:10252000616F250E626FF90E636F000E656F020E0C
:10253000646F0EECE7F0000160516111D8A4A3EFC5
:1025400092F0A5EF92F092EF93F0030E606F020EFF
:10255000616F790E626F010E636F000E656F060E7C
:10256000646F0EECE7F0000160516111D8A4BBEF7D
:1025700092F0BDEF92F05EEF93F01250D8B4C3EF3B
:1025800092F0C5EF92F0E8EF92F0B9ECFAF06A0E33
:102590000001766FFB0E776F020E786F2FECEAF07A
:1025A0009E0E0001766FFE0E776F030E786F2FEC94
:1025B000EAF0000E0001DF6F6B0E786FF30E796F9B
:1025C000F50E7A6F000E7B6F010E7C6F0DEC94F0B0
:1025D000790E0001606F010E616F0A0E626F020ECC
:1025E000636F000E656F060E646F39ECF3F0F50E45
:1025F0000001606F000E616FE10E626F000E636F8D
:10260000000E656F0A0E646F39ECF3F0010E126E66
:10261000E10E0001606F000E616F670E626F010EC8
:10262000636F000E656F0A0E646F39ECF3F0050EF0
:102630000001C16F0F0EC06FF10EE82EFED7C02F44
:10264000FCD7C12FFAD7AFECF2F0050E0001C16F35
:102650000F0EC06FF10EE82EFED7C02FFCD7C12F92
:10266000FAD7F4ECF2F0050E0001C16F0F0EC06F47
:10267000F10EE82EFED7C02FFCD7C12FFAD79AEC67
:10268000F7F0050E0001C16F0F0EC06FF10EE82EBE
:10269000FED7C02FFCD7C12FFAD7000E0001DF6F85
:1026A000F90E786FF70E796FF50E7A6F000E7B6F6B
:1026B000000E7C6F0DEC94F00CEF94F0B9ECFAF096
:1026C000C70E0001766FFD0E776F010E786F2FEC4D
:1026D000EAF06F0E0001766FFB0E776F020E786FD7
:1026E0002FECEAF0000E0001DF6FE20E786FF70EBC
:1026F000796FE10E7A6F000E7B6F000E7C6F0DEC30
:1027000094F0E10E0001606F000E616F670E626F62
:10271000010E636F000E656F0A0E646F39ECF3F003
:102720000CEF94F0000E606F020E616F060E626F88
:10273000F90E636F000E656F040E646F0EECE7F028
:10274000000160516111D8A4A8EF93F0AAEF93F0B3
:10275000CFEF93F0B9ECFAF0F70E0001766FFC0EB4
:10276000776F010E786F2FECEAF0740E0001766F30
:10277000FF0E776F020E786F2FECEAF0000E00016B
:10278000DF6F100E786FF80E796FE10E7A6F000E22
:102790007B6F000E7C6F0DEC94F081EF93F0000ED8
:1027A000606F020E616F8A0E626FF80E636F000E2B
:1027B000656F0B0E646F0EECE7F000016051611164
:1027C000D8A4E5EF93F0E7EF93F0D5EF80F0000E9B
:1027D000DF6F5D0E786FF80E796FE10E7A6F000E85
:1027E0007B6F040E7C6F0DEC94F081EF93F075EC31
:1027F000F9F0520E0001C16F2B0EC06F000EE82ED3
:10280000FED7C02FFCD7C12FFAD700F00CEF94F001
:1028100075ECF9F0D5EF80F012001E0E01013D6F4E
:10282000B20E0001616FFE0E626FC5ECF6F0050E90
:1028300000017E6F0F0E7D6FF10EE82EFED77D2F0B
:10284000FCD77E2FFAD77AC061F07BC062F00A0E07
:102850000001636FADECF8F0050E00017E6F0F0E06
:102860007D6FF10EE82EFED77D2FFCD77E2FFAD795
:10287000B70E0001616FFC0E626FC5ECF6F0090E39
:1028800000017E6F1E0E7D6FE40EE82EFED77D2FB9
:10289000FCD77E2FFAD700F078C061F079C062F0E3
:1028A000C5ECF6F0090E00017E6F1E0E7D6FE40E82
:1028B000E82EFED77D2FFCD77E2FFAD700F0C9EF88
:1028C0009BF0E10E616F000E626F0A0E636FADEC5C
:1028D000F8F0090E00017E6F1E0E7D6FE40EE82EEB
:1028E000FED77D2FFCD77E2FFAD700F0F7EF9BF0B5
:1028F000E10E616F000E626F020E636FADECF8F0D7
:1029000069EF94F0E10E616F000E626F110E636F5C
:10291000ADECF8F069EF94F0720E616F010E626F2A
:10292000060E636FADECF8F069EF94F006C105F0A8
:1029300007C106F005C066F006C067F0030E696FB8
:10294000E80E686F3BECF4F000016651300FEF6F5A
:10295000030E636FE80E626F05C060F006C061F0A1
:1029600017ECF5F060C066F061C067F0000E000182
:10297000696F640E686F3BECF4F000016651300F34
:10298000F06F000E636F640E626F05C060F006C0EA
:1029900061F017ECF5F060C066F061C067F0000E02
:1029A0000001696F0A0E686F3BECF4F0000166519C
:1029B000300FF16F05C060F006C061F0000E636F6C
:1029C0000A0E626F17ECF5F000016051300FF26FE4
:1029D000EF0E616F000E626F040E636FADECF8F0E6
:1029E000050E00017E6F0F0E7D6FF10EE82EFED7F3
:1029F0007D2FFCD77E2FFAD7BA0E0001616FFF0E34
:102A0000626FC5ECF6F0050E00017E6F0F0E7D6F54
:102A1000F10EE82EFED77D2FFCD77E2FFAD720C0EF
:102A200005F021C006F005C066F006C067F0030E91
:102A30000001696FE80E686F3BECF4F0000166512D
:102A4000300FEF6F030E636FE80E626F05C060F02A
:102A500006C061F017ECF5F060C066F061C067F089
:102A6000000E0001696F640E686F3BECF4F000012A
:102A70006651300FF06F000E636F640E626F05C019
:102A800060F006C061F017ECF5F060C066F061C060
:102A900067F0000E0001696F0A0E686F3BECF4F0FE
:102AA00000016651300FF16F05C060F006C061F0A3
:102AB000000E636F0A0E626F17ECF5F000016051B3
:102AC000300FF26FEF0E616F000E626F040E636FD6
:102AD000ADECF8F069EF94F0E10E616F000E626FFB
:102AE000020E636FADECF8F0050E00017E6F0F0E65
:102AF0007D6FF10EE82EFED77D2FFCD77E2FFAD703
:102B0000D20E0001616FFF0E626FC5ECF6F0050E8C
:102B100000017E6F0F0E7D6FF10EE82EFED77D2F28
:102B2000FCD77E2FFAD7C7C005F0C8C006F005C095
:102B300066F006C067F0270E0001696F100E686F1F
:102B40003BECF4F000016651300FEF6F270E636F1E
:102B5000100E626F05C060F006C061F017ECF5F072
:102B600060C066F061C067F0030E0001696FE80E97
:102B7000686F3BECF4F000016651300FF06F030E0C
:102B8000636FE80E626F05C060F006C061F017EC7D
:102B9000F5F060C066F061C067F0000E0001696F7B
:102BA000640E686F3BECF4F000016651300FF16F7A
:102BB000000E636F640E626F05C060F006C061F0C6
:102BC00017ECF5F060C066F061C067F0000E000120
:102BD000696F0A0E686F3BECF4F000016651300F2C
:102BE000F26F05C060F006C061F0000E636F0A0E60
:102BF000626F17ECF5F000016051300FF36FEF0ECC
:102C0000616F000E626F050E636FADECF8F069EF57
:102C100094F0D00E00017D6FC90EE82EFED77D2FF7
:102C2000FCD700D0E10E0001616F000E626F020E52
:102C3000636FADECF8F0D00E00017D6FC90EE82E89
:102C4000FED77D2FFCD700D0650E0001616FFF0E0F
:102C5000626FC5ECF6F0D00E00017D6FC90EE82E54
:102C6000FED77D2FFCD700D01D502D0DE00EF32494
:102C7000D96E040EF420DA6EDECF05F0DDCF06F05B
:102C800005C066F006C067F0000E0001696F640EB3
:102C9000686F3BECF4F000016651300FE16F000EFD
:102CA000636F640E626F05C060F006C061F017ECE0
:102CB000F5F060C066F061C067F0000E0001696F5A
:102CC0000A0E686F3BECF4F000016651300FE26FC2
:102CD00005C060F006C061F0000E636F0A0E626FFF
:102CE00017ECF5F000016051300FE36FE10E616FFA
:102CF000000E626F030E636FADECF8F0D00E0001B2
:102D00007D6FC90EE82EFED77D2FFCD700D0210E97
:102D10000001616FFF0E626FC5ECF6F0D00E00018E
:102D20007D6FC90EE82EFED77D2FFCD700D01D5039
:102D30002D0DFA0EF324D96E040EF420DA6EDF5056
:102D400000017D6F7D51606F616B000E636F0A0E35
:102D5000626F3BECEEF000016051300FE16F1D50EF
:102D60002D0DFA0EF324D96E040EF420DA6EDF5026
:102D70007D6F7D51726F736B000E756F0A0E746FED
:102D8000FAECEEF000017251300FE26FE10E616F6C
:102D9000000E626F020E636FADECF8F0D00E000112
:102DA0007D6FC90EE82EFED77D2FFCD700D0CC0E4C
:102DB0000001616FFF0E626FC5ECF6F0D00E0001EE
:102DC0007D6FC90EE82EFED77D2FFCD700D01D5099
:102DD0002D0DDC0EF324D96E040EF420DA6EDECF56
:102DE00005F0DDCF06F005C066F006C067F0000E06
:102DF0000001696F640E686F3BECF4F000016651EE
:102E0000300FE16F000E636F640E626F05C060F0FB
:102E100006C061F017ECF5F060C066F061C067F0C5
:102E2000000E0001696F0A0E686F3BECF4F00001C0
:102E30006651300FE26F05C060F006C061F0000E11
:102E4000636F0A0E626F17ECF5F000016051300FEE
:102E5000E36FE10E616F000E626F030E636FADEC06
:102E6000F8F0D00E00017D6FC90EE82EFED77D2F41
:102E7000FCD700D0C60E0001616FFF0E626FC5EC7B
:102E8000F6F0D00E00017D6FC90EE82EFED77D2F23
:102E9000FCD700D01D502D0DDE0EF324D96E040E8C
:102EA000F420DA6EDECF05F0DDCF06F005C066F067
:102EB00006C067F0000E0001696F640E686F3BEC9E
:102EC000F4F000016651300FE16F000E636F640E85
:102ED000626F05C060F006C061F017ECF5F060C0ED
:102EE00066F061C067F0000E0001696F0A0E686F3E
:102EF0003BECF4F000016651300FE26F05C060F06A
:102F000006C061F0000E636F0A0E626F17ECF5F0F9
:102F100000016051300FE36FE10E616F000E626FD0
:102F2000030E636FADECF8F0D00E00017D6FC90E9B
:102F3000E82EFED77D2FFCD700D07F0E0001616FF9
:102F4000FE0E626FC5ECF6F0D00E00017D6FC90E6B
:102F5000E82EFED77D2FFCD700D01D502D0DFD0E85
:102F6000F324D96E040EF420DA6EDF5000017D6F79
:102F70007D51606F616B000E636F0A0E626F3BECF8
:102F8000EEF000016051300FE16F1D502D0DFD0E70
:102F9000F324D96E040EF420DA6EDF507D6F7D517C
:102FA000726F736B000E756F0A0E746FFAECEEF0B1
:102FB00000017251300FE26FE10E616F000E626F1F
:102FC000020E636FADECF8F0D00E00017D6FC90EFC
:102FD000E82EFED77D2FFCD700D01D502D0DFE0E04
:102FE000F324D96E040EF420DA6EDF5000017D6FF9
:102FF0007D51606F616B000E636F0A0E626F3BEC78
:10300000EEF000016051300FE16F1D502D0DFE0EEE
:10301000F324D96E040EF420DA6EDF507D6F7D51FB
:10302000726F736B000E756F0A0E746FFAECEEF030
:1030300000017251300FE26FE10E616F000E626F9E
:10304000020E636FADECF8F0D00E00017D6FC90E7B
:10305000E82EFED77D2FFCD700D01D502D0DFF0E82
:10306000F324D96E040EF420DA6EDF5000017D6F78
:103070007D51606F616B000E636F0A0E626F3BECF7
:10308000EEF000016051300FE16F1D502D0DFF0E6D
:10309000F324D96E040EF420DA6EDF507D6F7D517B
:1030A000726F736B000E756F0A0E746FFAECEEF0B0
:1030B00000017251300FE26FE10E616F000E626F1E
:1030C000020E636FADECF8F0D00E00017D6FC90EFB
:1030D000E82EFED77D2FFCD700D01D502D0DFB0E06
:1030E000F324D96E040EF420DA6EDF5000017D6FF8
:1030F0007D51606F616B000E636F0A0E626F3BEC77
:10310000EEF000016051300FE16F1D502D0DFB0EF0
:10311000F324D96E040EF420DA6EDF507D6F7D51FA
:10312000726F736B000E756F0A0E746FFAECEEF02F
:1031300000017251300FE26FE10E616F000E626F9D
:10314000020E636FADECF8F0D00E00017D6FC90E7A
:10315000E82EFED77D2FFCD700D01D502D0DFC0E84
:10316000F324D96E040EF420DA6EDF5000017D6F77
:103170007D51606F616B000E636F0A0E626F3BECF6
:10318000EEF000016051300FE16F1D502D0DFC0E6F
:10319000F324D96E040EF420DA6EDF507D6F7D517A
:1031A000726F736B000E756F0A0E746FFAECEEF0AF
:1031B00000017251300FE26FE10E616F000E626F1D
:1031C000020E636FADECF8F0D00E00017D6FC90EFA
:1031D000E82EFED77D2FFCD700D0B80E0001616F1E
:1031E000FC0E626FC5ECF6F01D502D0D070EF3249A
:1031F000D96E050EF420DA6EDF50D8B402EF99F0E4
:1032000004EF99F01AEF9AF0280E0001616FF90EA1
:10321000626FC5ECF6F01D502D0DE20EF324D96E51
:10322000040EF420DA6EDECF05F0DDCF06F005C027
:1032300066F006C067F0000E0001696F640E686FEB
:103240003BECF4F000016651300FE16F000E636F4C
:10325000640E626F05C060F006C061F017ECF5F017
:1032600060C066F061C067F0000E0001696F0A0E71
:10327000686F3BECF4F000016651300FE26F05C05F
:1032800060F006C061F0000E636F0A0E626F17EC0B
:10329000F5F000016051300FE36FE10E616F000E39
:1032A000626F030E636FADECF8F0D00E00017D6F1E
:1032B000C90EE82EFED77D2FFCD700D0650E000189
:1032C000616FFF0E626FC5ECF6F0D00E00017D6FEE
:1032D000C90EE82EFED77D2FFCD700D01D502D0D36
:1032E000E40EF324D96E040EF420DA6EDECF05F07E
:1032F000DDCF06F005C066F006C067F0000E0001E5
:10330000696F640E686F3BECF4F000016651300F9A
:10331000E16F000E636F640E626F05C060F006C05F
:1033200061F017ECF5F060C066F061C067F0000E68
:103330000001696F0A0E686F3BECF4F00001665102
:10334000300FE26F05C060F006C061F0000E636FE1
:103350000A0E626F17ECF5F000016051300FE36F59
:10336000E10E616F000E626F030E636FADECF8F05B
:10337000D00E00017D6FC90EE82EFED77D2FFCD741
:1033800000D00F0E0001616FFE0E626FC5ECF6F00B
:10339000D00E00017D6FC90EE82EFED77D2FFCD721
:1033A00000D01D502D0D000EF324D96E050EF42013
:1033B000DA6EDF5000017D6F7D51606F616B000E32
:1033C000636F0A0E626F3BECEEF000016051300F4C
:1033D000E16F1D502D0D000EF324D96E050EF42063
:1033E000DA6EDF507D6F7D51726F736B000E756FFB
:1033F0000A0E746FFAECEEF000017251300FE26FBA
:10340000E10E616F000E626F020E636FADECF8F0BB
:10341000D00E00017D6FC90EE82EFED77D2FFCD7A0
:1034200000D0B80E0001616FFC0E626FC5ECF6F0C3
:10343000F7EF9BF0480E0001616FF90E626FC5EC6B
:10344000F6F0D00E00017D6FC90EE82EFED77D2F5D
:10345000FCD700D0F7EF9BF0D00E00017D6FC90EB6
:10346000E82EFED77D2FFCD700D0690E0001616FDA
:10347000FE0E626FC5ECF6F0D00E00017D6FC90E36
:10348000E82EFED77D2FFCD700D017C060F00001DA
:10349000616B000E636F0A0E626F3BECEEF0000191
:1034A0006051300FE16F17C072F0736B000E756FD3
:1034B0000A0E746FFAECEEF000017251300FE26FF9
:1034C000E10E616F000E626F020E636FADECF8F0FB
:1034D000D00E00017D6FC90EE82EFED77D2FFCD7E0
:1034E00000D0890E0001616FFF0E626FC5ECF6F02F
:1034F000D00E00017D6FC90EE82EFED77D2FFCD7C0
:1035000000D00F0E0001616FFF0E626FC5ECF6F088
:10351000D00E00017D6FC90EE82EFED77D2FFCD79F
:1035200000D016C060F00001616B000E636F0A0EE0
:10353000626F3BECEEF000016051300FE16F16C09E
:1035400072F0736B000E756F0A0E746FFAECEEF08A
:1035500000017251300FE26FE10E616F000E626F79
:10356000020E636FADECF8F0D00E00017D6FC90E56
:10357000E82EFED77D2FFCD700D0890E0001616FA9
:10358000FF0E626FC5ECF6F0D00E00017D6FC90E24
:10359000E82EFED77D2FFCD700D0180E0001616FFA
:1035A000FF0E626FC5ECF6F0D00E00017D6FC90E04
:1035B000E82EFED77D2FFCD700D015C060F00001AB
:1035C000616B000E636F0A0E626F3BECEEF0000160
:1035D0006051300FE16F15C072F0736B000E756FA4
:1035E0000A0E746FFAECEEF000017251300FE26FC8
:1035F000E10E616F000E626F020E636FADECF8F0CA
:10360000D00E00017D6FC90EE82EFED77D2FFCD7AE
:1036100000D0C00E0001616FFF0E626FC5ECF6F0C6
:10362000D00E00017D6FC90EE82EFED77D2FFCD78E
:1036300000D0740E0001616FFE0E626FC5ECF6F0F3
:10364000D00E00017D6FC90EE82EFED77D2FFCD76E
:1036500000D014C060F00001616B000E636F0A0EB1
:10366000626F3BECEEF000016051300FE16F14C06F
:1036700072F0736B000E756F0A0E746FFAECEEF059
:1036800000017251300FE26FE10E616F000E626F48
:10369000020E636FADECF8F0D00E00017D6FC90E25
:1036A000E82EFED77D2FFCD700D0890E0001616F78
:1036B000FF0E626FC5ECF6F0D00E00017D6FC90EF3
:1036C000E82EFED77D2FFCD700D0B20E0001616F2F
:1036D000FB0E626FC5ECF6F0D00E00017D6FC90ED7
:1036E000E82EFED77D2FFCD700D0CBC005F0CCC094
:1036F00006F005C066F006C067F0000E0001696FB5
:10370000640E686F3BECF4F000016651300FE16F1E
:10371000000E636F640E626F05C060F006C061F05A
:1037200017ECF5F060C066F061C067F0000E0001B4
:10373000696F0A0E686F3BECF4F000016651300FC0
:10374000E26F05C060F006C061F0000E636F0A0E04
:10375000626F17ECF5F000016051300FE36FE10E7E
:10376000616F000E626F030E636FADECF8F0D00E68
:1037700000017D6FC90EE82EFED77D2FFCD700D04B
:10378000C00E0001616FFF0E626FC5ECF6F021EF15
:103790009AF000017C517D6F7E6B7E51000AD8B497
:1037A000D4EF9BF0F7EF9BF07D51010AD8B461EFA5
:1037B00094F0030AD8B478EF94F0010AD8B482EFF9
:1037C00094F0070AD8B48CEF94F0010AD8B496EFBD
:1037D00094F0030AD8B46CEF95F0010AD8B409EF5D
:1037E00096F00F0AD8B42CEF9AF0F7EF9BF0000E8A
:1037F000116E000E0001DF6F1A0EF7ECFAF0090EE1
:1038000000017E6F1E0E7D6FE40EE82EFED77D2F29
:10381000FCD77E2FFAD700F0C9801150D8B413EF2F
:103820009CF015EF9CF00DEF9CF00E013885290EF1
:1038300000017E6F960E7D6F7F0EE82EFED77D2FE6
:10384000FCD77E2FFAD712000001D251D8B42BEF4B
:103850009CF02DEF9CF0ACEFA0F007500810D8A41E
:1038600034EF9CF036EF9CF0ACEFA0F01050D8A4F1
:103870003CEF9CF03EEF9CF0ACEFA0F0CF51D8A411
:1038800044EF9CF046EF9CF0ACEFA0F0D051D8A4F0
:103890004CEF9CF04EEF9CF0ACEFA0F0D351D8A4CD
:1038A00054EF9CF056EF9CF0ACEFA0F0000E856F4B
:1038B000A2EFA0F085512D0D050EF324D96E050E53
:1038C000F420DA6EDE04D8A468EF9CF06AEF9CF076
:1038D00034EF9EF085512D0D070EF324D96E050EA1
:1038E000F420DA6EDF50D8B478EF9CF07AEF9CF0D9
:1038F00034EF9EF085512D0D020EF324D96E050E86
:10390000F420DA6EDE04D8A488EF9CF08AEF9CF0F5
:1039100034EF9EF0520E0001806F2B0E7F6F000E71
:10392000E82EFED77F2FFCD7802FFAD700F09084A7
:10393000000E01011F6F000E1E6F000E1D6F000EA6
:103940001C6F000E1B6F000E1A6F000E196F000E19
:10395000186F000E0F6F000E0E6F000E0D6F000E31
:103960000C6F000E0B6F000E0A6F000E096F000E39
:10397000086F000E436F000E426F000E416F000E85
:10398000406F000185512D0DE60EF324D96E040E13
:10399000F420DA6EDECF26F1DDCF27F185512D0D33
:1039A000E80EF324D96E040EF420DA6EDECF24F193
:1039B000DDCF25F185512D0DEA0EF324D96E040ECD
:1039C000F420DA6EDECF22F1DDCF23F185512D0D0B
:1039D000EC0EF324D96E040EF420DA6EDECF20F163
:1039E000DDCF21F185512D0DEE0EF324D96E040E9D
:1039F000F420DA6EDECF16F1DDCF17F185512D0DF3
:103A0000F00EF324D96E040EF420DA6EDECF14F13A
:103A1000DDCF15F185512D0DF20EF324D96E040E74
:103A2000F420DA6EDECF12F1DDCF13F185512D0DCA
:103A3000F40EF324D96E040EF420DA6EDECF10F10A
:103A4000DDCF11F185512D0DF60EF324D96E040E44
:103A5000F420DA6EDF50E06F85512D0DF70EF32460
:103A6000D96E040EF420DA6EDF500101466F0001BA
:103A700085512D0DF80EF324D96E040EF420DA6E64
:103A8000DF500101456F000185512D0DF90EF32422
:103A9000D96E040EF420DA6EDF500101446F265116
:103AA0002711D8B456EF9DF058EF9DF05BEF9DF0D5
:103AB0008E861E4B1F2B24512511D8B462EF9DF02A
:103AC00064EF9DF067EF9DF08E881C4B1D2B2251FB
:103AD0002311D8B46EEF9DF070EF9DF073EF9DF061
:103AE0008E8A1A4B1B2B20512111D8B47AEF9DF0EE
:103AF0007CEF9DF07FEF9DF08E8C184B192B000111
:103B000085512D0D020EF324D96E050EF420DA6EC8
:103B1000020EDF6E85512D0D080EF324D96E050EB1
:103B2000F420DA6EDF50D8B498EF9DF09AEF9DF054
:103B3000B0EF9DF085512D0D080EF324D96E050EC2
:103B4000F420DA6E000EDF6E08ECEBF063C028F1B3
:103B500064C029F128C107F029C108F0BCEF9DF02D
:103B600085512D0DE40EF324D96E040EF420DA6E87
:103B7000DECF07F0DDCF08F0090E0001806F1E0ECA
:103B80007F6FE40EE82EFED77F2FFCD7802FFAD769
:103B900000F000018551020D110EF324F66EEC0EBB
:103BA000F420F76EF86A000EF8220900F5CF63F0F2
:103BB0000A00F5CF64F085512D0DDC0EF324656FFE
:103BC000040EF420666F0FECEDF0090E0001806F1B
:103BD0001E0E7F6FE40EE82EFED77F2FFCD7802FBE
:103BE000FAD700F0FDECEFF0090E0001806F1E0E19
:103BF0007F6FE40EE82EFED77F2FFCD7802FFAD7F9
:103C000000F0090E0001856108EF9EF00AEF9EF0BA
:103C100011EF9EF0300EE16F8551310FE26F26EF0C
:103C20009EF0080E856517EF9EF019EF9EF026EFC7
:103C30009EF00C0E85611FEF9EF021EF9EF026EFA7
:103C40009EF0310EE16F8551270FE26F340E786FD1
:103C5000F60E796FF50E7A6F000E7B6F020E7C6F99
:103C60000DEC94F093EFA2F085512D0D050EF32489
:103C7000D96E050EF420DA6EDE04D8A442EF9EF071
:103C800044EF9EF090EF9FF085512D0D070EF32429
:103C9000D96E050EF420DA6EDF50D8B452EF9EF0E4
:103CA00054EF9EF090EF9FF085512D0D020EF324FE
:103CB000D96E050EF420DA6E020EDE18D8A463EF7A
:103CC0009EF065EF9EF090EF9FF0520E0001806F26
:103CD0002B0E7F6F000EE82EFED77F2FFCD7802F94
:103CE000FAD700F090948E968E988E9A8E9C000152
:103CF00085512D0D020EF324D96E050EF420DA6ED7
:103D0000030EDF6E85512D0D000EF324D96E050EC6
:103D1000F420DA6EDF0685512D0D000EF324D96EE6
:103D2000050EF420DA6EDF50D8A499EF9EF09BEFD9
:103D30009EF0A5EF9EF085512D0D070EF324D96E50
:103D4000050EF420DA6E000EDF6E090E0001806FA2
:103D50001E0E7F6FE40EE82EFED77F2FFCD7802F3C
:103D6000FAD700F000018551020D110EF324F66E12
:103D7000EC0EF420F76EF86A000EF8220900F5CF79
:103D800063F00A00F5CF64F085512D0DDC0EF324AD
:103D9000656F040EF420666FB2ECB9F0090E0001F5
:103DA000806F1E0E7F6FE40EE82EFED77F2FFCD7AC
:103DB000802FFAD700F0000185512D0DE00EF3247D
:103DC000D96E040EF420DA6EDECF7FF0DDCF80F006
:103DD00085512D0DE40EF324D96E040EF420DA6E15
:103DE000DECF81F0DDCF82F085512D0DE20EF32480
:103DF000D96E040EF420DA6EDECF83F0DDCF84F0CE
:103E0000831F841F834B842B8151835F8251845B8A
:103E10007F518325076E80518421086E090E0001B1
:103E2000806F1E0E7F6FE40EE82EFED77F2FFCD72B
:103E3000802FFAD700F0FDECEFF0090E0001806F43
:103E40001E0E7F6FE40EE82EFED77F2FFCD7802F4B
:103E5000FAD700F0090E0001856131EF9FF033EFD2
:103E60009FF03AEF9FF0300EE16F8551310FE26F16
:103E70004FEF9FF0080E856540EF9FF042EF9FF0F7
:103E80004FEF9FF00C0E856148EF9FF04AEF9FF0D7
:103E90004FEF9FF0310EE16F8551270FE26F010167
:103EA0002C51D8B456EF9FF058EF9FF069EF9FF078
:103EB000000E2C6F700E0001786FF10E796FF50E09
:103EC0007A6F000E7B6F020E7C6F0DEC94F093EF17
:103ED000A2F00001D451D8B470EF9FF072EF9FF0C0
:103EE00082EF9FF0000ED46F2C0E786FF00E796F7A
:103EF000F50E7A6F000E7B6F020E7C6F0DEC94F066
:103F000093EFA2F0120E786FF60E796FF50E7A6FBE
:103F1000000E7B6F020E7C6F0DEC94F093EFA2F01D
:103F200085512D0D050EF324D96E050EF420DA6EA1
:103F3000DE04D8A49EEF9FF0A0EF9FF0A1EFA0F0C9
:103F400085512D0D050EF324D96E050EF420DA6E81
:103F5000000EDF6E85512D0D030EF324D96E050E74
:103F6000F420DA6E85512D0D040EF324E16E050E5A
:103F7000F420E26EDE50E618D8A4C1EF9FF0C3EF44
:103F80009FF0CFEF9FF085512D0D040EF324D96ED5
:103F9000050EF420DA6E010EDF6ED8EF9FF085512A
:103FA0002D0D040EF324D96E050EF420DA6EDF2AEF
:103FB000000ED26F010ED16F8529DE6F090E000150
:103FC000806F1E0E7F6FE40EE82EFED77F2FFCD78A
:103FD000802FFAD700F0000185514AECF5F0090E68
:103FE0000001806F1E0E7F6FE40EE82EFED77F2F3C
:103FF000FCD7802FFAD700F000018551020D110E79
:10400000F324F66EEC0EF420F76EF86A000EF82238
:104010000900F5CF63F00A00F5CF64F085512D0D4E
:10402000DC0EF324656F040EF420666F46ECF7F0A7
:10403000090E0001806F1E0E7F6FE40EE82EFED782
:104040007F2FFCD7802FFAD700F000018551020D99
:10405000110EF324F66EEC0EF420F76EF86A000EE3
